:0D001600245265763A20343238352024001B
:10271900E52AAB0EAA0FA91075F010A4F58285F071
:1027290083020409E493FF3395E0FEEF24D0FFEE22
:1027390034FFFE7C0002046AE52A75F010A4AB0E92
:102749002510F9E50F35F0FA90000402040990000C
:102759000D1206AE785FE6FF18E68FF0A4FFE527B5
:102769002FF582E435F0F583229001007478F07832
:1027790059E624FFF582E434FFF583E022E542C4FB
:10278900F8540FC868FFE541C454F04822786190B5
:102799000001E0FCA3E0FDE6FA08E6FB22E52825B6
:1027A900272402F582E43400F583E022AB0EAA0F58
:1027B900A9102275F010A429F9EA35F0FA227862F5
:1027C900900001E0FDE6FB229001007478F07F01A2
:1027D90022D20AC3ED9B785FF6785B760122F582F7
:1027E900E43400F58322D20A785FF6785B22900000
:1027F9000D0206AE7B007A00792522900002E0FFE7
:0F280900E527D39F22E4F52C787CE614F52D22E9
:10163600E47880F6123807C28575840F75E104E4F4
:10164600F5E275E344F58475B7B075840F758A8342
:10165600F597438901758D01758F01758E04F541E6
:10166600F5420542E54270020541640F454170F2BC
:10167600438902E4F541F542AE41AF42E4FCFD7B0D
:10168600507AC3F9F8D312054B400FE58920E40AD6
:101696000542E54270E2054180DE75970212379FEA
:1016A600E4FF12381A43EF04E4F541F5427D01AF39
:1016B600421237F20542E54270020541C39402E543
:1016C60041940040E8E4F520C20AC208C20EC20DE9
:1016D600C20C7880F608F6785AF618F6785FF6F5B2
:1016E60041F542740025421227E7E4F00542E5423F
:1016F60070020541B400ECE541B401E7E4F541F5BB
:101706004274002542F582E43401F583E4F0054293
:10171600E542700205416440454170E5E4F584E523
:10172600EF20E10CE5EF5408D394004003D3800189
:10173600C392037D08E4FF123751E4785EF67857CA
:10174600F61227B57857E6FF122721FE785E26F6B1
:10175600EE600578570680E9EFD39400402A1227F9
:10176600B51227F71203F0FF74551204361203F070
:1017760064556002D20C74AA1204361203F064AAED
:101786006002D20CEF120436E4F584E5EF5402D37E
:10179600940040047F018002E4FF122ABD8F40E5D9
:1017A6004020E036C20974FF7861F608F608F608AC
:1017B600F67E007F107D007B007A007967120704B1
:1017C6007546FF75471D7548AB754900754A107B10
:1017D600007A0079671234A78002D20990001D7D35
:1017E6006412272DAA06AB0790001CE493FF3395DD
:1017F600E0FEEF24D0FFEE34FFFE7C037DE812040A
:101806006AEF2BFBEE3AFA90001E7D0A12272DEFA7
:101816002BFFEE3AFEA3E493FD3395E0FCED24D0D6
:10182600FDEC34FFCD2F7866F6ED3E18F6E5402048
:10183600E176E4F541F542122786FE1227B58F823E
:10184600F5831204096058E92FF9EA3E1227502061
:10185600E242E4F53FE53FC3787C9650371227868F
:101866001227B58F82F583120409FF7E00C006C0D9
:10187600077D00122786FEE92FF9EA3EFA1227F7BE
:10188600785EE6853FF01227BFD007D00612070420
:10189600053F80C10542E5427002054102183D7FC1
:1018A60001121357C20B8007E4FF121357D20BE441
:1018B600F541F5427A007B967D03AF4212359905D4
:1018C60042E54270020541C39402E541940040E4BA
:0118D60022EF
:05000600785FE6FF2217
:0300230002250BA8
:10250B00C0E0C0F0C083C082C0D075D000C000C096
:10251B0001C002C003C004C005C006C00730993E0D
:10252B00C299785A06795AE77881667015F6785A07
:01253B00F6A9
:0D253C0075230A75241300D524FCD523F661
:04254900C285801CAB
:0D254D0075231475241300D524FCD523F646
:10255A00785AE62400F582E43401F583E0F59920FF
:10256A0098030225F8209A08200A05C2980225F441
:10257A00C29A7859E60624001227E7E599F0C2982C
:10258A00E6FFB40112900000E0FE7003F6805FEEF1
:10259A00540724027860F6EFB4020D7860E6B409B5
:1025AA0007900001E02403F67859E6FFB40007E437
:1025BA00B40103F68038EFC378609640317859E663
:1025CA0024FFFDE434FFFC7B017A0079001230C05D
:0A25DA001227786F60047600801469
:0D25E40075231475241300D524FCD523F6AF
:1025F10012081778597600D007D006D005D004D03C
:1026010003D002D001D000D0D0D082D083D0F0D07E
:02261100E032B5
:103636008F358B368A378938E4F584EA494B601C26
:10364600AB36AA37A9381203F0FFE535FD7C001228
:0C3656003858AB36AA37A938EF120436FA
:0D366200753914753A1300D53AFCD539F6C8
:0E366F008535997F011237DB3099FDC2992213
:0937BE00E4F5847881EFF6D28570
:0D37C70075351475361300D536FCD535F672
:0737D400900100E0F59922CD
:1036BE00C9EFC9E96401701FEDC39B4027787CE612
:1036CE00FFEB2FFFE433FEEDC39FEE6480F87480B2
:1036DE009850111227DA22B90210ED6B70061227DC
:0B36EE00EF760222C20AE4785BF622AD
:1034F900C9EFC9BAFF11BBFF0EED6B7002EC6A7020
:10350900381227EFE9F622E96401701CC3ED9BEC40
:103519009A4013787CE62BFFE43AFEC3ED9FEC9EBC
:1035290050041227DA228011B90214ED6B7002ECF3
:103539006A70061227EF760222C20AE4785BF62245
:10081700900000E0FF54F8F526E4F584EF1206DEB9
:10082700086409086B0A087210087B110888120807
:10083700951908A51A08B92008C22809162909D840
:10084700330A13370A3D390A4D410A58490A62509B
:100857000A9F6109A2700A979800000AC41227C765
:100867007F0180171227967F01801DD20A785B7659
:1008770003020AC478641227C97F021236BE020A2D
:10088700C478631227987F021234F9020AC4122728
:10089700C77F011236BE200A03020AC4800E122740
:1008A700967F011234F9200A03020AC41227D102E3
:1008B7000AC1E4F58475EF10020AC4120F3B7F18D2
:1008C700120FA57F051236367857120F237861125B
:1008D7000F237862120F2F7863120F2F7864120F8D
:1008E700537865120F537866120F6DE4F527746716
:0F08F7002527F8120F6D0527E527C3941040EF52
:0D090600120F7975341300D534FCD533F68B
:1009130002098D900001E0FFC37857965073EF757D
:10092300F010A42510F9E50F35F0850E30F5318967
:1009330032120F3B7F0D123636AB30AA31A9321279
:100943000F5F900001120EFB900002120EFB90004D
:1009530003120F0F900004120F0FE4F527AB30E5DD
:10096300322405F9E43531FA7E00E92527F9EE3A18
:0D097300FA120F5F0527E527C3940840E046
:0D098000120F7975341300D534FCD533F611
:10098D00C285D2AC020AC49001007478F0E4A3F0E1
:10099D007F02020AC11238867812120610900100E9
:1009AD00747CF07812E6A3F008E6A3F008E6A3F055
:1009BD0008E6A3F07C007D057B017A0179001230F9
:1009CD00C0900105EFF07F06020AC1900001E0FF23
:1009DD00B4010FA3E0FDA3E07861CDF608EDF602BA
:1009ED000A97EFB4020A900002E07861F6020A97C6
:1009FD00900001E0B4030CA3E0FFA3E07863CFF611
:100A0D0008EFF6020A97E4F527900001E0FFE527CD
:100A1D00C39F5016740225271227ACFF7467252734
:100A2D00F8EFF60527E527B410DFE47876F6805A5F
:100A3D00120F97900001E0FDE4FF123751020AC436
:100A4D00900001E024FF9202020AC4900001E0240C
:100A5D00FF92018062785FE66005752902800B20A8
:100A6D000D0575290380037529019001007479F036
:100A7D00A3E529120F88900102EFF07F031237BE14
:100A8D00E52964017031D20E8002D208788076F1AA
:100A9D0080257A007B327D017F001235999001000F
:100AAD007479F0900001E0900101120F889001021D
:100ABD00EFF07F031237BEE52664A06003020C6DD4
:100ACD00900000E064A16003020B8EA3E0C3785791
:100ADD00964003020B881227B5E0FF122721F52956
:100AED00EF75F010A429F9EA12274E30E22D90008F
:100AFD0001E012000E8F29900100747FF0A3E5290B
:100B0D00F02402120FBA74022529F582E43401F59E
:100B1D0083EFF0E5292403FF020C6A900001E0FF4A
:100B2D0012000EC2ACE4F525D285E529D39406401A
:100B3D00221227FD7F7F120FA5AF29123636E4F55D
:100B4D0027E527C395295007120EC3052780F20507
:100B5D00298018E5292478120FAFE4F527E527C37E
:0B0B6D0095295007120EC3052780F2E7
:0D0B7800120FD475341300D534FCD533F6BC
:100B8500020C611227D1020C6A900000E064A26099
:100B950003020C6D7857E6FFA3E0FEC39F400302F6
:100BA5000C67A3E0FDC39F4003020C67EE9D400365
:100BB500020C67900001E0F527E4F52EF52F1228C9
:100BC500045017AF2712000EE52712271B252FF516
:100BD5002FE4352EF52E052780E4C2ACE4F525D2A9
:100BE50085FB7A0079257F7F123636C3E52F948001
:100BF500E52E940050028007E52E4480120FAFAF1A
:100C05002F1227FD123636900001E0F52712280431
:100C1500503DE4F5281227B575F010E52712272475
:100C2500FFE528C39F5024E5271227BC1227F77834
:100C35005FE6FF18E68FF0A4252812276A1204093B
:0F0C4500FF1227FD123636052880CA052780BE0C
:0D0C5400120FD475341300D534FCD533F6DF
:100C6100C285D2AC80061227D11237BEE526645860
:100C7100703BFA120FE3753801753901753A017B42
:100C8100017A0079011236F98F29E529247890013A
:100C910000F0EF2401120FBA74012529F582E43422
:100CA10001F583EFF0E5292402FF1237BEE5266442
:100CB100806009E52664886003020DED785BE6B487
:100CC1000105120F978012E4F527E527C3787C967A
:100CD1005007120FC8052780F1900000E05407F576
:100CE10029B4070A752801A3E0F529A38006E4F5D4
:100CF10028900001E0F52A1529E52AC37857964086
:100D010003020DD7122719FFE529D39F40028F292E
:100D1100785BE6B40109785FE6F52DF52C800312C6
:100D2100280E785FA62C785FE6D3952D4003020D3F
:100D3100CBE4F527E527C395294003020DC012270F
:100D41004120E27690000112040964387036E529E9
:100D5100D3940440061227A6FD80587859E6C3951E
:100D610027FFE49400FE74FE2FF58274FF3EF583A5
:100D7100E0FDE52A75F010A4AB0E2510F9E50F355D
:100D8100F0FA802F122719FF7859E6C39FFFE494E8
:100D910000FE7C00EF2527FFEC3EFEEF2528FFEC4F
:100DA1003EFE74FF2FF58274FF3EF583E0FDE52AD8
:100DB1001227BC122757ED1204480527020D35AF43
:100DC1002A1221B2785F06020D27785FA62CE5264C
:100DD100648870188010E52AB4FF11900002E0F5D4
:100DE10020E526B48806122772120FEFE52664A8C3
:100DF1006003020EC2785BE6B401077A00120FE3CA
:100E01008012E4F527E527C3787C965007120FC8B6
:100E1100052780F1900001E030E711547FFEA3E047
:100E2100FDEEF52EEDF52F752803800C900001E005
:100E3100752E00F52F752802740025281227E7E08A
:100E4100FF74012528F582E43400F583E0F52B8F4A
:100E51002AE52AD3952B5063E52AC3785796505635
:100E6100122719F529785BE6B40109785FE6F52DBB
:100E7100F52C800312280E785FA62C785FE6D395B7
:100E81002D5029E4F527E527C3952950151227414F
:100E910020E20B1227A6FD122757ED120448052761
:100EA10080E4AF2A1221B2785F0680CF785FA62C4A
:100EB100E5292528F528052A020E52122772120F5C
:010EC100EF41
:100EC20022900001E075F010A4AB0E2510F9E50F99
:100ED20035F0FA90000D1206AE785FE6FF18E68F45
:100EE200F0A42527F582E435F0F583120409FF7B8F
:100EF200007A00792512363622AB30AA31A9321295
:100F02000409FF7B007A00792512363622AB30AA1B
:100F120031A932120409FF7B007A00792512363694
:100F220022E6FF7B007A00792512363622E6FF7B25
:100F3200007A00792512363622C2ACE4F525D28534
:100F4200FB7A0079257F7F1236367B007A0079257D
:100F520022E6FF7B007A007925123636221203F050
:100F6200FF7B007A00792512363622E6FF7B007A73
:100F7200007925123636227B007A007900AF2512DD
:100F8200363675330A22F07C007D027B017A0179C4
:100F9200001230C0227A007B327D01785FE6FF12B8
:100FA2003599221236367B007A00792522FF7B00A2
:100FB2007A00792512363622FDE433FC7B017A0170
:100FC20079001230C0227A007B327D01AF271235C0
:100FD20099227B007A007900AF2512363675330AE2
:100FE200227B327D01785FE6FF1235992290010162
:070FF200F07F021237BE225E
:10F000007880E664F1600302F610E4F54FF550787D
:04F0100081E6601F16
:0DF0140075550A75561300D556FCD555F6F6
:10F021000550E5507002054F64107004E54F6427E8
:10F0310070DCC2AF7584015398FC75FFDE75FFADBE
:10F04100E4F54BF54AE4F584209830E4F54FF550AA
:0EF05100209822C3E5509488E54F9413501781
:0DF05F0075550A75561300D556FCD555F6AB
:10F06C000550E55070DF054F80DBB296B28480CD41
:10F07C0085994AC298B284E54A641A600302F15039
:10F08C00F54FF550209822C3E5509488E54F941322
:02F09C0050170B
:0DF09E0075550A75561300D556FCD555F66C
:10F0AB000550E55070DF054F80DB30988E85994B0E
:10F0BB00C298E4F54FF550209822C3E5509488E5AB
:05F0CB004F94135017E3
:0DF0D00075550A75561300D556FCD555F63A
:10F0DD000550E55070DF054F80DB20980302F046A8
:10F0ED0085994BC298E4F54FF550209822C3E55011
:08F0FD009488E54F94135017AD
:0DF1050075550A75561300D556FCD555F604
:10F112000550E55070DF054F80DB20980302F04672
:09F1220085994BC298D285C2996F
:0DF12B0075551475561300D556FCD555F6D4
:06F138007599783099FD85
:0DF13E0075550A75561300D556FCD555F6CB
:10F14B00C28502F602E54A6450600302F1E0F54F16
:10F15B00F550209822C3E5509488E54F941350172F
:0DF16B0075550A75561300D556FCD555F69E
:10F178000550E55070DF054F80DB20980302F0460C
:09F1880085994BC298D285C29909
:0DF1910075551475561300D556FCD555F66E
:08F19E007599793099FDC299C1
:0DF1A60075551475561300D556FCD555F659
:08F1B3007599013099FDC29924
:0DF1BB0075551475561300D556FCD555F644
:06F1C800E4F5993099FD09
:0DF1CE0075550A75561300D556FCD555F63B
:0FF1DB00C28502F602E54A6401703ED285C299F0
:0DF1EA0075551475561300D556FCD555F615
:08F1F7007599783099FDC29969
:0DF1FF0075551475561300D556FCD555F600
:06F20C00E4F5993099FDC4
:0DF2120075550A75561300D556FCD555F6F6
:10F21F00C28502F602E54A6402600302F2E6F54F88
:10F22F00F550209822C3E5509488E54F941350175A
:0DF23F0075550A75561300D556FCD555F6C9
:10F24C000550E55070DF054F80DB20980302F04637
:10F25C0085994BC298E4F54CE54B13B39296E54B6C
:10F26C0025E0FEC3E49400EE94F0502AE54B7F00B9
:10F27C0025E0FEC394E0501EE54B20E01FE4F5842E
:10F28C0043B701758F038E518F528F828E83F0534B
:10F29C00B7F0F58F8003754CFFE4F584D285C299E5
:0DF2AC0075551475561300D556FCD555F652
:08F2B9007599783099FDC299A6
:0DF2C10075551475561300D556FCD555F63D
:06F2CE00854C993099FD0A
:0DF2D40075550A75561300D556FCD555F634
:10F2E100C28502F602E54A6403600302F431F54F78
:10F2F100F550209822C3E5509488E54F9413501798
:0DF3010075550A75561300D556FCD555F606
:10F30E000550E55070DF054F80DB20980302F04674
:10F31E0085994BC298E4F54FF550209822C3E550DD
:08F32E009488E54F9413501779
:0DF3360075550A75561300D556FCD555F6D1
:10F343000550E55070DF054F80DB20980302F0463F
:10F3530085994DC298E54B139296E54B25E0FEC384
:10F36300E49400EE94F0400302F046E54B7D002563
:10F37300E0FCC394E0400302F046E4F58443B701A4
:10F38300758F01E54D75F020A42DFFE5F03CF55197
:10F393008F52E4F584F54EE54EC394205048E4F5CE
:10F3A3004FF550209822C3E5509488E54F941350AD
:01F3B3001742
:0DF3B40075550A75561300D556FCD555F653
:10F3C1000550E55070DF054F80DB20980302F046C1
:10F3D1000552E552AE517002055114F5828E83E556
:10F3E10099F0C298054E80B1E4F58453B7F0F58FDA
:06F3F100F584D285C299EB
:0DF3F70075551475561300D556FCD555F606
:08F404007599783099FDC29959
:0DF40C0075551475561300D556FCD555F6F0
:06F41900E4F5993099FDB5
:0DF41F0075550A75561300D556FCD555F6E7
:10F42C00C28502F602E54A6404600302F4E1F54F7A
:10F43C00F550209822C3E5509488E54F941350174B
:0DF44C0075550A75561300D556FCD555F6BA
:10F459000550E55070DF054F80DB20980302F04628
:10F4690085994BC298E54B25E0F553755400E4F5B1
:10F479004CF54FF5500554E554AE5370020553143D
:10F48900F5828E83E493254CF54C0550E5507002C6
:0EF49900054F7004E54F640270DBD285C29906
:0DF4A70075551475561300D556FCD555F655
:08F4B4007599783099FDC299A9
:0DF4BC0075551475561300D556FCD555F640
:06F4C900854C993099FD0D
:0DF4CF0075550A75561300D556FCD555F637
:10F4DC00C28502F602E54A6405600302F5F7F54FB2
:10F4EC00F550209822C3E5509488E54F941350179B
:0DF4FC0075550A75561300D556FCD555F60A
:10F509000550E55070DF054F80DB20980302F04677
:10F5190085994BC298E4F54FF550209822C3E550E0
:08F529009488E54F941350177C
:0DF5310075550A75561300D556FCD555F6D4
:10F53E000550E55070DF054F80DB20980302F04642
:09F54E0085994DC298D285C2993D
:0DF5570075551475561300D556FCD555F6A4
:08F5640075997F3099FDC299F1
:0DF56C0075551475561300D556FCD555F68F
:10F579007599203099FDE54B25E0FCE54D75F020A6
:10F58900A42400FFE5F03CF5538F54E4F54CF54E07
:02F59900C29915
:0DF59B0075551475561300D556FCD555F660
:10F5A800855482855383E493F5993099FD0554E594
:10F5B80054AE537002055314F5828E83E493254CA0
:0BF5C800F54C054EE54EB420C8C2997A
:0DF5D30075551475561300D556FCD555F628
:06F5E000854C993099FDF5
:0DF5E60075550A75561300D556FCD555F61F
:10F5F300C285800BE54AB40606E4F58475EF10E591
:0DF603004A6407600302F0467880F6D2AF3B
:01F6100022D7
:10321A007F001237DB20090B7A007B327D017F00A9
:10322A00123599300C0B7A007B1E7D017F00123516
:10323A0099300817300D147A007B327D01785FE6E9
:10324A00FF123599C208122D75D209200B0C300DC8
:10325A0009788076F1122D75D20B300E08300D05E3
:10326A00C20E12F000200D1212387BE47B2C7A0178
:0B327A00F9F8C31205615002D20D22CA
:0B38700012163612321A12328580F850
:10240100005EBCE2613FDD83C29C7E20A3FD1F41D3
:102411009DC3217FFCA2401E5F01E3BD3E6082DCC3
:10242100237D9FC1421CFEA0E1BF5D0380DE3C62B3
:10243100BEE0025CDF81633D7C22C09E1D43A1FFA3
:102441004618FAA427799BC584DA3866E5BB590793
:10245100DB856739BAE406581947A5FB7826C49A83
:10246100653BD987045AB8E6A7F91B45C6987A2473
:10247100F8A6441A99C7257B3A6486D85B05E7B963
:102481008CD2306EEDB3510F4E10F2AC2F7193CD53
:10249100114FADF3702ECC92D38D6F31B2EC0E5043
:1024A100AFF1134DCE90722C6D33D18F0C52B0EE33
:1024B100326C8ED0530DEFB1F0AE4C1291CF2D7323
:1024C100CA947628ABF517490856B4EA6937D58B13
:1024D1005709EBB536688AD495CB2977F4AA481603
:1024E100E9B7550B88D6346A2B7597C94A14F6A8F3
:1024F100742AC896154BA9F7B6E80A54D7896B35E3
:0A250100000000002B6096CBDDEE19
:0338640001770ADF
:102B7000A811E6FF25E025E024EEF582E43401F516
:102B80008322E544AB0EAA0FA91075F010A4F582BC
:102B900085F083020409EF25E025E024ECF582E4CA
:102BA0003401F58322EF25E025E024EBF582E434BF
:102BB00001F583221511A811EDF61511A811EFF6F4
:102BC0002225E025E024EDF582E43401F58322EFAF
:102BD0002401FFE43EFEE43DFDE43CFC12061C90B3
:102BE00001EA2275F010A429F9EA35F0FA90000DF7
:102BF0001206AE785EE6227877E675F064A4FFC32D
:102C00007879E69F18E695F022A811E6FFC39402B2
:102C1000221204B22400FFE5F034E0221511151150
:032C2000A81122D6
:1030C000122C1CECF608EDF61511122C1C1206A59C
:0630D000E51124FCF511DE
:1030D600F80808E4F6A811F608F6E5112407F9A899
:1030E60011E6FE08E6FFC3099719E76480F8EE6467
:1030F60080985031E5112404F812068C8F828E8355
:10310600120409A811080866FFE5112403F8EFF672
:10311600E690240193A8110808F6A8110806E618F7
:0B31260070B80680B5A8110808E6FF8D
:07313100E5112409F511224C
:0B385800ED6F7816F6E690240193FF58
:013863002242
:10375100EF7023F5847598D0F584759115F584750E
:10376100C90875CBFFED90250093F5CA75C804E42F
:08377100F584D2ACC2BCD2AF5A
:01377900222D
:10367D009001F3120641000000009001F71206417F
:10368D00000000009001EA7464F0E47817F67817F2
:10369D00E6FFC394025019122BA5E4F0122B96E409
:1036AD00F0EF122BC1E4F0EF122B74E4F00680DE84
:0136BD0022EA
:10379F00D2AFD2A9C2BBE4F584E589540F4401F539
:0F37AF0089758E02758CAFE4F58AD28C02367D57
:0231380015116F
:10313A00A811E4F6122C095065EF122B74E0FFD3A4
:10314A009400403AE6122B97E07033EF30E00D120C
:10315A002B72E0D3940140047D0180067D00A81102
:10316A00E6FF12334F122B70E014F0EF122B74E0CB
:10317A00600CE6FF122BC1E0FE122B96EEF0A811AE
:10318A00E6FF122B97E06006122B96E014F0122B42
:0E319A0070E07004FD12334FA8110602313EA2
:0331A800051122EC
:03000B000231AB14
:1031AB00C0E0C0F0C083C082C0D0E8C0E0E9C0E09E
:1031BB00EAC0E0EBC0E0ECC0E0EDC0E0EEC0E0EF59
:1031CB00C0E0758CAF9001F31205CB9001F3122B7D
:1031DB00CFE014F0E0700F9001F71205CB9001F7E0
:1031EB00122BCF7464F012313812382CD0E0FFD090
:1031FB00E0FED0E0FDD0E0FCD0E0FBD0E0FAD0E088
:0F320B00F9D0E0F8D0D0D082D083D0F0D0E0322C
:1037F200122BB4122C09500808E6FE122BA5EEF08B
:05380200051105112273
:10359900122C1CEAF608EBF6122BB4122C0950383F
:1035A900EF122B74E07031E6FB122B97E0702908BB
:1035B900E625E004FFA811E6FA122B74EFF00808DB
:1035C900E6FE08E6FF7C007D0A12047CEA122BC1A4
:0F35D900EFF0EB122B97E4F0E5112404F511222B
:05334F00122BB4151162
:10335400A81108E6FFC394025019122BA5E06013CC
:10336400A8110808E670047F0180027F00A81108F4
:1033740008EFF6A811A68475840FA81108E6700951
:10338400A8110808E624FF9296A81108E6B40109DA
:0E339400A8110808E624FF9297A811E6F58418
:0733A20005110511051122C0
:0A387B00C2AF9001F31205CBD2AFEB
:013885002220
:0A388600C2AF9001F71205CBD2AFDC
:013890002215
:1037DB00122BBAA811E670057878F608F6122BF7BB
:0737EB005002B28405112217
:10381A00D215E47878F608F6EF78776002F6227621
:02382A000A2270
:10380700C215E47878F608F6787776FF75FFDE75E7
:03381700FFAD22E0
:10382C00787906E618700106122BF75002B2842242
:043726008E458F46F7
:10372A00E4F547F548C3E5489546E54795455016FB
:10373A007FE87E031233A97F011237DB0548E5488B
:06374A0070E3054780DF7B
:013750002256
:0433A9008E4C8F4D6A
:1033AD00D3E54D94FAE54C9400500EEFD3940040C4
:1033BD00407E1600DEFD1F80F2854C4E854D4FD3AD
:1033CD00E54F94FAE54E940040157FFA7E001233D6
:1033DD00A97406254FF54F74FF354EF54E80E0D399
:1033ED00E54D9400E54C94004007AF4FAE4E1233BF
:0133FD00A926
:0133FE0022AC
:083549008B4B8A4C894D8D4E1D
:103551007F011237DBAB4FAA50A951122C11FE8506
:103561004B52854C53854D54E4FDEDC3954E501B94
:10357100EF2DF582E43EF583E493AB52AA53A954AF
:103581008D827583001204480D80DFAB4FAA50A9CC
:0835910051E4854EF00204DD57
:082FB7008B508A5189528D53A1
:102FBF007880E664F17076123807C2AFE4F5844387
:102FCF00B701758F01AB54AA55A956122C1178175A
:102FDF00F608EFF6AB50AA51A952781B1206A5E4DA
:102FEF007819F67819E6C395535029781BE475F0D4
:102FFF00011206951203F0781AF6E6FF7817080605
:10300F00E618CCE6CC70010614F5828C83EFF078CD
:10301F00190680CFE4F58F53B7F0AB54AA55A956D4
:0D302F008553F01204DDD2AFE4FF12381A11
:01303C002271
:1035E8007880E664F17046C2AF123807E4F5844388
:1035F800B701758F03781876E008F67817F678180B
:10360800E6FE08E6F5828E83E4F07F011237DB7868
:1036180019E426F618740236F61806E6C39408402C
:0D362800DDE4F58F53B7F0D2AFFF12381A72
:013635002272
:102D75001235E8E4F54EF54FF55475550075564E88
:102D8500FB7A0079617D16122FB7122DF1F54BE50F
:102D95004BC3787C96504EE4F54AE54A122B846085
:102DA50040E54A122BE3854BF0A429F9EA35F0FA00
:102DB500EBC0E0EAC0E0E9C0E0AB0EAA0FA91075D0
:102DC500F010E54A122B8DFD7554007555007556AA
:102DD5004ED0E0F9D0E0FAD0E0FB122FB7054A80DB
:0B2DE500B9054B80AA122DF17880F692
:102DF00022754C12754D3475540075550075564E3C
:0D2E00007B007A00794C7D02122FB7E4228E
:022ABD008F4345
:102ABF00E4F549F54AF546F54F755000755149FB58
:102ACF007A0079617D16123549122B577004E5474C
:102ADF0064127003434601E4F545E545C3787C96DF
:102AEF005055E4F544122B826048E5436033E544CA
:102AFF00122BE38545F0A429F9EA35F0FAEBC0E093
:102B0F00EAC0E0E9C0E0122B82FD754F007550005E
:102B1F00755149D0E0F9D0E0FAD0E0FB1235498089
:102B2F000C122B82254AF54AE43549F54905440232
:102B3F002AF40545022AE9122B577004E54764125F
:072B4F007003434602AF468C
:102B560022754F007550007551497B007A00794700
:0A2B66007D02123549E5486434226F
:101DAB004856522D323030000134000000436F6E24
:101DBB0074726F6C000101500418000001556465CA
:101DCB006D616E64000101510418000001556D65D1
:101DDB0061730000000101550406FA0001496D65AD
:101DEB00617300000001015901340000005374615C
:101DFB00747573000001015D015C00000054726991
:101E0B0070436E740001015E041800000152616D95
:101E1B00705570000001015F041800000152616DE4
:101E2B0070446F776E0101630418000001556C69F3
:101E3B006D697400000101670406FA0001496C69C1
:101E4B006D6974000001016B0406FA000152496CC4
:101E5B00696D69740001016F015C000000547269C7
:101E6B00704D617800010173010300000054726929
:101E7B007054696D65010174045D000009414443B0
:101E8B006761696E00010175041800000941444344
:101E9B006F66730000010179045D00000944414342
:101EAB006761696E0001017D04180000094441431C
:101EBB006F66730000010181045D000009435552F8
:101ECB00766761696E010185045D00000943555217
:101EDB006761696E000101890406FA0009435552D6
:101EEB006F6673000001018D041800000956444110
:101EFB004300000000010191000000000000000001
:0A1F0B0000000000000000000001CB
:08386700017C02030EFF1DB3FA
:100FF90012061CE54A25E025E024E2F582E43401E5
:10100900F5831205CBE54A75F045A42491F582E4F0
:101019003401F58312061CE54A75F045A42451F5FF
:1010290082E43401F5831205CBE54A25E025E02465
:10103900E2F582E43401F58322F6E54A75F045A428
:10104900245DF582E43401F583E054FBF0E54A754B
:10105900F045A4245DF582E43401F583E022E540FE
:1010690075F045A42455F582E43401F5831205E4AD
:10107900E54075F045A42451F582E43401F5832255
:101089001205CB78C0E4FBFAF912002DE54075F0A2
:1010990045A42491F582E43401F58322E54375F0F2
:1010A90045A4245EF582E43401F583E4F0E5437553
:1010B900F045A422900148C8ECC8C9EDC9CAEECAD6
:1010C900CBEFCB1205CBEF2464FFE43EFEE43DFDFC
:1010D900E43CFCD3020561E5112404F808E6A811F3
:1010E9000808F6E4A811F6A8110822E54A75F045A2
:1010F900A4246FF582E43401F5831205CBE54A7522
:10110900F045A42459F582E43401F5831205E4027B
:1011190002C4A811E675F045A4246BF582E43401F4
:10112900F58322A811E675F045A42467F582E43415
:1011390001F58322C2B608C9E8C9A8110808E6570B
:10114900940022CBEFCBE54A25E025E02440F58247
:10115900E43401F583221205857A24797478497B70
:101169000012011EE4FBFAF9783F02002DE54075F3
:10117900F045A42450F582E43401F58322F5831265
:1011890005E412011E79C87842E4FBFA02022790AD
:1011990001FF1205E4120522E47B1EFAF9F8C302E5
:1011A900056115111511A811ECF608EDF61511A830
:1011B90011EFF6151115111511E5112403F8E622A1
:1011C900F5831205CBE4FBFA22E54075F045A4242A
:1011D9005EF582E43401F583229001FB1205CB7898
:1011E900011205729001FB02061C1205CB7A4078A8
:1011F900457B00791C0202C41205CBE5112403F8D2
:101209000205D7C8ECC8C9EDC9CAEECACBEFCB22D3
:1012190012011E8F448E438D428C41227B007A2419
:1012290079747849020227A811E6C3940822E4FBDD
:10123900FA120227E4FBFA22E4FFFE7DC87C42226F
:10124900AC4BE412033BE54A75F045A4221205CBE9
:10125900E51124FCF511F8227F007D1C7C46AB4486
:10126900AA43A942A841227B937A6D799B784422AB
:1012790054BFF0747A254AF874FE56F622245FF5B5
:1012890082E43401222463F582E4340122246FF5D7
:1012990082E4340122794878430202C4F5831205B5
:1012A900E402002D2474F582E43401F583222475C7
:1012B900F582E43401F58322247DF582E43401F5D5
:1012C90083222489F582E43401F58322248DF58271
:1012D900E43401F58322245DF582E43401F58322A7
:1012E9009001DA02061C9001DE02061C1511A811F4
:1012F900EFF622E5112404F9E722AB46AA47A948EB
:1013090022AB41AA42A94322AB46AA47A94822A82F
:10131900110808E675F045A4229001FB02061CE5B8
:101329004075F045A4229001FB1205E402011EE577
:101339004075F045A422E54075F045A422747A254C
:0E1349004AF874FB56F622747A2540F8E62224
:1013570075840F75E10475E21475E340E4F584D2F2
:10136700B8D2BAD288D28AC289C28BC2A8C2AA7599
:10137700840F75A411F5A575A660F5A7EF70030294
:101387001469E4F543E54312107B1206410000009F
:10139700001210A5121286F58312064142C80000FA
:1013A7001210B612128EF58312064142C8000012BF
:1013B70010B6121133120641451C40001210B61226
:1013C7001122120641434800001210B6121296F578
:1013D70083120641434800001210B62473F582E4D5
:1013E70034011210B21212AD740A1210B51212B7EC
:1013F7001206413F8000001210B62479F582E434CA
:1014070001F583120641000000001210B61212C146
:101417001206413F8000001210B62481F582E434A1
:1014270001F583120641000000001210B62485F56D
:1014370082E43401F583120641000000001210B661
:101447001212CB1206413F8000001210B61212D5BD
:10145700120641000000000543E5436402600302F1
:10146700138CE4F5431210B612117C74021210B5F6
:101477001212DFE4F0E54312107B12064100000070
:10148700001210A51211331211F3500D1210B612DB
:101497001133120641451C40001210B612112212D8
:1014A70011CB12129E501F1210B61211221205CB29
:1014B7007A3C78461211FA600D1210B612112212F8
:1014C7000641434800001210B61212961211C912B3
:1014D700129E500F1210B6121296F5831206414350
:1014E700480000E5431210341206410000000012C4
:1014F700387BE54312115112061CD2951210B624FF
:101507005D20950812105E4401F0800612105E54AB
:10151700FEF0E5431210584402F00543E543C39437
:1015270002500302146C7D007F0012377A7D007F22
:101537000112377AC2A6C2A57F907E01123726D242
:10154700A6D2A57863B6FF0A08B6FF061876000884
:1015570076C8E4F58475D103F5BA75BC9875E8804B
:10156700F5847861F608F6F5438543BB7F0A7E006C
:10157700123726C2AFC2EDD2EC30EDFDD2AFAFBF0E
:10158700EFFEADBEEDD394E8EE9403401A74017EEE
:1015970000A843088005C333CE33CED8F9FF78615E
:1015A700E64EF608E64FF60543E543C3940740B910
:1015B7007862E625E07962F718E63319F7D2B0D2F8
:1015C700B7D286D2877D527F031229F0E4F54374A0
:1015D7007A2543F876090543E543B402F2E4F54377
:1015E7007D01AF431237F20543E543C3940240F050
:1015F7007D01E4FF12383C7D02E4FF12383CC21241
:10160700C211C214C21390014C120641000000001F
:10161700900148120641000000009001DE120641C9
:0E162700000000009001DA12064100000000F1
:011635002292
:030003000233FFC6
:1033FF00C0E0C0F0C083C082C0D075D000C000C094
:0D340F0001C002C003C004C005C006C00714
:0D341C00753B0A753C1300D53CFCD53BF612
:1034290020820AD2B5D21112387B1212E9C289D090
:1034390007D006D005D004D003D002D001D000D0E7
:0A344900D0D082D083D0F0D0E03262
:0300130002345361
:10345300C0E0C0F0C083C082C0D075D000C000C03F
:0D34630001C002C003C004C005C006C007C0
:0D347000753D0A753E1300D53EFCD53DF6B6
:10347D0020830AD2B4D21212387B1212EFC28BD033
:10348D0007D006D005D004D003D002D001D000D093
:0A349D00D0D082D083D0F0D0E0320E
:0521B2001212F51511E9
:1021B700120006EF1210EDE67059A811E6FF121192
:1021C70078E030E0077D0112377A80477D00A8115B
:1021D700E6FF12377AA811E6FB1210341206410007
:1021E700000000EB12109712064100000000A81132
:1021F700E6FF247AF874FE56F6747A2FF874FD56C3
:10220700F6A811E6FF247AF874FB56F6EF12105879
:1022170054F3F0A81108E6FFB40112A811E6FE1264
:10222700105820E508747A2EF8740146F6EF601FFF
:10223700A81108E6B40110A811E612107B1211CB01
:10224700F9F81202C46008A81108E66405702AA804
:1022570011E6FF12105854DFF008E664056006EF38
:102267001211D4E4F0A811E6FF7004D2138002D251
:1022770014747A2FF8740146F6A81108E6640870FA
:102287001C12112C1211F3500A12112C120641457F
:102297001C4000A811E6247AF8740146F6A8110834
:1022A700E66409703212111B1211CB12129E501DD7
:1022B70012111B1205CB7B007A3C791C784612025F
:1022C700C4600A12111B12064143480000A811E618
:0722D700247AF8740846F6B2
:0522DE000511051122AD
:05000E008F357F002288
:1036F9008B358A3689371203F0AB38AA39A93A12C1
:103709000436AB35AA36A937900001120409AB3843
:0D371900AA39A93A9000011204487F02224B
:1022E3001211AB75F00384E5F0901F1393F6C2B29D
:1022F3001223E81210EC7608A811E6C394045022C6
:10230300C2B608E6540394004003D38001C31223EA
:10231300B6A81108E8C0E0E6C313FFD0E01223DC3F
:1023230080D61210EC7608A811E6C394045027C295
:10233300B608C9E8C91211C257D394004003D38029
:1023430001C31223B6A81108E8C0E0E6C313FFD007
:10235300E01223DC80D11212FC1210E776801212F5
:1023630030501D12113D4003D38001C31223C9A86D
:102373001108E8C0E0E6C313FFD0E01223F580DEC6
:102383001210E07680121230501D12113D4003D31B
:102393008001C31223C9A81108E8C0E0E6C313FFF4
:0C23A300D0E01223F580DED2B21223E855
:1023AF00E5112406F5112292B77F2C7E011233A975
:1023BF00D2B67F2C7E011233A92292B77F2C7E01D9
:1023CF001233A9D2B67F2C7E011233A922F8EFF671
:1023DF007F011237DBA81106227F2C7E011233A951
:1023EF007F011237DB22F8EFF67F011237DBA811DE
:0223FF000622B4
:102074001211AB7065122179C29212218F1212FCD7
:102084001210E77680121230501FC2A412113F4082
:1020940003D38001C3122153A81108E8C0E0E6C3AA
:1020A40013FFD0E012218380DC1210E0768012123C
:1020B40030501FC2A412113F4003D38001C3122128
:1020C40053A81108E8C0E0E6C313FFD0E01221834F
:1020D40080DC122179D29202214012219CC2A212E8
:1020E400218F1212FC1210E77680121230501FC298
:1020F400A412113F4003D38001C3122166A8110822
:10210400E8C0E0E6C313FFD0E01221A680DC121081
:10211400E07680121230501FC2A412113F4003D344
:102124008001C3122166A81108E8C0E0E6C313FFCA
:10213400D0E01221A680DC12219CD2A27F2C7E0149
:082144001233A97F011237DB01
:10214C00E5112406F5112292917F2C7E011233A900
:10215C00D2A47F2C7E011233A92292A07F2C7E0167
:10216C001233A9D2A47F2C7E011233A922C2A47FE0
:10217C002C7E011233A922F8EFF67F011237DBA86F
:10218C001106227F2C7E011233A97F011237DB222C
:10219C00C2A47F2C7E011233A922F8EFF67F011224
:0621AC0037DBA81106223A
:0429F0008F458D463C
:1029F400122A8BE4F547122A81C2B7122AB5D2B63D
:102A0400122AB57F011237DB0547E547C39404401A
:102A1400E5E4F547754808122A81E5455548D394FD
:102A2400004003D38001C3122A6E122A9A940440F0
:102A3400E6122AAB7F011237DB122A8BE4F54775C5
:102A44004880C2B67F2C7E011233A9E5465548D38F
:102A540094004003D38001C3122A6E122A9A940868
:0A2A640040E0122AAB7F010237DBCD
:102A6E0092B77F2C7E011233A9D2B67F2C7E011233
:102A7E0033A922C2B67F2C7E011233A922C2B37FA4
:102A8E002C7E011233A97F011237DB22E548C313D6
:102A9E00F5487F011237DB0547E547C322D2B37FE6
:0F2AAE002C7E011233A9227F2C7E011233A92224
:08290D008F088B098A0A890B6F
:102915001229CB7F011237DBE4F50C1229C1E50C36
:10292500B40103D38001C31229AE7F011237DB0541
:102935000CE50CC3940440E3E4F50C750D0812296D
:10294500C1E508550DD394004003D38001C3122976
:10295500AE1229D5940440E61229E67F011237DB31
:102965001229CB7F011237DBE4F50C750D80AB091D
:10297500AA0AA90B120436C2B67F2C7E011233A90E
:1029850030B10EAB09AA0AA90B1203F0450D1204CA
:1029950036D2B67F2C7E011233A91229D594084070
:0929A500D61229E67F010237DB9E
:1029AE0092B77F2C7E011233A9D2B67F2C7E0112F4
:1029BE0033A922C2B67F2C7E011233A922C2B37F65
:1029CE002C7E011233A922E50DC313F50D7F0112E2
:1029DE0037DB050CE50CC322D2B37F2C7E011233FC
:0229EE00A9221C
:082613008F458B468A47894878
:10261B001226EDE4F5491226E3E549B40103D38014
:10262B0001C31226D0122706940440EAE4F549753B
:10263B004A081226E3E545554AD394004003D3805C
:10264B0001C31226D0E54AC313F54A122706940498
:10265B0040E01226FC7F011237DB1226EDE4F54930
:10266B0012130312067200000000121303120585E9
:10267B0078011205721205A5C2B612271112271185
:10268B00121303EBC0E0EAC0E0E9C0E01205F0A2D0
:10269B00B1E4FCFDFE33FF120530D0E0F9D0E0FAD7
:1026AB00D0E0FB1205A5D2B67F2C7E011233A97F99
:1026BB00011237DB0549E549C3941840AD1226FCDE
:0526CB007F010237DB76
:1026D00092B77F2C7E011233A9D2B67F2C7E0112D5
:1026E00033A922C2B67F2C7E011233A922C2B37F46
:1026F0002C7E011233A97F011237DB22D2B37F2C4B
:102700007E011233A9227F011237DB0549E549C357
:09271000227F2C7E011233A92264
:062CD3008B418A42894397
:102CD900EFC454F0440FFD7F021229F07D127F01E9
:102CE9001229F012387B90020312061C30B03B12F5
:102CF900321AE4F544AF441218D70544E544C394A5
:102D09000240F212387B90020312119B50DEC286F8
:102D19007F647E00123726D2867F2C7E01123726E9
:102D29007D527F031229F07F00227B017A0179FF0E
:102D39007F041226139001FF1205CBE412033179A7
:102D490080784B1211927B0A7AD779237840120145
:102D59001E12130A1205A512130A12115F122C234F
:0B2D690012122512130A1205A57F01AB
:012D7400223C
:081C3F008F458B468A47894856
:101C470012387B9001FF12061CE5457064121D7562
:101C5700C293121DA320901812321AE4F549121DDF
:101C67009640FB12387B12119850EAD2937F0022DC
:101C7700E4F5499001FB120641000000001211E251
:101C8700121D759001FB1205E42090047F0180026C
:101C97007F00E4FCFDFE1205301211EDD2A4121DE7
:101CA700890549E549C3941C40D3C2A4D293021DB8
:101CB70019121D7FC2A3121DA320A11812321AE404
:101CC700F549121D9640FB12387B12119850EAD243
:101CD700A37F0022E4F5499001FB120641000000B2
:101CE700001211E2121D7F9001FB1205E420A104EE
:101CF7007F0180027F00E4FCFDFE1205301211ED2A
:101D0700D2A4121D890549E549C3941C40D3C2A436
:101D1700D2A37F2C7E011233A97F011237DB9001FA
:101D2700FB1205CBE4FFFEFDEC5402FCE4FB1211B1
:101D3700A49001FB70071205CB74FF80041205CB3A
:101D4700E4FC1203317980784B12123779207840FE
:101D570012011E1213111205A512131112115F128F
:0D1D67002C231212251213111205A57F0165
:101D740022C2A47F2C7E011233A922C2A47F2C7E0E
:101D8400011233A9227F2C7E011233A97F0112375D
:101D9400DB22AF491218D70549E549C39402227FD3
:071DA4002C7E011233A9227D
:072818001212F51511151154
:10281F00A811080812112E1212011202C4A8116079
:10282F001D401B0808E6FB12112F1205CBE51124E2
:10283F0003F8120610EB1210584410F08009080824
:10284F00E612105854EFF0E4FFFE7D207C41121287
:10285F00041202C460054003D38001C340047D010C
:10286F0080027D00A8110808E6FF1237F212131834
:10287F001212C112120112011E1213182481F582B5
:10288F00E434011212A5E5112403F8120610E4FF37
:10289F00FEFDFC1212041202C4500CE5112403F8C1
:1028AF0012062800000000E5112403F8E8C0E0122A
:1028BF0005BF121270120227D0E0F8120610E4FBC7
:1028CF00FA79207840E8C0E0E5112403F81205BF3B
:1028DF00D0E0F812123A7980784712116A12036F1A
:1028EF00A811EEF608EFF6A811E6FC08E6FDA81110
:0728FF000808E6FF1222E3C6
:07290600E5112407F5112281
:0232ED008F4010
:1032EF007B017A0179FB122CD3EF60539001FB1213
:1032FF0005CB12127012011E121322121328121272
:10330F00B71205CB12132F1213282479F582E43448
:10331F00011212A512132212124112132F122C2373
:10332F0012118E121322C2AF9001FB1205CB121392
:0F333F00282455F582E43401F58312061CD2AF21
:01334E00225C
:022E0D008F40F4
:102E0F007E3C1212611202C4700DFDAF4012383CAD
:102E1F0074FFF545F54622E5407004C2A88002C252
:102E2F00AA12387BE54025E025E02448F582E434FA
:102E3F0001F58312061C9001891205E4AF44AE43DD
:102E4F00AD42AC4112022790018D1212A78F448E12
:102E5F00438D428C417E4012126112011E121225C7
:102E6F008F448E438D428C417B6F7A1279837840E9
:102E7F001202277AFF797F784712116812036F8E3B
:102E8F00458F46AC45AD46AF401220747D01AF4033
:032E9F0012383CAA
:012EA200220D
:10377A001511A811EDF61212F5A811E6700908E65E
:10378A0024FFB392B58009A81108E624FFB392B4C6
:05379A000511051122DC
:0F383C00EF7006ED24FF920F22ED24FF92102271
:102F2F00EF7040300F2B12124290015512111540C5
:102F3F002012387B1210BD401820820CD2B5D2114E
:102F4F0012387B1212E9800BE4F584C289D2A88073
:102F5F0002C2A8301351C21330114CC2117D017F30
:102F6F0000804130102E12124190019A121115401B
:102F7F002312387B90014C1210C0401820830CD2C2
:102F8F00B4D21212387B1212EF800BE4F584C28B8D
:102F9F00D2AA8002C2AA30140EC214301209C21271
:082FAF007D017F0112377A2237
:101AC2008F40300F301212419001551211154025EE
:0B1AD20012387B1210BD401D20821A4C
:0D1ADD0075410A75421300D542FCD541F653
:101AEA0020820AD2B5D21112387B1212E93010368E
:101AFA0012124190019A121115402B12387B1212C0
:0C1B0A000C90014C1210CC401D20831ADE
:0D1B160075410A75421300D542FCD541F619
:101B230020830AD2B4D21212387B1212EFE540702E
:101B33000320110FE54064016003021C2B201203F4
:101B4300021C2B12125912062800000000AF40128B
:101B53002818E54012103412064100000000E54049
:101B630012109712064100000000747A2540F874A1
:101B7300FE56F6747A2540F874FD56F6747A2540BD
:101B8300F874FB56F6E54012105854F3F0E5401292
:101B93001058FF20E5101213381212DFEF4420F023
:101BA3001211D2E004F01213382473F582E43401E5
:101BB300F583E0FF1211D2E0C39F506C12387BEC27
:101BC300C0E0EDC0E0EEC0E0EFC0E0121338121247
:101BD300ADE075F064A4FFAEF0E4FCFDE54025E064
:101BE30025E024DAF582E43401F5831205E41205D5
:101BF3001512120CD0E0FFD0E0FED0E0FDD0E0FCE7
:101C0300D31205615022E54012105854DFF0E5402D
:101C13007004C2118002C2127D01AF4012377A7480
:101C23007A2540F8740146F6E54012105830E50B6A
:0C1C33007A007B647D03AF4012359922DB
:02303D008F40C2
:10303F007B007A007941121C3FEF6074E4FBFA7950
:10304F00207841AF44AE43AD42AC4112123A797A87
:10305F0078441202277B007A247974784912121966
:10306F0012133F1212D51205E412002912121C126C
:10307F00133F1212CB1205E4121219E4FFFE7D7AF0
:10308F007C44AB44AA43A942A84112011E122C232F
:10309F00E4FBFA797A784412022712121CC2AF129B
:1030AF00133F2459F582E43401F58312061CD2AF85
:0130BF0022EE
:0218D7008F4A36
:1018D900EF121178E020E003021A98EF1210583045
:1018E900E503021A98747A2FF8E620E00302197DBD
:1018F900EF1210341205CBE54A12107B1211156054
:101909002E402C12124F1212861211C9F9F8120226
:10191900C4501C747A254AF8740246F6121346120A
:101929001056440412105554F71210551212791218
:1019390010321205CBE54A12107B121115502C12E8
:10194900124F12128E1211C9F9F81202C4501C74E6
:101959007A254AF874FD56F6747A254AF8740446CD
:10196900121042440812105512127912387B1211C2
:101979004F12061C747A254AF8E620E103021A1A66
:1019890012387B12114C1205CBC3EB9FF54B121089
:10199900F4600A40081210564440F08006121056AE
:1019A90054BFF0E54B606A1210F45065121032C052
:1019B90083C0821205E4E8C0E0E9C0E0EAC0E0EBD8
:1019C900C0E0121249121286121186D0E0FBD0E053
:1019D900FAD0E0F9D0E0F812002DD082D083120FAE
:1019E900F9121115402212102012061C121032127F
:1019F90005CBE54A12109712061C747A254AF87429
:101A0900FD5612104254BFF0121032121A9D1206DE
:101A19001C747A254AF8E630E27512387B12114CAB
:101A29001205CBC3EB9FF54B6065121032C083C022
:101A3900821205CBECC0E0EDC0E0EEC0E0EFC0E003
:101A490012124912128E12118612120CD0E0FFD016
:101A5900E0FED0E0FDD0E0FC120029D082D0831254
:101A69000FF91211156002501D12102012061C12D6
:101A790010321205CBE54A12109712061C121346B2
:101A890012105654F7F0121032121A9D12061C7FCA
:041A9900010237DB34
:101A9D001205CBE51124FCF511F8120610AF4A1210
:101AAD00281812387BE54A25E025E02440F582E42C
:051ABD003401F5832255
:101F15008F40747A2FF8E630E00B12387BE54012DB
:101F2500115112061C121176E0FF20E00302203C3D
:101F35001213505406600302203CE540121058303D
:101F4500E50302203CEF20E1030220101210791274
:101F550005CBE54012103412061C1210671205CB92
:101F650012002912384B121270120227792078407C
:101F75001212377980784712011EE4FBFAF9783F8F
:101F85001202C4400302203C121095C083C0821285
:101F950005E4E8C0E0E9C0E0EAC0E0EBC0E012100B
:101FA500671205CB120029D0E0FBD0E0FAD0E0F9AA
:101FB500D0E0F812002DD082D08312061C121079C1
:101FC5001210891211155009121079121089120672
:101FD5001C1210791205CB784012108E1211156063
:101FE50011400F1210791211CBF97840121092128C
:101FF500061C747A2540F874FE56F61210951212D6
:1020050056120610AF40122818802C12135030E0DB
:10201500261210791205CBE54012103412061C1257
:1020250010791205CB12109512061C121079121296
:1020350056120610122065121176E020E01D1213CB
:102045005030E017121095120641000000001212E0
:1020550059120628000000001220657F010237DBB7
:0F206500AF40122818747A2540F874FE56F62200
:10328500E4F53F7F001237DB900150E020E24A74FD
:103295007A253FF8E630E328E53F12111E1205CBEB
:1032A5008F448E438D428C41AF3F122E0D747A258B
:1032B5003FF874F756F6E53F7004D2138002D21436
:1032C500AF3F121AC2AF3F1232EDAF3F1218D7AF60
:1032D5003F121F15AF3F12303DAF3F122F2F053F55
:0732E500E53FC39402409C89
:0132EC0022BF
:100026000203DBE86480F8E933E83360110460F02A
:10003600ED33EC337009E8FCE9FDEAFEEBFF220440
:1000460060DED3EB9FEA9EE99DE8C2E78CF0C2F73B
:1000560095F0400CE8CCF8E9CDF9EACEFAEBCFFB07
:100066001203A685D0F05804700320D5B3E80470B7
:10007600075002B2D50203E592D5EC0460F7E4CC52
:10008600C0E0C398F8603B94186008400DD0E0FBD0
:100096000203BDE4FBFAC9FC8028E830E406E4C9A3
:1000A600FBE4CAFCE830E305E4C9CACBFCE8540724
:1000B6006010F8C3E913F9EA13FAEB13FBEC13FC2F
:1000C600D8F130F52FC3E49CFCEF9BFFEE9AFEEDD2
:1000D60099FDD0E0FBEF4E4D4C701222DB0302037C
:1000E600E2EC2CFCEF33FFEE33FEED33FDED30E7B3
:1000F600EB0203BDEF2BFFEE3AFEED39FDD0E0FB40
:1001060050130BBB00030203E5ED13FDEE13FEEFE8
:0801160013FFEC13FC0203BD12
:10011E00EC4D6011E8497017ED33EC3304600DE4DB
:10012E00FCFFFEFD22E933E8330470F80203DB1214
:10013E0003A658046009E4CC248150062850090215
:10014E0003E52840030203E2C0E0EB4A7044B980A5
:10015E0006D0E0FB0203D1EF4E701CBD8008EBFF12
:10016E00EAFEE9FD80EBE98DF0A4FEE5F002020760
:10017E00E9CDF9EAFEEBFFEF89F0A4FCE5F0CE89BC
:10018E00F0A42EFFE435F0CD89F0A42DFEE435F079
:10019E008067EF4E7005BD80D780C3EF8BF0A4ACA7
:1001AE00F0EE8BF0A42CFCE435F0F8EF8AF0A42CE2
:1001BE00E5F038FCE433CB8DF0A42CFCE5F03BF8F5
:1001CE00EE8AF0A42CFCE5F038F8E433CF89F0A4E5
:1001DE002CFCE5F038CF3400CE89F0A42FFFE5F0EB
:1001EE003EFEE433C98DF0A42EFEE5F039CD8AF043
:1001FE00A42FFFE5F03EFEE43DFD33D0E0FB5007BB
:10020E000BBB000F0203E5EC2CFCEF33FFEE33FECD
:06021E00ED33FD0203BDFB
:100224000203E5EC5D046005E8590470030203DB96
:100234001203A6580460F6EC4860F2EC7004FDFE6C
:10024400FF22C860DB2481C85009C39860025006AD
:100254000203E29850CAF582E9294B4A7005AB8241
:100264000203D175F0007C1A7880C3EF9BEE9AEDFF
:1002740099400DC3EF9BFFEE9AFEED99FDE842F025
:10028400DC23ACF0D0E0FFD0E0FED0E0FDAB822078
:10029400E7101BEB60BAEC2CFCEF33FFEE33FEED02
:1002A40033FD0203BDE803F830E705C0F075F00044
:1002B400EF2FFFEE33FEED33FD40B830E7C280AAE6
:1002C40074F8CC6480CCC86480C8F582046043C3ED
:1002D400EB9FF5F0EA9E42F0E99D42F0E89C45F080
:1002E40060305018E5825FFFE582F42B5582FB50A5
:1002F400210ABA001D09B90019088016E5825BFBC2
:10030400E582F42F5582FF50090EBE00050DBD0095
:10031400010CC3EB9FF5F0EA9E42F0E99D42F0E840
:0D0324009C45F06007CC4820E701B3EC22B7
:1003310075F020800E75F010800575F0087D007E47
:10034100007F003392D530D50312053DEC334010C8
:10035100EF33FFEE33FEED33FDEC33FCD5F0ED2250
:0E036100E5F0247EA2D513CC92E7CDCEFF228C
:10036F00EDD2E7CD33EC3392D524814006E4FFFE86
:10037F00FDFC22FCE4CFCECDCC24E0501174FF80E5
:10038F00EDC3CC13CCCD13CDCE13CECF13CF047082
:07039F00F030D5DE02053D40
:0D384B00ED33EC3360065004EC6480FC2289
:102C23008F4D8E4C8D4B8C4A74FFFFFEFDFCAB4DDC
:102C3300AA4CA94BA84AC3120561602C7F807E96DB
:102C43007D187C4BAB4DAA4CA94BA84A1202C46019
:102C53000250157F807E967D187CCBAB4DAA4CA984
:102C63004BA84A1202C45009AF4DAE4CAD4BAC4A0F
:102C730022AF4DAE4CAD4BAC4A12036F8F518E5009
:102C83008D4F8C4EEC120331C8ECC8C9EDC9CAEEA6
:102C9300CACBEFCBAF4DAE4CAD4BAC4A120029E4DF
:102CA300FBFAF9F81202C4601A401874FF2551F5B3
:102CB30051E55034FFF550E54F34FFF54FE54E3401
:102CC300FFF54EAF51AE50AD4FAC4EEC1203312277
:1003A600E9D2E7C933E833F892D5EDD2E7CD33EC9D
:0703B60033FC5002B2D52216
:1003BD00EC30E7100FBF000C0EBE00080DBD0004A1
:1003CD000BEB6014A2D5EB13FCED92E7FD2274FF4D
:1003DD00FCFDFEFF22E480F8A2D574FF13FC7D80A6
:0303ED00E480EFBA
:03000000022EA32A
:0C2EA300787FE4F6D8FD758181022EEAEC
:1003F000BB010689828A83E0225002E722BBFE020B
:09040000E32289828A83E493223D
:10040900BB010CE58229F582E5833AF583E02250A8
:1004190006E92582F8E622BBFE06E92582F8E222F2
:0D042900E58229F582E5833AF583E493220C
:10043600BB010689828A83F0225002F722BBFE01A5
:02044600F3229F
:10044800F8BB010DE58229F582E5833AF583E8F0EA
:10045800225006E92582C8F622BBFE05E92582C896
:02046800F2227E
:10046A00EF8DF0A4A8F0CF8CF0A428CE8DF0A42EA6
:02047A00FE2260
:10047C00C2D5EC30E709B2D5E4C39DFDE49CFCEE9B
:10048C0030E715B2D5E4C39FFFE49EFE120730C3DC
:10049C00E49DFDE49CFC800312073030D507C3E4D7
:0604AC009FFFE49EFE220A
:1004B200BB010A89828A83E0F5F0A3E02250068715
:1004C200F009E71922BBFE07E3F5F009E3192289D7
:0B04D200828A83E493F5F0740193220A
:1004DD00BB010789828A83020785500B09C5F02766
:1004ED00F7C5F01937F722BBFE0D09F8E325F0F338
:1004FD00C5F019E338F322F889828A8374019325B4
:08050D00F0C5F0F8E493382278
:0D051500EF2BFFEE3AFEED39FDEC38FC2235
:0E052200C3EF9BFFEE9AFEED99FDEC98FC22D4
:0D053000EF4BFFEE4AFEED49FDEC48FC22CA
:0E053D00C3E49FFFE49EFEE49DFDE49CFC22CF
:10054B00EB9FF5F0EA9E42F0E99D42F0EC6480C827
:06055B0064809845F022C7
:10056100EB9FF5F0EA9E42F0E99D42F0E89C45F0F0
:010571002267
:10057200E8600FEFC333FFEE33FEED33FDEC33FCE7
:03058200D8F1228B
:10058500BB010789828A830205CB5005E9F802057C
:10059500BFBBFE05E9F802079B89828A830207A78C
:1005A500BB010789828A8302061C5005E9F8020609
:0A05B50010BBFE05E9F80207D4228E
:0C05BF00E6FC08E6FD08E6FE08E6FF2268
:0C05CB00E0FCA3E0FDA3E0FEA3E0FF22A3
:0D05D700E6FB08E6F908E6FA08E6CBF82294
:0C05E400E0F8A3E0F9A3E0FAA3E0FB229A
:1005F000BB010789828A830205E45005E9F80205F8
:10060000D7BBFE05E9F80207B789828A830207C4CF
:0C061000ECF608EDF608EEF608EFF62216
:0C061C00ECF0A3EDF0A3EEF0A3EFF02251
:10062800D083D082E493F608740193F60874029399
:09063800F608740393F6740473D0
:10064100A8828583F0D083D08212065812065812F0
:100651000658120658E473E493A3C583C5F0C58315
:10066100C8C582C8F0A3C583C5F0C583C8C582C803
:010671002266
:10067200BB010789828A830206415005E9F8020616
:0A06820028BBFE05E9F80207E0229C
:09068C00E6FB08E6FA08E6F92293
:10069500FAE6FB0808E6F925F0F618E6CA3AF62266
:0906A500EBF608EAF608E9F6227A
:1006AE00BB010DE58229F582E5833AF5830207F950
:1006BE005007E92582F802068CBBFE07E92582F871
:1006CE00020802E58229F582E5833AF58302080BDA
:1006DE00D083D082F8E4937012740193700DA3A3AB
:1006EE0093F8740193F5828883E4737402936860BF
:0606FE00EFA3A3A380DFBF
:1034A7008B438A448945E4F54BF54CE54A154AAE0A
:1034B70049700215494E6033AB46AA47A948120323
:1034C700F0FFAB43AA44A945054CE54CAC4B700251
:1034D700054B14F5828C83EF120448EF60CD74011D
:1034E7002548F548E43547F54780C0AB43AA44A9CA
:0234F70045226C
:10070400EF4E6012EF60010EEDBB010B89828A830C
:10071400F0A3DFFCDEFA2289F05007F709DFFCA919
:0C072400F022BBFEFCF309DFFCA9F02270
:102EAF00023870E493A3F8E493A34003F68001F291
:102EBF0008DFF48029E493A3F85407240CC8C33324
:102ECF00C4540F4420C8834004F456800146F6DFF3
:102EDF00E4800B0102040810204080903864E47EE7
:102EEF00019360BCA3FF543F30E509541FFEE493E8
:102EFF00A360010ECF54C025E060A840B8E493A3AF
:102F0F00FAE493A3F8E493A3C8C582C8CAC583CAD9
:102F1F00F0A3C8C582C8CAC583CADFE9DEE780BE91
:01386F000058
:10073000BC000BBE0029EF8DF084FFADF022E4CCAD
:10074000F875F008EF2FFFEE33FEEC33FCEE9DEC76
:10075000984005FCEE9DFE0FD5F0E9E4CEFD22EDBC
:10076000F8F5F0EE8420D21CFEADF075F008EF2F06
:10077000FFED33FD4007985006D5F0F222C398FDF7
:050780000FD5F0EA2294
:10078500C5F0F8A3E028F0C5F0F8E58215827002FF
:060795001583E038F0229C
:0C079B00E2FC08E2FD08E2FE08E2FF229A
:1007A700E493FC740193FD740293FE740393FF2298
:0D07B700E2FB08E2F908E2FA08E2CBF822C2
:1007C400E493F8740193F9740293FA740393FB228B
:0C07D400ECF208EDF208EEF208EFF22261
:1007E000D083D082E493F208740193F208740293E8
:0907F000F208740393F27404731F
:0907F900E0FBA3E0FAA3E0F92201
:09080200E2FB08E2FA08E2F92227
:0C080B00E493FB740193FA740293F92249
:00000001FF
