:0D2FC500245265763A20333930352024003F
:1024A100E527AB61AA62A96375F010A4F58285F0F6
:1024B10083020409E493FF3395E0FEEF24D0FFEE9D
:1024C10034FFFE7C0002046AE53DC4F8540FC8687D
:1024D100FFE53CC454F0482275F010A429F9EA350F
:1024E100F0FA22E52A75F010A4AB612563F9E562E3
:1024F10035F022AB61AA62A96322C2ACE4F525D210
:10250100872290000D1206A4788AE6FF18E68FF064
:10251100A422788DE6FC08E6FDAB09AA087F01221A
:10252100D20AC3ED9B788AF67886760122D20A78A0
:102531008AF6788622FA900004020409253DF8E41F
:10254100F6053DE53D22788DE6FDE509FB7F01229B
:0E25510078A076787F01227B007A007925221F
:10111200E47880F612301075E10175E24075A49012
:1011220075B283E4F5A9122E25E4FF122F5CE4F5D3
:101132003CF53D7D01AF3D122FB3053DE53D70020B
:10114200053CC39405E53C940040E8E4F520C20A5E
:10115200C208C20EC20DC20C7880F6C28708F678A9
:1011620085F618F6788AF6F53CF53D748C12253D25
:101172007002053C6414453C70F1E4F53CF53D74A5
:10118200A012253D7002053C6408453C70F1E5EF74
:1011920020E10CE5EF5408D394004003D38001C34F
:1011A20092037D08E4FF122F3BE47889F67882F6F9
:1011B2001224F47882E6FF1224A9FE788926F6EE3C
:1011C200600578820680E9EFD3940040251224F46A
:1011D20090000D1206A474551204361203F06455E1
:1011E2006002D20C74AA1204361203F064AA6002DE
:1011F200D20C1226C08F3BE53B20E035C20974FFBA
:10120200F508F509F50AF50B7E007F107D007B00DD
:101212007A00790E1206FA7541FF75421775431F5F
:101222007544007545107B007A00790E122D3380CB
:1012320002D209902FCC7D641224B5AA06AB079086
:101242002FCBE493FF3395E0FEEF24D0FFEE34FF83
:10125200FE7C037DE812046AEF2BFBEE3AFA902F34
:10126200CD7D0A1224B5EF2BFFEE3AFEA3E493FDE7
:101272003395E0FCED24D0FDEC34FFCD2FF50DEDE0
:101282003EF50CE53B20E179E4F53CF53D1224C93D
:10129200FE1224F48F82F583120409605BE92FF9B0
:1012A200EA3E12253620E245E4F53AE53AC3787D76
:1012B20096503A1224C91224F48F82F5831204093B
:1012C200FF7E00C006C0077D001224C9FEE92FF987
:1012D200EA3EFA90000D1206A47889E6853AF012E9
:1012E20024DCD007D0061206FA053A80BE053DE599
:1012F2003D7002053C02128F7F0112153AC20B802B
:1013020007E4FF12153AD20BE4F53CF53D7A007B77
:10131200967D03AF3D122C8F053DE53D7002053CE5
:09132200C39405E53C940040E48D
:01132B00229F
:05302300788AE6FF229F
:03002300021E7D3D
:101E7D00C0E0C0F0C083C082C0D075D000C000C02B
:101E8D0001C002C003C004C005C006C00730993AA6
:101E9D00C2997885067985E77881667016F678851A
:011EAD00F63E
:0E1EAE0075230A0075240300D524FCD523F506
:041EBC00C287801742
:0E1EC0007523140075240300D524FCD523F5EA
:101ECE007885E624A0F8E6F599209803021F66208F
:101EDE009A07200A04C298807BC29A7884E6062468
:101EEE008CF8A699C2987884E6FFB40113788CE634
:101EFE00FE70057884F68060EE54072402788BF627
:101F0E00EFB4020E788BE6B40908788DE6240379D7
:101F1E008BF77884E6FFB414047600803BEFC37829
:101F2E008B9640347884E624FFFDE434FFFC7B007E
:101F3E007A00798C122A997884E6248BF8E66F6001
:031F4E00028011FD
:0E1F51007523140075240300D524FCD523F558
:101F5F0012080D78847600D007D006D005D004D0B3
:101F6F0003D002D001D000D0D0D082D083D0F0D017
:021F7F00E0324E
:102E6C008F348B358A368937EA494B60161203F05A
:102E7C00FFE534FD7C00120003AB35AA36A937EF11
:032E8C00120436F7
:0E2E8F007538140075390300D539FCD538F5B7
:0E2E9D008534997F01122F7C3099FDC2992255
:062F99007881EFF6D287FB
:0E2F9F007534140075350300D535FCD534F5B6
:062FAD0078A0E6F5992270
:102EAB00C9EFC9E96401701FEDC39B4027787DE62C
:102EBB00FFEB2FFFE433FEEDC39FEE6480F87480CD
:102ECB0098501112252122B90210ED6B70061225B4
:0B2EDB002E760222C20AE47886F6225E
:102D8500C9EFC9BAFF11BBFF0EED6B7002EC6A709B
:102D95003812252EE9F622E96401701CC3ED9BEC7F
:102DA5009A4013787DE62BFFE43AFEC3ED9FEC9E37
:102DB5005004122521228011B90214ED6B7002EC2A
:102DC5006A700612252E760222C20AE47886F62259
:10080D00788CE6FF54F8F526EF1206D40856090841
:10081D005B0A086010086911087812088B1908998D
:10082D001A08AB2008B128090F2909D5330A043756
:10083D000A27390A36410A3F490A48500A82610996
:10084D009B700A7A9800000A9D1225478017122581
:10085D00138025D20A78867603020A9D788DE6FDEF
:10086D00E50BFB7F02122EAB020A9D788DE6FC088C
:10087D00E6FDAB0BAA0A7F02122D85020A9D1225F9
:10088D0047122EAB200A03020A9D800C122513126B
:10089D002D85200A03020A9D122551020A9A75EF31
:1008AD0010020A9D1224FBFB120DDF7F18122E6C15
:1008BD001225587F05122E6C7882120E43AF081246
:1008CD000E03AF09122E6CAF0A120E03AF0B122ED0
:1008DD006C7B00AF0C120E35AF0D122E6CE4F527AC
:1008ED00740E2527F8120E430527E527C3941040F3
:0108FD00EF0B
:0E08FE00120E4F0075330300D533FCD532F5D2
:10090C00020988788DE6FFC37882965076EF75F0F1
:10091C0010A41224EC85612FF53089311224FBFBD5
:10092C007F7F120E357F0D122E6CAB2FAA30A931A2
:10093C00120E27900001120DEF900002120DEF9095
:10094C000003120E13900004120E13E4F527AB2FC4
:10095C00E5312405F9E43530FA7E00E92527F9EE76
:0E096C003AFA120E270527E527C3940840E04B
:0E097A00120E4F0075330300D533FCD532F555
:10098800C287D2AC020A9D78A07678E408F67F0286
:10099800020A9A122FDF78A81205FA78A0767C78D6
:1009A800A8E678A1F678A9E678A2F678AAE678A368
:1009B800F678ABE678A4F67C007D057B007A0079B2
:1009C800A0122A9978A5EFF67F06020A9A788DE692
:1009D800FFB4010B08E6F50808E6F509020A7AEF04
:1009E800B40208788EE6F508020A7A788DE6B40330
:1009F8000808E6F50A08E6F50B020A7AE4F527E5A1
:100A080027C3788D965016748E2527F8E6FF740E46
:100A18002527F8C6EFC60527E527B410E28053124C
:100A28000E77788DE6FDE4FF122F3B020A9D788D44
:100A3800E624FF9202805E788DE624FF92018055BD
:100A4800788AE66005752902800B200D0575290353
:100A5800800375290178A0767908A629120E5E7898
:100A6800A2EFF67F03122F99E52964017027D20EB1
:100A78008002D208788076F1801B7F00120EA2785F
:100A8800A07679788DE678A1F6120E5E78A2EFF658
:100A98007F03122F99E52664A06003020C27788C47
:100AA800E664A16003020B57798DE7C3788296400C
:100AB80003020B511224F4788DE6FF1224A9F529BC
:100AC800EF1224D912253730E226788DE6FF12304E
:100AD800288F2978A0767F08A629E5292402120EF6
:100AE8008574A22529F8EFF6E5292403FF020C24D2
:100AF800788DE6FF1230281224FBE529D3940640AE
:100B08001F7B00120DDFAF29122E6CE4F527E527B5
:100B1800C395295007120DA8052780F205298018CA
:100B2800E5292478120E6CE4F527E527C3952950AA
:080B380007120DA8052780F249
:0E0B4000120E930075330300D533FCD532F549
:100B4E00020C1B122551020C24788CE664A2600361
:100B5E00020C277882E6FF788DE6FEC39F400302E3
:100B6E000C2108E6FDC39F4003020C21EE9D4003BD
:100B7E00020C2118E6F527E4F52DF52EE527D3789E
:100B8E008E965015AF271230281224A1252EF52E41
:100B9E00E4352DF52D052780E31224FBFB7A007931
:100BAE00257F7F122E6CC3E52E9480E52D94005088
:100BBE00028007E52D4480120E6CAF2E12255812BE
:100BCE002E6C788DE6F527E527D3788E965030E497
:100BDE00F5281224A1FFE528C39F501FE5271224F4
:100BEE00D91225032528F582E435F0F58312040980
:0F0BFE00FF122558122E6C052880D7052780C8B6
:0E0C0D00120E930075330300D533FCD532F57B
:100C1B00C287D2AC8006122551122F99E526645853
:100C2B00703DFA7B327D01788AE6FF122C8F753787
:100C3B00007538007539A17B007A00798D12301A56
:100C4B008F29E529247878A0F6E5292401120E8551
:100C5B0074A12529F8EFF6E5292402FF122F99E557
:100C6B002664806009E52664886003020DA77886F8
:100C7B00E6B40105120E778014E4F527E527C37857
:100C8B007D965009AF27120EA2052780EF788CE6D0
:100C9B005407F529B4070A75280108E6F5290880D9
:100CAB0005E4F528788DE6F52A1529E52AC378821F
:100CBB00964003020D85E52A1224A3FFE529D39F55
:100CCB0040028F297886E6B40109788AE6F52CF57F
:100CDB002B8009E4F52B787DE614F52C788AA62B6E
:100CEB00788AE6D3952C4003020D79E4F527E527A6
:100CFB00C39529506E1224E412253620E260900031
:100D0B000112040964387025E529D39404400BE5DE
:100D1B00282527248EF8E6FD80327884E6C39527B4
:100D2B00FF748A2FF8E6FD1224E4FA801F1224F4D4
:100D3B0075F010E52A1224ACFFC37884E69F2527B3
:100D4B002528248BF8E6FDE52A1224D9122503FF6A
:100D5B00E5272FF582E435F0F583ED1204480527DE
:100D6B00020CF9AF2A12255F788A06020CEB788AFF
:100D7B00A62BE52664887024800FE52AB4FF1D7826
:100D8B008EE6F520E526B4881378A076787884E68D
:0C0D9B00248BF8E678A1F67F02122F9955
:100DA70022788DE675F010A4AB612563F9E562350D
:100DB700F0FA90000D1206A4788AE6FF18E68FF085
:100DC700A42527F582E435F0F583120409FF7B009B
:100DD7007A007925122E6C227A0079257F7F122ED0
:100DE7006C7B007A00792522AB2FAA30A931120437
:100DF70009FF7B007A007925122E6C227B007A008E
:100E07007925122E6C7B007A00792522AB2FAA3028
:100E1700A931120409FF7B007A007925122E6C2272
:100E27001203F0FF7B007A007925122E6C227A00DC
:100E37007925122E6C7B007A00792522E6FF7B004C
:100E47007A007925122E6C227B007A007900AF2573
:100E5700122E6C75320A227C007D027B007A0079A3
:100E6700A0122A9922FF7B007A007925122E6C2284
:100E77007A007B327D01788AE6FF122C8F22FDE40F
:100E870033FC7B007A0079A0122A99227B007A0032
:100E97007900AF25122E6C75320A227A007B327DDB
:050EA70001122C8F2256
:103200007880E664F16003023813E4F543F544780E
:0432100081E66020D3
:0E32140075490A00754A0300D54AFCD549F5F4
:103222000544E5447002054364107004E5436427D5
:1032320070DBC2AFE4F5D9F53FF53E20982FE4F5F7
:1032420043F544209823C3E5449488E543941350FE
:013252001863
:0E32530075490A00754A0300D54AFCD549F5B5
:103261000544E54470DE054380DAB2A780CE859936
:103271003EC298E53E641A6003023346F543F544C5
:0E328100209823C3E5449488E5439413501825
:0E328F0075490A00754A0300D54AFCD549F579
:10329D000544E54470DE054380DA30989385993F07
:1032AD00C298E4F543F544209823C3E5449488E59A
:0532BD004394135018BA
:0E32C20075490A00754A0300D54AFCD549F546
:1032D0000544E54470DE054380DA20980302323D60
:1032E00085993FC298E4F543F544209823C3E5440B
:0832F0009488E5439413501883
:0E32F80075490A00754A0300D54AFCD549F510
:103306000544E54470DE054380DA20980302323D29
:0933160085993FC298D287C29943
:0E331F0075491400754A0300D54AFCD549F5DE
:06332D007599783099FD4E
:0E33330075490A00754A0300D54AFCD549F5D4
:10334100C287023805E53E645060030233DBF54372
:10335100F544209823C3E5449488E5439413501819
:0E33610075490A00754A0300D54AFCD549F5A6
:10336F000544E54470DE054380DA20980302323DC0
:09337F0085993FC298D287C299DA
:0E33880075491400754A0300D54AFCD549F575
:083396007599793099FDC29987
:0E339E0075491400754A0300D54AFCD549F55F
:0833AC007599013099FDC299E9
:0E33B40075491400754A0300D54AFCD549F549
:0633C200E4F5993099FDCD
:0E33C80075490A00754A0300D54AFCD549F53F
:0F33D600C287023805E53E64017041D287C29973
:0E33E50075491400754A0300D54AFCD549F518
:0833F3007599783099FDC2992B
:0E33FB0075491400754A0300D54AFCD549F502
:06340900E4F5993099FD85
:0E340F0075490A00754A0300D54AFCD549F5F7
:10341D00C287023805E53E640260030234E2F543DB
:10342D00F544209823C3E5449488E543941350183C
:0E343D0075490A00754A0300D54AFCD549F5C9
:10344B000544E54470DE054380DA20980302323DE3
:10345B0085993FC298E4F540E53F13B392A7E53F4A
:10346B0025E0FEC3E49400EE94325027E53F7F0045
:10347B0025E0FEC3943A501B758F038E458F46751E
:10348B00B7A57880E6F5B7854682854583E4F0F5E8
:0A349B008F80037540FFD287C299AD
:0E34A50075491400754A0300D54AFCD549F557
:0834B3007599783099FDC2996A
:0E34BB0075491400754A0300D54AFCD549F541
:0634C9008540993099FDD9
:0E34CF0075490A00754A0300D54AFCD549F537
:1034DD00C287023805E53E6403600302362CF543CE
:1034ED00F544209823C3E5449488E543941350187C
:0E34FD0075490A00754A0300D54AFCD549F509
:10350B000544E54470DE054380DA20980302323D22
:10351B0085993FC298E4F543F544209823C3E544CD
:08352B009488E5439413501845
:0E35330075490A00754A0300D54AFCD549F5D2
:103541000544E54470DE054380DA20980302323DEC
:10355100859941C298E53F1392A7E53F25E0FEC357
:10356100E49400EE9432400302323DE53F7D0025B4
:10357100E0FCC3943A400302323D758F01E5417589
:10358100F020A42DFFE5F03CF5458F46E4F542E53A
:1035910042C394205051E4F543F544209823C3E5F8
:0935A100449488E543941350188A
:0E35AA0075490A00754A0300D54AFCD549F55B
:1035B8000544E54470DE054380DA20980302323D75
:1035C80075B7A57880E6F5B70546E546AE457002BD
:1035D800054514F5828E83E599F0C298054280A8C6
:0735E800E4F58FD287C299C0
:0E35EF0075491400754A0300D54AFCD549F50C
:0835FD007599783099FDC2991F
:0E36050075491400754A0300D54AFCD549F5F5
:06361300E4F5993099FD79
:0E36190075490A00754A0300D54AFCD549F5EB
:10362700C287023805E53E640460030236E0F543CD
:10363700F544209823C3E5449488E5439413501830
:0E36470075490A00754A0300D54AFCD549F5BD
:103655000544E54470DE054380DA20980302323DD7
:1036650085993FC298E53F25E0F547754800E4F5A3
:1036750040F543F5440548E548AE47700205471453
:10368500F5828E83E4932540F5400544E5447002B8
:0E36950005437004E543640270DBD287C299DE
:0E36A30075491400754A0300D54AFCD549F557
:0836B1007599783099FDC2996A
:0E36B90075491400754A0300D54AFCD549F541
:0636C7008540993099FDD9
:0E36CD0075490A00754A0300D54AFCD549F537
:1036DB00C287023805E53E640560030237FDF543FA
:1036EB00F544209823C3E5449488E543941350187C
:0E36FB0075490A00754A0300D54AFCD549F509
:103709000544E54470DE054380DA20980302323D22
:1037190085993FC298E4F543F544209823C3E544CD
:083729009488E5439413501845
:0E37310075490A00754A0300D54AFCD549F5D2
:10373F000544E54470DE054380DA20980302323DEC
:09374F00859941C298D287C29904
:0E37580075491400754A0300D54AFCD549F5A1
:0837660075997F3099FDC299AD
:0E376E0075491400754A0300D54AFCD549F58B
:10377C007599203099FDE53F25E0FCE54175F02079
:10378C00A42400FFE5F03CF5478F48E4F540F542F2
:02379C00C299D0
:0E379E0075491400754A0300D54AFCD549F55B
:1037AC00854882854783E493F5993099FD0548E572
:1037BC0048AE477002054714F5828E83E49325408A
:0B37CC00F5400542E542B420C7C29959
:0E37D70075491400754A0300D54AFCD549F522
:0637E5008540993099FDBA
:0E37EB0075490A00754A0300D54AFCD549F518
:1037F900C2878008E53EB4060375EF10E53E64070D
:0A380900600302323D7880F6D2AF72
:013813002292
:102B11007F00122F7C20090B7A007B327D017F0020
:102B2100122C8F300C0B7A007B1E7D017F00122C42
:102B31008F300817300D147A007B327D01788AE6D8
:102B4100FF122C8FC2081227F6D209200B0C300D70
:102B510009788076F11227F6D20B300E08300D0578
:102B6100C20E123200122FD2E47B2C7A01F9F8C383
:082B710012054B5002D20D22A7
:0B300500121112122B11121F8180F813
:101C6D00005EBCE2613FDD83C29C7E20A3FD1F416F
:101C7D009DC3217FFCA2401E5F01E3BD3E6082DC5F
:101C8D00237D9FC1421CFEA0E1BF5D0380DE3C624F
:101C9D00BEE0025CDF81633D7C22C09E1D43A1FF3F
:101CAD004618FAA427799BC584DA3866E5BB59072F
:101CBD00DB856739BAE406581947A5FB7826C49A1F
:101CCD00653BD987045AB8E6A7F91B45C6987A240F
:101CDD00F8A6441A99C7257B3A6486D85B05E7B9FF
:101CED008CD2306EEDB3510F4E10F2AC2F7193CDEF
:101CFD00114FADF3702ECC92D38D6F31B2EC0E50DF
:101D0D00AFF1134DCE90722C6D33D18F0C52B0EECE
:101D1D00326C8ED0530DEFB1F0AE4C1291CF2D73BE
:101D2D00CA947628ABF517490856B4EA6937D58BAE
:101D3D005709EBB536688AD495CB2977F4AA48169E
:101D4D00E9B7550B88D6346A2B7597C94A14F6A88E
:101D5D00742AC896154BA9F7B6E80A54D7896B357E
:0A1D6D000000000000002B96B9DD15
:032FF90001500A7A
:10290B00E53EAB61AA62A96375F010A4F58285F070
:10291B0083020409151EA81EEDF6151EA81EEFF660
:10292B00A81EE6FFC3940522A81EE6FF25E025E0BE
:10293B002467F822A81EE625E025E02465F8227519
:10294B00F010A429F9EA35F0FA90000D1206A478DC
:10295B0089E622E55075F064A4FFC3E5529FE5516B
:10296B0095F022EF25E025E02464F822EF25E02501
:10297B00E02466F8221204B22400FFE5F0343A2278
:07298B00151E151EA81E22F7
:102A990012298BECF608EDF6151E12298B12069BEE
:062AA900E51E24FCF51EF1
:102AAF00F80808E4F6A81EF608F6E51E2407F9A8AC
:102ABF001EE6FE08E6FFC3099719E76480F8EE6487
:102ACF0080985031E51E2404F81206828F828E837F
:102ADF00120409A81E080866FFE51E2403F8EFF686
:102AEF00E6901C6D93A81E0808F6A81E0806E618A7
:0B2AFF0070B80680B5A81E0808E6FFAE
:072B0A00E51E2409F51E225F
:07000300ED6F901C6D93FFEF
:01000A0022D3
:102F3B00EF701B7598D0E589540F4420F589438EAB
:102F4B0008ED901D6C93F58DD28ED2ACC2BCD2AF76
:012F5B002253
:102E2500D2AFD2A9C2BBE589540F4401F589E4F5B7
:102E35008E758CAFF58AD28CF556F555F554F5534C
:102E4500F55AF559F558F557754F64FF12296EE493
:102E5500F6EF122942E4F6122977E4F6EF12293744
:062E6500E4F60FBF05E6D4
:012E6B002244
:022B7900151E27
:102B7B00A81EE4F612292B5054EF122937E6FFD387
:102B8B009400403212293FE6702CEF30E00D1229F1
:102B9B0033E6D3940140047D0180067D00A81EE638
:102BAB00FF122BDB12293316E6600B122977E6FE98
:102BBB00EF122942EEF612293FE660011612293375
:0D2BCB00E67004FD122BDBA81E06022B7F16
:032BD800051E22B5
:03000B0002299235
:10299200C0E0C0F0C083C082C0D0E8C0E0E9C0E0BF
:1029A200EAC0E0EBC0E0ECC0E0EDC0E0EEC0E0EF7A
:1029B200C0E0758CAFE5562401FFE43555FEE435E1
:1029C20054FDE435538F568E558D54F553D54F1B18
:1029D200E55A2401FFE43559FEE43558FDE4355744
:1029E2008F5A8E598D58F557754F64122B791200F4
:1029F2000ED0E0FFD0E0FED0E0FDD0E0FCD0E0FB66
:102A0200D0E0FAD0E0F9D0E0F8D0D0D082D083D0B4
:042A1200F0D0E032EE
:102FB30012291F500808E6FE12296EEEF6051E05BB
:022FC3001E22CC
:102C8F0012298BEAF608EBF612291F503EEF122994
:102C9F0037E67037A81EE6FB122942E6702DA81EF4
:102CAF0008E625E004FFA81EE6FA122937EFF6A87A
:102CBF001E0808E6FE08E6FF7C007D0A12047CEA87
:102CCF00122978EFF6EB122942E4F6E51E2404F5FB
:022CDF001E22B3
:102BDB0012291F501712296EE66011A81E08E67005
:102BEB00047F0180027F00A81E08EFF6A81EE67086
:102BFB000608E624FF92A7A81EE6FFB4010608E626
:102C0B0024FF92A6EFB40208A81E08E624FF92A5A3
:102C1B00A81EE6B4030608E624FF92A4A81EE6B499
:0D2C2B00040608E624FF92A3051E051E22E4
:0C2FD200C2AFAF56AE55AD54AC53D2AFF9
:012FDE0022D0
:0C2FDF00C2AFAF5AAE59AD58AC57D2AFDC
:012FEB0022C3
:102F7C00151EA81EEFF6A81EE67004F551F552308A
:0D2F8C00120812295E5003E4F5FE051E2216
:102F5C00D212E4F551F552EF6004F5508003755030
:102F6C000AE4F5D975FDFF75D940F5FE75EF06221B
:0A301000C212E4F551F552F5D92281
:10000E000552E5527002055130120812295E500356
:04001E00E4F5FE22E5
:042EE6008E3F8F404C
:102EEA00E4F541F542C3E5429540E541953F501668
:102EFA007FE87E03122C387F01122F7C0542E542BF
:062F0A0070E3054180DFC9
:012F1000229E
:042C38008E448F45F2
:102C3C00D3E54594FAE5449400500FEFD39400404B
:102C4C0041007E0300DEFD1F80F18544468545472B
:102C5C00D3E54794FAE546940040157FFA7E0012BE
:102C6C002C3874062547F54774FF3546F54680E049
:102C7C00D3E5459400E54494004007AF47AE4612B7
:022C8C002C38E2
:012C8E002223
:082DD5008B458A4689478D48B1
:102DDD007F01122F7CAB49AA4AA94B122980FE858F
:102DED00454C85464D85474EE4FDEDC39548501B3A
:102DFD00EF2DF582E43EF583E493AB4CAA4DA94E3D
:102E0D008D827583001204480D80DFAB49AA4AA953
:082E1D004BE48548F00204DDDE
:082881008B448A4589468D470E
:102889007880E664F1707A123010C2AF758F01ABAF
:1028990048AA49A94A12298078ACF608EFF6AB4450
:1028A900AA45A94678B012069BE478AEF678AEE65A
:1028B900C39547503378B0E475F00112068B1203C3
:1028C900F078AFF675B7A57880E6F5B778AFE6FF8B
:1028D90078AC0806E618CCE6CC70010614F5828CB3
:1028E90083EFF078AE0680C5E4F58F53B6F0AB48B8
:1028F900AA49A94A8547F01204DDD2AFE4FF122F95
:012909005C71
:01290A0022AA
:102CE1007880E664F1704AC2AF123010758F0378B4
:102CF100AD763A087600E478ACF675B7A57880E64B
:102D0100F5B778ADE6FE08E6F5828E83E4F07F0143
:102D1100122F7C78AEE426F618740236F61806E611
:102D2100C3940140D5E4F58F53B6F0D2AFFF122F13
:012D31005C45
:012D3200227E
:1027F600122CE1E4F542F543F548754900754A4265
:10280600FB7A0079087D16122881122865F53FE5C6
:102816003FC3787D965041E4F53E12290B6035E5BD
:102826003E12294A853FF0A429F9EA35F0FAEBC0B1
:10283600E0EAC0E0E9C0E012290BFD7548007549E1
:1028460000754A42D0E0F9D0E0FAD0E0FB122881C8
:0E285600053E80C6053F80B71228657880F6E3
:1028640022754012754134754800754900754A4215
:0D2874007B007A0079407D02122881E42269
:1026C000E4F543F544F540F549754A00754B43FB85
:1026D0007A0079087D16122DD51227517004E54134
:1026E00064127003434001E4F53FE53FC3787D96F3
:1026F000504EE4F53EE53E12290D6040E53E1229BC
:102700004A853FF0A429F9EA35F0FAEBC0E0EAC0C7
:10271000E0E9C0E0AB61AA62A96375F010E53E1282
:102720002916FD754900754A00754B43D0E0F9D074
:10273000E0FAD0E0FB122DD5053E80B9053F80AA16
:102740001227517004E54164127003434002AF4008
:1027500022754900754A00754B437B007A00794128
:0A2760007D02122DD5E542643422FB
:10171F004856522D353030000134000000436F6EB3
:10172F0074726F6C00010014041800000155646599
:10173F006D616E64000100150418000001556D65A0
:10174F0061730000000100190406FA0001496D657C
:10175F00617300000001001D01340000005374612B
:10176F007475730000010021015C00000054726960
:10177F0070436E7400010022041800000152616D65
:10178F007055700000010023041800000152616DB4
:10179F0070446F776E0100270418000001556C69C3
:1017AF006D6974000001002B0406FA0001496C6991
:1017BF006D6974000001002F0406FA000152496C94
:1017CF00696D697400010033015C00000054726997
:1017DF00704D6178000100370103000000547269F9
:1017EF007054696D65010038045D00000941444380
:1017FF006761696E00010039041800000941444314
:10180F006F6673000001003D045D00000944414311
:10181F006761696E000100410418000009444143EB
:10182F006F66730000010045045D000009435552C7
:10183F00766761696E010049045D000009435552E6
:10184F006761696E0001004D0406FA0009435552A5
:10185F006F667300000100510418000009554441E0
:10186F0043000000000100550000000000000000D0
:10187F00000000000000000000010203040507063D
:08188F000100030205040F0E25
:082FFC00017D050361FF1727A9
:100EAC0075F045E53E9000151206761205B5E53E47
:100EBC0025E025E02481F582E43401F58312060651
:100ECC00E53E25E025E02481F582E43401F583122A
:100EDC0005B5E53E90005575F045020676F675F0C1
:100EEC0045E53E900021120676E054FBF0E53E7598
:100EFC00F04590002102067675F045E53A90001910
:100F0C001206761205CEE53A90001575F0450206EC
:100F1C00761205B578C0E4FBFAF912002D90005555
:100F2C00E53A75F045020676E53E75F04590002FE2
:100F3C0002067675F045E53E900015120676120510
:100F4C00B5E53E25E025E02481F582E43401F58306
:100F5C002275F045E53E9000331206761205B5E594
:100F6C003E90001D75F045020676E53E75F0459005
:100F7C00002B02067675F04590002302067675F07C
:100F8C004590002702067675F0459000140206760F
:100F9C0075F04590002202067675F04590003802F7
:100FAC00067675F045900019020676CBEFCBE53E40
:100FBC0025E025E02400F582E43400F58322E53AAF
:100FCC0025E025E0246DF582E43401F5832275F0EB
:100FDC00459000390206761205B575F045E53E9050
:100FEC0000151206761205CE0202C475F04590006B
:100FFC004D0206761205CE12011E79C87842E4FB2A
:10100C00FA020227120227E4FBFA798078471201D0
:10101C001EE4FBFAF9783F22E433FDEF4D25E0FFA7
:10102C00EE33FE22120029900197120606900197CA
:10103C000205B575F045E53A0206761205B57A401B
:10104C0078457B00791C0202C41205B5E4FBFA2238
:10105C00C8ECC8C9EDC9CAEECACBEFCB22A81E0892
:10106C0008F6A81EE4F6A81E08227B937A6D799BDD
:10107C007844221205B5E51E24FCF51EF82275F005
:10108C0045E53E0206761205B5E51E2403F8020579
:10109C00C19001971205CE02011EC29508C9E8C97C
:1010AC00A81E0808E6579400227B007A24797478ED
:1010BC004922E054BFF07478253EF874FE56F622AF
:1010CC00900197120606E4FFFE22AC3FE412033BAC
:1010DC0075F045E53E22151EA81EEFF6151E151ED1
:1010EC0022AB3FAA40A94122AB3BAA3CA93D2275A9
:1010FC00F0450206767478253EF874FB56F6227499
:06110C0078253AF8E62206
:10153A00E4F5A5F5A6EF70030215C57E017F597D76
:10154A00007B017A0079141206FAE4F53EE53E12B0
:10155A000F8112062B43960000E53E120F8A1206EF
:10156A002B43960000120F7612062B451C400012E0
:10157A000F3412062B44FA000090003312108A121C
:10158A00062B44FA0000E53E120FA5740AF0E53E68
:10159A00120FDA12062B3F80000090004112108AC7
:1015AA0012062B3F800000E53E120FF712062B3F72
:1015BA00800000053EE53E64057092E4F53EE53E96
:1015CA00120F937402F0E53E120EFBE4F0E53E12B0
:1015DA000F1412062B00000000E53E120F9CE4F0E7
:1015EA00120F76121047500A120F7612062B451C5C
:1015FA004000120F3412105579FA78441202C4507E
:10160A0019120F341205B57A3C784612104E600A48
:10161A00120F3412062B44FA0000E53E120F4F1245
:10162A00062B00000000122FD2E53E120FBC120654
:10163A0006053EE53EC394054084D2B2D2B1D2B388
:10164A00D2A2D281D280D283D282D2A1D2A0A2A0A7
:10165A00E4FE33121029A2A1121024A2821210242D
:10166A00A283121024A280121024A281E433FDEF77
:10167A004DFF7C007D0512046AE50842068E088F3C
:10168A0009E50BB4FF0BE50AB4FF06750A01750BF1
:10169A00F4A2B3920F300F16E4F53E75F045E53E1D
:1016AA00120EFEE04480F0053EE53EB405EDD2960A
:1016BA00D297D290D294C2977F647E00122EE6D23D
:1016CA00977F2C7E01122EE67D1B7F031221507D0F
:1016DA00107F07122150E4F53E7478253EF876090A
:1016EA00053EE53EB405F2E4F53E7D01AF3E122F1C
:1016FA00B3053EE53EC3940540F0D210C211E4F5AD
:10170A003EE53E120FCC12062B00000000053EE516
:04171A003EB405EDE7
:01171E0022A8
:10255F00151EA81EEFF6A81EE6FF600864016004B2
:10256F00EFB40513122600120EFEE054DFF0D21066
:10257F00122608740146F6A81EE664087020123071
:10258F0023EF120F78121047500D122600120F7BF7
:10259F0012062B451C4000122608740146F6A81E91
:1025AF00E664097049123023EF120F361210557975
:1025BF00FA78441202C4502B12302375F045EF12F3
:1025CF000F391205B57B007A3C791C78461202C48C
:1025DF00601112302375F045EF120F3912062B449C
:1025EF00FA000012302374782FF8740846F6051E8F
:1025FF002212302375F045EF2212302374782FF812
:01260F0022A8
:053028008F347F00223F
:09301A008B348A3589367F0022CF
:101A0E00151E151EA81EECF608EDF61210E2151E98
:101A1E00E51E2403F8E675F00684E5F0901887932A
:101A2E00F6C292121B3A12106E7608A81EE6C394E6
:101A3E00045023C29508E6540394004003D380015A
:101A4E00C3121B09A81E08E8C0E0E6C313FFD0E0CE
:101A5E00121B2F0680D512106E7608A81EE6C394B0
:101A6E0004502BC29508C9E8C9E51E2403F8E657B1
:101A7E00D394004003D38001C3121B09A81E08E8AB
:101A8E00C0E0E6C313FFD0E0121B2F0680CDE51E8B
:101A9E002404F9E71210697680A81EE6C394085054
:101AAE001D1210A64003D38001C3121B1CA81E08D2
:101ABE00E8C0E0E6C313FFD0E0121B4780DBE51E53
:101ACE002404F808E61210697680A81EE6C394086E
:101ADE00501D1210A64003D38001C3121B1CA81E5A
:101AEE0008E8C0E0E6C313FFD0E0121B4780DBD24C
:041AFE0092121B3AEB
:101B0200E51E2406F51E2292947F2C7E01122C38AB
:101B1200D2957F2C7E01122C382292947F2C7E014A
:101B2200122C38D2957F2C7E01122C3822F8EFF637
:101B32007F01122F7CA81E227F2C7E01122C387F5F
:101B420001122F7C22F8EFF67F01122F7CA81E06CD
:011B52002270
:042150008F3F8D40F0
:102154001221FAE49001A4F01221F0C29412222870
:10216400D2951222287F01122F7C9001A4E004F062
:10217400E0C3940440E2E49001A4F0A37408F012D4
:1021840021F09001A5E0553FD394004003D3800192
:10219400C31221DD122209940440E412221E7F019D
:1021A400122F7C1221FAE49001A4F0A37480F0C2EF
:1021B400957F2C7E01122C389001A5E05540D394D4
:1021C400004003D38001C31221DD12220994084088
:0921D400DE12221E7F01022F7CA5
:1021DD0092947F2C7E01122C38D2957F2C7E011289
:1021ED002C3822C2957F2C7E01122C3822C2937F6F
:1021FD002C7E01122C387F01122F7C229001A5E03C
:10220D00C313F07F01122F7C9001A4E004F0E0C312
:10221D0022D2937F2C7E01122C38227F2C7E01122C
:03222D002C382228
:08206D008F5B8B5C8A5D895ECC
:1020750012212B7F01122F7CE4F55F122121E55FF0
:10208500B40103D38001C312210E7F01122F7C05F9
:102095005FE55FC3940440E3E4F55F7560081221D2
:1020A50021E55B5560D394004003D38001C3122121
:1020B5000E122135940440E61221467F01122F7C31
:1020C50012212B7F01122F7CE4F55F756080AB5CDC
:1020D500AA5DA95E120436C2957F2C7E01122C38AA
:1020E50030910EAB5CAA5DA95E1203F04560120447
:1020F50036D2957F2C7E01122C381221359408405A
:09210500D61221467F01022F7C55
:10210E0092947F2C7E01122C38D2957F2C7E011258
:10211E002C3822C2957F2C7E01122C3822C2937F3E
:10212E002C7E01122C3822E560C313F5607F01125C
:10213E002F7C055FE55FC322D2937F2C7E01122C8C
:02214E00382235
:081D77008F3E8B3F8A40894139
:101D7F00121E51E4F542121E47E542B40103D3800F
:101D8F0001C3121E34121E6A940440EAE4F5427530
:101D9F004308121E47E53E5543D394004003D380BA
:101DAF0001C3121E34E543C313F543121E6A940494
:101DBF0040E0121E607F01122F7C121E51E4F5428B
:101DCF001210ED12065C000000001210ED12056FEC
:101DDF00780112055C12058FC295121E75121E75C1
:101DEF001210EDEBC0E0EAC0E0E9C0E01205DAA2A4
:101DFF0091E4FCFDFE33FF120530D0E0F9D0E0FA9C
:101E0F00D0E0FB12058FD2957F2C7E01122C387FEC
:101E1F0001122F7C0542E542C3941840AD121E609B
:051E2F007F01022F7C81
:101E340092947F2C7E01122C38D2957F2C7E011235
:101E44002C3822C2957F2C7E01122C3822C2937F1B
:101E54002C7E01122C387F01122F7C22D2937F2CEE
:101E64007E01122C38227F01122F7C0542E542C3E9
:091E7400227F2C7E01122C382281
:06230C008B3B8A3C893D79
:10231200EF75F00A84E5F090188D93C454F0440FE1
:10232200FD7F021221507D127F01122150122FD205
:1023320090019F120606309058122B11E49001A3CF
:10234200F09001A3E0FFC39405500B12132C9001EF
:10235200A3E004F080EB122FD290019F1205CE125F
:102362000522E47B1EFAF9F8C312054B50C8C29746
:102372007F647E00122EE6D2977F2C7E01122EE61B
:102382007D1B7F031221507D107F071221507F0099
:10239200227B017A01799B7F04121D7790019B12A7
:1023A20005B5E41203317980784B12100A7B0A7A60
:1023B200D77923784012011E1210F412058F1210E1
:1023C200F412056F1210B512101A12002D122610F7
:0E23D2001210B51202271210F412058F7F01AF
:0123E00022DA
:032230001210E2A7
:10223300A81E0808E690002B120EE3121092120259
:10224300C4A81E602440220808E6FB90002B120F4E
:10225300171205B5E51E2403F81205FA75F045EBD0
:10226300120EFEE04410F0800A0808E6120EFBE0AE
:1022730054EFF0A81E0808E6900041120F2E12102A
:102283009212011EA81E0808E6900045120F701254
:1022930005CE12002DE51E2403F81205FAE4FFFE15
:1022A300FDFC1210951202C4500CE51E2403F81213
:1022B300061200000000E51E2403F8E8C0E0120542
:1022C300A9121076120227D0E0F81205FAE4FBFAFD
:1022D30079207840E8C0E0E51E2403F81205A9D070
:1022E300E0F812101012002D12036FA81EEEF6086C
:1022F300EFF6A81EE6FC08E6FDA81E0808E6FF1296
:022303001A0EB0
:07230500E51E2407F51E226E
:022A16008F3AF5
:102A1800E53A25E0FF7B017A01799712230CEF60F4
:102A28006F9001971205B512107612011E9001974A
:102A3800120606E53A120FDA1205B512109DE53AAC
:102A480090003D1210FB1205CE12002D1210CC7D05
:102A5800C87C4212109D1226101210061210CC7D4E
:102A6800207C42900197120FF160054003D380014A
:102A7800C340047D0180027D00AF3A122FB3C2AF7C
:102A88009001971205B5E53A120FAE120606D2AFBD
:012A9800221B
:102F11008F3D8E3C8D3B8C3A7F007E3C7D1C7C46F8
:102F2100AB3DAA3CA93BA83A1202C47004D211805D
:0A2F310002C2117D107F070221503B
:101B53008F3A75F045EF120F391205B5E53A120FBA
:101B63006D120FF1606D406B120FCA121055F9F828
:101B7300C312054B7009122FD2120FCA1206067434
:101B830078253AF874FE56F67478253AF874FD56BB
:101B9300F67478253AF8740446F675F045E53A127A
:101BA3000EFEE054FBF075F045E53A120EFEE044FC
:101BB30008F075F045E53A120EFEE0FF20E51475D6
:101BC300F045E53A120EFEEF4420F0E53A120F9C81
:101BD300E004F075F045E53A120EFEE030E573E5FA
:101BE3003A9000371210FBE0FF75F045E53A120F0B
:101BF3009FE0C39F505C122FD2ECC0E0EDC0E0EE3B
:101C0300C0E0EFC0E0E53A120FA5E075F064A4FF71
:101C1300AEF0E4FCFD120FCA1205CE120515121028
:101C23005CD0E0FFD0E0FED0E0FDD0E0FCD31205B5
:101C33004B501F75F045E53A120EFEE054DFF012EB
:101C43000FCA12062B000000007478253AF87401BD
:101C530046F675F045E53A120EFEE030E50B7A00E4
:0A1C63007B647D03AF3A122C8F2240
:0223E1008F3A31
:1023E300E53A25E004FF7B017A01799712230CEF8C
:1023F30070030224A0E4FBFA7970784112103912B9
:10240300022712107612011E7B007AC0795A784790
:102413001202271210B512011E121033ECC0E0EDA8
:10242300C0E0EEC0E0EFC0E0E53A120FAE1205B532
:1024330090004912103F1210A012105CD0E0FFD0A0
:10244300E0FED0E0FDD0E0FC1210309000511210FD
:102453003F1205CE121030E53A120FF71210A0907A
:1024630001971210CF7D207C419001971205CE1267
:10247300101A12002D122610E4FBFA79207841126B
:102483000227900197120606C2AF12103975F04564
:0D249300E53A90001D120676120606D2AF43
:0124A0002219
:02132C008F3EF2
:10132E00EF120F93E020E00302151075F045EF1257
:10133E000EFEE030E70302151074782FF8E630E069
:10134E0075EF120F4F120FE3602F402DE53E120F77
:10135E0081121055F9F81202C4501E7478253EF809
:10136E00740246F6121101120EF9E04404120EF840
:10137E00E054F7120EF81210BE120F4D120FE3507A
:10138E002CE53E120F8A121055F9F81202C4501DA8
:10139E007478253EF874FD56F67478253EF874047C
:1013AE0046120EE9E04408120EF81210BE122FD2A9
:1013BE00120FBA1206067478253EF8E620E10302F3
:1013CE001469122FD2120FB71205B5C3EB9FF53F5A
:1013DE00120F5D120FF175F045600D400BE53E12D8
:1013EE000EFEE04440F08009E53E120EFEE054BFD2
:1013FE00F0E53F6066120F5D120FF1505E120F4D59
:10140E00C083C0821205CEE8C0E0E9C0E0EAC0E0C9
:10141E00EBC0E01210D6120F84121000D0E0FBD0F9
:10142E00E0FAD0E0F9D0E0F812002DD082D083128D
:10143E000EC9120606120F3F120FF14015120EAC16
:10144E001206067478253EF874FD56120EE9E05425
:10145E00BFF0120F4D1215151206067478253EF8C0
:10146E00E620E203021510122FD2120FB71205B5A5
:10147E00C3EB9FF53F7003021510120F4DC083C0D2
:10148E00821205B5ECC0E0EDC0E0EEC0E0EFC0E0CA
:10149E001210D6120F8D12100012105CD0E0FFD079
:1014AE00E0FED0E0FDD0E0FC120029D082D0831205
:1014BE000EC9120606120EF9E030E523120F4D1278
:1014CE001055F9F81202C44030120F4D12062B00BF
:1014DE00000000120EDE12062B000000008010121B
:1014EE000F3F120FF160025010120EAC12060612D0
:1014FE001101120EF9E054F7F0120F4D12151512DC
:07150E0006067F01022F7C9D
:101515001205B5E51E24FCF51EF81205FAAF3E12BC
:101525002230122FD2E53E25E025E02400F582E4A5
:051535003400F58322E3
:101897008F3A74782FF8E630E00B122FD2E53A1220
:1018A7000FBC120606900014120F2CE0FF20E00375
:1018B7000219C575F045E53A120EFEE0FE30E70362
:1018C7000219C512110B540660030219C5EE30E563
:1018D700030219C5EF20E103021999120F1212052D
:1018E700B5E53A120F4F120606120F041205B5128C
:1018F7000029122FEC121076120227E4FBFA792046
:1019070078401210101202C440030219C5E53A12BA
:101917000EE0C083C0821205CEE8C0E0E9C0E0EA6D
:10192700C0E0EBC0E0120F041205B5120029D0E0A9
:10193700FBD0E0FAD0E0F9D0E0F812002DD082D049
:1019470083120606120F12120F1D120FF150091201
:101957000F12120F1D120606120F121205B578404C
:10196700120F22120FF16011400F120F12121055B1
:10197700F97840120F261206067478253AF874FE95
:1019870056F6120F2912107F1205FAAF3A122230BB
:10199700802C12110B30E026120F121205B5E53A12
:1019A700120F4F120606120F121205B5120F291247
:1019B7000606120F1212107F1205FA1219FF75F0A0
:1019C70045E53A120F96E020E02912110B30E0238B
:1019D700120F2912062B00000000E53A120F4F12D2
:1019E700062B0000000012108212061200000000F1
:1019F7001219FF7F01022F7CAF3A1222307478252B
:071A07003AF874FE56F622C6
:101F8100E4900195F07F00122F7C900014E020E294
:101F91004E900195E0FF2478F8E630E31A75F0459C
:101FA100EF120F391205B5122F11900195E0247827
:101FB100F874F756F6D210900195E0FF121B53907A
:101FC1000195E0FF122A16900195E0FF12132C9063
:101FD1000195E0FF121897900195E0FF1223E1307F
:101FE100B34CE4900196F0900196E0FB120EE012E2
:101FF100062B0000000075F045EB120EFEE0448058
:10200100F0900196E0FB120F4F12062B000000002A
:1020110012108212061200000000CFEBCF12223004
:10202100900196E004F0E0C3940540BBD20F20B3C9
:102031002B300F28E4900196F0900196E0FF247870
:10204100F8740146F675F045EF120EFEE0547FF08C
:10205100900196E004F0E0B405DFC20F900195E035
:0B20610004F0E0C394055003021F864A
:01206C002251
:100026000203DBE86480F8E933E83360110460F02A
:10003600ED33EC337009E8FCE9FDEAFEEBFF220440
:1000460060DED3EB9FEA9EE99DE8C2E78CF0C2F73B
:1000560095F0400CE8CCF8E9CDF9EACEFAEBCFFB07
:100066001203A685D0F05804700320D5B3E80470B7
:10007600075002B2D50203E592D5EC0460F7E4CC52
:10008600C0E0C398F8603B94186008400DD0E0FBD0
:100096000203BDE4FBFAC9FC8028E830E406E4C9A3
:1000A600FBE4CAFCE830E305E4C9CACBFCE8540724
:1000B6006010F8C3E913F9EA13FAEB13FBEC13FC2F
:1000C600D8F130F52FC3E49CFCEF9BFFEE9AFEEDD2
:1000D60099FDD0E0FBEF4E4D4C701222DB0302037C
:1000E600E2EC2CFCEF33FFEE33FEED33FDED30E7B3
:1000F600EB0203BDEF2BFFEE3AFEED39FDD0E0FB40
:1001060050130BBB00030203E5ED13FDEE13FEEFE8
:0801160013FFEC13FC0203BD12
:10011E00EC4D6011E8497017ED33EC3304600DE4DB
:10012E00FCFFFEFD22E933E8330470F80203DB1214
:10013E0003A658046009E4CC248150062850090215
:10014E0003E52840030203E2C0E0EB4A7044B980A5
:10015E0006D0E0FB0203D1EF4E701CBD8008EBFF12
:10016E00EAFEE9FD80EBE98DF0A4FEE5F002020760
:10017E00E9CDF9EAFEEBFFEF89F0A4FCE5F0CE89BC
:10018E00F0A42EFFE435F0CD89F0A42DFEE435F079
:10019E008067EF4E7005BD80D780C3EF8BF0A4ACA7
:1001AE00F0EE8BF0A42CFCE435F0F8EF8AF0A42CE2
:1001BE00E5F038FCE433CB8DF0A42CFCE5F03BF8F5
:1001CE00EE8AF0A42CFCE5F038F8E433CF89F0A4E5
:1001DE002CFCE5F038CF3400CE89F0A42FFFE5F0EB
:1001EE003EFEE433C98DF0A42EFEE5F039CD8AF043
:1001FE00A42FFFE5F03EFEE43DFD33D0E0FB5007BB
:10020E000BBB000F0203E5EC2CFCEF33FFEE33FECD
:06021E00ED33FD0203BDFB
:100224000203E5EC5D046005E8590470030203DB96
:100234001203A6580460F6EC4860F2EC7004FDFE6C
:10024400FF22C860DB2481C85009C39860025006AD
:100254000203E29850CAF582E9294B4A7005AB8241
:100264000203D175F0007C1A7880C3EF9BEE9AEDFF
:1002740099400DC3EF9BFFEE9AFEED99FDE842F025
:10028400DC23ACF0D0E0FFD0E0FED0E0FDAB822078
:10029400E7101BEB60BAEC2CFCEF33FFEE33FEED02
:1002A40033FD0203BDE803F830E705C0F075F00044
:1002B400EF2FFFEE33FEED33FD40B830E7C280AAE6
:1002C40074F8CC6480CCC86480C8F582046043C3ED
:1002D400EB9FF5F0EA9E42F0E99D42F0E89C45F080
:1002E40060305018E5825FFFE582F42B5582FB50A5
:1002F400210ABA001D09B90019088016E5825BFBC2
:10030400E582F42F5582FF50090EBE00050DBD0095
:10031400010CC3EB9FF5F0EA9E42F0E99D42F0E840
:0D0324009C45F06007CC4820E701B3EC22B7
:1003310075F020800E75F010800575F0087D007E47
:10034100007F003392D530D50312053DEC334010C8
:10035100EF33FFEE33FEED33FDEC33FCD5F0ED2250
:0E036100E5F0247EA2D513CC92E7CDCEFF228C
:10036F00EDD2E7CD33EC3392D524814006E4FFFE86
:10037F00FDFC22FCE4CFCECDCC24E0501174FF80E5
:10038F00EDC3CC13CCCD13CDCE13CECF13CF047082
:07039F00F030D5DE02053D40
:0D2FEC00ED33EC3360065004EC6480FC22F1
:102610008F418E408D3F8C3E74FFFFFEFDFCAB4131
:10262000AA40A93FA83EC312054B602C7F807E962E
:102630007D187C4BAB41AA40A93FA83E1202C46062
:102640000250157F807E967D187CCBAB41AA40A9B5
:102650003FA83E1202C45009AF41AE40AD3FAC3E70
:1026600022AF41AE40AD3FAC3E12036F8F458E446A
:102670008D438C42EC120331C8ECC8C9EDC9CAEED7
:10268000CACBEFCBAF41AE40AD3FAC3E120029E428
:10269000FBFAF9F81202C4601A401874FF2545F5D8
:1026A00045E54434FFF544E54334FFF543E5423462
:1026B000FFF542AF45AE44AD43AC42EC12033122CC
:1003A600E9D2E7C933E833F892D5EDD2E7CD33EC9D
:0703B60033FC5002B2D52216
:1003BD00EC30E7100FBF000C0EBE00080DBD0004A1
:1003CD000BEB6014A2D5EB13FCED92E7FD2274FF4D
:1003DD00FCFDFEFF22E480F8A2D574FF13FC7D80A6
:0303ED00E480EFBA
:0300000002276A6A
:0C276A00787FE4F6D8FD7581B20227B13B
:1003F000BB010689828A83E0225002E722BBFE020B
:09040000E32289828A83E493223D
:10040900BB010CE58229F582E5833AF583E02250A8
:1004190006E92582F8E622BBFE06E92582F8E222F2
:0D042900E58229F582E5833AF583E493220C
:10043600BB010689828A83F0225002F722BBFE01A5
:02044600F3229F
:10044800F8BB010DE58229F582E5833AF583E8F0EA
:10045800225006E92582C8F622BBFE05E92582C896
:02046800F2227E
:10046A00EF8DF0A4A8F0CF8CF0A428CE8DF0A42EA6
:02047A00FE2260
:10047C00C2D5EC30E709B2D5E4C39DFDE49CFCEE9B
:10048C0030E715B2D5E4C39FFFE49EFE120726C3E6
:10049C00E49DFDE49CFC800312072630D507C3E4E1
:0604AC009FFFE49EFE220A
:1004B200BB010A89828A83E0F5F0A3E02250068715
:1004C200F009E71922BBFE07E3F5F009E3192289D7
:0B04D200828A83E493F5F0740193220A
:1004DD00BB010789828A8302077B500B09C5F02770
:1004ED00F7C5F01937F722BBFE0D09F8E325F0F338
:1004FD00C5F019E338F322F889828A8374019325B4
:08050D00F0C5F0F8E493382278
:0D051500EF2BFFEE3AFEED39FDEC38FC2235
:0E052200C3EF9BFFEE9AFEED99FDEC98FC22D4
:0D053000EF4BFFEE4AFEED49FDEC48FC22CA
:0E053D00C3E49FFFE49EFEE49DFDE49CFC22CF
:10054B00EB9FF5F0EA9E42F0E99D42F0E89C45F006
:01055B00227D
:10055C00E8600FEFC333FFEE33FEED33FDEC33FCFD
:03056C00D8F122A1
:10056F00BB010789828A830205B55005E9F80205A8
:10057F00A9BBFE05E9F802079189828A8302079DCC
:10058F00BB010789828A830206065005E9F8020536
:0A059F00FABBFE05E9F80207CA22C4
:0C05A900E6FC08E6FD08E6FE08E6FF227E
:0C05B500E0FCA3E0FDA3E0FEA3E0FF22B9
:0D05C100E6FB08E6F908E6FA08E6CBF822AA
:0C05CE00E0F8A3E0F9A3E0FAA3E0FB22B0
:1005DA00BB010789828A830205CE5005E9F8020524
:1005EA00C1BBFE05E9F80207AD89828A830207BA10
:0C05FA00ECF608EDF608EEF608EFF6222D
:0C060600ECF0A3EDF0A3EEF0A3EFF02267
:10061200D083D082E493F608740193F608740293AF
:09062200F608740393F6740473E6
:10062B00A8828583F0D083D0821206421206421232
:10063B000642120642E473E493A3C583C5F0C58357
:10064B00C8C582C8F0A3C583C5F0C583C8C582C819
:01065B00227C
:10065C00BB010789828A8302062B5005E9F8020642
:0A066C0012BBFE05E9F80207D622D2
:0C067600A42582F582E5F03583F583228F
:09068200E6FB08E6FA08E6F9229D
:10068B00FAE6FB0808E6F925F0F618E6CA3AF62270
:09069B00EBF608EAF608E9F62284
:1006A400BB010DE58229F582E5833AF5830207EF64
:1006B4005007E92582F8020682BBFE07E92582F885
:1006C4000207F8E58229F582E5833AF583020801F9
:1006D400D083D082F8E4937012740193700DA3A3B5
:1006E40093F8740193F5828883E4737402936860C9
:0606F400EFA3A3A380DFC9
:102D33008B3E8A3F8940E4F546F547E5451545AEA8
:102D430044700215444E6033AB41AA42A9431203B7
:102D5300F0FFAB3EAA3FA9400547E547AC467002EA
:102D6300054614F5828C83EF120448EF60CD74019D
:102D73002543F543E43542F54280C0AB3EAA3FA963
:022D83004022EC
:1006FA00EF4E6012EF60010EEDBB010B89828A8317
:10070A00F0A3DFFCDEFA2289F05007F709DFFCA923
:0C071A00F022BBFEFCF309DFFCA9F0227A
:10277600023005E493A3F8E493A34003F68001F244
:1027860008DFF48029E493A3F85407240CC8C33364
:10279600C4540F4420C8834004F456800146F6DF33
:1027A600E4800B0102040810204080902FF9E47E9B
:1027B600019360BCA3FF543F30E509541FFEE49328
:1027C600A360010ECF54C025E060A840B8E493A3EF
:1027D600FAE493A3F8E493A3C8C582C8CAC583CA1A
:1027E600F0A3C8C582C8CAC583CADFE9DEE780BED2
:0130040000CB
:10072600BC000BBE0029EF8DF084FFADF022E4CCB7
:10073600F875F008EF2FFFEE33FEEC33FCEE9DEC80
:10074600984005FCEE9DFE0FD5F0E9E4CEFD22EDC6
:10075600F8F5F0EE8420D21CFEADF075F008EF2F10
:10076600FFED33FD4007985006D5F0F222C398FD01
:050776000FD5F0EA229E
:10077B00C5F0F8A3E028F0C5F0F8E5821582700209
:06078B001583E038F022A6
:0C079100E2FC08E2FD08E2FE08E2FF22A4
:10079D00E493FC740193FD740293FE740393FF22A2
:0D07AD00E2FB08E2F908E2FA08E2CBF822CC
:1007BA00E493F8740193F9740293FA740393FB2295
:0C07CA00ECF208EDF208EEF208EFF2226B
:1007D600D083D082E493F208740193F208740293F2
:0907E600F208740393F274047329
:0907EF00E0FBA3E0FAA3E0F9220B
:0907F800E2FB08E2FA08E2F92232
:0C080100E493FB740193FA740293F92253
:00000001FF
