:0D2EE500245265763A203432313720240023
:10237B00E526AB0DAA0EA90F75F010A4F58285F01A
:10238B0083020409E493FF3395E0FEEF24D0FFEEC4
:10239B0034FFFE7C0002046AE53CC4F8540FC868A5
:1023AB00FFE53BC454F04822785E900521E0FCA386
:1023BB00E0FDE6FA08E6FB2275F010A429F9EA35F0
:1023CB00F0FA227856E6241FF582E43405F583E013
:1023DB0022E52975F010A4AB0D250FF9E50E35F0AC
:1023EB0022AB0DAA0EA90F229005607478F02290F3
:1023FB00000D120672785CE6FF18E68FF0A42278C7
:10240B005F900521E0FDE6FB22D20AC3ED9B785CD1
:10241B00F67858760122D20A785CF6785822FA9030
:10242B0000040204097B007A00792422900522E043
:06243B00FFE526D39F22FD
:100E9C00E47880F6122EC3C28575840F75E104E4E4
:100EAC00F5E275E344F58475B7B075840F758A83E4
:100EBC00F597438901758D01758F01758E04F53B8E
:100ECC00F53C053CE53C7002053B640F453B70F27C
:100EDC00438902E4F53BF53CAE3BAF3CE4FCFD7BC7
:100EEC00507AC3F9F8D312053D400FE58920E40A86
:100EFC00053CE53C70E2053B80DE759702122E390D
:100F0C00E4FF122E5843EF04E4F53BF53C7D01AFB2
:100F1C003C12000E053CE53C7002053BC39410E509
:100F2C003B940040E8E4F520C20AC208C20EC20D90
:100F3C00C20C7880F608F67857F618F6785CF6F559
:100F4C003BF53C7420253CF582E43405F583E4F054
:100F5C00053CE53C7002053B6440453B70E5E4F51F
:100F6C003BF53C7460253CF582E43405F583E4F0F4
:100F7C00053CE53C7002053B6440453B70E5E4F5FF
:100F8C0084E5EF20E10CE5EF5408D394004003D343
:100F9C008001C392037D08E4FF122E10E4785BF607
:100FAC007854F61223EC7854E6FF122383FE785B18
:100FBC0026F6EE600578540680E9EFD39400402DB8
:100FCC001223EC90000D1206721203F0FF745512EE
:100FDC0004361203F064556002D20C74AA12043663
:100FEC001203F064AA6002D20CEF120436E4F5840A
:100FFC00E5EF5402D3940040047F018002E4FF1219
:10100C0024FC8F3AE53A20E036C20974FF785EF68C
:10101C0008F608F608F67E007F107D007B007A004B
:10102C0079641206C87540FF75411A75425B7543A9
:10103C00007544107B007A007964122B668002D212
:10104C0009902EEC7D6412238FAA06AB07902EEB31
:10105C00E493FF3395E0FEEF24D0FFEE34FFFE7CEB
:10106C00037DE812046AEF2BFBEE3AFA902EED7D2D
:10107C000A12238FEF2BFFEE3AFEA3E493FD339578
:10108C00E0FCED24D0FDEC34FFCD2F7863F6ED3E83
:10109C0018F6E53A20E179E4F53BF53C1223A3FE82
:1010AC001223EC8F82F583120409605BE92FF9EAB5
:1010BC003E12242920E245E4F539E539C3787496CB
:1010CC00503A1223A31223EC8F82F583120409FFEA
:1010DC007E00C006C0077D001223A3FEE92FF9EAAB
:1010EC003EFA90000D120672785BE68539F01223F9
:1010FC00C6D007D0061206C8053980BE053CE53CB3
:10110C007002053B0210A87F011215C7C20B8007A5
:10111C00E4FF1215C7D20BE4F53BF53C7A007B9645
:10112C007D03AF3C122C58053CE53C7002053BC3DB
:08113C009410E53B940040E42F
:011144002288
:05000300785CE6FF221D
:0300230002209424
:10209400C0E0C0F0C083C082C0D075D000C000C012
:1020A40001C002C003C004C005C006C00730993E89
:1020B400C2997857067957E77881667015F678578C
:0120C400F625
:0D20C50075220A75231300D523FCD522F6E1
:0420D200C285801C27
:0D20D60075221475231300D523FCD522F6C6
:1020E3007857E62460F582E43405F583E0F599201A
:1020F3009803022182209A08200A05C29802217EB1
:10210300C29A7856E6062420F582E43405F583E581
:1021130099F0C298E6FFB40112900520E0FE700327
:10212300F6805CEE54072402785DF6EFB4020D7876
:102133005DE6B40907900521E02403F67856E6FF2F
:10214300B4400476008038EFC3785D96403178560A
:10215300E624FFFDE434FFFC7B017A057920122994
:0B2163004B1223CE6F60047600801446
:0D216E0075221475231300D523FCD522F62D
:10217B001207A578567600D007D006D005D004D02C
:10218B0003D002D001D000D0D0D082D083D0F0D0F9
:02219B00E03230
:102CF5008F338B348A358936E4F584EA494B601C79
:102D0500AB34AA35A9361203F0FFE533FD7C00127A
:0C2D15002EFFAB34AA35A936EF120436AD
:0D2D210075371475381300D538FCD537F61A
:0E2D2E008533997F01122E943099FDC29922AF
:092E7700E4F5847881EFF6D285C0
:0D2E800075331475341300D534FCD533F6CA
:072E8D00900560E0F59922B9
:102D7D00C9EFC9E96401701FEDC39B40277874E664
:102D8D00FFEB2FFFE433FEEDC39FEE6480F87480FC
:102D9D0098501112241422B90210ED6B70061224F2
:0B2DAD0021760222C20AE47858F622C8
:102BB800C9EFC9BAFF11BBFF0EED6B7002EC6A706A
:102BC80038122421E9F622E96401701CC3ED9BEC5C
:102BD8009A40137874E62BFFE43AFEC3ED9FEC9E0F
:102BE8005004122414228011B90214ED6B7002EC07
:102BF8006A7006122421760222C20AE47858F62264
:1007A500900520E0FF54F8F525E4F584EF1206A244
:1007B50007F20907F90A08001008091108161208B6
:1007C500231908331A08492008522808A62909615F
:1007D50033099C3709CB3909DB4109E64909F05052
:1007E5000A2D61092B700A259800000A4C12240A6B
:1007F5007F0180171223B37F01801DD20A785876B6
:1008050003020A4C786112240C7F02122D7D020A24
:100815004C78601223B57F02122BB8020A4C1224C1
:100825000A7F01122D7D200A03020A4C800E122335
:10083500B37F01122BB8200A03020A4C1223F37F5F
:1008450001020A49E4F58475EF10020A4C120DF60F
:100855007F18120E527F05122CF57854120DDE7892
:100865005E120DDE785F120DEA7860120DEA78618E
:10087500120E0E7862120E0E7863120E28E4F5261B
:1008850074642526F8120E280526E526C394104023
:01089500EF73
:0D089600120E3475321300D532FCD531F648
:1008A300020919900521E0FFC3785496506FEF7544
:1008B300F010A41223E4850D2EF52F8930120DF6C6
:1008C3007F0D122CF5AB2EAA2FA930120E1A900011
:1008D30001120DB6900002120DB6900003120DCA5C
:1008E300900004120DCAE4F526AB2EE5302405F979
:1008F300E4352FFA7E00E92526F9EE3AFA120E1AAC
:090903000526E526C3940840E036
:0D090C00120E3475321300D532FCD531F6D1
:10091900C285D2AC020A4C1223F3E4A3F07F02028F
:100929000A49122F2178111205E2900560747CF0B2
:100939007811E6A3F008E6A3F008E6A3F008E6A319
:10094900F07C007D057B017A05796012294B9005C1
:1009590065EFF07F06020A49900521E0FFB4010F17
:10096900A3E0FDA3E0785ECDF608EDF6020A25EFD7
:10097900B4020A900522E0785EF6020A2590052164
:10098900E0B4030CA3E0FFA3E07860CFF608EFF62C
:10099900020A25E4F526900521E0FFE526C39F50CC
:1009A9001B74222526F582E43405F583E0FF74647F
:1009B9002526F8EFF60526E526B410DAE47873F66D
:1009C900805A120E67900521E0FDE4FF122E1002F5
:1009D9000A4C900521E024FF9202020A4C9005215D
:1009E900E024FF9201805C785CE66005752802804E
:1009F9000B200D0575280380037528019005607487
:100A090079F0A3E528120E43900562EFF07F0312F7
:100A19002E77E5286401702BD20E8002D2087880E7
:100A290076F1801F7F00120E929005607479F09024
:100A39000521E0900561120E43900562EFF07F03F6
:100A4900122E77E52564A06003020BE6900520E0ED
:100A590064A16003020B14A3E0C378549640030217
:100A69000B0C1223ECE0FF122383F528EF1223C3AA
:100A790012242A30E22D900521E0122F358F28907B
:100A89000560747FF0A3E528F02402120E757462E4
:100A99002528F582E43405F583EFF0E5282403FFE2
:100AA900020BE3900521E0FF122F35C2ACE4F524D7
:100AB900D285E528D3940640221224307F7F120E76
:100AC90052AF28122CF5E4F526E526C395285007E0
:100AD900120D7E052680F205288018E52824781253
:100AE9000E5CE4F526E526C395285007120D7E0510
:030AF9002680F262
:0D0AFC00120E8375321300D532FCD531F691
:100B0900020BD81223F37F01020BE3900520E06466
:100B1900A26003020BE67854E6FFA3E0FEC39F4000
:100B290003020BDEA3E0FDC39F4003020BDEEE9D33
:100B39004003020BDE900521E0F526E4F52CF52DA6
:100B49001224375015AF26122F3512237B252DF588
:100B59002DE4352CF52C052680E6C2ACE4F524D22B
:100B690085FB7A0079247F7F122CF5C3E52D9480CB
:100B7900E52C940050028007E52C4480120E5CAFEE
:100B89002D122430122CF5900521E0F52612243778
:100B99005030E4F52712237BFFE527C39F501FE55B
:100BA900261223C31223FA2527F582E435F0F583AB
:100BB900120409FF122430122CF5052780D70526C7
:020BC90080CBDF
:0D0BCB00120E8375321300D532FCD531F6C1
:100BD800C285D2AC80081223F37F01122E77E52557
:100BE80064587043FA7B327D01785CE6FF122C581A
:100BF8007536017537057538617B017A05792112DB
:100C08002F2C8F28E5282478900560F0EF24011216
:100C18000E7574612528F582E43405F583EFF0E557
:100C2800282402FF122E77E52564806009E52564F3
:100C3800886003020D7D7858E6B40105120E6780BE
:100C480014E4F526E526C37874965009AF26120EEB
:100C580092052680EF900520E05407F528B4070A8E
:100C6800752701A3E0F528A38006E4F52790052160
:100C7800E0F5291528E529C37854964003020D5E4E
:100C8800E52912237DFFE528D39F40028F28785855
:100C9800E6B40109785CE6F52BF52A8009E4F52A23
:100CA8007874E614F52B785CA62A785CE6D3952B45
:100CB8004003020D52E4F526E526C39528400302B9
:100CC8000D471223DC12242920E26F900001120440
:100CD8000964387035E528D394044011E5272526A2
:100CE8002422F582E43405F583E0FD803B7856E65E
:100CF800C39526FFE49400FE741E2FF58274053E0A
:100D0800F583E0FD1223DCFA801E1223EC75F01047
:100D1800E529122386FFC37856E69F252625271244
:100D280023D1FDE5291223C31223FAFFE5262FF567
:100D380082E435F0F583ED1204480526020CC0AFB5
:100D48002912265F785C06020CB2785CA62AE52593
:100D5800648870218010E529B4FF1A900522E0F517
:100D680020E525B4880F1223F31223CE900561F0F5
:050D78007F02122E773E
:100D7D0022900521E075F010A4AB0D250FF9E50EBD
:100D8D0035F0FA90000D120672785CE6FF18E68FCA
:100D9D00F0A42526F582E435F0F583120409FF7BD6
:100DAD00007A007924122CF522AB2EAA2FA930122D
:100DBD000409FF7B007A007924122CF522AB2EAAB0
:100DCD002FA930120409FF7B007A007924122CF52B
:100DDD0022E6FF7B007A007924122CF522E6FF7BB8
:100DED00007A007924122CF522C2ACE4F524D285C8
:100DFD00FB7A0079247F7F122CF57B007A00792411
:100E0D0022E6FF7B007A007924122CF5221203F0E2
:100E1D00FF7B007A007924122CF522E6FF7B007A05
:100E2D00007924122CF5227B007A007900AF241270
:100E3D002CF575310A22F07C007D027B017A057953
:100E4D006012294B22122CF57B007A00792422FFA7
:100E5D007B007A007924122CF5227A007B327D01F9
:100E6D00785CE6FF122C5822FDE433FC7B017A05F9
:100E7D00796012294B227B007A007900AF24122C65
:0F0E8D00F575310A227A007B327D01122C582232
:10F000007880E664F1600302F60CE4F53EF53F78A3
:04F0100081E6601F16
:0DF0140075440A75451300D545FCD544F63A
:10F02100053FE53F7002053E64107004E53E64272C
:10F0310070DCC2AF7584015398FC75FFDE75FFADBE
:10F04100E4F53AF539E4F58420982EE4F53EF53FF0
:0EF05100209822C3E53F9488E53E94135017A3
:0DF05F0075440A75451300D545FCD544F6EF
:10F06C00053FE53F70DF053E80DBB2F880CF859928
:10F07C0039C298E539641A600302F14CF53EF53F4C
:0EF08C00209822C3E53F9488E53E9413501768
:0DF09A0075440A75451300D545FCD544F6B4
:10F0A700053FE53F70DF053E80DB30989285993A52
:10F0B700C298E4F53EF53F209822C3E53F9488E5E2
:05F0C7003E94135017F8
:0DF0CC0075440A75451300D545FCD544F682
:10F0D900053FE53F70DF053E80DB20980302F046DF
:10F0E90085993AC298E4F53EF53F209822C3E53F59
:08F0F9009488E53E94135017C2
:0DF1010075440A75451300D545FCD544F64C
:10F10E00053FE53F70DF053E80DB20980302F046A9
:09F11E0085993AC298D285C29984
:0DF1270075441475451300D545FCD544F61C
:06F134007599783099FD89
:0DF13A0075440A75451300D545FCD544F613
:10F14700C28502F5FEE5396450600302F1DCF53E45
:10F15700F53F209822C3E53F9488E53E9413501766
:0DF1670075440A75451300D545FCD544F6E6
:10F17400053FE53F70DF053E80DB20980302F04643
:09F1840085993AC298D285C2991E
:0DF18D0075441475451300D545FCD544F6B6
:08F19A007599793099FDC299C5
:0DF1A20075441475451300D545FCD544F6A1
:08F1AF007599013099FDC29928
:0DF1B70075441475451300D545FCD544F68C
:06F1C400E4F5993099FD0D
:0DF1CA0075440A75451300D545FCD544F683
:0FF1D700C28502F5FEE5396401703ED285C2990A
:0DF1E60075441475451300D545FCD544F65D
:08F1F3007599783099FDC2996D
:0DF1FB0075441475451300D545FCD544F648
:06F20800E4F5993099FDC8
:0DF20E0075440A75451300D545FCD544F63E
:10F21B00C28502F5FEE5396402600302F2E2F53EB7
:10F22B00F53F209822C3E53F9488E53E9413501791
:0DF23B0075440A75451300D545FCD544F611
:10F24800053FE53F70DF053E80DB20980302F0466E
:10F2580085993AC298E4F53BE53A13B392F8E53A52
:10F2680025E0FEC3E49400EE94F0502AE53A7F00CE
:10F2780025E0FEC394E0501EE53A20E01FE4F58443
:10F2880043B701758F038E408F418F828E83F05371
:10F29800B7F0F58F8003753BFFE4F584D285C299FA
:0DF2A80075441475451300D545FCD544F69A
:08F2B5007599783099FDC299AA
:0DF2BD0075441475451300D545FCD544F685
:06F2CA00853B993099FD1F
:0DF2D00075440A75451300D545FCD544F67C
:10F2DD00C28502F5FEE5396403600302F42DF53EA7
:10F2ED00F53F209822C3E53F9488E53E94135017CF
:0DF2FD0075440A75451300D545FCD544F64F
:10F30A00053FE53F70DF053E80DB20980302F046AB
:10F31A0085993AC298E4F53EF53F209822C3E53F25
:08F32A009488E53E941350178E
:0DF3320075440A75451300D545FCD544F619
:10F33F00053FE53F70DF053E80DB20980302F04676
:10F34F0085993CC298E53A1392F8E53A25E0FEC359
:10F35F00E49400EE94F0400302F046E53A7D002578
:10F36F00E0FCC394E0400302F046E4F58443B701A8
:10F37F00758F01E53C75F020A42DFFE5F03CF540BD
:10F38F008F41E4F584F53DE53DC394205048E4F505
:10F39F003EF53F209822C3E53F9488E53E941350F5
:01F3AF001746
:0DF3B00075440A75451300D545FCD544F69B
:10F3BD00053FE53F70DF053E80DB20980302F046F8
:10F3CD000541E541AE407002054014F5828E83E59E
:10F3DD0099F0C298053D80B1E4F58453B7F0F58FEF
:06F3ED00F584D285C299EF
:0DF3F30075441475451300D545FCD544F64E
:08F400007599783099FDC2995D
:0DF4080075441475451300D545FCD544F638
:06F41500E4F5993099FDB9
:0DF41B0075440A75451300D545FCD544F62F
:10F42800C28502F5FEE5396404600302F4DDF53EA9
:10F43800F53F209822C3E53F9488E53E9413501782
:0DF4480075440A75451300D545FCD544F602
:10F45500053FE53F70DF053E80DB20980302F0465F
:10F4650085993AC298E53A25E0F542754300E4F5F9
:10F475003BF53EF53F0543E543AE427002054214B8
:10F48500F5828E83E493253BF53B053FE53F70020E
:0EF49500053E7004E53E640270DBD285C2992C
:0DF4A30075441475451300D545FCD544F69D
:08F4B0007599783099FDC299AD
:0DF4B80075441475451300D545FCD544F688
:06F4C500853B993099FD22
:0DF4CB0075440A75451300D545FCD544F67F
:10F4D800C28502F5FEE5396405600302F5F3F53EE1
:10F4E800F53F209822C3E53F9488E53E94135017D2
:0DF4F80075440A75451300D545FCD544F652
:10F50500053FE53F70DF053E80DB20980302F046AE
:10F5150085993AC298E4F53EF53F209822C3E53F28
:08F525009488E53E9413501791
:0DF52D0075440A75451300D545FCD544F61C
:10F53A00053FE53F70DF053E80DB20980302F04679
:09F54A0085993CC298D285C29952
:0DF5530075441475451300D545FCD544F6EC
:08F5600075997F3099FDC299F5
:0DF5680075441475451300D545FCD544F6D7
:10F575007599203099FDE53A25E0FCE53C75F020CC
:10F58500A42400FFE5F03CF5428F43E4F53BF53D4F
:02F59500C29919
:0DF5970075441475451300D545FCD544F6A8
:10F5A400854382854283E493F5993099FD0543E5CB
:10F5B40043AE427002054214F5828E83E493253BE8
:0BF5C400F53B053DE53DB420C8C299B1
:0DF5CF0075441475451300D545FCD544F670
:06F5DC00853B993099FD0A
:0DF5E20075440A75451300D545FCD544F667
:10F5EF00C285800BE539B40606E4F58475EF10E5A6
:0DF5FF00396407600302F0467880F6D2AF51
:01F60C0022DB
:102AA5007F00122E9420090B7A007B327D017F0076
:102AB500122C58300C0B7A007B1E7D017F00122CE6
:102AC50058300817300D147A007B327D01785CE6AA
:102AD500FF122C58C2081227A1D209200B0C300D69
:102AE50009788076F11227A1D20B300E08300D053A
:102AF500C20E12F000200D12122F16E47B2C7A0163
:0B2B0500F9F8C31205535002D20D2254
:0B2F0B00120E9C122AA5122DB880F8AF
:101F8A00005EBCE2613FDD83C29C7E20A3FD1F414F
:101F9A009DC3217FFCA2401E5F01E3BD3E6082DC3F
:101FAA00237D9FC1421CFEA0E1BF5D0380DE3C622F
:101FBA00BEE0025CDF81633D7C22C09E1D43A1FF1F
:101FCA004618FAA427799BC584DA3866E5BB59070F
:101FDA00DB856739BAE406581947A5FB7826C49AFF
:101FEA00653BD987045AB8E6A7F91B45C6987A24EF
:101FFA00F8A6441A99C7257B3A6486D85B05E7B9DF
:10200A008CD2306EEDB3510F4E10F2AC2F7193CDCE
:10201A00114FADF3702ECC92D38D6F31B2EC0E50BE
:10202A00AFF1134DCE90722C6D33D18F0C52B0EEAE
:10203A00326C8ED0530DEFB1F0AE4C1291CF2D739E
:10204A00CA947628ABF517490856B4EA6937D58B8E
:10205A005709EBB536688AD495CB2977F4AA48167E
:10206A00E9B7550B88D6346A2B7597C94A14F6A86E
:10207A00742AC896154BA9F7B6E80A54D7896B355E
:0A208A00000000002B6096CBDDEE95
:032ED600011D0AD1
:10244100A810E6FF25E025E024A4F582E43405F593
:102451008322E53EAB0DAA0EA90F75F010A4F582FB
:1024610085F083020409EF25E025E024A2F582E44A
:102471003405F58322A8100808E624FF22EF25E0A1
:1024810025E024A1F582E43405F583221510A81076
:10249100EDF61510A810EFF62225E025E024A3F5AE
:1024A10082E43405F58322EF2401FFE43EFEE43D9E
:1024B100FDE43CFC1205EE9005A02275F010A42964
:1024C100F9EA35F0FA90000D120672785BE622788F
:1024D1001DE675F064A4FFC3781FE69F18E695F02A
:1024E10022A810E6FFC39410221204B22400FFE5D3
:0B24F100F034E02215101510A8102296
:10294B001224F5ECF608EDF615101224F5120669B3
:06295B00E51024FCF5105C
:10296100F80808E4F6A810F608F6E5102407F9A817
:1029710010E6FE08E6FFC3099719E76480F8EE64E4
:1029810080985031E5102404F81206508F828E830E
:10299100120409A810080866FFE5102403F8EFF6F1
:1029A100E6901F8A93A8100808F6A8100806E618F2
:0B29B10070B80680B5A8100808E6FF0B
:0729BC00E5102409F51022CB
:0B2EFF00ED6F7815F6E6901F8A93FF38
:012F0A0022A4
:102E1000EF7023F5847598D0F584759115F5847558
:102E2000C90875CBFFED90208993F5CA75C804E4F5
:082E3000F584D2ACC2BCD2AFA4
:012E38002277
:102D3C009005E1120613000000009005E512061341
:102D4C00000000009005A07464F0E47816F6781684
:102D5C00E6FFC39410501912247EE4F0122467E4A9
:102D6C00F0EF12249AE4F0EF122445E4F00680DE32
:012D7C002234
:102E3900D2AFD2A9C2BBE4F584E589540F4401F5A8
:0F2E490089758E02758CAFE4F58AD28C022D3C10
:0229C3001510ED
:1029C500A810E4F61224E25065EF122445E0FFD387
:1029D5009400403AE6122468E07033EF30E00D12BF
:1029E5002443E0D3940140047D0180067D00A810B6
:1029F500E6FF12219D122441E014F0EF122445E078
:102A0500600CE6FF12249AE0FE122467EEF0A8108F
:102A1500E6FF122468E06006122467E014F0122431
:0E2A250041E07004FD12219DA810060229C98F
:032A330005102269
:03000B00022A3690
:102A3600C0E0C0F0C083C082C0D0E8C0E0E9C0E01A
:102A4600EAC0E0EBC0E0ECC0E0EDC0E0EEC0E0EFD5
:102A5600C0E0758CAF9005E11205BD9005E112242A
:102A6600A8E014F0E0700F9005E51205BD9005E5AD
:102A76001224A87464F01229C3122EAFD0E0FFD03E
:102A8600E0FED0E0FDD0E0FCD0E0FBD0E0FAD0E004
:0F2A9600F9D0E0F8D0D0D082D083D0F0D0E032A9
:10000E0012248D1224E2500808E6FE12247EEEF031
:05001E00051005102291
:102C58001224F5EAF608EBF612248D1224E2503815
:102C6800EF122445E07031E6FB122468E070290871
:102C7800E625E004FFA810E6FA122445EFF008085C
:102C8800E6FE08E6FF7C007D0A12047CEA12249A1C
:0F2C9800EFF0EB122468E4F0E5102404F51022AD
:05219D0012248D151055
:1021A200A81008E6FFC39410501912247EE06013B1
:1021B200A8100808E670047F0180027F00A81008BA
:1021C20008EFF6A810A68475840FA81008E670051B
:1021D20012247692F8A81008E6FFB40105122476BC
:1021E20092F9EFB4020512247692FAA81008E6B426
:1021F200030512247692FBA81008E6FFB404051228
:10220200247692FCEFB4050512247692FDA81008FC
:10221200E6B4060512247692FEA81008E6FFB4077B
:102222000512247692FFEFB4080512247692B0A824
:102232001008E6B4090512247692B1A81008E6FF48
:10224200B40A0512247692B2EFB40B0512247692E8
:10225200B3A81008E6B40C0512247692B4A81008AC
:10226200E6FFB40D0512247692B5EFB40E051224E2
:102272007692B6A81008E6B40F0512247692B7A893
:0422820010E6F584E9
:0722860005100510051022F0
:0A2F1600C2AF9005E11205BDD2AF75
:012F2000228E
:0A2F2100C2AF9005E51205BDD2AF66
:012F2B002283
:102E9400122493A810E67005781EF608F6300F0881
:0B2EA4001224D0500375FFA50510227A
:102E5800D20FE4781EF608F6EF781D6003F68002BC
:0F2E6800760A75FF0775FFA5E4F58475EF042260
:102EC300C20FE4781EF608F6781D76FF75FFDE75EF
:032ED300FFAD222E
:102EAF00781F06E618700106300F081224D0500361
:042EBF0075FFA522D4
:042DE5008E088F09BC
:102DE900E4F50AF50BC3E50B9509E50A95085016B4
:102DF9007FE87E03122B107F01122E94050BE50B41
:062E090070E3050A80DF02
:012E0F0022A0
:042B10008E4C8F4D0B
:102B1400D3E54D94FAE54C9400500EEFD394004065
:102B2400407E1600DEFD1F80F2854C4E854D4FD34E
:102B3400E54F94FAE54E940040157FFA7E00122B7F
:102B4400107406254FF54F74FF354EF54E80E0D3D3
:102B5400E54D9400E54C94004007AF4FAE4E122B68
:012B64001060
:012B6500224D
:082C08008B458A4689478D487F
:102C10007F01122E94AB49AA4AA94B1224EAFE85E1
:102C2000454C85464D85474EE4FDEDC39548501B08
:102C3000EF2DF582E43EF583E493AB4CAA4DA94E0B
:102C40008D827583001204480D80DFAB49AA4AA922
:082C50004BE48548F00204DDAD
:0828C5008B3F8A4089418D42DE
:1028CD007880E664F17076122EC3C2AFE4F58443CE
:1028DD00B701758F01AB43AA44A9451224EA7816B6
:1028ED00F608EFF6AB3FAA40A941781A120669E443
:1028FD007818F67818E6C395425029781AE475F0E1
:10290D00011206591203F07819F6E6FF781608063B
:10291D00E618CCE6CC70010614F5828C83EFF078C6
:10292D00180680CFE4F58F53B7F0AB43AA44A94501
:0D293D008542F01204DDD2AFE4FF122E58E7
:01294A00226A
:102CA7007880E664F17046C2AF122EC3E4F5844320
:102CB700B701758F03781776E008F67816F6781758
:102CC700E6FE08E6F5828E83E4F07F01122E947803
:102CD70018E426F618740236F61806E6C394084078
:0D2CE700DDE4F58F53B7F0D2AFFF122E5889
:012CF40022BD
:1027A100122CA7E4F53DF53EF54375440075453D12
:1027B100FB7A00795E7D161228C512281DF53AE5CF
:1027C1003AC3787496504EE4F539E53912245560D0
:1027D10040E5391224BC853AF0A429F9EA35F0FA2A
:1027E100EBC0E0EAC0E0E9C0E0AB0DAA0EA90F75AD
:1027F100F010E53912245EFD7543007544007545FE
:102801003DD0E0F9D0E0FAD0E0FB1228C5053980CF
:0B281100B9053A80AA12281D7880F655
:10281C0022753B12753C3475430075440075453D7B
:0D282C007B007A00793B7D021228C5E42272
:0224FC008F3D12
:1024FE00E4F543F544F540F549754A00754B43FB49
:10250E007A00795E7D16122C081225967004E5412C
:10251E0064127003434001E4F53FE53FC3787496BF
:10252E005055E4F53E1224536048E53D6033E53ED8
:10253E001224BC853FF0A429F9EA35F0FAEBC0E08D
:10254E00EAC0E0E9C0E0122453FD754900754A0067
:10255E00754B43D0E0F9D0E0FAD0E0FB122C0880A6
:10256E000C1224532544F544E43543F543053E024D
:10257E002533053F0225281225967004E541641285
:07258E007003434002AF405F
:1025950022754900754A00754B437B007A007941E5
:0A25A5007D02122C08E54264342286
:101A5B004856522D31363030000134000000436FB0
:101A6B006E74726F6C000100400418000001556425
:101A7B00656D616E64000100410418000001556D35
:101A8B006561730000000100450406FA0001496D11
:101A9B0065617300000001004901340000005374BC
:101AAB0061747573000001004D015C0000005472FD
:101ABB006970436E740001004E04180000015261FE
:101ACB006D705570000001004F0418000001526149
:101ADB006D70446F776E0100530418000001556C54
:101AEB00696D697400000100570406FA0001496C26
:101AFB00696D6974000001005B0406FA000152492C
:101B0B006C696D69740001005F015C000000547228
:101B1B0069704D617800010063010300000054728D
:101B2B00697054696D65010064045D0000094144EE
:101B3B00436761696E0001006504180000094144A8
:101B4B00436F66730000010069045D0000094441A6
:101B5B00436761696E0001006D0418000009444180
:101B6B00436F66730000010071045D00000943556B
:101B7B0052766761696E010075045D00000943557B
:101B8B00526761696E000100790406FA000943553A
:101B9B00526F6673000001007D0418000009554464
:101BAB004143000000000100810000000000000024
:091BBB0000000000000000000021
:0B2ED900017410030DFF1A64010C00CF
:1011450075F045E53B9000411206441205BDE53BAF
:1011550025E025E024E0F582E43404F5831205EE6C
:10116500E53B25E025E024E0F582E43404F583122F
:1011750005BDE53B90008175F045020644F075F02C
:1011850045E53B90004D120644E054FBF0E53B7508
:10119500F04590004D02064475F045E53A90004152
:1011A5001206441205BD78BFE4FBFAF912002D9032
:1011B5000081E53A75F045020644E53B25E025E06A
:1011C50024E0F582E43404F5831205BDE53B900087
:1011D5004175F045020644E53D75F04590005B021A
:1011E500064475F045E53A9000451206441205D6C9
:1011F500900041E53A75F045020644E054BFF074AD
:1012050090253BF582E43404F58322C3740F953BA6
:1012150025E025E024EDF582E43405F5831205BDCE
:101225007801120564C8ECC8C9EDC9CAEECACBEF8E
:10123500CB7E00E53D5401FFE4FCFD120522C3749D
:101245000F953B25E025E024EDF582E43405F58393
:101255002275F045E53B90005F1206441205BDE599
:101265003B90004975F0450206441205BDE53B2556
:10127500E025E024E0F582E43404F58322E53D75BC
:10128500F04590005702064490004F75F045020660
:101295004490005375F04502064475F045900040B2
:1012A50002064475F04590004E020644E53A25E0F5
:1012B50025E024A0F582E43404F5832275F04590F9
:1012C5000064020644CBEFCBE53B25E025E0240096
:1012D500F582E43400F5832275F045E53B120644BA
:1012E5001205D612011E79C87842E4FBFA020227DC
:1012F5001205BDE4FBFA221205D60202C4E510244C
:1013050003F81205C90202C41205BD7B007A3C79B7
:101315001C78460202C45420FCE4FBFAF9F8C30227
:10132500055375F045E53D020644E4FBFA12022734
:10133500E4FBFA7920784022AB3AAA3BA93C0203A8
:10134500F0A8100808F6A810E4F6A81008227B00FB
:1013550012011EE4FBFAF9783F221205EEE53CC3C3
:1013650013F53CE53D13F53D053BE53B221205BD77
:10137500E51024FCF510F822E54654C0FFE545FECE
:10138500E544FDE543541FFC2275F045E53D0206A5
:1013950044C2CD08C9E8C9A8100808E65794002238
:1013A500C8ECC8C9EDC9CAEECACBEFCB221510A847
:1013B50010EFF615101510228F4A8E498D4822AB75
:1013C50040AA41A942229005E90205EE9005E912DD
:0513D50005D602011E17
:1015C70075840F75A4FD75A5FF75A6FF75A7FF7533
:1015D7009CFEE4F59DF59E759FFFD2B4EF70030264
:1015E700166B7E047F507D007B017A0079401206DE
:1015F700C8E4F53D12128212061342480000121188
:10160700DC1206134348000090005F1213271206EE
:101617001343480000E53D12128D120613412000C6
:1016270000E53D12129612061341200000E53D1217
:1016370012C1740AF09000651213271206133F8037
:10164700000090006D12138E1206133F8000009069
:10165700007912138E1206133F800000053DE53D09
:1016670064107090E4F53DE53D12129F7402F0E5B9
:101677003D121194E4F0E53D1211D3120613000058
:101687000000E53D1212A8E4F01212821212F57959
:101697004878421202C4500A1212821206134248B4
:1016A70000001211DC1212F5794878431202C45077
:1016B700121211DC12130D600A1211DC1206134309
:1016C700480000E53D1212741206130000000012D4
:1016D7002F16E53D1212CF1205EE053DE53DC394E9
:1016E7001040847860B6FF0A08B6FF06187603082C
:1016F7007620E4F53D75F045E53D90004D20B409B1
:10170700120644E04401F08007120644E054FEF05C
:10171700053DE53DB410DE75840FD2CED2A17F0121
:101727007E00122B10C2A07F017E00122B10C2A1D7
:1017370075D8FF75E8FFE4F53D7490253D12120852
:101747007409F0053DE53DB410EFE4F53D7D01AFCB
:101757003D12000E053DE53DC3941040F0E4F53D14
:10176700E53D1212B312061300000000053DE53DEA
:03177700B410EDBE
:01177A00224C
:10265F001510A810EFF6A810E6FF600864016004DB
:10266F00EFB404171226FB121197E054DFF012009B
:10267F000374902F121208E04401F0A810E66408CA
:10268F00702D120003EF1212841212F5794878425E
:10269F001202C4500D1226FB121287120613424863
:1026AF00000012000374902F121208E04401F0A8EA
:1026BF0010E664097033120003EF1211DE1212F5E7
:1026CF00794878431202C4502012000375F045EF89
:1026DF001211E112130D601112000375F045EF1284
:1026EF0011E1120613434800000510221200037572
:0426FF00F045EF2291
:052F35008F337F002234
:092F2C008B338A3489357F0022C1
:101D220015101510A810ECF608EDF61213B21510E6
:101D320075840FE5102403F8E6C394005004C2CB67
:101D42008002C2CC121E5112134B7608A810E6C3B1
:101D520094045023C2CD08E6540394004003D38078
:101D620001C3121E20A81008E8C0E0E6C313FFD08A
:101D7200E0121E460680D512134B7608A810E6C361
:101D82009404502BC2CD08C9E8C9E5102403F8E633
:101D920057D394004003D38001C3121E20A8100819
:101DA200E8C0E0E6C313FFD0E0121E460680CDE590
:101DB200102404F9E71213467680A810E6C39408AB
:101DC200501D1213964003D38001C3121E33A81074
:101DD20008E8C0E0E6C313FFD0E0121E5E80DBE538
:101DE200102404F808E61213467680A810E6C3947D
:101DF20008501D1213964003D38001C3121E33A84C
:101E02001008E8C0E0E6C313FFD0E0121E5E80DBDC
:071E1200D2CBD2CC121E510D
:101E1900E5102406F5102292CA7F017E00122B10CC
:101E2900D2CD7F017E00122B102292CA7F017E0043
:101E3900122B10D2CD7F017E00122B1022F8EFF663
:101E49007F01122E94A810227F017E00122B107F91
:101E590001122E9422F8EFF67F01122E94A8100693
:011E69002256
:0618EF008B3D8A3E893F9B
:1018F50075840F121A49C2C9121A53A2C8E433F5E6
:1019050046754500754400754300E4FFFEFDFCABDC
:1019150046AA45A944A843D31205534008D2C91283
:101925001A537F0022AB3DAA3EA93FE50C120436AF
:10193500E50C04540FF50CE4F54AF549F5487547EF
:10194500B0E50C30E012E54AFFE549FEE548FDE566
:101955004744081213BDF547E50CC313FFE4FCFD2E
:10196500FE7818120564E54A4FFFE5494EFEE54845
:101975004DFDE5474C1213BDF547E4F546F545F534
:1019850044F543F54BAF46AE45AD44AC4378011243
:1019950005648F468E458D448C43A2C8E433454685
:1019A500FFE545FEE544FDE5438F468E458D44F54F
:1019B50043E4FFFEFDE547548012131D50028001EC
:1019C500C392CAAF4AAE49AD48AC47780112056427
:1019D5001213BD8C47D2CD7F017E00122B10121A37
:1019E50049054BE54BC39420409BD2C9C2CDE4FFCA
:1019F500FEFDE54312131B700912137DEC44E0FC58
:101A0500800412137DE4120331E4FBFAF9784E12D7
:101A1500133212011E1213C41205971213C41205B4
:101A2500777A247974784912135312002D1225AF51
:101A35007B007A24797478491202271213C412059F
:031A4500977F0187
:101A480022C2CD7F017E00122B10227F017E001260
:031A58002B10222E
:031E6A001213B29E
:101E6D00A8100808E690005712117C1212F579A0FF
:101E7D00784012002D121302A81060244022080889
:101E8D00E6FB9000571211B91205BDE5102403F8B9
:101E9D001205E275F045EB121197E04410F0800A3F
:101EAD000808E6121194E054EFF0E4FFFEFD7C3FCC
:101EBD00121302600D400B7D00A8100808E6FF12FA
:101ECD00000EA8100808E690006D1211D61205BD7F
:101EDD00E5102403F81205C912011EA8100808E622
:101EED009000711211FA1205D612002DE51024037F
:101EFD00F81205E2E4FFFEFDFC121302500CE51092
:101F0D002403F81205FA00000000E5102403F8E898
:101F1D00C0E01205B179A878411212EFD0E0F812A5
:101F2D0005E2E4FFFE7D207C40121302600E400CA2
:101F3D00E5102403F81205FA40200000121335E8CD
:101F4D00C0E0E5102403F81205B1D0E0F812022725
:101F5D007AFF797F784712135312002D12036FA861
:101F6D0010EEF608EFF6A810E6FC08E6FDA810083E
:061F7D0008E6FF121D2220
:071F8300E5102407F5102210
:062703008B3A8A3B893C81
:102709007540017541057542E91218EFEF7002FF36
:10271900229005E91212F5792E784212011E121340
:10272900CB12133D9000651212691205BD1213D127
:1027390012133D9000691212901205D612002D1243
:1027490013CBE4FFFE7D7A7C441213D11225AFE44A
:10275900FBFA797A78441202271213CBE4FFFEFDC3
:102769007C3F9005E91212FC60054003D38001C348
:1027790040047D0180027D0012133DFF12000EC24C
:10278900AF9005E91205BD12133D9000451212994B
:072799001205EED2AF7F0133
:0127A0002216
:101BC400E4F53A75F045E53A1211E11205BDE53A3E
:101BD4001212661212FC60025003021C7A75F04560
:101BE400E53A1211E112130D7003021C7A1212B1BC
:101BF4001212F51213217009122F161212B11205C6
:101C0400EE1213751205FA00000000AF3A121E6AB4
:101C1400E53A12127412061300000000E53A12119C
:101C240079120613000000007490253A121208E09D
:101C340054FEF07490253A121208E054FDF07490AA
:101C4400253A121208E054FBF075F045E53A1211FA
:101C540097E054F3F075F045E53A121197E0FF2050
:101C6400E51475F045E53A121197EF4420F0E53A92
:101C74001212A8E004F075F045E53A121197E0302D
:101C8400E57875F045E53A900063120644E0FF7587
:101C9400F045E53A1212ABE0C39F505E122F16ECEA
:101CA400C0E0EDC0E0EEC0E0EFC0E0E53A1212C1E2
:101CB400E075F064A4FFAEF0E4FCFD1212B112056D
:101CC400D61205151213A5D0E0FFD0E0FED0E0FD3A
:101CD400D0E0FCD3120553502175F045E53A1211BA
:101CE40097E054DFF01212B11206130000000074E2
:101CF40090253A121208E04401F075F045E53A12D5
:101D04001197E030E50B7A007B647D03AF3A122C27
:0D1D140058053AE53AC394105003021BC76E
:011D2100229F
:10228D0075840FC2A1122373AFD8EFADE8F53CED05
:10229D00F53DD39400E53C94004009D2A17F017E29
:1022AD0000022B10E4F53AE53A121248120613001B
:1022BD00000000053AE53AB410EDE4F53AAFD875F3
:1022CD003C008F3DE4F53B12121012135FB408F77A
:1022DD00AFE8753C008F3D753B0812121012135F6D
:1022ED00B410F7D2A0122373C2A07F017E00122B6F
:1022FD0010053AE53AC3942040C3D2A1C2A0E4F53B
:10230D003AE53A1212481205BDE4FFFEFDEC121338
:10231D001B7012E53A1212481205BDEC541FFCEC6D
:10232D0044E0FC800DE53A1212481205BDEC541F35
:10233D00FCE41203317980784D12132F12011E9097
:10234D0005E91205EEC2AF9005E91205BD75F04520
:10235D00E53A9000491206441205EED2AF053AE572
:05236D003A6410709CB1
:09237200227F017E00122B1022D3
:1013DA00E4F53BE53B12129FE020E0030215901270
:1013EA001192E030E503021590121204E030E07425
:1013FA001211BF1212FC6030402EE53B12128D1200
:10140A0012F5F9F81202C4501F121204E044021233
:10141A00120312118EE04404121191E054F71211D2
:10142A0091121200E054FEF01211BF1212FC502B5E
:10143A00E53B1212961212F5F9F81202C4501C1268
:10144A001204E054FD121203E04404121182E04433
:10145A0008121191121200E054FEF0122F16121205
:10146A00CD1205EE121204E020E103021515122F27
:10147A00161212CA1205BDC3EB9FF53A1212561282
:10148A0012FC75F045600D400BE53B121197E044E4
:10149A0040F08009E53B121197E054BFF0E53A604D
:1014AA006A1212561212FC5062121272C083C08261
:1014BA001205D6E8C0E0E9C0E0EAC0E0EBC0E0AC63
:1014CA003AE412033B90004F1212DDD0E0FBD0E069
:1014DA00FAD0E0F9D0E0F812002DD082D0831211B0
:1014EA00621205EE1211D112126F1212FC4013127F
:1014FA0011451205EE121204E054FD121182E05455
:10150A00BFF01212721215A21205EE121204E03086
:10151A00E274122F161212CA1205BDC3EB9FF53AD6
:10152A006064121272C083C0821205BDECC0E0ED85
:10153A00C0E0EEC0E0EFC0E0AC3AE412033B90003A
:10154A00531212DD1213A5D0E0FFD0E0FED0E0FD69
:10155A00D0E0FC120029D082D0831211621205EE6B
:10156A001211D112126F1212FC60025010121145A0
:10157A001205EE12120412118EE054F7F0121272D2
:10158A001215A21205EE7F00122E94053BE53BC30D
:07159A00941050030213DD61
:1015A100221205BDE51024FCF510F81205E2AF3B4F
:1015B100121E6A122F16E53B25E025E02400F58274
:0615C100E43400F5832272
:10177B008F3A75F045EF1212A2E0FF20E00302183A
:10178B00A17490253A121208E0540660030218A1C6
:10179B0075F045E53A121197E030E5030218A1EF19
:1017AB0020E1030218699000411211B71205BDE543
:1017BB003A1212741205EE1211E71205BD1200292E
:1017CB00122EF279A8784112132F120227E4FBFA9A
:1017DB00798078471213551202C440030218A112E4
:1017EB0011B4C083C0821205D6E8C0E0E9C0E0EABC
:1017FB00C0E0EBC0E01211E71205BD120029D0E0EA
:10180B00FBD0E0FAD0E0F9D0E0F812002DD082D076
:10181B00831205EE12119D1212FC500612119D122D
:10182B0005EE1211F51205BD783F1211AD1212FC27
:10183B006011400F1211F51212F5F9783F1211B128
:10184B001205EE7490253A121208E054FEF01211B4
:10185B00B41213721205E2AF3A121E6A80387490FA
:10186B00253A121208E030E02D1211F51205BDE5F4
:10187B003A1212741205EE1211F51205BD1211B4C3
:10188B001205EE1211F51213721205E21218E5127F
:10189B001208E054FEF09000401211F8E020E03501
:1018AB007490253A121208E030E02A1211B4120695
:1018BB001300000000E53A12127412061300000028
:1018CB00001213751205FA000000001218E512122F
:1018DB0008E054FEF07F01022E94AF3A121E6A7498
:0418EB0090253A22E8
:102DB8007F00122E9412228D122F16E47B2C7A019A
:102DC8001213215017121BC41213DA7B007A0079F0
:0C2DD80039122703EF6005AF3912177B9A
:012DE40022CC
:100026000203DBE86480F8E933E83360110460F02A
:10003600ED33EC337009E8FCE9FDEAFEEBFF220440
:1000460060DED3EB9FEA9EE99DE8C2E78CF0C2F73B
:1000560095F0400CE8CCF8E9CDF9EACEFAEBCFFB07
:100066001203A685D0F05804700320D5B3E80470B7
:10007600075002B2D50203E592D5EC0460F7E4CC52
:10008600C0E0C398F8603B94186008400DD0E0FBD0
:100096000203BDE4FBFAC9FC8028E830E406E4C9A3
:1000A600FBE4CAFCE830E305E4C9CACBFCE8540724
:1000B6006010F8C3E913F9EA13FAEB13FBEC13FC2F
:1000C600D8F130F52FC3E49CFCEF9BFFEE9AFEEDD2
:1000D60099FDD0E0FBEF4E4D4C701222DB0302037C
:1000E600E2EC2CFCEF33FFEE33FEED33FDED30E7B3
:1000F600EB0203BDEF2BFFEE3AFEED39FDD0E0FB40
:1001060050130BBB00030203E5ED13FDEE13FEEFE8
:0801160013FFEC13FC0203BD12
:10011E00EC4D6011E8497017ED33EC3304600DE4DB
:10012E00FCFFFEFD22E933E8330470F80203DB1214
:10013E0003A658046009E4CC248150062850090215
:10014E0003E52840030203E2C0E0EB4A7044B980A5
:10015E0006D0E0FB0203D1EF4E701CBD8008EBFF12
:10016E00EAFEE9FD80EBE98DF0A4FEE5F002020760
:10017E00E9CDF9EAFEEBFFEF89F0A4FCE5F0CE89BC
:10018E00F0A42EFFE435F0CD89F0A42DFEE435F079
:10019E008067EF4E7005BD80D780C3EF8BF0A4ACA7
:1001AE00F0EE8BF0A42CFCE435F0F8EF8AF0A42CE2
:1001BE00E5F038FCE433CB8DF0A42CFCE5F03BF8F5
:1001CE00EE8AF0A42CFCE5F038F8E433CF89F0A4E5
:1001DE002CFCE5F038CF3400CE89F0A42FFFE5F0EB
:1001EE003EFEE433C98DF0A42EFEE5F039CD8AF043
:1001FE00A42FFFE5F03EFEE43DFD33D0E0FB5007BB
:10020E000BBB000F0203E5EC2CFCEF33FFEE33FECD
:06021E00ED33FD0203BDFB
:100224000203E5EC5D046005E8590470030203DB96
:100234001203A6580460F6EC4860F2EC7004FDFE6C
:10024400FF22C860DB2481C85009C39860025006AD
:100254000203E29850CAF582E9294B4A7005AB8241
:100264000203D175F0007C1A7880C3EF9BEE9AEDFF
:1002740099400DC3EF9BFFEE9AFEED99FDE842F025
:10028400DC23ACF0D0E0FFD0E0FED0E0FDAB822078
:10029400E7101BEB60BAEC2CFCEF33FFEE33FEED02
:1002A40033FD0203BDE803F830E705C0F075F00044
:1002B400EF2FFFEE33FEED33FD40B830E7C280AAE6
:1002C40074F8CC6480CCC86480C8F582046043C3ED
:1002D400EB9FF5F0EA9E42F0E99D42F0E89C45F080
:1002E40060305018E5825FFFE582F42B5582FB50A5
:1002F400210ABA001D09B90019088016E5825BFBC2
:10030400E582F42F5582FF50090EBE00050DBD0095
:10031400010CC3EB9FF5F0EA9E42F0E99D42F0E840
:0D0324009C45F06007CC4820E701B3EC22B7
:1003310075F020800E75F010800575F0087D007E47
:10034100007F003392D530D50312052FEC334010D6
:10035100EF33FFEE33FEED33FDEC33FCD5F0ED2250
:0E036100E5F0247EA2D513CC92E7CDCEFF228C
:10036F00EDD2E7CD33EC3392D524814006E4FFFE86
:10037F00FDFC22FCE4CFCECDCC24E0501174FF80E5
:10038F00EDC3CC13CCCD13CDCE13CECF13CF047082
:07039F00F030D5DE02052F4E
:0D2EF200ED33EC3360065004EC6480FC22EC
:1025AF008F4F8E4E8D4D8C4C74FFFFFEFDFCAB4F4D
:1025BF00AA4EA94DA84CC3120553602C7F807E965E
:1025CF007D187C4BAB4FAA4EA94DA84C1202C4608C
:1025DF000250157F807E967D187CCBAB4FAA4EA9FB
:1025EF004DA84C1202C45009AF4FAE4EAD4DAC4C7E
:1025FF0022AF4FAE4EAD4DAC4C12036F8F538E5278
:10260F008D518C50EC120331C8ECC8C9EDC9CAEE1C
:10261F00CACBEFCBAF4FAE4EAD4DAC4C120029E451
:10262F00FBFAF9F81202C4601A401874FF2553F52B
:10263F0053E55234FFF552E55134FFF551E550346F
:10264F00FFF550AF53AE52AD51AC50EC12033122E7
:1003A600E9D2E7C933E833F892D5EDD2E7CD33EC9D
:0703B60033FC5002B2D52216
:1003BD00EC30E7100FBF000C0EBE00080DBD0004A1
:1003CD000BEB6014A2D5EB13FCED92E7FD2274FF4D
:1003DD00FCFDFEFF22E480F8A2D574FF13FC7D80A6
:0303ED00E480EFBA
:030000000228399A
:0C283900787FE4F6D8FD758181022880CC
:1003F000BB010689828A83E0225002E722BBFE020B
:09040000E32289828A83E493223D
:10040900BB010CE58229F582E5833AF583E02250A8
:1004190006E92582F8E622BBFE06E92582F8E222F2
:0D042900E58229F582E5833AF583E493220C
:10043600BB010689828A83F0225002F722BBFE01A5
:02044600F3229F
:10044800F8BB010DE58229F582E5833AF583E8F0EA
:10045800225006E92582C8F622BBFE05E92582C896
:02046800F2227E
:10046A00EF8DF0A4A8F0CF8CF0A428CE8DF0A42EA6
:02047A00FE2260
:10047C00C2D5EC30E709B2D5E4C39DFDE49CFCEE9B
:10048C0030E715B2D5E4C39FFFE49EFE1206F4C319
:10049C00E49DFDE49CFC80031206F430D507C3E414
:0604AC009FFFE49EFE220A
:1004B200BB010A89828A83E0F5F0A3E02250068715
:1004C200F009E71922BBFE07E3F5F009E3192289D7
:0B04D200828A83E493F5F0740193220A
:1004DD00BB010789828A83020749500B09C5F027A2
:1004ED00F7C5F01937F722BBFE0D09F8E325F0F338
:1004FD00C5F019E338F322F889828A8374019325B4
:08050D00F0C5F0F8E493382278
:0D051500EF2BFFEE3AFEED39FDEC38FC2235
:0D052200EF4BFFEE4AFEED49FDEC48FC22D8
:0E052F00C3E49FFFE49EFEE49DFDE49CFC22DD
:10053D00EB9FF5F0EA9E42F0E99D42F0EC6480C835
:06054D0064809845F022D5
:10055300EB9FF5F0EA9E42F0E99D42F0E89C45F0FE
:010563002275
:10056400E8600FEFC333FFEE33FEED33FDEC33FCF5
:03057400D8F12299
:10057700BB010789828A830205BD5005E9F8020598
:10058700B1BBFE05E9F802075F89828A8302076B20
:10059700BB010789828A830205EE5005E9F8020547
:0A05A700E2BBFE05E9F802077B2223
:0C05B100E6FC08E6FD08E6FE08E6FF2276
:0C05BD00E0FCA3E0FDA3E0FEA3E0FF22B1
:0D05C900E6FB08E6F908E6FA08E6CBF822A2
:0C05D600E0F8A3E0F9A3E0FAA3E0FB22A8
:0C05E200ECF608EDF608EEF608EFF62245
:0C05EE00ECF0A3EDF0A3EEF0A3EFF02280
:1005FA00D083D082E493F608740193F608740293C8
:09060A00F608740393F6740473FE
:10061300A8828583F0D083D08212062A12062A127A
:10062300062A12062AE473E493A3C583C5F0C5839F
:10063300C8C582C8F0A3C583C5F0C583C8C582C831
:010643002294
:0C064400A42582F582E5F03583F58322C1
:09065000E6FB08E6FA08E6F922CF
:10065900FAE6FB0808E6F925F0F618E6CA3AF622A2
:09066900EBF608EAF608E9F622B6
:10067200BB010DE58229F582E5833AF583020787FE
:100682005007E92582F8020650BBFE07E92582F8E9
:10069200020790E58229F582E5833AF583020799FC
:1006A200D083D082F8E4937012740193700DA3A3E7
:1006B20093F8740193F5828883E4737402936860FB
:0606C200EFA3A3A380DFFB
:102B66008B3D8A3E893FE4F545F546E5441544AE7E
:102B760043700215434E6033AB40AA41A94212038B
:102B8600F0FFAB3DAA3EA93F0546E546AC457002BF
:102B9600054514F5828C83EF120448EF60CD74016D
:102BA6002542F542E43541F54180C0AB3DAA3EA938
:022BB6003F22BC
:1006C800EF4E6012EF60010EEDBB010B89828A8349
:1006D800F0A3DFFCDEFA2289F05007F709DFFCA956
:0C06E800F022BBFEFCF309DFFCA9F022AD
:10284500022F0BE493A3F8E493A34003F68001F26F
:1028550008DFF48029E493A3F85407240CC8C33394
:10286500C4540F4420C8834004F456800146F6DF63
:10287500E4800B0102040810204080902ED6E47EEF
:10288500019360BCA3FF543F30E509541FFEE49358
:10289500A360010ECF54C025E060A840B8E493A31F
:1028A500FAE493A3F8E493A3C8C582C8CAC583CA4A
:1028B500F0A3C8C582C8CAC583CADFE9DEE780BE02
:012EE40000ED
:1006F400BC000BBE0029EF8DF084FFADF022E4CCEA
:10070400F875F008EF2FFFEE33FEEC33FCEE9DECB2
:10071400984005FCEE9DFE0FD5F0E9E4CEFD22EDF8
:10072400F8F5F0EE8420D21CFEADF075F008EF2F42
:10073400FFED33FD4007985006D5F0F222C398FD33
:050744000FD5F0EA22D0
:10074900C5F0F8A3E028F0C5F0F8E582158270023B
:060759001583E038F022D8
:0C075F00E2FC08E2FD08E2FE08E2FF22D6
:10076B00E493FC740193FD740293FE740393FF22D4
:0C077B00ECF208EDF208EEF208EFF222BA
:09078700E0FBA3E0FAA3E0F92273
:09079000E2FB08E2FA08E2F9229A
:0C079900E493FB740193FA740293F922BC
:00000001FF
