:0D2FF200245265763A203339303520240012
:10234A00E527AB61AA62A96375F010A4F58285F04E
:10235A0083020409E493FF3395E0FEEF24D0FFEEF5
:10236A0034FFFE7C0002046AE53DC4F8540FC868D5
:10237A00FFE53CC454F0482275F010A429F9EA3567
:10238A00F0FA22E52A75F010A4AB612563F9E5623B
:10239A0035F022AB61AA62A96322C2ACE4F525D268
:1023AA00872290000D1206A4788AE6FF18E68FF0BD
:1023BA00A422788DE6FC08E6FDAB09AA087F012273
:1023CA00D20AC3ED9B788AF67886760122D20A78F9
:1023DA008AF6788622FA900004020409253DF8E478
:1023EA00F6053DE53D22788DE6FDE509FB7F0122F4
:0E23FA0078A076787F01227B007A0079252278
:10113C00E47880F612303D75E10175E24075A490BB
:10114C0075B283E4F5A9122E39E4FF122F69E4F588
:10115C003CF53D7D01AF3D122FE0053DE53D7002B4
:10116C00053CC39405E53C940040E8E4F520C20A34
:10117C00C208C20EC20DC20C7880F6C28708F6787F
:10118C0085F618F6788AF6F53CF53D748C1223E654
:10119C007002053C6414453C70F1E4F53CF53D747B
:1011AC00A01223E67002053C6408453C70F1E5EFA3
:1011BC0020E10CE5EF5408D394004003D38001C325
:1011CC0092037D08E4FF122F48E47889F67882F6C2
:1011DC0012239D7882E6FF122352FE788926F6EEC2
:1011EC00600578820680E9EFD39400402512239D98
:1011FC0090000D1206A474551204361203F06455B7
:10120C006002D20C74AA1204361203F064AA6002B3
:10121C00D20C12262A8F3BE53B20E035C20974FF25
:10122C00F508F509F50AF50B7E007F107D007B00B3
:10123C007A00790E1206FA7541FF75421775432F25
:10124C007544007545107B007A00790E122D47808D
:10125C0002D209902FF97D6412235EAA06AB079087
:10126C002FF8E493FF3395E0FEEF24D0FFEE34FF2C
:10127C00FE7C037DE812046AEF2BFBEE3AFA902F0A
:10128C00FA7D0A12235EEF2BFFEE3AFEA3E493FDE8
:10129C003395E0FCED24D0FDEC34FFCD2FF50DEDB6
:1012AC003EF50CE53B20E179E4F53CF53D1223726B
:1012BC00FE12239D8F82F583120409605BE92FF9DE
:1012CC00EA3E1223DF20E245E4F53AE53AC3787DA5
:1012DC0096503A12237212239D8F82F583120409C1
:1012EC00FF7E00C006C0077D00122372FEE92FF9B5
:1012FC00EA3EFA90000D1206A47889E6853AF012BF
:10130C002385D007D0061206FA053A80BE053DE5C6
:10131C003D7002053C0212B97F01121560C20B80B0
:10132C0007E4FF121560D20BE4F53CF53D7A007B27
:10133C00967D03AF3D122CA3053DE53D7002053CA7
:09134C00C39405E53C940040E463
:011355002275
:05305000788AE6FF2272
:03002300021FA712
:101FA700C0E0C0F0C083C082C0D075D000C000C000
:101FB70001C002C003C004C005C006C00730993A7B
:101FC700C2997885067985E77881667016F67885EF
:011FD700F613
:0E1FD80075230A0075240300D524FCD523F5DB
:041FE600C287801717
:0E1FEA007523140075240300D524FCD523F5BF
:101FF8007885E624A0F8E6F5992098030220902039
:102008009A07200A04C298807BC29A7884E606243C
:102018008CF8A699C2987884E6FFB40113788CE608
:10202800FE70057884F68060EE54072402788BF6FB
:10203800EFB4020E788BE6B40908788DE6240379AC
:102048008BF77884E6FFB414047600803BEFC378FE
:102058008B9640347884E624FFFDE434FFFC7B0053
:102068007A00798C122AAD7884E6248BF8E66F60C2
:03207800028011D2
:0E207B007523140075240300D524FCD523F52D
:1020890012080D78847600D007D006D005D004D088
:1020990003D002D001D000D0D0D082D083D0F0D0EC
:0220A900E03223
:102E80008F348B358A368937EA494B60161203F046
:102E9000FFE534FD7C00120003AB35AA36A937EFFD
:032EA000120436E3
:0E2EA3007538140075390300D539FCD538F5A3
:0E2EB1008534997F01122FA93099FDC2992214
:062FC6007881EFF6D287CE
:0E2FCC007534140075350300D535FCD534F589
:062FDA0078A0E6F5992243
:102EBF00C9EFC9E96401701FEDC39B4027787DE618
:102ECF00FFEB2FFFE433FEEDC39FEE6480F87480B9
:102EDF009850111223CA22B90210ED6B70061223FB
:0B2EEF00D7760222C20AE47886F622A1
:102D9900C9EFC9BAFF11BBFF0EED6B7002EC6A7087
:102DA900381223D7E9F622E96401701CC3ED9BECC4
:102DB9009A4013787DE62BFFE43AFEC3ED9FEC9E23
:102DC90050041223CA228011B90214ED6B7002EC6F
:102DD9006A70061223D7760222C20AE47886F6229E
:10080D00788CE6FF54F8F526EF1206D40856090841
:10081D005B0A086010086911087812088B1908998D
:10082D001A08AB2008B128090F2909D5330A043756
:10083D000A27390A36410A3F490A48500A82610996
:10084D009B700A7A9800000A9D1223F080171223DC
:10085D00BC8025D20A78867603020A9D788DE6FD46
:10086D00E50BFB7F02122EBF020A9D788DE6FC0878
:10087D00E6FDAB0BAA0A7F02122D99020A9D1223E7
:10088D00F0122EBF200A03020A9D800C1223BC1207
:10089D002D99200A03020A9D1223FA020A9A75EF76
:1008AD0010020A9D1223A4FB120DDF7F18122E8059
:1008BD001224017F05122E807882120E43AF08128A
:1008CD000E03AF09122E80AF0A120E03AF0B122EBC
:1008DD00807B00AF0C120E35AF0D122E80E4F52784
:1008ED00740E2527F8120E430527E527C3941040F3
:0108FD00EF0B
:0E08FE00120E4F0075330300D533FCD532F5D2
:10090C00020988788DE6FFC37882965076EF75F0F1
:10091C0010A412239585612FF53089311223A4FB85
:10092C007F7F120E357F0D122E80AB2FAA30A9318E
:10093C00120E27900001120DEF900002120DEF9095
:10094C000003120E13900004120E13E4F527AB2FC4
:10095C00E5312405F9E43530FA7E00E92527F9EE76
:0E096C003AFA120E270527E527C3940840E04B
:0E097A00120E4F0075330300D533FCD532F555
:10098800C287D2AC020A9D78A07678E408F67F0286
:10099800020A9A12300C78A81205FA78A0767C78A8
:1009A800A8E678A1F678A9E678A2F678AAE678A368
:1009B800F678ABE678A4F67C007D057B007A0079B2
:1009C800A0122AAD78A5EFF67F06020A9A788DE67E
:1009D800FFB4010B08E6F50808E6F509020A7AEF04
:1009E800B40208788EE6F508020A7A788DE6B40330
:1009F8000808E6F50A08E6F50B020A7AE4F527E5A1
:100A080027C3788D965016748E2527F8E6FF740E46
:100A18002527F8C6EFC60527E527B410E28053124C
:100A28000E77788DE6FDE4FF122F48020A9D788D37
:100A3800E624FF9202805E788DE624FF92018055BD
:100A4800788AE66005752902800B200D0575290353
:100A5800800375290178A0767908A629120E5E7898
:100A6800A2EFF67F03122FC6E52964017027D20E84
:100A78008002D208788076F1801B7F00120EA2785F
:100A8800A07679788DE678A1F6120E5E78A2EFF658
:100A98007F03122FC6E52664A06003020C27788C1A
:100AA800E664A16003020B57798DE7C3788296400C
:100AB80003020B5112239D788DE6FF122352F5296C
:100AC800EF1223821223E030E226788DE6FF1230FF
:100AD800558F2978A0767F08A629E5292402120EC9
:100AE8008574A22529F8EFF6E5292403FF020C24D2
:100AF800788DE6FF1230551223A4E529D3940640D9
:100B08001F7B00120DDFAF29122E80E4F527E527A1
:100B1800C395295007120DA8052780F205298018CA
:100B2800E5292478120E6CE4F527E527C3952950AA
:080B380007120DA8052780F249
:0E0B4000120E930075330300D533FCD532F549
:100B4E00020C1B1223FA020C24788CE664A26003BA
:100B5E00020C277882E6FF788DE6FEC39F400302E3
:100B6E000C2108E6FDC39F4003020C21EE9D4003BD
:100B7E00020C2118E6F527E4F52DF52EE527D3789E
:100B8E008E965015AF2712305512234A252EF52E6C
:100B9E00E4352DF52D052780E31223A4FB7A007989
:100BAE00257F7F122E80C3E52E9480E52D94005074
:100BBE00028007E52D4480120E6CAF2E1224011216
:100BCE002E80788DE6F527E527D3788E965030E483
:100BDE00F52812234AFFE528C39F501FE52712234D
:100BEE00821223AC2528F582E435F0F58312040930
:0F0BFE00FF122401122E80052880D7052780C8FA
:0E0C0D00120E930075330300D533FCD532F57B
:100C1B00C287D2AC80061223FA122FC6E52664587F
:100C2B00703DFA7B327D01788AE6FF122CA3753773
:100C3B00007538007539A17B007A00798D12304729
:100C4B008F29E529247878A0F6E5292401120E8551
:100C5B0074A12529F8EFF6E5292402FF122FC6E52A
:100C6B002664806009E52664886003020DA77886F8
:100C7B00E6B40105120E778014E4F527E527C37857
:100C8B007D965009AF27120EA2052780EF788CE6D0
:100C9B005407F529B4070A75280108E6F5290880D9
:100CAB0005E4F528788DE6F52A1529E52AC378821F
:100CBB00964003020D85E52A12234CFFE529D39FAD
:100CCB0040028F297886E6B40109788AE6F52CF57F
:100CDB002B8009E4F52B787DE614F52C788AA62B6E
:100CEB00788AE6D3952C4003020D79E4F527E527A6
:100CFB00C39529506E12238D1223DF20E2609000E2
:100D0B000112040964387025E529D39404400BE5DE
:100D1B00282527248EF8E6FD80327884E6C39527B4
:100D2B00FF748A2FF8E6FD12238DFA801F12239D84
:100D3B0075F010E52A122355FFC37884E69F25270B
:100D4B002528248BF8E6FDE52A1223821223ACFF1B
:100D5B00E5272FF582E435F0F583ED1204480527DE
:100D6B00020CF9AF2A1226D4788A06020CEB788A89
:100D7B00A62BE52664887024800FE52AB4FF1D7826
:100D8B008EE6F520E526B4881378A076787884E68D
:0C0D9B00248BF8E678A1F67F02122FC628
:100DA70022788DE675F010A4AB612563F9E562350D
:100DB700F0FA90000D1206A4788AE6FF18E68FF085
:100DC700A42527F582E435F0F583120409FF7B009B
:100DD7007A007925122E80227A0079257F7F122EBC
:100DE700807B007A00792522AB2FAA30A931120423
:100DF70009FF7B007A007925122E80227B007A007A
:100E07007925122E807B007A00792522AB2FAA3014
:100E1700A931120409FF7B007A007925122E80225E
:100E27001203F0FF7B007A007925122E80227A00C8
:100E37007925122E807B007A00792522E6FF7B0038
:100E47007A007925122E80227B007A007900AF255F
:100E5700122E8075320A227C007D027B007A00798F
:100E6700A0122AAD22FF7B007A007925122E80225C
:100E77007A007B327D01788AE6FF122CA322FDE4FB
:100E870033FC7B007A0079A0122AAD227B007A001E
:100E97007900AF25122E8075320A227A007B327DC7
:050EA70001122CA32242
:103200007880E664F16003023813E4F543F544780E
:0432100081E66020D3
:0E32140075490A00754A0300D54AFCD549F5F4
:103222000544E5447002054364107004E5436427D5
:1032320070DBC2AFE4F5D9F53FF53E20982FE4F5F7
:1032420043F544209823C3E5449488E543941350FE
:013252001863
:0E32530075490A00754A0300D54AFCD549F5B5
:103261000544E54470DE054380DAB2A780CE859936
:103271003EC298E53E641A6003023346F543F544C5
:0E328100209823C3E5449488E5439413501825
:0E328F0075490A00754A0300D54AFCD549F579
:10329D000544E54470DE054380DA30989385993F07
:1032AD00C298E4F543F544209823C3E5449488E59A
:0532BD004394135018BA
:0E32C20075490A00754A0300D54AFCD549F546
:1032D0000544E54470DE054380DA20980302323D60
:1032E00085993FC298E4F543F544209823C3E5440B
:0832F0009488E5439413501883
:0E32F80075490A00754A0300D54AFCD549F510
:103306000544E54470DE054380DA20980302323D29
:0933160085993FC298D287C29943
:0E331F0075491400754A0300D54AFCD549F5DE
:06332D007599783099FD4E
:0E33330075490A00754A0300D54AFCD549F5D4
:10334100C287023805E53E645060030233DBF54372
:10335100F544209823C3E5449488E5439413501819
:0E33610075490A00754A0300D54AFCD549F5A6
:10336F000544E54470DE054380DA20980302323DC0
:09337F0085993FC298D287C299DA
:0E33880075491400754A0300D54AFCD549F575
:083396007599793099FDC29987
:0E339E0075491400754A0300D54AFCD549F55F
:0833AC007599013099FDC299E9
:0E33B40075491400754A0300D54AFCD549F549
:0633C200E4F5993099FDCD
:0E33C80075490A00754A0300D54AFCD549F53F
:0F33D600C287023805E53E64017041D287C29973
:0E33E50075491400754A0300D54AFCD549F518
:0833F3007599783099FDC2992B
:0E33FB0075491400754A0300D54AFCD549F502
:06340900E4F5993099FD85
:0E340F0075490A00754A0300D54AFCD549F5F7
:10341D00C287023805E53E640260030234E2F543DB
:10342D00F544209823C3E5449488E543941350183C
:0E343D0075490A00754A0300D54AFCD549F5C9
:10344B000544E54470DE054380DA20980302323DE3
:10345B0085993FC298E4F540E53F13B392A7E53F4A
:10346B0025E0FEC3E49400EE94325027E53F7F0045
:10347B0025E0FEC3943A501B758F038E458F46751E
:10348B00B7A57880E6F5B7854682854583E4F0F5E8
:0A349B008F80037540FFD287C299AD
:0E34A50075491400754A0300D54AFCD549F557
:0834B3007599783099FDC2996A
:0E34BB0075491400754A0300D54AFCD549F541
:0634C9008540993099FDD9
:0E34CF0075490A00754A0300D54AFCD549F537
:1034DD00C287023805E53E6403600302362CF543CE
:1034ED00F544209823C3E5449488E543941350187C
:0E34FD0075490A00754A0300D54AFCD549F509
:10350B000544E54470DE054380DA20980302323D22
:10351B0085993FC298E4F543F544209823C3E544CD
:08352B009488E5439413501845
:0E35330075490A00754A0300D54AFCD549F5D2
:103541000544E54470DE054380DA20980302323DEC
:10355100859941C298E53F1392A7E53F25E0FEC357
:10356100E49400EE9432400302323DE53F7D0025B4
:10357100E0FCC3943A400302323D758F01E5417589
:10358100F020A42DFFE5F03CF5458F46E4F542E53A
:1035910042C394205051E4F543F544209823C3E5F8
:0935A100449488E543941350188A
:0E35AA0075490A00754A0300D54AFCD549F55B
:1035B8000544E54470DE054380DA20980302323D75
:1035C80075B7A57880E6F5B70546E546AE457002BD
:1035D800054514F5828E83E599F0C298054280A8C6
:0735E800E4F58FD287C299C0
:0E35EF0075491400754A0300D54AFCD549F50C
:0835FD007599783099FDC2991F
:0E36050075491400754A0300D54AFCD549F5F5
:06361300E4F5993099FD79
:0E36190075490A00754A0300D54AFCD549F5EB
:10362700C287023805E53E640460030236E0F543CD
:10363700F544209823C3E5449488E5439413501830
:0E36470075490A00754A0300D54AFCD549F5BD
:103655000544E54470DE054380DA20980302323DD7
:1036650085993FC298E53F25E0F547754800E4F5A3
:1036750040F543F5440548E548AE47700205471453
:10368500F5828E83E4932540F5400544E5447002B8
:0E36950005437004E543640270DBD287C299DE
:0E36A30075491400754A0300D54AFCD549F557
:0836B1007599783099FDC2996A
:0E36B90075491400754A0300D54AFCD549F541
:0636C7008540993099FDD9
:0E36CD0075490A00754A0300D54AFCD549F537
:1036DB00C287023805E53E640560030237FDF543FA
:1036EB00F544209823C3E5449488E543941350187C
:0E36FB0075490A00754A0300D54AFCD549F509
:103709000544E54470DE054380DA20980302323D22
:1037190085993FC298E4F543F544209823C3E544CD
:083729009488E5439413501845
:0E37310075490A00754A0300D54AFCD549F5D2
:10373F000544E54470DE054380DA20980302323DEC
:09374F00859941C298D287C29904
:0E37580075491400754A0300D54AFCD549F5A1
:0837660075997F3099FDC299AD
:0E376E0075491400754A0300D54AFCD549F58B
:10377C007599203099FDE53F25E0FCE54175F02079
:10378C00A42400FFE5F03CF5478F48E4F540F542F2
:02379C00C299D0
:0E379E0075491400754A0300D54AFCD549F55B
:1037AC00854882854783E493F5993099FD0548E572
:1037BC0048AE477002054714F5828E83E49325408A
:0B37CC00F5400542E542B420C7C29959
:0E37D70075491400754A0300D54AFCD549F522
:0637E5008540993099FDBA
:0E37EB0075490A00754A0300D54AFCD549F518
:1037F900C2878008E53EB4060375EF10E53E64070D
:0A380900600302323D7880F6D2AF72
:013813002292
:102B25007F00122FA920090B7A007B327D017F00DF
:102B3500122CA3300C0B7A007B1E7D017F00122C1A
:102B4500A3300817300D147A007B327D01788AE6B0
:102B5500FF122CA3C20812280AD209200B0C300D33
:102B650009788076F112280AD20B300E08300D054F
:102B7500C20E123200122FFFE47B2C7A01F9F8C342
:082B850012054B5002D20D2293
:0B30320012113C122B25121EA280F888
:101C9200005EBCE2613FDD83C29C7E20A3FD1F414A
:101CA2009DC3217FFCA2401E5F01E3BD3E6082DC3A
:101CB200237D9FC1421CFEA0E1BF5D0380DE3C622A
:101CC200BEE0025CDF81633D7C22C09E1D43A1FF1A
:101CD2004618FAA427799BC584DA3866E5BB59070A
:101CE200DB856739BAE406581947A5FB7826C49AFA
:101CF200653BD987045AB8E6A7F91B45C6987A24EA
:101D0200F8A6441A99C7257B3A6486D85B05E7B9D9
:101D12008CD2306EEDB3510F4E10F2AC2F7193CDC9
:101D2200114FADF3702ECC92D38D6F31B2EC0E50B9
:101D3200AFF1134DCE90722C6D33D18F0C52B0EEA9
:101D4200326C8ED0530DEFB1F0AE4C1291CF2D7399
:101D5200CA947628ABF517490856B4EA6937D58B89
:101D62005709EBB536688AD495CB2977F4AA481679
:101D7200E9B7550B88D6346A2B7597C94A14F6A869
:101D8200742AC896154BA9F7B6E80A54D7896B3559
:0A1D92000000000000002B96B9DDF0
:0330260001500A4C
:10291F00E53EAB61AA62A96375F010A4F58285F05C
:10292F0083020409151EA81EEDF6151EA81EEFF64C
:10293F00A81EE6FFC3940522A81EE6FF25E025E0AA
:10294F002467F822A81EE625E025E02465F8227505
:10295F00F010A429F9EA35F0FA90000D1206A478C8
:10296F0089E622E55075F064A4FFC3E5529FE55157
:10297F0095F022EF25E025E02464F822EF25E025ED
:10298F00E02466F8221204B22400FFE5F0343A2264
:07299F00151E151EA81E22E3
:102AAD0012299FECF608EDF6151E12299F12069BB2
:062ABD00E51E24FCF51EDD
:102AC300F80808E4F6A81EF608F6E51E2407F9A898
:102AD3001EE6FE08E6FFC3099719E76480F8EE6473
:102AE30080985031E51E2404F81206828F828E836B
:102AF300120409A81E080866FFE51E2403F8EFF672
:102B0300E6901C9293A81E0808F6A81E0806E6186D
:0B2B130070B80680B5A81E0808E6FF99
:072B1E00E51E2409F51E224B
:07000300ED6F901C9293FFCA
:01000A0022D3
:102F4800EF701B7598D0E589540F4420F589438E9E
:102F580008ED901D9193F58DD28ED2ACC2BCD2AF44
:012F68002246
:102E3900D2AFD2A9C2BBE589540F4401F589E4F5A3
:102E49008E758CAFF58AD28CF556F555F554F55338
:102E5900F55AF559F558F557754F64FF122982E46B
:102E6900F6EF122956E4F612298BE4F6EF12294BF4
:062E7900E4F60FBF05E6C0
:012E7F002230
:022B8D00151E13
:102B8F00A81EE4F612293F5054EF12294BE6FFD34B
:102B9F0094004032122953E6702CEF30E00D1229C9
:102BAF0047E6D3940140047D0180067D00A81EE610
:102BBF00FF122BEF12294716E6600B12298BE6FE48
:102BCF00EF122956EEF6122953E660011612294725
:0D2BDF00E67004FD122BEFA81E06022B93DA
:032BEC00051E22A1
:03000B000229A621
:1029A600C0E0C0F0C083C082C0D0E8C0E0E9C0E0AB
:1029B600EAC0E0EBC0E0ECC0E0EDC0E0EEC0E0EF66
:1029C600C0E0758CAFE5562401FFE43555FEE435CD
:1029D60054FDE435538F568E558D54F553D54F1B04
:1029E600E55A2401FFE43559FEE43558FDE4355730
:1029F6008F5A8E598D58F557754F64122B8D1200CC
:102A06000ED0E0FFD0E0FED0E0FDD0E0FCD0E0FB51
:102A1600D0E0FAD0E0F9D0E0F8D0D0D082D083D0A0
:042A2600F0D0E032DA
:102FE000122933500808E6FE122982EEF6051E0566
:022FF0001E229F
:102CA30012299FEAF608EBF6122933503EEF122958
:102CB3004BE67037A81EE6FB122956E6702DA81EB8
:102CC30008E625E004FFA81EE6FA12294BEFF6A852
:102CD3001E0808E6FE08E6FF7C007D0A12047CEA73
:102CE30012298CEFF6EB122956E4F6E51E2404F5BF
:022CF3001E229F
:102BEF001229335017122982E66011A81E08E670C9
:102BFF00047F0180027F00A81E08EFF6A81EE67072
:102C0F000608E624FF92A7A81EE6FFB4010608E611
:102C1F0024FF92A6EFB40208A81E08E624FF92A58F
:102C2F00A81EE6B4030608E624FF92A4A81EE6B485
:0D2C3F00040608E624FF92A3051E051E22D0
:0C2FFF00C2AFAF56AE55AD54AC53D2AFCC
:01300B0022A2
:0C300C00C2AFAF5AAE59AD58AC57D2AFAE
:013018002295
:102FA900151EA81EEFF6A81EE67004F551F552305D
:0D2FB90012081229725003E4F5FE051E22D5
:102F6900D212E4F551F552EF6004F5508003755023
:102F79000AE4F5D975FDFF75D940F5FE75EF06220E
:0A303D00C212E4F551F552F5D92254
:10000E000552E55270020551301208122972500342
:04001E00E4F5FE22E5
:042EFA008E3F8F4038
:102EFE00E4F541F542C3E5429540E541953F501654
:102F0E007FE87E03122C4C7F01122FA90542E54269
:062F1E0070E3054180DFB5
:012F2400228A
:042C4C008E448F45DE
:102C5000D3E54594FAE5449400500FEFD394004037
:102C600041007E0300DEFD1F80F185444685454717
:102C7000D3E54794FAE546940040157FFA7E0012AA
:102C80002C4C74062547F54774FF3546F54680E021
:102C9000D3E5459400E54494004007AF47AE4612A3
:022CA0002C4CBA
:012CA200220F
:082DE9008B458A4689478D489D
:102DF1007F01122FA9AB49AA4AA94B122994FE853A
:102E0100454C85464D85474EE4FDEDC39548501B25
:102E1100EF2DF582E43EF583E493AB4CAA4DA94E28
:102E21008D827583001204480D80DFAB49AA4AA93F
:082E31004BE48548F00204DDCA
:082895008B448A4589468D47FA
:10289D007880E664F1707A12303DC2AF758F01AB6E
:1028AD0048AA49A94A12299478ACF608EFF6AB4428
:1028BD00AA45A94678B012069BE478AEF678AEE646
:1028CD00C39547503378B0E475F00112068B1203AF
:1028DD00F078AFF675B7A57880E6F5B778AFE6FF77
:1028ED0078AC0806E618CCE6CC70010614F5828C9F
:1028FD0083EFF078AE0680C5E4F58F53B6F0AB48A4
:10290D00AA49A94A8547F01204DDD2AFE4FF122F80
:01291D006950
:01291E002296
:102CF5007880E664F1704AC2AF12303D758F037873
:102D0500AD763A087600E478ACF675B7A57880E636
:102D1500F5B778ADE6FE08E6F5828E83E4F07F012F
:102D2500122FA978AEE426F618740236F61806E6D0
:102D3500C3940140D5E4F58F53B6F0D2AFFF122FFF
:012D45006924
:012D4600226A
:10280A00122CF5E4F542F543F548754900754A423C
:10281A00FB7A0079087D16122895122879F53FE58A
:10282A003FC3787D965041E4F53E12291F6035E595
:10283A003E12295E853FF0A429F9EA35F0FAEBC089
:10284A00E0EAC0E0E9C0E012291FFD7548007549B9
:10285A0000754A42D0E0F9D0E0FAD0E0FB122895A0
:0E286A00053E80C6053F80B71228797880F6BB
:1028780022754012754134754800754900754A4201
:0D2888007B007A0079407D02122895E42241
:10262A00E4F543F544F540F549754A00754B43FB1B
:10263A007A0079087D16122DE91226BB7004E5414D
:10264A0064127003434001E4F53FE53FC3787D9689
:10265A00504EE4F53EE53E1229216040E53E12293E
:10266A005E853FF0A429F9EA35F0FAEBC0E0EAC04A
:10267A00E0E9C0E0AB61AA62A96375F010E53E1219
:10268A00292AFD754900754A00754B43D0E0F9D0F7
:10269A00E0FAD0E0FB122DE9053E80B9053F80AA99
:1026AA001226BB7004E54164127003434002AF4036
:1026BA0022754900754A00754B437B007A007941BF
:0A26CA007D02122DE9E5426434227E
:10172F004856522D353030000134000000436F6EA3
:10173F0074726F6C00010014041800000155646589
:10174F006D616E64000100150418000001556D6590
:10175F0061730000000100190406FA0001496D656C
:10176F00617300000001001D01340000005374611B
:10177F007475730000010021015C00000054726950
:10178F0070436E7400010022041800000152616D55
:10179F007055700000010023041800000152616DA4
:1017AF0070446F776E0100270418000001556C69B3
:1017BF006D6974000001002B0406FA0001496C6981
:1017CF006D6974000001002F0406FA000152496C84
:1017DF00696D697400010033015C00000054726987
:1017EF00704D6178000100370103000000547269E9
:1017FF007054696D65010038045D00000941444370
:10180F006761696E00010039041800000941444303
:10181F006F6673000001003D045D00000944414301
:10182F006761696E000100410418000009444143DB
:10183F006F66730000010045045D000009435552B7
:10184F00766761696E010049045D000009435552D6
:10185F006761696E0001004D0406FA000943555295
:10186F006F667300000100510418000009554441D0
:10187F0043000000000100550000000000000000C0
:10188F00000000000000000000010203040507062D
:08189F000100030205040F0E15
:08302900017D050361FF17376B
:100EAC0075F045E53E9000151206761205B5E53E47
:100EBC0025E025E02481F582E43401F58312060651
:100ECC00E53E25E025E02481F582E43401F583122A
:100EDC0005B5E53E90005575F045020676F675F0C1
:100EEC0045E53E900021120676E054FBF0E53E7598
:100EFC00F04590002102067675F045E53A90001514
:100F0C001206761205B578C0E4FBFAF912002D90A2
:100F1C000055E53A75F04502067625E025E024817A
:100F2C00F582E43401F5831205B5E53E90001575A4
:100F3C00F045020676E53E75F04590002F020676E8
:100F4C0075F045E53A9000191206761205CE900020
:100F5C0015E53A75F04502067675F045E53E9000CC
:100F6C00331206761205B5E53E75F04590001D026C
:100F7C000676E53E75F04590002B0206761205B517
:100F8C00E53E25E025E02481F582E43401F5832259
:100F9C0075F04590002702067675F0459000230207
:100FAC00067675F04590002202067675F0459000A5
:100FBC003802067675F045900039020676CBEFCBF9
:100FCC00E53E25E025E02400F582E43400F583229B
:100FDC00E53A25E025E0246DF582E43401F5832221
:100FEC0075F04590004D02067675F04590001402A0
:100FFC0006761205CE12011E79C87842E4FBFA027D
:10100C000227120227E4FBFA7980784712011EE4CA
:10101C00FBFAF9783F2275F045900019020676E448
:10102C0033FDEF4D25E0FFEE33FE221205CE02021A
:10103C00C41200299001971206069001970205B57B
:10104C001205B5E4FBFAF9F80202C41205B57A40B0
:10105C0078457B00791C0202C4C8ECC8C9EDC9CA2A
:10106C00EECACBEFCB2275F045E53E020676A81E04
:10107C000808F6A81EE4F6A81E08227B937A6D7960
:10108C009B78442275F045E53A1206760205CE129D
:10109C0005B5E51E2403F80205C1E51E24FCF51E6A
:1010AC00F822C29508C9E8C9A81E0808E65794009A
:1010BC00221205B5E4FBFA79FA78440202C47B00EB
:1010CC007A247974784922E054BFF07478253EF87C
:1010DC0074FE56F6229001971205CE02011E900165
:1010EC0097120606E4FFFE22AC3FE412033B75F0B8
:1010FC0045E53E22151EA81EEFF6151E151E22569E
:10110C00F675F045E53A22AB3FAA40A94122AB3B2C
:10111C00AA3CA93D227478253EF874FB56F622743D
:10112C0078253AF8E6227478253AF874FE56F622B9
:10156000E4F5A5F5A6EF70030215EB7E017F597D2A
:10157000007B017A0079141206FAE4F53EE53E128A
:101580000FA512062B43960000E53E120F9C120693
:101590002B43960000120F7E12062B451C400012B2
:1015A0000F4112062B44FA00009000331210721201
:1015B000062B44FA0000E53E120FB7740AF0E53E30
:1015C000120FC012062B3F800000900041121072D3
:1015D00012062B3F800000E53E120FEC12062B3F57
:1015E000800000053EE53E64057092E4F53EE53E70
:1015F000120FF57402F0E53E120EFBE4F0E53E1228
:101600000F3812062B00000000E53E120FAEE4F08A
:10161000120F7E121057500A120F7E12062B451C15
:101620004000120F411210BD5019120F411205B5A2
:101630007A3C784612105E600A120F4112062B4463
:10164000FA0000E53E120F8E12062B000000001279
:101650002FFFE53E120FCE120606053EE53EC3946F
:1016600005408BD2B2D2B1D2B3D2A2D281D280D233
:1016700083D282D2A1D2A0A2A0E4FE33121030A263
:10168000A112102BA28212102BA28312102BA28067
:1016900012102BA281E433FDEF4DFF7C007D05127B
:1016A000046AE50842068E088F09E50BB4FF0BE5D6
:1016B0000AB4FF06750A01750BF4A2B3920F300F3E
:1016C00016E4F53E75F045E53E120EFEE04480F06E
:1016D000053EE53EB405EDD296D297D290D2947FE6
:1016E0002C7E01122EFA122F897D107F0712218E77
:1016F000E4F53E7478253EF87609053EE53EB405EE
:10170000F2E4F53E7D01AF3E122FE0053EE53EC31B
:10171000940540F0D210C211E4F53EE53E120FDE12
:0E17200012062B00000000053EE53EB405ED6C
:01172E002298
:1026D400151EA81EEFF6A81EE6FF6008640160043C
:1026E400EFB4051312276E120EFEE054DFF0D21081
:1026F400122776740146F6A81EE66408702012308C
:1027040050EF120F80121057500D12276E120F83C4
:1027140012062B451C4000122776740146F6A81EAB
:10272400E664097042123050EF120F431210BD508C
:102734002B12305075F045EF120F461205B57B0091
:102744007A3C791C78461202C4601112305075F03C
:1027540045EF120F4612062B44FA00001230507453
:10276400782FF8740846F6051E2212305075F0458D
:0A277400EF2212305074782FF82283
:053055008F347F002212
:093047008B348A3589367F0022A2
:101B4D00151E151EA81EECF608EDF6121100151E39
:101B5D00E51E2403F8E675F00684E5F090189793DA
:101B6D00F6C292121C7912107F7608A81EE6C39455
:101B7D00045023C29508E6540394004003D380011A
:101B8D00C3121C48A81E08E8C0E0E6C313FFD0E04E
:101B9D00121C6E0680D512107F7608A81EE6C3941F
:101BAD0004502BC29508C9E8C9E51E2403F8E65771
:101BBD00D394004003D38001C3121C48A81E08E82B
:101BCD00C0E0E6C313FFD0E0121C6E0680CDE51E0B
:101BDD002404F9E712107A7680A81EE6C394085003
:101BED001D1210AE4003D38001C3121C5BA81E084A
:101BFD00E8C0E0E6C313FFD0E0121C8680DBE51ED3
:101C0D002404F808E612107A7680A81EE6C394081C
:101C1D00501D1210AE4003D38001C3121C5BA81ED1
:101C2D0008E8C0E0E6C313FFD0E0121C8680DBD2CB
:041C3D0092121C796A
:101C4100E51E2406F51E2292947F2C7E01122C4C57
:101C5100D2957F2C7E01122C4C2292947F2C7E01F6
:101C6100122C4CD2957F2C7E01122C4C22F8EFF6CF
:101C71007F01122FA9A81E227F2C7E01122C4C7FDE
:101C810001122FA922F8EFF67F01122FA9A81E0633
:011C91002230
:102F8900C2977F2C7E01122C4CD2977F2C7E011286
:102F99002C4C7D1B7F0312218E7D107F0702218E11
:04218E008F3F8D40B2
:10219200122238E49001A4F012222EC29412226676
:1021A200D2951222667F01122FA99001A4E004F0B9
:1021B200E0C3940440E2E49001A4F0A37408F01296
:1021C200222E9001A5E0553FD394004003D3800115
:1021D200C312221B122247940440E412225C7F01A4
:1021E200122FA9122238E49001A4F0A37480F0C245
:1021F200957F2C7E01122C4C9001A5E05540D39482
:10220200004003D38001C312221B122247940840CC
:09221200DE12225C7F01022FA9FB
:10221B0092947F2C7E01122C4CD2957F2C7E011236
:10222B002C4C22C2957F2C7E01122C4C22C2937F08
:10223B002C7E01122C4C7F01122FA9229001A5E0BC
:10224B00C313F07F01122FA99001A4E004F0E0C3A7
:10225B0022D2937F2C7E01122C4C227F2C7E0112DA
:03226B002C4C22D6
:0820AB008F5B8B5C8A5D895E8E
:1020B3001221697F01122FA9E4F55F12215FE55F09
:1020C300B40103D38001C312214C7F01122FA90550
:1020D3005FE55FC3940440E3E4F55F756008122194
:1020E3005FE55B5560D394004003D38001C31221A5
:1020F3004C122173940440E61221847F01122FA90C
:102103001221697F01122FA9E4F55F756080AB5C32
:10211300AA5DA95E120436C2957F2C7E01122C4C57
:1021230030910EAB5CAA5DA95E1203F04560120408
:1021330036D2957F2C7E01122C4C122173940840C9
:09214300D61221847F01022FA9AC
:10214C0092947F2C7E01122C4CD2957F2C7E011206
:10215C002C4C22C2957F2C7E01122C4C22C2937FD8
:10216C002C7E01122C4C22E560C313F5607F01120A
:10217C002FA9055FE55FC322D2937F2C7E01122C21
:02218C004C22E3
:081D9C008F3E8B3F8A40894114
:101DA400121E76E4F542121E6CE542B40103D380A0
:101DB40001C3121E59121E8F940440EAE4F54275C1
:101DC4004308121E6CE53E5543D394004003D38070
:101DD40001C3121E59E543C313F543121E8F940425
:101DE40040E0121E857F01122FA9121E76E4F542EF
:101DF40012111312065C0000000012111312056F79
:101E0400780112055C12058FC295121E9A121E9A51
:101E1400121113EBC0E0EAC0E0E9C0E01205DAA257
:101E240091E4FCFDFE33FF120530D0E0F9D0E0FA76
:101E3400D0E0FB12058FD2957F2C7E01122C4C7FB3
:101E440001122FA90542E542C3941840AD121E8524
:051E54007F01022FA92F
:101E590092947F2C7E01122C4CD2957F2C7E0112FC
:101E69002C4C22C2957F2C7E01122C4C22C2937FCE
:101E79002C7E01122C4C7F01122FA922D2937F2C88
:101E89007E01122C4C227F01122FA90542E542C383
:091E9900227F2C7E01122C4C2248
:0624C2008B3B8A3C893DC2
:1024C800EF75F00A84E5F090189D93C454F0440F1A
:1024D800FD7F0212218E7D127F0112218E122FFFA5
:1024E80090019F12060630903B122B25E49001A321
:1024F800F09001A3E0FFC39405500B12135690010E
:10250800A3E004F080EB122FFF90019F1205CE127A
:102518000522E47B1EFAF9F8C312054B50C8122FA6
:10252800897F00227B017A01799B7F04121D9C9090
:10253800019B1205B5E41203317980784B1210081B
:102548007B0A7AD77923784012011E12111A1205D4
:102558008F12111A12056F1210CA12101812002DBC
:1025680012257A1210CA12022712111A12058F7F29
:012578000161
:01257900223F
:03226E001211004A
:10227100A81E0808E690002B120EE312109B120212
:10228100C4A81E602440220808E6FB90002B120F10
:10229100201205B5E51E2403F81205FA75F045EB89
:1022A100120EFEE04410F0800A0808E6120EFBE070
:1022B10054EFF0A81E0808E6900041120F3B1210DF
:1022C1009B12011EA81E0808E6900045120F5F121E
:1022D10005CE12002DE51E2403F81205FAE4FFFED7
:1022E100FDFC12109E1202C4500CE51E2403F812CC
:1022F100061200000000E51E2403F8E8C0E0120504
:10230100A9121087120227D0E0F81205FAE4FBFAAD
:1023110079207840E8C0E0E51E2403F81205A9D031
:10232100E0F812100E12002D12036FA81EEEF6082F
:10233100EFF6A81EE6FC08E6FDA81E0808E6FF1257
:022341001B4D32
:07234300E51E2407F51E2230
:022A2A008F3AE1
:102A2C00E53A25E0FF7B017A0179971224C2EF6029
:102A3C006F9001971205B512108712011E90019725
:102A4C00120606E53A120FC01205B51210E175F028
:102A5C0045E53A90003D12109512002D1210EA7DBA
:102A6C00C87C421210E112257A1210041210EA7D71
:102A7C00207C4290019712103760054003D38001EF
:102A8C00C340047D0180027D00AF3A122FE0C2AF3B
:102A9C009001971205B5E53A121022120606D2AF34
:012AAC002207
:102F25008F3D8E3C8D3B8C3A7F007E3C7D1C7C46E4
:102F3500AB3DAA3CA93BA83A1202C47003D21122A8
:032F4500C2112294
:1018A7008F3A75F045EF120F461205B5E53A120F5C
:1018B700751210376002500302196D120FDC120502
:1018C700B5E4FBFAF9F8C312054B7009122FFF12A2
:1018D7000FDC1206067478253AF874FE56F674780B
:1018E700253AF874FD12110B120EFEE054FBF0E5D9
:1018F7003A120F9C12104C50147478253AF874045D
:101907004612110C120EFEE04408F080381210A6A1
:1019170012061200000000AF3A12226EE53A120FCB
:101927008E12062B00000000E53A120EE012062B7D
:10193700000000007478253AF874FB12110B120EA0
:10194700FEE054F7F075F045E53A120EFEE0FF2091
:10195700E51475F045E53A120EFEEF4420F0E53A3E
:10196700120FAEE004F075F045E53A120EFEE030D6
:10197700E57675F045E53A900037120676E0FF7593
:10198700F045E53A120FB1E0C39F505C122FFFEC10
:10199700C0E0EDC0E0EEC0E0EFC0E0E53A120FB7FF
:1019A700E075F064A4FFAEF0E4FCFD120FDC120555
:1019B700CE120515121065D0E0FFD0E0FED0E0FD95
:1019C700D0E0FCD312054B501F75F045E53A120ED7
:1019D700FEE054DFF0120FDC12062B00000000744B
:1019E70078253AF8740146F675F045E53A120EFE89
:1019F700E030E50B7A007B647D03AF3A122CA3221B
:022408008F3A09
:10240A00E53A25E004FF7B017A0179971224C2EFAD
:10241A0070030224C1E4FBFA797078411210461263
:10242A00022712108712011E7B007AC0795A784758
:10243A001202271210CA12011E121040ECC0E0ED5F
:10244A00C0E0EEC0E0EFC0E0E53A1210221205B596
:10245A0090004912109012011E121065D0E0FFD0B0
:10246A00E0FED0E0FDD0E0FC12103D9000511210C9
:10247A009012103DE53A120FEC1210E490019712F7
:10248A0010ED7D207C419001971205CE1210181292
:10249A00002D12257AE4FBFA79207841120227905E
:1024AA000197120606C2AF12104675F045E53A12B8
:0724BA000F78120606D2AFF5
:0124C10022F8
:021356008F3EC8
:10135800EF120FF5E020E00302153675F045EF12A5
:101368000EFEE030E70302153674782FF8E630E019
:1013780070EF120F26121037602A4028E53E120F30
:10138800A512104C501E7478253EF8740246F612C9
:101398001121120EF9E04404120EF8E054F7120E6F
:1013A800F81210D3E53E120F26121037502A75F0A6
:1013B80045E53E120F9F12104C501D7478253EF8DB
:1013C80074FD56F67478253EF8740446120EE9E06A
:1013D8004408120EF81210D3122FFF120FCC120667
:1013E800067478253EF8E620E103021491122FFFD7
:1013F800120FC91205B5C3EB9FF53F120F65121006
:101408003775F045600D400BE53E120EFEE0444096
:10141800F08009E53E120EFEE054BFF0E53F60693A
:10142800120F651210375061120F8CC083C08212E0
:1014380005CEE8C0E0E9C0E0EAC0E0EBC0E0121089
:10144800F4120FA8120FFED0E0FBD0E0FAD0E0F9BA
:10145800D0E0F812002DD082D083120EC9120606F1
:10146800120F36120F891210374015120EAC1206E1
:10147800067478253EF874FD56120EE9E054BFF064
:10148800120EDE12153B1206067478253EF8E62089
:10149800E203021536122FFF120FC91205B5C3EB6E
:1014A8009FF53F7003021536120F8CC083C082125D
:1014B80005B5ECC0E0EDC0E0EEC0E0EFC0E0121012
:1014C800F4120F9F120FFE121065D0E0FFD0E0FE5D
:1014D800D0E0FDD0E0FC120029D082D083120EC9E2
:1014E800120606120EF9E030E51E120F8C12104C8F
:1014F8004033120F8C12062B00000000120EDE1271
:10150800062B000000008013120F36120F891210EC
:101518003760025010120EAC120606121121120E7C
:10152800F9E054F7F0120EDE12153B1206067F01A1
:03153800022FA9D6
:10153B001205B5E51E24FCF51EF81205FAAF3E1296
:10154B00226E122FFFE53E25E025E02400F582E414
:05155B003400F58322BD
:101A07008F3A74782FF8E630E00B122FFFE53A1281
:101A17000FCE120606900014120F1EE0FF20E003FF
:101A2700021B1075F045E53A120EFEE0FE30E703A3
:101A3700021B1012112B54066003021B10EE30E537
:101A470003021B10EF20E103021AED120F5A1205D1
:101A5700B5E53A120F8E120606120F4C1205B51293
:101A67000029123019121087120227E4FBFA792095
:101A7700784012100E1202C44003021B10120F1BF3
:101A8700C083C0821205CEE8C0E0E9C0E0EAC0E04A
:101A9700EBC0E0120F4C1205B5120029D0E0FBD0C5
:101AA700E0FAD0E0F9D0E0F812002DD082D083120E
:101AB7000606120F041210375006120F04120606FC
:101AC700120F5A1205B57840120F141210376036EC
:101AD7004034120F5A1205B5E4FBFAF97840120F99
:101AE70018120606802012112B30E01D120F5A1211
:101AF70005B5E53A120F8E120606120F5A1205B5F2
:101B0700120F1B120606121132900014120F5DE01D
:101B170020E02E12112B30E028120F1B12062B008B
:101B2700000000E53A120F8E12062B00000000128B
:101B370010A612061200000000AF3A12226E121110
:061B4700327F01022FA90C
:101EA200E4900195F07F00122FA9900014E020E247
:101EB20065900195E0FF2478F8E630E31A75F04565
:101EC200EF120F461205B5122F25900195E02478E6
:101ED200F874F756F6D210900195E0FF122A2A9074
:101EE2000195E0FF122408900195E0FF1218A790D7
:101EF2000195E0FF121356900195E0FF121A079028
:101F02000195E0FB120EE01205B51210A61205FAB9
:101F1200CFEBCF12226E30B34CE4900196F09001D9
:101F220096E0FB120EE012062B0000000075F04551
:101F3200EB120EFEE04480F0900196E0FB120F8E51
:101F420012062B000000001210A61206120000005A
:101F520000CFEBCF12226E900196E004F0E0C39422
:101F62000540BBD20F20B32B300F28E4900196F02E
:101F7200900196E0FF2478F8740146F675F045EF7B
:101F8200120EFEE0547FF0900196E004F0E0B405FA
:101F9200DFC20F900195E004F0E0C3940550030204
:051FA2001EA7022F89BB
:100026000203DBE86480F8E933E83360110460F02A
:10003600ED33EC337009E8FCE9FDEAFEEBFF220440
:1000460060DED3EB9FEA9EE99DE8C2E78CF0C2F73B
:1000560095F0400CE8CCF8E9CDF9EACEFAEBCFFB07
:100066001203A685D0F05804700320D5B3E80470B7
:10007600075002B2D50203E592D5EC0460F7E4CC52
:10008600C0E0C398F8603B94186008400DD0E0FBD0
:100096000203BDE4FBFAC9FC8028E830E406E4C9A3
:1000A600FBE4CAFCE830E305E4C9CACBFCE8540724
:1000B6006010F8C3E913F9EA13FAEB13FBEC13FC2F
:1000C600D8F130F52FC3E49CFCEF9BFFEE9AFEEDD2
:1000D60099FDD0E0FBEF4E4D4C701222DB0302037C
:1000E600E2EC2CFCEF33FFEE33FEED33FDED30E7B3
:1000F600EB0203BDEF2BFFEE3AFEED39FDD0E0FB40
:1001060050130BBB00030203E5ED13FDEE13FEEFE8
:0801160013FFEC13FC0203BD12
:10011E00EC4D6011E8497017ED33EC3304600DE4DB
:10012E00FCFFFEFD22E933E8330470F80203DB1214
:10013E0003A658046009E4CC248150062850090215
:10014E0003E52840030203E2C0E0EB4A7044B980A5
:10015E0006D0E0FB0203D1EF4E701CBD8008EBFF12
:10016E00EAFEE9FD80EBE98DF0A4FEE5F002020760
:10017E00E9CDF9EAFEEBFFEF89F0A4FCE5F0CE89BC
:10018E00F0A42EFFE435F0CD89F0A42DFEE435F079
:10019E008067EF4E7005BD80D780C3EF8BF0A4ACA7
:1001AE00F0EE8BF0A42CFCE435F0F8EF8AF0A42CE2
:1001BE00E5F038FCE433CB8DF0A42CFCE5F03BF8F5
:1001CE00EE8AF0A42CFCE5F038F8E433CF89F0A4E5
:1001DE002CFCE5F038CF3400CE89F0A42FFFE5F0EB
:1001EE003EFEE433C98DF0A42EFEE5F039CD8AF043
:1001FE00A42FFFE5F03EFEE43DFD33D0E0FB5007BB
:10020E000BBB000F0203E5EC2CFCEF33FFEE33FECD
:06021E00ED33FD0203BDFB
:100224000203E5EC5D046005E8590470030203DB96
:100234001203A6580460F6EC4860F2EC7004FDFE6C
:10024400FF22C860DB2481C85009C39860025006AD
:100254000203E29850CAF582E9294B4A7005AB8241
:100264000203D175F0007C1A7880C3EF9BEE9AEDFF
:1002740099400DC3EF9BFFEE9AFEED99FDE842F025
:10028400DC23ACF0D0E0FFD0E0FED0E0FDAB822078
:10029400E7101BEB60BAEC2CFCEF33FFEE33FEED02
:1002A40033FD0203BDE803F830E705C0F075F00044
:1002B400EF2FFFEE33FEED33FD40B830E7C280AAE6
:1002C40074F8CC6480CCC86480C8F582046043C3ED
:1002D400EB9FF5F0EA9E42F0E99D42F0E89C45F080
:1002E40060305018E5825FFFE582F42B5582FB50A5
:1002F400210ABA001D09B90019088016E5825BFBC2
:10030400E582F42F5582FF50090EBE00050DBD0095
:10031400010CC3EB9FF5F0EA9E42F0E99D42F0E840
:0D0324009C45F06007CC4820E701B3EC22B7
:1003310075F020800E75F010800575F0087D007E47
:10034100007F003392D530D50312053DEC334010C8
:10035100EF33FFEE33FEED33FDEC33FCD5F0ED2250
:0E036100E5F0247EA2D513CC92E7CDCEFF228C
:10036F00EDD2E7CD33EC3392D524814006E4FFFE86
:10037F00FDFC22FCE4CFCECDCC24E0501174FF80E5
:10038F00EDC3CC13CCCD13CDCE13CECF13CF047082
:07039F00F030D5DE02053D40
:0D301900ED33EC3360065004EC6480FC22C3
:10257A008F418E408D3F8C3E74FFFFFEFDFCAB41C8
:10258A00AA40A93FA83EC312054B602C7F807E96C5
:10259A007D187C4BAB41AA40A93FA83E1202C460F9
:1025AA000250157F807E967D187CCBAB41AA40A94C
:1025BA003FA83E1202C45009AF41AE40AD3FAC3E07
:1025CA0022AF41AE40AD3FAC3E12036F8F458E4401
:1025DA008D438C42EC120331C8ECC8C9EDC9CAEE6E
:1025EA00CACBEFCBAF41AE40AD3FAC3E120029E4BF
:1025FA00FBFAF9F81202C4601A401874FF2545F56F
:10260A0045E54434FFF544E54334FFF543E54234F8
:10261A00FFF542AF45AE44AD43AC42EC1203312262
:1003A600E9D2E7C933E833F892D5EDD2E7CD33EC9D
:0703B60033FC5002B2D52216
:1003BD00EC30E7100FBF000C0EBE00080DBD0004A1
:1003CD000BEB6014A2D5EB13FCED92E7FD2274FF4D
:1003DD00FCFDFEFF22E480F8A2D574FF13FC7D80A6
:0303ED00E480EFBA
:0300000002277E56
:0C277E00787FE4F6D8FD7581B20227C513
:1003F000BB010689828A83E0225002E722BBFE020B
:09040000E32289828A83E493223D
:10040900BB010CE58229F582E5833AF583E02250A8
:1004190006E92582F8E622BBFE06E92582F8E222F2
:0D042900E58229F582E5833AF583E493220C
:10043600BB010689828A83F0225002F722BBFE01A5
:02044600F3229F
:10044800F8BB010DE58229F582E5833AF583E8F0EA
:10045800225006E92582C8F622BBFE05E92582C896
:02046800F2227E
:10046A00EF8DF0A4A8F0CF8CF0A428CE8DF0A42EA6
:02047A00FE2260
:10047C00C2D5EC30E709B2D5E4C39DFDE49CFCEE9B
:10048C0030E715B2D5E4C39FFFE49EFE120726C3E6
:10049C00E49DFDE49CFC800312072630D507C3E4E1
:0604AC009FFFE49EFE220A
:1004B200BB010A89828A83E0F5F0A3E02250068715
:1004C200F009E71922BBFE07E3F5F009E3192289D7
:0B04D200828A83E493F5F0740193220A
:1004DD00BB010789828A8302077B500B09C5F02770
:1004ED00F7C5F01937F722BBFE0D09F8E325F0F338
:1004FD00C5F019E338F322F889828A8374019325B4
:08050D00F0C5F0F8E493382278
:0D051500EF2BFFEE3AFEED39FDEC38FC2235
:0E052200C3EF9BFFEE9AFEED99FDEC98FC22D4
:0D053000EF4BFFEE4AFEED49FDEC48FC22CA
:0E053D00C3E49FFFE49EFEE49DFDE49CFC22CF
:10054B00EB9FF5F0EA9E42F0E99D42F0E89C45F006
:01055B00227D
:10055C00E8600FEFC333FFEE33FEED33FDEC33FCFD
:03056C00D8F122A1
:10056F00BB010789828A830205B55005E9F80205A8
:10057F00A9BBFE05E9F802079189828A8302079DCC
:10058F00BB010789828A830206065005E9F8020536
:0A059F00FABBFE05E9F80207CA22C4
:0C05A900E6FC08E6FD08E6FE08E6FF227E
:0C05B500E0FCA3E0FDA3E0FEA3E0FF22B9
:0D05C100E6FB08E6F908E6FA08E6CBF822AA
:0C05CE00E0F8A3E0F9A3E0FAA3E0FB22B0
:1005DA00BB010789828A830205CE5005E9F8020524
:1005EA00C1BBFE05E9F80207AD89828A830207BA10
:0C05FA00ECF608EDF608EEF608EFF6222D
:0C060600ECF0A3EDF0A3EEF0A3EFF02267
:10061200D083D082E493F608740193F608740293AF
:09062200F608740393F6740473E6
:10062B00A8828583F0D083D0821206421206421232
:10063B000642120642E473E493A3C583C5F0C58357
:10064B00C8C582C8F0A3C583C5F0C583C8C582C819
:01065B00227C
:10065C00BB010789828A8302062B5005E9F8020642
:0A066C0012BBFE05E9F80207D622D2
:0C067600A42582F582E5F03583F583228F
:09068200E6FB08E6FA08E6F9229D
:10068B00FAE6FB0808E6F925F0F618E6CA3AF62270
:09069B00EBF608EAF608E9F62284
:1006A400BB010DE58229F582E5833AF5830207EF64
:1006B4005007E92582F8020682BBFE07E92582F885
:1006C4000207F8E58229F582E5833AF583020801F9
:1006D400D083D082F8E4937012740193700DA3A3B5
:1006E40093F8740193F5828883E4737402936860C9
:0606F400EFA3A3A380DFC9
:102D47008B3E8A3F8940E4F546F547E5451545AE94
:102D570044700215444E6033AB41AA42A9431203A3
:102D6700F0FFAB3EAA3FA9400547E547AC467002D6
:102D7700054614F5828C83EF120448EF60CD740189
:102D87002543F543E43542F54280C0AB3EAA3FA94F
:022D97004022D8
:1006FA00EF4E6012EF60010EEDBB010B89828A8317
:10070A00F0A3DFFCDEFA2289F05007F709DFFCA923
:0C071A00F022BBFEFCF309DFFCA9F0227A
:10278A00023032E493A3F8E493A34003F68001F203
:10279A0008DFF48029E493A3F85407240CC8C33350
:1027AA00C4540F4420C8834004F456800146F6DF1F
:1027BA00E4800B0102040810204080903026E47E59
:1027CA00019360BCA3FF543F30E509541FFEE49314
:1027DA00A360010ECF54C025E060A840B8E493A3DB
:1027EA00FAE493A3F8E493A3C8C582C8CAC583CA06
:1027FA00F0A3C8C582C8CAC583CADFE9DEE780BEBE
:01303100009E
:10072600BC000BBE0029EF8DF084FFADF022E4CCB7
:10073600F875F008EF2FFFEE33FEEC33FCEE9DEC80
:10074600984005FCEE9DFE0FD5F0E9E4CEFD22EDC6
:10075600F8F5F0EE8420D21CFEADF075F008EF2F10
:10076600FFED33FD4007985006D5F0F222C398FD01
:050776000FD5F0EA229E
:10077B00C5F0F8A3E028F0C5F0F8E5821582700209
:06078B001583E038F022A6
:0C079100E2FC08E2FD08E2FE08E2FF22A4
:10079D00E493FC740193FD740293FE740393FF22A2
:0D07AD00E2FB08E2F908E2FA08E2CBF822CC
:1007BA00E493F8740193F9740293FA740393FB2295
:0C07CA00ECF208EDF208EEF208EFF2226B
:1007D600D083D082E493F208740193F208740293F2
:0907E600F208740393F274047329
:0907EF00E0FBA3E0FAA3E0F9220B
:0907F800E2FB08E2FA08E2F92232
:0C080100E493FB740193FA740293F92253
:00000001FF
