:03000E0001DA0014
:100C6A00E478DAF675FFDE75FFAD75E104F5E27535
:100C7A00E34075A401F5A5F5A675A72075B16775BA
:100C8A00B20875FF0775FFA5F5FE43B28075EF0838
:100C9A00121A74E4F532F5337D01AF33121C4105A3
:100CAA0033E53370020532C39401E532940040E81B
:100CBA00E4F520C20EC209C211C20BD20DC210C283
:100CCA000FC2B578B8F678B6F618F678BCF6F532EB
:100CDA00F53374BE2533F8E4F60533E533700205BF
:100CEA00326414453270EBE4F532F53374D22533AD
:100CFA00F8E4F60533E533700205326408453270CC
:100D0A00EB121CDC7D05E4FF121C8DE478BBF6783F
:100D1A00B3F678B3E6FF75F010A4246FF582E5F018
:100D2A003410F583E493FE78BB26F6EE600578B3BB
:100D3A000680DFEFD39400402A90107CE493FB7482
:100D4A000193FA740293F974551203FF1203B964FA
:100D5A00556002D20F74AA1203FF1203B964AA6083
:100D6A0002D20F121561EF6003020E51C20D74FF19
:100D7A00F55FF560F561F562E4F563F564FE7F10F1
:100D8A00FDFB7A0079651205EB7537FF753810752A
:100D9A003967753A00753B107B007A007965121A3B
:100DAA0022E4F532F533E533C4F8540FC868FFE599
:100DBA0032C454F048FE746F2FF58274103EF583E6
:100DCA00E493607C74732FF58274103EF583E49388
:100DDA0020E262E4F531E531C378B2965057E53343
:100DEA00C4F8540FC868FFE532C454F048FE746F63
:100DFA002FF58274103EF583E493FD7C00C004C095
:100E0A00057D00747C2FF58274103EF583E493FB14
:100E1A00740193FA740293F978BBE68531F0A4FF62
:100E2A00E92FF9EA35F0FAD007D0061205EB121CC1
:100E3A00DC053180A10533E53370020532020DB0BD
:100E4A007F01121C688016D20DE4FF121C68E5EFC0
:100E5A0030E30AD2030564E56470020563E4F532FF
:100E6A00F5337A007B967D03AF3312184A0533E5D2
:0E0E7A003370020532C39401E532940040E467
:010E88002247
:051CD20078BCE6FF22D2
:0100210022BC
:030023000213F1D4
:1013F100C0E0C0F0C083C082C0D075D00830991C55
:10140100C29978B606E6FF78B866700978B6F6C272
:10141100B5D20A800774D22FF8E6F5992098030215
:1014210014A0209A07200E04C298806FC29A78B542
:10143100E60624BEF8A699C29878B5E6FFB4011372
:1014410078BEE6FE700578B5F68054EE54072402A6
:1014510078BDF6EFB4020E78BDE6B4090878BFE6B0
:10146100240379BDF7D20878B5E6FFB414047600F9
:10147100802DEFC378BD96402678B5E624FFFDE4C4
:1014810034FFFC7B007A0079BE1216B478B5E624ED
:10149100BDF8E66F6002800312068278B57600D04F
:0A14A100D0D082D083D0F0D0E0322A
:1019220078BCE6FF18E68FF0A47C002525FFEC3595
:10193200F0FE78BFE675F010A4247CF582E5F03461
:1019420010F583E493FB740193FA740293F98F8286
:081952008E831203D2FF7D23F6
:10195A008F2B8D2CE52C6010F8E6FFE52BFD7C0023
:10196A00120003A82CC6EFC6852B993099FDC2999F
:01197A00224A
:101BB900C9EFC9EDC39B402378B2E6FFEB2FFFE4E1
:101BC90033FEEDC39FEE6480F8748098500DD20EF9
:101BD900C3ED9B78BCF678B7E9F622C20EE478B774
:021BE900F622E2
:101B0A00C9EFC9BAFF0FBBFF0CED6B7002EC6A702C
:101B1A0027D20E801BC3ED9BEC9A401C78B2E62BB1
:101B2A00FFE43AFEC3ED9FEC9E500DD20EC3ED9B2F
:0F1B3A0078BCF678B7E9F622C20EE478B7F62247
:1006820078BEE6FF54F8F524EF1205C506C8090640
:10069200D30A06E21006E91106F812070B19071F22
:1006A2001A074520074A2807B429086B34088B37F4
:1006B20008BF3908CE4108D74908E0500907610848
:1006C200E4980000093878BFE6FDE560FB7F018011
:1006D2001F78BFE6FC08E6FDAB60AA5F7F018023BE
:1006E200E4FBFD7F03800978BFE6FDE562FB7F0244
:1006F200121BB902093878BFE6FC08E6FDAB62AA14
:10070200617F02121B0A02093878BFE6FDE560FB31
:100712007F01121BB9200E03020938801678BFE64A
:10072200FC08E6FDAB60AA5F7F01121B0A200E03E4
:1007320002093878D2767878B87601D2B575997888
:10074200020938D20B020938C2ACE4F523D2B57DD6
:10075200237F7F12195A7D237F1812195A7D237F16
:100762001712195A78B3E6FF7D2312195A7D23AF67
:100772005F12195A7D23AF6012195A7D23AF61129D
:10078200195A7D23AF6212195A7D23AF6312195A87
:100792007D23AF6412195AE4F52574652525F8E620
:1007A200FF7D2312195A0525E525C3941040EB025B
:1007B200085D78BFE6FFC378B39640030209387537
:1007C200F010EFA4246FF582E5F03410AF82F52922
:1007D2008F2AC2ACE4F523D2B57D237F7F12195A4A
:1007E2007D237F0D12195A852A82852983E493FF7E
:1007F2007D2312195A852A82852983740193FF7DEC
:100802002312195A852A82852983740293FF7D2334
:1008120012195A852A82852983740393FF7D231234
:10082200195A852A82852983740493FF7D2312191C
:100832005AE4F525E52A2405F582E43529F583E510
:10084200822525F582E43583F583E493FF7D231227
:10085200195A0525E525C3940840D9E4FDAF2312B2
:10086200195AC2B5D2AC0209387A007B327D0178BE
:10087200BCE6FF12184A78BFE6F55F08E6F56008A5
:10088200E6F56108E6F562802E7A007B327D01781A
:10089200BCE6FF12184AE4F525E525C378BF965059
:1008A2001674C02525F8E6FF74652525F8C6EFC63F
:1008B2000525E525B410E2D209D20C80797A007BB5
:1008C200327D0178BCE6FF12184A806A78BFE624BE
:1008D200FF9202806178BFE624FF92018058D21114
:1008E20080547A007B327D0178BCE6FF12184AD22E
:1008F2000978D2767878B5E624BDF8E678D3F6782A
:10090200B87602802A7A007B327D017F0012184A73
:1009120078D2767978BFE678D3F67C007D027B00C8
:100922007A0079D21216B478D4EFF678B87603D278
:10093200B578D2E6F599E52464A06003020ACE7880
:10094200BEE664A16003020A0A08E6FFC378B39612
:100952004003020ACE75F010EFA4246FF582E5F091
:100962003410F583E493F52775F010EFA42473F5A2
:1009720082E5F03410F583E49330E235121CD78F10
:1009820027E527247878D2F6E5272401FDE433FC15
:100992007B007A0079D21216B474D32527F8EFF6C9
:1009A200E527240278B8F6D2B578D2E6F599020A9C
:1009B200CE78BFE6FF121CD7C2ACE4F523D2B5E570
:1009C20027D3940640247D237F7F12195A7D23AFBB
:1009D2002712195AE4F525E525C395275007121960
:1009E20022052580F20527020AC3E5272478FF7D28
:1009F2002312195AE4F525E525C395275007121944
:100A020022052580F2020AC378BEE664A2600302D0
:100A12000ACE78B3E6FF78BFE6FEC39F4003020A20
:100A2200CE08E6FDC39F4003020ACEEEC39D4003FB
:100A3200020ACE18E6F525E4F527E525D378C09617
:100A4200501FAF25121CD775F010E525A4246FF5B1
:100A520082E5F03410F583E4932527F527052580F8
:100A6200D9C2ACE4F523D2B57D237F7F12195A7D1A
:100A720023AF2712195A78BFE6F525E525D378C0AA
:100A820096503EE4F52675F010E525A4246FF58214
:100A9200E5F03410F583E493FFE526C39F501E78FA
:100AA200BCE6FF18E68FF0A47C002526FFEC35F0AB
:100AB200FE75F010E52512193A052680C905258034
:100AC200BAE4FDAF2312195AC2B5D2ACE524645878
:100AD200704DFA7B327D0178BCE6FF12184A752E02
:100AE20000752F007530D37B007A0079BF121BEBA3
:100AF2008F27E527247878D2F6E5272401FDE43311
:100B0200FC7B007A0079D21216B474D32527F8EF51
:100B1200F6E527240278B8F6D2B578D2E6F599E55B
:100B22002464806009E52464886003020C697A0009
:100B32007B327D0178BCE6FF12184A78BEE6540784
:100B4200F527B4070A75260108E6F527088005E4AB
:100B5200F52678BFE6F5281527E528C378B3964031
:100B620003020C4175F010E528A4246FF582E5F02C
:100B72003410F583E493FFE527D39F40028F27E4E7
:100B8200F525E525C395274003020C3475F010E5E1
:100B920028A42473F582E5F03410F583E49330E25F
:100BA20003020C2F75F010E528A42470F582E5F0FD
:100BB2003410F583E4936438701BE527D394044022
:100BC20008E526252524C0802A78B5E6C39525FFA9
:100BD20074BC2F801E75F010E528A4246FF582E501
:100BE200F03410F583E493FFC378B5E69F252525FD
:100BF2002624BDF8E6FD78BCE6FF18E68FF0A4FFD8
:100C0200E5257A002FFFEA35F0FE75F010E528A4FD
:100C1200247CF582E5F03410F583E493FB740193B0
:100C2200FA740293F98F828E83ED12041105250264
:100C32000B84AF28121CC9E5246488702A800FE552
:100C420028B4FF2378C0E6F520E524B4881978D2C9
:100C5200767878B5E624BDF8E678D3F678B87602E9
:070C6200D2B578D2E6F59946
:010C69002268
:10700000C2AF75FFDE75FFADE4F537F536D2B5C218
:10701000997599783099FDC299E4F5993099FDC236
:10702000B53098FD859936C298E4F538E53624FDEB
:10703000605214700302710614700302713E24033F
:1070400060030271413098FD859937C298E5372574
:10705000E0FEC3E49400EE94705023E5B654F0448F
:1070600008F5B6758F03E53725E0F53A753B0085E1
:107070003B82F583E4F053B6F0F58F027141753829
:10708000FF027141C2B43098FD859937C298E5B6C8
:1070900054F04408F5B6758F01E53725E0F53A75EB
:1070A0003B00E4FFE4F5393098FD053BE53BAC3AA5
:1070B0007002053A14F5828C83E599F0C29805397F
:1070C000E539B43CE2D2B5C2997599783099FDC2E0
:1070D00099E4F5993099FDC2B50FBF08C7E4F539B9
:1070E0003098FD053BE53BAE3A7002053A14F58257
:1070F0008E83E599F0C2980539E539B420E253B69C
:10710000F0E4F58F803BD2B43098FD859937C29872
:10711000E5377F0025E0FEE4F538FDFC0FEFCAEE11
:10712000CA70010E14F5828A83E4932538F5380D70
:10713000BD00010CED7003EC640270E0800375EF9C
:1071400010D2B5C2997599783099FDC29985389950
:107150003099FDC2B5E53664066003027021D2AFF6
:01716000220C
:1018C300121CDC120021120022200D0B7A007B3245
:1018D3007D017F0012184A300F0B7A007B1E7D01B9
:1018E3007F0012184A300913301010C209E4F5635F
:1018F300F56478DA76F11214ABD20D30110830109A
:1019030005C211127000121CB1E47BF47A01F9F8DC
:0F191300C31205A85002D210300B0375EF10223B
:0B1CBE00120C6A1218C312001B80F801
:1011FF00005EBCE2613FDD83C29C7E20A3FD1F41E8
:10120F009DC3217FFCA2401E5F01E3BD3E6082DCD7
:10121F00237D9FC1421CFEA0E1BF5D0380DE3C62C7
:10122F00BEE0025CDF81633D7C22C09E1D43A1FFB7
:10123F004618FAA427799BC584DA3866E5BB5907A7
:10124F00DB856739BAE406581947A5FB7826C49A97
:10125F00653BD987045AB8E6A7F91B45C6987A2487
:10126F00F8A6441A99C7257B3A6486D85B05E7B977
:10127F008CD2306EEDB3510F4E10F2AC2F7193CD67
:10128F00114FADF3702ECC92D38D6F31B2EC0E5057
:10129F00AFF1134DCE90722C6D33D18F0C52B0EE47
:1012AF00326C8ED0530DEFB1F0AE4C1291CF2D7337
:1012BF00CA947628ABF517490856B4EA6937D58B27
:1012CF005709EBB536688AD495CB2977F4AA481617
:1012DF00E9B7550B88D6346A2B7597C94A14F6A807
:1012EF00742AC896154BA9F7B6E80A54D7896B35F7
:0712FF00DCEEF4FAFDFEFF36
:1016B40015791579A879ECF608EDF61579157915EB
:1016C40079A879C6EBC608C6EAC608C6E9C6E579AC
:0416D40024FCF57984
:1016D800F80808E4F6A879F608F6E5792407F9A8E1
:1016E80079E6FE08E6FFC3099719E76480F8EE6417
:1016F80080985037E5792404F8CBE6CB08E6FA0859
:10170800E6F98F828E831203D2A879080866FFE56E
:10171800792403F8EFF6E69011FF93A8790808F604
:10172800A8790806E61870B20680AFA8790808E616
:01173800FFB1
:07173900E5792409F579228E
:07000300ED6F9011FF93FF68
:01000A0022D3
:0100220022BB
:101C8D00EF701E7598D0E589540F4420F58953C81F
:101C9D00E1438E10ED9012FE93F58DD28ED2ACC233
:031CAD00BCD2AFF7
:011CB0002211
:101A7400D2AFD2A9D2BBE589540F4401F589E4F56C
:101A84008E758CDBF58AD28CF578F577F576F5755D
:101A9400FFEF25E025E024DBF8E4F6EF25E025E080
:101AA40024DCF8E4F6EF25E025E024DDF8E4F6EFA5
:0D1AB40025E025E024DEF8E4F60FBF01D4A4
:011AC1002202
:07161100C0D075D01015795F
:10161800A879E4F6A879E6FFC3940140030216AF5F
:10162800EF25E025E024DEF8E6FFD394004052A839
:1016380079E625E025E024DCF8E67045EF30E01592
:10164800A879E6FF25E025E024DEF8E6D3940140FA
:10165800047D0180067D00A879E6FF121AC2A879E8
:10166800E6FF25E025E024DEF816E66014EF25E025
:1016780025E024DDF8E6FEEF25E025E024DCF8EEA1
:10168800F6A879E625E025E024DCF8E6600116A84E
:1016980079E6FF25E025E024DEF8E67004FD121A5D
:0716A800C2A8790602161C1E
:0516AF000579D0D022F6
:03000B00021B864F
:101B8600C0E0C0F0C083C082C0D075D010758CDCB8
:101B9600E5782401F578E43577F577E43576F5765A
:101BA600E43575F575121611D0D0D082D083D0F0F9
:031BB600D0E0324A
:101C41001579A879EDF61579A879EFF6A879E6FF67
:101C5100C39401500D08E6FEEF25E025E024DBF8F2
:071C6100EEF605790579227A
:10184A0015791579A879EAF608EBF61579A879EDEC
:10185A00F61579A879EFF6A879E6FFC394015052F4
:10186A00EF25E025E024DEF8E67047A879E6FB25B7
:10187A00E025E024DCF8E67039A87908E625E004DA
:10188A00FFA879E6FA25E025E024DEF8EFF6A87944
:10189A000808E6FE08E6FF7C007D0A120433EA2502
:1018AA00E025E024DDF8EFF6EB25E025E024DCF87E
:0918BA00E4F6E5792404F5792235
:101AC200C0D075D0101579A879EDF61579A879EFFF
:101AD200F6A879E6FFC39401501CEF25E025E02427
:101AE200DBF8E66011A87908E670047F0180027FC6
:101AF20000A87908EFF6A879E6700608E624FF92B6
:081B0200B405790579D0D02269
:0C1CB100C2AFAF78AE77AD76AC75D2AFA5
:011CBD002204
:041CDC0075FFA522C9
:041C18008E188F197A
:101C1C00E4F51AF51BC3E51B9519E51A9518501434
:101C2C007FE87E031219D01218C3051BE51B70E563
:041C3C00051A80E124
:011C40002281
:0419D0008E1C8F1DBD
:1019D400D3E51D94FAE51C9400500AEFD39400401B
:1019E4003C001F80F6851C1E851D1FD3E51F94FA3D
:1019F400E51E940040157FFA7E001219D074062566
:101A04001FF51F74FF351EF51E80E0D3E51D9400FD
:0D1A1400E51C94004007AF1FAE1E1219D054
:011A210022A2
:08197B008B3A8A3B893C8D3D4B
:10198300121CDCAB3EAA3FA9401204692400FFE508
:10199300F03460FE853A41853B42853C43E4FDEDEE
:1019A300C3953D501BEF2DF582E43EF583E493ABE5
:1019B30041AA42A9438D827583001204110D80DF71
:0D19C300AB3EAA3FA940E4853DF00204942C
:0617CC008B3C8A3D893EC2
:1017D20078DAE664F17070C2AFE5B654F04408F509
:1017E200B6758F01AB40AA41A9421204692400FFD9
:1017F200E5F03460F5438F44853C45853D46853EA2
:1018020047E4FFEFC39D5026AB450547E547AA468F
:101812007002054614F91203B9FE0544E544AA43D1
:101822007002054314F5828A83EEF00F80D5E4F549
:101832008F53B6F0CFEDCFAB40AA41A9428FF01241
:071842000494D2AF121CDC7C
:01184900227C
:101B490078DAE664F17035C2AFE5B654F04408F5C9
:101B5900B6758F03906000E4FFFEE4F0121CDC25EB
:101B690082F58274023583F5830FBF00010EEF649D
:0C1B7900084E70E6E4F58F53B6F0D2AFD2
:011B8500223D
:1014AB007A007B327D037F0312184A121B49E4F545
:1014BB003AF53BF54075410075423AFB7A00795F8E
:1014CB007D161217CCE4F537E537C378B296506723
:1014DB00E4F53675F010E536A4246FF582E5F034AB
:1014EB0010F583E493604C78BBE68537F0A4FFAE30
:1014FB00F075F010E536A4247CF582E5F03410F598
:10150B0083E493FB740193FA7402932FF9EA3EFA86
:10151B0075F010E536A4246FF582E5F03410F583F1
:10152B00E493FD75400075410075423A1217CC05E6
:10153B003680A005378091753812753934754000A7
:10154B0075410075423A7B007A0079387D0212179B
:05155B00CCE478DAF693
:011560002268
:10156100E4F538F539F53E753F00754038FB7A00F2
:10157100795F7D1612197BE4F535E535C378B296AE
:101581005067E4F53475F010E534A4246FF582E575
:10159100F03410F583E493604C78BBE68535F0A414
:1015A100FFAEF075F010E534A4247CF582E5F0344B
:1015B10010F583E493FB740193FA7402932FF9EA13
:1015C1003EFA75F010E534A4246FF582E5F034108D
:1015D100F583E493FD753E00753F0075403812199F
:1015E1007B053480A005358091753E00753F0075FF
:1015F10040387B007A0079367D0212197BE5376429
:0F160100347004E536641270047F0180027F00AC
:0116100022B7
:101067005343532D34303000015A000000506F773E
:10107700657230000000007A015A000000506F7757
:10108700657231000000007B015A000000506F7745
:10109700657232000000007C015A000000506F7733
:1010A700657233000000007D015A000000506F7721
:1010B700657234000000007E015A000000506F770F
:1010C700657235000000007F015A000000506F77FD
:1010D7006572360000000080015A000000506F77EB
:1010E7006572370000000081040800000154656D37
:1010F7007030000000000082040800000154656D94
:101107007031000000000086040800000154656D7E
:10111700703200000000008A040800000154656D69
:10112700703300000000008E040800000154656D54
:101137007034000000000092040800000154656D3F
:101147007035000000000096040800000154656D2A
:10115700703600000000009A040800000154656D15
:10116700703700000000009E02080000024F6673FF
:1011770030000000000000A202080000024F667362
:1011870031000000000000A402080000024F66734F
:1011970032000000000000A602080000024F66733C
:1011A70033000000000000A802080000024F667329
:1011B70034000000000000AA02080000024F667316
:1011C70035000000000000AC02080000024F667303
:1011D70036000000000000AE02080000024F6673F0
:1011E70037000000000000B0000000000000000011
:0811F7000000000000000000F0
:0900110001B201014800014D009B
:101C6800E4F5BA75BCE075E88075D10375D4807564
:101C7800D78075A5FFEF600CE4FF747A2FF8E4F6BF
:041C88000FBF08F68C
:011C8C002235
:091CC9001579A879EFF6057922DE
:051CD7008F2B7F0022AD
:101BEB008B2B8A2C892D1203B9AB2EAA2FA930125D
:101BFB0003FFAB2BAA2CA92D9000011203D2AB2E05
:0D1C0B00AA2FA9309000011204117F0222BF
:10130600E54D7017E548045407F548540FF5BB75CD
:10131600BCE0E4F54CF54BF54AF549E4F531C2AFCE
:10132600C2EDD2EC30EDFDD2AFAFBFEFFEADBEEDFC
:10133600FFE4FCFDE54C2FF54CE54B3EF54BED355A
:101346004AF54AEC3549F5491218C30531E531C36A
:10135600941040CA054DE54D60030213F0AF4CAE44
:101366004BAD4AAC49FB7A01F9F81205088F4C8E51
:101376004B8D4A8C49E4120331E4FBFA79807847B5
:10138600120227E4FBFA79FA784312011E8F358E92
:10139600348D338C32AB35AA34A933A832E8C0E099
:1013A600E9C0E0EAC0E0EBC0E0E54825E024A2F8A9
:1013B600E6FC08E6FDEC120336E4FBFA79C878424F
:1013C600120227D0E0FBD0E0FAD0E0F9D0E0F81224
:1013D600002D8F358E348D338C32C2AFE54825E033
:0A13E60025E02482F81205B9D2AF09
:0113F00022DA
:100E8900121CB1AB55AA54A953A852C31205A87094
:100E990003021066121CB18F558E548D538C52E487
:100EA900F531747A2531F9C3E7648094E44003028B
:100EB9000FE2121CB1C3EF9551F539EE9550F53893
:100EC900ED954FF537EC954EF536747A2531F8E600
:100ED900FF3395E0FEFDFCAB39AA38A937A836C324
:100EE9001205A85003020FE2747A2531F8E6FF33A0
:100EF90095E0FEFDFCECC0E0C9EDC9CAEECACBEF36
:100F0900CB747A2531F8E6FF3395E0FEFDFCD0E09D
:100F1900F8C3EF9BFFEE9AFEED99FDEC98FCE41205
:100F290003318F358E348D338C32E4FFFEFDFCABFB
:100F390035AA34A933A8321202C46028747A25313B
:100F4900F8E6FF3395E0FEFDFCEF2401FFE43EFEE9
:100F5900E43DFDE43CFCAB39AA38A937A836C312F5
:100F690005A84010AF317401C8EFC8088002C33327
:100F7900D8FC805AE556D39400405874572531F867
:100F8900E6FCE412033BECC0E0EDC0E0EEC0E0EFAC
:100F9900C0E0AC56E412033BC8ECC8C9EDC9CAEEBF
:100FA900CACBEFCBD0E0FFD0E0FED0E0FDD0E0FC33
:100FB900120227AB35AA34A933A8321202C450133E
:100FC900AF317401C8EFC8088002C333D8FCF452AA
:100FD90090800674572531F8060531E531C3940828
:100FE9005003020EAB121CB1C3EF9551FFEE9550A1
:100FF900FEED954FFDEC954EFCE47B64FAF9F8D3D0
:101009001205A85058121CB18F518E508D4F8C4E1D
:101019008F558E548D538C52E4F531747A2531F9FC
:10102900D3E7648094804010AF317401C8EFC808D9
:101039008002C333D8FC42900531E531B408DCE5C0
:10104900560475F00A8485F056E5567010F531742A
:0D105900572531F8E4F60531E531B408F211
:011066002267
:06001B00121306020E891B
:100026000203A4E86480F8E933E83360110460F061
:10003600ED33EC337009E8FCE9FDEAFEEBFF220440
:1000460060DED3EB9FEA9EE99DE8C2E78CF0C2F73B
:1000560095F0400CE8CCF8E9CDF9EACEFAEBCFFB07
:1000660012036F85D0F05804700320D5B3E80470EE
:10007600075002B2D50203AE92D5EC0460F7E4CC89
:10008600C0E0C398F8603B94186008400DD0E0FBD0
:10009600020386E4FBFAC9FC8028E830E406E4C9DA
:1000A600FBE4CAFCE830E305E4C9CACBFCE8540724
:1000B6006010F8C3E913F9EA13FAEB13FBEC13FC2F
:1000C600D8F130F52FC3E49CFCEF9BFFEE9AFEEDD2
:1000D60099FDD0E0FBEF4E4D4C701222DB0302037C
:1000E600ABEC2CFCEF33FFEE33FEED33FDED30E7EA
:1000F600EB020386EF2BFFEE3AFEED39FDD0E0FB77
:1001060050130BBB00030203AEED13FDEE13FEEF1F
:0801160013FFEC13FC02038649
:10011E00EC4D6011E8497017ED33EC3304600DE4DB
:10012E00FCFFFEFD22E933E8330470F80203A4124B
:10013E00036F58046009E4CC24815006285009024C
:10014E0003AE2840030203ABC0E0EB4A7044B98013
:10015E0006D0E0FB02039AEF4E701CBD8008EBFF49
:10016E00EAFEE9FD80EBE98DF0A4FEE5F002020760
:10017E00E9CDF9EAFEEBFFEF89F0A4FCE5F0CE89BC
:10018E00F0A42EFFE435F0CD89F0A42DFEE435F079
:10019E008067EF4E7005BD80D780C3EF8BF0A4ACA7
:1001AE00F0EE8BF0A42CFCE435F0F8EF8AF0A42CE2
:1001BE00E5F038FCE433CB8DF0A42CFCE5F03BF8F5
:1001CE00EE8AF0A42CFCE5F038F8E433CF89F0A4E5
:1001DE002CFCE5F038CF3400CE89F0A42FFFE5F0EB
:1001EE003EFEE433C98DF0A42EFEE5F039CD8AF043
:1001FE00A42FFFE5F03EFEE43DFD33D0E0FB5007BB
:10020E000BBB000F0203AEEC2CFCEF33FFEE33FE04
:06021E00ED33FD02038632
:100224000203AEEC5D046005E8590470030203A404
:1002340012036F580460F6EC4860F2EC7004FDFEA3
:10024400FF22C860DB2481C85009C39860025006AD
:100254000203AB9850CAF582E9294B4A7005AB8278
:1002640002039A75F0007C1A7880C3EF9BEE9AED36
:1002740099400DC3EF9BFFEE9AFEED99FDE842F025
:10028400DC23ACF0D0E0FFD0E0FED0E0FDAB822078
:10029400E7101BEB60BAEC2CFCEF33FFEE33FEED02
:1002A40033FD020386E803F830E705C0F075F0007B
:1002B400EF2FFFEE33FEED33FD40B830E7C280AAE6
:1002C40074F8CC6480CCC86480C8F582046043C3ED
:1002D400EB9FF5F0EA9E42F0E99D42F0E89C45F080
:1002E40060305018E5825FFFE582F42B5582FB50A5
:1002F400210ABA001D09B90019088016E5825BFBC2
:10030400E582F42F5582FF50090EBE00050DBD0095
:10031400010CC3EB9FF5F0EA9E42F0E99D42F0E840
:0D0324009C45F06007CC4820E701B3EC22B7
:1003310075F020800E75F010800575F0087D007E47
:10034100007F003392D530D50312059AEC3340106B
:10035100EF33FFEE33FEED33FDEC33FCD5F0ED2250
:0E036100E5F0247EA2D513CC92E7CDCEFF228C
:10036F00E9D2E7C933E833F892D5EDD2E7CD33ECD4
:07037F0033FC5002B2D5224D
:10038600EC30E7100FBF000C0EBE00080DBD0004D8
:100396000BEB6014A2D5EB13FCED92E7FD2274FF84
:1003A600FCFDFEFF22E480F8A2D574FF13FC7D80DD
:0303B600E480EFF1
:03000000021740A4
:0C174000787FE4F6D8FD7581DE02178783
:1003B900BB010689828A83E0225002E722BBFE0242
:0903C900E32289828A83E4932275
:1003D200BB010CE58229F582E5833AF583E02250E0
:1003E20006E92582F8E622BBFE06E92582F8E2222A
:0D03F200E58229F582E5833AF583E4932244
:1003FF00BB010689828A83F0225002F722BBFE01DD
:02040F00F322D6
:10041100F8BB010DE58229F582E5833AF583E8F021
:10042100225006E92582C8F622BBFE05E92582C8CD
:02043100F222B5
:10043300C2D5EC30E709B2D5E4C39DFDE49CFCEEE4
:1004430030E715B2D5E4C39FFFE49EFE120617C33F
:10045300E49DFDE49CFC800312061730D507C3E43A
:060463009FFFE49EFE2253
:10046900BB010A89828A83E0F5F0A3E0225006875E
:10047900F009E71922BBFE07E3F5F009E319228920
:0B048900828A83E493F5F07401932253
:10049400BB010789828A8302066C500B09C5F027C9
:1004A400F7C5F01937F722BBFE0D09F8E325F0F381
:1004B400C5F019E338F322F889828A8374019325FD
:0804C400F0C5F0F8E4933822C2
:1004CC0075F008758200EF2FFFEE33FECD33CDCCE7
:1004DC0033CCC58233C5829BED9AEC99E58298406A
:1004EC000CF582EE9BFEED9AFDEC99FC0FD5F0D647
:1004FC00E4CEFBE4CDFAE4CCF9A88222B800C1B971
:10050C000059BA002DEC8BF084CFCECDFCE5F0CBAE
:10051C00F97818EF2FFFEE33FEED33FDEC33FCEBE7
:10052C0033FB10D703994004EB99FB0FD8E5E4F9A2
:10053C00FA227818EF2FFFEE33FEED33FDEC33FC8F
:10054C00C933C910D7059BE99A4007EC9BFCE99A83
:10055C00F90FD8E0E4C9FAE4CCFB2275F010EF2FC8
:10056C00FFEE33FEED33FDCC33CCC833C810D707C8
:10057C009BEC9AE899400AED9BFDEC9AFCE899F803
:0E058C000FD5F0DAE4CDFBE4CCFAE4C8F92296
:0E059A00C3E49FFFE49EFEE49DFDE49CFC2272
:1005A800EB9FF5F0EA9E42F0E99D42F0E89C45F0A9
:0105B8002220
:0C05B900ECF608EDF608EEF608EFF6226E
:1005C500D083D082F8E4937012740193700DA3A3C5
:1005D50093F8740193F5828883E4737402936860D9
:0605E500EFA3A3A380DFD9
:101A22008B348A358936E4F53CF53DE53B153BAE12
:101A32003A7002153A4E6033AB37AA38A93912030D
:101A4200B9FFAB34AA35A936053DE53DAC3C700281
:101A5200053C14F5828C83EF120411EF60CD740102
:101A62002539F539E43538F53880C0AB34AA35A9C3
:021A720036221A
:1005EB00EF4E6012EF60010EEDBB010B89828A8327
:1005FB00F0A3DFFCDEFA2289F05007F709DFFCA934
:0C060B00F022BBFEFCF309DFFCA9F0228A
:10174C00021CBEE493A3F8E493A34003F68001F2D9
:10175C0008DFF48029E493A3F85407240CC8C3339E
:10176C00C4540F4420C8834004F456800146F6DF6D
:10177C00E4800B010204081020408090000EE47EEF
:10178C00019360BCA3FF543F30E509541FFEE49362
:10179C00A360010ECF54C025E060A840B8E493A329
:1017AC00FAE493A3F8E493A3C8C582C8CAC583CA54
:1017BC00F0A3C8C582C8CAC583CADFE9DEE780BE0C
:01001A0000E5
:10061700BC000BBE0029EF8DF084FFADF022E4CCC7
:10062700F875F008EF2FFFEE33FEEC33FCEE9DEC90
:10063700984005FCEE9DFE0FD5F0E9E4CEFD22EDD6
:10064700F8F5F0EE8420D21CFEADF075F008EF2F20
:10065700FFED33FD4007985006D5F0F222C398FD11
:050667000FD5F0EA22AE
:10066C00C5F0F8A3E028F0C5F0F8E5821582700219
:06067C001583E038F022B6
:00000001FF
