:031B580001710018
:100A6500E47871F6121C0B75E104E4F5E275E344D4
:100A750075A401F5A5F5A675A7E043A44075B16772
:100A850075B20812173CE4FF121BBCE4F538F539C2
:100A95007D01AF39121B310539E53970020538C3BF
:100AA5009402E538940040E8E4F520C20BC208C280
:100AB5000FC20EC20D7871F6C2B5786AF67868F67F
:100AC50018F6786FF6F538F53974082539F582E4A6
:100AD500340CF583E4F00539E539700205386440D6
:100AE500453870E5E4F538F53974482539F582E47B
:100AF500340CF583E4F00539E539700205386440B6
:100B0500453870E5E5EF20E10CE5EF5408D3940096
:100B15004003D38001C392037D08E4FF121A3BE42E
:100B2500786DF67865F6AB62AA63A9647865E6FF29
:100B350075F010A4F58285F083120824FE786D26E1
:100B4500F6EE600578650680DDEFD394004028ABAE
:100B550062AA63A96490000D1209517455120851D7
:100B650012080B64556002D20D74AA1208511208BE
:100B75000B64AA6002D20D120F7F8F37E53720E094
:100B850037C20A74FFF508F509F50AF50BE4F50C0B
:100B9500F50DFE7F10FDFB7A00790E1209A7753D54
:100BA500FF753E17753F957540007541107B007ABE
:100BB50000790E12183F8002D20AE53730E10302B0
:100BC5000C72C20CE4F538F539E539C4F8540FC890
:100BD50068FFE538C454F048FEAB62AA63A9648F88
:100BE50082F5831208247003020C6EE92FF9EA3EA0
:100BF500FA90000412082420E264E4F536E536C3D1
:100C05007885965059E539C4F8540FC868FFE5381A
:100C1500C454F048AB62AA63A9648F82F5831208B5
:100C250024FF7E00C006C0077D00E539C4F8540FD7
:100C3500C868FFE538C454F048FEE92FF9EA3EFAE2
:100C450090000D120951786DE68536F0A429F9EA70
:100C550035F0FAD007D0061209A70536809F053969
:100C6500E53970020538020BCE7F018004D20CE411
:100C7500FF12000E300305786E068004E4786EF6E8
:100C8500786EE6750C00F50DE4F538F5397A007BDC
:100C9500967D03AF391200260539E539700205380E
:090CA500C39402E538940040E418
:010CAE002223
:051C3E00786FE6FF22B3
:03002300020DB912
:100DB900C0E0C0F0C083C082C0D075D000C000C000
:100DC90001C002C003C004C005C006C00730993580
:100DD900C2997868067968E7786A6670117868F662
:020DE900D2092D
:080DEB0075230A0000D523FB6B
:040DF300C2B58017EE
:080DF7007523140000D523FB55
:100DFF007868E62448F582E4340CF583E0F5992011
:100E0F009803020EA3209A08200B05C298020E9F8A
:100E1F00C29A7867E6062408F582E4340CF583E578
:100E2F0099F0C298E6FFB40112900C08E0FE70032F
:100E3F00F68061EE540724027870F6EFB4020D7855
:100E4F0070E6B40907900C09E02403F67867E6FF13
:100E5F00B440047600803DEFC378709640367867D3
:100E6F00E624FFFDE434FFFC7B017A0C79081212B3
:100E7F00D57867E62407F582E4340CF583E06F60DC
:050E8F00047600800F55
:080E94007523140000D523FBB7
:100E9C001200A678677600D007D006D005D004D013
:100EAC0003D002D001D000D0D0D082D083D0F0D0EB
:020EBC00E03222
:1014EB00900C09E075F010A4AB622564F9E5633547
:1014FB00F0FA90000D120951786FE6FF786DE68FC8
:10150B00F0A42526F582E435F0F583120824FF7B41
:05151B00007A007924B4
:101520008F308B318A328933EA494B601612080BAF
:10153000FFE530FD7C00120003AB31AA32A933EF86
:031540001208513D
:081543007534140000D534FBDF
:0E154B008530997F01121B9D3099FDC29922B7
:081BF400786AEFF6C209D2B5D0
:081BFC007530140000D530FB28
:071C0400900C48E0F5992265
:10192700C9EFC9E964017028EDC39B40347885E6A7
:10193700FFEB2FFFE433FEEDC39FEE6480F8748066
:1019470098501ED20BC3ED9B786FF678697601220B
:10195700B90214ED6B700AD20B786FF678697602CC
:0819670022C20BE47869F622AC
:10162300C9EFC9BAFF15BBFF12ED6B7002EC6A700C
:1016330049D20B786FF67869E9F622E964017025DF
:10164300C3ED9BEC9A401C7885E62BFFE43AFEC37E
:10165300ED9FEC9E500DD20BC3ED9B786FF678692E
:101663007601228015B90218ED6B7002EC6A700ADC
:10167300D20B786FF67869760222C20BE47869F6AA
:011683002244
:1000A600900C08E0FF54F8F525EF12098100F009DD
:1000B60000FC0A010C100115110125120139190164
:1000C6004E1A017020017628021029030D33033FD2
:1000D60037036B39037B4103864903905003D8618C
:1000E60002D77003D09800000408900C09E0FDE5E3
:1000F60009FB7F018023900C09E0FCA3E0FDAB091E
:10010600AA087F018027D20B78697603020408903B
:100116000C09E0FDE50BFB7F02121927020408908B
:100126000C09E0FCA3E0FDAB0BAA0A7F0212162322
:10013600020408900C09E0FDE509FB7F011219276E
:10014600200B030204088017900C09E0FCA3E0FDD5
:10015600AB09AA087F01121623200B03020408909C
:100166000C487478F07F0102040575EF100204084C
:10017600C2ACE4F524D2B5FB7A0079247F7F121550
:10018600207B007A0079247F181215207B007A00E4
:1001960079247F041215207865E61215197B007AFA
:1001A600007924AF081215207B007A007924AF0964
:1001B6001215207B007A007924AF0A1215207B00E5
:1001C6007A007924AF0B1215207B007A007924AFD0
:1001D6000C1215207B007A007924AF0D121520E44D
:1001E600F526740E2526F8E61215190526E526C30A
:0F01F600941040EE7B007A007900AF24121520A0
:08020500752F0A0000D52FFB44
:10020D000202C2900C09E0FFC3786596400302021A
:10021D00C9EF75F010A42564F9E56335F085622CFE
:10022D00F52D892EC2ACE4F524D2B5FB7A007924E4
:10023D007F7F1215207B007A0079247F0D12152007
:10024D00AB2CAA2DA92E12080B121519AB2CAA2D09
:10025D00A92E900001121516AB2CAA2DA92E9000D7
:10026D0002121516AB2CAA2DA92E900003121516ED
:10027D00AB2CAA2DA92E900004121516E4F526AB71
:10028D002CE52E2405F9E4352DFA7E00E92526F915
:10029D00EE3AFA12080B1215190526E526C3940835
:0D02AD0040DD7B007A007900AF241215209F
:0802BA00752F0A0000D52FFB8F
:1002C200C2B5D2AC020408900C487478F0E4A3F0F2
:1002D2007F02020405121C267872120945900C480E
:1002E200747CF07872E6A3F008E6A3F008E6A3F0C7
:1002F20008E6A3F07C007D057B017A0C7948121296
:10030200D5900C4DEFF07F06020405900C09E0FF3A
:10031200B4010BA3E0F508A3E0F5090203D0EFB4A2
:100322000209900C0AE0F5080203D0900C09E0B42F
:100332000308A3E0F50AA3E0F50B0203D0E4F526D7
:10034200900C09E0FFE526C39F501C740A2526F590
:1003520082E4340CF583E0FF740E2526F8C6EFC65E
:100362000526E526B410D980657A007B327D0178B6
:100372006FE6FF120026020408900C09E024FF92A7
:1003820002020408900C09E024FF92018078786F41
:10039200E66005752802800B200E05752803800390
:1003A200752801900C487479F0A3E528F07C007D53
:1003B200027B017A0C79481212D5900C4AEFF07F39
:1003C20003121BF4E5286401703CD20F8002D208AC
:1003D200787176F180307A007B327D017F001200E5
:1003E20026900C487479F0900C09E0900C49F07C4E
:1003F200007D027B017A0C79481212D5900C4AEFEB
:10040200F07F03121BF4E52564A060030205FA9055
:100412000C08E064A16003020502A3E0C3786596BC
:1004220040030204F7AB62AA63A964E0FF75F0100F
:10043200A4F58285F083120824F528EF75F010A444
:1004420029F9EA35F0FA90000412082430E23790D4
:100452000C09E0121A7A8F28900C48747FF0A3E5F9
:1004620028F02402FDE433FC7B017A0C7948121255
:10047200D5744A2528F582E4340CF583EFF0E5289B
:100482002403FF0205F7900C09E0FF121A7AC2ACAE
:10049200E4F524D2B5E528D39406402B7B007A00FC
:1004A20079247F7F1215207B007A007924AF2812ED
:1004B2001520E4F526E526C3952850071214EB050E
:1004C2002680F205288018E5282478121519E4F50B
:1004D20026E526C3952850071214EB052680F27BE9
:0A04E200007A007900AF2412152003
:0804EC00752F0A0000D52FFB5B
:1004F4000205E9900C487478F07F010205F7900C2E
:1005040008E064A260030205FA7865E6FFA3E0FE52
:10051400C39F40030205EFA3E0FDC39F4003020510
:10052400EFEEC39D40030205EF900C09E0F526E4CD
:10053400F528900C0AE0FFE526D39F5021AF261240
:100544001A7AAB62AA63A96475F010E526A4F58251
:1005540085F0831208242528F528052680D4C2AC0A
:10056400E4F524D2B5FB7A0079247F7F1215207B31
:10057400007A007924AF28121520900C09E0F526A2
:10058400900C0AE0FFE526D39F5047E4F527AB62C1
:10059400AA63A96475F010E526A4F58285F0831298
:1005A4000824FFE527C39F5025E52675F010A429EC
:1005B400F9EA35F0FA90000D120951786FE6FF78E8
:1005C4006DE68FF0A4252712150F052780C0052698
:0D05D40080AE7B007A007900AF2412152064
:0805E100752F0A0000D52FFB65
:1005E900C2B5D2AC800B900C487478F07F01121B15
:1005F900F4E5256458704DFA7B327D01786FE6FF8A
:1006090012002675330175340C7535497B017A0C56
:100619007909121AAE8F28E5282478900C48F0EF52
:100629002401FDE433FC7B017A0C79481212D5745C
:10063900492528F582E4340CF583EFF0E5282402F6
:10064900FF121BF4E52564806009E52564886003D1
:1006590002080A7869E6B4010F7A007B327D0178D5
:100669006FE6FF120026801AE4F526E526C3788591
:1006790096500F7A007B327D01AF2612002605269F
:1006890080E9900C08E05407F528B4070A7527019A
:10069900A3E0F528A38006E4F527900C09E0F529E5
:1006A9001528E529C378659640030207DEAB62AADF
:1006B90063A96475F010E529A4F58285F083120811
:1006C90024FFE528D39F40028F287869E6B4010901
:1006D900786FE6F52BF52A8009E4F52A7885E61482
:1006E900F52B786FA62A786FE6D3952B400302077E
:1006F900D2E4F526E526C3952840030207C7E52974
:1007090075F010A4AB622564F9E56335F0FA900041
:100719000412082430E2030207C2900001120824DF
:1007290064387041E528D394044011E5272526242F
:100739000AF582E4340CF583E0FD805E7867E6C350
:100749009526FFE49400FE74062FF582740C3EF59D
:1007590083E0FDE52975F010A4AB622564F9E56332
:1007690035F0FA8035AB62AA63A96475F010E52902
:10077900A4F58285F083120824FFC37867E69F25D4
:100789002625272407F582E4340CF583E0FDE529C5
:1007990075F010A429F9EA35F0FA90000D12095103
:1007A900786FE6FF786DE68FF0A4FFE5262FF582D6
:1007B900E435F0F583ED12086305260206FDAF293D
:1007C9001215C1786F060206EF786FA62AE525642F
:1007D90088702E8010E529B4FF27900C0AE0F520D7
:1007E900E525B4881C900C487478F07867E62407EE
:1007F900F582E4340CF583E0900C49F07F02121B7A
:01080900F4FA
:01080A0022CB
:107000007871E664F160030275163009FDC2AF7550
:10701000FFDE75FFADE4F537F536209829E4F53B42
:10702000F53C20981DC3E53C9488E53B9413501231
:0870300075410A0000D541FB87
:10703800053CE53C70E4053B80E0B2B480D485991A
:1070480036C298E536641A60030270FFF53BF53CDA
:0E70580020981DC3E53C9488E53B941350122C
:0870660075410A0000D541FB51
:10706E00053CE53C70E4053B80E030989F85993700
:10707E00C298E4F53BF53C20981DC3E53C9488E5A9
:05708E003B94135012B9
:0870930075410A0000D541FB24
:10709B00053CE53C70E4053B80E020980302701A48
:1070AB00859937C298E4F53BF53C20981DC3E53C28
:0870BB009488E53B9413501288
:0870C30075410A0000D541FBF4
:1070CB00053CE53C70E4053B80E020980302701A18
:0970DB00859937C298D2B5C2991B
:0870E4007541140000D541FBC9
:0670EC007599783099FD52
:0870F20075410A0000D541FBC5
:1070FA00C2B5027508E5366450706EF53BF53C2062
:0D710A00981DC3E53C9488E53B941350129A
:0871170075410A0000D541FB9F
:10711F00053CE53C70E4053B80E020980302701AC3
:09712F00859937C298D2B5C299C6
:087138007541140000D541FB74
:087140007599793099FDC2999F
:087148007541140000D541FB64
:087150007599013099FDC29907
:087158007541140000D541FB54
:06716000E4F5993099FDF1
:0871660075410A0000D541FB50
:0F716E00C2B5027508E5366401702FD2B5C2991B
:08717D007541140000D541FB2F
:087185007599783099FDC2995B
:08718D007541140000D541FB1F
:06719500E4F5993099FDBC
:08719B0075410A0000D541FB1B
:1071A300C2B5027508E5366402600302724DF53B11
:1071B300F53C20981DC3E53C9488E53B941350129D
:0871C30075410A0000D541FBF3
:1071CB00053CE53C70E4053B80E020980302701A17
:1071DB00859937C298E4F538E53713B392B4E537A0
:1071EB0025E0FEC3E49400EE94705024E5377F0055
:1071FB0025E0FEC39460501843B601758F038E3D96
:10720B008F3E853E828E83E4F053B6F0F58F80037C
:07721B007538FFD2B5C299DE
:087222007541140000D541FB89
:08722A007599783099FDC299B5
:087232007541140000D541FB79
:06723A008538993099FD32
:0872400075410A0000D541FB75
:10724800C2B5027508E53664036003027371F53B45
:10725800F53C20981DC3E53C9488E53B94135012F7
:0872680075410A0000D541FB4D
:10727000053CE53C70E4053B80E020980302701A71
:10728000859937C298E4F53BF53C20981DC3E53C51
:087290009488E53B94135012B1
:0872980075410A0000D541FB1D
:1072A000053CE53C70E4053B80E020980302701A41
:1072B000859939C298E5371392B4E53725E0FEC3C6
:1072C000E49400EE9470400302701AE5377D0025C7
:1072D000E0FCC39460400302701A43B601758F014D
:1072E000E53975F020A42DFFE5F03CF53D8F3EE437
:1072F000F53AE53AC394205043E4F53BF53C209839
:0C7300001DC3E53C9488E53B941350123B
:08730C0075410A0000D541FBA8
:10731400053CE53C70E4053B80E020980302701ACC
:10732400053EE53EAE3D7002053D14F5828E83E5D3
:1073340099F0C298053A80B653B6F0E4F58FD2B509
:02734400C299EC
:087346007541140000D541FB64
:08734E007599783099FDC29990
:087356007541140000D541FB54
:06735E00E4F5993099FDF1
:0873640075410A0000D541FB50
:10736C00C2B5027508E5366404600302740DF53B82
:10737C00F53C20981DC3E53C9488E53B94135012D2
:08738C0075410A0000D541FB28
:10739400053CE53C70E4053B80E020980302701A4C
:1073A400859937C298E53725E0F53F754000E4F547
:1073B40038F53BF53C0540E540AE3F7002053F140F
:1073C400F5828E83E4932538F538053CE53C70025C
:0E73D400053B7004E53B640270DBD2B5C29944
:0873E2007541140000D541FBC8
:0873EA007599783099FDC299F4
:0873F2007541140000D541FBB8
:0673FA008538993099FD71
:0874000075410A0000D541FBB3
:10740800C2B5027508E53664056003027500F53BF0
:10741800F53C20981DC3E53C9488E53B9413501235
:0874280075410A0000D541FB8B
:10743000053CE53C70E4053B80E020980302701AAF
:10744000859937C298E4F53BF53C20981DC3E53C8F
:087450009488E53B94135012EF
:0874580075410A0000D541FB5B
:10746000053CE53C70E4053B80E020980302701A7F
:09747000859939C298D2B5C29980
:087479007541140000D541FB30
:0874810075997F3099FDC29955
:087489007541140000D541FB20
:107491007599203099FDE53725E0FCE53975F02037
:1074A100A42400FFE5F03CF53F8F40E4F538F53AC0
:0274B100C2997E
:0874B3007541140000D541FBF6
:1074BB00854082853F83E493F5993099FD0540E53E
:1074CB0040AE3F7002053F14F5828E83E49325385E
:0B74DB00F538053AE53AB420CDC2991F
:0874E6007541140000D541FBC3
:0674EE008538993099FD7C
:0874F40075410A0000D541FBBF
:1074FC00C2B58008E536B4060375EF10E5366407AF
:0A750C00600302701A7871F6D2AF26
:017516002252
:10168400E4FF121B9D12196F200A0B7A007B327D36
:10169400017F00120026300D0B7A007B1E7D017F36
:1016A40000120026300819300E167A007B327D01B4
:1016B400786FE6FF120026C208121195D20AD20CE6
:1016C400300F08300E05C20F127000121C19E47B93
:0E16D4002C7A01F9F8C31209345002D20E220A
:0B1C3300120A651216841210EF80F8F0
:100CAF00005EBCE2613FDD83C29C7E20A3FD1F413D
:100CBF009DC3217FFCA2401E5F01E3BD3E6082DC2D
:100CCF00237D9FC1421CFEA0E1BF5D0380DE3C621D
:100CDF00BEE0025CDF81633D7C22C09E1D43A1FF0D
:100CEF004618FAA427799BC584DA3866E5BB5907FD
:100CFF00DB856739BAE406581947A5FB7826C49AED
:100D0F00653BD987045AB8E6A7F91B45C6987A24DC
:100D1F00F8A6441A99C7257B3A6486D85B05E7B9CC
:100D2F008CD2306EEDB3510F4E10F2AC2F7193CDBC
:100D3F00114FADF3702ECC92D38D6F31B2EC0E50AC
:100D4F00AFF1134DCE90722C6D33D18F0C52B0EE9C
:100D5F00326C8ED0530DEFB1F0AE4C1291CF2D738C
:100D6F00CA947628ABF517490856B4EA6937D58B7C
:100D7F005709EBB536688AD495CB2977F4AA48166C
:100D8F00E9B7550B88D6346A2B7597C94A14F6A85C
:100D9F00742AC896154BA9F7B6E80A54D7896B354C
:0A0DAF0070B8DCEEF4F7FAFDFEFF69
:101B5B00C191420C000000420C040000420C020830
:091B6B0000420C060800014C0ABE
:1012D500151E151EA81EECF608EDF6151E151E1595
:1012E5001EA81EC6EBC608C6EAC608C6E9C6E51EA0
:0412F50024FCF51EC2
:1012F900F80808E4F6A81EF608F6E51E2407F9A87A
:101309001EE6FE08E6FFC3099719E76480F8EE6454
:1013190080985037E51E2404F8CBE6CB08E6FA0896
:10132900E6F98F828E83120824A81E080866FFE555
:101339001E2403F8EFF6E6900CAF93A81E0808F6F2
:10134900A81E0806E61870B20680AFA81E0808E6AF
:01135900FF94
:07135A00E51E2409F51E2227
:07000300ED6F900CAF93FFBD
:01000A0022D3
:0300A300020EBE8C
:100EBE00C0E0C0F0C083C082C0D0E8C0E0E9C0E0AE
:100ECE00EAC0E0EBC0E0ECC0E0EDC0E0EEC0E0EF69
:100EDE00C0E0E5F130E11B900C02E0FEA3E0FF90D4
:100EEE000C06E06E7003A3E06F7002C28653F1FD34
:100EFE00D211E5F130E057900C05E02401FF900C83
:100F0E0004E03400FE900C00E06E7003A3E06F70FE
:100F1E000553F1FE8038900C04E475F0011208BB05
:100F2E0085F082F583E5F2F0900C04E0640870041D
:100F3E00A3E06400700A900C047400F0A37400F037
:100F4E0053F1FE7A007B647D017F01120026D0E012
:100F5E00FFD0E0FED0E0FDD0E0FCD0E0FBD0E0FA28
:100F6E00D0E0F9D0E0F8D0D0D082D083D0F0D0E06D
:010F7E003240
:10196F00900C02E0FEA3E0FF900C06E06E7003A364
:10197F00E06F603130112EC211D286900C02E475E7
:10198F00F0011208BB85F082F583E0F5F2900C02AE
:10199F00E0640C7004A3E06400700A900C027408F9
:0619AF00F0A37400F02219
:1018DE00900C00E0FEA3E0FF900C04E06E7003A3FA
:1018EE00E06F6030900C00E475F0011208BB85F0DB
:1018FE0082F583E0FF900C00E064087004A3E064BE
:10190E0000700A900C007400F0A37400F0BF0D0379
:09191E007F0A222212168480B710
:1019FA00900C00E0FEA3E0FF900C04E06E7003A3DD
:101A0A00E06F602A900C00E475F0011208BB85F0C3
:101A1A0082F583E0FF900C00E064087004A3E064A0
:101A2A0000700D900C007400F0A37400F0227FFF88
:011A3A002289
:0813ED008B578A5889598D5A6B
:1013F500121C198F5F8E5E8D5D8C5CE4F560121991
:10140500FAEFF46037EF640A6032BF0D13AB57AAE9
:1014150058A959856082758300E4120863AF60227C
:10142500AB57AA58A959AE6005608E82758300EF47
:10143500120863E560655A7003AF602212168412C4
:101445001C19C8ECC8C9EDC9CAEECACBEFCBE55B20
:10145500255FFFE4355EFEE4355DFDE4355CFCC3E8
:0714650012093440997F00D9
:01146C00225D
:1019B500900C07E02401FD900C06E03400FC900C2F
:1019C50002E06C7003A3E06D700122900C06E475D3
:1019D500F0011208BB85F082F583EFF0900C06E06C
:1019E500640C7004A3E06400700A900C067408F09F
:0519F500A37400F022C4
:101BDA00900C02E0FEA3E0FF900C06E06E7003A3F7
:0A1BEA00E06F600512196F80E7221A
:101ADB007E007F00900C04EEF0A3EFF0900C00EE74
:101AEB00F0A3EFF07E087F00900C06EEF0A3EFF072
:0B1AFB00900C02EEF0A3EFF0D21122DD
:101A3B00EF70207598D0E589540F4420F58953C871
:101A4B00E1438E10ED900DAE93F58DD28ED2ACC2DC
:101A5B00BC801975F15075C93475E5FFED900DAE6D
:0E1A6B0093F5E443E74053F7BF121ADBD2AF06
:011A7900224A
:10173C00D2AFD2A9D2BBE589540F4401F589E4F5A7
:10174C008E758CDBF58AD28CF552F551F550F54F30
:10175C00F556F555F554F553754B64FFEF25E0251B
:10176C00E02486F8E4F6EF25E025E02487F8E4F69B
:10177C00EF25E025E02488F8E4F6EF25E025E024C9
:08178C0089F8E4F60FBF02D456
:011794002232
:02123800151E81
:10123A00A81EE4F6A81EE6FFC3940240030212D2D7
:10124A00EF25E025E02489F8E6FFD394004052A870
:10125A001EE625E025E02487F8E67045EF30E01524
:10126A00A81EE6FF25E025E02489F8E6D39401408C
:10127A00047D0080067D01A81EE6FF121891A81EB3
:10128A00E6FF25E025E02489F816E66014EF25E05C
:10129A0025E02488F8E6FEEF25E025E02487F8EE2D
:1012AA00F6A81EE625E025E02487F8E6600116A8E0
:1012BA001EE6FF25E025E02489F8E670057D011287
:0812CA001891A81E0602123E55
:0312D200051E22D4
:03000B0002146D6F
:10146D00C0E0C0F0C083C082C0D0E8C0E0E9C0E0F9
:10147D00EAC0E0EBC0E0ECC0E0EDC0E0EEC0E0EFB4
:10148D00C0E0758CDCE5522401F552E43551F5517F
:10149D00E43550F550E4354FF54FD54B18E556244E
:1014AD0001F556E43555F555E43554F554E4355309
:1014BD00F553754B64121238121B7DD0E0FFD0E04E
:1014CD00FED0E0FDD0E0FCD0E0FBD0E0FAD0E0F9BA
:0E14DD00D0E0F8D0D0D082D083D0F0D0E03272
:101B3100151EA81EEDF6151EA81EEFF6A81EE6FF3F
:101B4100C39402500D08E6FEEF25E025E02486F857
:071B5100EEF6051E051E2241
:10002600151E151EA81EEAF608EBF6151EA81EEDEF
:10003600F6151EA81EEFF6A81EE6FFC39402505240
:10004600EF25E025E02489F8E67047A81EE6FB25A3
:10005600E025E02487F8E67039A81E08E625E004C6
:10006600FFA81EE6FA25E025E02489F8EFF6A81E8B
:100076000808E6FE08E6FF7C007D0A120885EA25E8
:10008600E025E02488F8EFF6EB25E025E02487F864
:09009600E4F6E51E2404F51E2227
:10189100151EA81EEDF6151EA81EEFF6A81EE6FFE2
:1018A100C39402501CEF25E025E02486F8E6601180
:1018B100A81E08E670047F0180027F00A81E08EFC1
:1018C100F6A81EE6700608E624FF92B4A81EE6B448
:0D18D100010608E624FF92B3051E051E2245
:0C1C1900C2AFAF52AE51AD50AC4FD2AFD5
:011C2500229C
:0C1C2600C2AFAF56AE55AD54AC53D2AFB8
:011C3200228F
:101B9D00EF7004F54DF54E301014E54C75F064A45E
:0F1BAD00FFC3E54E9FE54D95F0500375FFA52250
:101BBC00D210E4F54DF54EEF6004F54C8003754CF6
:0E1BCC000A75FF0775FFA543B28075EF092269
:0E1C0B00C210E4F54DF54E75FFDE75FFAD22FB
:101B7D00054EE54E7002054D301014E54C75F064C0
:101B8D00A4FFC3E54E9FE54D95F0500375FFA522CB
:041B06008E3B8F3C47
:101B0A00E4F53DF53EC3E53E953CE53D953B501673
:101B1A007FE87E031217ED7F01121B9D053EE53E0D
:061B2A0070E3053D80DFC1
:011B30002292
:0417ED008E3F8F405C
:1017F100D3E54094FAE53F9400500AEFD3940040BA
:101801003C001F80F6853F41854042D3E54294FA72
:10181100E541940040157FFA7E001217ED7406250C
:1018210042F54274FF3541F54180E0D3E540940033
:0D183100E53F94004007AF42AE411217EDB5
:01183E002287
:1015590075450075460075473F7B007A00793D7DEA
:01156900027F
:08156A008B418A4289438D4444
:101572007F01121B9DAB45AA46A9471208D1240040
:10158200FFE5F03460FE85414885424985434AE4DF
:10159200FDEDC39544501BEF2DF582E43EF583E447
:1015A20093AB48AA49A94A8D827583001208630D3C
:0F15B20080DFAB45AA46A947E48544F00208FC58
:10103D0075381275393475400075410075423A7B2B
:07104D00007A0079387D02F2
:081054008B3C8A3D893E8D3F73
:10105C007871E664F160030210EE121C0BC2AF4310
:10106C00B601758F01AB40AA41A9421208D12400E8
:10107C00FFE5F034607876F608EFF6AA3DA93E78E5
:10108C007AA63C08C6EAC608C6E9C6E47878F678BB
:10109C0078E6C3953F5032787ACBE6CB080806E663
:1010AC0018CAE6CA70010614F912080B7879F6E62C
:1010BC00FF78760806E618CCE6CC70010614F582AB
:1010CC008C83EFF078780680C6E4F58F53B6F0ABDE
:1010DC0040AA41A942853FF01208FCD2AFE4FF12AE
:0210EC001BBC2B
:0110EE0022DF
:1016E2007871E664F17052C2AF121C0B43B60175F9
:1016F2008F0378787660087600E47876F608F678D4
:1017020078E6FE08E6F5828E83E4F07F01121B9DE7
:10171200E426F618740236F61806E618700106C3B7
:101722007877E6940818E66480948040D2E4F58FD6
:0917320053B6F0D2AFFF121BBC4C
:01173B00228B
:101195001216E2E4F53AF53BF54075410075423A21
:1011A500FB7A0079087D1612105412103DE4F537CC
:1011B500E537C37885965073E4F536AB62AA63A923
:1011C5006475F010E536A4F58285F0831208246075
:1011D50056E53675F010A429F9EA35F0FA90000DB8
:1011E500120951786DE68537F0A429F9EA35F0FA48
:1011F500EBC0E0EAC0E0E9C0E0AB62AA63A96475B0
:10120500F010E536A4F58285F083120824FD7540BB
:101215000075410075423AD0E0F9D0E0FAD0E0FB24
:10122500121054053680940537808512103DE478F8
:0212350071F650
:011237002294
:100F7F00E4F53FF540F53CF54575460075473FFBF9
:100F8F007A0079087D1612156A121559E53E6434F8
:100F9F007004E53D64127003433C01E4F53BE53B0F
:100FAF00C37885965073E4F53AAB62AA63A964756A
:100FBF00F010E53AA4F58285F0831208246056E517
:100FCF003A75F010A429F9EA35F0FA90000D1209DC
:100FDF0051786DE6853BF0A429F9EA35F0FAEBC0BC
:100FEF00E0EAC0E0E9C0E0AB62AA63A96475F01063
:100FFF00E53AA4F58285F083120824FD7545007546
:10100F00460075473FD0E0F9D0E0FAD0E0FB12156B
:10101F006A053A8094053B8085121559E53E643484
:0D102F007004E53D64127003433C02AF3CC9
:01103C002291
:101795005343532D32323000013700000452533485
:1017A500383500000000000020380000004F757437
:1017B5007075740000010C882038000000496E70B7
:1017C5007574000000010CA8013900000042617524
:1017D5006400000000010CC80000000000000000CB
:0817E5000000000000000000FC
:081B74000185010362FF179DCA
:10000E00EF6006900CC87403F0900CC8E0FD7F0101
:03001E00021A3B88
:0A15C100151EA81EEFF6151E151EDC
:1015CB00A81E0808E67031900C09E014A81E08F656
:1015DB00A81EE4F6A81E08C9E8C9A81EE6FFC39713
:1015EB005014740B2FF582E4340CF583E0FF1219C1
:1015FB00B5A81E0680DED212A81E0808E6FFB401AD
:10160B0002D213EFB4030A900CC8E0FD7F01121A4B
:01161B003B93
:07161C00051E051E051E223C
:101A7A00EF702EF5311219FA8F30E530F4601FAF8E
:101A8A0031EF3395E0FE744A2FF582740C3EF583EC
:101A9A00E530F00531C3E531648094A040D7AF3119
:031AAA00227F0098
:011AAD002216
:101AAE008B308A31893212080BAB33AA34A9351226
:101ABE000851AB30AA31A932900001120824AB3381
:0D1ACE00AA34A9359000011208637F02229E
:1010EF00301205C212121BDA30134EC213E4F5612F
:1010FF00F53674A82536F582E4340CF583E4F00553
:10110F0036E536B420ECE4F53674882536F582E4FE
:10111F00340CF583E0FF60161219B5121BDA7F0A43
:10112F007E00121B060536E536C3942040DB121CE9
:10113F00198F3A8E398D388C37121C19C3EF953AA7
:10114F00FFEE9539FEED9538FDEC9537FCE47B2CE1
:10115F007A01F9F8D312093440291219FAEFF46021
:10116F0022E561C39420501BAE61056174A82EF572
:10117F0082E4340CF583EFF07A007B327D017F013E
:05118F00120026B287EA
:011194002238
:0300000002136187
:0C136100787FE4F6D8FD75818D0213A89A
:10080B00BB010689828A83E0225002E722BBFE02EB
:09081B00E32289828A83E493221E
:10082400BB010CE58229F582E5833AF583E0225089
:1008340006E92582F8E622BBFE06E92582F8E222D3
:0D084400E58229F582E5833AF583E49322ED
:10085100BB010689828A83F0225002F722BBFE0186
:02086100F32280
:10086300F8BB010DE58229F582E5833AF583E8F0CB
:10087300225006E92582C8F622BBFE05E92582C877
:02088300F2225F
:10088500C2D5EC30E709B2D5E4C39DFDE49CFCEE8E
:1008950030E715B2D5E4C39FFFE49EFE1209D3C32A
:1008A500E49DFDE49CFC80031209D330D507C3E425
:0608B5009FFFE49EFE22FD
:1008BB00A3F8E0C5F025F0F0E582158270021583F0
:0608CB00E0C838F0E8224D
:1008D100BB010A89828A83E0F5F0A3E022500687F2
:1008E100F009E71922BBFE07E3F5F009E3192289B4
:0B08F100828A83E493F5F074019322E7
:1008FC00BB010789828A83020A28500B09C5F0279D
:10090C00F7C5F01937F722BBFE0D09F8E325F0F314
:10091C00C5F019E338F322F889828A837401932590
:08092C00F0C5F0F8E493382255
:10093400EB9FF5F0EA9E42F0E99D42F0E89C45F019
:010944002290
:0C094500ECF608EDF608EEF608EFF622DE
:10095100BB010DE58229F582E5833AF583020A4759
:100961005007E92582F8020A3EBBFE07E92582F815
:10097100020A50E58229F582E5833AF583020A5994
:10098100D083D082F8E4937012740193700DA3A305
:1009910093F8740193F5828883E473740293686019
:0609A100EFA3A3A380DF19
:10183F008B3A8A3B893CE4F542F543E5411541AECD
:10184F0040700215404E6033AB3DAA3EA93F1208CF
:10185F000BFFAB3AAA3BA93C0543E543AC427002F0
:10186F00054214F5828C83EF120863EF60CD74018B
:10187F00253FF53FE4353EF53E80C0AB3AAA3BA984
:02188F003C22F9
:1009A700EF4E6012EF60010EEDBB010B89828A8367
:1009B700F0A3DFFCDEFA2289F05007F709DFFCA974
:0C09C700F022BBFEFCF309DFFCA9F022CB
:10136D00021C33E493A3F8E493A34003F68001F247
:10137D0008DFF48029E493A3F85407240CC8C33381
:10138D00C4540F4420C8834004F456800146F6DF50
:10139D00E4800B0102040810204080901B58E47E6D
:1013AD00019360BCA3FF543F30E509541FFEE49345
:1013BD00A360010ECF54C025E060A840B8E493A30C
:1013CD00FAE493A3F8E493A3C8C582C8CAC583CA37
:1013DD00F0A3C8C582C8CAC583CADFE9DEE780BEEF
:011B7C000068
:1009D300BC000BBE0029EF8DF084FFADF022E4CC08
:1009E300F875F008EF2FFFEE33FEEC33FCEE9DECD1
:1009F300984005FCEE9DFE0FD5F0E9E4CEFD22ED17
:100A0300F8F5F0EE8420D21CFEADF075F008EF2F60
:100A1300FFED33FD4007985006D5F0F222C398FD51
:050A23000FD5F0EA22EE
:100A2800C5F0F8A3E028F0C5F0F8E5821582700259
:060A38001583E038F022F6
:090A3E00E6FB08E6FA08E6F922DD
:090A4700E0FBA3E0FAA3E0F922B0
:090A5000E2FB08E2FA08E2F922D7
:0C0A5900E493FB740193FA740293F922F9
:00000001FF
