:1040FB0020202020557067726164696E6700202054
:0E410B0020204669726D776172652E2E2E009F
:103A7600018C000108FF42000AFFFF44000C000011
:023A860000003E
:10302F00E52AAB78AA79A97A75F01FA4F58285F005
:10303F0083020721E52D90000475F01FA4AB7825BE
:10304F007AF9E57935F0FA020721900003EFF07B6A
:10305F00017A0079002275F01FA429F9EA35F0FAF8
:10306F0022AB78AA79A97A227882E6240FF582E436
:10307F003400F583E02290000D0209D3AE3DAF3E40
:10308F007C007D1F120782E92FF9EA3EFA2275F0C4
:10309F001FA4AB78257AF9E57935F02290005074AA
:1030AF0078F022853E82853D83741F1209A00207A6
:1030BF0021900011E0FCA3E0FDAB0AAA097F0122D9
:1030CF00D216C3ED9B788AF67884760122D21678D1
:1030DF008AF6788422900011E0FDE50AFB7F012239
:1030EF00FF7B007A00792822788AE6FF7888E68FBE
:1030FF00F0A4227A007B327D0122900012E0FFE5DE
:0E310F002AD39F2290001C1207F5FFAEF0227B
:10239800E4788CF61241B075840F75E104E4F5E237
:1023A80075E344F58475B7B075840F438901758D5D
:1023B80001758F01758E04F53DF53E053EE53E70CD
:1023C80002053D640F453D70F2438902758A8375A5
:1023D8009702123DADE4FF124119E4F53DF53E7D4B
:1023E80001AF3E124190053EE53E7002053DC394A3
:1023F80003E53D940040E8E4F520C216C213C21A72
:10240800C219C218788CF6C2857885F67883F618D2
:10241800F6788AF6F53DF53E7410253EF582E434EB
:1024280000F583E4F0053EE53E7002053D64404555
:102438003D70E5E4F53DF53E7450253EF582E43403
:1024480000F583E4F0053EE53E7002053D64404535
:102458003D70E5E4F584E5EF20E10CE5EF5408D3A1
:1024680094004003D38001C392037D08E4FF123C2B
:102478001E7D087F01123C1E1236F7E47888F67834
:1024880080F61230707880E6FF123037FE788826A2
:10249800F6EE600578800680E9EFD39400402212BA
:1024A8003070123085745512074E12070864556053
:1024B80002D21874AA12074E12070864AA6002D240
:1024C800181232E78F3CE53C20E037C21574FFF55F
:1024D80009F50AF50BF50CE4F50DF50EFE7F10FD78
:1024E800FB7A00790F120A29754AFF754B12754C51
:1024F80049754D00754E107B007A00790F123BCC60
:102508008002D215E53C20E162C217E4F53DF53EB4
:102518001230701230B2604F12308B9000041207E4
:102528002120E238E4F53BE53BC378A496502D1210
:1025380030701230B2FF7E00C006C0077F00C007AF
:1025480012308B1230857888E6853BF0123068D0DF
:1025580005D007D006120A29053B80CB053EE53E8B
:102568007002053D0225187F018004D217E4FF128E
:10257800277E3003057889068004E47889F678890F
:10258800E6750D00F50EE4F53DF53E7A007B967D87
:1025980003AF3E123B7A053EE53E7002053DC3940B
:0725A80003E53D940040E44F
:0125AF002209
:0541EB00788AE6FF22C6
:03002300022F2584
:102F2500C0E0C0F0C083C082C0D075D000C000C072
:102F350001C002C003C004C005C006C00730993FE8
:102F4500C2997883067983E778856670167883F663
:022F5500D21494
:0D2F570075260A75271300D527FCD526F630
:042F6400C285801C86
:0D2F680075261475271300D527FCD526F615
:102F75007883E62450F582E43400F583E0F5992062
:102F85009803023014209A08201605C298023010C2
:102F9500C29A7882E6062410F582E43400F583E5CA
:102FA50099F0C298E6FFB40112900010E0FE70039C
:102FB500F6805CEE54072402788BF6EFB4020D78A8
:102FC5008BE6B40907900011E02403F67882E6FF4A
:102FD500B4400476008038EFC3788B964031788210
:102FE500E624FFFDE434FFFC7B017A0079101237FB
:0B2FF500F71230776F60047600801444
:0D30000075261475271300D527FCD526F67C
:10300D00120B3C78827600D007D006D005D004D0C4
:10301D0003D002D001D000D0D0D082D083D0F0D058
:02302D00E0328F
:103DF8008F358B368A378938E4F584EA494B601C5D
:103E0800AB36AA37A938120708FFE535FD7C001242
:0C3E18000003AB36AA37A938EF12074EA2
:0D3E2400753914753A1300D53AFCD539F6FE
:0E3E31008535997F011241373099FDC29922E3
:0B40BD00E4F5847885EFF6C214D2858C
:0D40C80075351475361300D536FCD535F668
:0740D500900050E0F5992274
:103F4B00C9EFC9E96401701FEDC39B402778A4E654
:103F5B00FFEB2FFFE433FEEDC39FEE6480F874801C
:103F6B009850111230CF22B90210ED6B700612303F
:0B3F7B00DC760222C216E47884F622F5
:103C6F00C9EFC9BAFF11BBFF0EED6B7002EC6A70A2
:103C7F00381230DCE9F622E96401701CC3ED9BECCD
:103C8F009A401378A4E62BFFE43AFEC3ED9FEC9E17
:103C9F0050041230CF228011B90214ED6B7002EC78
:103CAF006A70061230DC760222C216E47884F6229D
:100B3C00900010E0FF54F8F529E4F584EF120A0355
:100B4C000B89090B8E0A0B93100B9C110BAC120B1F
:100B5C00C0190BCE1A0BE2200BEB280C41290CFC14
:100B6C00330D2E370D5A390D60410D6B490D7550F3
:100B7C000DB2610CC6700DAA9800000DD41230E4B1
:100B8C0080181230C08027D21678847603020DD4D8
:100B9C00900011E0FDE50CFB7F02123F4B020DD4DF
:100BAC00900011E0FCA3E0FDAB0CAA0B7F02123C01
:100BBC006F020DD41230E4123F4B201603020DD4F9
:100BCC00800C1230C0123C6F201603020DD4123070
:100BDC00AB7F01020DD1E4F58475EF10020DD41238
:100BEC0010F57F181211B87F04123DF8788012119D
:100BFC00C2AF09121146AF0A123DF87B00AF0B12BF
:100C0C00116AAF0C1211B8AF0D123DF81230F0AFE3
:100C1C000E1211F9740F252AF81211C2052AE52AB1
:050C2C00C3941040EF2D
:0D0C310012119A75341300D534FCD533F63A
:100C3E00020CB4900011E0FFC3788096506FEF75F0
:100C4E00F01FA41230A3857830F53189321210F5D9
:100C5E007F0D123DF8AB30AA31A93212118C9000E3
:100C6E0001121156900002121156900003121178C3
:100C7E00900004121178E4F52AAB30E5322405F920
:100C8E00E43531FA7E00E9252AF9EE3AFA12118C92
:090C9E00052AE52AC3940840E090
:0D0CA70012119A75341300D534FCD533F6C4
:100CB400C285D2AC020DD41230ABE4A3F07F0202A1
:100CC4000DD11241CB7899120957900050747CF0E1
:100CD4007899E6A3F008E6A3F008E6A3F008E6A3F3
:100CE400F07C007D057B017A0079501237F7900083
:100CF40055EFF07F06020DD1900011E0FFB4010B17
:100D0400A3E0F509A3E0F50A020DAAEFB4020990E5
:100D14000012E0F509020DAA900011E0B40308A343
:100D2400E0F50BA3E0F50C020DAAE4F52A900011FE
:100D3400E0FFE52AC39F501C7412252AF582E4348F
:100D440000F583E0FF740F252AF8C6EFC6052AE5EF
:100D54002AB410D980501211CE020DD4900011E0A3
:100D640024FF9202020DD4900011E024FF9201802E
:100D74005F788AE66005752C02800B201905752CB6
:100D8400038003752C019000507479F0A3E52C12B4
:100D940011A9900052EFF07F031240BDE52C6401CD
:100DA400702ED21A8002D213788C76F180221231FE
:100DB400027F00123B7A9000507479F0900011E0A9
:100DC4009000511211A9900052EFF07F031240BD20
:100DD400E52964A06003020F4F900010E064A16055
:100DE40003020E9CA3E0C37880964003020E941283
:100DF4003070E0FF123037F52CEF123065900004AC
:100E040012072130E22D900011E01241F08F2C9056
:100E14000050747FF0A3E52CF024021211DC74520C
:100E2400252CF582E43400F583EFF0E52C2403FF50
:100E3400020F4C900011E0FF1241F0C2ACE4F5281F
:100E4400D285E52CD39406401C7F7F121146AF2C2B
:100E54001211F9E52AC3952C500712110D052A80A9
:100E6400F2052C801BE52C24781230EF123DF8E4B7
:100E7400F52AE52AC3952C500712110D052A80F294
:0D0E84001211EA75341300D534FCD533F695
:100E9100020F411230AB7F01020F4C900010E06451
:100EA100A26003020F4F7880E6FFA3E0FEC39F40DC
:100EB10003020F47A3E0FDC39F4003020F47EEC3A8
:100EC1009D4003020F47900011E0F52AE4F52C1232
:100ED10031095010AF2A1241F012302F252CF52C78
:100EE100052A80EBC2ACE4F528D285FB7F7F121185
:100EF1006AAF2C123DF8900011E0F52A1231095029
:100F010032E4F52B12302FFFE52BC39F5021E52A48
:100F11001230651230851230F7252BF582E435F059
:100F2100F5831207211230EF123DF8052B80D5050C
:030F31002A80C94A
:0D0F34001211EA75341300D534FCD533F6E4
:100F4100C285D2AC80081230AB7F011240BDE529C9
:100F510064587043FA7B327D01788AE6FF123B7A4E
:100F6100753801753900753A517B017A0079111292
:100F71003FF08F2CE52C2478900050F0EF240112E3
:100F810011DC7451252CF582E43400F583EFF0E592
:100F91002C2402FF1240BDE52964806009E5296423
:100FA1008860030210F47884E6B401051211CE8042
:100FB10017E4F52AE52AC378A496500C123102AF42
:100FC1002A123B7A052A80EC900010E05407F52C98
:100FD100B4070A752B01A3E0F52CA38006E4F52BD9
:100FE100900011E0F52D152CE52DC3788096400376
:100FF1000210D5E52D123031FFE52CD39F40028F31
:101001002C7884E6B40109788AE6F52FF52E80095B
:10101100E4F52E78A4E614F52F788AA62E788AE6D0
:10102100D3952F40030210C0E4F52AE52AC3952C7D
:1010310040030210B512304320E274900001120700
:101041002164387037E52CD394044011E52B252A0F
:101051002412F582E43400F583E0FD803D7882E6D8
:10106100C3952AFFE49400FE740E2FF58274003EAE
:10107100F583E0FDE52D12309DFA801E123070756A
:10108100F01FE52D12303AFFC37882E69F252A250D
:101091002B12307AFDE52D1230651230851230F7B2
:1010A100FFE52A2FF582E435F0F583ED120760059F
:1010B1002A02102CAF2D122CFC788A0602101E7801
:1010C1008AA62E12304330E503852D08E529648870
:1010D10070218010E52DB4FF1A900012E0F520E593
:1010E10029B4880F1230AB123077900051F07F0293
:0310F1001240BDED
:1010F40022C2ACE4F528D285FB7A0079287F7F12DE
:101104003DF87B007A00792822900011E075F01FE9
:10111400A4AB78257AF9E57935F0FA90000D120937
:10112400D3788AE6FF7888E68FF0A4252AF582E44E
:1011340035F0F583120721FF7B007A007928123DF0
:10114400F8227B007A007928123DF87B007A007936
:101154002822AB30AA31A932120721FF7B007A0082
:101164007928123DF8227A007928123DF87B007A1A
:1011740000792822AB30AA31A932120721FF7B0063
:101184007A007928123DF822120708FF7B007A00C2
:101194007928123DF8227B007A007900AF28123DAD
:1011A400F875330A22F07C007D027B017A007950C5
:1011B4001237F722123DF87B007A00792822E6FFE5
:1011C4007B007A007928123DF8227A007B327D0177
:1011D400788AE6FF123B7A22FDE433FC7B017A0035
:1011E40079501237F7227B007A007900AF28123D3C
:0C11F400F875330A22123DF8E4F52A22B7
:103EC7008E438F4490000AE065437004A3E0654485
:103ED700602F900000740AF0E543A3F0E544A3F0D7
:103EE7007C007D0312305E1237F7123059754A0194
:103EF7007D047C0012386F90000AE543F0A3E54487
:023F0700F022A6
:033E8400CCEECCB5
:103E8700900000741AF0A3ECF0EFA3F07C007D0320
:103E970012305E1237F7123059754A017D047C00E3
:103EA70012386F12305E7D0A7C001234CBEF70023D
:0F3EB700FF22900000E0647860037F00227F010B
:013EC60022D9
:104072001231027F01123B7A74FF90000AF0A3F022
:104082007F0A900000E4F0A3DFFC12305E754A0163
:074092007D0A7C0002386F7B
:10311D00E4F53BE53BC37880964003023201E53B85
:10312D0012304520E4030231FC123113123EC790D8
:10313D00000074A1F0E53B90001E12304890000194
:10314D00F07C007D0212305E1237F79000021230D3
:10315D005CE4F54A7D03FC12386F12305E7D647CB1
:10316D00001234CB8F3CE53CC3940250028041E504
:10317D003C2476FF900000E06F60028033123070C7
:10318D0075F01FE53B12303AFFE53C24FE6F6002FF
:10319D00801EE53C24FFFDE434FFFC12305E123747
:1031AD00F774FF253CF582E434FFF583E06F60078B
:1031BD00AF3B1240728038C2AF12307075F01FE510
:1031CD003B12303AFF7E00EEC0E0EFC0E0E53B126F
:1031DD003065123085C8E9C8CCEACCCDEBCD7B018A
:1031ED007A007901D0E0FFD0E0FE1206E2D2AF0501
:0431FD003B02312040
:0132010022AA
:023953008F41A2
:10395500EF12309DFA123113123EC712307075F016
:103965001FE54112303AF5422481900000F0E5410F
:1039750012306590001E120721900001F0AF427EC3
:103985000012308578027C007D011206E2E54224B2
:1039950002FDE433FC12305E1237F774022542F55E
:1039A50082E43400F58312305CE5422403FDE43300
:0739B500FCE4F54A02386F43
:103F09001241BEC8ECC8C9EDC9CAEECACBEFCB9005
:103F1900000C12090FEF240AFFE43EFEE43DFDE424
:103F29003CFCD3120881400C12311D1241BE900095
:103F39000C120963E508F46008AF081239537508D3
:023F4900FF2255
:10700000788CE664F160030275E63014FDC2AF755A
:1070100084015398FC75FFDE75FFADE4F54DF54C2A
:10702000E4F58420982EE4F551F552209822C3E52A
:09703000529488E55194135017A5
:0D70390075570A75581300D558FCD557F649
:107046000552E55270DF055180DBB2A080CF8599ED
:107056004CC298E54C641A6003027126F551F5524C
:0E706600209822C3E5529488E55194135017E8
:0D70740075570A75581300D558FCD557F60E
:107081000552E55270DF055180DB30989285994DAC
:10709100C298E4F551F552209822C3E5529488E54F
:0570A10051941350178B
:0D70A60075570A75581300D558FCD557F6DC
:1070B3000552E55270DF055180DB209803027020F2
:1070C30085994DC298E4F551F552209822C3E552B3
:0870D3009488E5519413501755
:0D70DB0075570A75581300D558FCD557F6A7
:1070E8000552E55270DF055180DB209803027020BD
:0970F80085994DC298D285C29918
:0D71010075571475581300D558FCD557F676
:06710E007599783099FD2F
:0D71140075570A75581300D558FCD557F66D
:10712100C2850275D8E54C645060030271B6F55111
:10713100F552209822C3E5529488E55194135017D3
:0D71410075570A75581300D558FCD557F640
:10714E000552E55270DF055180DB20980302702056
:09715E0085994DC298D285C299B1
:0D71670075571475581300D558FCD557F610
:087174007599793099FDC2996B
:0D717C0075571475581300D558FCD557F6FB
:087189007599013099FDC299CE
:0D71910075571475581300D558FCD557F6E6
:06719E00E4F5993099FDB3
:0D71A40075570A75581300D558FCD557F6DD
:0F71B100C2850275D8E54C6401703ED285C29943
:0D71C00075571475581300D558FCD557F6B7
:0871CD007599783099FDC29913
:0D71D50075571475581300D558FCD557F6A2
:0671E200E4F5993099FD6F
:0D71E80075570A75581300D558FCD557F699
:1071F500C2850275D8E54C640260030272BCF55184
:10720500F552209822C3E5529488E55194135017FE
:0D72150075570A75581300D558FCD557F66B
:107222000552E55270DF055180DB20980302702081
:1072320085994DC298E4F54EE54D13B392A0E54D04
:1072420025E0FEC3E49400EE9470502AE54D7F00E1
:1072520025E0FEC394E0501EE54D20E01FE4F584D6
:1072620043B701758F038E538F548F828E83F053F1
:10727200B7F0F58F8003754EFFE4F584D285C2998D
:0D72820075571475581300D558FCD557F6F4
:08728F007599783099FDC29950
:0D72970075571475581300D558FCD557F6DF
:0672A400854E993099FDB2
:0D72AA0075570A75581300D558FCD557F6D6
:1072B700C2850275D8E54C64036003027407F55173
:1072C700F552209822C3E5529488E551941350173C
:0D72D70075570A75581300D558FCD557F6A9
:1072E4000552E55270DF055180DB209803027020BF
:1072F40085994DC298E4F551F552209822C3E55280
:087304009488E5519413501721
:0D730C0075570A75581300D558FCD557F673
:107319000552E55270DF055180DB20980302702089
:1073290085994FC298E54D1392A0E54D25E0FEC31E
:10733900E49400EE94704003027020E54D7D002531
:10734900E0FCC394E04003027020E4F58443B701F4
:10735900758F01E54F75F020A42DFFE5F03CF5533D
:107369008F54E4F584F550E550C394205048E4F572
:1073790051F552209822C3E5529488E5519413504F
:0173890017EC
:0D738A0075570A75581300D558FCD557F6F5
:107397000552E55270DF055180DB2098030270200B
:1073A7000554E554AE537002055314F5828E83E5F8
:1073B70099F0C298055080B1E4F58453B7F0F58F82
:0673C700F584D285C29995
:0D73CD0075571475581300D558FCD557F6A8
:0873DA007599783099FDC29904
:0D73E20075571475581300D558FCD557F693
:0673EF00E4F5993099FD60
:0D73F50075570A75581300D558FCD557F68A
:10740200C2850275D8E54C640460030274B7F55175
:10741200F552209822C3E5529488E55194135017EF
:0D74220075570A75581300D558FCD557F65C
:10742F000552E55270DF055180DB20980302702072
:10743F0085994DC298E54D25E0F555755600E4F553
:10744F004EF551F5520556E556AE557002055514D9
:10745F00F5828E83E493254EF54E0552E552700268
:0E746F0005517004E551640270DBD285C299AC
:0D747D0075571475581300D558FCD557F6F7
:08748A007599783099FDC29953
:0D74920075571475581300D558FCD557F6E2
:06749F00854E993099FDB5
:0D74A50075570A75581300D558FCD557F6D9
:1074B200C2850275D8E54C640560030275CDF551AD
:1074C200F552209822C3E5529488E551941350173F
:0D74D20075570A75581300D558FCD557F6AC
:1074DF000552E55270DF055180DB209803027020C2
:1074EF0085994DC298E4F551F552209822C3E55283
:0874FF009488E5519413501725
:0D75070075570A75581300D558FCD557F676
:107514000552E55270DF055180DB2098030270208C
:0975240085994FC298D285C299E5
:0D752D0075571475581300D558FCD557F646
:08753A0075997F3099FDC2999B
:0D75420075571475581300D558FCD557F631
:10754F007599203099FDE54D25E0FCE54F75F0204C
:10755F00A42400FFE5F03CF5558F56E4F54EF550A9
:02756F00C299BF
:0D75710075571475581300D558FCD557F602
:10757E00855682855583E493F5993099FD0556E538
:10758E0056AE557002055514F5828E83E493254E42
:0B759E00F54E0550E550B420C8C2991E
:0D75A90075571475581300D558FCD557F6CA
:0675B600854E993099FD9D
:0D75BC0075570A75581300D558FCD557F6C1
:1075C900C285800BE54CB40606E4F58475EF10E539
:0D75D9004C64076003027020788CF6D2AF7E
:0175E6002282
:100026007F0012413720150B7A007B327D017F005D
:10003600123B7A30180B7A007B1E7D017F00123B43
:100046007A3013193019167A007B327D01788AE6E8
:10005600FF123B7AC2131235E8D215D217301A2A8C
:10006600301927C21A1241D8E4FDFF12000E7BFF99
:100076007A4079FB1240487D01E4FF12000E7BFFB7
:100086007A4179091240481270001241BEE47B2C75
:0D0096007A01F9F8C31208815002D2192234
:0E41A200122398120026123F0912409980F550
:102E1100005EBCE2613FDD83C29C7E20A3FD1F41B9
:102E21009DC3217FFCA2401E5F01E3BD3E6082DCA9
:102E3100237D9FC1421CFEA0E1BF5D0380DE3C6299
:102E4100BEE0025CDF81633D7C22C09E1D43A1FF89
:102E51004618FAA427799BC584DA3866E5BB590779
:102E6100DB856739BAE406581947A5FB7826C49A69
:102E7100653BD987045AB8E6A7F91B45C6987A2459
:102E8100F8A6441A99C7257B3A6486D85B05E7B949
:102E91008CD2306EEDB3510F4E10F2AC2F7193CD39
:102EA100114FADF3702ECC92D38D6F31B2EC0E5029
:102EB100AFF1134DCE90722C6D33D18F0C52B0EE19
:102EC100326C8ED0530DEFB1F0AE4C1291CF2D7309
:102ED100CA947628ABF517490856B4EA6937D58BF9
:102EE1005709EBB536688AD495CB2977F4AA4816E9
:102EF100E9B7550B88D6346A2B7597C94A14F6A8D9
:102F0100742AC896154BA9F7B6E80A54D7896B35C8
:102F1100000000002B6096CBDDEE002C96CBDDE5AA
:042F2100EEF7FAFDD0
:053A8800C1AD016C0A54
:10339100E54CAB78AA79A97A75F01FA4F58285F07E
:1033A10083020721157FA87FEDF6157FA87FEFF631
:1033B100A87FE6FFC3940322A87FE6FF25E025E06E
:1033C1002490F822A87FE625E025E0248EF822E467
:1033D10075F0011209BA02070875F01FA429F9EA6C
:1033E10035F0FA90000D1209D37888E62243A0F057
:1033F10075840F75A60FC2A3D2A27F017E0022E5BC
:103401006C75F064A4FFC3E56E9FE56D95F022EF46
:1034110025E025E0248DF822EF25E025E0248FF832
:10342100221207CA2400FFE5F034E022157F157F40
:03343100A87F224F
:1037F70012342DECF608EDF6157F12342D1209CA96
:06380700E57F24FCF57FC3
:10380D00F80808E4F6A87FF608F6E57F2407F9A87E
:10381D007FE6FE08E6FFC3099719E76480F8EE64BA
:10382D0080985031E57F2404F81209B18F828E8380
:10383D00120721A87F080866FFE57F2403F8EFF63D
:10384D00E6902E1193A87F0808F6A87F0806E618C3
:0B385D0070B80680B5A87F0808E6FFE1
:07386800E57F2409F57F2232
:07000300ED6F902E1193FF39
:01000A0022D3
:0300A300023CBF5D
:103CBF00C0E0C083C082C0D0EEC0E0EFC0E0E598A6
:103CCF0030E1055398FDD22DE59830E024E56A24C4
:103CDF0001FFE433FEEF64404E70028011AF6A05BE
:103CEF006A74142FF582E43401F583E599F0539843
:103CFF00FED0E0FFD0E0FED0D0D082D083D0E03233
:0A386F008B458A4689478C488D4935
:10387900E4F56A758401D284E54A24FF929BE4F554
:103889004BC3E54B9549E5486480F87480985046E8
:02389900C22D3E
:0D389B00754C14754D1300D54DFCD54CF641
:1038A800E54924FFFFE54834FFFEEF654B7001EE64
:1038B8007012C2AC78451233D1F599302DFDC2840F
:1038C800D2AC800A78451233D0F599302DFD7F01AE
:0B38D800124137054B80ABC284AF49A2
:0138E30022C2
:0A34CB008B3D8A3E893F8C408D4105
:1034D5001241BE8F468E458D448C43E4F542124120
:1034E500BEAB46AA45A944A843120865E47B01FA88
:1034F500F9F8C312088150037F0022E56AD39400CE
:10350500404E900114E0FEB478037F0122EE54F89A
:10351500647860037F0022900114E054072402F5CB
:1035250042656A702BD3E56A9541E5406480F8747D
:1035350080984006AE40AF418004AF6A7E00A83F48
:10354500AC3EAD3D7B017A0179141206E2AF422211
:073555007F0112413780875E
:0641E500E4F56AD22D2270
:103C1E00EF7025F5847598D0F584759115F584753A
:103C2E00C90875CBFFED902F1093F5CA75C804E443
:103C3E00F584D2ACC2BC80267584017598D0E4F5AB
:103C4E0084E589540F4420F589758E02ED902F1A64
:103C5E0093F58DD28E43E74043F7401241E5D2AF44
:013C6E002233
:103DAD00D2AFD2A9D2BBE4F584E589540F4401F515
:103DBD0089758E02758CAFE4F58AD28CF572F5712A
:103DCD00F570F56FF576F575F574F573756B64FF34
:103DDD00123410E4F6EF1233C8E4F6123419E4F697
:0A3DED00EF1233BDE4F60FBF03E64A
:013DF70022A9
:0239BC00157F75
:1039BE00A87FE4F61233B15054EF1233BDE6FFD3B5
:1039CE00940040321233C5E6702CEF30E00D123306
:1039DE00B9E6D3940140047D0180067D00A87FE600
:1039EE00FF123E3F1233B916E6600B123419E6FE93
:1039FE00EF1233C8EEF61233C5E66001161233B974
:0D3A0E00E67004FD123E3FA87F060239C29B
:033A1B00057F2202
:03000B0002367347
:10367300C0E0C0F0C083C082C0D0E8C0E0E9C0E0D1
:10368300EAC0E0EBC0E0ECC0E0EDC0E0EEC0E0EF8C
:10369300C0E0758CAFE5722401FFE43571FEE435BB
:1036A30070FDE4356F8F728E718D70F56FD56B1B66
:1036B300E5762401FFE43575FEE43574FDE43573E6
:1036C3008F768E758D74F573756B641239BC1241E8
:1036D30069D0E0FFD0E0FED0E0FDD0E0FCD0E0FB1D
:1036E300D0E0FAD0E0F9D0E0F8D0D0D082D083D0C7
:0436F300F0D0E03201
:104190001233A5500808E6FE123410EEF6057F052E
:0241A0007F227C
:103B7A0012342DEAF608EBF61233A5503EEF123353
:103B8A00BDE67037A87FE6FB1233C8E6702DA87F22
:103B9A0008E625E004FFA87FE6FA1233BDEFF6A88F
:103BAA007F0808E6FE08E6FF7C007D0A120794EA11
:103BBA0012341AEFF6EB1233C8E4F6E57F2404F563
:023BCA007F2258
:103E3F001233A55017123410E66011A87F08E670F0
:103E4F00047F0180027F00A87F08EFF6A87FE6704D
:103E5F000608E624FF92A0A87FE6FFB4010608E655
:103E6F0024FF9286EFB40208A87F08E624FF92870A
:053E7F00057F057F2214
:0C41BE00C2AFAF72AE71AD70AC6FD2AF8B
:0141CA0022D2
:0C41CB00C2AFAF76AE75AD74AC73D2AF6E
:0141D70022C5
:10413700157FA87FEFF6A87FE67004F56DF56E3062
:0D4147002B08123400500375FFA5057F22E0
:10411900D22BE4F56DF56EEF6004F56C8003756CD8
:0E4129000A75FF0775FFA5E4F58475EF042203
:0E41B000C22BE4F56DF56E75FFDE75FFAD22D6
:10416900056EE56E7002056D302B081234005003A0
:0441790075FFA52207
:04401D008E418F42FF
:10402100E4F543F544C3E5449542E5439541501613
:104031007FE87E03123B247F011241370544E544AA
:0640410070E3054380DF7F
:014047002256
:043B24008E668F67B3
:103B2800D3E56794FAE5669400500EEFD39400400D
:103B3800407E1600DEFD1F80F2856668856769D3C2
:103B4800E56994FAE568940040157FFA7E00123B17
:103B58002474062569F56974FF3568F56880E0D333
:103B6800E5679400E56694004007AF69AE68123BCC
:013B78002428
:013B79002229
:083D0F008B468A4789488D4963
:103D17007F01124137AB4AAA4BA94C123422FE85C8
:103D2700464D85474E85484FE4FDEDC39549501BE9
:103D3700EF2DF582E43EF583E493AB4DAA4EA94FF0
:103D47008D827583001207600D80DFAB4AAA4BA9ED
:083D57004CE48549F002082D3F
:083778008B528A5389548D55D0
:10378000788CE664F1706F1241B0C2AFE4F5844307
:10379000B701758F01AB56AA57A958123422789DEC
:1037A000F608EFF6AB52AA53A95478A11209CAE45D
:1037B000789FF6789FE6C39555502278A11233D0B2
:1037C00078A0F6E6FF789D0806E618CCE6CC7001F6
:1037D0000614F5828C83EFF0789F0680D6E4F58F8F
:1037E00053B7F0AB56AA57A9588555F012082DD2F9
:0637F000AFE4FF124119D5
:0137F60022B0
:103D5F00788CE664F17046C2AF1241B0E4F584434B
:103D6F00B701758F03789E76E008F6789DF6789EFA
:103D7F00E6FE08E6F5828E83E4F07F011241377884
:103D8F009FE426F618740236F61806E6C394084028
:0D3D9F00DDE4F58F53B7F0D2AFFF124119EC
:013DAC0022F4
:1035E800123D5FE4F550F551F55675570075585082
:1035F800FB7A0079097D16123778123657F54DE5B2
:103608004DC378A4965041E4F54C1233916035E5EA
:103618004C1233DA854DF0A429F9EA35F0FAEBC0FB
:10362800E0EAC0E0E9C0E0123391FD755600755735
:1036380000755850D0E0F9D0E0FAD0E0FB123778A6
:0E364800054C80C6054D80B7123657788CF6BB
:1036560022754E12754F34755600755700755850C1
:0D3666007B007A00794E7D02123778E42255
:1032E700E4F544F545F541F54A754B00754C44FB4B
:1032F7007A0079097D16123D0F1233787004E54282
:1033070064127003434101E4F540E540C378A49695
:10331700504EE4F53FE53F1233936040E53F1233EB
:10332700DA8540F0A429F9EA35F0FAEBC0E0EAC003
:10333700E0E9C0E0AB78AA79A97A75F01FE53F12FA
:10334700339CFD754A00754B00754C44D0E0F9D0AD
:10335700E0FAD0E0FB123D0F053F80B9054080AA97
:103367001233787004E54264127003434102AF419F
:1033770022754A00754B00754C447B007A007942F0
:0A3387007D02123D0FE5436434227D
:0238E4008F64EF
:1038E600302C411233EE123B24D2A1E4F5657F0A57
:1038F6007E00123B2430A7090565E565C394C840E0
:10390600EDC2A17F017E00123B24C2A275840F7511
:10391600A6FF7F017E00123B24E56412392BE56485
:04392600C412392B63
:10392A002254F0FFE5A054014FF5A0A21292A37F02
:10393A00017E00123B24D2A17F017E00123B24C2E9
:09394A00A17F017E00123B242242
:103FBF008F1F53A00FE51F123FD953A00FE51FC44A
:103FCF00123FD97F647E00023B2454F042A0D2A15D
:103FDF007F017E00123B24C2A17F017E00123B2491
:013FEF0022AF
:1036F700E4F53FF540C2A1C2A2C2A375840F75A627
:10370700FF53A0017F0FFE12401D43A03012376CFC
:103717007F0512375B7F0112375B75A02012376C6C
:103727001233EE123B24D2A17F647E00123B243079
:10373700A703C22C22D22CC2127F2C1238E4C21249
:103747007F0C1238E4C2127F011238E4C2127F06DE
:033757001238E441
:10375A00227E0012401DD2A17F017E00123B24C2AC
:0E376A00A122D2A17F017E00123B24C2A12227
:0D41D800C2127F011238E4E4FDFF02000E68
:10000E00ED5401C4333354C0FEEF541F44804EFFF1
:05001E00C2120238E4EB
:10417D008F63C3E563648094A04005D2121238E4C6
:03418D00AF6322FB
:1040DC008B7B8A7C897DAB7BAA7CA97D12070860CF
:0F40EC000D787B1233D0FFD2121238E480E82215
:1025B000202020202020202020200025622A626464
:1025C0000025622A62750025622A640025622A7548
:1025D0000025622A2E33660025622A6C640025627B
:1025E0002A6C7500253262643A2573002020202071
:1025F000202020200045534320454E5445522020A2
:10260000202D202020202B20200045534320454E04
:10261000544552202050524556204E4558540045AE
:102620005343202020202020202050524556204E69
:1026300045585400506172616D65746572732077FE
:1026400072697474656E00746F20666C61736820C3
:102650006D656D6F72792E00F470000000F76E00EA
:102660000000FAE4000000FD6D0000000000000022
:1026700000036B000000064D000000094700000049
:102680000C540000000000000000016D000000027A
:10269000670000000373000000046D00000005687F
:1026A0000000000641000000074B00000008DF4367
:1026B000000009DF46000014487A00001550610050
:1026C0000016626100001757000000185600000055
:1026D00019F40000001A540000001B6C2F73001C3A
:1026E00052504D001D460000005A250000005B526C
:1026F000504D005C636E74005D78000000000000C7
:10270000000002350000004E6F64652041647200D5
:10271000000900000000000000003F8000000000F1
:102720000002350000004772702041647200000012
:102730000B00000000000000003F800000000000CF
:102740000032000004466C61736800000000000065
:102750000000000000000000000000000000000079
:10276000320000045265626F6F74000000000000C8
:0E27700000000000000000000000000000005B
:103A8D00C19BC122C121C11C41016000017E0444C2
:103A9D000161000000004401580000000044015C79
:0C3AAD0000000000C11DC11EC11FC1208F
:102919001200AD1203EF900154EEF0A3EFF0900016
:1029290014AB3FAA40A9410208C5AB3FAA40A9413F
:102939009000100208C5900154E0FCA3E0FDE412E8
:1029490003B6A804A905AA06AB0722900004AB3F69
:10295900AA40A94102072190015812090FEF244604
:10296900FFE43EFEE43DFDE43CFCD3020881740A29
:102979009546F54AAB42AA43A94422900010120990
:1029890027020344AB3FAA40A94190001802092736
:102999001200AD1203EF90015422AB3BAA3CA93DB2
:1029A90022AB3FAA40A94190000402072135F075E6
:1029B9004AFFF54B894C7B017A0179652290000128
:1029C900AB3FAA40A94102072190015412090FE423
:1029D9000203B11208A58F4E8E4D8D4C8C4B7BFF97
:1029E90022AC42EC0203BB900154E0FCE40203BBBD
:1029F900E54575F005A422900154E0FCA3E0FD2211
:102A090090015412090FEC0203B1120708FF7E006E
:102A190090000D0209D39000181208C5E4FBFAF9D9
:102A2900F8020344900154E0FC0203BB900160E00A
:102A390004853EF084E5F0F0222458F582E434263A
:102A4900F583E49322248AF582E43426F583E4931A
:102A5900221207CAF54C85F04B7BFF2290015402E4
:082A6900091B900154020963EE
:062A71008B3F8A40894101
:102A7700900001120721B4381885424A85434B85D7
:102A8700444C754D00754E081229BF123BCC022BE2
:102A9700B3E4900165F09000021229576031E4F524
:102AA700451229F9122A42FF600F9000021229C924
:102AB700FEEF6E6004054580E81229F9122A42608C
:102AC7000E1229F92459F974261229B6123A1E1240
:102AD70029C6602EE4F5451229F9122A4EFF600C2B
:102AE7001229C6FEEF6E6004054580EB1229F91224
:102AF7002A4E600E1229F9248BF974261229B61270
:102B07003A1E1229BF1241548F46AB3FAA40A94132
:102B170012070814601A14604024FE605C240460E5
:102B270003022BB37BFF7A2579B0124048022BB3FF
:102B3700122954C330E111122977120708F54B7B8C
:102B4700FF7A2579BB022BB0122977120708F54BBC
:102B57007BFF7A2579C1022BB0122954C330E10DCE
:102B6700122977122A5A7A2579C7022BB0122977A8
:102B7700122A5A7A2579CC803012295430E00DC3B5
:102B87001229771229DC7A2579D1801D122954C39D
:102B970030E10C1229771229DC7A2579D8800A12BC
:102BA70029771229DC7A2579DE121C661229BF12D1
:022BB700404894
:012BB90022F9
:101787008D428B3F8A4089419000011207216438BE
:101797007003021C03AB3FAA40A94112070824FEAD
:1017A700700302190624FE7003021A532403600310
:1017B700021C031229B020E10302184C12298DC024
:1017C70000C001C002C0031229EAD003D002D00131
:1017D700D00012019EC004C005C006C007122A2D02
:1017E700D003D002D001D00012299912292512293D
:1017F700847003021C0390001012292AC004C0053C
:10180700C006C007122A2D12294BD007D006D005D3
:10181700D004120344500812293312299CEFF01206
:101827002927C004C005C006C007122A2D12294B5C
:10183700D007D006D005D00412034460025003023B
:101847001C030218FDE542F47029122933C004C0B5
:1018570005C006C0071229F012294BD007D006D0C1
:1018670005D004120344700B122927122984600340
:10187700021C0312298DC000C001C002C003122937
:10188700EAD003D002D001D00012019EC004C005E7
:10189700C006C0071229F0D003D002D001D0001231
:1018A70029991229251229847003021C031229334E
:1018B700C004C005C006C0071229F012294BD00783
:1018C700D006D005D0041203445008122933122938
:1018D7009CEFF0122927C004C005C006C0071229D3
:1018E700F012294BD007D006D005D004120344606C
:1018F700025003021C0312292712299CEFF022121F
:1019070029AA20E10302199B122993C000C001C034
:1019170002C0031229EAD003D002D001D00012017D
:101927009EC004C005C006C007122A00EC1203B609
:10193700D003D002D001D0001229191229847003D4
:10194700021C03122933C004C005C006C007122AAF
:1019570000EC122948D007D006D005D00412034462
:10196700500B12293312299CEEF0A3EFF01229270E
:10197700C004C005C006C007122A00EC122948D0CF
:1019870007D006D005D00412034460025003021C9E
:1019970003021A47E542F47026122933C004C00532
:1019A700C006C00712293FD007D006D005D00412C1
:1019B7000344700B1229271229846003021C0312A7
:1019C700298DC000C001C002C0031229EAD003D08C
:1019D70002D001D00012019EC004C005C006C00796
:1019E700122A00E41203B6D003D002D001D00012AD
:1019F70029191229847003021C03122933C004C059
:101A070005C006C00712293FD007D006D005D0046D
:101A1700120344500B12293312299CEEF0A3EFF066
:101A2700122927C004C005C006C00712293FD007E6
:101A3700D006D005D00412034460025003021C03F1
:101A470012292712299CEEF0A3EFF0221229AA30BF
:101A5700E059122A65C000C001C002C00312298DD7
:101A6700C000C001C002C0031229EAD003D002D0CF
:101A770001D00012019ED003D002D001D000120085
:101A8700AD122A6B122933122A651203445006122B
:101A97002933122A6B122927122A6512034460027E
:101AA7005003021C03122927021C001229AA20E155
:101AB70003021B4B122993C000C001C002C00312CE
:101AC70029EAD003D002D001D00012019EC004C081
:101AD70005C006C007122A09D003D002D001D000E2
:101AE7001229991209631229271229847003021CEB
:101AF70003122933C004C005C006C007122A091201
:101B0700294BD007D006D005D00412034450091240
:101B1700293312299C120963122927C004C005C062
:101B270006C007122A0912294BD007D006D005D0C4
:101B37000412034460025003021C031229271203F4
:101B4700EF021C00E542F47029122933C004C005D6
:101B5700C006C0071229D212294BD007D006D005DC
:101B6700D004120344700B12292712298460030240
:101B77001C0312298DC000C001C002C0031229EA4C
:101B8700D003D002D001D00012019EC004C005C00E
:101B970006C0071229D2D003D002D001D0001229E3
:101BA700991209631229271229846050122933C018
:101BB70004C005C006C0071229D212294BD007D08E
:101BC70006D005D004120344500912293312299C68
:101BD700120963122927C004C005C006C0071229CD
:101BE700D212294BD007D006D005D0041203446087
:0D1BF7000B40091229271203EF122A6B225E
:103F86008F3FE92405F9E43AFA78657C017D017EE4
:103F9600007F081206E2E490016DF0853F4A754BFA
:103FA60001754C01754D657BFF7A2579E4121C6617
:093FB6007BFF7A2579EC024048FA
:10207300301B181241BEE47B2C7A01F9F8C3120815
:1020830081400302236FC21B1241D81241BE1229A1
:102093004B90016112090FEF240A122969500302C0
:1020A300236F1241BE900161120963900160E075D4
:1020B300F01FA430210C2402F9742735F0753BFF7F
:1020C300800A257AF9E57935F085783BF53C893D39
:1020D300202210C208123202EF700302235FD222C1
:1020E30002235F201C030221E0E4FD7F0A12000E9D
:1020F3007542017543017544541229A3122A7112C2
:10210300237A7A2579F5124048302705201D02C22B
:102113001C302858201E55C21C1229A3122A13A8AA
:1021230001AC02AD037B017A0179541206E230213E
:1021330013900160E0FF600464017030D213788C67
:1021430076F18028900160E0FF122CFC900160E0A2
:1021530075F01FA4AB78257AF9E57935F0FA1229E1
:10216300B030E508900160E0FF12395330290E20AA
:102173001F0B1229A37DFF12178712238430291303
:102183001241BE12294B12296040081229A37DFF78
:1021930012178720290A90015812096F00000000C6
:1021A300302A0E20200B1229A37D01121787122338
:1021B3008E302A161241BE12294B90015C122963FC
:1021C30040081229A37D01121787302A0302235FD7
:1021D30090015C12096F0000000002235FE4FDFF21
:1021E30012000E900160E0FF1229A3123F86E4FD66
:1021F3007F0A122370122A198B428A4389441229B7
:10220300A3122A717D01E4FF122370122A1F4009D1
:102213001229A31229B030E2087BFF7A26790A80BB
:10222300067BFF7A26791F124048302716201D139C
:10223300302109C221E4900160F08007C222D20854
:1022430012320230286A201E671229A3120708FFE0
:10225300D39404501BEF94004016122A1F5011D23E
:102263001C1229A3122A1378547C017D011206E261
:1022730030212D900160E064027025D2131241D801
:10228300E4FDFF12000E7BFF7A26793412404812D8
:10229300237A7A2679471240487FB87E0B12401D75
:1022A30030210D900160E0B40306E4F58475EF106E
:1022B300302925201F22900160E070132021077828
:1022C30080E614F0800FE57E14900160F0800690A4
:1022D3000160E014F012238430292A1241BE12292E
:1022E3004B122960401F900160E070132021077892
:1022F30080E614F0800FE57E14900160F080069074
:102303000160E014F020290A90015812096F0000BF
:102313000000302105857E3E80057880E6F53E305D
:102323002A09202006122A3512238E302A1112413F
:10233300BE12294B90015C1229634003122A3520F7
:102343002A0A90015C12096F0000000030290D3049
:102353002A0A202107E4900160F0D221A227921DCE
:0C236300A228921EA229921FA22A9220FA
:10236F002212000EAB3BAA3CA93D227D01E4FF12D5
:10237F00000E7BFF221241BE9001581209632212F8
:09238F0041BE90015C12096322B9
:1012000020002A2A2000202A2A002020204164646D
:10121000726573733A2020253034582000303A2507
:10122000362E33665600313A25362E336656005236
:10123000656C303A202573004F4E20004F46460023
:1012400052656C313A202573005343532D313030B1
:101250003000013200000052656C6169733000019A
:101260000090000000003F8000003F800000000070
:1012700000013200000052656C61697331000100A9
:1012800091000000003F8000003F8000000000004F
:10129000013200000052656C6169733200010092F6
:1012A000000000003F8000003F80000000000001BF
:1012B0003200000052656C616973330001009300D5
:1012C0000000003F8000003F80000000000001326D
:1012D000000000446F7574300000000100940000AD
:1012E00000003F8000003F8000000000000132004D
:1012F0000000446F7574310000000100950000008B
:10130000003F8000003F800000000000013200002C
:1013100000446F7574320000000100960000000068
:101320003F8000003F80000000000001320000000C
:10133000446F757433000000010097000000003F07
:101340008000003F800000000000041800000144FD
:1013500041433000000000010098C12000004120FE
:1013600000003DCCCCCD0000000418000001444139
:1013700043310000000001009CC12000004120001A
:10138000003DCCCCCD000000013200000044696E6D
:1013900030000000000100A000000000000000007C
:1013A00000000000000000013200000044696E31BE
:1013B000000000000100A10000000000000000008B
:1013C000000000000000013200000044696E32009D
:1013D0000000000100A2000000000000000000006A
:1013E0000000000000013200000044696E3300007C
:1013F00000000100A3000000000000000000000049
:1014000000000000041800000141444330000000C7
:10141000000100A400000000000000000000000027
:1014200000000004180000014144433100000000A6
:101430000100A80000000000000000000000000003
:101440000000041800000141444332000000000184
:1014500000AC0000000000000000000000000000E0
:101460000004180000014144433300000000010063
:10147000B0000000000000000000000000000000BC
:10148000041800000141444334000000000100B48E
:101490000000000000000000000000000000000448
:1014A0001800000141444335000000000100B8006D
:1014B0000000000000000000000000000000041810
:1014C00000000141444336000000000100BC000060
:1014D00000000000000000000000000000041800F0
:1014E000000141444337000000000100C00000003B
:1014F00000000000000000000000000004180000D0
:1015000009444F4653300000000100C4BDCCCCCD8F
:101510003DCCCCCD3A83126F0000000418000009C6
:10152000444F4653310000000100C8BDCCCCCD3D36
:10153000CCCCCD3A83126F000000045D000009445A
:101540004741494E3000000100CC3F6666663F8C43
:10155000CCCD3A83126F000000045D0000094447BF
:1015600041494E3100000100D03F6666663F8CCC99
:10157000CD3A83126F0000000418000009414F4665
:1015800053300000000100D4BDCCCCCD3DCCCCCD3F
:101590003A83126F0000000418000009414F4653BF
:1015A000310000000100D8BDCCCCCD3DCCCCCD3A33
:1015B00083126F0000000418000009414F465332A7
:1015C0000000000100DCBDCCCCCD3DCCCCCD3A83BD
:1015D000126F0000000418000009414F4653330009
:1015E00000000100E0BDCCCCCD3DCCCCCD3A831287
:1015F0006F0000000418000009414F4653340000FA
:10160000000100E4BDCCCCCD3DCCCCCD3A83126FF3
:101610000000000418000009414F46533500000047
:101620000100E8BDCCCCCD3DCCCCCD3A83126F00CF
:1016300000000418000009414F4653360000000125
:1016400000ECBDCCCCCD3DCCCCCD3A83126F0000AC
:10165000000418000009414F465337000000010004
:10166000F0BDCCCCCD3DCCCCCD3A83126F00000088
:10167000045D000009414741494E3000000100F47B
:101680003F6666663F8CCCCD3A83126F0000000443
:101690005D000009414741494E3100000100F83F1B
:1016A0006666663F8CCCCD3A83126F000000045D05
:1016B000000009414741494E3200000100FC3F66ED
:1016C00066663F8CCCCD3A83126F000000045D004B
:1016D0000009414741494E3300000101003F666661
:1016E000663F8CCCCD3A83126F000000045D000091
:1016F00009414741494E3400000101043F666666D6
:101700003F8CCCCD3A83126F000000045D000009CD
:10171000414741494E3500000101083F6666663F7A
:101720008CCCCD3A83126F000000045D00000941AB
:101730004741494E36000001010C3F6666663F8C0A
:10174000CCCD3A83126F000000045D0000094147D0
:1017500041494E3700000101103F6666663F8CCC60
:10176000CD3A83126F00000000000000000000006E
:101770000000000000000000000000000000000069
:071780000000000000000062
:103AB90001A4010378FF1252C123C124C125C126E3
:033AC90001770082
:103ACD0012091B12019EE4FBFA792078411200AD18
:103ADD00E4FBFA79A078411202A7E4FBFA79807829
:103AED004512019E1203EFA87FEEF608EFF6A97FAF
:103AFD00C3E7941022E41203B1E4FBFA798078470E
:103B0D001202A7E4FBFA22E54025E025E0228F4BC7
:073B1D008E4A8D498C4822FD
:02277E008F3F8B
:102780007D007F02124190E4F584F5BA75BCE075D6
:10279000E880F5D1F58475D102F58475D48075840F
:1027A0000175D48075840F75A4F575A5BF75A6FF56
:1027B00075A7FFE53F700302285BE4F540749025A0
:1027C00040F582E43400F583E4F00540E540B404CC
:1027D000ECE4F54074942540F582E43400F583E49C
:1027E000F00540E540B404ECE4F540123B142498B5
:1027F000F582E43400F58312096F00000000123BFB
:102800001424C4F582E43400F58312096F0000003B
:1028100000123B1424CCF582E43400F58312096FD6
:102820003F8000000540E540B402C0E4F540123BA3
:102830001424D4F582E43400F58312096F000000FB
:1028400000123B1424F4F582E43400F58312096F7E
:102850003F8000000540E540B408D3E4F540AF40B8
:10286000122CFC0540E540C3940840F27F08122C6E
:10287000FC7F09122CFCE4F540AB78AA79A97A75A3
:10288000F01FE540A4F58285F083120721601EE564
:102890004075F01FA429F9EA35F0FA9000041207F8
:1028A0002130E505AF40123953054080CCE4FDFFEF
:1028B00012000EE4F5407B007A00790F1241547C3F
:1028C000007D02120794C374079FFFE49EFEC3E5D8
:1028D000409FEE6480F8748098500D7BFF7A1279E7
:1028E00000124048054080CE7BFF7A1279021240E8
:1028F000487B007A00790F1240487BFF7A127906F4
:102900001240487D01E4FF12000E7BFF7A12790A23
:0929100085094A850A4B021C6688
:0A2CFC00157FA87FEFF6157F157F06
:102D0600A87F0808E6120A032D3C002D47012D5224
:102D1600022D5D032D68042D73052D7E062D890772
:102D26002D94082DD0092D94162DD0172D94182DDD
:102D3600D01900002E0A900090E024FF92B0022ED7
:102D46000A900091E024FF92B1022E0A900092E0D0
:102D560024FF92B2022E0A900093E024FF92B3025F
:102D66002E0A900094E024FF92B7022E0A90009556
:102D7600E024FF92B6022E0A900096E024FF92B558
:102D8600022E0A900097E024FF92B4022E0A9000C9
:102D9600C412090F90009812091B1200AD9000CCC6
:102DA600123ACD4007A87F760F0876FFA97FC3E7C2
:102DB60094005006A87FE4F608F6E4F584A87F0898
:102DC600E6F5D2A97FE7F5D3803A9000C812090F3D
:102DD60090009C12091B1200AD9000D0123ACD4013
:102DE60007A87F760F0876FFA97FC3E794005006F1
:102DF600A87FE4F608F6758401A87F08E6F5D2A94F
:042E06007FE7F5D39A
:072E0A00057F057F057F2213
:0541F0008F357F002265
:103FF0008B358A368937120708AB38AA39A93A12A5
:10400000074EAB35AA36A937900001120721AB380D
:0D401000AA39A93A9000011207607F022230
:0A2BBA008E3B8F3C8B3D8A3E893F25
:102BC400E4F584E53C540FF5BB75BCE0754604752B
:102BD4004700E4F543F542F541F540F544F545C3B6
:102BE400E5459547E5449546503DC2AFE4F584C2BA
:102BF400EDD2EC30EDFDD2AFAFBFEFFEADBEEDFFD9
:102C0400E4FCFDE5432FFFE5423EFEED3541FDECDE
:102C140035408F438E428D41F5401200260545E52F
:102C24004570BC054480B8AF43AE42AD41AC40787A
:102C3400061208928F438E428D418C40C3E53C942A
:102C440002E53B648094805016123B0279A07841DF
:102C540012019EE4FBFA792078C11200AD8012AF14
:102C640043AE42AD41AC40123B027920784112019F
:102C74009E123B1BAF4BAE4AAD49AC48ECC0E0EDF5
:102C8400C0E0EEC0E0EFC0E0E53CAE3B7802C33309
:102C9400CE33CED8F924D4F58274003EF5831209DC
:102CA4001BD0E0FFD0E0FED0E0FDD0E0FC1200A994
:102CB400123B1BECC0E0EDC0E0EEC0E0EFC0E0E58D
:102CC4003CAE3B7802C333CE33CED8F924F4F5823C
:102CD40074003EF58312091BD0E0FFD0E0FED0E083
:102CE400FDD0E0FC12019E123B1BC2AFAB3DAA3EDD
:072CF400A93F1208F5D2AF61
:012CFB0022B6
:10343400C297D296D2951234C3C295A2969000A296
:10344400123484A2969000A3123484A2969000A011
:1034540012349AA2969000A112349AA296922A1239
:1034640034B0A29692291234B0A2969228D297121E
:1034740034C3C2977F017E00123B24A29692272276
:10348400E433F0D2977F017E00123B24C2977F0180
:103494007E00123B2422E433F0D2977F017E001297
:1034A4003B24C2977F017E00123B2422D2977F01E6
:1034B4007E00123B24C2977F017E00123B24227FB0
:0734C400017E00123B2422EF
:103202003008031241D8E4FDFF12000E7A12791D34
:103212009000A41232D6E4FD7F0A12000E7A1279CF
:10322200269000A81232D67D01E4FF12000E900013
:1032320090E07BFF60067A12793880047A12793C3A
:103242008B4A8A4B894C7BFF7A12792F121C667D3E
:10325200017F0A12000E900091E07BFF60067A1255
:10326200793880047A12793C8B4A8A4B894C7BFFED
:103272007A127940121C6630281920241690009088
:10328200E070047F0180027F00900090EFF07F00E9
:10329200122CFC302A19202616900091E070047F2F
:1032A2000180027F00900091EFF07F01122CFC2040
:1032B200080F3027033023063029062025037F011B
:1032C20022A2279223A2289224A2299225A22A92FC
:0332D200267F0054
:1032D500227BFF12090F8F4D8E4C8D4B8C4A121C91
:0232E50066225F
:10409900E57775F004A424A4F9740035F0FA7B01DE
:1040A900AF777E00122BBAE577045407F5771234FF
:0440B900340220733A
:1000A60002045BE86480F8E933E83360110460F029
:1000B600ED33EC337009E8FCE9FDEAFEEBFF2204C0
:1000C60060DED3EB9FEA9EE99DE8C2E78CF0C2F7BB
:1000D60095F0400CE8CCF8E9CDF9EACEFAEBCFFB87
:1000E60012042685D0F05804700320D5B3E80470B6
:1000F600075002B2D502046592D5EC0460F7E4CC51
:10010600C0E0C398F8603B94186008400DD0E0FB4F
:1001160002043DE4FBFAC9FC8028E830E406E4C9A1
:10012600FBE4CAFCE830E305E4C9CACBFCE85407A3
:100136006010F8C3E913F9EA13FAEB13FBEC13FCAE
:10014600D8F130F52FC3E49CFCEF9BFFEE9AFEED51
:1001560099FDD0E0FBEF4E4D4C701222DB030204FA
:1001660062EC2CFCEF33FFEE33FEED33FDED30E7B2
:10017600EB02043DEF2BFFEE3AFEED39FDD0E0FB3E
:1001860050130BBB0003020465ED13FDEE13FEEFE7
:0801960013FFEC13FC02043D11
:10019E00EC4D6011E8497017ED33EC3304600DE45B
:1001AE00FCFFFEFD22E933E8330470F802045B1213
:1001BE00042658046009E4CC248150062850090214
:1001CE000465284003020462C0E0EB4A7044B98023
:1001DE0006D0E0FB020451EF4E701CBD8008EBFF11
:1001EE00EAFEE9FD80EBE98DF0A4FEE5F002028760
:1001FE00E9CDF9EAFEEBFFEF89F0A4FCE5F0CE893C
:10020E00F0A42EFFE435F0CD89F0A42DFEE435F0F8
:10021E008067EF4E7005BD80D780C3EF8BF0A4AC26
:10022E00F0EE8BF0A42CFCE435F0F8EF8AF0A42C61
:10023E00E5F038FCE433CB8DF0A42CFCE5F03BF874
:10024E00EE8AF0A42CFCE5F038F8E433CF89F0A464
:10025E002CFCE5F038CF3400CE89F0A42FFFE5F06A
:10026E003EFEE433C98DF0A42EFEE5F039CD8AF0C2
:10027E00A42FFFE5F03EFEE43DFD33D0E0FB50073A
:10028E000BBB000F020465EC2CFCEF33FFEE33FECC
:06029E00ED33FD02043DFA
:1002A400020465EC5D046005E85904700302045B14
:1002B400120426580460F6EC4860F2EC7004FDFE6B
:1002C400FF22C860DB2481C85009C398600250062D
:1002D4000204629850CAF582E9294B4A7005AB8240
:1002E40002045175F0007C1A7880C3EF9BEE9AEDFE
:1002F40099400DC3EF9BFFEE9AFEED99FDE842F0A5
:10030400DC23ACF0D0E0FFD0E0FED0E0FDAB8220F7
:10031400E7101BEB60BAEC2CFCEF33FFEE33FEED81
:1003240033FD02043DE803F830E705C0F075F00042
:10033400EF2FFFEE33FEED33FD40B830E7C280AA65
:1003440074F8CC6480CCC86480C8F582046043C36C
:10035400EB9FF5F0EA9E42F0E99D42F0E89C45F0FF
:1003640060305018E5825FFFE582F42B5582FB5024
:10037400210ABA001D09B90019088016E5825BFB41
:10038400E582F42F5582FF50090EBE00050DBD0015
:10039400010CC3EB9FF5F0EA9E42F0E99D42F0E8C0
:0D03A4009C45F06007CC4820E701B3EC2237
:1003B10075F020800E75F010800575F0087D007EC7
:1003C100007F003392D530D503120873EC3340100F
:1003D100EF33FFEE33FEED33FDEC33FCD5F0ED22D0
:0E03E100E5F0247EA2D513CC92E7CDCEFF220C
:1003EF00EDD2E7CD33EC3392D524814006E4FFFE06
:1003FF00FDFC22FCE4CFCECDCC24E0501174FF8065
:10040F00EDC3CC13CCCD13CDCE13CECF13CF047001
:07041F00F030D5DE02087386
:101C0400E55E244AF8E6055E227847301002784AF9
:101C1400E475F0011209BA0207082009EB7F2ED2FD
:101C2400098018EF540F2490D43440D4FF300D0BA6
:101C3400EF24BFB41A0050032461FFE55F6002156E
:101C44005F0562E5627002056130100D7847E47546
:101C5400F0011209BAEF02074E02417D7403D2105B
:101C64008003E4C210F55E8B478A488949E4F55F36
:101C7400F561F562E55F60077F20121C3F80F57512
:101C840060FFC20AC209C20BC20CC20EC20FC2114B
:101C9400121C0DFF700D3010057F00121C50AF6236
:101CA400AE6122B4255FC2D5C20D121C0DFF24D033
:101CB400B40A00501A75F00A785F30D50508B6FFEB
:101CC4000106C6A426F620D5047002D20C80D924BD
:101CD400CFB41A00EF5004C2E5D20D021F3DD20A60
:101CE40080C6D20980C0D20B80BCD2D580BAD20EB5
:101CF40080B47F20121C3F200B077401B55F0040A5
:101D0400F1121C04FF121C3F021C78D211D20F8066
:101D140095121C04FB121C04FA121C04F94A4B70A1
:101D24000679347A207BFF200B2EE55F602A7E0043
:101D34008E8275830012072160060EEE656070F0D6
:101D4400C2D5EBC0E0EAC0E0E9C0E0EE121F9DD0CE
:101D5400E0F9D0E0FAD0E0FB120708FF60AAEBC07C
:101D6400E0EAC0E0E9C0E0121C3FD0E02401F9D071
:101D7400E03400FAD0E0FBE5600460DCD560D98093
:101D840087D20B80A2121F8060F7E56070010412F5
:101D94000470A960600DE560600914F560122027E5
:101DA400EF60F3EA30E702F404C3995077EAF425CC
:101DB400600430E701E404F560800D121F8060C107
:101DC400EA05602560120470EA785DF630E701E404
:101DD400256004D56004200E0114121F9DE4C0E0A8
:101DE400122027785DE6601320E70714F6121C27FB
:101DF400802204F6D0E014C0E07F00121C27E560C6
:101E04006007121C1E1560800B300E03121C1ED0BE
:101E1400E0021C78D0E00480C5121F8060A0E56059
:101E240004120470785DEAF6E560200E0260010495
:051E34002404121F9DB3
:101E390074FF04C0E0122027121C27E560200E025F
:101E49006003121C1ED0E0B560E87F45121C317892
:101E59005DE67F2B30E7047F2DF404C0E0121C3FC0
:101E6900D0E075F00A84C0F0121C28D0E0121C28BA
:101E7900021C78791080027908C20FC2118008D239
:101E8900D5790A8004790AC2D5E560047002F56043
:101E9900E4FAFDFEFF121C04FC7B08200A13121C45
:101EA90004FD7B1030090A121C04FE121C04FF7B7E
:101EB90020EC3382D592D55013C3E43009069FFF35
:101EC900E49EFEE4200A039DFDE49CFCE4CBF8C2F9
:101ED9000AEC700CCFCECDCCE824F8F870F380175B
:101EE900C3EF33FFEE33FEED33FDEC33FCEB33FB95
:101EF900994002FB0FD8E9EB300A05F8D0E0C44855
:101F0900B20AC0E00AEC4D4E4F78207B0070C2EA5D
:101F1900B5600040BCC0E0121F9FD0F0D0E0200A9D
:101F290004C4C0E0C4B20AC0F0121C28D0F0D5F035
:101F3900EB021C78120A031D15531E7C581CE64C33
:101F49001CE2421E804F1E88441E88491CFB431E0A
:101F59008E551DBF461E1D451D89472054501CEA3C
:101F69002D1CEE2E1D112B1CF2231D0F20203D2AA6
:101F79001CAA4800001D09E560B4FF03756006123C
:101F89001C04FC121C04FD121C04FE121C04FF7824
:101F99005602049F790AA2D5200C14300E09B910F3
:101FA900020404B9080104A2D5200F02500104203B
:101FB9000B68920BB55F005034C0E07F20300C19DC
:101FC9007F30A20B720F720E500F121FF6C20BC296
:101FD9000FC20EC2117F30800F300E03E9C0E0122C
:101FE9001C3F300E03D0E0F9D0E0B55FCC300E17BE
:101FF9007F30B9100C121C3F7F58300D077F788055
:1020090003B90803121C3F300B057F2D021C3F7FCB
:10201900202011F87F2B200FF322920B80CF7F0015
:10202900B4070050052456F8E6FF22286E756C6C3B
:102039002900D20A121C04300AF8C20A785F30D586
:102049000108F6021CAA2D50434958121C04240306
:10205900B405004001E490204F93121C30743A12E9
:0A2069001C30D20C755F04021E7CCF
:10042600E9D2E7C933E833F892D5EDD2E7CD33EC1C
:0704360033FC5002B2D52295
:10043D00EC30E7100FBF000C0EBE00080DBD000420
:10044D000BEB6014A2D5EB13FCED92E7FD2274FFCC
:10045D00FCFDFEFF22E480F8A2D574FF13FC7D8025
:03046D00E480EF39
:10047000F920E72824F950037907E4F42402FB1853
:10048000DBFDE624FB5014E9600DE4F618E604F603
:0F049000B40A08E4F6D9F57401F60A22C2D5229F
:10049F00ED33EC3392D5FA602AB4FF33EDC2E77B2C
:1004AF00FF60067A0479C4E4227A0479CD20D5045A
:1004BF007A0479C8224E614E002B494E46002D49D1
:1004CF004E4600E47A08F608DAFC7B00740722E84F
:1004DF00C0E0ECC0E0EDC0E0EEC0E0EFC0E0EA75D8
:1004EF00F010A4CAABF075F04DA42BFBE435F0FC73
:1004FF00EA2410FAEB34C5FBEC34D9FCEDC2E7FF6C
:10050F0075F056A4F42411C5F0F434C58FF0A42A65
:10051F00E5F03BE43CF620E7141205D2D0E0FFD023
:10052F00E0FED0E0FDD0E0FC1202A78014F404122C
:10053F0005D2D0E0FFD0E0FED0E0FDD0E0FC12010C
:10054F009ED0E0F8E6FAEDD2E7CD33EC332482FB10
:10055F00E4C3CF33CFCE33CECD33CD33DBF37B07F5
:10056F0075F00A846004F6081B0AE5F0F6088FF0B0
:10057F00740AA4FFACF08EF0740AA42CFEACF050F9
:10058F00010C8DF0740AA42CFDE435F0F608DBDEC7
:03059F00740722BC
:1005A2003F8000004120000042C80000447A000061
:1005B200461C400047C35000497424004B189680E3
:1005C2004CBEBC205A0E1BCA6753C21C749DC5AEDA
:1005D200FB60065407601C2323120600EB543860AC
:1005E200091205EC1205FB12019EECF8EDF9EEFA88
:1005F200EFCB22EB1205FB80F1543803241C90054B
:10060200A2FE93FC0EEE93FD0EEE930ECE93FF220E
:0300000002355C6A
:0C355C00787FE4F6D8FD7581A40235A349
:10061200E709F608DFFA8046E709F208DFFA803ECA
:1006220088828C83E709F0A3DFFA8032E309F608B7
:10063200DFFA8078E309F208DFFA807088828C831F
:10064200E309F0A3DFFA806489828A83E0A3F608D3
:10065200DFFA805889828A83E0A3F208DFFA804CAD
:1006620080D280FA80C680D4806980F28033801084
:1006720080A680EA809A80A880DA80E280CA8033ED
:1006820089828A83ECFAE493A3C8C582C8CCC58365
:10069200CCF0A3C8C582C8CCC583CCDFE9DEE78035
:1006A2000D89828A83E493A3F608DFF9ECFAA9F0B4
:1006B200EDFB2289828A83ECFAE0A3C8C582C8CC0A
:1006C200C583CCF0A3C8C582C8CCC583CCDFEADE23
:1006D200E880DB89828A83E493A3F208DFF980CC85
:1006E20088F0EF60010E4E60C388F0ED2402B4047E
:1006F2000050B9F582EB2402B4040050AF23234525
:06070200822390066273E1
:10070800BB010689828A83E0225002E722BBFE02EF
:09071800E32289828A83E4932222
:10072100BB010CE58229F582E5833AF583E022508D
:1007310006E92582F8E622BBFE06E92582F8E222D7
:0D074100E58229F582E5833AF583E49322F1
:10074E00BB010689828A83F0225002F722BBFE018A
:02075E00F32284
:10076000F8BB010DE58229F582E5833AF583E8F0CF
:10077000225006E92582C8F622BBFE05E92582C87B
:02078000F22263
:10078200EF8DF0A4A8F0CF8CF0A428CE8DF0A42E8B
:02079200FE2245
:10079400C2D5EC30E709B2D5E4C39DFDE49CFCEE80
:1007A40030E715B2D5E4C39FFFE49EFE120A55C399
:1007B400E49DFDE49CFC8003120A5530D507C3E494
:0607C4009FFFE49EFE22EF
:1007CA00BB010A89828A83E0F5F0A3E022500687FA
:1007DA00F009E71922BBFE07E3F5F009E3192289BC
:0B07EA00828A83E493F5F074019322EF
:1007F500BB0110E58229F582E5833AF583E0F5F042
:10080500A3E0225009E92582F886F008E622BBFE1E
:100815000AE92582F8E2F5F008E222E5832AF58364
:08082500E993F5F0A3E9932229
:10082D00BB010789828A83020AAA500B09C5F027EA
:10083D00F7C5F01937F722BBFE0D09F8E325F0F3E4
:10084D00C5F019E338F322F889828A837401932560
:08085D00F0C5F0F8E493382225
:0E086500C3EF9BFFEE9AFEED99FDEC98FC228E
:0E087300C3E49FFFE49EFEE49DFDE49CFC2296
:10088100EB9FF5F0EA9E42F0E99D42F0E89C45F0CD
:010891002244
:10089200E8600FECC313FCED13FDEE13FEEF13FF44
:0308A200D8F12268
:1008A500BB010789828A8302090F5005E9F8020A0C
:1008B500C0BBFE05E9F8020ACC89828A83020AD800
:1008C500BB010DE58229F582E5833AF58302090F1F
:1008D5005007E92582F8020AC0BBFE07E92582F820
:1008E500020ACCE58229F582E5833AF583020AD826
:1008F500BB010789828A830209635005E9F8020969
:0A09050057BBFE05E9F8020B1222B1
:0C090F00E0FCA3E0FDA3E0FEA3E0FF225B
:0C091B00E0F8A3E0F9A3E0FAA3E0FB225F
:10092700BB010DE58229F582E5833AF58302091BB0
:100937005007E92582F8020AE8BBFE07E92582F895
:10094700020AF5E58229F582E5833AF583020B026F
:0C095700ECF608EDF608EEF608EFF622CC
:0C096300ECF0A3EDF0A3EEF0A3EFF02207
:10096F00A8828583F0D083D082120986120986125D
:10097F000986120986E473E493A3C583C5F0C58382
:10098F00C8C582C8F0A3C583C5F0C583C8C582C8D2
:01099F002235
:1009A000F5F0C582A4C582C5F0C583A42583F5836F
:0109B0002224
:0909B100E6FB08E6FA08E6F9226B
:1009BA00FAE6FB0808E6F925F0F618E6CA3AF6223E
:0909CA00EBF608EAF608E9F62252
:1009D300BB010DE58229F582E5833AF583020B1EFF
:1009E3005007E92582F80209B1BBFE07E92582F821
:1009F300020B27E58229F582E5833AF583020B3062
:100A0300D083D082F8E4937012740193700DA3A382
:100A130093F8740193F5828883E473740293686096
:060A2300EFA3A3A380DF96
:10404800120708601CFF09E970010AC0E0EAC0E035
:10405800EBC0E012417DD0E0FBD0E0FAD0E0F9807F
:0A406800DF7F0A12417DE4FEFF2213
:103A1E008B478A4889498B4D8A4E894FAB4705495A
:103A2E00E549AA487002054814F912070870ED74AA
:103A3E00FF2549F54974FF3548F548AB4A054CE575
:103A4E004CAA4B7002054B14F9120708FFAB470541
:103A5E0049E549AA487002054814F9EF12074E705D
:083A6E00DAAB4DAA4EA94F226C
:103BCC008B478A488949E4F54FF550E54E154EAEC2
:103BDC004D7002154D4E6033AB4AAA4BA94C1207DF
:103BEC0008FFAB47AA48A9490550E550AC4F7002F5
:103BFC00054F14F5828C83EF120760EF60CD7401D2
:103C0C00254CF54CE4354BF54B80C0AB47AA48A985
:023C1C0049223B
:10415400E4FFFE120708600C0FEF70010E09E9700E
:05416400F20A80EF22C9
:100A2900EF4E6012EF60010EEDBB010B89828A83E4
:100A3900F0A3DFFCDEFA2289F05007F709DFFCA9F1
:0C0A4900F022BBFEFCF309DFFCA9F02248
:103568000241A2E493A3F8E493A34003F68001F296
:1035780008DFF48029E493A3F85407240CC8C33364
:10358800C4540F4420C8834004F456800146F6DF33
:10359800E4800B0102040810204080903A76E47E13
:1035A800019360BCA3FF543F30E509541FFEE49328
:1035B800A360010ECF54C025E060A840B8E493A3EF
:1035C800FAE493A3F8E493A3C8C582C8CAC583CA1A
:1035D800F0A3C8C582C8CAC583CADFE9DEE780BED2
:013ACC0000F9
:100A5500BC000BBE0029EF8DF084FFADF022E4CC85
:100A6500F875F008EF2FFFEE33FEEC33FCEE9DEC4E
:100A7500984005FCEE9DFE0FD5F0E9E4CEFD22ED94
:100A8500F8F5F0EE8420D21CFEADF075F008EF2FDE
:100A9500FFED33FD4007985006D5F0F222C398FDCF
:050AA5000FD5F0EA226C
:100AAA00C5F0F8A3E028F0C5F0F8E58215827002D7
:060ABA001583E038F02274
:0C0AC000E6FC08E6FD08E6FE08E6FF2262
:0C0ACC00E2FC08E2FD08E2FE08E2FF2266
:100AD800E493FC740193FD740293FE740393FF2264
:0D0AE800E6FB08E6F908E6FA08E6CBF8227E
:0D0AF500E2FB08E2F908E2FA08E2CBF82281
:100B0200E493F8740193F9740293FA740393FB2249
:0C0B1200ECF208EDF208EEF208EFF2221F
:090B1E00E0FBA3E0FAA3E0F922D8
:090B2700E2FB08E2FA08E2F922FF
:0C0B3000E493FB740193FA740293F92221
:00000001FF
