:100D980075FFDE75FFAD75E104E4F5E275E34075B6
:100DA800A401F5A5F5A675A72075B16775B20875F4
:100DB800FF0775FFA543B28075EF091218FEE4F529
:100DC800307D00AF301219487D01AF30121A9512EC
:100DD8001B620530E530C3940140E6E4F520C20EFD
:100DE800C209C20FC20BC20DC2B5786CF6786AF69A
:100DF80018F67870F6F53074722530F8E4F6053098
:100E0800E530B414F2E4F53074862530F8E4F605DC
:100E180030E530B414F27D05E4FF121B09E4786F65
:100E2800F67867F67867E675F010A42453F582E53E
:100E3800F0340FF583E493FF786F26F6EF600578BA
:100E4800670680E0121419EF6003020F1D74FFF5A6
:100E580042F543F544F545E4F546F547FE7F10FDB8
:100E6800FB7A007948120AB77535FF75360F753762
:100E78004B7538007539107B007A0079481218AC28
:100E8800E4F53075F010E530A42453F582E5F0342C
:100E98000FF583E493607775F010E530A42457F5D7
:100EA80082E5F0340FF583E49320E25DE4F531E563
:100EB80031C378C696505275F010E530A42453F526
:100EC80082E5F0340FF583E493FF7E00C006C00787
:100ED8007D00786FE68531F0A4FFAEF075F010E57F
:100EE80030A42460F582E5F0340FF583E493FB74B5
:100EF8000193FA7402932FF9EA3EFAD007D006124A
:100F08000AB7121B62053180A60530020E8B7F01DD
:100F18001216728016D20DE4FF121672E5EF30E356
:100F28000AD2030547E54770020546E4F5307A0022
:100F38007B967D03AF301215F90530E530C3940177
:020F480040EC7B
:010F4A002284
:05001E007870E6FF22EE
:011B6600225C
:030023000212AB1B
:1012AB00C0E0C0F0C083C082C0D075D00830991C9C
:1012BB00C299786A06E6FF786C667009786AF6C29E
:1012CB00B5D20A800774862FF8E6F59920980302A9
:1012DB00135A209A07200E04C298806FC29A78691D
:1012EB00E6062472F8A699C2987869E6FFB4011352
:1012FB007872E6FE70057869F68054EE5407240286
:10130B007871F6EFB4020E7871E6B409087873E6DB
:10131B0024037971F7D2087869E6FFB414047600D8
:10132B00802DEFC378719640267B007A0079727816
:10133B0069E624FFFDE434FFFC1219CF7869E6243B
:10134B0071F8E66F6002800312002678697600D090
:0A135B00D0D082D083D0F0D0E03271
:051AE300E493FF7D22E9
:101AE8008F2A8D2BE52B6010F8E6FFE52AFD7C0098
:101AF800121B55A82BC6EFC6852A993099FDC299A5
:011B080022BA
:101A0D00C9EFC9EDC39B402378C6E6FFEB2FFFE47A
:101A1D0033FEEDC39FEE6480F8748098500DD20EA6
:101A2D00C3ED9B7870F6786BE9F622C20EE4786B05
:021A3D00F6228F
:10199000C9EFC9BAFF0FBBFF0CED6B7002EC6A70A8
:1019A00027D20E801BC3ED9BEC9A401C78C6E62B19
:1019B000FFE43AFEC3ED9FEC9E500DD20EC3ED9BAB
:0F19C0007870F6786BE9F622C20EE4786BF622A7
:100026007872E6FF54F8F523EF120A91006C090086
:10003600770A008610008D11009C1200AF1900C3CC
:100046001A00E92000EE2801582901F53402153777
:10005600024939025841026149026A50029161021D
:100066006E98000002C27873E6FDE543FB7F0180CF
:100076001F7873E6FC08E6FDAB43AA427F018023A6
:10008600E4FBFD7F0380097873E6FDE545FB7F020F
:10009600121A0D0202C27873E6FC08E6FDAB45AA09
:1000A600447F021219900202C27873E6FDE543FB13
:1000B6007F01121A0D200E030202C280167873E623
:1000C600FC08E6FDAB43AA427F01121990200E03FD
:1000D6000202C278867678786C7601D2B575997800
:1000E6000202C2D20B0202C2C2ACE4F522D2B57D34
:1000F600227F7F121AE87D227F18121AE87D227F5E
:1001060017121AE87867E6FF7D22121AE87D22AFF9
:1001160042121AE87D22AF43121AE87D22AF44123A
:100126001AE87D22AF45121AE87D22AF46121AE878
:100136007D22AF47121AE8E4F52474482524F8E630
:10014600FF7D22121AE80524E524C3941040EB0231
:1001560001E77873E6FFC378679640030202C2752B
:10016600F010EFA42453F582E5F0340FAF82F528A2
:100176008F29C2ACE4F522D2B57D227F7F121AE820
:100186007D227F0D121AE8852982852883121AE3BB
:100196008529828528837401121AE4852982852897
:1001A600837402121AE48529828528837403121A3D
:1001B600E48529828528837404121AE4E4F524E58B
:1001C600292405F582E43528F583E5822524F58280
:1001D600E43583F583121AE30524E524C394084025
:1001E600DEE4FDAF22121AE8C2B5D2AC0202C27A30
:1001F600007B327D017870E6FF1215F97873E6F51B
:100206004208E6F54308E6F54408E6F545802E7A09
:10021600007B327D017870E6FF1215F9E4F524E5DE
:1002260024C3787396501674742524F8E6FF744830
:100236002524F8C6EFC60524E524B410E2D209D277
:100246000C80797A007B327D017870E6FF1215F911
:10025600806A7873E624FF920280617873E624FF51
:1002660092018058D20F80547A007B327D017870DB
:10027600E6FF1215F9D209788676787869E6247150
:10028600F8E67887F6786C7602802A7A007B327DEB
:10029600017F001215F9788676797873E67887F605
:1002A6007B007A0079867D027C001219CF7888EF70
:1002B600F6786C7603D2B57886E6F599E52364A0E0
:1002C60060030204DA7872E664A160030203F608AA
:1002D600E6FFC378679640030204DA75F010EFA4D0
:1002E6002453F582E5F0340FF583E493F52675F093
:1002F60010EFA42457F582E5F0340FF583E493302C
:10030600E20F121B5D8F26E52624787886F6020317
:10031600CD7873E6FF121B5DE526D394064056782A
:1003260086767F08A626E4F524E524C39526504163
:100336007870E6FF18E68FF0A47C002524FFEC35E4
:10034600F0FE7873E675F010A42460F582E5F034CB
:100356000FF583E493FB740193FA740293F98F8289
:100366008E83120953FF74882524F8EFF60524803E
:10037600B805268052E52624787886F6E4F524E545
:1003860024C3952650417870E6FF18E68FF0A47CCA
:10039600002524FFEC35F0FE7873E675F010A424F2
:1003A60060F582E5F0340FF583E493FB740193FA6C
:1003B600740293F98F828E83120953FF7487252462
:1003C600F8EFF6052480B87B007A007986E52624C6
:1003D60001FDE433FC1219CF74872526F8EFF6E504
:1003E600262402786CF6D2B57886E6F5990204DA08
:1003F6007872E664A260030204DA7867E6FF78732F
:10040600E6FEC39F40030204DA08E6FDC39F4003ED
:100416000204DAEEC39D40030204DA18E6F524E48A
:10042600F526E524D3787496501FAF24121B5D750C
:10043600F010E524A42453F582E5F0340FF583E4A7
:10044600932526F526052480D9C2ACE4F522D2B53B
:100456007D227F7F121AE87D22AF26121AE8787372
:10046600E6F524E524D3787496505EE4F52575F018
:1004760010E524A42453F582E5F0340FF583E493C4
:10048600FFE525C39F503E7870E6FF18E68FF0A47F
:100496007C002525FFEC35F0FE75F010E524A4243C
:1004A60060F582E5F0340FF583E493FB740193FA6B
:1004B600740293F98F828E83120953FF7D22121ADA
:1004C600E8052580A90524809AE4FDAF22121AE8E2
:1004D600C2B5D2ACE5236458704DFA7B327D017803
:1004E60070E6FF1215F9752D00752E00752F877BA6
:1004F600007A007973121A3F8F26E52624787886CB
:10050600F67B007A007986E5262401FDE433FC12A9
:1005160019CF74872526F8EFF6E5262402786CF6BF
:10052600D2B57886E6F599E52364806009E523640B
:100536008860030206757A007B327D017870E6FFDB
:100546001215F97872E65407F526B4070A752501DF
:1005560008E6F526088005E4F5257873E6F52715FF
:1005660026E527C3786796400302064D75F010E529
:1005760027A42453F582E5F0340FF583E493FFE5D1
:1005860026D39F40028F26E4F524E524C395264012
:100596000302064075F010E527A42457F582E5F01E
:1005A600340FF583E49330E20302063B75F010E561
:1005B60027A42454F582E5F0340FF583E4936438D8
:1005C600701BE526D394044008E525252424748071
:1005D6002A7869E6C39524FF74702F801E75F01083
:1005E600E527A42453F582E5F0340FF583E493FF61
:1005F600C37869E69F252425252471F8E6FD7870E1
:10060600E6FF18E68FF0A4FFE5247A002FFFEA350F
:10061600F0FE75F010E527A42460F582E5F0340FAE
:10062600F583E493FB740193FA740293F98F828E37
:1006360083ED1209920524020590AF27120003E507
:10064600236488702A800FE527B4FF237874E6F5C3
:1006560020E523B48819788676787869E62471F8D7
:0F066600E67887F6786C7602D2B57886E6F59955
:010675002262
:10700000C2AF75FFDE75FFADE4F531F530D2B5C224
:10701000997599783099FDC299E4F5993099FDC236
:10702000B53098FD859930C298E4F532E53024FDFD
:10703000605214700302710614700302713E24033F
:1070400060030271413098FD859931C298E5312580
:10705000E0FEC3E49400EE94705023E5B654F0448F
:1070600008F5B6758F03E53125E0F53475350085F3
:107070003582F583E4F053B6F0F58F027141753235
:10708000FF027141D2B43098FD859931C298E5B6BE
:1070900054F04408F5B6758F01E53125E0F53475F7
:1070A0003500E4FFE4F5333098FD0535E535AC34C3
:1070B0007002053414F5828C83E599F0C29805338B
:1070C000E533B43CE2D2B5C2997599783099FDC2E6
:1070D00099E4F5993099FDC2B50FBF08C7E4F533BF
:1070E0003098FD0535E535AE347002053414F5826F
:1070F0008E83E599F0C2980533E533B420E253B6A8
:10710000F0E4F58F803BC2B43098FD859931C29888
:10711000E5317F0025E0FEE4F532FDFC0FEFCAEE1D
:10712000CA70010E14F5828A83E4932532F5320D7C
:10713000BD00010CED7003EC640270E0800375EF9C
:1071400010D2B5C2997599783099FDC29985329956
:107150003099FDC2B5E53064066003027021D2AFFC
:01716000220C
:1017B000121B62121B66121B67200D0B7A007B96B0
:1017C0007D017F001215F930091C121B3DE47B2CB2
:1017D0007A01F9F8C3120A5B500CC209E4F546F528
:1017E00047121365D20D300F15121B3DE47B2C7A86
:1017F00001F9F8C3120A5B5005C20F127000300BDA
:051800000375EF10224A
:0B1B4A00120D981217B012175680F809
:100F4B005343532D3630300001320000004F75747F
:100F5B00300000000000009A01320000004F757451
:100F6B00310000000000009B01320000004F75743F
:100F7B00320000000000009C01320000004F75742D
:100F8B00330000000000009D01320000004F75741B
:100F9B00340000000000009E01320000004F757409
:100FAB00350000000000009F01320000004F7574F7
:100FBB0036000000000000A001320000004F7574E5
:100FCB0037000000000000A10134000000427574DE
:100FDB00746F6E00000000A201340000005031005D
:100FEB0000000000000000A30134000000496E70F7
:100FFB0075743100000000A40134000000496E70CC
:10100B0075743200000000A5045A000001506F7780
:10101B0065723000000000A6045A000001506F7783
:10102B0065723100000000AA045A000001506F776E
:10103B0065723200000000AE045A000001506F7759
:10104B0065723300000000B2045A000001506F7744
:10105B0065723400000000B6045A000001506F772F
:10106B0065723500000000BA045A000001506F771A
:10107B0065723600000000BE045A000001506F7705
:10108B0065723700000000C2000000000000000085
:08109B0000000000000000004D
:0300170001C6011E
:1016720075A47B75A5FFD283C284C286D287EF6030
:1016820024E4F532749A2532F8E4F678A3F6E532CA
:1016920025E025E024A6F8120A7842C800000532A7
:1016A200E532B408DFE4F532749A2532F8E66012C6
:1016B200AF327401C8EFC8088002C333D8FC425D60
:1016C2008011AF327401C8EFC8088002C333D8FC5E
:1016D200F4525D0532E532B408CE7F0912000302EE
:0216E20011AA4B
:100003001566A866EFF6A866E6B4090578A3E6F5D3
:0400130090056622CC
:051B5D008F2A7F002229
:101A3F008B2A8A2B892C12093AAB2DAA2EA92F1289
:101A4F000980AB2AAA2BA92C900001120953AB2DA8
:0D1A5F00AA2EA92F9000011209927F0222E9
:1011AA00E4F533F534308710AF347480C8EFC808DB
:1011BA008002C313D8FC42337F0A7E0012185AD227
:1011CA00847F0A7E0012185AC2847F0A7E0012188F
:1011DA005A0534E534C3940840CB78A2A633E4F523
:1011EA0033F534308710AF347401C8EFC808800271
:1011FA00C333D8FC423374017E00A834088005C387
:10120A0033CE33CED8F9FFEF555D7003D38001C3D7
:10121A0092867F0A7E0012185AD2847F0A7E0012B2
:10122A00185AC2847F0A7E0012185A0534E534C35C
:10123A00940840AF78A5A633E4F533F53430871027
:10124A00AF347401C8EFC8088002C333D8FC4233F4
:10125A0074807E00A834088006CEA2E713CE13D885
:10126A00F8FFEF555D7003D38001C392867F0A7E33
:10127A000012185AD2847F0A7E0012185AC2847F3A
:10128A000A7E0012185A0534E534C3940840AE7831
:10129A00A4A633D2857F0A7E0012185AC285C28359
:0112AA002221
:100B4E00E4F531E53125E025E024A6F8120A6CE43F
:100B5E00FBFA79C8784212080E60025003020C9913
:100B6E00121B3DC3EF955BF539EE955AF538ED95B1
:100B7E0059F537EC9558F536E53125E025E024A6F4
:100B8E00F8120A6C1208B9AB39AA38A937A836C3BD
:100B9E00120A5B5003020C99E53125E025E024A6EC
:100BAE00F8120A6C1208B9E412087BECC0E0EDC032
:100BBE00E0EEC0E0EFC0E0E53125E025E024A6F848
:100BCE00120A6CD0E0FBD0E0FAD0E0F9D0E0F812D7
:100BDE0006798F358E348D338C32E4FFFEFDFCABFF
:100BEE0035AA34A933A83212080E602AE53125E061
:100BFE0025E024A6F8120A6C1208B9EF2401FFE4CE
:100C0E003EFEE43DFDE43CFCAB39AA38A937A836DC
:100C1E00C3120A5B4010AF317401C8EFC8088002DE
:100C2E00C333D8FC805AE55CD394004058745E25DB
:100C3E0031F8E6FCE4120885ECC0E0EDC0E0EEC051
:100C4E00E0EFC0E0AC5CE4120885C8ECC8C9EDC9A1
:100C5E00CAEECACBEFCBD0E0FFD0E0FED0E0FDD0A5
:100C6E00E0FC120771AB35AA34A933A83212080E74
:100C7E005013AF317401C8EFC8088002C333D8FCDB
:100C8E00F4525D8006745E2531F8060531E531C3F8
:100C9E0094085003020B51121B3DC3EF955BFFEE00
:100CAE00955AFEED9559FDEC9558FCE47B64FAF9E6
:100CBE00F8D3120A5B5061121B3D8F5B8E5A8D5911
:100CCE008C58E4F531E53125E025E024A6F8120A2A
:100CDE006CE4FBFAF9F812080E5018749A2531F8E4
:100CEE00E66010AF317401C8EFC8088002C333D874
:100CFE00FC425D0531E531B408CBE55C0475F00AC4
:100D0E008485F05CE55C7010F531745E2531F8E495
:100D1E00F60531E531B408F2E4F531749A2531F86F
:100D2E00E67010AF3104C8EFC8088002C333D8FC98
:100D3E00F4525D0531E531B408E1E4F531E53125D4
:100D4E00E025E024A6F8120A6CE4FBFA79C8784292
:100D5E0012080E6002502B749A2531F8E66012AF1D
:100D6E00317401C8EFC8088002C333D8FC425D80DD
:100D7E0011AF317401C8EFC8088002C333D8FCF438
:090D8E00525D0531E531B408B4F1
:010D97002239
:1017560078A2E6F5301211AAE4FD74017E00C8ED08
:10176600C8088005C333CE33CED8F9FF78A2E6FB8E
:10177600EF5BD3940074809480402874017E00C887
:10178600EDC8088005C333CE33CED8F9FFE530FB6C
:10179600EF5B700F749A2DF8E670047F0180027F6C
:0A17A60000EFF60DBD08B3020B4E74
:1010A300005EBCE2613FDD83C29C7E20A3FD1F4145
:1010B3009DC3217FFCA2401E5F01E3BD3E6082DC35
:1010C300237D9FC1421CFEA0E1BF5D0380DE3C6225
:1010D300BEE0025CDF81633D7C22C09E1D43A1FF15
:1010E3004618FAA427799BC584DA3866E5BB590705
:1010F300DB856739BAE406581947A5FB7826C49AF5
:10110300653BD987045AB8E6A7F91B45C6987A24E4
:10111300F8A6441A99C7257B3A6486D85B05E7B9D4
:101123008CD2306EEDB3510F4E10F2AC2F7193CDC4
:10113300114FADF3702ECC92D38D6F31B2EC0E50B4
:10114300AFF1134DCE90722C6D33D18F0C52B0EEA4
:10115300326C8ED0530DEFB1F0AE4C1291CF2D7394
:10116300CA947628ABF517490856B4EA6937D58B84
:101173005709EBB536688AD495CB2977F4AA481674
:10118300E9B7550B88D6346A2B7597C94A14F6A864
:10119300742AC896154BA9F7B6E80A54D7896B3554
:0711A300DCEEF4FAFDFEFF93
:0A19CF008B2A8A2B892C8C2D8D2E7B
:1019D900E4F52FFFFEC3EF952EE52D6480F8EE6444
:1019E9008098501DAB2AAA2BA92C8F828E831209AD
:1019F90053652FFD9010A393F52F0FBF00010E80A3
:031A0900D4AF2F28
:011A0C0022B7
:071B5500ED6F9010A393FF58
:011B5C002266
:021B09008F3219
:101B0B007598D075C83475CBFFED9011A293F5CABB
:081B1B00D2ACC2BCD2AFC29AE9
:011B2300229F
:011B6700225B
:1018FE00D2AF43A808D2BB438910E4F58E758DDBB9
:10190E00F58BD28EF51FF51EF51DF51CFFEF25E0AC
:10191E0025E024C7F8E4F6EF25E025E024C8F8E436
:10192E00F6EF25E025E024C9F8E4F6EF25E025E002
:09193E0024CAF8E4F60FBF01D43D
:01194700227D
:101A95001566A866EDF61566A866EFF6A866E6FF74
:101AA500C39401500D08E6FEEF25E025E024C7F8B4
:071AB500EEF605660566224E
:1015F90015661566A866EAF608EBF61566A866ED9F
:10160900F61566A866EFF6A866E6FFC39401505280
:10161900EF25E025E024CAF8E67047A866E6FB2531
:10162900E025E024C8F8E67039A86608E625E00454
:10163900FFA866E6FA25E025E024CAF8EFF6A866D1
:101649000808E6FE08E6FF7C007D0A1209B4EA25CF
:10165900E025E024C9F8EFF6EB25E025E024C8F8F9
:09166900E4F6E5662404F56622AE
:10194800C0D075D0101566A866EDF61566A866EFC6
:10195800F6A866E6FFC39401501CEF25E025E024B5
:10196800C7F8E66011A86608E670047F0180027F68
:1019780000A86608EFF6A866E6700608E624FF9257
:08198800B405660566D0D0220B
:0714C900C0D075D0101566BC
:1014D000A866E4F6A866E6FFC39401400302156817
:1014E000EF25E025E024CAF8E6FFD394004052A897
:1014F00066E625E025E024C8F8E67045EF30E01503
:10150000A866E6FF25E025E024CAF8E6D39401406A
:10151000047D0080067D01A866E6FF121948A866D2
:10152000E6FF25E025E024CAF816E66014EF25E082
:1015300025E024C9F8E6FEEF25E025E024C8F8EE12
:10154000F6A866E625E025E024C8F8E6600116A8BE
:1015500066E6FF25E025E024CAF8E670057D011265
:081560001948A866060214D424
:051568000566D0D02251
:03001B00021ABC0A
:101ABC00C0E0C0D075D010758DDCE51F2401F51F7A
:101ACC00E4351EF51EE4351DF51DE4351CF51C1220
:071ADC0014C9D0D0D0E032A4
:0C1B3D00C2AFAF1FAE1EAD1DAC1CD2AF7E
:011B49002279
:041B620075FFA52244
:041A6C008E188F1928
:101A7000E4F51AF51BC3E51B9519E51A95185014E2
:101A80007FE87E0312185A1217B0051BE51B70E59C
:041A9000051A80E1D2
:011A9400222F
:04185A008E358F3602
:10185E00D3E53694FAE5359400500AEFD394004060
:10186E003C001F80F6853537853638D3E53894FA37
:10187E00E537940040157FFA7E0012185A7406253B
:10188E0038F53874FF3537F53780E0D3E5369400F8
:0D189E00E53594004007AF38AE3712185AF8
:0118AB00221A
:081805008B388A39893A8D3BCA
:10180D00121B62AB3CAA3DA93E1209EA2400FFE57A
:10181D00F03480FE85383F853940853A41E4FDED51
:10182D00C3953B501BEF2DF582E43EF583E493AB5E
:10183D003FAA40A9418D827583001209920D80DF68
:0D184D00AB3CAA3DA93EE4853BF0020A1524
:0616E4008B368A378938BD
:1016EA00E5B654F04408F5B6758F01AB3AAA3BA9A2
:1016FA003C1209EA2400FFE5F03480F53D8F3E856F
:10170A00363F853740853841E4FFEFC39D5026AB0D
:10171A003F0541E541AA407002054014F912093A11
:10172A00FE053EE53EAA3D7002053D14F5828A8318
:10173A00EEF00F80D5E4F58F53B6F0CFEDCFAB3A8C
:0C174A00AA3BA93C8FF0120A15021B629A
:101B2400121B62E5B654F04408F5B6758F03908035
:081B340000E4F0F58F53B6F058
:011B3C002286
:101365007A007B327D057F031215F9121B62121B71
:1013750024E4F534F535F53A753B00753C34FB7AD4
:101385000079427D161216E4E4F531E531C378C6DD
:10139500965067E4F53075F010E530A42453F582D6
:1013A500E5F0340FF583E493604C786FE68531F012
:1013B500A4FFAEF075F010E530A42460F582E5F0E9
:1013C500340FF583E493FB740193FA7402932FF9B8
:1013D500EA3EFA75F010E530A42453F582E5F034C1
:1013E5000FF583E493FD753A00753B00753C3412A7
:1013F50016E4053080A005318091753212753334BD
:10140500753A00753B00753C347B007A0079327D76
:04141500020216E4D5
:10141900E4F536F537F53C753D00753E36FB7A0047
:1014290079427D16121805E4F533E533C378C6967B
:101439005067E4F53275F010E532A42453F582E5DE
:10144900F0340FF583E493604C786FE68533F0A4AC
:10145900FFAEF075F010E532A42460F582E5F034B2
:101469000FF583E493FB740193FA7402932FF9EA5D
:101479003EFA75F010E532A42453F582E5F0340FF5
:10148900F583E493FD753C00753D00753E361218F1
:1014990005053280A005338091753C00753D0075C6
:1014A9003E367B007A0079347D02121805E53564F1
:0F14B900347004E534641270047F0180027F00F8
:0114C8002201
:10067600020925E86480F8E933E83360110460F084
:10068600ED33EC337009E8FCE9FDEAFEEBFF2204EA
:1006960060DED3EB9FEA9EE99DE8C2E78CF0C2F7E5
:1006A60095F0400CE8CCF8E9CDF9EACEFAEBCFFBB1
:1006B6001208F085D0F05804700320D5B3E8047012
:1006C600075002B2D502092F92D5EC0460F7E4CCAC
:1006D600C0E0C398F8603B94186008400DD0E0FB7A
:1006E600020907E4FBFAC9FC8028E830E406E4C9FD
:1006F600FBE4CAFCE830E305E4C9CACBFCE85407CE
:100706006010F8C3E913F9EA13FAEB13FBEC13FCD8
:10071600D8F130F52FC3E49CFCEF9BFFEE9AFEED7B
:1007260099FDD0E0FBEF4E4D4C701222DB0302091F
:100736002CEC2CFCEF33FFEE33FEED33FDED30E712
:10074600EB020907EF2BFFEE3AFEED39FDD0E0FB99
:1007560050130BBB000302092FED13FDEE13FEEF42
:0807660013FFEC13FC0209076C
:10076E0002092FEC5D046005E859047003020925A7
:10077E001208F0580460F6EC4860F2EC7004FDFECE
:10078E00FF22C860DB2481C85009C398600250065E
:10079E0002092C9850CAF582E9294B4A7005AB82A2
:1007AE0002091B75F0007C1A7880C3EF9BEE9AED60
:1007BE0099400DC3EF9BFFEE9AFEED99FDE842F0D6
:1007CE00DC23ACF0D0E0FFD0E0FED0E0FDAB822029
:1007DE00E7101BEB60BAEC2CFCEF33FFEE33FEEDB3
:1007EE0033FD020907E803F830E705C0F075F000A5
:1007FE00EF2FFFEE33FEED33FD40B830E7C280AA97
:10080E0074F8CC6480CCC86480C8F582046043C39D
:10081E00EB9FF5F0EA9E42F0E99D42F0E89C45F030
:10082E0060305018E5825FFFE582F42B5582FB5055
:10083E00210ABA001D09B90019088016E5825BFB72
:10084E00E582F42F5582FF50090EBE00050DBD0046
:10085E00010CC3EB9FF5F0EA9E42F0E99D42F0E8F1
:0D086E009C45F06007CC4820E701B3EC2268
:10087B0075F020800E75F010800575F0087D007EF8
:10088B00007F003392D530D503120A4DEC33401064
:10089B00EF33FFEE33FEED33FDEC33FCD5F0ED2201
:0E08AB00E5F0247EA2D513CC92E7CDCEFF223D
:1008B900EDD2E7CD33EC3392D524814006E4FFFE37
:1008C900FDFC22FCE4CFCECDCC24E0501174FF8096
:1008D900EDC3CC13CCCD13CDCE13CECF13CF047033
:0708E900F030D5DE020A4DDC
:1008F000E9D2E7C933E833F892D5EDD2E7CD33EC4E
:0709000033FC5002B2D522C6
:10090700EC30E7100FBF000C0EBE00080DBD000451
:100917000BEB6014A2D5EB13FCED92E7FD2274FFFD
:10092700FCFDFEFF22E480F8A2D574FF13FC7D8056
:03093700E480EF6A
:0300000002156D79
:0C156D00787FE4F6D8FD7581CA0215B441
:10093A00BB010689828A83E0225002E722BBFE02BB
:09094A00E32289828A83E49322EE
:10095300BB010CE58229F582E5833AF583E0225059
:1009630006E92582F8E622BBFE06E92582F8E222A3
:0D097300E58229F582E5833AF583E49322BD
:10098000BB010689828A83F0225002F722BBFE0156
:02099000F32250
:10099200F8BB010DE58229F582E5833AF583E8F09B
:1009A200225006E92582C8F622BBFE05E92582C847
:0209B200F2222F
:1009B400C2D5EC30E709B2D5E4C39DFDE49CFCEE5E
:1009C40030E715B2D5E4C39FFFE49EFE120AE3C3E9
:1009D400E49DFDE49CFC8003120AE330D507C3E4E4
:0609E4009FFFE49EFE22CD
:1009EA00BB010A89828A83E0F5F0A3E022500687D8
:1009FA00F009E71922BBFE07E3F5F009E31922899A
:0B0A0A00828A83E493F5F074019322CC
:100A1500BB010789828A83020B38500B09C5F02771
:100A2500F7C5F01937F722BBFE0D09F8E325F0F3FA
:100A3500C5F019E338F322F889828A837401932576
:080A4500F0C5F0F8E49338223B
:0E0A4D00C3E49FFFE49EFEE49DFDE49CFC22BA
:100A5B00EB9FF5F0EA9E42F0E99D42F0E89C45F0F1
:010A6B002268
:0C0A6C00E6FC08E6FD08E6FE08E6FF22B6
:100A7800D083D082E493F608740193F60874029345
:090A8800F608740393F67404737C
:100A9100D083D082F8E4937012740193700DA3A3F4
:100AA10093F8740193F5828883E473740293686008
:060AB100EFA3A3A380DF08
:1018AC008B328A338934E4F53AF53BE5391539AE98
:1018BC0038700215384E6033AB35AA36A937120989
:1018CC003AFFAB32AA33A934053BE53BAC3A700284
:1018DC00053A14F5828C83EF120992EF60CD7401F6
:1018EC002537F537E43536F53680C0AB32AA33A947
:0218FC00342294
:100AB700EF4E6012EF60010EEDBB010B89828A8356
:100AC700F0A3DFFCDEFA2289F05007F709DFFCA963
:0C0AD700F022BBFEFCF309DFFCA9F022BA
:10157900021B4AE493A3F8E493A34003F68001F223
:1015890008DFF48029E493A3F85407240CC8C33373
:10159900C4540F4420C8834004F456800146F6DF42
:1015A900E4800B0102040810204080900017E47EBB
:1015B900019360BCA3FF543F30E509541FFEE49337
:1015C900A360010ECF54C025E060A840B8E493A3FE
:1015D900FAE493A3F8E493A3C8C582C8CAC583CA29
:1015E900F0A3C8C582C8CAC583CADFE9DEE780BEE1
:01001A0000E5
:100AE300BC000BBE0029EF8DF084FFADF022E4CCF7
:100AF300F875F008EF2FFFEE33FEEC33FCEE9DECC0
:100B0300984005FCEE9DFE0FD5F0E9E4CEFD22ED05
:100B1300F8F5F0EE8420D21CFEADF075F008EF2F4F
:100B2300FFED33FD4007985006D5F0F222C398FD40
:050B33000FD5F0EA22DD
:100B3800C5F0F8A3E028F0C5F0F8E5821582700248
:060B48001583E038F022E5
:00000001FF
