:031CDD0001C30040
:100C4400E478C3F6121CED75E104E4F5E275E340C3
:100C540075A401F5A5F5A675A72075B16775B20849
:100C6400121927E4F534F5357D01AF35121C6405FE
:100C740035E53570020534C39401E534940040E849
:100C8400E4F520C20BC208C20ED20AC20DC20C780F
:100C9400C3F6C2B578A0F6789EF618F678A5F6F5F0
:100CA40034F53574A72535F8E4F60535E5357002D5
:100CB40005346414453470EBE4F534F53574BB2520
:100CC40035F8E4F60535E535700205346408453435
:100CD40070EB7D08E4FF121C8BE478A3F6789BF696
:100CE400789BE6FF75F010A4243CF582E5F03410FF
:100CF400F583E493FE78A326F6EE6005789B0680E0
:100D0400DFEFD39400402A901049E493FB740193DD
:100D1400FA740293F97455120A69120A236455602D
:100D240002D20C74AA120A69120A2364AA6002D2BB
:100D34000C121351EF6003020E13C20A74FFF5087C
:100D4400F509F50AF50BE4F50CF50DFE7F10FDFB36
:100D54007A00790E120BAD7539FF753A10753B3474
:100D6400753C00753D107B007A00790E121A7EE402
:100D7400F534F535E535C4F8540FC868FFE534C4D7
:100D840054F048FE743C2FF58274103EF583E493CE
:100D9400607974402FF58274103EF583E49320E269
:100DA4005FE4F533E533C3789A965054E535C4F8D7
:100DB400540FC868FFE534C454F048FE743C2FF562
:100DC4008274103EF583E493FD7C00C004C0057D6D
:100DD4000074492FF58274103EF583E493FB74018B
:100DE40093FA740293F978A3E68533F0A4FFE92F0C
:100DF400F9EA35F0FAD007D006120BAD053380A41A
:100E04000535E53570020534020D787F018004D282
:100E14000AE4FF121B9EE5EF30E30DD20378A4062B
:100E2400E6750C00F50D8004E478A4F6E4F534F5D9
:100E3400357A007B967D03AF3512177D0535E53590
:100E440070020534C39401E534940040E402000EBA
:051D350078A5E6FF2285
:0300230002126660
:10126600C0E0C0F0C083C082C0D075D000C000C04E
:1012760001C002C003C004C005C006C007309927DC
:10128600C299789E06799EE778A0667009789EF6E0
:06129600D209C2B580116F
:08129C007522140000D522FBAD
:1012A400789EE624BBF8E6F59920980302133620CD
:1012B4009A07200B04C2988075C29A789DE606248A
:1012C400A7F8A699C298789DE6FFB4011378A7E61B
:1012D400FE7005789DF6805AEE5407240278A6F62F
:1012E400EFB4020E78A6E6B4090878A8E6240379D8
:1012F400A6F7789DE6FFB4140476008035EFC37832
:10130400A696402E789DE624FFFDE434FFFC7B0086
:101314007A0079A71215E7789DE624A6F8E66F60AF
:0313240002800B39
:081327007522140000D522FB21
:10132F00120026789D7600D007D006D005D004D0C5
:10133F0003D002D001D000D0D0D082D083D0F0D053
:02134F00E0328A
:1017F60078A5E6FF78A3E68FF0A47C002525FFEC0C
:1018060035F0FE78A8E675F010A42449F582E5F0D7
:101816003410F583E493FB740193FA740293F98F01
:0D182600828E83120A3CFF7B007A0079233A
:101833008F2D8B2E8A2F8930EA494B6016120A238B
:10184300FFE52DFD7C00120003AB2EAA2FA930EF7C
:03185300120A690D
:081856007531140000D531FBCF
:0C185E00852D99121D153099FDC29922AC
:081CC70078A0EFF6C209D2B5C6
:081CCF00752D140000D52DFB5A
:061CD70078BBE6F599223E
:101AD000C9EFC9E964017028EDC39B4034789AE6E8
:101AE000FFEB2FFFE433FEEDC39FEE6480F87480BC
:101AF00098501ED20BC3ED9B78A5F6789F760122F5
:101B0000B90214ED6B700AD20B78A5F6789F7602B5
:081B100022C20BE4789FF622CB
:10186A00C9EFC9BAFF15BBFF12ED6B7002EC6A70C3
:10187A0049D20B78A5F6789FE9F622E9640170252A
:10188A00C3ED9BEC9A401C789AE62BFFE43AFEC320
:10189A00ED9FEC9E500DD20BC3ED9B78A5F6789F79
:1018AA007601228015B90218ED6B7002EC6A700A93
:1018BA00D20B78A5F6789F760222C20BE4789FF6BF
:0118CA0022FB
:1000260078A7E6FF54F8F524EF120B87006F090056
:100036007A0A00891000921100A11200B41900C8B2
:100046001A00E72000ED28017429025E33028D377D
:1000560002B03902C04102C94902D25003166102F8
:100066002470030E980000034178A8E6FDE509FB1D
:100076007F01802178A8E6FC08E6FDAB09AA087F87
:10008600018025D20B789F760302034178A8E6FD0E
:10009600E50BFB7F02121AD002034178A8E6FC08A2
:1000A600E6FDAB0BAA0A7F0212186A02034178A882
:1000B600E6FDE509FB7F01121AD0200B030203417E
:1000C600801678A8E6FC08E6FDAB09AA087F0112AF
:1000D600186A200B0302034178BB76787F0102037E
:1000E6003E75EF10020341C2ACE4F523D2B5FB7AAC
:1000F6000079237F7F1218337B007A0079237F18DB
:100106001218337B007A0079237F04121833789B08
:10011600E612182C7B007A007923AF081218337B7D
:10012600007A007923AF091218337B007A0079230D
:10013600AF0A1218337B007A007923AF0B121833FB
:100146007B007A007923AF0C1218337B007A007992
:1001560023AF0D121833E4F525740E2525F8E612A3
:10016600182C0525E525C3941040EE02021278A846
:10017600E6FFC3789B96400302034175F010EFA497
:10018600243CF582E5F03410AF82F52B8F2CC2ACFF
:10019600E4F523D2B5FB7A0079237F7F1218337BEF
:1001A600007A0079237F0D121833852C82852B83E4
:1001B600E49312182C852C82852B837401931218D4
:1001C6002C852C82852B8374029312182C852C8205
:1001D600852B8374039312182C852C82852B8374AC
:1001E600049312182CE4F525E52C2405F582E43554
:1001F6002BF583E5822525F582E43583F583E493A3
:1002060012182C0525E525C3940840DC7B007A00EE
:100216007900AF23121833C2B5D2AC020341121DC6
:100226000878C4120B6278BB767C78C4E678BCF694
:1002360078C5E678BDF678C6E678BEF678C7E6787D
:10024600BFF67C007D057B007A0079BB1215E77846
:10025600C0EFF67F0602033E78A8E6FFB4010B085E
:10026600E6F50808E6F50902030EEFB4020878A9D8
:10027600E6F50802030E78A8E6B4030808E6F50AD0
:1002860008E6F50B02030EE4F525E525C378A896E6
:10029600501674A92525F8E6FF740E2525F8C6EF35
:1002A600C60525E525B410E2805E7A007B327D0125
:1002B60078A5E6FF12177D02034178A8E624FF928F
:1002C60002807878A8E624FF9201806F78A5E66020
:1002D60005752702800B200D0575270380037527FA
:1002E6000178BB767908A6277C007D027B007A0020
:1002F60079BB1215E778BDEFF67F03121CC7E52719
:1003060064017037D20E8002D20878C376F1802B52
:100316007A007B327D017F0012177D78BB76797873
:10032600A8E678BCF67C007D027B007A0079BB12D9
:1003360015E778BDEFF67F03121CC7E52464A060BD
:10034600030204E278A7E664A1600302041208E649
:10035600FFC3789B9640030204E275F010EFA424D5
:100366003CF582E5F03410F583E493F52775F0103B
:10037600EFA42440F582E5F03410F583E49330E2EF
:100386002F121D3A8F2778BB767F08A627E52724EC
:1003960002FDE433FC7B007A0079BB1215E774BDDD
:1003A6002527F8EFF6E5272403FF121CC70204E20F
:1003B60078A8E6FF121D3AC2ACE4F523D2B5E527CC
:1003C600D39406402C7B007A0079237F7F12183362
:1003D6007B007A007923AF27121833E4F525E5254B
:1003E600C3952750071217F6052580F20527020444
:1003F600D3E527247812182CE4F525E525C395279F
:1004060050071217F6052580F20204D378A7E66492
:10041600A260030204E2789BE6FF78A8E6FEC39F8B
:1004260040030204E208E6FDC39F40030204E2EE35
:10043600C39D40030204E218E6F525E4F527E52509
:10044600D378A996501FAF25121D3A75F010E525F1
:10045600A4243CF582E5F03410F583E4932527F5D2
:1004660027052580D9C2ACE4F523D2B5FB7A0079FD
:10047600237F7F1218337B007A007923AF27121867
:100486003378A8E6F525E525D378A996503FE4F517
:100496002675F010E525A4243CF582E5F03410F528
:1004A60083E493FFE526C39F501F78A5E6FF78A354
:1004B600E68FF0A47C002526FFEC35F0FE75F010E3
:1004C600E52512180F052680C8052580B97B007A18
:1004D600007900AF23121833C2B5D2ACE5246458B4
:1004E6007047FA7B327D0178A5E6FF12177D7530DD
:1004F600007531007532BC7B007A0079A8121C0E9B
:100506008F27E527247878BBF6E5272401FDE43319
:10051600FC7B007A0079BB1215E774BC2527F8EF3F
:10052600F6E5272402FF121CC7E52464806009E56E
:1005360024648860030206C5789FE6B4010F7A003A
:100546007B327D0178A5E6FF12177D801AE4F5253A
:10055600E525C3789A96500F7A007B327D01AF2548
:1005660012177D052580E978A7E65407F527B40715
:100576000A75260108E6F527088005E4F52678A819
:10058600E6F5281527E528C3789B9640030206A3BF
:1005960075F010E528A4243CF582E5F03410F583C7
:1005A600E493FFE527D39F40028F27789FE6B401A7
:1005B6000978A5E6F52AF5298009E4F529789AE669
:1005C60014F52A78A5A62978A5E6D3952A4003022C
:1005D6000697E4F525E525C39527400302068C75A5
:1005E600F010E528A42440F582E5F03410F583E404
:1005F6009330E20302068775F010E528A4243DF542
:1006060082E5F03410F583E4936438701BE527D354
:1006160094044008E526252524A9802A789DE6C36A
:100626009525FF74A52F801E75F010E528A4243C9F
:10063600F582E5F03410F583E493FFC3789DE69FD9
:100646002525252624A6F8E6FD78A5E6FF78A3E667
:100656008FF0A4FFE5257A002FFFEA35F0FE75F04E
:1006660010E528A42449F582E5F03410F583E493D7
:10067600FB740193FA740293F98F828E83ED120A4A
:100686007B05250205DBAF28121D2C78A506020581
:10069600CD78A5A629E52464887024800FE528B4C2
:1006A600FF1D78A9E6F520E524B4881378BB767893
:0F06B600789DE624A6F8E678BCF67F02121CC7F2
:0106C5002212
:1070000078C3E664F160030274E83009FDC2AF752D
:10701000FFDE75FFADE4F53EF53D209829E4F5422D
:10702000F54320981DC3E5439488E542941350121C
:0870300075480A0000D548FB79
:107038000543E54370E4054280E0B2B480D4859905
:107048003DC298E53D641A60030270F7F542F543C6
:0E70580020981DC3E5439488E542941350121E
:0870660075480A0000D548FB43
:10706E000543E54370E4054280E030989F85993EE4
:10707E00C298E4F542F54320981DC3E5439488E594
:05708E004294135012B2
:0870930075480A0000D548FB16
:10709B000543E54370E4054280E020980302701A33
:1070AB0085993EC298E4F542F54320981DC3E5430C
:0870BB009488E5429413501281
:0870C30075480A0000D548FBE6
:1070CB000543E54370E4054280E020980302701A03
:0970DB0085993EC298D2B5C29914
:0870E4007548140000D548FBBB
:1070EC007599783099FDC2B50274DAE53D6450703B
:1070FC0066F542F54320981DC3E5439488E5429418
:03710C001350120B
:08710F0075480A0000D548FB99
:107117000543E54370E4054280E020980302701AB6
:0971270085993EC298D2B5C299C7
:087130007548140000D548FB6E
:087138007599793099FDC299A7
:087140007548140000D548FB5E
:087148007599013099FDC2990F
:087150007548140000D548FB4E
:10715800E4F5993099FDC2B50274DAE53D64017031
:0571680027D2B5C29919
:08716D007548140000D548FB31
:087175007599783099FDC2996B
:08717D007548140000D548FB21
:10718500E4F5993099FDC2B50274DAE53D64026013
:1071950003027232F542F54320981DC3E5439488F6
:0671A500E54294135012B4
:0871AB0075480A0000D548FBFD
:1071B3000543E54370E4054280E020980302701A1A
:1071C30085993EC298E4F53FE53E13B392B4E53E9C
:1071D30025E0FEC3E49400EE94705029E53E7F0061
:1071E30025E0FEC39460501DE5B654F04408F5B69F
:1071F300758F038E448F458545828E83E4F053B6A5
:0C720300F0F58F8003753FFFD2B5C299F3
:08720F007548140000D548FB8E
:087217007599783099FDC299C8
:08721F007548140000D548FB7E
:10722700853F993099FDC2B50274DAE53D64036084
:1072370003027353F542F54320981DC3E543948831
:06724700E5429413501211
:08724D0075480A0000D548FB5A
:107255000543E54370E4054280E020980302701A77
:1072650085993EC298E4F542F54320981DC3E54350
:087275009488E54294135012C5
:08727D0075480A0000D548FB2A
:107285000543E54370E4054280E020980302701A47
:10729500859940C298E53E1392B4E53E25E0FEC3CC
:1072A500E49400EE9470400302701AE53E7D0025DB
:1072B500E0FCC39460400302701AE5B654F044083C
:1072C500F5B6758F01E54075F020A42DFFE5F03C7E
:1072D500F5448F45E4F541E541C394205043E4F579
:1072E50042F54320981DC3E5439488E54294135025
:0172F5001286
:0872F60075480A0000D548FBB1
:1072FE000543E54370E4054280E020980302701ACE
:10730E000545E545AE447002054414F5828E83E5CD
:10731E0099F0C298054180B653B6F0E4F58FD2B518
:02732E00C29902
:087330007548140000D548FB6C
:087338007599783099FDC299A6
:087340007548140000D548FB5C
:10734800E4F5993099FDC2B50274DAE53D6404604C
:10735800030273E7F542F54320981DC3E54394887B
:06736800E54294135012EF
:08736E0075480A0000D548FB38
:107376000543E54370E4054280E020980302701A55
:1073860085993EC298E53E25E0F546754700E4F549
:107396003FF542F5430547E547AE467002054614FC
:1073A600F5828E83E493253FF53F0543E54370025E
:0E73B60005427004E542640270DBD2B5C29954
:0873C4007548140000D548FBD8
:0873CC007599783099FDC29912
:0873D4007548140000D548FBC8
:1073DC00853F993099FDC2B50274DAE53D640560CC
:1073EC00030274D2F542F54320981DC3E5439488FB
:0673FC00E542941350125B
:0874020075480A0000D548FBA3
:10740A000543E54370E4054280E020980302701AC0
:10741A0085993EC298E4F542F54320981DC3E54399
:08742A009488E542941350120E
:0874320075480A0000D548FB73
:10743A000543E54370E4054280E020980302701A90
:09744A00859940C298D2B5C2999F
:087453007548140000D548FB48
:08745B0075997F3099FDC2997B
:087463007548140000D548FB38
:10746B007599203099FDE53E25E0FCE54075F0204F
:10747B00A42400FFE5F03CF5468F47E4F53FF541CA
:02748B00C299A4
:08748D007548140000D548FB0E
:10749500854782854683E493F5993099FD0547E54F
:1074A50047AE467002054614F5828E83E493253F68
:0B74B500F53F0541E541B420CDC29930
:0874C0007548140000D548FBDB
:1074C800853F993099FDC2B58008E53DB40603753E
:1074D800EF10E53D6407600302701A78C3F6D2AF77
:0174E8002281
:10198000121D15200A0B7A007B327D017F00121791
:101990007D300C0B7A007B1E7D017F0012177D309D
:1019A0000817300D147A007B327D0178A5E6FF120E
:1019B000177DC208121401D20A300E08300D05C27C
:1019C0000E127000121CFBE47B2C7A01F9F8C31292
:0719D0000B445002D20D226E
:0B1D2100120C44121980121BDF80F826
:10115C00005EBCE2613FDD83C29C7E20A3FD1F418B
:10116C009DC3217FFCA2401E5F01E3BD3E6082DC7B
:10117C00237D9FC1421CFEA0E1BF5D0380DE3C626B
:10118C00BEE0025CDF81633D7C22C09E1D43A1FF5B
:10119C004618FAA427799BC584DA3866E5BB59074B
:1011AC00DB856739BAE406581947A5FB7826C49A3B
:1011BC00653BD987045AB8E6A7F91B45C6987A242B
:1011CC00F8A6441A99C7257B3A6486D85B05E7B91B
:1011DC008CD2306EEDB3510F4E10F2AC2F7193CD0B
:1011EC00114FADF3702ECC92D38D6F31B2EC0E50FB
:1011FC00AFF1134DCE90722C6D33D18F0C52B0EEEB
:10120C00326C8ED0530DEFB1F0AE4C1291CF2D73DA
:10121C00CA947628ABF517490856B4EA6937D58BCA
:10122C005709EBB536688AD495CB2977F4AA4816BA
:10123C00E9B7550B88D6346A2B7597C94A14F6A8AA
:10124C00742AC896154BA9F7B6E80A54D7896B359A
:0A125C0070B8DCEEF4F7FAFDFEFFB7
:1015E700151E151EA81EECF608EDF6151E151E1580
:1015F7001EA81EC6EBC608C6EAC608C6E9C6E51E8B
:0416070024FCF51EAC
:10160B00F80808E4F6A81EF608F6E51E2407F9A864
:10161B001EE6FE08E6FFC3099719E76480F8EE643F
:10162B0080985037E51E2404F8CBE6CB08E6FA0881
:10163B00E6F98F828E83120A3CA81E080866FFE526
:10164B001E2403F8EFF6E690115C93A81E0808F62B
:10165B00A81E0806E61870B20680AFA81E0808E69A
:01166B00FF7F
:07166C00E51E2409F51E2212
:07000300ED6F90115C93FF0B
:01000A0022D3
:101C8B00EF701E7598D0E589540F4420F58953C821
:101C9B00E1438E10ED90125B93F58DD28ED2ACC2D8
:031CAB00BCD2AFF9
:011CAE002213
:10192700D2AFD2A9D2BBE589540F4401F589E4F5BA
:101937008E758CDBF58AD28CF55DF55CF55BF55A17
:10194700F561F560F55FF55E755764FFEF25E025F6
:10195700E024CFF8E4F6EF25E025E024D0F8E4F61C
:10196700EF25E025E024D1F8E4F6EF25E025E02493
:08197700D2F8E4F60FBF01D421
:01197F002245
:02154A00151E6C
:10154C00A81EE4F6A81EE6FFC3940140030215E4AE
:10155C00EF25E025E024D2F8E6FFD394004052A812
:10156C001EE625E025E024D0F8E67045EF30E015C6
:10157C00A81EE6FF25E025E024D2F8E6D39401402E
:10158C00047D0080067D01A81EE6FF121B5DA81ECF
:10159C00E6FF25E025E024D2F816E66014EF25E0FE
:1015AC0025E024D1F8E6FEEF25E025E024D0F8EE86
:1015BC00F6A81EE625E025E024D0F8E6600116A882
:1015CC001EE6FF25E025E024D2F8E670057D011229
:0815DC001B5DA81E060215505C
:0315E400051E22BF
:03000B000216FFDB
:1016FF00C0E0C0F0C083C082C0D0E8C0E0E9C0E065
:10170F00EAC0E0EBC0E0ECC0E0EDC0E0EEC0E0EF1F
:10171F00C0E0758CDCE55D2401F55DE4355CF55CBE
:10172F00E4355BF55BE4355AF55AD55718E5612476
:10173F0001F561E43560F560E4355FF55FE4355E32
:10174F00F55E75576412154A121CAFD0E0FFD0E05A
:10175F00FED0E0FDD0E0FCD0E0FBD0E0FAD0E0F925
:0E176F00D0E0F8D0D0D082D083D0F0D0E032DD
:101C6400151EA81EEDF6151EA81EEFF6A81EE6FF0B
:101C7400C39401500D08E6FEEF25E025E024CFF8DB
:071C8400EEF6051E051E220D
:10177D00151E151EA81EEAF608EBF6151EA81EED81
:10178D00F6151EA81EEFF6A81EE6FFC394015052D3
:10179D00EF25E025E024D2F8E67047A81EE6FB25EC
:1017AD00E025E024D0F8E67039A81E08E625E0040F
:1017BD00FFA81EE6FA25E025E024D2F8EFF6A81ED4
:1017CD000808E6FE08E6FF7C007D0A120A9DEA2560
:1017DD00E025E024D1F8EFF6EB25E025E024D0F864
:0917ED00E4F6E51E2404F51E22B9
:101B5D00151EA81EEDF6151EA81EEFF6A81EE6FF13
:101B6D00C39401501CEF25E025E024CFF8E6601169
:101B7D00A81E08E670047F0180027F00A81E08EFF2
:101B8D00F6A81EE6700608E624FF92B4051E051E93
:011B9D002225
:0C1CFB00C2AFAF5DAE5CAD5BAC5AD2AFC7
:011D070022B9
:0C1D0800C2AFAF61AE60AD5FAC5ED2AFA9
:011D140022AC
:0C1D1500E4F558F559300F0375FFA522C6
:10000E00D20FE4F558F55975FF0775FFA543B28079
:01001E0022BF
:0E1CED00C20FE4F558F55975FFDE75FFAD2204
:101CAF000559E55970020558300F0CC394E8E558F3
:081CBF009403500375FFA522F8
:041C3B008E628F63C3
:101C3F00E4F564F565C3E5659563E5649562501455
:101C4F007FE87E03121A2C121D150565E56570E5F8
:041C5F00056480E1B7
:011C6300225E
:041A2C008E3D8F3E1E
:101A3000D3E53E94FAE53D9400500AEFD39400407C
:101A40003C001F80F6853D3F853E40D3E54094FA3B
:101A5000E53F940040157FFA7E00121A2C7406258B
:101A600040F54074FF353FF53F80E0D3E53E9400FC
:0D1A7000E53D94004007AF40AE3F121A2C38
:011A7D002246
:0819D7008B3C8A3D893E8D3FE7
:1019DF00121D15AB40AA41A942120AD32400FFE5FC
:1019EF00F03460FE853C43853D44853E45E4FDED86
:1019FF00C3953F501BEF2DF582E43EF583E493AB87
:101A0F0043AA44A9458D82758300120A7B0D80DF9E
:0D1A1F00AB40AA41A942E4853FF0020AFE57
:0814AC008B438A4489458D46FB
:1014B40078C3E664F16003021549121CEDC2AFE57E
:1014C400B654F04408F5B6758F01AB47AA48A9494C
:1014D400120AD32400FFE5F0346078C8F608EFF66A
:1014E400AA44A94578CCA64308C6EAC608C6E9C6F4
:1014F400E478CAF678CAE6C39546503278CCCBE68F
:10150400CB080806E618CAE6CA70010614F9120ADE
:101514002378CBF6E6FF78C80806E618CCE6CC704C
:10152400010614F5828C83EFF078CA0680C6E4F5D0
:101534008F53B6F0AB47AA48A9498546F0120AFE74
:05154400D2AF12000E01
:01154900227F
:1018CB0078C3E664F17054C2AF121CEDE5B654F068
:1018DB004408F5B6758F0378CA7660087600E4780D
:1018EB00C8F608F678CAE6FE08E6F5828E83E4F0C1
:1018FB00121D15E426F618740236F61806E6187053
:10190B000106C378C9E6940818E66480948040D435
:0B191B00E4F58F53B6F0D2AF12000EBF
:01192600229E
:101401001218CBE4F541F542F5477548007549419D
:10141100FB7A0079087D161214ACE4F53EE53EC373
:10142100789A965067E4F53D75F010E53DA4243CAB
:10143100F582E5F03410F583E493604C78A3E685FA
:101441003EF0A4FFAEF075F010E53DA42449F5820D
:10145100E5F03410F583E493FB740193FA7402937D
:101461002FF9EA3EFA75F010E53DA4243CF582E53A
:10147100F03410F583E493FD754700754800754914
:10148100411214AC053D80A0053E8091753F127557
:1014910040347547007548007549417B007A0079F1
:0A14A1003F7D021214ACE478C3F69C
:0114AB00221E
:10135100E4F53AF53BF54075410075423AFB7A00F8
:1013610079087D161219D7E4F537E537C3789A96CF
:101371005067E4F53675F010E536A4243CF582E5B6
:10138100F03410F583E493604C78A3E68537F0A43C
:10139100FFAEF075F010E536A42449F582E5F0348E
:1013A10010F583E493FB740193FA7402932FF9EA25
:1013B1003EFA75F010E536A4243CF582E5F03410D0
:1013C100F583E493FD75400075410075423A1219A9
:1013D100D7053680A00537809175400075410075AD
:1013E100423A7B007A0079387D021219D7E53964D7
:0F13F100347004E538641270047F0180027F00BD
:0114000022C9
:101034005343532D38303000041DF70001436170D1
:101044003000000000000066041DF70001436170D9
:10105400310000000000006A041DF70001436170C4
:10106400320000000000006E041DF70001436170AF
:101074003300000000000072041DF700014361709A
:101084003400000000000076041DF7000143617085
:10109400350000000000007A041DF7000143617070
:1010A400360000000000007E041DF700014361705B
:1010B4003700000000000082021DF400024F667336
:1010C4003000000000000086021DF400024F667329
:1010D4003100000000000088021DF400024F667316
:1010E400320000000000008A021DF400024F667303
:1010F400330000000000008C021DF400024F6673F0
:10110400340000000000008E021DF400024F6673DC
:101114003500000000000090021DF400024F6673C9
:101124003600000000000092021DF400024F6673B6
:101134003700000000000094045D0000014761696D
:101144006E00000000000096000000000000000097
:08115400000000000000000093
:0C1CE000019A01014A00044B00000000C2
:101B9E0075A4FDE4F5A57590FFD287D286EF602E71
:101BAE00E4FBEB25E025E02466F8120B6E00000046
:101BBE0000EB25E02486F8E4F608F6744F2BF8E4E3
:101BCE00F67896120B6E3F8000000BBB08D4021BFA
:011BDE0018EE
:091D2C00151EA81EEFF6051E228B
:051D3A008F2D7F002247
:101C0E008B2D8A2E892F120A23AB30AA31A93212BC
:101C1E000A69AB2DAA2EA92F900001120A3CAB30F7
:0D1C2E00AA31A932900001120A7B7F022228
:021B1800151E98
:101B1A00C285C284A81EE4F6A81EE6C39404500F28
:101B2A00D282D284C284D282D284C2840680E9A8B4
:101B3A001EE4F6A81EE6C39404500FD282D284C2D1
:101B4A0084D282D284C2840680E9C282D285C285C6
:031B5A00051E2243
:100E5400E4F538F537F536F535F534121980AF4A2F
:100E64007401C8EFC8088002C333D8FCF533E4F535
:100E740094F5957592FF7593FF759104C2867F0171
:100E8400FE121A2CD286E59055336005E59130E7C1
:100E9400F5E59130E712753C00753BC0753A7975FC
:100EA4003944E4F591021014E4F591AF95EFFEADE9
:100EB400947C00E42DFFEC3EFEE4FDE5382FF5388C
:100EC400E5373EF537ED3536F536EC3535F5350590
:100ED40034E534C3940A4083AF38AE37AD36AC350D
:100EE400E4120964ECC0E0EDC0E0EEC0E0EFC0E065
:100EF400AC34E412096EC8ECC8C9EDC9CAEECACB59
:100F0400EFCBD0E0FFD0E0FED0E0FDD0E0FC120853
:100F1400C77BFE7AD4793078411208C7E4FBFA79AA
:100F24004078411207BE8F3C8E3B8D3A8C397B0052
:100F34007A24797478491208C78F3C8E3B8D3A8C99
:100F4400397BCD7ACC798C783F1208C77B007AE65E
:100F540079AA784A1208C77B287A6B796E784E1280
:100F640007BE8F3C8E3B8D3A8C397896120B551206
:100F740007BE8F3C8E3B8D3A8C397BBC7A74799357
:100F8400783C1206C98F3C8E3B8D3A8C39ECC0E01C
:100F9400EDC0E0EEC0E0EFC0E0E54A25E02486F8CD
:100FA400E6FC08E6FDEC120969E4FBFA797A784478
:100FB4001208C7C8ECC8C9EDC9CAEECACBEFCBD07A
:100FC400E0FFD0E0FED0E0FDD0E0FC1206C98F3C8B
:100FD4008E3B8D3A8C39E4FFFE7D7A7C44AB3CAA8F
:100FE4003BA93AA8391207BEE4FBFAF9783F120686
:100FF400CD1209A2CDEFCDCCEECCEC120969E4FB05
:10100400FA797A78441208C78F3C8E3B8D3A8C3932
:10101400C2AFAF3CAE3BAD3AAC39E54A25E025E082
:0F1024002466F8120B62D2AFE54A045407F54A6E
:01103300229A
:101BDF00121CFBC3EF954EFFEE954DFEED954CFDA0
:101BEF00EC954BFCE47B0AFAF9F8C3120B44500E48
:0E1BFF00120E54121CFB8F4E8E4D8D4C8C4BD3
:011C0D0022B4
:1006C600020A0EE86480F8E933E83360110460F04A
:1006D600ED33EC337009E8FCE9FDEAFEEBFF22049A
:1006E60060DED3EB9FEA9EE99DE8C2E78CF0C2F795
:1006F60095F0400CE8CCF8E9CDF9EACEFAEBCFFB61
:100706001209D985D0F05804700320D5B3E80470D7
:10071600075002B2D5020A1892D5EC0460F7E4CC71
:10072600C0E0C398F8603B94186008400DD0E0FB29
:100736000209F0E4FBFAC9FC8028E830E406E4C9C3
:10074600FBE4CAFCE830E305E4C9CACBFCE854077D
:100756006010F8C3E913F9EA13FAEB13FBEC13FC88
:10076600D8F130F52FC3E49CFCEF9BFFEE9AFEED2B
:1007760099FDD0E0FBEF4E4D4C701222DB03020ACE
:1007860015EC2CFCEF33FFEE33FEED33FDED30E7D9
:10079600EB0209F0EF2BFFEE3AFEED39FDD0E0FB60
:1007A60050130BBB0003020A18ED13FDEE13FEEF08
:0807B60013FFEC13FC0209F033
:1007BE00EC4D6011E8497017ED33EC3304600DE435
:1007CE00FCFFFEFD22E933E8330470F8020A0E1234
:1007DE0009D958046009E4CC248150062850090236
:1007EE000A18284003020A15C0E0EB4A7044B9808B
:1007FE0006D0E0FB020A04EF4E701CBD8008EBFF32
:10080E00EAFEE9FD80EBE98DF0A4FEE5F00208A713
:10081E00E9CDF9EAFEEBFFEF89F0A4FCE5F0CE8915
:10082E00F0A42EFFE435F0CD89F0A42DFEE435F0D2
:10083E008067EF4E7005BD80D780C3EF8BF0A4AC00
:10084E00F0EE8BF0A42CFCE435F0F8EF8AF0A42C3B
:10085E00E5F038FCE433CB8DF0A42CFCE5F03BF84E
:10086E00EE8AF0A42CFCE5F038F8E433CF89F0A43E
:10087E002CFCE5F038CF3400CE89F0A42FFFE5F044
:10088E003EFEE433C98DF0A42EFEE5F039CD8AF09C
:10089E00A42FFFE5F03EFEE43DFD33D0E0FB500714
:1008AE000BBB000F020A18EC2CFCEF33FFEE33FEED
:0608BE00ED33FD0209F01C
:1008C400020A18EC5D046005E859047003020A0E7C
:1008D4001209D9580460F6EC4860F2EC7004FDFE8D
:1008E400FF22C860DB2481C85009C3986002500607
:1008F400020A159850CAF582E9294B4A7005AB8261
:10090400020A0475F0007C1A7880C3EF9BEE9AED1E
:1009140099400DC3EF9BFFEE9AFEED99FDE842F07E
:10092400DC23ACF0D0E0FFD0E0FED0E0FDAB8220D1
:10093400E7101BEB60BAEC2CFCEF33FFEE33FEED5B
:1009440033FD0209F0E803F830E705C0F075F00064
:10095400EF2FFFEE33FEED33FD40B830E7C280AA3F
:1009640075F020800E75F010800575F0087D007E0E
:10097400007F003392D530D503120B36EC33401090
:10098400EF33FFEE33FEED33FDEC33FCD5F0ED2217
:0E099400E5F0247EA2D513CC92E7CDCEFF2253
:1009A200EDD2E7CD33EC3392D524814006E4FFFE4D
:1009B200FDFC22FCE4CFCECDCC24E0501174FF80AC
:1009C200EDC3CC13CCCD13CDCE13CECF13CF047049
:0709D200F030D5DE020B3608
:1009D900E9D2E7C933E833F892D5EDD2E7CD33EC64
:0709E90033FC5002B2D522DD
:1009F000EC30E7100FBF000C0EBE00080DBD000468
:100A00000BEB6014A2D5EB13FCED92E7FD2274FF13
:100A1000FCFDFEFF22E480F8A2D574FF13FC7D806C
:030A2000E480EF80
:0300000002167372
:0C167300787FE4F6D8FD7581D20216BA2B
:100A2300BB010689828A83E0225002E722BBFE02D1
:090A3300E32289828A83E4932204
:100A3C00BB010CE58229F582E5833AF583E022506F
:100A4C0006E92582F8E622BBFE06E92582F8E222B9
:0D0A5C00E58229F582E5833AF583E49322D3
:100A6900BB010689828A83F0225002F722BBFE016C
:020A7900F32266
:100A7B00F8BB010DE58229F582E5833AF583E8F0B1
:100A8B00225006E92582C8F622BBFE05E92582C85D
:020A9B00F22245
:100A9D00C2D5EC30E709B2D5E4C39DFDE49CFCEE74
:100AAD0030E715B2D5E4C39FFFE49EFE120BD9C308
:100ABD00E49DFDE49CFC8003120BD930D507C3E403
:060ACD009FFFE49EFE22E3
:100AD300BB010A89828A83E0F5F0A3E022500687EE
:100AE300F009E71922BBFE07E3F5F009E3192289B0
:0B0AF300828A83E493F5F074019322E3
:100AFE00BB010789828A83020C2E500B09C5F02791
:100B0E00F7C5F01937F722BBFE0D09F8E325F0F310
:100B1E00C5F019E338F322F889828A83740193258C
:080B2E00F0C5F0F8E493382251
:0E0B3600C3E49FFFE49EFEE49DFDE49CFC22D0
:100B4400EB9FF5F0EA9E42F0E99D42F0E89C45F007
:010B5400227E
:0D0B5500E6FB08E6F908E6FA08E6CBF82210
:0C0B6200ECF608EDF608EEF608EFF622BF
:100B6E00D083D082E493F608740193F6087402934E
:090B7E00F608740393F674047385
:100B8700D083D082F8E4937012740193700DA3A3FD
:100B970093F8740193F5828883E473740293686011
:060BA700EFA3A3A380DF11
:101A7E008B368A378938E4F53EF53FE53D153DAEA8
:101A8E003C7002153C4E6033AB39AA3AA93B120AA0
:101A9E0023FFAB36AA37A938053FE53FAC3E7002AF
:101AAE00053E14F5828C83EF120A7BEF60CD740134
:101ABE00253BF53BE4353AF53A80C0AB36AA37A95B
:021ACE003822BC
:100BAD00EF4E6012EF60010EEDBB010B89828A835F
:100BBD00F0A3DFFCDEFA2289F05007F709DFFCA96C
:0C0BCD00F022BBFEFCF309DFFCA9F022C3
:10167F00021D21E493A3F8E493A34003F68001F243
:10168F0008DFF48029E493A3F85407240CC8C3336C
:10169F00C4540F4420C8834004F456800146F6DF3B
:1016AF00E4800B0102040810204080901CDDE47ED2
:1016BF00019360BCA3FF543F30E509541FFEE49330
:1016CF00A360010ECF54C025E060A840B8E493A3F7
:1016DF00FAE493A3F8E493A3C8C582C8CAC583CA22
:1016EF00F0A3C8C582C8CAC583CADFE9DEE780BEDA
:011CEC0000F7
:100BD900BC000BBE0029EF8DF084FFADF022E4CC00
:100BE900F875F008EF2FFFEE33FEEC33FCEE9DECC9
:100BF900984005FCEE9DFE0FD5F0E9E4CEFD22ED0F
:100C0900F8F5F0EE8420D21CFEADF075F008EF2F58
:100C1900FFED33FD4007985006D5F0F222C398FD49
:050C29000FD5F0EA22E6
:100C2E00C5F0F8A3E028F0C5F0F8E5821582700251
:060C3E001583E038F022EE
:00000001FF
