:031FA20001D1006A
:100D5700E478D1F6121F9475E104E4F5E275E340F7
:100D670075A401F5A5F5A675A72075B16775B20835
:100D7700121C6EE4F535F5367D01AF36121EF60509
:100D870036E53670020535C39401E535940040E831
:100D9700E4F520C20BC208C20ED20AC20DC20C78FB
:100DA700D1F6C2B578AEF678ACF618F678B3F6F5A4
:100DB70035F53674B52536F8E4F60536E5367002AE
:100DC70005356414453570EBE4F535F53674C925FA
:100DD70036F8E4F60536E53670020535640845351C
:100DE70070EB7D08E4FF121F42E478B1F678A9F6AC
:100DF70078A9E6FF75F010A4240BF582E5F034130B
:100E0700F583E493FE78B126F6EE600578A90680AF
:100E1700DFEFD39400402A901318E493FB740193F7
:100E2700FA740293F97455120AD4120A8E64556043
:100E370002D20C74AA120AD4120A8E64AA6002D2D1
:100E47000C121698EF6003020F26C20A74FFF547CB
:100E5700F548F549F54AE4F54BF54CFE7F10FDFBE7
:100E67007A00794D120CC0753AFF753B13753C0338
:100E7700753D00753E107B007A00794D121DC5E463
:100E8700F535F536E536C4F8540FC868FFE535C4BF
:100E970054F048FE740B2FF58274133EF583E493E8
:100EA7006079740F2FF58274133EF583E49320E283
:100EB7005FE4F534E534C378A8965054E536C4F8B2
:100EC700540FC868FFE535C454F048FE740B2FF57E
:100ED7008274133EF583E493FD7C00C004C0057D56
:100EE7000074182FF58274133EF583E493FB7401A5
:100EF70093FA740293F978B1E68534F0A4FFE92FE9
:100F0700F9EA35F0FAD007D006120CC0053480A4F0
:100F17000536E53670020535020E8B7F018004D257
:100F27000AE4FF121F1DE5EF30E30DD20378B20686
:100F3700E6754B00F54C8004E478B2F6E4F535F538
:100F4700367A007B967D03AF36121AC40536E5362E
:100F570070020535C39401E535940040E402000EA4
:051FEF0078B3E6FF22BB
:030023000215A51E
:1015A500C0E0C0F0C083C082C0D075D000C000C00C
:1015B50001C002C003C004C005C006C00730992F92
:1015C500C29978AC0679ACE778AE66701178ACF65E
:0215D500D20939
:0815D70075220A0000D522FB79
:0415DF00C2B5801100
:0815E3007522140000D522FB63
:1015EB0078ACE624C9F8E6F59920980302167D201D
:1015FB009A07200B04C2988075C29A78ABE6062432
:10160B00B5F8A699C29878ABE6FFB4011378B5E6A6
:10161B00FE700578ABF6805AEE5407240278B4F6C8
:10162B00EFB4020E78B4E6B4090878B6E624037971
:10163B00B4F778ABE6FFB4140476008035EFC378CB
:10164B00B496402E78ABE624FFFDE434FFFC7B0020
:10165B007A0079B512192E78ABE624B4F8E66F60F0
:03166B0002800BEF
:08166E007522140000D522FBD7
:1016760012002678AB7600D007D006D005D004D06D
:1016860003D002D001D000D0D0D082D083D0F0D009
:02169600E03240
:101B3D0078B3E6FF78B1E68FF0A47C002525FFECA5
:101B4D0035F0FE78B6E675F010A42418F582E5F0B0
:101B5D003413F583E493FB740193FA740293F98FB4
:0D1B6D00828E83120AA7FF7B007A00792385
:101B7A008F2E8B2F8A308931EA494B6016120A8ED2
:101B8A00FFE52EFD7C00120003AB2FAA30A931EF2E
:031B9A00120AD458
:081B9D007532140000D532FB83
:0C1BA500852E99121FC93099FDC29922AB
:081F7E0078AEEFF6C209D2B5FE
:081F8600752E140000D52EFB9E
:061F8E0078C9E6F5992276
:101E1700C9EFC9E964017028EDC39B403478A8E68F
:101E2700FFEB2FFFE433FEEDC39FEE6480F8748071
:101E370098501ED20BC3ED9B78B3F678AD7601228E
:101E4700B90214ED6B700AD20B78B3F678AD76024F
:081E570022C20BE478ADF62273
:101BB100C9EFC9BAFF15BBFF12ED6B7002EC6A7079
:101BC10049D20B78B3F678ADE9F622E964017025C4
:101BD100C3ED9BEC9A401C78A8E62BFFE43AFEC3C8
:101BE100ED9FEC9E500DD20BC3ED9B78B3F678AD13
:101BF1007601228015B90218ED6B7002EC6A700A49
:101C0100D20B78B3F678AD760222C20BE478ADF64A
:011C110022B0
:1000260078B5E6FF54F8F524EF120C9A006F090034
:100036007A0A00891000921100A11200B41900C8B2
:100046001A00E72000ED2801872902793302A83734
:1000560002CB3902DB4102E44902ED500331610271
:100066003F700329980000035C78B6E6FDE548FB7F
:100076007F01802178B6E6FC08E6FDAB48AA477FFB
:10008600018025D20B78AD760302035C78B6E6FDD7
:10009600E54AFB7F02121E1702035C78B6E6FC08EF
:1000A600E6FDAB4AAA497F02121BB102035C78B691
:1000B600E6FDE548FB7F01121E17200B0302035CD9
:1000C600801678B6E6FC08E6FDAB48AA477F011223
:1000D6001BB1200B0302035C78C976787F0102030B
:1000E6005975EF1002035CC2ACE4F523D2B5FB7A76
:1000F6000079237F7F121B7A7B007A0079237F1891
:10010600121B7A7B007A0079237F04121B7A78A966
:10011600E6121B737B007A007923AF47121B7A7BAA
:10012600007A007923AF48121B7A7B007A00792384
:10013600AF49121B7A7B007A007923AF4A121B7AE9
:100146007B007A007923AF4B121B7A7B007A007909
:1001560023AF4C121B7AE4F525744D2525F8E612DB
:100166001B730525E525C3941040EE7B007A0079C4
:0601760000AF23121B7A0A
:08017C00752D0A0000D52DFBD2
:1001840002023878B6E6FFC378A996400302035CFE
:1001940075F010EFA4240BF582E5F03413AF82F56B
:1001A4002B8F2CC2ACE4F523D2B5FB7A0079237FE4
:1001B4007F121B7A7B007A0079237F0D121B7A85CC
:1001C4002C82852B83E493121B73852C82852B83CD
:1001D400740193121B73852C82852B8374029312F2
:1001E4001B73852C82852B83740393121B73852CBC
:1001F40082852B83740493121B73E4F525E52C2468
:1002040005F582E4352BF583E5822525F582E43571
:1002140083F583E493121B730525E525C3940840F5
:0C022400DC7B007A007900AF23121B7A0B
:08023000752D0A0000D52DFB1D
:10023800C2B5D2AC02035C121FBC78D2120C8E7805
:10024800C9767C78D2E678CAF678D3E678CBF678A1
:10025800D4E678CCF678D5E678CDF67C007D057BBB
:10026800007A0079C912192E78CEEFF67F060203BC
:100278005978B6E6FFB4010B08E6F54708E6F548F5
:10028800020329EFB4020878B7E6F5470203297894
:10029800B6E6B4030808E6F54908E6F54A02032974
:1002A800E4F525E525C378B696501674B72525F8E4
:1002B800E6FF744D2525F8C6EFC60525E525B410DB
:1002C800E2805E7A007B327D0178B3E6FF121AC4C1
:1002D80002035C78B6E624FF9202807878B6E624BA
:1002E800FF9201806F78B3E66005752702800B20C6
:1002F8000D05752703800375270178C9767908A647
:10030800277C007D027B007A0079C912192E78CBF0
:10031800EFF67F03121F7EE52764017037D20E8047
:1003280002D20878D176F1802B7A007B327D017F6A
:1003380000121AC478C9767978B6E678CAF67C00CD
:100348007D027B007A0079C912192E78CBEFF67FEF
:1003580003121F7EE52464A0600302051778B5E642
:1003680064A1600302043F08E6FFC378A99640032E
:1003780002051775F010EFA4240BF582E5F034138D
:10038800F583E493F52775F010EFA4240FF582E5C3
:10039800F03413F583E49330E22F121FF48F27789B
:1003A800C9767F08A627E5272402FDE433FC7B00F5
:1003B8007A0079C912192E74CB2527F8EFF6E527AC
:1003C8002403FF121F7E02051778B6E6FF121FF4FA
:1003D800C2ACE4F523D2B5E527D39406402B7B00C5
:1003E8007A0079237F7F121B7A7B007A007923AF0A
:1003F80027121B7AE4F525E525C395275007121B1C
:100408003D052580F205278018E5272478121B73FF
:10041800E4F525E525C395275007121B3D052580E2
:0C042800F27B007A007900AF23121B7AEF
:08043400752D0A0000D52DFB17
:10043C0002051378B5E664A2600302051778A9E6F5
:10044C00FF78B6E6FEC39F400302051708E6FDC31E
:10045C009F4003020517EEC39D400302051718E6E3
:10046C00F525E4F527E525D378B796501FAF25126F
:10047C001FF475F010E525A4240BF582E5F0341378
:10048C00F583E4932527F527052580D9C2ACE4F53F
:10049C0023D2B5FB7A0079237F7F121B7A7B007AFB
:1004AC00007923AF27121B7A78B6E6F525E525D31C
:1004BC0078B796503FE4F52675F010E525A4240B8B
:1004CC00F582E5F03413F583E493FFE526C39F50E2
:1004DC001F78B3E6FF78B1E68FF0A47C002526FFE9
:1004EC00EC35F0FE75F010E525121B56052680C87C
:0F04FC00052580B97B007A007900AF23121B7AA7
:08050B00752D0A0000D52DFB3F
:10051300C2B5D2ACE52464587047FA7B327D0178CA
:10052300B3E6FF121AC47531007532007533CA7B06
:10053300007A0079B6121EA08F27E527247878C9A0
:10054300F6E5272401FDE433FC7B007A0079C91228
:10055300192E74CA2527F8EFF6E5272402FF121F88
:100563007EE52464806009E524648860030206FA5A
:1005730078ADE6B4010F7A007B327D0178B3E6FFF4
:10058300121AC4801AE4F525E525C378A896500FFE
:100593007A007B327D01AF25121AC4052580E978E4
:1005A300B5E65407F527B4070A75260108E6F527CB
:1005B300088005E4F52678B6E6F5281527E528C36F
:1005C30078A99640030206D875F010E528A4240BF9
:1005D300F582E5F03413F583E493FFE527D39F40D9
:1005E300028F2778ADE6B4010978B3E6F52AF52939
:1005F3008009E4F52978A8E614F52A78B3A62978C2
:10060300B3E6D3952A40030206CCE4F525E525C3DA
:10061300952740030206C175F010E528A4240FF5C1
:1006230082E5F03413F583E49330E2030206BC75EC
:10063300F010E528A4240CF582E5F03413F583E4E7
:10064300936438701BE527D394044008E5262525D9
:1006530024B7802A78ABE6C39525FF74B32F801E99
:1006630075F010E528A4240BF582E5F03413F58327
:10067300E493FFC378ABE69F2525252624B4F8E64B
:10068300FD78B3E6FF78B1E68FF0A4FFE5257A00A5
:100693002FFFEA35F0FE75F010E528A42418F58243
:1006A300E5F03413F583E493FB740193FA74029336
:1006B300F98F828E83ED120AE60525020610AF2814
:1006C300121FE078B30602060278B3A629E5246474
:1006D300887024800FE528B4FF1D78B7E6F520E580
:1006E30024B4881378C9767878ABE624B4F8E6782E
:0706F300CAF67F02121F7E10
:0106FA0022DD
:1070000078D1E664F160030275203009FDC2AF75E6
:10701000FFDE75FFADE4F53AF539209829E4F53E39
:10702000F53F20981DC3E53F9488E53E9413501228
:0870300075440A0000D544FB81
:10703800053FE53F70E4053E80E0B2B480D4859911
:1070480039C298E539641A60030270FFF53EF53FCE
:0E70580020981DC3E53F9488E53E9413501226
:0870660075440A0000D544FB4B
:10706E00053FE53F70E4053E80E030989F85993AF4
:10707E00C298E4F53EF53F20981DC3E53F9488E5A0
:05708E003E94135012B6
:0870930075440A0000D544FB1E
:10709B00053FE53F70E4053E80E020980302701A3F
:1070AB0085993AC298E4F53EF53F20981DC3E53F1C
:0870BB009488E53E9413501285
:0870C30075440A0000D544FBEE
:1070CB00053FE53F70E4053E80E020980302701A0F
:0970DB0085993AC298D2B5C29918
:0870E4007544140000D544FBC3
:0670EC007599783099FD52
:0870F20075440A0000D544FBBF
:1070FA00C2B5027512E5396450706EF53EF53F204F
:0D710A00981DC3E53F9488E53E9413501294
:0871170075440A0000D544FB99
:10711F00053FE53F70E4053E80E020980302701ABA
:09712F0085993AC298D2B5C299C3
:087138007544140000D544FB6E
:087140007599793099FDC2999F
:087148007544140000D544FB5E
:087150007599013099FDC29907
:087158007544140000D544FB4E
:06716000E4F5993099FDF1
:0871660075440A0000D544FB4A
:0F716E00C2B5027512E5396401702FD2B5C2990E
:08717D007544140000D544FB29
:087185007599783099FDC2995B
:08718D007544140000D544FB19
:06719500E4F5993099FDBC
:08719B0075440A0000D544FB15
:1071A300C2B5027512E53964026003027252F53EFC
:1071B300F53F20981DC3E53F9488E53E9413501294
:0871C30075440A0000D544FBED
:1071CB00053FE53F70E4053E80E020980302701A0E
:1071DB0085993AC298E4F53BE53A13B392B4E53A94
:1071EB0025E0FEC3E49400EE94705029E53A7F004D
:1071FB0025E0FEC39460501DE5B654F04408F5B687
:10720B00758F038E408F418541828E83E4F053B698
:0C721B00F0F58F8003753BFFD2B5C299DF
:087227007544140000D544FB7E
:08722F007599783099FDC299B0
:087237007544140000D544FB6E
:06723F00853B993099FD2A
:0872450075440A0000D544FB6A
:10724D00C2B5027512E5396403600302737BF53E26
:10725D00F53F20981DC3E53F9488E53E94135012E9
:08726D0075440A0000D544FB42
:10727500053FE53F70E4053E80E020980302701A63
:1072850085993AC298E4F53EF53F20981DC3E53F40
:087295009488E53E94135012A9
:08729D0075440A0000D544FB12
:1072A500053FE53F70E4053E80E020980302701A33
:1072B50085993CC298E53A1392B4E53A25E0FEC3B8
:1072C500E49400EE9470400302701AE53A7D0025BF
:1072D500E0FCC39460400302701AE5B654F044081C
:1072E500F5B6758F01E53C75F020A42DFFE5F03C62
:1072F500F5408F41E4F53DE53DC394205043E4F569
:107305003EF53F20981DC3E53F9488E53E94135014
:017315001265
:0873160075440A0000D544FB98
:10731E00053FE53F70E4053E80E020980302701AB9
:10732E000541E541AE407002054014F5828E83E5BD
:10733E0099F0C298053D80B653B6F0E4F58FD2B5FC
:02734E00C299E2
:087350007544140000D544FB54
:087358007599783099FDC29986
:087360007544140000D544FB44
:06736800E4F5993099FDE7
:08736E0075440A0000D544FB40
:10737600C2B5027512E53964046003027417F53E5E
:10738600F53F20981DC3E53F9488E53E94135012BF
:0873960075440A0000D544FB18
:10739E00053FE53F70E4053E80E020980302701A39
:1073AE0085993AC298E53A25E0F542754300E4F531
:1073BE003BF53EF53F0543E543AE427002054214F0
:1073CE00F5828E83E493253BF53B053FE53F700246
:0E73DE00053E7004E53E640270DBD2B5C29934
:0873EC007544140000D544FBB8
:0873F4007599783099FDC299EA
:0873FC007544140000D544FBA8
:06740400853B993099FD63
:08740A0075440A0000D544FBA3
:10741200C2B5027512E5396405600302750AF53ECC
:10742200F53F20981DC3E53F9488E53E9413501222
:0874320075440A0000D544FB7B
:10743A00053FE53F70E4053E80E020980302701A9C
:10744A0085993AC298E4F53EF53F20981DC3E53F79
:08745A009488E53E94135012E2
:0874620075440A0000D544FB4B
:10746A00053FE53F70E4053E80E020980302701A6C
:09747A0085993CC298D2B5C29973
:087483007544140000D544FB20
:08748B0075997F3099FDC2994B
:087493007544140000D544FB10
:10749B007599203099FDE53A25E0FCE53C75F02027
:1074AB00A42400FFE5F03CF5428F43E4F53BF53DAA
:0274BB00C29974
:0874BD007544140000D544FBE6
:1074C500854382854283E493F5993099FD0543E52B
:1074D50043AE427002054214F5828E83E493253B48
:0B74E500F53B053DE53DB420CDC2990C
:0874F0007544140000D544FBB3
:0674F800853B993099FD6F
:0874FE0075440A0000D544FBAF
:10750600C2B58008E539B4060375EF10E53964079E
:0A751600600302701A78D1F6D2AFBC
:017520002248
:101CC700121FC9200A0B7A007B327D017F00121A8E
:101CD700C4300C0B7A007B1E7D017F00121AC430C2
:101CE7000817300D147A007B327D0178B3E6FF12B6
:101CF7001AC4C208121748D20A300E08300D05C29E
:101D07000E127000121FAFE47B2C7A01F9F8C31290
:071D17000C7D5002D20D22E9
:0B1FD500120D57121CC7121FE980F804
:10149B00005EBCE2613FDD83C29C7E20A3FD1F4149
:1014AB009DC3217FFCA2401E5F01E3BD3E6082DC39
:1014BB00237D9FC1421CFEA0E1BF5D0380DE3C6229
:1014CB00BEE0025CDF81633D7C22C09E1D43A1FF19
:1014DB004618FAA427799BC584DA3866E5BB590709
:1014EB00DB856739BAE406581947A5FB7826C49AF9
:1014FB00653BD987045AB8E6A7F91B45C6987A24E9
:10150B00F8A6441A99C7257B3A6486D85B05E7B9D8
:10151B008CD2306EEDB3510F4E10F2AC2F7193CDC8
:10152B00114FADF3702ECC92D38D6F31B2EC0E50B8
:10153B00AFF1134DCE90722C6D33D18F0C52B0EEA8
:10154B00326C8ED0530DEFB1F0AE4C1291CF2D7398
:10155B00CA947628ABF517490856B4EA6937D58B88
:10156B005709EBB536688AD495CB2977F4AA481678
:10157B00E9B7550B88D6346A2B7597C94A14F6A868
:10158B00742AC896154BA9F7B6E80A54D7896B3558
:0A159B0070B8DCEEF4F7FAFDFEFF75
:10192E00151F151FA81FECF608EDF6151F151F1530
:10193E001FA81FC6EBC608C6EAC608C6E9C6E51F3D
:04194E0024FCF51F61
:10195200F80808E4F6A81FF608F6E51F2407F9A818
:101962001FE6FE08E6FFC3099719E76480F8EE64F4
:1019720080985037E51F2404F8CBE6CB08E6FA0836
:10198200E6F98F828E83120AA7A81F080866FFE570
:101992001F2403F8EFF6E690149B93A81F0808F69D
:1019A200A81F0806E61870B20680AFA81F0808E64E
:0119B200FF35
:0719B300E51F2409F51F22C6
:07000300ED6F90149B93FFC9
:01000A0022D3
:101F4200EF701E7598D0E589540F4420F58953C867
:101F5200E1438E10ED90159A93F58DD28ED2ACC2DC
:031F6200BCD2AF3F
:011F65002259
:101C6E00D2AFD2A9D2BBE589540F4401F589E4F570
:101C7E008E758CDBF58AD28CF563F562F561F560B5
:101C8E00F567F566F565F564755D64FFEF25E0258E
:101C9E00E024DDF8E4F6EF25E025E024DEF8E4F6B6
:101CAE00EF25E025E024DFF8E4F6EF25E025E0243B
:081CBE00E0F8E4F60FBF01D4C9
:011CC60022FB
:02189100151F21
:10189300A81FE4F6A81FE6FFC39401400302192B17
:1018A300EF25E025E024E0F8E6FFD394004052A8BA
:1018B3001FE625E025E024DEF8E67045EF30E0156D
:1018C300A81FE6FF25E025E024E0F8E6D3940140D5
:1018D300047D0080067D01A81FE6FF121E5FA81F7E
:1018E300E6FF25E025E024E0F816E66014EF25E0A6
:1018F30025E024DFF8E6FEEF25E025E024DEF8EE20
:10190300F6A81FE625E025E024DEF8E6600116A828
:101913001FE6FF25E025E024E0F8E670057D0112CF
:081923001E5FA81F06021897C1
:03192B00051F2273
:03000B00021A4690
:101A4600C0E0C0F0C083C082C0D0E8C0E0E9C0E01A
:101A5600EAC0E0EBC0E0ECC0E0EDC0E0EEC0E0EFD5
:101A6600C0E0758CDCE5632401F563E43562F5625C
:101A7600E43561F561E43560F560D55D18E5672408
:101A860001F567E43566F566E43565F565E43564C4
:101A9600F564755D64121891121F66D0E0FFD0E000
:101AA600FED0E0FDD0E0FCD0E0FBD0E0FAD0E0F9DB
:0E1AB600D0E0F8D0D0D082D083D0F0D0E03293
:101EF600151FA81FEDF6151FA81FEFF6A81FE6FF72
:101F0600C39401500D08E6FEEF25E025E024DDF838
:071F1600EEF6051F051F2276
:101AC400151F151FA81FEAF608EBF6151FA81FED32
:101AD400F6151FA81FEFF6A81FE6FFC39401505286
:101AE400EF25E025E024E0F8E67047A81FE6FB2593
:101AF400E025E024DEF8E67039A81F08E625E004B6
:101B0400FFA81FE6FA25E025E024E0F8EFF6A81F79
:101B14000808E6FE08E6FF7C007D0A120B08EA25A9
:101B2400E025E024DFF8EFF6EB25E025E024DEF8FD
:091B3400E4F6E51F2404F51F226C
:101E5F00151FA81FEDF6151FA81FEFF6A81FE6FF09
:101E6F00C39401501CEF25E025E024DDF8E6601156
:101E7F00A81F08E670047F0180027F00A81F08EFEB
:101E8F00F6A81FE6700608E624FF92B4051F051F8B
:011E9F002220
:0C1FAF00C2AFAF63AE62AD61AC60D2AFF8
:011FBB002203
:0C1FBC00C2AFAF67AE66AD65AC64D2AFDB
:011FC80022F6
:0C1FC900E4F55EF55F300F0375FFA52204
:10000E00D20FE4F55EF55F75FF0775FFA543B2806D
:01001E0022BF
:0E1F9400C20FE4F55EF55F75FFDE75FFAD224E
:101F6600055FE55F7002055E300F0CC394E8E55E21
:081F76009403500375FFA5223E
:041ECD008E688F6923
:101ED100E4F56AF56BC3E56B9569E56A956850149D
:101EE1007FE87E03121D73121FC9056BE56B70E558
:041EF100056A80E11D
:011EF50022CA
:041D73008E6C8F6D76
:101D7700D3E56D94FAE56C9400500AEFD3940040D4
:101D87003C001F80F6856C6E856D6FD3E56F94FA06
:101D9700E56E940040157FFA7E00121D73740625C8
:101DA7006FF56F74FF356EF56E80E0D3E56D9400C7
:0D1DB700E56C94004007AF6FAE6E121D7317
:011DC40022FC
:081D1E008B3D8A3E893F8D4098
:101D2600121FC9AB41AA42A943120B3E2400FFE58C
:101D3600F03460FE853D44853E45853F46E4FDED35
:101D4600C39540501BEF2DF582E43EF583E493AB3B
:101D560044AA45A9468D82758300120AE60D80DFE6
:0D1D6600AB41AA42A943E48540F0020B699D
:0817F3008B3F8A4089418D42C1
:1017FB0078D1E664F16003021890121F94C2AFE532
:10180B00B654F04408F5B6758F01AB43AA44A9450D
:10181B00120B3E2400FFE5F0346078D6F608EFF6A5
:10182B00AA40A94178DAA63F08C6EAC608C6E9C6A7
:10183B00E478D8F678D8E6C39542503278DACBE61E
:10184B00CB080806E618CAE6CA70010614F9120A94
:10185B008E78D9F6E6FF78D60806E618CCE6CC707B
:10186B00010614F5828C83EFF078D80680C6E4F578
:10187B008F53B6F0AB43AA44A9458542F0120B69CE
:05188B00D2AF12000EB7
:011890002235
:101C120078D1E664F17054C2AF121F94E5B654F065
:101C22004408F5B6758F0378D87660087600E478B4
:101C3200D6F608F678D8E6FE08E6F5828E83E4F05A
:101C4200121FC9E426F618740236F61806E6187052
:101C52000106C378D7E6940818E66480948040D4DD
:0B1C6200E4F58F53B6F0D2AF12000E75
:011C6D002254
:10174800121C12E4F53DF53EF54375440075453D20
:10175800FB7A0079477D161217F3E4F53AE53AC3A8
:1017680078A8965067E4F53975F010E539A4240B8C
:10177800F582E5F03413F583E493604C78B1E6859F
:101788003AF0A4FFAEF075F010E539A42418F582FC
:10179800E5F03413F583E493FB740193FA74029330
:1017A8002FF9EA3EFA75F010E539A4240BF582E525
:1017B800F03413F583E493FD7543007544007545D3
:1017C8003D1217F3053980A0053A8091753B1275D3
:1017D8003C3475430075440075453D7B007A0079BB
:0A17E8003B7D021217F3E478D1F6FE
:0117F20022D4
:10169800E4F53BF53CF54175420075433BFB7A00A8
:1016A80079477D16121D1EE4F538E538C378A896EB
:1016B8005067E4F53775F010E537A4240BF582E59B
:1016C800F03413F583E493604C78B1E68538F0A4E0
:1016D800FFAEF075F010E537A42418F582E5F03474
:1016E80013F583E493FB740193FA7402932FF9EAD8
:1016F8003EFA75F010E537A4240BF582E5F03413B3
:10170800F583E493FD75410075420075433B121D56
:101718001E053780A0053880917541007542007517
:10172800433B7B007A0079397D02121D1EE53A643D
:0F173800347004E539641270047F0180027F0071
:01174700227F
:101303005343532D37303000015A000000506F779C
:101313006572300000000070015A000000506F77C2
:101323006572310000000071015A000000506F77B0
:101333006572320000000072015A000000506F779E
:101343006572330000000073015A000000506F778C
:101353006572340000000074015A000000506F777A
:101363006572350000000075015A000000506F7768
:101373006572360000000076015A000000506F7756
:101383006572370000000077040800000154656DA2
:101393007030000000000078040800000154656DFF
:1013A300703100000000007C040800000154656DEA
:1013B3007032000000000080040800000154656DD5
:1013C3007033000000000084040800000154656DC0
:1013D3007034000000000088040800000154656DAB
:1013E300703500000000008C040800000154656D96
:1013F3007036000000000090040800000154656D81
:10140300703700000000009402080000024F66736A
:10141300300000000000009802080000024F6673CD
:10142300310000000000009A02080000024F6673BA
:10143300320000000000009C02080000024F6673A7
:10144300330000000000009E02080000024F667394
:1014530034000000000000A002080000024F667381
:1014630035000000000000A202080000024F66736E
:1014730036000000000000A402080000024F66735B
:1014830037000000000000A600000000000000007C
:08149300000000000000000051
:091FA50001A801010800010D0072
:101F1D00E4F5BA75BCE075E88075D10375D48075AC
:101F2D00D78075A5FFEF600CE4FF74702FF8E4F611
:041F3D000FBF08F6D4
:011F4100227D
:091FE000151FA81FEFF6051F22D2
:051FF4008F2E7F00228A
:101EA0008B2E8A2F8930120A8EAB31AA32A93312B7
:101EB0000AD4AB2EAA2FA930900001120AA7AB3189
:0D1EC000AA32A933900001120AE67F022227
:10114500E50D7017E508045407F508540FF5BB7550
:10115500BCE0E4F50CF50BF50AF509E4F534C2AF8E
:10116500C2EDD2EC30EDFDD2AFAFBFEFFEADBEEDBF
:10117500FFE4FCFDE50C2FF50CE50B3EF50BED351D
:101185000AF50AEC3509F509121CC70534E534C31F
:10119500941040CA050DE50D6003021302AF0CAEB5
:1011A5000BAD0AAC09FB7A01F9F8120BDD8F0C8E39
:1011B5000B8D0A8C09E4120A06E4FBFA798078475C
:1011C5001208FCE4FBFA792078401207F3E4FBFAF5
:1011D500792078411208FC8F388E378D368C357B17
:1011E5006F7A127983783A1208FC8F388E378D36EC
:1011F5008C357F757E787D0C7C35AB38AA37A93662
:10120500A8351207F3AB38AA37A936A8351207F364
:10121500AB38AA37A936A8351207F3ECC0E0EDC004
:10122500E0EEC0E0EFC0E07FFA7EED7D6B7C3AAB8F
:1012350038AA37A936A8351207F3AB38AA37A93625
:10124500A8351207F3D0E0FBD0E0FAD0E0F9D0E002
:10125500F8120702ECC0E0EDC0E0EEC0E0EFC0E040
:101265007F177ED97D167C40AB38AA37A936A835BD
:101275001207F3D0E0FBD0E0FAD0E0F9D0E0F812A5
:1012850007027BD37A4D79E278411207028F388EB7
:10129500378D368C357B337A93798878431206FE01
:1012A5008F388E378D368C35AB38AA37A936A835A9
:1012B500E8C0E0E9C0E0EAC0E0EBC0E0E50825E011
:1012C5002498F8E6FC08E6FDEC120A0BE4FBFA7933
:1012D500C878421208FCD0E0FBD0E0FAD0E0F9D0A3
:1012E500E0F81207028F388E378D368C35C2AFE5A0
:0D12F5000825E025E02478F8120C8ED2AF19
:0113020022C8
:100F6700121FAFAB15AA14A913A812C3120C7D70D8
:100F770003021144121FAF8F158E148D138C12E4C8
:100F8700F53474702534F9C3E7648094E4400302B0
:100F970010C0121FAFC3EF9511F53CEE9510F53B4E
:100FA700ED950FF53AEC950EF53974702534F8E6A2
:100FB700FF3395E0FEFDFCAB3CAA3BA93AA839C339
:100FC700120C7D50030210C074702534F8E6FF330D
:100FD70095E0FEFDFCECC0E0C9EDC9CAEECACBEF57
:100FE700CB74702534F8E6FF3395E0FEFDFCD0E0C6
:100FF700F8C3EF9BFFEE9AFEED99FDEC98FCE41227
:101007000A068F388E378D368C35E4FFFEFDFCAB34
:1010170038AA37A936A8351209996028747025347B
:10102700F8E6FF3395E0FEFDFCEF2401FFE43EFE0A
:10103700E43DFDE43CFCAB3CAA3BA93AA839C3120A
:101047000C7D4010AF347401C8EFC8088002C33369
:10105700D8FC805AE516D39400405874172534F805
:10106700E6FCE4120A10ECC0E0EDC0E0EEC0E0EFF1
:10107700C0E0AC16E4120A10C8ECC8C9EDC9CAEE44
:10108700CACBEFCBD0E0FFD0E0FED0E0FDD0E0FC54
:101097001208FCAB38AA37A936A83512099950139C
:1010A700AF347401C8EFC8088002C333D8FCF452C8
:1010B70090800674172534F8060534E534C3940880
:1010C7005003020F89121FAFC3EF9511FFEE951062
:1010D700FEED950FFDEC950EFCE47B64FAF9F8D371
:1010E700120C7D5058121FAF8F118E108D0F8C0E62
:1010F7008F158E148D138C12E4F53474702534F922
:10110700D3E7648094804010AF347401C8EFC808F7
:101117008002C333D8FC42900534E534B408DCE5DB
:10112700160475F00A8485F016E5167010F5347408
:0D113700172534F8E4F60534E534B408F269
:011144002288
:061FE900121145020F6712
:1006FB00020A79E86480F8E933E83360110460F0AA
:10070B00ED33EC337009E8FCE9FDEAFEEBFF220464
:10071B0060DED3EB9FEA9EE99DE8C2E78CF0C2F75F
:10072B0095F0400CE8CCF8E9CDF9EACEFAEBCFFB2B
:10073B00120A4485D0F05804700320D5B3E8047036
:10074B00075002B2D5020A8392D5EC0460F7E4CCD1
:10075B00C0E0C398F8603B94186008400DD0E0FBF4
:10076B00020A5BE4FBFAC9FC8028E830E406E4C922
:10077B00FBE4CAFCE830E305E4C9CACBFCE8540748
:10078B006010F8C3E913F9EA13FAEB13FBEC13FC53
:10079B00D8F130F52FC3E49CFCEF9BFFEE9AFEEDF6
:1007AB0099FDD0E0FBEF4E4D4C701222DB03020A99
:1007BB0080EC2CFCEF33FFEE33FEED33FDED30E739
:1007CB00EB020A5BEF2BFFEE3AFEED39FDD0E0FBBF
:1007DB0050130BBB0003020A83ED13FDEE13FEEF68
:0807EB0013FFEC13FC020A5B92
:1007F300EC4D6011E8497017ED33EC3304600DE400
:10080300FCFFFEFD22E933E8330470F8020A791293
:100813000A4458046009E4CC248150062850090294
:100823000A83284003020A80C0E0EB4A7044B9807F
:1008330006D0E0FB020A6FEF4E701CBD8008EBFF91
:10084300EAFEE9FD80EBE98DF0A4FEE5F00208DCA9
:10085300E9CDF9EAFEEBFFEF89F0A4FCE5F0CE89E0
:10086300F0A42EFFE435F0CD89F0A42DFEE435F09D
:100873008067EF4E7005BD80D780C3EF8BF0A4ACCB
:10088300F0EE8BF0A42CFCE435F0F8EF8AF0A42C06
:10089300E5F038FCE433CB8DF0A42CFCE5F03BF819
:1008A300EE8AF0A42CFCE5F038F8E433CF89F0A409
:1008B3002CFCE5F038CF3400CE89F0A42FFFE5F00F
:1008C3003EFEE433C98DF0A42EFEE5F039CD8AF067
:1008D300A42FFFE5F03EFEE43DFD33D0E0FB5007DF
:1008E3000BBB000F020A83EC2CFCEF33FFEE33FE4D
:0608F300ED33FD020A5B7B
:1008F900020A83EC5D046005E859047003020A7971
:10090900120A44580460F6EC4860F2EC7004FDFEEB
:10091900FF22C860DB2481C85009C39860025006D1
:10092900020A809850CAF582E9294B4A7005AB82C0
:10093900020A6F75F0007C1A7880C3EF9BEE9AED7E
:1009490099400DC3EF9BFFEE9AFEED99FDE842F049
:10095900DC23ACF0D0E0FFD0E0FED0E0FDAB82209C
:10096900E7101BEB60BAEC2CFCEF33FFEE33FEED26
:1009790033FD020A5BE803F830E705C0F075F000C3
:10098900EF2FFFEE33FEED33FD40B830E7C280AA0A
:1009990074F8CC6480CCC86480C8F582046043C311
:1009A900EB9FF5F0EA9E42F0E99D42F0E89C45F0A4
:1009B90060305018E5825FFFE582F42B5582FB50C9
:1009C900210ABA001D09B90019088016E5825BFBE6
:1009D900E582F42F5582FF50090EBE00050DBD00BA
:1009E900010CC3EB9FF5F0EA9E42F0E99D42F0E865
:0D09F9009C45F06007CC4820E701B3EC22DC
:100A060075F020800E75F010800575F0087D007E6B
:100A1600007F003392D530D503120C6FEC334010B3
:100A2600EF33FFEE33FEED33FDEC33FCD5F0ED2274
:0E0A3600E5F0247EA2D513CC92E7CDCEFF22B0
:100A4400E9D2E7C933E833F892D5EDD2E7CD33ECF8
:070A540033FC5002B2D52271
:100A5B00EC30E7100FBF000C0EBE00080DBD0004FC
:100A6B000BEB6014A2D5EB13FCED92E7FD2274FFA8
:100A7B00FCFDFEFF22E480F8A2D574FF13FC7D8001
:030A8B00E480EF15
:030000000219BA28
:0C19BA00787FE4F6D8FD7581E0021A0188
:100A8E00BB010689828A83E0225002E722BBFE0266
:090A9E00E32289828A83E4932299
:100AA700BB010CE58229F582E5833AF583E0225004
:100AB70006E92582F8E622BBFE06E92582F8E2224E
:0D0AC700E58229F582E5833AF583E4932268
:100AD400BB010689828A83F0225002F722BBFE0101
:020AE400F322FB
:100AE600F8BB010DE58229F582E5833AF583E8F046
:100AF600225006E92582C8F622BBFE05E92582C8F2
:020B0600F222D9
:100B0800C2D5EC30E709B2D5E4C39DFDE49CFCEE08
:100B180030E715B2D5E4C39FFFE49EFE120CECC388
:100B2800E49DFDE49CFC8003120CEC30D507C3E483
:060B38009FFFE49EFE2277
:100B3E00BB010A89828A83E0F5F0A3E02250068782
:100B4E00F009E71922BBFE07E3F5F009E319228944
:0B0B5E00828A83E493F5F07401932277
:100B6900BB010789828A83020D41500B09C5F02711
:100B7900F7C5F01937F722BBFE0D09F8E325F0F3A5
:100B8900C5F019E338F322F889828A837401932521
:080B9900F0C5F0F8E4933822E6
:100BA10075F008758200EF2FFFEE33FECD33CDCC0B
:100BB10033CCC58233C5829BED9AEC99E58298408E
:100BC1000CF582EE9BFEED9AFDEC99FC0FD5F0D66B
:100BD100E4CEFBE4CDFAE4CCF9A88222B800C1B995
:100BE1000059BA002DEC8BF084CFCECDFCE5F0CBD3
:100BF100F97818EF2FFFEE33FEED33FDEC33FCEB0C
:100C010033FB10D703994004EB99FB0FD8E5E4F9C6
:100C1100FA227818EF2FFFEE33FEED33FDEC33FCB3
:100C2100C933C910D7059BE99A4007EC9BFCE99AA7
:100C3100F90FD8E0E4C9FAE4CCFB2275F010EF2FEC
:100C4100FFEE33FEED33FDCC33CCC833C810D707EC
:100C51009BEC9AE899400AED9BFDEC9AFCE899F827
:0E0C61000FD5F0DAE4CDFBE4CCFAE4C8F922BA
:0E0C6F00C3E49FFFE49EFEE49DFDE49CFC2296
:100C7D00EB9FF5F0EA9E42F0E99D42F0E89C45F0CD
:010C8D002244
:0C0C8E00ECF608EDF608EEF608EFF62292
:100C9A00D083D082F8E4937012740193700DA3A3E9
:100CAA0093F8740193F5828883E4737402936860FD
:060CBA00EFA3A3A380DFFD
:101DC5008B378A388939E4F53FF540E53E153EAE57
:101DD5003D7002153D4E6033AB3AAA3BA93C120A51
:101DE5008EFFAB37AA38A9390540E540AC3F7002F4
:101DF500053F14F5828C83EF120AE6EF60CD74017E
:101E0500253CF53CE4353BF53B80C0AB37AA38A90A
:021E1500392270
:100CC000EF4E6012EF60010EEDBB010B89828A834B
:100CD000F0A3DFFCDEFA2289F05007F709DFFCA958
:0C0CE000F022BBFEFCF309DFFCA9F022AF
:1019C600021FD5E493A3F8E493A34003F68001F243
:1019D60008DFF48029E493A3F85407240CC8C33322
:1019E600C4540F4420C8834004F456800146F6DFF1
:1019F600E4800B0102040810204080901FA2E47EC0
:101A0600019360BCA3FF543F30E509541FFEE493E5
:101A1600A360010ECF54C025E060A840B8E493A3AC
:101A2600FAE493A3F8E493A3C8C582C8CAC583CAD7
:101A3600F0A3C8C582C8CAC583CADFE9DEE780BE8F
:011FAE000032
:100CEC00BC000BBE0029EF8DF084FFADF022E4CCEC
:100CFC00F875F008EF2FFFEE33FEEC33FCEE9DECB5
:100D0C00984005FCEE9DFE0FD5F0E9E4CEFD22EDFA
:100D1C00F8F5F0EE8420D21CFEADF075F008EF2F44
:100D2C00FFED33FD4007985006D5F0F222C398FD35
:050D3C000FD5F0EA22D2
:100D4100C5F0F8A3E028F0C5F0F8E582158270023D
:060D51001583E038F022DA
:00000001FF
