:0D23F400245265763A203335353820240018
:03000E0001A60048
:101A5E00E526AB60AA61A96275F010A4F58285F047
:101A6E0083020409E493FF3395E0FEEF24D0FFEEEA
:101A7E0034FFFE7C0002046AE53BC4F8540FC868CC
:101A8E00FFE53AC454F0482275F010A429F9EA355E
:101A9E00F0FA22E52975F010A4AB602562F9E56134
:101AAE0035F022AB60AA61A96222C2ACE4F524D261
:101ABE00B52290000D1206857888E6FF18E68FF0A5
:101ACE00A422788BE6FC08E6FDAB09AA087F01226A
:101ADE00D20BC3ED9B7888F67883760122D20B78F1
:101AEE0088F6788322FA900004020409253BF8E474
:101AFE00F6053BE53B22788BE6FDE509FB7F0122EF
:0E1B0E00789E76787F01227B007A007924226F
:1011BF00E478A6F61223E675E104E4F5E275E34060
:1011CF0075A401F5A5F5A675A72075B16775B208C9
:1011DF0012220CE4FF12236FE4F53AF53B7D01AFC9
:1011EF003B1223D4053BE53B7002053AC39401E55E
:1011FF003A940040E8E4F520C20BC208C20FC20EB9
:10120F00C20D78A6F6C2B57884F67882F618F6780D
:10121F0088F6F53AF53B748A121AFA7002053A64A9
:10122F0014453A70F1E4F53AF53B749E121AFA70D0
:10123F0002053A6408453A70F1E5EF20E10CE5EF5D
:10124F005408D394004003D38001C392037D08E474
:10125F00FF12234BE47887F6787FF6121AB1787F66
:10126F00E6FF121A66FE788726F6EE6005787F068F
:10127F0080E9EFD394004025121AB190000D1206A9
:10128F008574551204361203F064556002D20D7442
:10129F00AA1204361203F064AA6002D20D121B1CAC
:1012AF008F39E53920E035C20A74FFF508F509F5E5
:1012BF000AF50B7E007F107D007B007A00790E12FD
:1012CF0006DB753FFF75400E75411775420075437C
:1012DF00107B007A00790E12211A8002D20A902315
:1012EF00FB7D64121A72AA06AB079023FAE493FFF0
:1012FF003395E0FEEF24D0FFEE34FFFE7C037DE854
:10130F0012046AEF2BFBEE3AFA9023FC7D0A121AB5
:10131F0072EF2BFFEE3AFEA3E493FD3395E0FCED65
:10132F0024D0FDEC34FFCD2FF50DED3EF50CE53956
:10133F0020E179E4F53AF53B121A86FE121AB18FC5
:10134F0082F583120409605BE92FF9EA3E121AF362
:10135F0020E245E4F538E538C3781F96503A121A63
:10136F0086121AB18F82F583120409FF7E00C00620
:10137F00C0077D00121A86FEE92FF9EA3EFA9000A7
:10138F000D1206857887E68538F0121A99D007D0A6
:10139F00061206DB053880BE053BE53B7002053AB9
:1013AF000213477F01121EE8C20C8007E4FF121ED2
:1013BF00E8D20CE4F53AF53B7A007B967D03AF3B20
:1013CF00122024053BE53B7002053AC39401E53A30
:0413DF00940040E452
:0113E30022E7
:052438007888E6FF2298
:030023000218A41C
:1018A400C0E0C0F0C083C082C0D075D000C000C00A
:1018B40001C002C003C004C005C006C00730992F90
:1018C400C2997882067982E778846670117882F604
:0218D400D20937
:0818D60075230A0000D523FB75
:0418DE00C2B58011FE
:0818E2007523140000D523FB5F
:1018EA007882E6249EF8E6F59920980302197C206E
:1018FA009A07200B04C2988075C29A7881E606245A
:10190A008AF8A699C2987881E6FFB40113788AE624
:10191A00FE70057881F6805AEE540724027889F61B
:10192A00EFB4020E7889E6B40908788BE6240379C5
:10193A0089F77881E6FFB4140476008035EFC3781E
:10194A008996402E7881E624FFFDE434FFFC7B0073
:10195A007A00798A121E707881E62489F8E66F6027
:03196A0002800BED
:08196D007523140000D523FBD3
:1019750012079078817600D007D006D005D004D024
:1019850003D002D001D000D0D0D082D083D0F0D007
:02199500E0323E
:10228E008F328B338A348935EA494B60161203F04C
:10229E00FFE532FD7C00120003AB33AA34A935EF03
:0322AE00120436E1
:0822B1007536140000D536FB60
:0E22B9008532997F0112238D3099FDC2992242
:0823AA007884EFF6C209D2B5F8
:0823B2007532140000D532FB66
:0623BA00789EE6F5992271
:10225300C9EFC9E96401701FEDC39B4027781FE6EE
:10226300FFEB2FFFE433FEEDC39FEE6480F8748031
:10227300985011121ADE22B90210ED6B7006121A71
:0B228300EB760222C20BE47883F62207
:10216C00C9EFC9BAFF11BBFF0EED6B7002EC6A70C0
:10217C0038121AEBE9F622E96401701CC3ED9BECF2
:10218C009A4013781FE62BFFE43AFEC3ED9FEC9EBA
:10219C005004121ADE228011B90214ED6B7002EC9D
:1021AC006A7006121AEB760222C20BE47883F622CE
:10079000788AE6FF54F8F525EF1206B507D9090760
:1007A000DE0A07E31007EC1107FB12080E19081CFC
:1007B0001A082E20083428088C29094C33097B3765
:1007C000099E3909AD4109B64909BF5009F96109C6
:1007D000127009F19800000A14121B048017121AF3
:1007E000D08025D20B78837603020A14788BE6FD3D
:1007F000E50BFB7F02122253020A14788BE6FC08F9
:10080000E6FDAB0BAA0A7F0212216C020A14121B2E
:1008100004122253200B03020A14800C121AD01265
:10082000216C200B03020A14121B0E020A1175EF31
:1008300010020A14121AB8FB120D4A7F1812228EE7
:10084000121B157F0512228E787F120DAEAF081293
:100850000D6EAF0912228EAF0A120D6EAF0B12226F
:100860008E7B00AF0C120DA0AF0D12228EE4F52688
:10087000740E2526F8120DAE0526E526C394104009
:01088000EF88
:08088100120DBA0000D531FB95
:100889000208FF788BE6FFC3787F965070EF75F00A
:1008990010A4121AA985602EF52F8930121AB8FBF7
:1008A9007F7F120DA07F0D12228EAB2EAA2FA930A9
:1008B900120D92900001120D5A900002120D5A90D9
:1008C9000003120D7E900004120D7EE4F526AB2E76
:1008D900E5302405F9E4352FFA7E00E92526F9EEFD
:0E08E9003AFA120D920526E526C3940840E067
:0808F700120DBA0000D531FB1F
:1008FF00C2B5D2AC020A14789E7678E408F67F026D
:10090F00020A1112240E78A712061A789E767C78A6
:10091F00A7E6789FF678A8E678A0F678A9E678A1FA
:10092F00F678AAE678A2F67C007D057B007A00793E
:10093F009E121E7078A3EFF67F06020A11788BE6DF
:10094F00FFB4010B08E6F50808E6F5090209F1EF17
:10095F00B40208788CE6F5080209F1788BE6B40347
:10096F000808E6F50A08E6F50B0209F1E4F526E5B5
:10097F0026C3788B965016748C2526F8E6FF740ED6
:10098F002526F8C6EFC60526E526B410E2805312D9
:10099F000DE2788BE6FDE4FF12234B020A14788BED
:1009AF00E624FF9202805E788BE624FF9201805549
:1009BF007888E66005752802800B200E05752803E0
:1009CF008003752801789E767908A628120DC978BC
:1009DF00A0EFF67F031223AAE52864017027D20F38
:1009EF008002D20878A676F1801B7F00120E0D7858
:1009FF009E7679788BE6789FF6120DC978A0EFF680
:100A0F007F031223AAE52564A06003020B92788A64
:100A1F00E664A16003020AC8798BE7C3787F96402A
:100A2F0003020AC2121AB1788BE6FF121A66F52872
:100A3F00EF121A96121AF430E226788BE6FF122480
:100A4F003D8F28789E767F08A628E5282402120D70
:100A5F00F074A02528F8EFF6E5282403FF020B8F8A
:100A6F00788BE6FF12243D121AB8E528D39406407E
:100A7F001F7B00120D4AAF2812228EE4F526E526C1
:100A8F00C395285007120D13052680F205288018EC
:100A9F00E5282478120DD7E4F526E526C3952850CE
:080AAF0007120D13052680F269
:080AB700120DFE0000D531FB19
:100ABF00020B86121B0E020B8F788AE664A260036C
:100ACF00020B92787FE6FF788BE6FEC39F4003020E
:100ADF000B8C08E6FDC39F4003020B8CEE9D400379
:100AEF00020B8C18E6F526E4F52CF52DE526D378C8
:100AFF008C965015AF2612243D121A5E252DF52D1A
:100B0F00E4352CF52C052680E3121AB8FB7A007910
:100B1F00247F7F12228EC3E52D9480E52C94005004
:100B2F00028007E52C4480120DD7AF2D121B151232
:100B3F00228E788BE6F526E526D3788C965030E416
:100B4F00F527121A5EFFE527C39F501FE526121ADD
:100B5F0096121AC02527F582E435F0F583120409A1
:0F0B6F00FF121B1512228E052780D7052680C87E
:080B7E00120DFE0000D531FB51
:100B8600C2B5D2AC8006121B0E1223AAE525645804
:100B9600703DFA7B327D017888E6FF122024753598
:100BA6000075360075379F7B007A00798B1222C755
:100BB6008F28E5282478789EF6E5282401120DF082
:100BC600749F2528F8EFF6E5282402FF1223AAE5EC
:100BD6002564806009E52564886003020D12788328
:100BE600E6B40105120DE28014E4F526E526C37885
:100BF6001F965009AF26120E0D052680EF788AE65D
:100C06005407F528B4070A75270108E6F528088071
:100C160005E4F527788BE6F5291528E529C3787FBD
:100C2600964003020CF0E529121A60FFE528D39FCF
:100C360040028F287883E6B401097888E6F52BF51B
:100C46002A8009E4F52A781FE614F52B7888A62A67
:100C56007888E6D3952B4003020CE4E4F526E526D6
:100C6600C39528506E121AA1121AF320E260900062
:100C76000112040964387025E528D39404400BE575
:100C8600272526248CF8E6FD80327881E6C3952652
:100C9600FF74882FF8E6FD121AA1FA801F121AB106
:100CA60075F010E529121A69FFC37881E69F25269B
:100CB60025272489F8E6FDE529121A96121AC0FF9F
:100CC600E5262FF582E435F0F583ED120448052676
:100CD600020C64AF29122426788806020C567888FE
:100CE600A62AE52564887024800FE529B4FF1D78BF
:100CF6008CE6F520E525B48813789E76787881E62B
:0C0D06002489F8E6789FF67F021223AAE9
:100D120022788BE675F010A4AB602562F9E56135A7
:100D2200F0FA90000D1206857888E6FF18E68FF03B
:100D3200A42526F582E435F0F583120409FF7B0031
:100D42007A00792412228E227A0079247F7F12225D
:100D52008E7B007A00792422AB2EAA2FA9301204AE
:100D620009FF7B007A00792412228E227B007A000E
:100D7200792412228E7B007A00792422AB2EAA2FAC
:100D8200A930120409FF7B007A00792412228E22F4
:100D92001203F0FF7B007A00792412228E227A005D
:100DA200792412228E7B007A00792422E6FF7B00CE
:100DB2007A00792412228E227B007A007900AF24F5
:100DC20012228E75310A227C007D027B007A007924
:100DD2009E121E7022FF7B007A00792412228E223C
:100DE2007A007B327D017888E6FF12202422FDE41E
:100DF20033FC7B007A00799E121E70227B007A00FF
:100E02007900AF2412228E75310A227A007B327D5C
:050E1200011220242262
:1070000078A6E664F1600302753FE4F542F543209B
:02701000091A5B
:0870120075480A0000D548FB97
:10701A000543E5437002054264107004E5426427A3
:10702A0070E3C2AF75FFDE75FFADE4F53EF53D20B6
:10703A009829E4F542F54320981DC3E5439488E571
:05704A004294135012F6
:08704F0075480A0000D548FB5A
:107057000543E54370E4054280E0B2B480D48599E6
:107067003DC298E53D641A600302711EF542F5437F
:0E70770020981DC3E5439488E54294135012FF
:0870850075480A0000D548FB24
:10708D000543E54370E4054280E030989F85993EC5
:10709D00C298E4F542F54320981DC3E5439488E575
:0570AD00429413501293
:0870B20075480A0000D548FBF7
:1070BA000543E54370E4054280E0209803027039F5
:1070CA0085993EC298E4F542F54320981DC3E543ED
:0870DA009488E5429413501262
:0870E20075480A0000D548FBC7
:1070EA000543E54370E4054280E0209803027039C5
:0970FA0085993EC298D2B5C299F5
:087103007548140000D548FB9B
:06710B007599783099FD32
:0871110075480A0000D548FB97
:10711900C2B5027531E53D6450706EF542F5432004
:0D712900981DC3E5439488E542941350126D
:0871360075480A0000D548FB72
:10713E000543E54370E4054280E020980302703970
:09714E0085993EC298D2B5C299A0
:087157007548140000D548FB47
:08715F007599793099FDC29980
:087167007548140000D548FB37
:08716F007599013099FDC299E8
:087177007548140000D548FB27
:06717F00E4F5993099FDD2
:0871850075480A0000D548FB23
:0F718D00C2B5027531E53D6401702FD2B5C299CC
:08719C007548140000D548FB02
:0871A4007599783099FDC2993C
:0871AC007548140000D548FBF2
:0671B400E4F5993099FD9D
:0871BA0075480A0000D548FBEE
:1071C200C2B5027531E53D64026003027271F54297
:1071D200F54320981DC3E5439488E5429413501269
:0871E20075480A0000D548FBC6
:1071EA000543E54370E4054280E0209803027039C4
:1071FA0085993EC298E4F53FE53E13B392B4E53E65
:10720A0025E0FEC3E49400EE94705029E53E7F0029
:10721A0025E0FEC39460501DE5B654F04408F5B667
:10722A00758F038E448F458545828E83E4F053B66D
:0C723A00F0F58F8003753FFFD2B5C299BC
:087246007548140000D548FB57
:08724E007599783099FDC29991
:087256007548140000D548FB47
:06725E00853F993099FD07
:0872640075480A0000D548FB43
:10726C00C2B5027531E53D6403600302739AF542C1
:10727C00F54320981DC3E5439488E54294135012BE
:08728C0075480A0000D548FB1B
:107294000543E54370E4054280E020980302703919
:1072A40085993EC298E4F542F54320981DC3E54311
:0872B4009488E5429413501286
:0872BC0075480A0000D548FBEB
:1072C4000543E54370E4054280E0209803027039E9
:1072D400859940C298E53E1392B4E53E25E0FEC38D
:1072E400E49400EE94704003027039E53E7D00257D
:1072F400E0FCC394604003027039E5B654F04408DE
:10730400F5B6758F01E54075F020A42DFFE5F03C3E
:10731400F5448F45E4F541E541C394205043E4F539
:1073240042F54320981DC3E5439488E542941350E5
:017334001246
:0873350075480A0000D548FB71
:10733D000543E54370E4054280E02098030270396F
:10734D000545E545AE447002054414F5828E83E58E
:10735D0099F0C298054180B653B6F0E4F58FD2B5D9
:02736D00C299C3
:08736F007548140000D548FB2D
:087377007599783099FDC29967
:08737F007548140000D548FB1D
:06738700E4F5993099FDC8
:08738D0075480A0000D548FB19
:10739500C2B5027531E53D64046003027436F542F9
:1073A500F54320981DC3E5439488E5429413501294
:0873B50075480A0000D548FBF1
:1073BD000543E54370E4054280E0209803027039EF
:1073CD0085993EC298E53E25E0F546754700E4F502
:1073DD003FF542F5430547E547AE467002054614B5
:1073ED00F5828E83E493253FF53F0543E543700217
:0E73FD0005427004E542640270DBD2B5C2990D
:08740B007548140000D548FB90
:087413007599783099FDC299CA
:08741B007548140000D548FB80
:06742300853F993099FD40
:0874290075480A0000D548FB7C
:10743100C2B5027531E53D64056003027529F54267
:10744100F54320981DC3E5439488E54294135012F7
:0874510075480A0000D548FB54
:107459000543E54370E4054280E020980302703952
:1074690085993EC298E4F542F54320981DC3E5434A
:087479009488E54294135012BF
:0874810075480A0000D548FB24
:107489000543E54370E4054280E020980302703922
:09749900859940C298D2B5C29950
:0874A2007548140000D548FBF9
:0874AA0075997F3099FDC2992C
:0874B2007548140000D548FBE9
:1074BA007599203099FDE53E25E0FCE54075F02000
:1074CA00A42400FFE5F03CF5468F47E4F53FF5417B
:0274DA00C29955
:0874DC007548140000D548FBBF
:1074E400854782854683E493F5993099FD0547E500
:1074F40047AE467002054614F5828E83E493253F19
:0B750400F53F0541E541B420CDC299E0
:08750F007548140000D548FB8B
:06751700853F993099FD4B
:08751D0075480A0000D548FB87
:10752500C2B58008E53DB4060375EF10E53D640777
:0A753500600302703978A6F6D2AFA9
:01753F002229
:101F5A007F0012238D200A0B7A007B327D017F00DD
:101F6A00122024300D0B7A007B1E7D017F00122087
:101F7A0024300817300E147A007B327D017888E607
:101F8A00FF122024C208121C52D20A200C0C300E56
:101F9A000978A676F1121C52D20C300F08300E05C1
:101FAA00C20F127000122401E47B2C7A01F9F8C3E3
:081FBA001205F15002D20E22C3
:0B241B001211BF121F5A12242F80F86C
:1016A400005EBCE2613FDD83C29C7E20A3FD1F413E
:1016B4009DC3217FFCA2401E5F01E3BD3E6082DC2E
:1016C400237D9FC1421CFEA0E1BF5D0380DE3C621E
:1016D400BEE0025CDF81633D7C22C09E1D43A1FF0E
:1016E4004618FAA427799BC584DA3866E5BB5907FE
:1016F400DB856739BAE406581947A5FB7826C49AEE
:10170400653BD987045AB8E6A7F91B45C6987A24DD
:10171400F8A6441A99C7257B3A6486D85B05E7B9CD
:101724008CD2306EEDB3510F4E10F2AC2F7193CDBD
:10173400114FADF3702ECC92D38D6F31B2EC0E50AD
:10174400AFF1134DCE90722C6D33D18F0C52B0EE9D
:10175400326C8ED0530DEFB1F0AE4C1291CF2D738D
:10176400CA947628ABF517490856B4EA6937D58B7D
:101774005709EBB536688AD495CB2977F4AA48166D
:10178400E9B7550B88D6346A2B7597C94A14F6A85D
:10179400742AC896154BA9F7B6E80A54D7896B354D
:0A17A40070B8DCEEF4F7FAFDFEFF6A
:03001100016C0A75
:101D6500E53DAB60AA61A96275F010A4F58285F026
:101D750083020409151EA81EEDF6151EA81EEFF612
:101D8500A81EE6FFC3940122A81EE6FF25E025E074
:101D950024B5F822A81EE625E025E024B3F822752F
:101DA500F010A429F9EA35F0FA90000D12068578AD
:101DB50087E622E56C75F064A4FFC3E56E9FE56DCB
:101DC50095F022EF25E025E024B2F822EF25E02565
:101DD500E024B4F8221204B22400FFE5F0346022B6
:071DE500151E151EA81E22A9
:101E7000121DE5ECF608EDF6151E121DE512067CA6
:061E8000E51E24FCF51E26
:101E8600F80808E4F6A81EF608F6E51E2407F9A8E1
:101E96001EE6FE08E6FFC3099719E76480F8EE64BC
:101EA60080985031E51E2404F81206638F828E83D3
:101EB600120409A81E080866FFE51E2403F8EFF6BB
:101EC600E69016A493A81E0808F6A81E0806E618AB
:0B1ED60070B80680B5A81E0808E6FFE3
:071EE100E51E2409F51E2295
:07000300ED6F9016A493FFBE
:01000A0022D3
:10234B00EF701E7598D0E589540F4420F58953C85A
:10235B00E1438E10ED9017A393F58DD28ED2ACC2C4
:03236B00BCD2AF32
:01236E00224C
:10220C00D2AFD2A9C2BBE589540F4401F589E4F5DC
:10221C008E758CDBF58AD28CF572F571F570F56FD5
:10222C00F576F575F574F573756B64FF121DC8E4DE
:10223C00F6EF121D9CE4F6121DD1E4F6EF121D917F
:06224C00E4F60FBF01E6FD
:012252002269
:021FC200151EEA
:101FC400A81EE4F6121D855054EF121D91E6FFD3AE
:101FD40094004032121D99E6702CEF30E00D121D72
:101FE4008DE6D3940140047D0180067D00A81EE6A1
:101FF400FF1222F4121D8D16E6600B121DD1E6FEAF
:10200400EF121D9CEEF6121D99E6600116121D8D4D
:0D201400E67004FD1222F4A81E06021FC88B
:03202100051E2277
:03000B00021DECE7
:101DEC00C0E0C0F0C083C082C0D0E8C0E0E9C0E071
:101DFC00EAC0E0EBC0E0ECC0E0EDC0E0EEC0E0EF2C
:101E0C00C0E0758CDCE5722401FFE43571FEE4352D
:101E1C0070FDE4356F8F728E718D70F56FD56B1B05
:101E2C00E5762401FFE43575FEE43574FDE4357385
:101E3C008F768E758D74F573756B64121FC21223B9
:101E4C00C0D0E0FFD0E0FED0E0FDD0E0FCD0E0FB65
:101E5C00D0E0FAD0E0F9D0E0F8D0D0D082D083D066
:041E6C00F0D0E032A0
:1023D400121D79500808E6FE121DC8EEF6051E050A
:0223E4001E22B7
:10202400121DE5EAF608EBF6121D79503EEF121D7B
:1020340091E67037A81EE6FB121D9CE6702DA81EC3
:1020440008E625E004FFA81EE6FA121D91EFF6A8A3
:102054001E0808E6FE08E6FF7C007D0A12047CEAFE
:10206400121DD2EFF6EB121D9CE4F6E51E2404F5D6
:022074001E222A
:1022F400121D795017121DC8E66011A81E08E67059
:10230400047F0180027F00A81E08EFF6A81EE67075
:0C2314000608E624FF92B4051E051E22F8
:0C240100C2AFAF72AE71AD70AC6FD2AF65
:01240D0022AC
:0C240E00C2AFAF76AE75AD74AC73D2AF48
:01241A00229F
:10238D00151EA81EEFF6A81EE67004F56DF56E304D
:0D239D001008121DB8500375FFA5051E2283
:10236F00D210E4F56DF56EEF6004F56C8003756CBB
:0E237F000A75FF0775FFA543B28075EF0922AE
:0E23E600C210E4F56DF56E75FFDE75FFAD22D9
:1023C000056EE56E7002056D301008121DB85003E1
:0423D00075FFA522CE
:042320008E778F78AD
:10232400E4F579F57AC3E57A9578E57995775016E9
:102334007FE87E031220767F0112238D057AE57AE9
:0623440070E3057980DF63
:01234A002270
:042076008E7B8F7C52
:10207A00D3E57C94FAE57B9400500AEFD3940040B0
:10208A003C001F80F6857B7D857C7ED3E57E94FAB5
:10209A00E57D940040157FFA7E00122076740625AD
:1020AA007EF57E74FF357DF57D80E0D3E57C940076
:0D20BA00E57B94004007AF7EAE7D122076DE
:0120C70022F6
:0821BC008B438A4489458D46DE
:1021C4007F0112238DAB47AA48A949121DDAFE8567
:1021D400434A85444B85454CE4FDEDC39546501B6D
:1021E400EF2DF582E43EF583E493AB4AAA4BA94C68
:1021F4008D827583001204480D80DFAB47AA48A97D
:0822040049E48546F00204DD07
:081CDD008B438A4489458D46C2
:101CE50078A6E664F170781223E6C2AFE5B654F043
:101CF5004408F5B6758F01AB47AA48A949121DDA04
:101D050078ABF608EFF6AB43AA44A94578AF1206BF
:101D15007CE478ADF678ADE6C39546502978AFE416
:101D250075F00112066C1203F078AEF6E6FF78AB9B
:101D35000806E618CCE6CC70010614F5828C83EF14
:101D4500F078AD0680CFE4F58F53B6F0AB47AA48DF
:0F1D5500A9498546F01204DDD2AFE4FF12236FD7
:011D6400225C
:1020C80078A6E664F1704AC2AF1223E6E5B654F08A
:1020D8004408F5B6758F0378AC7660087600E47826
:1020E800ABF678ACE6FE08E6F5828E83E4F07F0175
:1020F80012238D78ADE426F618740236F61806E633
:10210800C3940840DDE4F58F53B6F0D2AFFF122335
:012118006F57
:0121190022A3
:101C52001220C8E4F541F542F5477548007549413F
:101C6200FB7A0079087D16121CDD121CC1F53EE5D7
:101C72003EC3781F965041E4F53D121D656035E57F
:101C82003D121DA4853EF0A429F9EA35F0FAEBC015
:101C9200E0EAC0E0E9C0E0121D65FD754700754845
:101CA20000754941D0E0F9D0E0FAD0E0FB121CDD2A
:0E1CB200053D80C6053E80B7121CC178A6F61F
:101CC00022753F12754034754700754800754941CB
:0D1CD0007B007A00793F7D02121CDDE422CA
:101B1C00E4F541F542F53EF547754800754941FB42
:101B2C007A0079087D161221BC121BAD7004E53FBA
:101B3C0064127003433E01E4F53DE53DC3781F9606
:101B4C00504EE4F53CE53C121D676040E53C121D2F
:101B5C00A4853DF0A429F9EA35F0FAEBC0E0EAC01F
:101B6C00E0E9C0E0AB60AA61A96275F010E53C1237
:101B7C001D70FD754700754800754941D0E0F9D0DE
:101B8C00E0FAD0E0FB1221BC053C80B9053D80AAEF
:101B9C00121BAD7004E53F64127003433E02AF3E6E
:101BAC00227547007548007549417B007A00793FE2
:0A1BBC007D021221BCE540643422D2
:100E17005343532D34303000020800000244656DFF
:100E2700616E643000010000020800000244656D35
:100E3700616E643100010002020800000244656D22
:100E4700616E643200010004020800000244656D0F
:100E5700616E643300010006020800000244656DFC
:100E6700616E643400010008020800000244656DE9
:100E7700616E64350001000A020800000244656DD6
:100E8700616E64360001000C020800000244656DC3
:100E9700616E64370001000E040800000154656D9F
:100EA7007030000000010010040800000154656D57
:100EB7007031000000010014040800000154656D42
:100EC7007032000000010018040800000154656D2D
:100ED700703300000001001C040800000154656D18
:100EE7007034000000010020040800000154656D03
:100EF7007035000000010024040800000154656DEE
:100F07007036000000010028040800000154656DD8
:100F1700703700000001002C045A00000143507292
:100F27006F70300000010030045A00000143507216
:100F37006F70310000010034045A00000143507201
:100F47006F70320000010038045A000001435072EC
:100F57006F7033000001003C045A000001435072D7
:100F67006F70340000010040045A000001435072C2
:100F77006F70350000010044045A000001435072AD
:100F87006F70360000010048045A00000143507298
:100F97006F7037000001004C045A00000143496E8E
:100FA7007430000000010050045A00000143496EEC
:100FB7007431000000010054045A00000143496ED7
:100FC7007432000000010058045A00000143496EC2
:100FD700743300000001005C045A00000143496EAD
:100FE7007434000000010060045A00000143496E98
:100FF7007435000000010064045A00000143496E83
:101007007436000000010068045A00000143496E6D
:10101700743700000001006C045A00000150496E4B
:101027007430000000010070045A00000150496E3E
:101037007431000000010074045A00000150496E29
:101047007432000000010078045A00000150496E14
:10105700743300000001007C045A00000150496EFF
:101067007434000000010080045A00000150496EEA
:101077007435000000010084045A00000150496ED5
:101087007436000000010088045A00000150496EC0
:10109700743700000001008C045A000001506F777C
:1010A7006572300000010090045A000001506F770C
:1010B7006572310000010094045A000001506F77F7
:1010C7006572320000010098045A000001506F77E2
:1010D700657233000001009C045A000001506F77CD
:1010E70065723400000100A0045A000001506F77B8
:1010F70065723500000100A4045A000001506F77A3
:1011070065723600000100A8045A000001506F778D
:1011170065723700000100AC02080000024F6673D9
:1011270030000000000100B002080000024F6673A3
:1011370031000000000100B202080000024F667390
:1011470032000000000100B402080000024F66737D
:1011570033000000000100B602080000024F66736A
:1011670034000000000100B802080000024F667357
:1011770035000000000100BA02080000024F667344
:1011870036000000000100BC02080000024F667331
:1011970037000000000100BE020300000050657226
:1011A700696F6400000100C000000000000000003B
:0811B700000000000000000030
:0E001400011F010360FF0E1F014D000152008D
:10199700E53825E025E02490F582E43400F583223C
:1019A700E53825E025E02470F582E43400F583224C
:1019B700E53825E02400F582E43400F583E0FCA354
:1019C700E0FDEC120336E53825E025E02410F5822A
:1019D700E43400F58312060E120029E53825E025C8
:1019E700E022E4FFFEAB3CAA3BA93AA83922120643
:1019F70002E4FBFA79C8784222AF387401C8EFC80D
:101A07000822AB40AA3FA93EA83DC30205F1C8EC96
:101A1700C8C9EDC9CAEECACBEFCB228F5A8E598DF2
:101A2700588C57E4F53822AB3CAA3BA93AA83902AF
:101A370002C4120602E4FBFAF9F80202C42430F5E4
:101A470082E43400F583222450F582E43400F583E0
:071A57002212060202036FD8
:101EE800E4F5BA75BCE075E88075D10375D48075E2
:101EF800D78075A5FFEF6059E4FBEB12199912061C
:101F080032000000000BBB08F1E4FBEB25E02400E5
:101F1800F582E43400F583E4F0A3F0EB25E025E056
:101F2800121A441206323F800000EB25E025E01229
:101F38001A4E1206323DCCCCCDEB1219A91206323C
:101F4800000000009000C0E4F0A3743CF00BBB0854
:011F5800BACE
:011F59002265
:09242600151EA81EEFF6051E228A
:05243D008F327F002238
:1022C7008B328A3389341203F0AB35AA36A9371219
:1022D7000436AB32AA33A934900001120409AB3596
:0D22E700AA36A9379000011204487F022298
:1017AE00E5527017E54D045407F54D540FF5BB7512
:1017BE00BCE0E4F551F550F54FF54EE4F538C2AF07
:1017CE00C2EDD2EC30EDFDD2AFAFBFEFFEADBEED50
:1017DE00FFE4FCFDE5512FFFE5503EFEED354FFDDC
:1017EE00EC354E8F518E508D4FF54E121F5A0538D7
:1017FE00E538C3941040C70552E55260030218A3A2
:10180E00AF51AE50AD4FAC4EFB7A01F9F812055107
:10181E008F518E508D4F8C4EE4120331E4FBFA79CA
:10182E00807847120227E4FBFA79FA784312011EF8
:10183E008F3C8E3B8D3A8C39AB3CAA3BA93AA839EA
:10184E00E8C0E0E9C0E0EAC0E0EBC0E0E54D25E02D
:10185E0024B0F582E43400F583E0FCA3E0FDEC1245
:10186E0003361219F8120227D0E0FBD0E0FAD0E0CE
:10187E00F9D0E0F812002D8F3C8E3B8D3A8C39C298
:10188E00AFE54D25E025E02410F582E43400F58324
:05189E00120626D2AF86
:0118A3002222
:10155000122401AB5AAA59A958A857C31205F17011
:101560000302168F122401121A221219971219F56A
:101570001202C46002500302162D1216908F408E84
:101580003F8D3EF53D121997121A58121A09500351
:1015900002162D121997121A58E4120331121A1555
:1015A0001219971206021200298F3C8E3B8D3A8C3D
:1015B00039E4FFFEFDFC121A2E6018121997121A58
:1015C00058EF2401FFE43EFEE43DFDE43CFC121A2A
:1015D00009400B121A008002C333D8FC8044E55F37
:1015E000D39400404274632538F8E6FCE412033BD0
:1015F000ECC0E0EDC0E0EEC0E0EFC0E0AC5FE412B4
:10160000033B121A15D0E0FFD0E0FED0E0FDD0E0A1
:10161000FC120227121A2E500E121A008002C33337
:10162000D8FCF45290800674632538F8060538E536
:1016300038C39408500302156A121690FCE47B64C8
:10164000FAF9F8D31205F150461224018F568E553F
:101650008D548C53121A22121997121A39500B12E8
:101660001A008002C333D8FC42900538E538B4082C
:10167000E6E55F0475F00A8485F05FE55F7010F5BC
:0F1680003874632538F8E4F60538E538B408F215
:10168F0022122401C3EF9556FFEE9555FEED9554AA
:05169F00FDEC95532253
:1013E4009000C0E07002A3E0700302154F122401C4
:1013F400ECC0E0EDC0E0EEC0E0EFC0E09000C0E083
:10140400FEA3E0FF7C007D6412046AEF255EFBEE20
:10141400355DFAE4355CF9EC355BF8D0E0FFD0E0FB
:10142400FED0E0FDD0E0FCC31205F1400302154FED
:101434001224018F5E8E5D8D5C8C5BE4F53812198D
:10144400A7C083C08212060EE8C0E0E9C0E0EAC08B
:10145400E0EBC0E01219B7121A4E12060E12011E6A
:10146400D0E0FBD0E0FAD0E0F9D0E0F812002DD0C3
:1014740082D0831206261219A7121A39600C400A68
:101484001219A7120632000000001219A71219F54A
:101494001202C4500A1219A712063242C8000012DE
:1014A40019A71206028F3C8E3B8D3A8C391219EC27
:1014B400E8C0E0E9C0E0EAC0E0EBC0E01219B7120E
:1014C4001A4412060E12011ED0E0FBD0E0FAD0E05E
:1014D400F9D0E0F812002D8F3C8E3B8D3A8C39E424
:1014E400FFFEFDFC1219EC1202C45009E4F53CF5B0
:1014F4003BF53AF5397DC87C421219E91202C46001
:101504000D400BE4F53CF53B753AC87539427D2036
:101514007C411219E912011EE4FBFAF9783F12002A
:101524002D12036FCDEFCDCCEECCEC120336E4FBE1
:10153400FA79207841120227E53812199912062601
:0B1544000538E538640860030214421B
:01154F002279
:09242F001217AE1213E40215505D
:100026000203DBE86480F8E933E83360110460F02A
:10003600ED33EC337009E8FCE9FDEAFEEBFF220440
:1000460060DED3EB9FEA9EE99DE8C2E78CF0C2F73B
:1000560095F0400CE8CCF8E9CDF9EACEFAEBCFFB07
:100066001203A685D0F05804700320D5B3E80470B7
:10007600075002B2D50203E592D5EC0460F7E4CC52
:10008600C0E0C398F8603B94186008400DD0E0FBD0
:100096000203BDE4FBFAC9FC8028E830E406E4C9A3
:1000A600FBE4CAFCE830E305E4C9CACBFCE8540724
:1000B6006010F8C3E913F9EA13FAEB13FBEC13FC2F
:1000C600D8F130F52FC3E49CFCEF9BFFEE9AFEEDD2
:1000D60099FDD0E0FBEF4E4D4C701222DB0302037C
:1000E600E2EC2CFCEF33FFEE33FEED33FDED30E7B3
:1000F600EB0203BDEF2BFFEE3AFEED39FDD0E0FB40
:1001060050130BBB00030203E5ED13FDEE13FEEFE8
:0801160013FFEC13FC0203BD12
:10011E00EC4D6011E8497017ED33EC3304600DE4DB
:10012E00FCFFFEFD22E933E8330470F80203DB1214
:10013E0003A658046009E4CC248150062850090215
:10014E0003E52840030203E2C0E0EB4A7044B980A5
:10015E0006D0E0FB0203D1EF4E701CBD8008EBFF12
:10016E00EAFEE9FD80EBE98DF0A4FEE5F002020760
:10017E00E9CDF9EAFEEBFFEF89F0A4FCE5F0CE89BC
:10018E00F0A42EFFE435F0CD89F0A42DFEE435F079
:10019E008067EF4E7005BD80D780C3EF8BF0A4ACA7
:1001AE00F0EE8BF0A42CFCE435F0F8EF8AF0A42CE2
:1001BE00E5F038FCE433CB8DF0A42CFCE5F03BF8F5
:1001CE00EE8AF0A42CFCE5F038F8E433CF89F0A4E5
:1001DE002CFCE5F038CF3400CE89F0A42FFFE5F0EB
:1001EE003EFEE433C98DF0A42EFEE5F039CD8AF043
:1001FE00A42FFFE5F03EFEE43DFD33D0E0FB5007BB
:10020E000BBB000F0203E5EC2CFCEF33FFEE33FECD
:06021E00ED33FD0203BDFB
:100224000203E5EC5D046005E8590470030203DB96
:100234001203A6580460F6EC4860F2EC7004FDFE6C
:10024400FF22C860DB2481C85009C39860025006AD
:100254000203E29850CAF582E9294B4A7005AB8241
:100264000203D175F0007C1A7880C3EF9BEE9AEDFF
:1002740099400DC3EF9BFFEE9AFEED99FDE842F025
:10028400DC23ACF0D0E0FFD0E0FED0E0FDAB822078
:10029400E7101BEB60BAEC2CFCEF33FFEE33FEED02
:1002A40033FD0203BDE803F830E705C0F075F00044
:1002B400EF2FFFEE33FEED33FD40B830E7C280AAE6
:1002C40074F8CC6480CCC86480C8F582046043C3ED
:1002D400EB9FF5F0EA9E42F0E99D42F0E89C45F080
:1002E40060305018E5825FFFE582F42B5582FB50A5
:1002F400210ABA001D09B90019088016E5825BFBC2
:10030400E582F42F5582FF50090EBE00050DBD0095
:10031400010CC3EB9FF5F0EA9E42F0E99D42F0E840
:0D0324009C45F06007CC4820E701B3EC22B7
:1003310075F020800E75F010800575F0087D007E47
:10034100007F003392D530D5031205E3EC33401022
:10035100EF33FFEE33FEED33FDEC33FCD5F0ED2250
:0E036100E5F0247EA2D513CC92E7CDCEFF228C
:10036F00EDD2E7CD33EC3392D524814006E4FFFE86
:10037F00FDFC22FCE4CFCECDCC24E0501174FF80E5
:10038F00EDC3CC13CCCD13CDCE13CECF13CF047082
:07039F00F030D5DE0205E39A
:1003A600E9D2E7C933E833F892D5EDD2E7CD33EC9D
:0703B60033FC5002B2D52216
:1003BD00EC30E7100FBF000C0EBE00080DBD0004A1
:1003CD000BEB6014A2D5EB13FCED92E7FD2274FF4D
:1003DD00FCFDFEFF22E480F8A2D574FF13FC7D80A6
:0303ED00E480EFBA
:03000000021BC61A
:0C1BC600787FE4F6D8FD7581B5021C0D97
:1003F000BB010689828A83E0225002E722BBFE020B
:09040000E32289828A83E493223D
:10040900BB010CE58229F582E5833AF583E02250A8
:1004190006E92582F8E622BBFE06E92582F8E222F2
:0D042900E58229F582E5833AF583E493220C
:10043600BB010689828A83F0225002F722BBFE01A5
:02044600F3229F
:10044800F8BB010DE58229F582E5833AF583E8F0EA
:10045800225006E92582C8F622BBFE05E92582C896
:02046800F2227E
:10046A00EF8DF0A4A8F0CF8CF0A428CE8DF0A42EA6
:02047A00FE2260
:10047C00C2D5EC30E709B2D5E4C39DFDE49CFCEE9B
:10048C0030E715B2D5E4C39FFFE49EFE120707C305
:10049C00E49DFDE49CFC800312070730D507C3E400
:0604AC009FFFE49EFE220A
:1004B200BB010A89828A83E0F5F0A3E02250068715
:1004C200F009E71922BBFE07E3F5F009E3192289D7
:0B04D200828A83E493F5F0740193220A
:1004DD00BB010789828A8302075C500B09C5F0278F
:1004ED00F7C5F01937F722BBFE0D09F8E325F0F338
:1004FD00C5F019E338F322F889828A8374019325B4
:08050D00F0C5F0F8E493382278
:1005150075F008758200EF2FFFEE33FECD33CDCC9D
:1005250033CCC58233C5829BED9AEC99E582984020
:100535000CF582EE9BFEED9AFDEC99FC0FD5F0D6FD
:10054500E4CEFBE4CDFAE4CCF9A88222B800C1B927
:100555000059BA002DEC8BF084CFCECDFCE5F0CB65
:10056500F97818EF2FFFEE33FEED33FDEC33FCEB9E
:1005750033FB10D703994004EB99FB0FD8E5E4F959
:10058500FA227818EF2FFFEE33FEED33FDEC33FC46
:10059500C933C910D7059BE99A4007EC9BFCE99A3A
:1005A500F90FD8E0E4C9FAE4CCFB2275F010EF2F7F
:1005B500FFEE33FEED33FDCC33CCC833C810D7077F
:1005C5009BEC9AE899400AED9BFDEC9AFCE899F8BA
:0E05D5000FD5F0DAE4CDFBE4CCFAE4C8F9224D
:0E05E300C3E49FFFE49EFEE49DFDE49CFC2229
:1005F100EB9FF5F0EA9E42F0E99D42F0E89C45F060
:0106010022D6
:0C060200E0FCA3E0FDA3E0FEA3E0FF226B
:0C060E00E0F8A3E0F9A3E0FAA3E0FB226F
:0C061A00ECF608EDF608EEF608EFF6220C
:0C062600ECF0A3EDF0A3EEF0A3EFF02247
:10063200A8828583F0D083D082120649120649121D
:100642000649120649E473E493A3C583C5F0C58342
:10065200C8C582C8F0A3C583C5F0C583C8C582C812
:010662002275
:09066300E6FB08E6FA08E6F922BC
:10066C00FAE6FB0808E6F925F0F618E6CA3AF6228F
:09067C00EBF608EAF608E9F622A3
:10068500BB010DE58229F582E5833AF58302077200
:100695005007E92582F8020663BBFE07E92582F8C3
:1006A50002077BE58229F582E5833AF58302078413
:1006B500D083D082F8E4937012740193700DA3A3D4
:1006C50093F8740193F5828883E4737402936860E8
:0606D500EFA3A3A380DFE8
:10211A008B3C8A3D893EE4F544F545E5431543AEDB
:10212A0042700215424E6033AB3FAA40A9411203E6
:10213A00F0FFAB3CAA3DA93E0545E545AC4470021B
:10214A00054414F5828C83EF120448EF60CD7401C4
:10215A002541F541E43540F54080C0AB3CAA3DA994
:02216A003E2213
:1006DB00EF4E6012EF60010EEDBB010B89828A8336
:1006EB00F0A3DFFCDEFA2289F05007F709DFFCA943
:0C06FB00F022BBFEFCF309DFFCA9F0229A
:101BD20002241BE493A3F8E493A34003F68001F2EA
:101BE20008DFF48029E493A3F85407240CC8C33314
:101BF200C4540F4420C8834004F456800146F6DFE3
:101C0200E4800B010204081020408090000EE47E64
:101C1200019360BCA3FF543F30E509541FFEE493D7
:101C2200A360010ECF54C025E060A840B8E493A39E
:101C3200FAE493A3F8E493A3C8C582C8CAC583CAC9
:101C4200F0A3C8C582C8CAC583CADFE9DEE780BE81
:0100220000DD
:10070700BC000BBE0029EF8DF084FFADF022E4CCD6
:10071700F875F008EF2FFFEE33FEEC33FCEE9DEC9F
:10072700984005FCEE9DFE0FD5F0E9E4CEFD22EDE5
:10073700F8F5F0EE8420D21CFEADF075F008EF2F2F
:10074700FFED33FD4007985006D5F0F222C398FD20
:050757000FD5F0EA22BD
:10075C00C5F0F8A3E028F0C5F0F8E5821582700228
:06076C001583E038F022C5
:09077200E0FBA3E0FAA3E0F92288
:09077B00E2FB08E2FA08E2F922AF
:0C078400E493FB740193FA740293F922D1
:00000001FF
