:1043BF0020202020557067726164696E670020208D
:0E43CF0020204669726D776172652E2E2E00D9
:103FF80001A7000164FF4200E8FFFF4400EA000057
:024008000000B6
:10265200E478A7F675FFDE75FFAD75840F75A4F5F6
:1026620075A5BFF5A675A7FF75E104F5E275E3440C
:10267200F58475B7B075840F438901758D01758F27
:1026820001758E04F537F5380538E53870020537DF
:10269200640F453770F2438902E58930E4FB758A9D
:1026A2008375970275FFDE75FFADE4F58475EF045F
:1026B200123F03E4F537F5387D01AF3812430B05BD
:1026C20038E53870020537C39403E537940040E8D3
:1026D200E4F520C217C213C21AC215D216C219C219
:1026E20018C2857885F67883F618F67889F6F53774
:1026F200F538748B2538F8E4F60538E538700205AC
:10270200376414453770EBE4F537F538749F253894
:10271200F8E4F60538E53870020537640845377085
:10272200EB12443A7D08E4FF1240947D087F0112C7
:102732004094123BEDE47888F67880F67880E6FFE4
:1027420075F01FA42408F582E5F03419F583E493AB
:10275200FE788826F6EE600578800680DFEFD39457
:1027620000402A901915E493FB740193FA740293C2
:10277200F9745512074E12070864556002D2187494
:10278200AA12074E12070864AA6002D2181237442E
:10279200EF6003022882C21674FFF565F566F567DD
:1027A200F568E4F569F56AFE7F10FDFB7A00796B46
:1027B2001209967545FF7546187547FF75480075ED
:1027C20049107B007A00796B123F55E4F537F538F2
:1027D20090190875F01FE538120924E53775F01FC6
:1027E200A42583F583E493700302287B90190C756A
:1027F200F01FE538120924E53775F01FA42583F58B
:1028020083E49320E268E4F536E536C378B4965063
:102812005D90190875F01FE538120924E53775F047
:102822001FA42583F583E493FF7E00C006C0077DC5
:102832000090191575F01FE538120924E53775F077
:102842001FA42583F583E493FB740193FA74029326
:10285200F97888E68536F0A4FFE92FF9EA35F0FA2F
:10286200D007D00612099612443A0536809B0538E5
:10287200E538700205370227D27F01122CDA801662
:10288200D216E4FF122CDAE5EF30E30AD203056A2E
:10289200E56A70020569E4F537F5387A007B967DC2
:1028A20003AF38123B740538E53870020537C3941C
:0728B20003E537940040E448
:0128B90022FC
:054430007889E6FF227F
:030023000234FBA9
:1034FB00C0E0C0F0C083C082C0D075D00830992C1A
:10350B00C2997883067983E778856670097883F6A4
:06351B00D214C2858016E7
:0D35210075261475270900D527FCD526F660
:10352E007883E6249FF8E6F5992098030235C520A6
:10353E009A07201704C298807AC29A7882E60624E7
:10354E008BF8A699C2987882E6FFB40113788BE6C1
:10355E00FE70057882F6805FEE54072402788AF6B4
:10356E00EFB4020E788AE6B40908788CE624037963
:10357E008AF77882E6FFB414047600803AEFC378B7
:10358E008A9640337882E624FFFDE434FFFC7B000C
:10359E007A00798B123A5C7882E6248AF8E66F60BC
:0335AE0002801088
:0D35B10075261475270900D527FCD526F6D0
:1035BE001212E378827600D0D0D082D083D0F0D0B1
:0235CE00E032E9
:103C64007889E6FF18E68FF0A47C00252AFFEC355E
:103C7400F0FE788CE675F01FA42415F582E5F03487
:103C840019F583E493FB740193FA740293F98F8218
:083C94008E83120721FF7D2839
:103C9C008F308D31E4F584E5316010F8E6FFE530C6
:0B3CAC00FD7C00120003A831C6EFC62B
:0D3CB70075321475330900D533FCD532F693
:093CC4008530993099FDC2992266
:0B43A100E4F5847885EFF6C214D285A5
:0D43AC0075301475310900D531FCD530F69F
:0643B900789FE6F5992251
:10425900C9EFC9EDC39B402378B4E6FFEB2FFFE418
:1042690033FEEDC39FEE6480F8748098500DD21729
:10427900C3ED9B7889F67884E9F622C217E478843D
:02428900F6221B
:10417200C9EFC9BAFF0FBBFF0CED6B7002EC6A709E
:1041820027D217801BC3ED9BEC9A401C78B4E62B18
:10419200FFE43AFEC3ED9FEC9E500DD217C3ED9B98
:0F41A2007889F67884E9F622C217E47884F62249
:1012E300788BE6FF54F8F529E4F584EF12097013BF
:1012F3002C0913370A134610134D11135C12136F85
:101303001913831A13A22013A72814112914C834FC
:1013130014EB37151D39152C41153549153E50155C
:1013230053611542980000157E788CE6FDE566FB57
:101333007F01801F788CE6FC08E6FDAB66AA657F1B
:10134300018023E4FBFD7F038009788CE6FDE568DB
:10135300FB7F0212425902157E788CE6FC08E6FDFB
:10136300AB68AA677F0212417202157E788CE6FD94
:10137300E566FB7F0112425920170302157E801692
:10138300788CE6FC08E6FDAB66AA657F0112417224
:1013930020170302157E789F76787F0102157BD292
:1013A3001502157EC2ACE4F528D2857D287F7F1215
:1013B3003C9C7D287F18123C9C7D287F19123C9C05
:1013C3007880E6FF7D28123C9C7D28AF65123C9C0B
:1013D3007D28AF66123C9C7D28AF67123C9C7D281C
:1013E300AF68123C9C7D28AF69123C9C7D28AF6A94
:1013F300123C9CE4F52A746B252AF8E6FF7D28123B
:101403003C9C052AE52AC3941040EB0214BA788C5D
:10141300E6FFC3788096400302157E75F01FEFA4A4
:101423002408F582E5F03419AF82F52E8F2FC2AC74
:10143300E4F528D2857D287F7F123C9C7D287F0D93
:10144300123C9C852F82852E83E493FF7D28123CDA
:101453009C852F82852E83740193FF7D28123C9CEB
:10146300852F82852E83740293FF7D28123C9C85F1
:101473002F82852E83740393FF7D28123C9C852F36
:1014830082852E83740493FF7D28123C9CE4F52A05
:10149300E52F2405F582E4352EF583E582252AF52B
:1014A30082E43583F583E493FF7D28123C9C052A6F
:1014B300E52AC3940840D9E4FDAF28123C9CC285B9
:1014C300D2AC02157E7A007B327D017889E6FF1269
:1014D3003B74788CE6F56508E6F56608E6F567087B
:1014E300E6F568D21302157E7A007B327D01788996
:1014F300E6FF123B74E4F52AE52AC3788C9650166E
:10150300748D252AF8E6FF746B252AF8C6EFC60505
:101513002AE52AB410E2D21380617A007B327D017E
:101523007889E6FF123B748052788CE624FF92029E
:101533008049788CE624FF92018040D21A803C7A5D
:10154300007B327D017889E6FF123B74D213802B36
:101553007A007B327D017F00123B74789F76797825
:101563008CE678A0F67C007D027B007A00799F12DE
:101573003A5C78A1EFF67F031243A1E52964A060EA
:101583000302170E788BE664A1600302164A08E68D
:10159300FFC3788096400302170E75F01FEFA42453
:1015A30008F582E5F03419F583E493F52C75F01F03
:1015B300EFA4240CF582E5F03419F583E49330E2CB
:1015C3002F1244358F2C789F767F08A62CE52C2488
:1015D30002FDE433FC7B007A00799F123A5C74A12C
:1015E300252CF8EFF6E52C2403FF1243A102170E76
:1015F300788CE6FF124435C2ACE4F528D285E52C9D
:10160300D3940640247D287F7F123C9C7D28AF2CF9
:10161300123C9CE4F52AE52AC3952C5007123C643E
:10162300052A80F2052C021703E52C2478FF7D2878
:10163300123C9CE4F52AE52AC3952C5007123C641E
:10164300052A80F2021703788BE664A2600302176F
:101653000E7880E6FF788CE6FEC39F400302170EE8
:1016630008E6FDC39F400302170EEEC39D4003022D
:10167300170E18E6F52AE4F52CE52AD3788D965053
:101683001FAF2A12443575F01FE52AA42408F582FA
:10169300E5F03419F583E493252CF52C052A80D93C
:1016A300C2ACE4F528D2857D287F7F123C9C7D283F
:1016B300AF2C123C9C788CE6F52AE52AD3788D96DC
:1016C300503EE4F52B75F01FE52AA42408F582E5C6
:1016D300F03419F583E493FFE52BC39F501E7889FB
:1016E300E6FF18E68FF0A47C00252BFFEC35F0FE17
:1016F30075F01FE52A123C7C052B80C9052A80BAA8
:10170300E4FDAF28123C9CC285D2ACE52964587035
:1017130047FA7B327D017889E6FF123B747533000B
:101723007534007535A07B007A00798C12428B8F5B
:101733002CE52C2478789FF6E52C2401FDE433FC7A
:101743007B007A00799F123A5C74A0252CF8EFF69F
:10175300E52C2402FF1243A1E52964806009E529F1
:10176300648860030218B57A007B327D017889E6CC
:10177300FF123B74788BE65407F52CB4070A752BDC
:101783000108E6F52C088005E4F52B788CE6F52DA9
:10179300152CE52DC3788096400302189375F01F2E
:1017A300E52DA42408F582E5F03419F583E493FFCD
:1017B300E52CD39F40028F2CE4F52AE52AC3952C10
:1017C300400302186E75F01FE52DA4240CF582E585
:1017D300F03419F583E49330E20302186975F01FBE
:1017E300E52DA42409F582E5F03419F583E4936427
:1017F30038701BE52CD394044008E52B252A248D4F
:10180300802A7882E6C3952AFF74892F801E75F09B
:101813001FE52DA42408F582E5F03419F583E4933C
:10182300FFC37882E69F252A252B248AF8E6FD78D4
:1018330089E6FF18E68FF0A4FFE52A7A002FFFEA76
:1018430035F0FE75F01FE52DA42415F582E5F0347F
:1018530019F583E493FB740193FA740293F98F826D
:101863008E83ED120760052A0217BEAF2D122E825A
:1018730075F01FE52DA4240CF582E5F03419F583EA
:10188300E49330E503852D64E52964887024800F93
:10189300E52DB4FF1D788DE6F520E529B48813788E
:1018A3009F76787882E6248AF8E678A0F67F02129B
:0218B30043A14F
:0118B5002210
:103D330075F01FA42424F582E5F03419F583E49388
:053D4300FE740193FF76
:103D48008E498F4A9000E8E065497004A3E0654A0F
:103D5800603A9000DE740AF0E549A3F0E54AA3F062
:103D68007C007D037B017A0079DE123A5C9000E1E9
:103D7800EFF07B017A0079DE7550017D047C00123A
:0D3D880040469000E8E549F0A3E54AF0222E
:033FA700CCEECC91
:103FAA009000DE741AF0A3ECF0EFA3F07C007D031E
:103FBA007B017A0079DE123A5C9000E1EFF07B0136
:103FCA007A0079DE7550017D047C001240467B013F
:103FDA007A0079DE7D0A7C001239C7EF7002FF226F
:0D3FEA009000DEE0647860037F00227F011C
:013FF70022A7
:1040E10075F01FEFA42408F582E5F03419F583E497
:1040F10093FD7C00ECC0E0EDC0E075F01FEFA4245F
:1041010015F582E5F03419F583E493FB740193FA14
:10411100740293F97D00D0E0FFD0E0FE1209967A97
:0A412100007B327D017F01023B7438
:1031A400124405C8ECC8C9EDC9CAEECACBEFCB902E
:1031B40000EAE0FCA3E0FDA3E0FEA3E0240AFFE4B0
:1031C4003EFEE43DFDE43CFCD312082950030232E8
:1031D400F41244059000EA1208E7E4F547E547C312
:1031E40078809640030232F475F01FE547A4240C5E
:1031F400F582E5F03419F583E49320E4030232EF19
:10320400E547123D339000DE74A1F075F01FE547E9
:10321400A42426F582E5F03419F583E4939000DFC5
:10322400F07C007D027B017A0079DE123A5C90002A
:10323400E0EFF07B017A0079DEE4F5507D03FC12C7
:1032440040467B017A0079DE7D0A7C001239C78F03
:1032540048E548C394025002804BE5482476FF9029
:1032640000DEE06F6002803D75F01FE547A424088E
:10327400F582E5F03419F583E493FFE54824FE6F05
:1032840060028021E54824FFFDE434FFFC7B017AE1
:103294000079DE123A5C74DD2548F582E43400F5E9
:1032A40083E06F6007AF471240E1803F75F01FE590
:1032B40047A42408F582E5F03419F583E493FF7EEE
:1032C4000075F01FE547A42415F582E5F03419F5DF
:1032D40083E493FB740193FA740293F8CCEACCCDA3
:1032E400EBCD7B017A0079DF1206E205470231E17A
:0132F40022B7
:023897008F4759
:10389900EF123D3375F01FE547A42408F582E5F0E2
:1038A9003419F583E493F54824819000DEF075F02E
:1038B9001FE547A42426F582E5F03419F583E4933E
:1038C9009000DFF0AF487E0075F01FE547A424158E
:1038D900F582E5F03419F583E493FB740193FA74E6
:1038E9000293F978E07C007D011206E2E5482402A2
:1038F900FDE433FC7B017A0079DE123A5C74E02541
:1039090048F582E43400F583EFF07B017A0079DE33
:10391900E5482403FDE433FCE4F5501240467A00FF
:093929007B327D017F01023B7439
:10700000C2AF75FFDE75FFADE4F548F547E4F584E2
:1070100020982EE4F54CF54D209822C3E54D948838
:06702000E54C941350172B
:0D70260075520A75530900D553FCD552F67A
:10703300054DE54D70DF054C80DBB2A080CF85990F
:1070430047C298E54724E6602A2419B406004003A2
:107053000274E690706475F003A4C58325F0C583BC
:107063007302713102716202720E0273440273DFA2
:107073000274E0E4F54CF54D209822C3E54D948865
:06708300E54C94135017C8
:0D70890075520A75530900D553FCD552F617
:10709600054DE54D70DF054C80DB20980302700D31
:1070A600859948C298E4F54CF54D209822C3E54DE4
:0870B6009488E54C9413501777
:0D70BE0075520A75530900D553FCD552F6E2
:1070CB00054DE54D70DF054C80DB20980302700DFC
:1070DB00859948C298E4F54CF54D209822C3E54DAF
:0870EB009488E54C9413501742
:0D70F30075520A75530900D553FCD552F6AD
:10710000054DE54D70DF054C80DB20980302700DC6
:09711000859948C298D285C29904
:0D71190075521475530900D553FCD552F67C
:0F7126007599783099FDC2850274E6D285C299B9
:0D71350075521475530900D553FCD552F660
:087142007599783099FDC2999E
:0D714A0075521475530900D553FCD552F64B
:10715700E4F5993099FDC2850274E6E4F54CF54DE6
:0E716700209822C3E54D9488E54C94135017F0
:0D71750075520A75530900D553FCD552F62A
:10718200054DE54D70DF054C80DB20980302700D44
:10719200859948C298E4F549E5481392A0E5482547
:1071A200E0FEC3E49400EE9470502AE5487F002587
:1071B200E0FEC39460501EE54820E01FE4F58443DE
:1071C200B701758F038E4E8F4F8F828E83F053B728
:0F71D200F0F58F80037549FFE4F584D285C299EB
:0D71E10075521475530900D553FCD552F6B4
:0871EE007599783099FDC299F2
:0D71F60075521475530900D553FCD552F69F
:107203008549993099FDC2850274E6E4F54CF54D44
:0E721300209822C3E54D9488E54C9413501743
:0D72210075520A75530900D553FCD552F67D
:10722E00054DE54D70DF054C80DB20980302700D97
:10723E00859948C298E4F54CF54D209822C3E54D4A
:08724E009488E54C94135017DD
:0D72560075520A75530900D553FCD552F648
:10726300054DE54D70DF054C80DB20980302700D62
:1072730085994AC298E5481392A0E54825E0FEC3E4
:10728300E49400EE9470400302700DE5487D002500
:10729300E0FCC39460400302700DE4F58443B7013E
:1072A300758F01E54A75F020A42DFFE5F03CF54EFE
:1072B3008F4FE4F584F54BE54BC394205048E4F538
:1072C3004CF54D209822C3E54D9488E54C9413501A
:0172D30017A3
:0D72D40075520A75530900D553FCD552F6CA
:1072E100054DE54D70DF054C80DB20980302700DE4
:1072F100054FE54FAE4E7002054E14F5828E83E5C3
:1073010099F0C298054B80B1E4F58453B7F0F58F3D
:06731100F584D285C2994B
:0D73170075521475530900D553FCD552F67C
:087324007599783099FDC299BA
:0D732C0075521475530900D553FCD552F667
:10733900E4F5993099FDC2850274E6E4F54CF54D02
:0E734900209822C3E54D9488E54C941350170C
:0D73570075520A75530900D553FCD552F646
:10736400054DE54D70DF054C80DB20980302700D60
:10737400859948C298E54825E0F550755100E4F533
:1073840049F54CF54D0551E551AE507002055014C8
:10739400F5828E83E4932549F549054DE54D700248
:0E73A400054C7004E54C640270DBD285C29982
:0D73B20075521475530900D553FCD552F6E1
:0873BF007599783099FDC2991F
:0D73C70075521475530900D553FCD552F6CC
:1073D4008549993099FDC2850274E6E4F54CF54D72
:0E73E400209822C3E54D9488E54C9413501771
:0D73F20075520A75530900D553FCD552F6AB
:1073FF00054DE54D70DF054C80DB20980302700DC5
:10740F00859948C298E4F54CF54D209822C3E54D77
:08741F009488E54C941350170A
:0D74270075520A75530900D553FCD552F675
:10743400054DE54D70DF054C80DB20980302700D8F
:0974440085994AC298D285C299CB
:0D744D0075521475530900D553FCD552F645
:08745A0075997F3099FDC2997C
:0D74620075521475530900D553FCD552F630
:10746F007599203099FDE54825E0FCE54A75F02037
:10747F00A42400FFE5F03CF5508F51E4F549F54B9E
:02748F00C299A0
:0D74910075521475530900D553FCD552F601
:10749E00855182855083E493F5993099FD0551E528
:1074AE0051AE507002055014F5828E83E493254937
:0B74BE00F549054BE54BB420C8C2990E
:0D74C90075521475530900D553FCD552F6C9
:1074D6008549993099FDC2858006E4F58475EF10DB
:0B74E600E5476407600302700DD2AFA1
:0174F1002278
:1039320012443A1200A21231A4E564F46008AF64A2
:103942001238977564FF20160B7A007B327D017F57
:1039520000123B7430180B7A007B1E7D017F00122F
:103962003B74301313301910C213E4F569F56A7809
:10397200A776F112368ED216301A2A301927C21AB9
:10398200124412E4FDFF12000E7BFF7A4379BF124C
:1039920042B87D01E4FF12000E7BFF7A4379CD121B
:1039A20042B8127000124405E47BF47A01F9F8C3BC
:1039B2001208295002D219C21AC213301506E4F5B0
:0539C2008475EF1022E6
:0B441F0012265212393212437D80F841
:1032F500005EBCE2613FDD83C29C7E20A3FD1F41D1
:103305009DC3217FFCA2401E5F01E3BD3E6082DCC0
:10331500237D9FC1421CFEA0E1BF5D0380DE3C62B0
:10332500BEE0025CDF81633D7C22C09E1D43A1FFA0
:103335004618FAA427799BC584DA3866E5BB590790
:10334500DB856739BAE406581947A5FB7826C49A80
:10335500653BD987045AB8E6A7F91B45C6987A2470
:10336500F8A6441A99C7257B3A6486D85B05E7B960
:103375008CD2306EEDB3510F4E10F2AC2F7193CD50
:10338500114FADF3702ECC92D38D6F31B2EC0E5040
:10339500AFF1134DCE90722C6D33D18F0C52B0EE30
:1033A500326C8ED0530DEFB1F0AE4C1291CF2D7320
:1033B500CA947628ABF517490856B4EA6937D58B10
:1033C5005709EBB536688AD495CB2977F4AA481600
:1033D500E9B7550B88D6346A2B7597C94A14F6A8F0
:1033E500742AC896154BA9F7B6E80A54D7896B35E0
:0A33F500000000002B6096CBDDEE17
:02400A00C1AC47
:103A5C00157F157FA87FECF608EDF6157F157F1501
:103A6C007FA87FC6EBC608C6EAC608C6E9C6E57FCE
:043A7C0024FCF57FB2
:103A8000F80808E4F6A87FF608F6E57F2407F9A809
:103A90007FE6FE08E6FFC3099719E76480F8EE6445
:103AA00080985037E57F2404F8CBE6CB08E6FA0887
:103AB000E6F98F828E83120721A87F080866FFE54A
:103AC0007F2403F8EFF6E69032F593A87F0808F616
:103AD000A87F0806E61870B20680AFA87F0808E63F
:013AE000FFE6
:073AE100E57F2409F57F22B7
:07000300ED6F9032F593FF51
:01000A0022D3
:0300A30002412BEC
:10412B00C0E0C083C082C0D075D010E59830E105E7
:10413B005398FDD22CE59830E024E5182401FFE4D8
:10414B0033FEEF64404E70028011AF180518748473
:10415B002FF582E43400F583E599F05398FED0D027
:07416B00D082D083D0E032C6
:0A4046008B4B8A4C894D8C4E8D4F38
:10405000E4F518758401D284E55024FF929BE4F5C1
:1040600051C3E551954FE54E6480F8748098501F18
:10407000C22CAB4B054DE54DAA4C7002054C14F912
:10408000120708F599302CFD12443A055180D2C22E
:0340900084AF4FAB
:01409300220A
:0A39C7008B498A4A894B8C4C8D4DC8
:1039D1001244058F528E518D508C4FE4F54E124496
:1039E10005C3EF9552FFEE9551FEED9550FDEC9517
:1039F1004FFCE47B01FAF9F8C312082950037F0058
:103A010022E518D39400404E900084E0FEB4780380
:103A11007F0122EE54F8647860037F0022900084D5
:103A2100E054072402F54E6518702BD3E518954D27
:103A3100E54C6480F87480984006AE4CAF4D80042C
:103A4100AF187E00A84BAC4AAD497B017A0079845E
:0B3A51001206E2AF4E2212443A8083BE
:06442A00E4F518D22C227B
:0100A200223B
:10409400EF7025F5847598D0F584759115F58475C0
:1040A400C90875CBFFED9033F493F5CA75C804E4E1
:1040B400F584D2ACC2BC80227584017598D0E4F535
:1040C40084E589540F4420F589758E02758DF7D2E5
:0C40D4008E43E74053F7BF12442AD2AFDE
:0140E00022BD
:103F0300D2AFD2A9D2BBE4F584E589540F4401F5BD
:103F130089758E02758CAFE4F58AD28CF51CF51B7E
:103F2300F51AF519FFEF25E025E024A8F8E4F6EFEC
:103F330025E025E024A9F8E4F6EF25E025E024AA0E
:103F4300F8E4F6EF25E025E024ABF8E4F60FBF0331
:013F5300D499
:013F5400224A
:0737F400C0D075D010157F55
:1037FB00A87FE4F6A87FE6FFC39403400302389248
:10380B00EF25E025E024ABF8E6FFD394004052A867
:10381B007FE625E025E024A9F8E67045EF30E015BA
:10382B00A87FE6FF25E025E024ABF8E6D394014022
:10383B00047D0180067D00A87FE6FF123D95A87FE1
:10384B00E6FF25E025E024ABF816E66014EF25E053
:10385B0025E024AAF8E6FEEF25E025E024A9F8EE02
:10386B00F6A87FE625E025E024A9F8E6600116A876
:10387B007FE6FF25E025E024ABF8E67004FD123D62
:07388B0095A87F060237FF3C
:05389200057FD0D022EB
:03000B0002422688
:10422600C0E0C0F0C083C082C0D075D010758CAF1E
:10423600E51C2401F51CE4351BF51BE4351AF51ABB
:10424600E43519F5191237F4D0D0D082D083D0F0E6
:03425600D0E03283
:10430B00157FA87FEDF6157FA87FEFF6A87FE6FF58
:10431B00C39403500D08E6FEEF25E025E024A8F832
:07432B00EEF6057F057F227D
:103B7400157F157FA87FEAF608EBF6157FA87FED81
:103B8400F6157FA87FEFF6A87FE6FFC39403505293
:103B9400EF25E025E024ABF8E67047A87FE6FB2597
:103BA400E025E024A9F8E67039A87F08E625E004BA
:103BB400FFA87FE6FA25E025E024ABF8EFF6A87F1E
:103BC4000808E6FE08E6FF7C007D0A120782EA2563
:103BD400E025E024AAF8EFF6EB25E025E024A9F897
:093BE400E4F6E57F2404F57F22DC
:103D9500C0D075D010157FA87FEDF6157FA87FEFF1
:103DA500F6A87FE6FFC39403501CEF25E025E02429
:103DB500A8F8E66011A87F08E670047F0180027FFD
:103DC50000A87F08EFF6A87FE6700608E624FF92B4
:103DD500A0A87FE6FFB4010608E624FF9286EFB4AB
:103DE5000208A87F08E624FF9287057F057FD0D0CB
:013DF50022AB
:0C440500C2AFAF1CAE1BAD1AAC19D2AF99
:014411002288
:01443A00225F
:0442E2008E3B8F3C44
:1042E600E4F53DF53EC3E53E953CE53D953B501472
:1042F6007FE87E03123E00123932053EE53E70E548
:04430600053D80E110
:01430A002290
:0A3DF60054F042A0D2A17F017E002C
:043E00008E608F61E0
:103E0400D3E56194FAE5609400500EEFD39400403A
:103E1400407E1600DEFD1F80F2856062856163D3FB
:103E2400E56394FAE562940040157FFA7E00123E41
:103E34000074062563F56374FF3562F56280E0D390
:103E4400E5619400E56094004007AF63AE62123E02
:013E5400006D
:013E5500224A
:083EAE008B3F8A4089418D42DF
:103EB60012443AAB43AA44A9451207B82400FFE5C9
:103EC600F03460FE853F46854047854148E4FDED78
:103ED600C39542501BEF2DF582E43EF583E493AB88
:103EE60046AA47A9488D827583001207600D80DFB8
:0D3EF600AB43AA44A945E48542F00207E36E
:060026008B4D8A4E894F4C
:10002C0078A7E664F1706EC2AFE4F58443B701754E
:10003C008F01AB51AA52A9531207B82400FFE5F067
:10004C003460F5548F55854D56854E57854F58E481
:10005C00FFEFC39D5026AB560558E558AA577002C2
:10006C00055714F9120708FE0555E555AA547002F8
:10007C00055414F5828A83EEF00F80D5E4F58F5386
:10008C00B7F0CFEDCFAB51AA52A9538FF01207E3C3
:05009C00D2AF12443A4E
:0100A100223C
:1041B10078A7E664F17034C2AFE4F58443B70175C2
:1041C1008F03F582758360FFFEE4F012443A258285
:1041D100F58274023583F5830FBF00010EEF640889
:0B41E1004E70E6E4F58F53B7F0D2AF4C
:0141EC0022B0
:10368E007A007B327D037F03123B741241B1E4F565
:10369E004BF54CF55175520075534BFB7A0079651D
:1036AE007D16120026E4F548E548C378B4965067B7
:1036BE00E4F54775F01FE547A42408F582E5F034DC
:1036CE0019F583E493604C7888E68548F0A4FFAE44
:1036DE00F075F01FE547A42415F582E5F03419F5D1
:1036EE0083E493FB740193FA7402932FF9EA3EFA82
:1036FE0075F01FE547A42408F582E5F03419F5832B
:10370E00E493FD75510075520075534B120026055A
:10371E004780A005488091754912754A347551004D
:10372E0075520075534B7B007A0079497D02120069
:05373E0026E478A7F667
:013743002263
:10374400E4F53DF53EF54375440075453DFB7A00CF
:1037540079657D16123EAEE4F53AE53AC378B4963F
:103764005067E4F53975F01FE539A42408F582E5BE
:10377400F03419F583E493604C7888E6853AF0A434
:10378400FFAEF075F01FE539A42415F582E5F03499
:1037940019F583E493FB740193FA7402932FF9EA05
:1037A4003EFA75F01FE539A42408F582E5F03419D2
:1037B400F583E493FD75430075440075453D123E61
:1037C400AE053980A0053A809175430075440075B3
:1037D400453D7B007A00793B7D02123EAEE53C64B8
:0F37E400347004E53B641270047F0180027F00A3
:0137F30022B3
:103CCD008F5F302B6043A0F075840F75A60FC2A3D4
:103CDD00D2A2123DFCD2A17F0A7E00123E0020A787
:103CED00FDC2A1123DFCC2A275A6FF123DFCE55F0F
:103CFD0054F0FFE5A054014FF5A0A21292A3123D7E
:103D0D00FC123DFAC2A1123DFCE55FC454F0FFE583
:103D1D00A054014FF5A0A21292A3123DFC123DFA40
:063D2D00C2A1123DFC22C0
:104359008F7D53A00FE57D123DF6C2A1123DFC539E
:10436900A00FE57DC4123DF6C2A1123DFC7F647E1B
:0443790000023E0000
:103BED00E4F539F53A75840F75A6FF53A0017F0FE3
:103BFD00FE1242E243A030123DFAC2A17F057E00C3
:103C0D001242E2123DFAC2A17F017E001242E2127F
:103C1D003DFAC2A175A020123DFAC2A143A0F075D4
:103C2D00A60FC2A3D2A2123DFCD2A17F647E0012C8
:103C3D003E0030A703C22B22D22BC2127F2C123C86
:103C4D00CDC2127F0C123CCDC2127F01123CCDC2EF
:063C5D00127F06123CCDAF
:013C6300223E
:0D441200C2127F01123CCDE4FDFF02000E3E
:10000E00ED5401C4333354C0FEEF541F44804EFFF1
:05001E00C212023CCDFE
:1043F2008F5EC3E55E648094A04005D212123CCD6C
:03440200AF5E2288
:104332008B1D8A1E891FAB1DAA1EA91F12070860AA
:1043420015051FE51F7002051E14F9120708FFD29A
:0743520012123CCD80E022B5
:102B0C00202020202020202020200025622A626402
:102B1C000025622A62750025622A640025622A75E6
:102B2C000025622A2E33660025622A6C6400256219
:102B3C002A6C7500253262643A257300202020200F
:102B4C00202020200045534320454E544552202040
:102B5C00202D202020202B20200045534320454EA3
:102B6C00544552202050524556204E45585400454D
:102B7C005343202020202020202050524556204E08
:102B8C0045585400506172616D657465727320779D
:102B9C0072697474656E00746F20666C6173682062
:102BAC006D656D6F72792E00F470000000F76E0089
:102BBC000000FAE4000000FD6D00000000000000C1
:102BCC0000036B000000064D0000000947000000E8
:102BDC000C540000000000000000016D0000000219
:102BEC00670000000373000000046D00000005681E
:102BFC000000000641000000074B00000008DF4306
:102C0C00000009DF46000014487A000015506100EE
:102C1C0000166261000017570000001856000000F3
:102C2C0019F40000001A540000001B6C2F73001CD8
:102C3C0052504D001D460000005A252500005B52E5
:102C4C00504D005C636E74005D7800000000000065
:102C5C00000002350000004E6F6465204164720074
:102C6C00006500000000000000003F800000000034
:102C7C0000023500000047727020416472000000B1
:102C8C006700000000000000003F80000000000012
:102C9C000032000004466C61736800000000000004
:102CAC000000000000000000000000000000000018
:102CBC00320000045265626F6F7400000000000067
:0E2CCC000000000000000000000000000000FA
:10400C00C19BC122C121C11C017B00017C04440065
:10401C00D0000000004400C8000000004400CC00A8
:0B402C00000000C11DC11EC11FC1200B
:0628BA00AB36AA37A93875
:0628C0008B3A8A3B893CC3
:1028C600900001120721B4381B853D45853E46859B
:1028D6003F477548007549087B017A0079D4123F55
:1028E60055022B02E49000D4F0AB3AAA3BA93C90E7
:1028F6000002120721605CE4F540E54075F005A48E
:1029060024B4F582E4342BF583E493FF6015AB3AE7
:10291600AA3BA93C900002120721FEEF6E60040557
:102926004080D7E54075F005A424B4F582E4342B45
:10293600F583E493601DE54075F005A424B5F974AC
:102946002B35F07545FFF54689477B017A0079D42A
:10295600123E56AB3AAA3BA93C90000112072160F1
:102966005CE4F540E54075F005A424E6F582E43420
:102976002BF583E493FF6015AB3AAA3BA93C900084
:1029860001120721FEEF6E6004054080D7E5407511
:10299600F005A424E6F582E4342BF583E493601D68
:1029A600E54075F005A424E7F9742B35F07545FF6D
:1029B600F54689477B017A0079D4123E567B017A27
:1029C6000079D41243DD8F41AB3AAA3BA93C1207EA
:1029D6000814601D14605E24FE7003022A84240419
:1029E6006003022B027BFF7A2B790C1242B8022B72
:1029F60002AB3AAA3BA93C900004120721C330E17E
:102A06001A740A9541F545AB3DAA3EA93F1207083F
:102A1600F5467BFF7A2B7917022AFF740A9541F552
:102A260045AB3DAA3EA93F120708F5467BFF7A2B28
:102A3600791D022AFFAB3AAA3BA93C900004120773
:102A460021C330E11D740A9541F545AB3DAA3EA967
:102A56003F1207B8F54785F0467BFF7A2B792302AC
:102A66002AFF740A9541F545AB3DAA3EA93F1207D8
:102A7600B8F54785F0467BFF7A2B7928807BAB3A01
:102A8600AA3BA93C90000412072130E020C3740A37
:102A96009541F545AB3DAA3EA93F12084D8F498E9B
:102AA600488D478C467BFF7A2B792D804CAB3AAA12
:102AB6003BA93C900004120721C330E11F740A951C
:102AC60041F545AB3DAA3EA93F12084D8F498E48B8
:102AD6008D478C467BFF7A2B7934801D740A95418D
:102AE600F545AB3DAA3EA93F12084D8F498E488D4C
:102AF600478C467BFF7A2B793A121E9F7B017A0020
:052B060079D41242B871
:012B0B0022A7
:080AD600AB36AA37A9387DFFF9
:100ADE008D3D8B3A8A3B893C900001120721643888
:100AEE0070030212E2AB3AAA3BA93C12070824FE9D
:100AFE007003020D4324FE7003020F9C2403600357
:100B0E000212E290000412072120E103020BFDAB5A
:100B1E003AAA3BA93C9000181208B7C000C001C009
:100B2E0002C003AC3DEC1203BBD003D002D001D007
:100B3E000012019EC004C005C006C0079000C4E0AC
:100B4E00FC1203BBD003D002D001D0001200AD12B4
:100B5E0003EF9000C4EFF0AB3AAA3BA93C9000140F
:100B6E0012086D9000101208B7120344700302129F
:100B7E00E2AB3AAA3BA93C90001012086DC004C02B
:100B8E0005C006C0079000C4E0FC1203BBA804A970
:100B9E0005AA06AB07D007D006D005D00412034431
:100BAE005014AB3AAA3BA93C90001012086D1203E8
:100BBE00EF9000C4EFF0AB3AAA3BA93C90001412A0
:100BCE00086DC004C005C006C0079000C4E0FC124A
:100BDE0003BBA804A905AA06AB07D007D006D0050B
:100BEE00D004120344600250030212E2020D2EE5FD
:100BFE003DF4704CAB3AAA3BA93C90001012086D24
:100C0E00C004C005C006C0079000C4E0FCE4120397
:100C1E00BBA804A905AA06AB07D007D006D005D0FD
:100C2E0004120344701AAB3AAA3BA93C900014126A
:100C3E00086D9000101208B712034460030212E20E
:100C4E00AB3AAA3BA93C9000181208B7C000C001ED
:100C5E00C002C003AC3DEC1203BBD003D002D001E6
:100C6E00D00012019EC004C005C006C0079000C48B
:100C7E00E0FCE41203BBD003D002D001D00012007E
:100C8E00AD1203EF9000C4EFF0AB3AAA3BA93C9033
:100C9E00001412086D9000101208B712034470036E
:100CAE000212E2AB3AAA3BA93C90001012086DC0AA
:100CBE0004C005C006C0079000C4E0FCE41203BBEC
:100CCE00A804A905AA06AB07D007D006D005D00404
:100CDE001203445014AB3AAA3BA93C9000101208E0
:100CEE006D1203EF9000C4EFF0AB3AAA3BA93C9013
:100CFE00001412086DC004C005C006C0079000C4E1
:100D0E00E0FCE41203BBA804A905AA06AB07D007B2
:100D1E00D006D005D004120344600250030212E242
:100D2E00AB3AAA3BA93C90001412086D1203EF9047
:100D3E0000C4EFF022AB3AAA3BA93C900004120784
:100D4E002120E103020E419000181208B7C000C026
:100D5E0001C002C003AC3DEC1203BBD003D002D0E5
:100D6E0001D00012019EC004C005C006C00790004D
:100D7E00C4E0FCA3E0FDEC1203B6D003D002D00118
:100D8E00D0001200AD1203EF9000C4EEF0A3EFF00E
:100D9E00AB3AAA3BA93C90001412086D90001012B9
:100DAE0008B712034470030212E2AB3AAA3BA93C05
:100DBE0090001012086DC004C005C006C007900058
:100DCE00C4E0FCA3E0FDEC1203B6A804A905AA0634
:100DDE00AB07D007D006D005D0041203445017AB92
:100DEE003AAA3BA93C90001012086D1203EF900036
:100DFE00C4EEF0A3EFF0AB3AAA3BA93C900014125C
:100E0E00086DC004C005C006C0079000C4E0FCA376
:100E1E00E0FDEC1203B6A804A905AA06AB07D0079D
:100E2E00D006D005D004120344600250030212E231
:100E3E00020F84E53DF4704FAB3AAA3BA93C9000FB
:100E4E001012086DC004C005C006C0079000C4E0B3
:100E5E00FCA3E0FDE41203B6A804A905AA06AB079D
:100E6E00D007D006D005D004120344701AAB3AAAAC
:100E7E003BA93C90001412086D9000101208B71296
:100E8E00034460030212E2AB3AAA3BA93C9000185D
:100E9E001208B7C000C001C002C003AC3DEC120383
:100EAE00BBD003D002D001D00012019EC004C005F9
:100EBE00C006C0079000C4E0FCA3E0FDE41203B638
:100ECE00D003D002D001D0001200AD1203EF90007B
:100EDE00C4EEF0A3EFF0AB3AAA3BA93C900014127B
:100EEE00086D9000101208B712034470030212E24C
:100EFE00AB3AAA3BA93C90001012086DC004C00585
:100F0E00C006C0079000C4E0FCA3E0FDE41203B6E7
:100F1E00A804A905AA06AB07D007D006D005D004B1
:100F2E001203445017AB3AAA3BA93C90001012088A
:100F3E006D1203EF9000C4EEF0A3EFF0AB3AAA3BB4
:100F4E00A93C90001412086DC004C005C006C0076D
:100F5E009000C4E0FCA3E0FDE41203B6A804A905CA
:100F6E00AA06AB07D007D006D005D0041203446002
:100F7E000250030212E2AB3AAA3BA93C90001412B3
:100F8E00086D1203EF9000C4EEF0A3EFF022AB3A1F
:100F9E00AA3BA93C90000412072120E00302105E38
:100FAE009000C4E0F8A3E0F9A3E0FAA3E0FBC000D0
:100FBE00C001C002C003AB3AAA3BA93C9000181274
:100FCE0008B7C000C001C002C003AC3DEC1203BBA9
:100FDE00D003D002D001D00012019ED003D002D097
:100FEE0001D0001200AD9000C41208E7AB3AAA3B44
:100FFE00A93C90001012086D9000C4E0F8A3E0F92F
:10100E00A3E0FAA3E0FB1203445012AB3AAA3BA9A9
:10101E003C90001012086D9000C41208E7AB3AAA7B
:10102E003BA93C90001412086D9000C4E0F8A3E0B8
:10103E00F9A3E0FAA3E0FB1203446002500302128C
:10104E00E2AB3AAA3BA93C90001412086D0212DCE6
:10105E00AB3AAA3BA93C90000412072120E10302FF
:10106E0011799000181208B7C000C001C002C00369
:10107E00AC3DEC1203BBD003D002D001D000120164
:10108E009EC004C005C006C0079000C4E0FCA3E0EB
:10109E00FDA3E0FEA3E0FFEC1203B1D003D002D01B
:1010AE0001D0001200AD1203EF9000C41208E7AB9E
:1010BE003AAA3BA93C90001412086D900010120839
:1010CE00B712034470030212E2AB3AAA3BA93C905A
:1010DE00001012086DC004C005C006C0079000C401
:1010EE00E0FCA3E0FDA3E0FEA3E0FFEC1203B1A839
:1010FE0004A905AA06AB07D007D006D005D0041266
:10110E0003445015AB3AAA3BA93C90001012086D4F
:10111E001203EF9000C41208E7AB3AAA3BA93C9029
:10112E00001412086DC004C005C006C0079000C4AC
:10113E00E0FCA3E0FDA3E0FEA3E0FFEC1203B1A8E8
:10114E0004A905AA06AB07D007D006D005D0041215
:10115E000344600250030212E2AB3AAA3BA93C9050
:10116E00001412086D1203EF0212DCE53DF4705507
:10117E00AB3AAA3BA93C90001012086DC004C00502
:10118E00C006C0079000C4E0FCA3E0FDA3E0FEA3F0
:10119E00E0FFE41203B1A804A905AA06AB07D00725
:1011AE00D006D005D004120344701AAB3AAA3BA95C
:1011BE003C90001412086D9000101208B7120344F0
:1011CE0060030212E2AB3AAA3BA93C900018120847
:1011DE00B7C000C001C002C003AC3DEC1203BBD0CF
:1011EE0003D002D001D00012019EC004C005C0067B
:1011FE00C0079000C4E0FCA3E0FDA3E0FEA3E0FF67
:10120E00E41203B1D003D002D001D0001200AD120F
:10121E0003EF9000C41208E7AB3AAA3BA93C90003A
:10122E001412086D9000101208B7120344700302D6
:10123E0012E2AB3AAA3BA93C90001012086DC00412
:10124E00C005C006C0079000C4E0FCA3E0FDA3E00B
:10125E00FEA3E0FFE41203B1A804A905AA06AB079A
:10126E00D007D006D005D0041203445015AB3AAACD
:10127E003BA93C90001012086D1203EF9000C412AF
:10128E0008E7AB3AAA3BA93C90001412086DC004C3
:10129E00C005C006C0079000C4E0FCA3E0FDA3E0BB
:1012AE00FEA3E0FFE41203B1A804A905AA06AB074A
:1012BE00D007D006D005D00412034460174015ABFA
:1012CE003AAA3BA93C90001412086D1203EF90004D
:0512DE00C41208E72224
:1041ED008F3AE92405F9E43AFA78D47C007D017E12
:1041FD00007F081206E2E49000DCF0853A45754632
:10420D00017547007548D47BFF7A2B7940121E9FAC
:09421D007BFF7A2B79480242B8BC
:1022AC00301B18124405E47B2C7A01F9F8C3120890
:1022BC00294003022651C21B124412124405A804E1
:1022CC00A905AA06AB079000D0E0FCA3E0FDA3E0B3
:1022DC00FEA3E0240AFFE43EFEE43DFDE43CFCD317
:1022EC0012082950030226511244059000D01208FE
:1022FC00E7E57B75F01FA4302107245EF9742C8070
:10230C00052408F9741935F07536FFF5378938202E
:10231C002210C2081233FFEF7003022641D22202B0
:10232C002641201C0302246AE4FD7F0A12000E756C
:10233C003D01753E00753FC41228BA7D01E4FF12C1
:10234C00000E7BFF7A2B79511242B8302705201DE5
:10235C0002C21C302854201E51C21CAB36AA37A90D
:10236C0038120708FF7E0090000D120940A801AC3E
:10237C0002AD037B017A0079C41206E230210CE530
:10238C007B600464017023D213801FAF7B122E82FA
:10239C0075F01FE57BA4240CF582E5F03419F58368
:1023AC00E49330E505AF7B12389730290F201F0CD2
:1023BC00120AD61244059000C81208E730292D12D3
:1023CC004405A804A905AA06AB079000C8E0FCA325
:1023DC00E0FDA3E0FEA3E02446FFE43EFEE43DFD69
:1023EC00E43CFCD31208294003120AD620290A9097
:1023FC0000C81208F300000000302A17202014AB8C
:10240C0036AA37A9387D01120ADE1244059000CC99
:10241C001208E7302A35124405A804A905AA06AB10
:10242C00079000CCE0FCA3E0FDA3E0FEA3E0244673
:10243C00FFE43EFEE43DFDE43CFCD3120829400BD6
:10244C00AB36AA37A9387D01120ADE302A030226E0
:10245C00419000CC1208F300000000022641E4FD7C
:10246C00FF12000EAB36AA37A938AF7B1241EDE450
:10247C00FD7F0A12000EAB36AA37A93890000D1258
:10248C0009408B3D8A3E893F1228BA7D01E4FF1238
:10249C00000EAB36AA37A93890001812086DE4FB71
:1024AC00FAF9F8120344400FAB36AA37A93890005A
:1024BC000412072130E2087BFF7A2B796680067BB9
:1024CC00FF7A2B797B1242B8302714201D11302152
:1024DC0007C221E4F57B8007C222D2081233FF30F9
:1024EC002868201E65AB36AA37A938120708FFD317
:1024FC0094045018EF94004013D21C7E0090000DF1
:10250C0012094078C47C007D011206E2302131E5CD
:10251C007B6402702BD213124412E4FDFF12000EE6
:10252C007BFF7A2B79901242B87D01E4FF12000EEA
:10253C007BFF7A2B79A31242B87FB87E0B1242E252
:10254C00302107E57BB40302D215302921201F1E50
:10255C00E57B700F2021057880E68002E57C14F580
:10256C007B8002157B1244059000C81208E73029C5
:10257C003F124405A804A905AA06AB079000C8E0C1
:10258C00FCA3E0FDA3E0FEA3E02446FFE43EFEE452
:10259C003DFDE43CFCD31208294015E57B700F206F
:1025AC0021057880E68002E57C14F57B8002157BA2
:1025BC0020290A9000C81208F30000000030210501
:1025CC00857C3980057880E6F539302A1620201371
:1025DC00E57B048539F08485F07B1244059000CCB2
:1025EC001208E7302A34124405A804A905AA06AB40
:1025FC00079000CCE0FCA3E0FDA3E0FEA3E02446A2
:10260C00FFE43EFEE43DFDE43CFCD3120829400A05
:10261C00E57B048539F08485F07B202A0A9000CC78
:10262C001208F30000000030290B302A0820210585
:10263C00E4F57BD221A227921DA228921EA22992F8
:05264C001FA22A9220EC
:012651002266
:1018B60020002A2A2000202A2A00202020416464B1
:1018C600726573733A2020253034582000303A254B
:1018D600362E33665600313A25362E33665600527A
:1018E600656C303A202573004F4E20004F46460067
:1018F60052656C313A202573005343532D313030F5
:101906003000013200000052656C616973300001DD
:101916000000000000003F8000003F800000000043
:1019260000013200000052656C61697331000100EC
:1019360001000000003F8000003F80000000000022
:10194600013200000052656C6169733200010002C9
:10195600000000003F8000003F8000000000000102
:101966003200000052656C616973330001000300A8
:101976000000003F8000003F8000000000000132B0
:10198600000000446F757430000000010004000080
:1019960000003F8000003F80000000000001320090
:1019A6000000446F7574310000000100050000005E
:1019B600003F8000003F8000000000000132000070
:1019C60000446F757432000000010006000000003C
:1019D6003F8000003F800000000000013200000050
:1019E600446F757433000000010007000000003FDB
:1019F6008000003F80000000000004180000014441
:101A060041433000000000010008C12000004120D1
:101A160000003DCCCCCD000000041800000144417C
:101A260043310000000001000CC1200000412000ED
:101A3600003DCCCCCD000000013200000044696EB0
:101A4600300000000001001000000000000000004F
:101A560000000000000000013200000044696E3101
:101A6600000000000100110000000000000000005E
:101A7600000000000000013200000044696E3200E0
:101A8600000000010012000000000000000000003D
:101A96000000000000013200000044696E330000BF
:101AA600000001001300000000000000000000001C
:101AB600000000000418000001414443300000000B
:101AC60000010014000000000000000000000000FB
:101AD60000000004180000014144433100000000EA
:101AE60001001800000000000000000000000000D7
:101AF60000000418000001414443320000000001C8
:101B0600001C0000000000000000000000000000B3
:101B160000041800000141444333000000000100A6
:101B2600200000000000000000000000000000008F
:101B36000418000001414443340000000001002461
:101B4600000000000000000000000000000000048B
:101B56001800000141444335000000000100280040
:101B66000000000000000000000000000000041853
:101B7600000001414443360000000001002C000033
:101B86000000000000000000000000000004180033
:101B9600000141444337000000000100300000000E
:101BA6000000000000000000000000000418000013
:101BB60009444F465330000000010034BDCCCCCD63
:101BC6003DCCCCCD3A83126F00000004180000090A
:101BD600444F465331000000010038BDCCCCCD3D0A
:101BE600CCCCCD3A83126F000000045D000009449E
:101BF6004741494E30000001003C3F6666663F8C17
:101C0600CCCD3A83126F000000045D000009444702
:101C160041494E3100000100403F6666663F8CCC6C
:101C2600CD3A83126F0000000418000009414F46A8
:101C36005330000000010044BDCCCCCD3DCCCCCD12
:101C46003A83126F0000000418000009414F465302
:101C560031000000010048BDCCCCCD3DCCCCCD3A06
:101C660083126F0000000418000009414F465332EA
:101C760000000001004CBDCCCCCD3DCCCCCD3A8390
:101C8600126F0000000418000009414F465333004C
:101C96000000010050BDCCCCCD3DCCCCCD3A83125A
:101CA6006F0000000418000009414F46533400003D
:101CB60000010054BDCCCCCD3DCCCCCD3A83126FC7
:101CC6000000000418000009414F4653350000008B
:101CD600010058BDCCCCCD3DCCCCCD3A83126F00A3
:101CE60000000418000009414F4653360000000169
:101CF600005CBDCCCCCD3DCCCCCD3A83126F000080
:101D0600000418000009414F465337000000010047
:101D160060BDCCCCCD3DCCCCCD3A83126F0000005B
:101D2600045D000009414741494E3000000100644E
:101D36003F6666663F8CCCCD3A83126F0000000486
:101D46005D000009414741494E3100000100683FEE
:101D56006666663F8CCCCD3A83126F000000045D48
:101D6600000009414741494E32000001006C3F66C0
:101D760066663F8CCCCD3A83126F000000045D008E
:101D86000009414741494E3300000100703F666635
:101D9600663F8CCCCD3A83126F000000045D0000D4
:101DA60009414741494E3400000100743F666666AA
:101DB6003F8CCCCD3A83126F000000045D00000911
:101DC600414741494E3500000100783F6666663F4F
:101DD6008CCCCD3A83126F000000045D00000941EF
:101DE6004741494E36000001007C3F6666663F8CDF
:101DF600CCCD3A83126F000000045D000009414714
:101E060041494E3700000100803F6666663F8CCC34
:101E1600CD3A83126F0000000000000000000000B1
:101E260000000000000000000000000000000000AC
:071E360000000000000000A5
:0E40370001B401C123C124C125C126017E00B0
:022CDA008F3930
:102CDC007D007F0212430BE4F584F5BA75BCE075F8
:102CEC00E880F5D1F58475D102F58475D4807584AE
:102CFC000175D48075840F75A4F575A5BF75A6FFF5
:102D0C0075A7FFE5397003022DC6E4F53A7400256A
:102D1C003AF582E43400F583E4F0053AE53AB4047C
:102D2C00ECE4F53A7404253AF582E43400F583E4D6
:102D3C00F0053AE53AB404ECE4F53AE53A25E02539
:102D4C00E02408F582E43400F5831208F300000057
:102D5C0000E53A25E025E02434F582E43400F583DF
:102D6C001208F300000000E53A25E025E0243CF5CC
:102D7C0082E43400F5831208F33F800000053AE545
:102D8C003AB402B7E4F53AE53A25E025E02444F5F7
:102D9C0082E43400F5831208F300000000E53A25C4
:102DAC00E025E02464F582E43400F5831208F33F57
:102DBC00800000053AE53AB408CDE4F53AAF3A1292
:102DCC002E82053AE53AC3940840F27F08122E820F
:102DDC007F09122E82E4F53A75F01FE53AA4240817
:102DEC00F582E5F03419F583E493601E75F01FE568
:102DFC003AA4240CF582E5F03419F583E49330E51C
:102E0C0005AF3A123897053A80CEE4FDFF12000E5A
:102E1C00E4F53A7B007A00796B1243DD7C007D028D
:102E2C00120782C374079FFFE49EFEC3E53A9FEE30
:102E3C006480F8748098500D7BFF7A1879B6124232
:102E4C00B8053A80CE7BFF7A1879B81242B87B006D
:102E5C007A00796B1242B87BFF7A1879BC1242B8AF
:102E6C007D01E4FF12000E7BFF7A1879C085654561
:062E7C00856646021E9F60
:0A2E8200157FA87FEFF6157F157F7E
:102E8C00A87F0808E61209702EC2002ECD012ED89C
:102E9C00022EE3032EEE042EF9052F04062F0F0746
:102EAC002F1A082FA0092F1A162FA0172F1A182F18
:102EBC00A01900003023900000E024FF92B00230F3
:102ECC0023900001E024FF92B1023023900002E035
:102EDC0024FF92B2023023900003E024FF92B3024D
:102EEC003023900004E024FF92B7023023900005B9
:102EFC00E024FF92B6023023900006E024FF92B546
:102F0C00023023900007E024FF92B402302390009B
:102F1C0034E0FCA3E0FDA3E0FEA3E0FF900008E09A
:102F2C00F8A3E0F9A3E0FAA3E0FB1200AD90003C9B
:102F3C00E0F8A3E0F9A3E0FAA3E0FB12019EE4FBA6
:102F4C00FA792078411200ADE4FBFA79A0784112AD
:102F5C0002A7E4FBFA7980784512019E1203EFA8D0
:102F6C007FEEF608EFF6A97FC3E794104007A87F21
:102F7C00760F0876FFA97FC3E794005006A87FE47C
:102F8C00F608F6E4F584A87F08E6F5D2A97FE7F504
:102F9C00D3023023900038E0FCA3E0FDA3E0FEA3B5
:102FAC00E0FF90000CE0F8A3E0F9A3E0FAA3E0FB4B
:102FBC001200AD900040E0F8A3E0F9A3E0FAA3E022
:102FCC00FB12019EE4FBFA792078411200ADE4FB80
:102FDC00FA79A078411202A7E4FBFA7980784512BD
:102FEC00019E1203EFA87FEEF608EFF6A97FC3E768
:102FFC0094104007A87F760F0876FFA97FC3E7944B
:10300C00005006A87FE4F608F6758401A87F08E650
:07301C00F5D2A97FE7F5D30F
:07302300057F057F057F22F8
:054435008F307F002222
:10428B008B308A318932120708AB33AA34A9351225
:10429B00074EAB30AA31A932900001120721AB3384
:0D42AB00AA34A9359000011207607F02229D
:0A302A008E368F378B388A39893AC9
:10303400E4F584E537540FF5BB75BCE075410475C0
:103044004200E4F53EF53DF53CF53BF53FF540C364
:10305400E5409542E53F9541503AC2AFE4F584C25C
:10306400EDD2EC30EDFDD2AFAFBFEFFEADBEEDFF64
:10307400E4FCFDE53E2FF53EE53D3EF53DED353CFA
:10308400F53CEC353BF53B1239320540E54070BF69
:10309400053F80BBAF3EAE3DAD3CAC3B780612086D
:1030A4003A8F3E8E3D8D3C8C3BC3E5379402E5362A
:1030B400648094805024E41203B1E4FBFA798078AC
:1030C400471202A7E4FBFA79A0784112019EE4FBBF
:1030D400FA792078C11200AD8020AF3EAE3DAD3C00
:1030E400AC3BE41203B1E4FBFA798078471202A7FF
:1030F400E4FBFA7920784112019E8F468E458D4477
:103104008C43AF46AE45AD44AC43ECC0E0EDC0E00B
:10311400EEC0E0EFC0E0E537AE367802C333CE331D
:10312400CED8F92444F58274003EF583E0F8A3E098
:10313400F9A3E0FAA3E0FBD0E0FFD0E0FED0E0FD8D
:10314400D0E0FC1200A98F468E458D448C43ECC020
:10315400E0EDC0E0EEC0E0EFC0E0E537AE36780267
:10316400C333CE33CED8F92464F58274003EF5839C
:10317400E0F8A3E0F9A3E0FAA3E0FBD0E0FFD0E09D
:10318400FED0E0FDD0E0FC12019E8F468E458D44BA
:0F3194008C43C2AFAB38AA39A93A12089DD2AF0B
:0131A3002209
:1035D000C297D296D2957F017E00123E00C295A27C
:1035E00096E433900012F0D2977F017E00123E00E5
:1035F000C2977F017E00123E00A296E43390001332
:10360000F0D2977F017E00123E00C2977F017E00BC
:10361000123E00A296E433900010F0D2977F017E14
:1036200000123E00C2977F017E00123E00A296E487
:1036300033900011F0D2977F017E00123E00C297B6
:103640007F017E00123E00A296922AD2977F017ED1
:1036500000123E00C2977F017E00123E00A29692A9
:1036600029D2977F017E00123E00C2977F017E0023
:10367000123E00A2969228D2977F017E00123E0051
:0E368000C2977F017E00123E00A29692272282
:1033FF00300803124412E4FDFF12000E7BFF7A180F
:10340F0079D3900014E0FCA3E0FDA3E0FEA3E0F568
:10341F00488E478D468C45121E9FE4FD7F0A120091
:10342F000E7BFF7A1879DC900018E0FCA3E0FDA377
:10343F00E0FEA3E0F5488E478D468C45121E9F7D1A
:10344F0001E4FF12000E900000E07BFF60067A1887
:10345F0079EE80047A1879F28B458A4689477BFF8B
:10346F007A1879E5121E9F7D017F0A12000E9000D7
:10347F0001E07BFF60067A1879EE80047A1879F202
:10348F008B458A4689477BFF7A1879F6121E9F3043
:10349F002819202416900000E070047F0180027F1D
:1034AF0000900000EFF07F00122E82302A192026A4
:1034BF0016900001E070047F0180027F00900001F0
:1034CF00EFF07F01122E8220080F302703302306E2
:1034DF003029062025037F0122A2279223A22892BA
:0B34EF0024A2299225A22A92267F0029
:0134FA0022AF
:10437D00E57E75F004A42414F9740035F0FA7B0180
:10438D00AF7E7E0012302AE57E045407F57E12358D
:04439D00D00222AC7C
:1000A60002045BE86480F8E933E83360110460F029
:1000B600ED33EC337009E8FCE9FDEAFEEBFF2204C0
:1000C60060DED3EB9FEA9EE99DE8C2E78CF0C2F7BB
:1000D60095F0400CE8CCF8E9CDF9EACEFAEBCFFB87
:1000E60012042685D0F05804700320D5B3E80470B6
:1000F600075002B2D502046592D5EC0460F7E4CC51
:10010600C0E0C398F8603B94186008400DD0E0FB4F
:1001160002043DE4FBFAC9FC8028E830E406E4C9A1
:10012600FBE4CAFCE830E305E4C9CACBFCE85407A3
:100136006010F8C3E913F9EA13FAEB13FBEC13FCAE
:10014600D8F130F52FC3E49CFCEF9BFFEE9AFEED51
:1001560099FDD0E0FBEF4E4D4C701222DB030204FA
:1001660062EC2CFCEF33FFEE33FEED33FDED30E7B2
:10017600EB02043DEF2BFFEE3AFEED39FDD0E0FB3E
:1001860050130BBB0003020465ED13FDEE13FEEFE7
:0801960013FFEC13FC02043D11
:10019E00EC4D6011E8497017ED33EC3304600DE45B
:1001AE00FCFFFEFD22E933E8330470F802045B1213
:1001BE00042658046009E4CC248150062850090214
:1001CE000465284003020462C0E0EB4A7044B98023
:1001DE0006D0E0FB020451EF4E701CBD8008EBFF11
:1001EE00EAFEE9FD80EBE98DF0A4FEE5F002028760
:1001FE00E9CDF9EAFEEBFFEF89F0A4FCE5F0CE893C
:10020E00F0A42EFFE435F0CD89F0A42DFEE435F0F8
:10021E008067EF4E7005BD80D780C3EF8BF0A4AC26
:10022E00F0EE8BF0A42CFCE435F0F8EF8AF0A42C61
:10023E00E5F038FCE433CB8DF0A42CFCE5F03BF874
:10024E00EE8AF0A42CFCE5F038F8E433CF89F0A464
:10025E002CFCE5F038CF3400CE89F0A42FFFE5F06A
:10026E003EFEE433C98DF0A42EFEE5F039CD8AF0C2
:10027E00A42FFFE5F03EFEE43DFD33D0E0FB50073A
:10028E000BBB000F020465EC2CFCEF33FFEE33FECC
:06029E00ED33FD02043DFA
:1002A400020465EC5D046005E85904700302045B14
:1002B400120426580460F6EC4860F2EC7004FDFE6B
:1002C400FF22C860DB2481C85009C398600250062D
:1002D4000204629850CAF582E9294B4A7005AB8240
:1002E40002045175F0007C1A7880C3EF9BEE9AEDFE
:1002F40099400DC3EF9BFFEE9AFEED99FDE842F0A5
:10030400DC23ACF0D0E0FFD0E0FED0E0FDAB8220F7
:10031400E7101BEB60BAEC2CFCEF33FFEE33FEED81
:1003240033FD02043DE803F830E705C0F075F00042
:10033400EF2FFFEE33FEED33FD40B830E7C280AA65
:1003440074F8CC6480CCC86480C8F582046043C36C
:10035400EB9FF5F0EA9E42F0E99D42F0E89C45F0FF
:1003640060305018E5825FFFE582F42B5582FB5024
:10037400210ABA001D09B90019088016E5825BFB41
:10038400E582F42F5582FF50090EBE00050DBD0015
:10039400010CC3EB9FF5F0EA9E42F0E99D42F0E8C0
:0D03A4009C45F06007CC4820E701B3EC2237
:1003B10075F020800E75F010800575F0087D007EC7
:1003C100007F003392D530D50312081BEC33401067
:1003D100EF33FFEE33FEED33FDEC33FCD5F0ED22D0
:0E03E100E5F0247EA2D513CC92E7CDCEFF220C
:1003EF00EDD2E7CD33EC3392D524814006E4FFFE06
:1003FF00FDFC22FCE4CFCECDCC24E0501174FF8065
:10040F00EDC3CC13CCCD13CDCE13CECF13CF047001
:07041F00F030D5DE02081BDE
:101E3D00E5592445F8E605592278423010027845D7
:101E4D00E475F0011209300207082009EB7F2ED24C
:101E5D00098018EF540F2490D43440D4FF300D0B6B
:101E6D00EF24BFB41A0050032461FFE55A60021538
:101E7D005A055DE55D7002055C30100D7842E47524
:101E8D00F001120930EF02074E0243F27403D21033
:101E9D008003E4C210F5598B428A438944E4F55A14
:101EAD00F55CF55DE55A60077F20121E7880F575AB
:101EBD005BFFC20AC209C20BC20CC20EC20FC21115
:101ECD00121E46FF700D3010057F00121E89AF5D8A
:101EDD00AE5C22B4255FC2D5C20D121E46FF24D0C2
:101EED00B40A00501A75F00A785A30D50508B6FFB5
:101EFD000106C6A426F620D5047002D20C80D92482
:101F0D00CFB41A00EF5004C2E5D20D022176D20AE9
:101F1D0080C6D20980C0D20B80BCD2D580BAD20E79
:101F2D0080B47F20121E78200B077401B55A004033
:101F3D00F1121E3DFF121E78021EB1D211D20F807A
:101F4D0095121E3DFB121E3DFA121E3DF94A4B70B5
:101F5D0006796D7A227BFF200B2EE55A602A7E00D2
:101F6D008E8275830012072160060EEE655B70F0A0
:101F7D00C2D5EBC0E0EAC0E0E9C0E0EE1221D6D058
:101F8D00E0F9D0E0FAD0E0FB120708FF60AAEBC041
:101F9D00E0EAC0E0E9C0E0121E78D0E02401F9D0FB
:101FAD00E03400FAD0E0FBE55B0460DCD55BD98062
:101FBD0087D20B80A21221B960F7E55B7001041284
:101FCD000470A95B600DE55B600914F55B1222607E
:101FDD00EF60F3EA30E702F404C3995077EAF42591
:101FED005B0430E701E404F55B800D1221B960C19B
:101FFD00EA055B255B120470EA7858F630E701E4D8
:10200D00255B04D55B04200E01141221D6E4C0E03B
:10201D001222607858E6601320E70714F6121E604E
:10202D00802204F6D0E014C0E07F00121E60E55B54
:10203D006007121E57155B800B300E03121E57D012
:10204D00E0021EB1D0E00480C51221B960A0E55BAD
:10205D00041204707858EAF6E55B200E0260010464
:05206D0024041221D63D
:1020720074FF04C0E0122260121E60E55B200E02B3
:102082006003121E57D0E0B55BE87F45121E6A78E6
:1020920058E67F2B30E7047F2DF404C0E0121E784F
:1020A200D0E075F00A84C0F0121E61D0E0121E6109
:1020B200021EB1791080027908C20FC2118008D2C3
:1020C200D5790A8004790AC2D5E55B047002F55B12
:1020D200E4FAFDFEFF121E3DFC7B08200A13121ECD
:1020E2003DFD7B1030090A121E3DFE121E3DFF7B94
:1020F20020EC3382D592D55013C3E43009069FFFFA
:10210200E49EFEE4200A039DFDE49CFCE4CBF8C2BD
:102112000AEC700CCFCECDCCE824F8F870F380171F
:10212200C3EF33FFEE33FEED33FDEC33FCEB33FB59
:10213200994002FB0FD8E9EB300A05F8D0E0C44819
:10214200B20AC0E00AEC4D4E4F78207B0070C2EA22
:10215200B55B0040BCC0E01221D8D0F0D0E0200A2C
:1021620004C4C0E0C4B20AC0F0121E61D0F0D5F0BF
:10217200EB021EB11209701F4E5320B5581F1F4C9F
:102182001F1B4220B94F20C14420C1491F344320A4
:10219200C7551FF8462056451FC247228D501F23A0
:1021A2002D1F272E1F4A2B1F2B231F482022762A42
:1021B2001EE34800001F42E55BB4FF03755B061295
:1021C2001E3DFC121E3DFD121E3DFE121E3DFF78FD
:1021D2005102049F790AA2D5200C14300E09B910BD
:1021E200020404B9080104A2D5200F025001042000
:1021F2000B68920BB55A005034C0E07F20300C19A6
:102202007F30A20B720F720E500F12222FC20BC21E
:102212000FC20EC2117F30800F300E03E9C0E012F0
:102222001E78300E03D0E0F9D0E0B55ACC300E174C
:102232007F30B9100C121E787F58300D077F7880DE
:1022420003B90803121E78300B057F2D021E787F1A
:10225200202011F87F2B200FF322920B80CF7F00DA
:10226200B4070050052451F8E6FF22286E756C6C05
:102272002900D20A121E3D300AF8C20A785A30D515
:102282000108F6021EE32D50434958121E3D240355
:10229200B405004001E490228893121E69743A1238
:0A22A2001E69D20C755A040220B523
:10042600E9D2E7C933E833F892D5EDD2E7CD33EC1C
:0704360033FC5002B2D52295
:10043D00EC30E7100FBF000C0EBE00080DBD000420
:10044D000BEB6014A2D5EB13FCED92E7FD2274FFCC
:10045D00FCFDFEFF22E480F8A2D574FF13FC7D8025
:03046D00E480EF39
:10047000F920E72824F950037907E4F42402FB1853
:10048000DBFDE624FB5014E9600DE4F618E604F603
:0F049000B40A08E4F6D9F57401F60A22C2D5229F
:10049F00ED33EC3392D5FA602AB4FF33EDC2E77B2C
:1004AF00FF60067A0479C4E4227A0479CD20D5045A
:1004BF007A0479C8224E614E002B494E46002D49D1
:1004CF004E4600E47A08F608DAFC7B00740722E84F
:1004DF00C0E0ECC0E0EDC0E0EEC0E0EFC0E0EA75D8
:1004EF00F010A4CAABF075F04DA42BFBE435F0FC73
:1004FF00EA2410FAEB34C5FBEC34D9FCEDC2E7FF6C
:10050F0075F056A4F42411C5F0F434C58FF0A42A65
:10051F00E5F03BE43CF620E7141205D2D0E0FFD023
:10052F00E0FED0E0FDD0E0FC1202A78014F404122C
:10053F0005D2D0E0FFD0E0FED0E0FDD0E0FC12010C
:10054F009ED0E0F8E6FAEDD2E7CD33EC332482FB10
:10055F00E4C3CF33CFCE33CECD33CD33DBF37B07F5
:10056F0075F00A846004F6081B0AE5F0F6088FF0B0
:10057F00740AA4FFACF08EF0740AA42CFEACF050F9
:10058F00010C8DF0740AA42CFDE435F0F608DBDEC7
:03059F00740722BC
:1005A2003F8000004120000042C80000447A000061
:1005B200461C400047C35000497424004B189680E3
:1005C2004CBEBC205A0E1BCA6753C21C749DC5AEDA
:1005D200FB60065407601C2323120600EB543860AC
:1005E200091205EC1205FB12019EECF8EDF9EEFA88
:1005F200EFCB22EB1205FB80F1543803241C90054B
:10060200A2FE93FC0EEE93FD0EEE930ECE93FF220E
:03000000023AE8D9
:0C3AE800787FE4F6D8FD7581B4023B2F16
:10061200E709F608DFFA8046E709F208DFFA803ECA
:1006220088828C83E709F0A3DFFA8032E309F608B7
:10063200DFFA8078E309F208DFFA807088828C831F
:10064200E309F0A3DFFA806489828A83E0A3F608D3
:10065200DFFA805889828A83E0A3F208DFFA804CAD
:1006620080D280FA80C680D4806980F28033801084
:1006720080A680EA809A80A880DA80E280CA8033ED
:1006820089828A83ECFAE493A3C8C582C8CCC58365
:10069200CCF0A3C8C582C8CCC583CCDFE9DEE78035
:1006A2000D89828A83E493A3F608DFF9ECFAA9F0B4
:1006B200EDFB2289828A83ECFAE0A3C8C582C8CC0A
:1006C200C583CCF0A3C8C582C8CCC583CCDFEADE23
:1006D200E880DB89828A83E493A3F208DFF980CC85
:1006E20088F0EF60010E4E60C388F0ED2402B4047E
:1006F2000050B9F582EB2402B4040050AF23234525
:06070200822390066273E1
:10070800BB010689828A83E0225002E722BBFE02EF
:09071800E32289828A83E4932222
:10072100BB010CE58229F582E5833AF583E022508D
:1007310006E92582F8E622BBFE06E92582F8E222D7
:0D074100E58229F582E5833AF583E49322F1
:10074E00BB010689828A83F0225002F722BBFE018A
:02075E00F32284
:10076000F8BB010DE58229F582E5833AF583E8F0CF
:10077000225006E92582C8F622BBFE05E92582C87B
:02078000F22263
:10078200C2D5EC30E709B2D5E4C39DFDE49CFCEE92
:1007920030E715B2D5E4C39FFFE49EFE1209C2C33F
:1007A200E49DFDE49CFC80031209C230D507C3E43A
:0607B2009FFFE49EFE2201
:1007B800BB010A89828A83E0F5F0A3E0225006870C
:1007C800F009E71922BBFE07E3F5F009E3192289CE
:0B07D800828A83E493F5F07401932201
:1007E300BB010789828A83020A17500B09C5F027C8
:1007F300F7C5F01937F722BBFE0D09F8E325F0F32F
:10080300C5F019E338F322F889828A8374019325AA
:08081300F0C5F0F8E49338226F
:0E081B00C3E49FFFE49EFEE49DFDE49CFC22EE
:10082900EB9FF5F0EA9E42F0E99D42F0E89C45F025
:01083900229C
:10083A00E8600FECC313FCED13FDEE13FEEF13FF9C
:03084A00D8F122C0
:10084D00BB010789828A83020A395005E9F8020A39
:10085D002DBBFE05E9F8020A4589828A83020A51F9
:10086D00BB010DE58229F582E5833AF583020A394C
:10087D005007E92582F8020A2DBBFE07E92582F80B
:10088D00020A45E58229F582E5833AF583020A518C
:10089D00BB010789828A830208E75005E9F8020A3D
:0A08AD0097BBFE05E9F8020AA3223A
:1008B700BB010DE58229F582E5833AF583020A6ECD
:1008C7005007E92582F8020A61BBFE07E92582F88D
:1008D700020A7AE58229F582E5833AF583020A87D7
:0C08E700ECF0A3EDF0A3EEF0A3EFF02284
:1008F300A8828583F0D083D08212090A12090A12D2
:10090300090A12090AE473E493A3C583C5F0C583F6
:10091300C8C582C8F0A3C583C5F0C583C8C582C84E
:0109230022B1
:0C092400A42582F582E5F03583F58322DE
:10093000FAE6FB0808E6F925F0F618E6CA3AF622C8
:10094000BB010DE58229F582E5833AF583020AB8F9
:100950005007E92582F8020AAFBBFE07E92582F8B5
:10096000020AC1E58229F582E5833AF583020ACAC3
:10097000D083D082F8E4937012740193700DA3A316
:1009800093F8740193F5828883E47374029368602A
:06099000EFA3A3A380DF2A
:1042B800120708601CFF09E970010AC0E0EAC0E0C3
:1042C800EBC0E01243F2D0E0FBD0E0FAD0E0F98096
:0A42D800DF7F0A1243F2E4FEFF222A
:103E56008B428A4389448B488A49894AAB42054446
:103E6600E544AA437002054314F912070870ED747D
:103E7600FF2544F54474FF3543F543AB450547E557
:103E860047AA467002054614F9120708FFAB420519
:103E960044E544AA437002054314F9EF12074E7035
:083EA600DAAB48AA49A94A223F
:103F55008B428A438944E4F54AF54BE5491549AE58
:103F650048700215484E6033AB45AA46A94712076B
:103F750008FFAB42AA43A944054BE54BAC4A700286
:103F8500054A14F5828C83EF120760EF60CD74014A
:103F95002547F547E43546F54680C0AB42AA43A917
:023FA5004422B4
:1043DD00E4FFFE120708600C0FEF70010E09E97083
:0543ED00F20A80EF223E
:10099600EF4E6012EF60010EEDBB010B89828A8378
:1009A600F0A3DFFCDEFA2289F05007F709DFFCA985
:0C09B600F022BBFEFCF309DFFCA9F022DC
:103AF40002441FE493A3F8E493A34003F68001F285
:103B040008DFF48029E493A3F85407240CC8C333D2
:103B1400C4540F4420C8834004F456800146F6DFA1
:103B2400E4800B0102040810204080903FF8E47EFA
:103B3400019360BCA3FF543F30E509541FFEE49396
:103B4400A360010ECF54C025E060A840B8E493A35D
:103B5400FAE493A3F8E493A3C8C582C8CAC583CA88
:103B6400F0A3C8C582C8CAC583CADFE9DEE780BE40
:01404500007A
:1009C200BC000BBE0029EF8DF084FFADF022E4CC19
:1009D200F875F008EF2FFFEE33FEEC33FCEE9DECE2
:1009E200984005FCEE9DFE0FD5F0E9E4CEFD22ED28
:1009F200F8F5F0EE8420D21CFEADF075F008EF2F72
:100A0200FFED33FD4007985006D5F0F222C398FD62
:050A12000FD5F0EA22FF
:100A1700C5F0F8A3E028F0C5F0F8E582158270026A
:060A27001583E038F02207
:0C0A2D00E6FC08E6FD08E6FE08E6FF22F5
:0C0A3900E0FCA3E0FDA3E0FEA3E0FF2230
:0C0A4500E2FC08E2FD08E2FE08E2FF22ED
:100A5100E493FC740193FD740293FE740393FF22EB
:0D0A6100E6FB08E6F908E6FA08E6CBF82205
:0C0A6E00E0F8A3E0F9A3E0FAA3E0FB220B
:0D0A7A00E2FB08E2F908E2FA08E2CBF822FC
:100A8700E493F8740193F9740293FA740393FB22C5
:0C0A9700ECF608EDF608EEF608EFF6228B
:0C0AA300ECF208EDF208EEF208EFF2228F
:090AAF00E6FB08E6FA08E6F9226C
:090AB800E0FBA3E0FAA3E0F9223F
:090AC100E2FB08E2FA08E2F92266
:0C0ACA00E493FB740193FA740293F92288
:00000001FF
