:100B43001201000200000040C410751100000102F0
:100B5300000109022000010100800F0904000002C6
:100B63000000000007058102400020070502024043
:100B73000001040309041803500053004900200036
:100B830053002E00200052006900740074002E03ED
:100B93004D005300430042002000530075006200E3
:100BA3006D00610073007400650072002000530043
:100BB300430053002D00320035003000FF0B75FF5A
:050BC3000B79FF0B910E
:1007B900E6F52318E608F618A62322AB54AA55A98C
:1007C9005622AB41AA42A94322AB2DAA2EA92F8FAB
:1007D900828E83E59702009E75960E120046F59764
:1007E9002290000512005F6403229000011200F6B6
:1007F900FDACF0120046FF227B00788E120185784D
:100809008976000822786BE6FC08E6FDD3EF9DEEB9
:100819009C22AB23AA24A925227869E6FE08E6FFD3
:1008290022AC9775960EEF54EFF59722900001E4EC
:1008390002012E900B54E493FD7868E622E4789146
:10084900F608F62275961175974022E4F608F6081F
:05085900F608764022C4
:10105D00759601759708E59620E7FB7596077597C8
:10106D000FE59620E7FB75960975970FE59620E736
:10107D00FB75960B759704E59620E7FB75D7C04376
:10108D00D72075960F759780E59620E7FB43E6020E
:10109D00D2AF759601E4F597E59620E7FB8B518A63
:0D10AD00528953853B4E853C4F853D5022B6
:03004300020EC1E9
:100EC100C0E0C0F0C083C082C0D075D000C000C0F7
:0D0ED10001C002C003C004C005C006C00778
:100EDE00759686E59620E7FBAF97759682E5962088
:100EEE00E7FB859721759684E59620E7FB8597228B
:100EFE00EF30E203121208E52130E0031202C8E5DA
:0D0F0E002230E2097B007A00796D12062185
:100F1B00D007D006D005D004D003D002D001D0002A
:0B0F2B00D0D0D082D083D0F0D0E032D4
:10120800E4FFF52375240075257BFE7823E475F04B
:1012180001120175E412008C0EBE0DEFE4787CF625
:1012280008F6787FF6788DF67888F6788BF6087663
:1012380040785F7603785BF608F678727603786E06
:0D124800F608F67596018F97E59620E7FBF6
:011255002276
:1002C800E4F52375960EF597E59620E7FB7596916C
:1002D800E59620E7FBAF97EF30E40F759611759719
:1002E80080E59620E7FBE4788DF6EF30E20F75960F
:1002F80011E4F597E59620E7FBE4788DF6EF20E02A
:10030800030203AB7B007A0079657D087C00E4FF7B
:10031800121256786A1207B9181207B9786C1207C0
:10032800B97865E654F02480603324807058786684
:10033800E614601A24FE601124FA601724FE60187F
:100348002406704212133D8041121495803C121409
:10035800D080371215438032120FFE802D7866E662
:1003680024FA601124FE601224FE6013240A70141B
:10037800120D4F8015120C4C80101213CD800B12E9
:10038800141380068000788D7602752340788DE6F8
:10039800B40205432320E4F6759611852397E59664
:1003A80020E7FBE4F523788DE66401705BD3788A57
:1003B800E6944018E69400501108E6F524E418F68F
:1003C80008F6432308788DF6800E752440788A74E1
:1003D800C026F61874FF36F6788E12016CE524FDF7
:1003E8007C007F00120ABA788E12016C7E00E92523
:1003F80024F9EE3AFA788E12018543230275961194
:08040800852397E59620E7FB30
:0104100022C9
:10133D00786AE61846700D786CE618467006787C6B
:10134D00E6B402047F02802CE4F5967868E6F59702
:10135D00E59620E7FB787CE670097868E66004780E
:10136D007C7601787CE6B401097868E67004787CB7
:08137D007601E4FF788DA6075C
:011385002245
:10149500786CE61846700F787CE6600AB401077828
:1014A5006AE6184660007865E6541F24FE60062447
:1014B500027F0280117868E6184670081208221229
:0A14C50012A480027F02788DA607B2
:0114CF0022FA
:1014D000786CE61846700F787CE6600AB4010778ED
:1014E0006AE6184660007865E6541F24FE6006240C
:1014F000027F0280117868E61846700812082212EE
:0A15000012F180027F02788DA60729
:01150A0022BE
:10154300786AE61846700C786CE618467005787C65
:10155300E670047E02801A12083CFFD39D40047E8D
:1015630002800EEF7006787C760180051210BAAE09
:0515730007788DA606BB
:011578002250
:100FFE00786CE618467039787CE6640260028030C0
:10100E007880E624FFFFE434FFFED3786AE69F186B
:10101E00E69E4002801A7B007A007985787812016C
:10102E0085120046FFD37868E69F18E694004005C7
:10103E0075250280157868E6FF787812016C9000AD
:0E104E0001EF12009E120DCD8F25788DA62584
:01105C002271
:100D4F007868E618467019786CE6640218467010D9
:100D5F00787CE6FF600AB4010C786AE618466005F5
:100D6F0075250280547865E6541F1460241460269C
:100D7F0024027036786AE618466002802DE4789275
:100D8F00F6787EE67891F6FF787FE64F7891F680D9
:100D9F001C1208468017120846120822120026BF9E
:100DAF00030B7891E64401F6800375250275250142
:0D0DBF007A0079911208017602788DA62540
:010DCC002204
:100C4C007867E624FE601C14604B240270687E00FA
:100C5C007F1212080E4004AE04AF057BFF7A0B79AD
:100C6C0043802B12083CD39D40057527028047908A
:100C7C000B57E493F526A3E493F525AE25AF261286
:100C8C00080E4004AE04AF057BFF7A0B7955788EC5
:100C9C00120185801E7868E675F003A424BFF582E6
:100CAC00E4340BF58312018E788E12018512004606
:100CBC00FF7E007527017889A60608A607788DA601
:010CCC002700
:010CCD002204
:1013CD00786CE664011846701218E61846700C1811
:1013DD00E618467006787CE6FE70047F02801BEEF0
:1013ED00B4010A120846FB7A00799180067BFF7AD8
:1013FD000B795A788E1201857F01788976000876EF
:05140D0001788DA60727
:0114120022B7
:101413007868E618467010786CE664011846700721
:10142300787CE6640260047F0280237880E624FFF0
:10143300FDE434FFFCD3786AE69D18E69C40047F04
:1014430002800B7A00798612080176017F01788D7C
:02145300A607EA
:011455002274
:1012A40075968EE59620E7FB12082AE59620E7FB63
:1012B400EE702BEF24FE6013248170227596117555
:1012C4009710E59620E7FB785F800D759614759767
:1012D40020E59620E7FB78727603E4FD80027D0228
:0C12E40075960E8C97E59620E7FBAF0591
:0112F00022DB
:1012F10075968EE59620E7FB12082AE59620E7FB16
:10130100EE702AEF24FE60132481702112084DE54E
:101311009620E7FBE4785FF6FD80147596147597C7
:1013210080E59620E7FBE47872F6FD80027D027588
:0B133100960E8C97E59620E7FBAF05B9
:01133C00228E
:10002600EE7015EF24FE600A2481700C785FE6FD01
:0C00360080087872E6FD80027D02AF05B4
:01004200229B
:0210BA008F2580
:1010BC00E4F5267BFF7A0B79557882120185900036
:1010CC000512005F65256005752602803378821253
:1010DC00016C90000412005F7880F60876017B00AA
:1010EC007A007985900002E412009E900001E412CF
:1010FC00009EE412008C120DCD787C760218A62589
:02110C00AF260C
:01110E0022BE
:100DCD00E4FF75968EE59620E7FBAE979000021234
:100DDD00005F705B75960E759701E59620E7FB75C4
:100DED009612759720E59620E7FB759615E4F59715
:100DFD00E59620E7FB785B120854785A7681785F88
:100E0D00F675960E759702E59620E7FB759612E43A
:100E1D00F597E59620E7FB786E120854786D76020B
:100E2D007872F675960EF597E59630E70480F97FA2
:0B0E3D000275960E8E97E59620E7FBED
:010E48002287
:060621008B238A248925C9
:10062700E4F5281207E1E59620E7FB759694E59631
:1006370020E7FB859729759695E59620E7FB859733
:100647002A12081B1207EA70030206FBE52930E6A7
:100657000B759614759780E59620E7FBE52920E052
:10066700030206FB759696E59620E7FB85972875A6
:100677002600852827759697E59620E7FB85972816
:10068700E528FEEE4226D3E5279440E52694005060
:100697002F12081B120046FFAB51AA52A953AD27D0
:1006A700AC2612125612081B900001E5268527F08A
:1006B70012012EAB4EAA4FA950E52712008C800BD2
:1006C700759614759710E59620E7FB75960E120838
:1006D7001B120046F597E59620E7FB759614E4F59F
:1006E70097E59620E7FB759694E59620E7FB8597B7
:0406F700290206636B
:0106FB0022DC
:060902008B548A55895652
:100908001207E1E59620E7FB759691E59620E7FB4F
:10091800859757759692E59620E7FB8597581207B5
:10092800C41207EA606FE55730E50812084DE596EE
:1009380020E7FBE55720E05D7A017B2C7D017F00F5
:100948001211B61207C475F008120835AB51AA5235
:10095800A953C003C002C0011207C49000061201C7
:10096800CA1207C490000612019AC003C002C0014F
:100978001207C41207F3D001D002D003120ABA75C5
:100988009611759701E59620E7FB759691E59620F7
:05099800E7FB85975705
:01099D002237
:06085E008B3E8A3F894039
:100864007B007A00795A8B418A4289431207E1E579
:100874009620E7FB759691E59620E7FB85974475EE
:100884009692E59620E7FB8597451207CB1207EA77
:10089400606BE54430E50812084DE59620E7FBE57A
:1008A4004420E059EDD394004053AF051207CB8F99
:1008B400F0120835AB3EAA3FA940C003C002C001F4
:1008C4001207CB9000061201CA1207CB9000061241
:1008D400019AC003C002C0011207CB1207F3D00172
:1008E400D002D003120ABA759611759701E59620C5
:0D08F400E7FB759691E59620E7FB8597449C
:0109010022D3
:0A1256008C2B8D2C8B2D8A2E892FF6
:10126000E52C452B603DEF2420F530543FF59643A7
:1012700096C0E4FFFEE52C24FFFDE52B34FFFCC304
:10128000EF9DEE9C500FE59620E7FB1207D20FBFB3
:1012900000010E80E0E530543FF596E59620E7FB2F
:0312A0001207D260
:0112A3002228
:100ABA00155915591559A85912018515591559A8C5
:100ACA0059A60408A6051559A859A607155915596E
:020ADA001559AC
:100ADC00E5592404F909E719476055E5592403F849
:100AEC00E62420A859F6E59620E7FBA859E6543FE2
:100AFC00F596A85908E4F608F6E5592404F9A8591E
:100B0C0008E6FE08E6FFC30997EE19975022E5594F
:100B1C002406F812016C8F828E8312005FF597E524
:100B2C009620E7FBA859080806E61870CC0680C981
:070B3C00E5592409F55922D7
:10041100005EBCE2613FDD83C29C7E20A3FD1F41E3
:100421009DC3217FFCA2401E5F01E3BD3E6082DCD3
:10043100237D9FC1421CFEA0E1BF5D0380DE3C62C3
:10044100BEE0025CDF81633D7C22C09E1D43A1FFB3
:100451004618FAA427799BC584DA3866E5BB5907A3
:10046100DB856739BAE406581947A5FB7826C49A93
:10047100653BD987045AB8E6A7F91B45C6987A2483
:10048100F8A6441A99C7257B3A6486D85B05E7B973
:100491008CD2306EEDB3510F4E10F2AC2F7193CD63
:1004A100114FADF3702ECC92D38D6F31B2EC0E5053
:1004B100AFF1134DCE90722C6D33D18F0C52B0EE43
:1004C100326C8ED0530DEFB1F0AE4C1291CF2D7333
:1004D100CA947628ABF517490856B4EA6937D58B23
:1004E1005709EBB536688AD495CB2977F4AA481613
:1004F100E9B7550B88D6346A2B7597C94A14F6A803
:10050100742AC896154BA9F7B6E80A54D7896B35F2
:0A05110000000000306498CCDDEF1C
:0316690001110A62
:10110F001559A859EDF61559A859EFF6A859E6FF44
:10111F00C3940222A859E6FF25E025E02496F82281
:10112F00A859E625E025E02494F822E51175F0642E
:10113F00A4FFC3E5139FE51295F022EF25E025E00C
:10114F002493F822EF25E025E02495F82215591570
:04115F0059A8592210
:100E490012115CECF608EDF6155912115C120185C8
:060E5900E55924FCF559E7
:100E5F00F80808E4F6A859F608F6E5592407F9A8A2
:100E6F0059E6FE08E6FFC3099719E76480F8EE64B8
:100E7F0080985031E5592404F812016C8F828E83CB
:100E8F0012005FA859080866FFE5592403F8EFF62A
:100E9F00E690041193A8590808F6A8590806E61811
:0B0EAF0070B80680B5A8590808E6FFDF
:070EBA00E5592409F5592256
:07000300ED6F90041193FF63
:01000A0022D3
:1015A400EF701B7598D0E589540F4420F589438E5C
:1015B40008ED90051093F58DD28ED2ACC2BCD2AF9B
:0115C4002204
:10138600D2AFD2A9C2BBE589540F4401F589E4F571
:101396008E758CDBF58AD28CF517F516F515F514D6
:1013A600F51BF51AF519F518751064FF12114AE4C4
:1013B600F6EF121132E4F6121153E4F6EF1211278A
:0613C600E4F60FBF02E691
:0113CC0022FE
:020F9B001559E6
:100F9D00A859E4F612111B5055EF121127E6FFD395
:100FAD009400403212112FE6702CEF30E00D12112B
:100FBD0023E6D3940140047D0080067D01A859E607
:100FCD00FF12150B12112316E6600B121153E6FEDC
:100FDD00EF121132EEF612112FE6600116121123E7
:0E0FED00E670057D0112150BA85906020FA132
:030FFB0005592273
:03000B00020BC81D
:100BC800C0E0C0F0C083C082C0D0E8C0E0E9C0E0A7
:100BD800EAC0E0EBC0E0ECC0E0EDC0E0EEC0E0EF62
:100BE800C0E0758CDCE5172401FFE43516FEE4351A
:100BF80015FDE435148F178E168D15F514D5101BB9
:100C0800E51B2401FFE4351AFEE43519FDE4351827
:100C18008F1B8E1A8D19F518751064120F9B1216FA
:100C280002D0E0FFD0E0FED0E0FDD0E0FCD0E0FB59
:100C3800D0E0FAD0E0F9D0E0F8D0D0D082D083D09C
:040C4800F0D0E032D6
:10162A0012110F500808E6FE12114AEEF605590586
:02163A00592233
:1011B60012115CEAF608EBF612110F503EEF12110F
:1011C60027E67037A859E6FB121132E6702DA859AA
:1011D60008E625E004FFA859E6FA121127EFF6A85B
:1011E600590808E6FE08E6FF7C007D0A1200C0EA00
:1011F600121154EFF6EB121132E4F6E5592404F518
:0212060059226B
:10150B0012110F501712114AE66011A85908E67014
:10151B00047F0180027F00A85908EFF6A859E670F6
:10152B000608E624FF9292A859E6B4010608E624C1
:08153B00FF92930559055922A6
:0C163C00C2AFAF17AE16AD15AC14D2AFA4
:01164800227F
:0C164900C2AFAF1BAE1AAD19AC18D2AF87
:011655002272
:1015E5001559A859EFF6A859E67004F512F5133008
:0D15F500000812113A5003E4F5FE055922DA
:1015C500D200E4F512F513EF6004F51180037511EF
:1015D5000AE4F5D975FDFF75D940F5FE75EF0622CC
:0A165600C200E4F512F513F5D922E5
:101602000513E5137002051230000812113A500357
:04161200E4F5FE22DB
:041579008E1C8F1D18
:10157D00E4F51EF51FC3E51F951DE51E951C5016C0
:10158D007FE87E031211637F011215E5051FE51F2C
:06159D0070E3051E80DF73
:0115A3002225
:041163008E3D8F3EF0
:10116700D3E53E94FAE53D9400500BEFD39400404D
:101177003D00001F80F5853D3F853E40D3E5409407
:10118700FAE53F940040157FFA7E0012116374065A
:101197002540F54074FF353FF53F80E0D3E53E94A9
:0E11A70000E53D94004007AF40AE3F121163DB
:0111B5002217
:091660005355424D5F3235300054
:10161600900040F07B017A007940227A007B327D8F
:04162600017F01221D
:100F360012165675E10175E24075A49075D40C75CC
:100F4600F1F375A602E4F5B143B203F5B943B980EE
:100F5600FF0FBF64FC43B9C0E5B930E5FB75FF8000
:100F6600E5FF30E6FB121386C2907D08E4FF1215FA
:100F7600A4D2BC7F00120F917F01120F917D017FD9
:0B0F86000012162A7F017E000211639A
:0A0F91007A007B967D031211B62250
:03002300020CCEFE
:100CCE00C0E0C083C082C0D075D008309954C2999C
:100CDE000547E547C395485033E547C39405500C87
:0E0CEE0074482547F8E66004D29B8002C29B42
:0E0CFC007531140075320100D532FCD531F58A
:100D0A0074002547F582E43400F583E0F5998016EE
:0E0D1A0075310A0075320100D532FCD531F575
:100D2800C290754800754700309813AF4605467461
:100D3800402FF582E43400F583E599F0C298D0D0CD
:070D4800D082D083D0E0321D
:10145600900001E0FFB4200375EF10EFB46117129E
:1014660016211211B69000407478F0A37405121676
:10147600197D0212085E900001E0FFB41002B293DB
:0F148600EFB4410A74781216167D0112085E2227
:04099E008F388D39C8
:1009A200E4F546E53930E4061214567F00227E0053
:1009B2007F047D007B007A007949120223E53930F9
:1009C200E01C753A01E53AC395385012E53AC394F2
:1009D20005500B7448253AF87601053A80E7E53967
:1009E20030E524900001E0B41005753B02800375E8
:1009F2003B04E4F53AE53AC3953B500B7449253A7A
:100A0200F87601053A80EEE54924FF929B85384845
:0E0A1200753C1400753D0100D53DFCD53CF54A
:0D0A2000D290900001E0F5997547017F012B
:010A2D0022A6
:10051B00EF30E103020620EF30E208753B00753C3B
:10052B00048012EF30E308753BC3753C50800675B1
:10053B003B00753C64E4F538F539F53AC3E53A957B
:10054B003CE539953B400302060C900001E0FF644B
:10055B001A6005EF641A700FE5466401700990008C
:10056B0040E0B478028023900001E0FF64A1600DAD
:10057B00EF640A7022900005E064A1701AE54664EE
:10058B00017014900040E0B4780D1216211211B6D0
:10059B0012161A7D01804EE546D39400404C900014
:1005AB0040E0FF547864787041EF5407F5386407E6
:1005BB00701FE546D394014018A3E02403F53830AF
:1005CB00E713E546D39402400CA3E02404F53880EE
:1005DB000405380538E546B538101216211211B648
:1005EB0012161AAD3812085E80177F001215E57FC0
:1005FB00647E00121163053AE53A70020539020573
:10060B0047E53AB53C0FE539B53B0A74FF121616B0
:05061B007D0112085EE4
:0106200022B7
:1006FC00E4F537F536F535F534120F36753B0075E4
:10070C003C00753D4D7B017A00790012105DE4F5DB
:10071C004D7F021215C57F001215E512163CE47BC5
:10072C002C7A01F9F8C312015B500375EF86E54D85
:10073C0060E412163C8F378E368D358C347A007B04
:10074C00327D017F001211B6E54D640170209000DE
:10075C0000E0701A7BFF7A16796012000EEF04FD30
:10076C007BFF7A16796012085EE4F54D80A8900044
:10077C0000E0F533854D48AD33AF4812099EEF606C
:10078C0026E54860077F001215E580F5AF331205AA
:10079C001B900001E0B4100F900003E0B43908A3E3
:0D07AC00E0FDE4FF1215A4E4F54D02072264
:03000000020A2EC3
:0C0A2E00787FE4F6D8FD75819A020A7505
:10004600BB010689828A83E0225002E722BBFE02B8
:09005600E32289828A83E49322EB
:10005F00BB010CE58229F582E5833AF583E0225056
:10006F0006E92582F8E622BBFE06E92582F8E222A0
:0D007F00E58229F582E5833AF583E49322BA
:10008C00BB010689828A83F0225002F722BBFE0153
:02009C00F3224D
:10009E00F8BB010DE58229F582E5833AF583E8F098
:1000AE00225006E92582C8F622BBFE05E92582C844
:0200BE00F2222C
:1000C000C2D5EC30E709B2D5E4C39DFDE49CFCEE5B
:1000D00030E715B2D5E4C39FFFE49EFE12024FC382
:1000E000E49DFDE49CFC800312024F30D507C3E47D
:0600F0009FFFE49EFE22CA
:1000F600BB0110E58229F582E5833AF583E0F5F048
:10010600A3E0225009E92582F886F008E622BBFE24
:100116000AE92582F8E2F5F008E222E5832AF5836A
:08012600E993F5F0A3E993222F
:10012E00F8BB0111E58229F582E5833AF583E8F003
:10013E00E5F0A3F0225009E92582C8F608A6F022C0
:0D014E00BBFE09E92582C8F2E5F008F222A7
:10015B00EB9FF5F0EA9E42F0E99D42F0E89C45F0FA
:01016B002271
:09016C00E6FB08E6FA08E6F922B8
:10017500FAE6FB0808E6F925F0F618E6CA3AF6228B
:09018500EBF608EAF608E9F6229F
:0C018E00E493FB740193FA740293F922CD
:10019A00BB010DE58229F582E5833AF5830202A4C3
:1001AA005007E92582F802016CBBFE07E92582F8AF
:1001BA000202B6E58229F582E5833AF58302018EC9
:1001CA00BB0120E58229F582E5833AF583D0F0D098
:1001DA00E0F8D0E0F9D0E0FAD0E0FBE8C0E0C0F007
:1001EA000202AD5018E92582F8D083D082D0E0F916
:1001FA00D0E0FAD0E0FBC082C083020185BBFE18C2
:10020A00E92582F8D083D082D0E0F9D0E0FAD0E0B4
:09021A00FBC082C0830202BF2276
:10000E00E4FFFE120046600C0FEF70010E09E9705E
:05001E00F20A80EF2250
:10022300EF4E6012EF60010EEDBB010B89828A83F2
:10023300F0A3DFFCDEFA2289F05007F709DFFCA9FF
:0C024300F022BBFEFCF309DFFCA9F02256
:100A3A000206FCE493A3F8E493A34003F68001F2D0
:100A4A0008DFF48029E493A3F85407240CC8C333BD
:100A5A00C4540F4420C8834004F456800146F6DF8C
:100A6A00E4800B0102040810204080901669E47E9D
:100A7A00019360BCA3FF543F30E509541FFEE49381
:100A8A00A360010ECF54C025E060A840B8E493A348
:100A9A00FAE493A3F8E493A3C8C582C8CAC583CA73
:100AAA00F0A3C8C582C8CAC583CADFE9DEE780BE2B
:01166C00007D
:10024F00BC000BBE0029EF8DF084FFADF022E4CC93
:10025F00F875F008EF2FFFEE33FEEC33FCEE9DEC5C
:10026F00984005FCEE9DFE0FD5F0E9E4CEFD22EDA2
:10027F00F8F5F0EE8420D21CFEADF075F008EF2FEC
:10028F00FFED33FD4007985006D5F0F222C398FDDD
:05029F000FD5F0EA227A
:0902A400E0FBA3E0FAA3E0F9225B
:0902AD00EBF0A3EAF0A3E9F02252
:0902B600E2FB08E2FA08E2F92279
:0902BF00EBF208EAF208E9F22270
:00000001FF
