:105FBE0020002A2A2000202A2A20002020204164A6
:105FCE0064726573733A20202530345800202052B5
:105FDE0065766973696F6E3A202025730020205212
:105FEE0065762E204C69623A20202573004D656D32
:105FFE006F727920746573742E2E2E004D656D6F41
:10600E007279206572726F722062616E6B202562EA
:10601E0064004E6577206D6F64756C6520696E2027
:10602E00706F72742025626400506C657365207306
:10603E00656C6563743A003E2530326258202573D4
:10604E002020202020202020202020200053454CDE
:10605E00202020202020202020202020204E4558A7
:10606E00540053454C202020202020202050524503
:10607E005620202020200053454C20202020202078
:10608E00202050524556204E45585400534C4156F0
:10609E0045204D4F4445004D4F442020564152530C
:1060AE0020205359532020202020200050256264A8
:1060BE003A253032625820257320202020202020BF
:1060CE0020202000202020202020202020202020E2
:1060DE002020202020202020004553432020202057
:1060EE002020002020256320002020202000455362
:1060FE00432045524153452020202020202020209F
:10610E0020200045534320455241534520205052F4
:10611E004556204E4558540020202020457261736C
:10612E0065206D6F64756C65202020200020202076
:10613E0020696E20706F727420256264203F2020CB
:10614E0020005343532D3230303100245265763ABD
:08615E002033393837202400FA
:1086A70001A101C114C10FC110C111C11344004D73
:1086B7000000000044005100000000019F0001A0DD
:0186C70000B2
:02441F008F42CA
:10442100901AD074FFF07D017F00128C257D007FF2
:1044310001128C25E4901C45F0901C45E0FFC394CB
:1044410003500D7D01128CDE901C45E004F080E9E3
:10445100128DAFEF24FF920920090302469BE5422A
:104461007003024594E4901C48F0901C45F0901CA8
:1044710045E0FFC394184003024594741C2FF58254
:10448100E43400F583E0901C47F0F4700302458B9F
:10449100E075F00BA42438F582E5F03437F583E4B8
:1044A10093FB740193FA740293F9EA494B70030286
:1044B100458BE4901C46F0901C45E02434F582E4E1
:1044C1003400F583E0FF901C46E0C39F5040AB767B
:1044D100AA77A978901C48E0FF75F01FA4F58285A2
:1044E100F083120743FD7C00C004C0057D00EF7519
:1044F100F01FA429F9EA35F0FA90000D120A47D00D
:1045010007D006120AFC901C46E004F080A9901C1A
:1045110048E0FF04F0EF75F01FA4AB762578F9E5CC
:104521007735F0FA90000D120A47157D157D157D3E
:10453100A87DA60308A60208A601901C46E0157DE9
:10454100A87DF6901C45E0FF5407157DA87DF6EF88
:10455100131313541FFB7D04E02455F582E434004A
:10456100F583E0FF901C47E075F00BA42438F58239
:10457100E5F03437F583740193FA740293F5828A76
:1045810083120AFA901C48E004F0901C45E004F004
:1045910002446FE4901C45F0901C45E0FFC3941861
:1045A100400302463F741C2FF582E43400F583E09A
:1045B100FFF4700302463675F00BEFA42438F58240
:1045C100E5F03437F583E493FB740193FA740293B5
:1045D100F9EA494B605F157D157D157DA87D760053
:1045E100087600087600157DA87DE4F6901C45E06C
:1045F100FF5407157DA87DF6EF131313541FFB7DA0
:1046010001E0FE2455F582E43400F583E0FF741CDB
:104611002EF582E43400F583E075F00BA42438F51F
:1046210082E5F03437F583740193FA740293F582CD
:104631008A83120AFA901C45E004F0024599E4903D
:104641001C45F0901C45E0FFC3788D96500B128AF3
:10465100F2901C45E004F080EAE4901C45F0AB7652
:10466100AA77A978901C45E0FF75F01FA4F5828513
:10467100F0831207436023EF75F01FA429F9EA358F
:10468100F0FA90000412074330E507901C45E01250
:1046910080A4901C45E004F080C4E4FDFF128E0864
:1046A100E4901C45F07B007A00790F12000E7C002B
:1046B1007D021207B6C374079FFFE49EFE901C455E
:1046C100E0C39FEE6480F874809850117BFF7A5F9D
:1046D10079BE128BD2901C45E004F080C87BFF7A32
:1046E1005F79C0128BD27B007A00790F128BD27B5B
:1046F100FF7A5F79C4128BD27D01E4FF128E087BB1
:10470100FF7A5F79C9850949850A4A12301B7D0202
:10471100E4FF128E087549FF754A61754B5F754C50
:1047210000754D067B017A1C79491286F97B017A65
:104731001C79497D20128D78E41207707549017545
:104741004A1C754B497BFF7A5F79DB12301B7D0375
:10475100E4FF128E087549FF754A35754B39754C62
:1047610000754D067B017A1C79491286F97B017A25
:104771001C79497D20128D78E41207707549017505
:0E4781004A1C754B497BFF7A5F79EB02301BB7
:07854000EF24FF920A7F0106
:10854700E4F58420140FD214F58475D103F5BA75B8
:0D855700BC9875E880C374079F5407F5BBFE
:0D85640075440275451300D545FCD544F65D
:10857100C2AFC2EDD2EC30EDFDD2AFAFBFEFFFAD78
:10858100BEED901C59CFF0A3EFF0C3E094E8901C2E
:0C85910059E0940350047F0180027F0039
:01859D0022BB
:108D9400EF540725E0FEEF30E306CE4420CE8004F6
:0A8DA400CE4410CECE44C0CE8EC8DF
:018DAE0022A2
:10663B00128E737D017F02128E087BFF7A5F79FBCE
:10664B0012301BE47887F618F67886E6FFC39410B1
:10665B00400302678C128D94E6FF7D03128E087F38
:10666B00DA128DDE7F00128BFC900000AF82AE83BE
:10667B00C3EF94FFEE94FF5005E4F0A380EEE4F536
:10668B0083F582AF82AE83C3EF94FFEE94FF500C81
:10669B00E06006788776018003A380E77886E6FFC3
:1066AB007D03128E087FD9128DDEE4F583F582AF60
:1066BB0082AE83C3EF94FFEE94FF50067455F0A3A4
:1066CB0080EDE4F583F582AF82AE83C3EF94FFEEEA
:1066DB0094FF500EE064556006788776018003A323
:1066EB0080E57886E6FF7D03128E087FD8128DDE5B
:1066FB00E4F583F582AF82AE83C3EF94FFEE94FF94
:10670B00500674AAF0A380EDE4F583F582AF82AE58
:10671B0083C3EF94FFEE94FF500EE064AA600678FB
:10672B008776018003A380E57886E6FF7D03128ED2
:10673B00087FD7128DDEE4F583F582AF82AE83C37B
:10674B00EF94FFEE94FF500674FFF0A380EDE4F599
:10675B0083F582AF82AE83C3EF94FFEE94FF500DAF
:10676B00E0F46006788776018003A380E67886E6FE
:10677B00FF7D03128E087FD6128DDE7886060266A9
:10678B0054E4FF128D947887E660267D02E4128E26
:10679B00087BFF7A60790A7886E6F54912301B7F11
:1067AB0000128BFCE4FF128547EF24FF920A300A9C
:0167BB00EEEF
:0167BC0022BA
:10833600E4F58475A33CF5A275A10475840F759CBC
:10834600FF759DFF759EFF759FFF75F8FF75E8FF2A
:1083560075D8FF75C8FFFF128D94E4FDFCF582F514
:1083660083E0FF7E007455F0E064556009EFF0E4A9
:10837600F584F5A3FF228D828C83EFF07F08128DA2
:1083860094E0FF7E0074AAF0E0B4AA0AEFF0E4FFDE
:10839600128D947F02228D828C83EFF0E4FF128D82
:0283A600940F32
:0183A80022B2
:1024330075840F75A4F575A5FF75A6FF75A70FE441
:10244300F584F5BA75BC9875E880F5D1F58475D136
:1024530003F58475D48075840175D480128E8C1233
:102463008336900003EFF0E4F584EFD39400400F3C
:10247300E5EF5402D39400400612663B1289FBE455
:10248300901C4DF0901C4BF0901C4AF07542177550
:1024930043CC901C47F0901C47E0FFC39403500EBD
:1024A300128DC7EF6008901C47E004F080E8901C91
:1024B30047E090004CF0E4901C47F090004CE0FEA5
:1024C300901C47E0FFC39E5019D2127D01128CFE6F
:1024D3007D01901C47E0FF128CDE901C47E004F066
:1024E30080D975760175770075786DE4901C45F099
:1024F300901C45E0FFC394184003022A1E74552F15
:10250300F582E43400F583E4F074342FF582E43487
:1025130000F583E4F0741C2FF582E43400F5837432
:10252300FFF07B017A1C7946EF5407FDEF13131379
:10253300541FFF126177901C46E0D39400500302AE
:102543002A15E4A3F0901C47E075F00BA42430F5A2
:1025530082E5F03437F583E493FF6011901C46E085
:10256300FEEF6E6008901C47E004F080D8901C4694
:10257300E06F600302289D901C45E02434F582E45B
:102583003400F583E4F0901C49F0901C47E0FF759C
:10259300F00BA42437F582E5F03437F583E493FE9A
:1025A300901C49E0FDC39E400302286E75F00BEFBB
:1025B300A42434F582E5F03437F583E493FB740106
:1025C30093FA740293F9ED75F01FA4FFE92FF9EA6A
:1025D30035F0FA90000D120A47CFE9CF901C4CEF6B
:1025E300F07003022757E4901C48F0901C4CE0FF66
:1025F300901C48E0C39F4003022865901C47E07588
:10260300F00BA42434F582E5F03437F583E493FB2F
:10261300740193FA740293F9EAC0E0E9C0E0901CF4
:102623004AE075F01FA42578F9E57735F0C8E9C8C5
:10263300FCAD76D0E0F9D0E0FA7E007F1F1206E20F
:10264300901C4AE075F01FA4AB762578F9E5773541
:10265300F0FAE92405F9E43AFA7D25128D78EA497E
:102663004B603C901C45E0FFD394094005EF2437B1
:102673008006901C45E02430FFEFC0E0901C4AE048
:1026830075F01FA4AB762578F9E57735F0FAE924E0
:1026930005F9E43AFA7D25128D78D0E0120770909F
:1026A3001C4AE075F01FA4AB762578F9E57735F081
:1026B300FAE92405F9E43AFA7D23128D78EA494BC5
:1026C300602D901C48E02430FFEFC0E0901C4AE0EE
:1026D30075F01FA4AB762578F9E57735F0FAE92490
:1026E30005F9E43AFA7D23128D78D0E0120770AA37
:1026F30042A9437B01EBC0E0EAC0E0E9C0E0901CE3
:102703004AE075F01FA4AB762578F9E57735F0FA42
:1027130090000D120A77AB76AA77A978901C4AE04D
:1027230075F01FA4F58285F0831207432543F54313
:10273300E43542F542901C4AE004F0901C45E02445
:1027430034F582E43400F583E004F0901C48E0049F
:10275300F00225EE901C47E075F00BA42434F582BB
:10276300E5F03437F583E493FB740193FA74029331
:10277300F9901C49E075F01FA4FFE92FF9EA35F041
:10278300FAEAC0E0E9C0E0A3E075F01FA42578F9F8
:10279300E57735F0C8E9C8FCAD76D0E0F9D0E0FACA
:1027A3007E007F1F1206E2901C4AE075F01FA4AB67
:1027B300762578F9E57735F0FAE92405F9E43AFA6C
:1027C3007D25128D78EA494B603C901C45E0FFD390
:1027D30094094005EF24378006901C45E02430FF20
:1027E300EFC0E0901C4AE075F01FA4AB762578F9A2
:1027F300E57735F0FAE92405F9E43AFA7D25128DF7
:1028030078D0E0120770AA42A9437B01EBC0E0EA4B
:10281300C0E0E9C0E0901C4AE075F01FA4AB762548
:1028230078F9E57735F0FA90000D120A77AB76AABE
:1028330077A978901C4AE075F01FA4F58285F08390
:102843001207432543F543E43542F542901C4AE021
:1028530004F0901C45E02434F582E43400F583E071
:1028630004F0901C49E004F002258D901C46E0FF23
:10287300901C45E0FE2455F582E43400F583EFF027
:10288300901C47E0FF741C2EF582E43400F583EFBF
:10289300F0901C4BE004F0022A15128E73E4FDFF46
:1028A300128E087BFF7A607920901C45E0F549126F
:1028B300301B7D01E4FF128E087BFF7A60793712AB
:1028C300301BE4901C47F07D02E4FF128E08901C3D
:1028D30047E0FF75F00BA42430F582E5F03437F5BB
:1028E30083E493F54975F00BEFA42431F582E5F009
:1028F3003437F583E493FB740193FA7402938B4AA0
:102903008A4BF54C7BFF7A60794512301B7D03E4DB
:10291300FF128E08901C47E070087BFF7A60795B9A
:102923008022901C47E075F00BA4243BF582E5F070
:102933003437F583E4937BFF70067A607970800403
:102943007A60798512301B7F00128BFCE4FF1285BD
:1029530047128540EF24FF920B7F02128547EF2435
:10296300FF920C7F03128547EF24FF920D200A0983
:10297300200B06200C03300DCE300A44901C47E098
:1029830075F00BA42430F582E5F03437F583E49336
:10299300FB901C45E0FF5407FDEF131313541FFF77
:1029A3001253DD901C45E014F0300A0CE4FF12854D
:1029B30047EF24FF920A80F1901C4D7401F080527E
:1029C300300C1B901C47E0D394004003E014F0301C
:1029D3000C0C7F02128547EF24FF920C80F1200D2F
:1029E300030228CA901C47E075F00BA4243BF58230
:1029F300E5F03437F583E4936006901C47E004F078
:102A0300200D030228CA7F03128547EF24FF920D8E
:102A130080EE901C45E004F00224F3AB76AA77A97C
:102A230078901C4AE075F01FA4F58285F083E412C8
:0E2A33000782901C4DE06006E4F58475EF10FC
:012A41002272
:108AF200157DA87DEFF6A87DE6FF131313541F24FE
:108B020004F582E43400F583E0FEEF5407FF7401BC
:0F8B1200C8EFC8088002C333D8FC4EF0057D229F
:058E99008F387F00226C
:108DF40012072A901AD0F0AB3BAA3CA93D74011289
:048E04000770FF22D2
:10386E0030220C128E73E4900000F0A374FFF0204F
:10387E0009137D017F05128E087BFF7A60799A12FB
:10388E00301B7F0022300E03023927E4FDFF128E1B
:10389E0008E4901C55F07B007A00790F12000E7C24
:1038AE00007D021207B6C374079FFFE49EFE901CB4
:1038BE0055E0C39FEE6480F874809850117BFF7AB8
:1038CE005F79BE128BD2901C55E004F080C87BFF4E
:1038DE007A5F79C0128BD27B007A00790F128BD26D
:1038EE007BFF7A5F79C4128BD27D01E4FF128E08C2
:1038FE007BFF7A5F79C9850949850A4A12301B7D9B
:10390E00027F01128E0812883D7D03E4FF128E089D
:10391E007BFF7A6079A5128BD2200E03023C519068
:10392E000001E0FF900000E06F7003023A83C208CE
:10393E00E4901C56F0901C55F0901C58F0901C55BD
:10394E00E0FFC394184003023A2974552FF582E420
:10395E003400F583E07003023A20901C56E004F028
:10396E00900000E0FF901C56E0D39F5003023A20D7
:10397E00901C58E0FDE4FF128E08E4901C57F09066
:10398E001C57E075F00BA42430F582E5F03437F5C2
:10399E0083E493FF601B901C55E02455F582E434BC
:1039AE0000F583E0FEEF6E6008901C57E004F08097
:1039BE00CE901C57E0FF75F00BA42430F582E5F095
:1039CE003437F583E493FE603A901C58E0B4030458
:1039DE00D2088047901C55E0F5498E4A75F00BEFE2
:1039EE00A42431F582E5F03437F583E493FB7401BA
:1039FE0093FA7402938B4B8A4CF54D7BFF7A607968
:103A0E00BA80067BFF7A6079D212301B901C58E088
:103A1E0004F0901C55E004F002394B7D03E4FF12D4
:103A2E008E087BFF7A6079E7128BD27D037F1012AE
:103A3E008E087BFF30080C7A6079F17549131230CD
:103A4E001B80077A6079F7128BD27D037F0A128E64
:103A5E0008900000E0D394007BFF400C7A6079F16F
:103A6E0075491212301B80077A6079F7128BD2904B
:103A7E000000E0A3F030080C300D09201306900072
:103A8E0000E004F0900000E0D394004009300C06F2
:103A9E00201103E014F0300A0C200F09C20EA20A06
:103AAE00920F128E73300B03023C51201003023C16
:103ABE0051E4900002F0901C55F0900002E0FFC31C
:103ACE009418501FEF5407FDEF131313541FFF12DA
:103ADE008C73EF6006901C55E004F0900002E00439
:103AEE00F080D7E4900002F0900002E0FFC394183B
:103AFE005019EF5407FDEF131313541FFF128C735D
:103B0E00EF7008900002E004F080DD901C55E0702C
:103B1E0002FF22128E737D03E4FF128E08901C5555
:103B2E00E07BFF70067A6079FC80047A617911126D
:103B3E00301BE4FDFF128E087BFF7A61792612306E
:103B4E001B7D01E4FF128E087BFF7A61793B9000AA
:103B5E0002E0F54912301B7F00128BFCE4FF128548
:103B6E0047128540EF24FF920B7F02128547EF2408
:103B7E00FF920C7F03128547EF24FF920D200A0956
:103B8E00200B06200C03300DCE300A1F300A0CE439
:103B9E00FF128547EF24FF920A80F1128E73900078
:103BAE000174FFF0C210C20F7F0022300B237BFF87
:103BBE00900002E0FD7F001253DD300B0C7F0112EE
:103BCE008547EF24FF920B80F1E4F58475EF1080AA
:103BDE0072300C3280127D18900002E013131354D1
:103BEE001FFF128C73EF700F900002E0241775F018
:103BFE001884E5F0F080DF300C0C7F02128547EF61
:103C0E0024FF920C80F1200D03023B4080159000A2
:103C1E0002E0FF5407FDEF131313541FFF128C73B2
:103C2E00EF700E900002E00475F01884E5F0F0805D
:103C3E00DD200D03023B407F03128547EF24FF92E8
:103C4E000D80EE200E0D200B0A301007A20B9210E5
:103C5E007F0122200E0D200C0A301107A20C9211AA
:103C6E007F0222300A0F200F0CD20E128E7390009C
:103C7E0000E004A3F0A20A920FA20B9210A20C92E3
:073C8E0011A20D92137F004B
:013C9500220C
:10408900200903024378E4901C45F0901C45E0FFA9
:10409900131313541F2404F582E43400F583E0FD5F
:1040A9007C00EF5407FF74017E00C8EFC808800543
:1040B900C333CE33CED8F9FFEE5CFEEF5D4E70030D
:1040C900024215E4901C46F0901C49F0901C49E00E
:1040D900FFC3941840030241E574342FF582E43498
:1040E90000F583E0FF901C46E0FD2FFFE433FE90CE
:1040F9001C45E0FCFBD3EF9B7480F86E98500302DB
:1041090041C7EC9DA3F0901C49E0241CF582E434DE
:1041190000F583E0901C47F0F470030241E5E07577
:10412900F00BA42438F582E5F03437F583E493FBEA
:10413900740193FA740293F9EA494B70030241E559
:10414900901C45E075F01FA4AB762578F9E5773525
:10415900F0FA90000D120A47157D157D157DA87D91
:10416900C6EBC608C6EAC608C6E9C6901C46E015ED
:104179007DA87DF6901C49E0FF5407157DA87DF6C2
:10418900EF131313541FFB7D02901C47E0FE75F0DB
:104199000BA42430F582E5F03437F583E493FF75F9
:1041A900F00BEEA42438F582E5F03437F583740179
:1041B90093FA740293F5828A83120AFA801E901C7C
:1041C90049E02434F582E43400F583E0FF901C468D
:1041D900E02FF0901C49E004F00240D5901C45E026
:1041E900FF131313541F2404F582E43400F583C02C
:1041F90083C082E0FEEF5407FF7401C8EFC808804E
:1042090002C333D8FCF45ED082D083F0901C45E021
:1042190004F0E0C394C05003024094789FE6241C44
:10422900F582E43400F583E0FFF470030243409023
:104239001C46EFF0E4A3F0789FE62434F582E434D9
:1042490000F583E0FF901C47E0FEC39F4003024353
:1042590040901C46E075F00BA42438F582E5F03453
:1042690037F583E493FB740193FA740293F9EA49ED
:104279004B6064157D157D157DA87D760108761C3A
:1042890008764A157DA87DEEF6789FE6FF54071556
:104299007DA87DF6EF131313541FFB7D03901C4675
:1042A900E0FE75F00BA42430F582E5F03437F58390
:1042B900E493FF75F00BEEA42438F582E5F034376A
:1042C900F583740193FA740293F5828A83120AFAC8
:1042D900901C48EFF08005E4901C48F0901C48E0E1
:1042E900FFD394004048C2AF7E00EEC0E0EFC0E0CB
:1042F900901C47E0FF78A0E62FFFE433FE7C007DA9
:104309001F1207A4AB76E5782FF9E5773EFA9000FE
:104319000D120A47C8E9C8CCEACCCDEBCD7B017AAE
:104329001C794AD0E0FFD0E0FE1206E2D2AF901C21
:1043390047E004F0024240789FE62434F582E434F1
:1043490000F583E00826F61806E6B41804E4F60832
:10435900F6901AD0E0FFF460167BFFEF5407FDEFEB
:10436900131313541FFF1253DD901AD074FFF01268
:104379008E59C8ECC8C9EDC9CAEECACBEFCB901AA1
:10438900CCE0FCA3E0FDA3E0FEA3E0240AFFE43EA9
:10439900FEE43DFDE43CFCD31208AB5017128E59E4
:1043A900901ACCE0F8A3E0F9A3E0FAA3E0FBD3125A
:1043B90008AB402D128E59901ACC1209B6E4FF129F
:1043C9008547128540EF24FF920B7F02128547EF44
:1043D90024FF920C7F03128547EF24FF920D121CD4
:1043E90042301231128E59E47B0AFAF9F8C31208E5
:1043F900AB5022D212E4901C46F090004CE0FE90A3
:104409001C46E0FFC39E500D7D00128CFE901C4699
:05441900E004F080E565
:01441E00227B
:108B7C0020202020557067726164696E6700202088
:108B8C0020204669726D776172652E2E2E0024525C
:0B8B9C0065763A203339373120240081
:0F86C8000108FF421AE1FFFF441AE90000000019
:104DD600E47880F6128E4B75840F75E104E4F5E2F3
:104DE60075E344F58475B7B075840F758A83F597B6
:104DF600438901758D01758F01758E04F540F54166
:104E06000541E54170020540640F454070F2438953
:104E160002E4F540F541AE40AF41E4FCFD7B507A3B
:104E2600C3F9F8D3120895400FE58920E40A054135
:104E3600E54170E2054080DE759702128D1EE4FFA3
:104E4600128D3DE4F540F5417D01AF41128C2505FB
:104E560041E54170020540C39402E540940040E8F4
:104E6600E4F520C22FC22DC233C232C2317880F699
:104E7600C234C28508F67890F618F67895F6F540AD
:104E8600F54174F12541F582E4341AF583E4F00521
:104E960041E541700205406440454070E5E4F54057
:104EA600F54174312541F582E4341BF583E4F005C0
:104EB60041E541700205406440454070E5E4F584F3
:104EC600E5EF20E10CE5EF5408D394004003D380CE
:104ED60001C392037D08E4FF12879C7D087F0112BF
:104EE600879C1281B9122433E47894F6788DF6AB58
:104EF60076AA77A978788DE6FF75F01FA4F58285E6
:104F0600F083120743FE789426F6EE6005788D0648
:104F160080DDEFD394004028AB76AA77A97890007D
:104F26000D120A47745512077012072A645560025B
:104F3600D23174AA12077012072A64AA6002D2310B
:104F4600E4F584E5EF5402D3940040047F01800227
:104F5600E4FF1278E48F3FE53F20E035C22E74FF70
:104F6600F509F50AF50BF50C7E007F107D007B0038
:104F76007A00790F120AFC7549FF754A61754B5024
:104F8600754C00754D107B007A00790F1286F980FA
:104F960002D22E908BA1E493FF3395E0FEEF24D04E
:104FA600FFEE34FFFE7C007D641207A4AA06AB0761
:104FB600908BA0E493FF3395E0FEEF24D0FFEE3410
:104FC600FFFE7C037DE81207A4EF2BFBEE3AFA9076
:104FD6008BA2E493FF3395E0FEEF24D0FFEE34FF7F
:104FE600FE7C007D0A1207A4EF2BFFEE3AFEA3E437
:104FF60093FD3395E0FCED24D0FDEC34FFCD2FF589
:105006000EED3EF50DE53F30E1030250BAE4F54002
:10501600F541AB76AA77A978854182854083741FCE
:10502600120A2612074370030250B1AE40AF417C0C
:10503600007D1F1207A4E92FF9EA3EFA9000041238
:10504600074320E25BE4F53EE53EC378A196505067
:10505600AB76AA77A978854182854083741F120AA8
:1050660026120743FF7E00C006C0077F00C007AEBA
:1050760040AF417C007D1F1207A4E92FF9EA3EFAF2
:1050860090000D120A477894E6853EF0A429F9EAC5
:1050960035F0FAD005D007D006120AFC053E80A8E6
:1050A6000541E541700205400250187F0112441F78
:1050B600C2308007E4FF12441FD230E4F540F541C8
:1050C6007A007B967D03AF411282BD0541E54170B2
:0C50D600020540C39402E540940040E451
:0150E20022AB
:058E9E007895E6FF22BB
:03002300027078F0
:10707800C0E0C0F0C083C082C0D075D000C000C0DE
:1070880001C002C003C004C005C006C00730993E55
:10709800C2997890067990E77881667015F67890AD
:0170A800F6F1
:0D70A90075270A75281300D528FCD527F699
:0470B600C285801CF3
:0D70BA0075271475281300D528FCD527F67E
:1070C7007890E62431F582E4341BF583E0F59920C6
:1070D7009803027170209A08202F05C29802716CDC
:1070E700C29A788FE60624F1F582E4341AF583E52F
:1070F70099F0C298E6FFB40112901AF1E0FE70030E
:10710700F68066EE540724027896F6EFB4020D78FF
:1071170096E6B40907901AF2E02403F6788FE6FFA3
:10712700B4400476008042EFC3789696403B788F50
:10713700E624FFFDE434FFFC7B017A1A79F1127F24
:107147008C788FE624F0F582E4341AF583E06F60DB
:05715700047600801425
:0D715C0075271475281300D528FCD527F6DB
:10716900121435788F7600D007D006D005D004D018
:1071790003D002D001D000D0D0D082D083D0F0D0BB
:02718900E032F2
:10002600901AF2E075F01FA4AB762578F9E57735DE
:10003600F0FA90000D120A477895E6FF18E68FF061
:10004600A4252BF582E435F0F583120743FF7B00E8
:040056007A0079298A
:10005A008F388B398A3A893BE4F584EA494B601C2C
:10006A00AB39AA3AA93B12072AFFE538FD7C0012F0
:0C007A000003AB39AA3AA93BEF12077053
:0D008600753C14753D1300D53DFCD53CF6CE
:0E0093008538997F01128BFC3099FDC29922AD
:098D5B00E4F5847881EFF6D2857D
:0D8D640075381475391300D539FCD538F673
:078D7100901B31E0F599228F
:10892800C9EFC9E964017028EDC39B403478A1E61A
:10893800FFEB2FFFE433FEEDC39FEE6480F87480F5
:1089480098501ED22FC3ED9B7895F6789176012228
:10895800B90214ED6B700AD22F7895F678917602E9
:0889680022C22FE47891F622EF
:1084DF00C9EFC9BAFF15BBFF12ED6B7002EC6A70E2
:1084EF0049D22F7895F67891E9F622E96401702543
:1084FF00C3ED9BEC9A401C78A1E62BFFE43AFEC338
:10850F00ED9FEC9E500DD22FC3ED9B7895F6789191
:10851F007601228015B90218ED6B7002EC6A700AB1
:10852F00D22F7895F67891760222C22FE47891F6C1
:01853F002219
:10143500901AF1E0FF54F8F52AE4F584EF120AD08A
:1014450014850914910A14A11014AA1114BA1214BE
:10145500CE1914E31A150520150E2815C82916CA24
:101465003316FC37172C39174641175149175C4E6F
:10147500178F5017D76116947017CF98000018076B
:10148500901AF2E0FDE50AFB7F018023901AF2E055
:10149500FCA3E0FDAB0AAA097F018027D22F789132
:1014A5007603021807901AF2E0FDE50CFB7F0212A5
:1014B5008928021807901AF2E0FCA3E0FDAB0CAAFC
:1014C5000B7F021284DF021807901AF2E0FDE50A8D
:1014D500FB7F01128928202F030218078017901A15
:1014E500F2E0FCA3E0FDAB0AAA097F011284DF202C
:1014F5002F03021807901B317478F07F010218043E
:10150500E4F58475EF10021807C2ACE4F529D2851D
:10151500FB7A0079297F7F12005A7B007A007929AE
:101525007F1E12005A7B007A0079297F0512005A26
:10153500788DE61200537B007A007929AF091200F5
:101545005A7B007A007929AF0A12005A7B007A008B
:101555007929AF0B12005A7B007A007929AF0C125A
:10156500005A7B007A007929AF0D12005A7B007A68
:10157500007929AF0E12005AE4F52B740F252BF8CC
:10158500E6120053052BE52BC3941040EEE4F52B32
:1015950074DB252BF582E4341AF583E0120053053C
:1015A5002BE52BC3940640E87B007A007900AF2930
:0315B50012005AC7
:0D15B80075360A75371300D537FCD536F6A9
:1015C50002167F901AF2E0FFC3788D96400302164B
:1015D50086EF75F01FA42578F9E57735F085763324
:1015E500F5348935C2ACE4F529D285FB7A00792931
:1015F5007F7F12005A7B007A0079297F0D12005AED
:10160500AB33AA34A93512072A120053AB33AA34D7
:10161500A935900001120050AB33AA34A9359000CA
:1016250002120050AB33AA34A935900003120050C2
:10163500AB33AA34A935900004120050E4F52BAB66
:1016450033E5352405F9E43534FA7E00E9252BF92F
:10165500EE3AFA12072A120053052BE52BC394081C
:0D16650040DD7B007A007900AF2912005AA9
:0D16720075360A75371300D537FCD536F6EE
:10167F00C285D2AC021807901B317478F0E4A3F046
:10168F007F02021804128E6678821209AA901B310B
:10169F00747CF07882E6A3F008E6A3F008E6A3F0E6
:1016AF0008E6A3F07C007D057B017A1B7931127F60
:1016BF008C901B36EFF07F06021804901AF2E0FFB1
:1016CF00B4010BA3E0F509A3E0F50A0217CFEFB4BD
:1016DF000209901AF3E0F5090217CF901AF2E0B45D
:1016EF000308A3E0F50BA3E0F50C0217CFE4F52BED
:1016FF00901AF2E0FFE52BC39F501C74F3252BF5D6
:10170F0082E4341AF583E0FF740F252BF8C6EFC679
:10171F00052BE52BB410D9E4F51E0217CF7A007B09
:10172F00327D017895E6FF1282BD901AF2E0FDE45A
:10173F00FF12879C021807901AF2E024FF92020210
:10174F001807901AF2E024FF92010218077A007B23
:10175F00327D017F001282BDE4F52B74F2252BF54B
:10176F0082E4341AF583E0FF74E3252BF582E43429
:10177F001AF583EFF0052BE52BB406DFD234807812
:10178F007895E66005752D02800B203205752D03C7
:10179F008003752D01901B317479F0A3E52DF07C3A
:1017AF00007D027B017A1B7931127F8C901B33EF06
:1017BF00F07F03128D5BE52D6401703CD233800204
:1017CF00D22D788076F180307A007B327D017F00D8
:1017DF001282BD901B317479F0901AF2E0901B3297
:1017EF00F07C007D027B017A1B7931127F8C901B7C
:1017FF0033EFF07F03128D5BE52A64A06003021ABA
:10180F0016901AF1E064A16003021906A3E0C378F1
:10181F008D9640030218FBAB76AA77A978E0FF7587
:10182F00F01FA4F58285F083120743F52DEF75F0B5
:10183F001FA429F9EA35F0FA90000412074330E2A9
:10184F0037901AF2E0128E998F2D901B31747FF022
:10185F00A3E52DF02402FDE433FC7B017A1B7931E3
:10186F00127F8C7433252DF582E4341BF583EFF052
:10187F00E52D2403FF021A13901AF2E0FF128E993E
:10188F00C2ACE4F529D285E52DD39406402B7B001D
:10189F007A0079297F7F12005A7B007A007929AF6D
:1018AF002D12005AE4F52BE52BC3952D500712008E
:1018BF0026052B80F2052D8018E52D247812005374
:1018CF00E4F52BE52BC3952D5007120026052B8031
:0C18DF00F27B007A007900AF2912005A59
:0D18EB0075360A75371300D537FCD536F673
:1018F800021A05901B317478F07F01021A13901AAE
:10190800F1E064A26003021A16788DE6FFA3E0FEF8
:10191800C39F4003021A0BA3E0FDC39F4003021AB2
:101928000BEE9D4003021A0B901AF2E0F52BE4F53A
:1019380031F532901AF3E0FFE52BD39F5026AF2BF9
:10194800128E99AB76AA77A97875F01FE52BA4F5C6
:101958008285F0831207432532F532E43531F531BB
:10196800052B80CFC2ACE4F529D285FB7A00792912
:101978007F7F12005AC3E5329480E531940050020B
:101988008007E5314480120053AF32120054901A98
:10199800F2E0F52B901AF3E0FFE52BD39F5046E4D5
:1019A800F52CAB76AA77A97875F01FE52BA4F582FC
:1019B80085F083120743FFE52CC39F5024E52B7560
:1019C800F01FA429F9EA35F0FA90000D120A4778B9
:1019D80095E6FF18E68FF0A4252C120049052C8007
:1019E800C1052B80AF7B007A007900AF2912005A1D
:0D19F80075360A75371300D537FCD536F665
:101A0500C285D2AC800B901B317478F07F01128DAA
:101A15005BE52A6458704DFA7B327D017895E6FFC7
:101A25001282BD753B01753C1B753D327B017A1AEF
:101A350079F2128DF48F2DE52D2478901B31F0EF7E
:101A45002401FDE433FC7B017A1B7931127F8C7410
:101A550032252DF582E4341BF583EFF0E52D2402C4
:101A6500FF128D5BE52A64806009E52A64886003BE
:101A7500021C417891E6B4010F7A007B327D017832
:101A850095E6FF1282BD801AE4F52BE52BC378A1FC
:101A950096500F7A007B327D01AF2B1282BD052B4C
:101AA50080E9901AF1E05407F52DB4070A752C0169
:101AB500A3E0F52DA38006E4F52C901AF2E0F52EAF
:101AC500152DE52EC3788D964003021C15AB76AA1D
:101AD50077A97875F01FE52EA4F58285F0831207A6
:101AE50043FFE52DD39F40028F2D7891E6B4010980
:101AF5007895E6F530F52F8009E4F52F78A1E61401
:101B0500F5307895A62F7895E6D395304003021BDE
:101B1500EDE4F52BE52BC3952D4003021BE2E52EE5
:101B250075F01FA4AB762578F9E57735F0FA9000C6
:101B35000412074330E203021BDD90000112074344
:101B450064387041E52DD394044011E52C252B24F0
:101B5500F3F582E4341AF583E0FD805E788FE6C301
:101B6500952BFFE49400FE74EF2FF582741A3EF571
:101B750083E0FDE52E75F01FA4AB762578F9E577B2
:101B850035F0FA8035AB76AA77A97875F01FE52E82
:101B9500A4F58285F083120743FFC3788FE69F255E
:101BA5002B252C24F0F582E4341AF583E0FDE52E8F
:101BB50075F01FA429F9EA35F0FA90000D120A47CD
:101BC5007895E6FF18E68FF0A4FFE52B2FF582E464
:101BD50035F0F583ED120782052B021B19AF2E1286
:101BE5008AF2789506021B0B7895A62FE52E75F0DF
:101BF5001FA4AB762578F9E57735F0FA9000041245
:101C0500074330E503852E08E52A6488702E801089
:101C1500E52EB4FF27901AF3E0F520E52AB4881CD9
:101C2500901B317478F0788FE624F0F582E4341A4D
:0C1C3500F583E0901B32F07F02128D5B03
:011C41002280
:0986510090001C120817FFAEF0A6
:10865A008E458F46901AE1E065457004A3E06546B1
:10866A00603A901AD1740AF0E545A3F0E546A3F002
:10867A007C007D037B017A1A79D1127F8C901AD4FF
:10868A00EFF07B017A1A79D1754C017D047C0012D6
:0D869A007EFF901AE1E545F0A3E546F022D1
:03874B00CCEECCA5
:10874E00901AD1741AF0A3ECF0EFA3F07C007D0325
:10875E007B017A1A79D1127F8C901AD4EFF07B01BB
:10876E007A1A79D1754C017D047C00127EFF7B0153
:10877E007A1A79D17D0A7C00127E68EF7002FF2290
:0D878E00901AD1E0647860037F00227F0123
:01879B0022BB
:108B4F007A007B327D017F011282BD74FF901AE1A2
:108B5F00F0A3F07F0A901AD1E4F0A3DFFC7B017A37
:0D8B6F001A79D1754C017D0A7C00027EFF51
:106D2100E4F53EE53EC3788D964003026E4BE53EA9
:106D310075F01FA4AB762578F9E57735F0FA900068
:106D41000412074320E403026E46128651901AD1C1
:106D510074A1F0E53E75F01FA4AB762578F9E577CF
:106D610035F0FA90001E120743901AD2F07C007D94
:106D7100027B017A1A79D1127F8C901AD3EFF07BC2
:106D8100017A1A79D1E4F54C7D03FC127EFF7B0177
:106D91007A1A79D17D647C00127E688F3FE53FC30A
:106DA10094025002804DE53F2476FF901AD1E06FA6
:106DB1006002803FAB76AA77A97875F01FE53EA403
:106DC100F58285F083120743FFE53F24FE6F6002E1
:106DD1008021E53F24FFFDE434FFFC7B017A1A7931
:106DE100D1127F8C74D0253FF582E4341AF583E00B
:106DF1006F6007AF3E128B4F804BC2AFAB76AA7765
:106E0100A97875F01FE53EA4F58285F0831207434A
:106E1100FF7E00EEC0E0EFC0E0E53E75F01FA42963
:106E2100F9EA35F0FA90000D120A47C8E9C8CCEA30
:106E3100CCCDEBCD7B017A1A79D2D0E0FFD0E0FE48
:0A6E41001206E2D2AF053E026D24F6
:016E4B002224
:0280A4008F4308
:1080A600EF75F01FA4AB762578F9E57735F0FA126F
:1080B6008651AB76AA77A97875F01FE543A4F582B9
:1080C60085F083120743F5442481901AD1F0E543E5
:1080D60075F01FA429F9EA35F0FA90001E1207433D
:1080E600901AD2F0AF447E0090000D120A4778D362
:1080F6007C1A7D011206E2E5442402FDE433FC7B92
:10810600017A1A79D1127F8C74D32544F582E4342E
:108116001AF583EFF07B017A1A79D1E5442403FD41
:09812600E433FCE4F54C027EFF99
:10897000128E59C8ECC8C9EDC9CAEECACBEFCB906C
:108980001AE9E0FCA3E0FDA3E0FEA3E0240AFFE473
:108990003EFEE43DFDE43CFCD31208AB400C126DFE
:1089A00021128E59901AE91209B6E508F46008AF51
:0889B000081280A47508FF22E3
:10F000007880E664F1600302F60CE4F543F5447899
:04F0100081E6601F16
:0DF0140075490A754A1300D54AFCD549F626
:10F021000544E5447002054364107004E543642718
:10F0310070DCC2AF7584015398FC75FFDE75FFADBE
:10F04100E4F53FF53EE4F58420982EE4F543F544DC
:0EF05100209822C3E5449488E5439413501799
:0DF05F0075490A754A1300D54AFCD549F6DB
:10F06C000544E54470DF054380DBB28680CF85998B
:10F07C003EC298E53E641A600302F14CF543F54438
:0EF08C00209822C3E5449488E543941350175E
:0DF09A0075490A754A1300D54AFCD549F6A0
:10F0A7000544E54470DF054380DB30989285993F3E
:10F0B700C298E4F543F544209822C3E5449488E5D3
:05F0C7004394135017F3
:0DF0CC0075490A754A1300D54AFCD549F66E
:10F0D9000544E54470DF054380DB20980302F046D0
:10F0E90085993FC298E4F543F544209822C3E54445
:08F0F9009488E54394135017BD
:0DF1010075490A754A1300D54AFCD549F638
:10F10E000544E54470DF054380DB20980302F0469A
:09F11E0085993FC298D285C2997F
:0DF12700754914754A1300D54AFCD549F608
:06F134007599783099FD89
:0DF13A0075490A754A1300D54AFCD549F6FF
:10F14700C28502F5FEE53E6450600302F1DCF5433B
:10F15700F544209822C3E5449488E5439413501757
:0DF1670075490A754A1300D54AFCD549F6D2
:10F174000544E54470DF054380DB20980302F04634
:09F1840085993FC298D285C29919
:0DF18D00754914754A1300D54AFCD549F6A2
:08F19A007599793099FDC299C5
:0DF1A200754914754A1300D54AFCD549F68D
:08F1AF007599013099FDC29928
:0DF1B700754914754A1300D54AFCD549F678
:06F1C400E4F5993099FD0D
:0DF1CA0075490A754A1300D54AFCD549F66F
:0FF1D700C28502F5FEE53E6401703ED285C29905
:0DF1E600754914754A1300D54AFCD549F649
:08F1F3007599783099FDC2996D
:0DF1FB00754914754A1300D54AFCD549F634
:06F20800E4F5993099FDC8
:0DF20E0075490A754A1300D54AFCD549F62A
:10F21B00C28502F5FEE53E6402600302F2E2F543AD
:10F22B00F544209822C3E5449488E5439413501782
:0DF23B0075490A754A1300D54AFCD549F6FD
:10F248000544E54470DF054380DB20980302F0465F
:10F2580085993FC298E4F540E53F13B39286E53FB0
:10F2680025E0FEC3E49400EE94F0502AE53F7F00C9
:10F2780025E0FEC394E0501EE53F20E01FE4F5843E
:10F2880043B701758F038E458F468F828E83F05367
:10F29800B7F0F58F80037540FFE4F584D285C299F5
:0DF2A800754914754A1300D54AFCD549F686
:08F2B5007599783099FDC299AA
:0DF2BD00754914754A1300D54AFCD549F671
:06F2CA008540993099FD1A
:0DF2D00075490A754A1300D54AFCD549F668
:10F2DD00C28502F5FEE53E6403600302F42DF5439D
:10F2ED00F544209822C3E5449488E54394135017C0
:0DF2FD0075490A754A1300D54AFCD549F63B
:10F30A000544E54470DF054380DB20980302F0469C
:10F31A0085993FC298E4F543F544209822C3E54411
:08F32A009488E5439413501789
:0DF3320075490A754A1300D54AFCD549F605
:10F33F000544E54470DF054380DB20980302F04667
:10F34F00859941C298E53F139286E53F25E0FEC3BC
:10F35F00E49400EE94F0400302F046E53F7D002573
:10F36F00E0FCC394E0400302F046E4F58443B701A8
:10F37F00758F01E54175F020A42DFFE5F03CF545B3
:10F38F008F46E4F584F542E542C394205048E4F5F6
:10F39F0043F544209822C3E5449488E543941350E1
:01F3AF001746
:0DF3B00075490A754A1300D54AFCD549F687
:10F3BD000544E54470DF054380DB20980302F046E9
:10F3CD000546E546AE457002054514F5828E83E58A
:10F3DD0099F0C298054280B1E4F58453B7F0F58FEA
:06F3ED00F584D285C299EF
:0DF3F300754914754A1300D54AFCD549F63A
:08F400007599783099FDC2995D
:0DF40800754914754A1300D54AFCD549F624
:06F41500E4F5993099FDB9
:0DF41B0075490A754A1300D54AFCD549F61B
:10F42800C28502F5FEE53E6404600302F4DDF5439F
:10F43800F544209822C3E5449488E5439413501773
:0DF4480075490A754A1300D54AFCD549F6EE
:10F455000544E54470DF054380DB20980302F04650
:10F4650085993FC298E53F25E0F547754800E4F5E5
:10F4750040F543F5440548E548AE47700205471495
:10F48500F5828E83E4932540F5400544E5447002FA
:0EF4950005437004E543640270DBD285C29922
:0DF4A300754914754A1300D54AFCD549F689
:08F4B0007599783099FDC299AD
:0DF4B800754914754A1300D54AFCD549F674
:06F4C5008540993099FD1D
:0DF4CB0075490A754A1300D54AFCD549F66B
:10F4D800C28502F5FEE53E6405600302F5F3F543D7
:10F4E800F544209822C3E5449488E54394135017C3
:0DF4F80075490A754A1300D54AFCD549F63E
:10F505000544E54470DF054380DB20980302F0469F
:10F5150085993FC298E4F543F544209822C3E54414
:08F525009488E543941350178C
:0DF52D0075490A754A1300D54AFCD549F608
:10F53A000544E54470DF054380DB20980302F0466A
:09F54A00859941C298D285C2994D
:0DF55300754914754A1300D54AFCD549F6D8
:08F5600075997F3099FDC299F5
:0DF56800754914754A1300D54AFCD549F6C3
:10F575007599203099FDE53F25E0FCE54175F020C2
:10F58500A42400FFE5F03CF5478F48E4F540F5423B
:02F59500C29919
:0DF59700754914754A1300D54AFCD549F694
:10F5A400854882854783E493F5993099FD0548E5BC
:10F5B40048AE477002054714F5828E83E4932540D4
:0BF5C400F5400542E542B420C8C299A2
:0DF5CF00754914754A1300D54AFCD549F65C
:06F5DC008540993099FD05
:0DF5E20075490A754A1300D54AFCD549F653
:10F5EF00C285800BE53EB40606E4F58475EF10E5A1
:0DF5FF003E6407600302F0467880F6D2AF4C
:01F60C0022DB
:10748B007F00128BFC202E0B7A007B327D017F005C
:10749B001282BD30310B7A007B1E7D017F00128280
:1074AB00BD302D173032147A007B327D017895E692
:1074BB00FF1282BDC22D127BECD22E20300C30324B
:1074CB0009788076F1127BECD23030332A303227B8
:1074DB00C233128E73E4FDFF128E087BFF7A8B7919
:1074EB007C128BD27D01E4FF128E087BFF7A8B79A5
:1074FB008A128BD212F00030340B7B017A1A79E3AB
:10750B001283A9C234128E59C8ECC8C9EDC9CAEE90
:10751B00CACBEFCB901AED120945EF245AFFE43E8C
:10752B00FEE43DFDE43CFCD31208AB500F128E5928
:10753B00901AED12095ED31208AB4012128E5990BD
:10754B001AED1209B67B017A1A79DB127A752032A1
:10755B0012128E59E47B2C7A01F9F8C31208AB5046
:04756B0002D23222F4
:0E8E3D00124DD612748B12897012408980F586
:106E4C00202000005EBCE2613FDD83C29C7E20A35B
:106E5C00FD1F419DC3217FFCA2401E5F01E3BD3E8F
:106E6C006082DC237D9FC1421CFEA0E1BF5D0380DC
:106E7C00DE3C62BEE0025CDF81633D7C22C09E1D75
:106E8C0043A1FF4618FAA427799BC584DA3866E536
:106E9C00BB5907DB856739BAE406581947A5FB7857
:106EAC0026C49A653BD987045AB8E6A7F91B45C690
:106EBC00987A24F8A6441A99C7257B3A6486D85B3D
:106ECC0005E7B98CD2306EEDB3510F4E10F2AC2FEA
:106EDC007193CD114FADF3702ECC92D38D6F31B227
:106EEC00EC0E50AFF1134DCE90722C6D33D18F0C44
:106EFC0052B0EE326C8ED0530DEFB1F0AE4C12910D
:106F0C00CF2D73CA947628ABF517490856B4EA69A5
:106F1C0037D58B5709EBB536688AD495CB2977F4DE
:106F2C00AA4816E9B7550B88D6346A2B7597C94A07
:106F3C0014F6A8742AC896154BA9F7B6E80A54D7C4
:106F4C00896B35000000002B6096CBDDEE002C9693
:076F5C00CBDDE5EEF7FAFDC5
:0586D700C1B7016B0AB0
:107F8C00157D157DA87DECF608EDF6157D157D1596
:107F9C007DA87DC6EBC608C6EAC608C6E9C6E57D5F
:047FAC0024FCF57D3F
:107FB000F80808E4F6A87DF608F6E57D2407F9A898
:107FC0007DE6FE08E6FFC3099719E76480F8EE64D2
:107FD00080985037E57D2404F8CBE6CB08E6FA0814
:107FE000E6F98F828E83120743A87D080866FFE5B5
:107FF0007D2403F8EFF6E6906E4F93A87D0808F60F
:10800000A87D0806E61870B20680AFA87D0808E6CD
:01801000FF70
:07801100E57D2409F57D2245
:07000300ED6F906E4F93FFBB
:01000A0022D3
:0300A3000287EDE4
:1087ED00C0E0C083C082C0D0EEC0E0EFC0E0E5982D
:1087FD0030E1055398FDD237E59830E024E5692442
:10880D0001FFE433FEEF64404E70028011AF690545
:10881D006974052FF582E4341CF583E599F05398BE
:10882D00FED0E0FFD0E0FED0D0D082D083D0E032B9
:0A7EFF008B478A4889498C4A8D4B55
:107F0900E4F569758401D284E54C24FF929BE4F57C
:107F19004DC3E54D954BE54A6480F8748098505EF1
:027F2900C2375D
:0D7F2B00754E14754F1300D54FFCD54EF662
:107F3800E54B24FFFFE54A34FFFEEF654D7001EE87
:107F4800701EC2ACAB470549E549AA48700205480E
:107F580014F912072AF5993037FDC284D2AC80167D
:107F6800AB470549E549AA487002054814F91207C4
:107F78002AF5993037FD7F01128BFC054D8093C29D
:037F880084AF4B78
:017F8B0022D3
:0A7E68008B408A4189428C438D440F
:107E7200128E598F498E488D478C46E4F545128EF5
:107E820059C3EF9549FFEE9548FEED9547FDEC95F8
:107E920046FCE47B01FAF9F8C31208AB50037F00F9
:107EA20022E569D39400404E901C05E0FEB47803AD
:107EB2007F0122EE54F8647860037F0022901C0553
:107EC200E054072402F5456569702BD3E5699544B2
:107ED200E5436480F87480984006AE43AF44800462
:107EE200AF697E00A842AC41AD407B017A1C7905A6
:0D7EF2001206E2AF45227F01128BFC808159
:068E9300E4F569D237226C
:10879C00EF7025F5847598D0F584759115F5847571
:1087AC00C90875CBFFED906F4E93F5CA75C804E4FC
:1087BC00F584D2ACC2BC80267584017598D0E4F5E2
:1087CC0084E589540F4420F589758E02ED906F581D
:1087DC0093F58DD28E43E74043F740128E93D2AF80
:0187EC00226A
:1089FB00E4F571F570F56FF56EF575F574F573F5C6
:108A0B0072756A64FFEF25E025E02497F8E4F6EF32
:108A1B0025E025E02498F8E4F6EF25E025E02499FD
:108A2B00F8E4F6EF25E025E0249AF8E4F60FBF0210
:018A3B00D466
:018A3C002217
:108D1E00D2AFD2A9C2BBE4F584E589540F4401F564
:0F8D2E0089758E02758CAFE4F58AD28C0289FBB1
:027D2F00157DC0
:107D3100A87DE4F6A87DE6FFC394024003027DC955
:107D4100EF25E025E0249AF8E6FFD394004052A8FD
:107D51007DE625E025E02498F8E67045EF30E01552
:107D6100A87DE6FF25E025E0249AF8E6D3940140BA
:107D7100047D0080067D01A87DE6FF1288DBA87DD9
:107D8100E6FF25E025E0249AF816E66014EF25E0E9
:107D910025E02499F8E6FEEF25E025E02498F8EEA9
:107DA100F6A87DE625E025E02498F8E6600116A80E
:107DB1007DE6FF25E025E0249AF8E670057D0112B5
:087DC10088DBA87D06027D3578
:037DC900057D2213
:03000B0002823F2F
:10823F00C0E0C0F0C083C082C0D0E8C0E0E9C0E0B9
:10824F00EAC0E0EBC0E0ECC0E0EDC0E0EEC0E0EF74
:10825F00C0E0758CAFE5712401F571E43570F570F0
:10826F00E4356FF56FE4356EF56ED56A18E5752454
:10827F0001F575E43574F574E43573F573E435720F
:10828F00F572756A64127D2F128CBED0E0FFD0E0BC
:10829F00FED0E0FDD0E0FCD0E0FBD0E0FAD0E0F97A
:0E82AF00D0E0F8D0D0D082D083D0F0D0E03232
:108C2500157DA87DEDF6157DA87DEFF6A87DE6FFFF
:108C3500C39402500D08E6FEEF25E025E02497F8E1
:078C4500EEF6057D057D221E
:1082BD00157D157DA87DEAF608EBF6157DA87DEDFB
:1082CD00F6157DA87DEFF6A87DE6FFC3940250520A
:1082DD00EF25E025E0249AF8E67047A87DE6FB251A
:1082ED00E025E02498F8E67039A87D08E625E0043D
:1082FD00FFA87DE6FA25E025E0249AF8EFF6A87DA3
:10830D000808E6FE08E6FF7C007D0A1207B6EA259E
:10831D00E025E02499F8EFF6EB25E025E02498F828
:09832D00E4F6E57D2404F57D224F
:1088DB00157DA87DEDF6157DA87DEFF6A87DE6FF4D
:1088EB00C39402501CEF25E025E02497F8E66011B5
:1088FB00A87D08E670047F0180027F00A87D08EF49
:10890B00F6A87DE6700608E624FF9286A87DE6B4FD
:0D891B00010608E624FF9287057D057D22F8
:0C8E5900C2AFAF71AE70AD6FAC6ED2AFA7
:018E650022EA
:0C8E6600C2AFAF75AE74AD73AC72D2AF8A
:018E720022DD
:108BFC00157DA87DEFF6A87DE67004F56CF56D305B
:108C0C003514E56B75F064A4FFC3E56D9FE56C95B9
:098C1C00F0500375FFA5057D224F
:108D3D00D235E4F56CF56DEF6004F56B8003756B62
:0E8D4D000A75FF0775FFA5E4F58475EF042293
:0E8E4B00C235E4F56CF56D75FFDE75FFAD22E6
:108CBE00056DE56D7002056C303514E56B75F0646D
:108CCE00A4FFC3E56D9FE56C95F0500375FFA522DB
:048BA7008E448F4524
:108BAB00E4F546F547C3E5479545E546954450162C
:108BBB007FE87E031284897F01128BFC0547E54712
:068BCB0070E3054680DFA7
:018BD1002281
:0F847A00C29375840175D2FF75D30F7F0A7E0000
:048489008E658F6607
:10848D00D3E56694FAE5659400500EEFD394004061
:10849D00407E1600DEFD1F80F2856567856668D318
:1084AD00E56894FAE567940040157FFA7E00128422
:1084BD008974062568F56874FF3567F56780E0D324
:1084CD00E5669400E56594004007AF68AE671284D9
:0184DD008915
:0184DE00227B
:10841200754D00754E00754F477B007A0079457D9A
:018422000257
:088423008B498A4A894B8D4CFC
:10842B007F01128BFCAB4DAA4EA94F1207EC240017
:10843B00FFE5F034E0FE854950854A51854B52E407
:10844B00FDEDC3954C501BEF2DF582E43EF583E417
:10845B0093AB50AA51A9528D827583001207820DDE
:0F846B0080DFAB4DAA4EA94FE4854CF002084FBD
:107B3700754012754134754800754900754A427B96
:077B4700007A0079407D0285
:087B4E008B448A4589468D47EE
:107B56007880E664F16003027BEB128E4BC2AFE4E1
:107B6600F58443B701758F01AB48AA49A94A1207A4
:107B7600EC2400FFE5F034E07886F608EFF6AA4537
:107B8600A946788AA64408C6EAC608C6E9C6E478BD
:107B960088F67888E6C395475032788ACBE6CB08D4
:107BA6000806E618CAE6CA70010614F912072A780A
:107BB60089F6E6FF78860806E618CCE6CC7001065C
:107BC60014F5828C83EFF078880680C6E4F58F532F
:107BD600B7F0AB48AA49A94A8547F012084FD2AF79
:057BE600E4FF128D3DDB
:017BEB002277
:10888D007880E664F17046C2AF128E4BE4F58443F6
:10889D00B701758F03788776E008F67886F67887C6
:1088AD00E6FE08E6F5828E83E4F07F01128BFC78FC
:1088BD0088E426F618740236F61806E6C3940840C6
:0D88CD00DDE4F58F53B7F0D2AFFF128D3D03
:0188DA00227B
:107BEC0012888DE4F542F543F548754900754A4213
:107BFC00FB7A0079097D16127B4E127B37E4F53F38
:107C0C00E53FC378A1965073E4F53EAB76AA77A90D
:107C1C007875F01FE53EA4F58285F083120743606A
:107C2C0056E53E75F01FA429F9EA35F0FA90000DDF
:107C3C00120A477894E6853FF0A429F9EA35F0FA60
:107C4C00EBC0E0EAC0E0E9C0E0AB76AA77A97875B2
:107C5C00F01FE53EA4F58285F083120743FD7548BD
:107C6C0000754900754A42D0E0F9D0E0FAD0E0FB4B
:107C7C00127B4E053E8094053F8085127B37E4785D
:027C8C0080F680
:017C8E0022D3
:0378E400CCEFCC1A
:1078E700E4F547F548F544F54D754E00754F47FBF0
:1078F7007A0079097D16128423128412E5466434CE
:107907007004E54564127003434401EC7003027987
:10791700A7E4F543E543C378A1965073E4F542AB7A
:1079270076AA77A97875F01FE542A4F58285F083DA
:107937001207436056E54275F01FA429F9EA35F0AE
:10794700FA90000D120A477894E68543F0A429F9C6
:10795700EA35F0FAEBC0E0EAC0E0E9C0E0AB76AAAE
:1079670077A97875F01FE542A4F58285F0831207A1
:1079770043FD754D00754E00754F47D0E0F9D0E0D7
:10798700FAD0E0FB128423054280940543808512D8
:107997008412E54664347004E5456412700580007E
:0579A700434402AF445F
:0179AC0022B8
:027C8F008F6301
:107C9100203603027D2E43A0F075840F43A60FC248
:107CA10090C294D2957F017E00128489D296E4F528
:107CB1006412848530A7090564E564C394C840F162
:107CC100C2967F017E00128489C295D29075840F7D
:107CD10075A6FF7F017E00128489E56354F0FFE5FC
:107CE100A054014FF5A0A22C92947F017E00128432
:107CF10089D2967F017E00128489C2967F017E001F
:107D0100128489E563C454F0FFE5A054014FF5A046
:107D1100A22C92947F017E00128489D2967F017EEB
:0D7D210000128489C2967F017E00128489C1
:017D2E002232
:108A3D008F4453A00FE54454F042A0D2967F017E9F
:108A4D0000128489C2967F017E0012848953A00F83
:108A5D00E544C454F042A0D2967F017E0012848971
:108A6D00C2967F017E001284897F647E0002848914
:1081B900E4F542F543C296C295C29475840F75A63B
:1081C900FF43A503D290D29153A00143A020D29698
:1081D9007F01FE128489C2967F017E00128BA77FE0
:1081E90020128A3D43A0F075840F43A60FC290C2A6
:1081F90094D2957F017E00128489D2967F647E0095
:1082090012848930A703C23622D236C22C7F2412A7
:108219007C8FC22C7F0B127C8FC22C7F20127C8F0B
:10822900C22C7F0C127C8FC22C7F01127C8FC22C36
:058239007F06127C8F9E
:01823E00221D
:0D8E7300C22C7F01127C8FE4FDFF028E08EF
:108E1C00EF6006C22C7F0F8004C22C7F0C127C8F5B
:018E2C002223
:108E0800ED5403C43354E0FEEF541F44804EFFC2B8
:048E18002C027C8F1D
:108DDE008F62E562640D600BE562640A6005D22C59
:068DEE00127C8FAF62222F
:108C4C008B798A7A897BAB79AA7AA97B12072A60FD
:108C5C0015057BE57B7002057A14F912072AFFD201
:078C6C002C127C8F80E02236
:0A8B2100AB3EAA3FA940120743FF34
:028B2B008F4673
:108B2D00E4F547E546139292128485D2931284851B
:108B3D00C293E546C313F5460547E547C394084080
:018B4D00E245
:018B4E002204
:02859E008F1F2D
:1085A00012847A75840F43A504AF1F128B2B758438
:1085B0000F53A5FBD292128485E478A3F618F678BF
:1085C000A4760130920778A3E679A447F6D29312F5
:1085D0008485C29312848578A4E625E0F678A20605
:1085E000E6C3940840DD758401E4F5D2F5D37F0A33
:0885F000FE12848978A3E6FF66
:0185F8002260
:067A75008B3E8A3F8940B0
:107A7B0012847A75840F43A5047FBF128B2B7584F8
:107A8B000F53A5FBD292128485E47887F6E47888AD
:107A9B00F67886F6788976013092077888E67989C8
:107AAB0047F6D293128485C2931284857889E62592
:107ABB00E0F6788606E6C3940840DD7887E6FFC3D8
:107ACB009403501908E6FEEFFDC374059DFDE49485
:107ADB0000AB3EAA3FA9408D82F583801E7887E6D6
:107AEB00FFC39405501808E6FEEF7C0024FDF582D9
:107AFB00EC34FFF583AB3EAA3FA940EE80117887AB
:107B0B00E6B4060E08E6AB3EAA3FA940900002126F
:107B1B000782788706E6C394075003027A98758428
:0C7B2B0001E4F5D2F5D37F0AFE02848944
:108C99008F448D4512847A75840F43A504AF44121D
:108CA9008B2BAF45128B2B758401E4F5D2F5D37F5D
:058CB9000AFE0284899F
:1083A9008B3E8A3F894012847A75840F43A5047FE6
:1083B900BE128B2B900005128B21900004128B2189
:1083C900AB3EAA3FA940900003128B27AB3EAA3FC0
:1083D900A94012072AFF128B2BAB3EAA3FA9409056
:1083E9000001128B277F01128B2BAB3EAA3FA940BC
:1083F900900002128B27E4FF128B2B758401E4F5A0
:09840900D2F5D37F0AFE0284893A
:108A7D008D41EF14601614601914601C14601F14DE
:108A8D00602224057025AD417F86801CAD417F8815
:108A9D008016AD417F8C8010AD417F84800AAD4141
:0C8AAD007F828004AD417F80128C9922F2
:10718B008B3E8A3F894012072AFFF47049AB41AA14
:10719B0042A943900007743F120782900006743F88
:1071AB00120782900004743F120782900003743F11
:1071BB00120782900001743F120782743F1207700E
:1071CB00AB41AA42A943900005742D12078290008F
:1071DB0002742D027288EFC4540F2430AB41AA42C3
:1071EB00A943120770AB3EAA3FA94012072A540FBE
:1071FB002430AB41AA42A9439000011207829000B0
:10720B0002742D120782AB3EAA3FA94090000112D7
:10721B000743C4540F2430AB41AA42A94390000347
:10722B00120782AB3EAA3FA94090000112074354BC
:10723B000F2430AB41AA42A943900004120782905D
:10724B000005742D120782AB3EAA3FA940900002A5
:10725B00120743C4540F2430AB41AA42A9439000F8
:10726B0006120782AB3EAA3FA940900002120743C9
:10727B00540F2430AB41AA42A94390000712078256
:08728B00900008E412078222C2
:106F63008B3E8A3F894012072AF47049AB41AA42FB
:106F7300A943900007743F120782900006743F12E2
:106F83000782900004743F120782900003743F123B
:106F93000782900001743F120782743F120770AB9F
:106FA30041AA42A943900005743A12078290000255
:106FB300743A02706DAB3EAA3FA9409000031207DA
:106FC30043C4540F2430AB41AA42A943120770AB08
:106FD3003EAA3FA940900003120743540F2430AB4D
:106FE30041AA42A943900001120782900002743A19
:106FF300120782AB3EAA3FA940900004120743C484
:10700300540F2430AB41AA42A943900003120782D4
:10701300AB3EAA3FA940900004120743540F24300B
:10702300AB41AA42A9439000041207829000057461
:107033003A120782AB3EAA3FA940900005120743CC
:10704300C4540F2430AB41AA42A94390000612074F
:1070530082AB3EAA3FA940900005120743540F2478
:1070630030AB41AA42A9439000071207829000085F
:05707300E41207822277
:10883D007B017A1C7959127A75901C59E0F4603FCE
:10884D0075410175421C75435F7B017A1C79591284
:10885D00718B7B017A1C795F128BD27BFF7A6E79DB
:10886D004C128BD275410175421C75435F7B017AA9
:0F887D001C7959126F637B017A1C795F128BD2C1
:01888C0022C9
:0F8E2D00E4FF12859EEFF460047F0180027F0056
:018E3C002213
:078E8C00E4FD7F8E028C99CA
:104AC20057726F6E672043504C44206669726D774F
:104AD20061726500536C61766520616464723A208C
:104AE200256264005265713A2025303262642021C9
:104AF2003D204163743A202530326264004F76656E
:104B02007263757272656E74203E302E3541206F6D
:104B12006E00202020203556206F75747075742029
:104B22002121212020200020202020536C61766545
:104B320020616464723A20256264002020204F764E
:104B4200657263757272656E74206F6E202020002C
:104B5200202020323456206F757470757420212104
:104B62002120202000202020536C61766520616482
:104B720064723A2025626400524553455420202035
:104B82002020202020202020202020200020202043
:104B9200202020202020200025622A626400256235
:104BA2002A62750025622A640025622A7500256240
:104BB2002A2E33660025622A6C640025622A6C75EF
:104BC20000253262753A2573002020202020202003
:104BD20020004E6F207661726961626C6573206499
:104BE2006566696E65640020202020202020202038
:104BF2002020202020202020202000455343204533
:104C02004E5445522020202D202020202B202000F1
:104C120045534320454E5445522020202D2020202C
:104C220020202B200045534320454E54455220203E
:104C32002000455343202020202020202020002037
:104C420020202020002000506172616D6574657221
:104C520073207772697474656E00746F20666C617C
:104C62007368206D656D6F72792E00F4700000001C
:104C7200F76E000000FAE4000000FD6D0000000085
:104C820000000000036B000000064D000000094711
:104C92000000000C540000000000000000016D0044
:104CA200000002670000000373000000046D0000B2
:104CB2000005680000000641000000074B000000EC
:104CC20008DF43000009DF46000014487A0000159F
:104CD200506100001662610000175700000018566C
:104CE20000000019F40000001A540000001B6C2F91
:104CF20073001C52504D001D460000001E4A000069
:104D0200005A250000005B52504D005C636E740037
:104D12005D78000000000000000002350000004E37
:104D22006F64652041647200000900000000000009
:104D320000003F80000000000002350000004772C2
:104D420070204164720000000B00000000000000AF
:104D5200003F8000000000000A3800000054696D26
:104D62006500000000011BFB0000000000000000C5
:104D72003F8000000000000A3800000044617465B2
:104D820000000000011BDB00000000000000003FEB
:104D92008000000000000032000004466C6173686D
:104DA2000000000000000000000000000000000001
:104DB200000000000000320000045265626F6F7450
:104DC20000000000000000000000000000000000E1
:044DD20000000000DD
:1086DC00C196C120C11EC117C118017C06C119C1A8
:0586EC001FC115C121B2
:105BA000E4F53F201F16F54074E52540F582E43406
:105BB0001BF583E4F00540E540B410EC128E59A8C3
:105BC00004A905AA06AB07901BBDE0FCA3E0FDA35A
:105BD000E0FEA3E0240AFFE43EFEE43DFDE43CFCDD
:105BE000D31208AB501A128E59901BBDE0F8A3E0F7
:105BF000F9A3E0FAA3E0FBD31208AB5003025DD196
:105C0000128E59901BBD1209B6E4F54090004CE08D
:105C1000FFE540C39F4003025DDDAF40128E808FE1
:105C20003EE53EC4540F64016059202103128E7377
:105C30007A007B647D017F011282BDE4FDFF128E3C
:105C4000087BFF7A4A79C2128BD27D01E4FF128E63
:105C500008E540D39400400C7BFF7A4A79D6854012
:105C60004912301B7D02E4FF128E087BFF7A4A79CD
:105C7000E6754901E53EC4540FF54A12301BD221A6
:105C8000753F01E53E20E051201903128E737A0022
:105C90007B647D017F011282BDE4FDFF128E087BD3
:105CA000FF7A4A79FF12301B7D01E4FF128E087BD8
:105CB000FF7A4B791412301B7D02E4FF128E08E547
:105CC00040D39400400C7BFF7A4B792985404912E0
:105CD000301BD219753F018008301905C219128E88
:105CE00073E53E30E11174E52540F582E4341BF59F
:105CF00083E07003025DCC74E52540F582E4341B3B
:105D0000F583E0702DAF40128E808F3EE53E540249
:105D1000D394004003025DCC7D00AF40128CDED2F4
:105D20001F74E52540F582E4341BF5837401F012FD
:105D30008E737A007B647D017F011282BDE4FDFFDA
:105D4000128E087BFF7A4B793D12301B7D01E4FFF8
:105D5000128E087BFF7A4B795212301B7D02E4FFD2
:105D6000128E08E540D39400400C7BFF7A4B796794
:105D700085404912301B7D03E4FF128E087BFF7AB9
:105D80004B797A12301BE4FF128547EF603BE4F554
:105D90004174E52541F582E4341BF583E060147D10
:105DA00001AF41128CDE74E52541F582E4341BF528
:105DB00083E4F00541E541C3941040D5C21FE4FFE0
:105DC000128547EF70F8128E73753F010540025C33
:0F5DD0000C201F06201903302103753F01AF3F40
:015DDF0022A1
:065916008B3E8A3F894030
:10591C009000011207436438705885414985424A0A
:10592C0085434BF54C754D0A7B017A1B79CF12865A
:10593C00F97B017A1B79CF12000EC3EF940AEE6447
:10594C00809480502AE4F5447B017A1B79CF1200B5
:10595C000EC3740A9FFFE49EFEC3E5449FEE648071
:10596C00F874809850097F20128DDE054480D9028E
:10597C005B96E4901BCFF0AB3EAA3FA9409000028F
:10598C00120743605CE4F544E54475F005A4246D0E
:10599C00F582E4344CF583E493FF6015AB3EAA3FEB
:1059AC00A940900002120743FEEF6E60040544808C
:1059BC00D7E54475F005A4246DF582E4344CF583E9
:1059CC00E493601DE54475F005A4246EF9744C3520
:1059DC00F07549FFF54A894B7B017A1B79CF12850B
:1059EC00F9AB3EAA3FA940900001120743605CE46A
:1059FC00F544E54475F005A4249FF582E4344CF598
:105A0C0083E493FF6015AB3EAA3FA94090000112BE
:105A1C000743FEEF6E6004054480D7E54475F0053E
:105A2C00A4249FF582E4344CF583E493601DE54493
:105A3C0075F005A424A0F9744C35F07549FFF54AAE
:105A4C00894B7B017A1B79CF1285F97B017A1B7903
:105A5C00CF12000E8F45AB3EAA3FA94012072A1465
:105A6C00601D14605E24FE7003025B182404600346
:105A7C00025B967BFF7A4B798F128BD2025B96ABD3
:105A8C003EAA3FA940900004120743C330E11A74A8
:105A9C000A9545F549AB41AA42A94312072AF54A92
:105AAC007BFF7A4B799A025B93740A9545F549AB67
:105ABC0041AA42A94312072AF54A7BFF7A4B79A0E7
:105ACC00025B93AB3EAA3FA940900004120743C36C
:105ADC0030E11D740A9545F549AB41AA42A9431220
:105AEC0007ECF54B85F04A7BFF7A4B79A6025B936A
:105AFC00740A9545F549AB41AA42A9431207ECF546
:105B0C004B85F04A7BFF7A4B79AB807BAB3EAA3F4F
:105B1C00A94090000412074330E020C3740A954555
:105B2C00F549AB41AA42A9431208CF8F4D8E4C8D3B
:105B3C004B8C4A7BFF7A4B79B0804CAB3EAA3FA989
:105B4C0040900004120743C330E11F740A9545F5D9
:105B5C0049AB41AA42A9431208CF8F4D8E4C8D4BB5
:105B6C008C4A7BFF7A4B79B7801D740A9545F549B1
:105B7C00AB41AA42A9431208CF8F4D8E4C8D4B8C52
:105B8C004A7BFF7A4B79BD12301B7B017A1B79CF94
:035B9C00128BD297
:015B9F0022E3
:0E6BD900901BCEE024FEFF901BC5E0FD7BFF6D
:046BE7008D3E8B3F15
:106BEB00EF6003026C7BE53E75F003A424FBF5829A
:106BFB00E4341BF583E024D075F00AA4FFE53E7561
:106C0B00F003A424FCF582E4341BF583E024D02F9D
:106C1B00F540253FF540E53E701AD3E5406480947E
:106C2B00974003E4F540C3E54064809480501D75A4
:106C3B0040178018D3E540648094BB4003E4F540D3
:106C4B00C3E54064809480500375403BE54075F08C
:106C5B000A120708C454F0FFE54075F00A12070842
:106C6B00AEF0EF2EF540E53E2403FFAD40026D1D67
:106C7B00E53E75F003A424DBF582E4341BF583E0D9
:106C8B0024D075F00AA4FFE53E75F003A424DCF5CF
:106C9B0082E4341BF583E024D02FF540253FF540EB
:106CAB00E53E701AD3E5406480949F4003E4F540C1
:106CBB00C3E54064809480503C75401F8037E53EAF
:106CCB00B4011AD3E5406480948C4003E4F540C3CF
:106CDB00E54064809480501D75400C8018D3E540CE
:106CEB00648094E34003E4F540C3E5406480948002
:106CFB005003754063E54075F00A120708C454F061
:106D0B00FFE54075F00A120708AEF0EF2EF540FDD7
:056D1B00AF3E128A7D6D
:016D20002250
:0D0C2300901C4EE0FBA3E0FAA3E0F97DFF7A
:100C30008D418B3E8A3F8940900001120743643802
:100C40007003021434AB3EAA3FA94012072A24FEC7
:100C50007003020E9524FE70030210EE240360035D
:100C600002143490000412074320E103020D4FAB3D
:100C70003EAA3FA94090001812097AC000C001C0E6
:100C800002C003AC41EC1203BBD003D002D001D0B0
:100C90000012019EC004C005C006C007901BC1E041
:100CA000FC1203BBD003D002D001D0001200AD1261
:100CB00003EF901BC1EFF0AB3EAA3FA94090001498
:100CC0001208EF90001012097A1203447003021404
:100CD00034AB3EAA3FA9409000101208EFC004C0F8
:100CE00005C006C007901BC1E0FC1203BBA804A905
:100CF00005AA06AB07D007D006D005D004120344DE
:100D00005014AB3EAA3FA9409000101208EF120306
:100D1000EF901BC1EFF0AB3EAA3FA9409000141228
:100D200008EFC004C005C006C007901BC1E0FC125C
:100D300003BBA804A905AA06AB07D007D006D005B7
:100D4000D00412034460025003021434020E80E502
:100D500041F4704CAB3EAA3FA9409000101208EF3E
:100D6000C004C005C006C007901BC1E0FCE412032C
:100D7000BBA804A905AA06AB07D007D006D005D0AA
:100D800004120344701AAB3EAA3FA940900014120B
:100D900008EF90001012097A120344600302143421
:100DA000AB3EAA3FA94090001812097AC000C001CA
:100DB000C002C003AC41EC1203BBD003D002D0018F
:100DC000D00012019EC004C005C006C007901BC120
:100DD000E0FCE41203BBD003D002D001D00012002B
:100DE000AD1203EF901BC1EFF0AB3EAA3FA94090BC
:100DF00000141208EF90001012097A1203447003D5
:100E0000021434AB3EAA3FA9409000101208EFC074
:100E100004C005C006C007901BC1E0FCE41203BB80
:100E2000A804A905AA06AB07D007D006D005D004B0
:100E30001203445014AB3EAA3FA940900010120880
:100E4000EF1203EF901BC1EFF0AB3EAA3FA9409019
:100E500000141208EFC004C005C006C007901BC1F3
:100E6000E0FCE41203BBA804A905AA06AB07D0075F
:100E7000D006D005D004120344600250030214349B
:100E8000AB3EAA3FA9409000141208EF1203EF9066
:100E90001BC1EFF022AB3EAA3FA94090000412070D
:100EA0004320E103020F9390001812097AC000C09A
:100EB00001C002C003AC41EC1203BBD003D002D08E
:100EC00001D00012019EC004C005C006C007901BDF
:100ED000C1E0FCA3E0FDEC1203B6D003D002D001C8
:100EE000D0001200AD1203EF901BC1EEF0A3EFF0A3
:100EF000AB3EAA3FA9409000141208EF90001012D8
:100F0000097A1203447003021434AB3EAA3FA9408D
:100F10009000101208EFC004C005C006C007901B67
:100F2000C1E0FCA3E0FDEC1203B6A804A905AA06E3
:100F3000AB07D007D006D005D0041203445017AB3E
:100F40003EAA3FA9409000101208EF1203EF901B39
:100F5000C1EEF0A3EFF0AB3EAA3FA94090001412FF
:100F600008EFC004C005C006C007901BC1E0FCA389
:100F7000E0FDEC1203B6A804A905AA06AB07D0074A
:100F8000D006D005D004120344600250030214348A
:100F90000210D6E541F4704FAB3EAA3FA940900045
:100FA000101208EFC004C005C006C007901BC1E0C6
:100FB000FCA3E0FDE41203B6A804A905AA06AB074A
:100FC000D007D006D005D004120344701AAB3EAA55
:100FD0003FA9409000141208EF90001012097A12F5
:100FE00003446003021434AB3EAA3FA940900018AA
:100FF00012097AC000C001C002C003AC41EC120368
:10100000BBD003D002D001D00012019EC004C005A5
:10101000C006C007901BC1E0FCA3E0FDE41203B6CC
:10102000D003D002D001D0001200AD1203EF901B0C
:10103000C1EEF0A3EFF0AB3EAA3FA940900014121E
:1010400008EF90001012097A12034470030214345E
:10105000AB3EAA3FA9409000101208EFC004C005A3
:10106000C006C007901BC1E0FCA3E0FDE41203B67C
:10107000A804A905AA06AB07D007D006D005D0045E
:101080001203445017AB3EAA3FA94090001012082B
:10109000EF1203EF901BC1EEF0A3EFF0AB3EAA3FBF
:1010A000A9409000141208EFC004C005C006C00794
:1010B000901BC1E0FCA3E0FDE41203B6A804A9055F
:1010C000AA06AB07D007D006D005D00412034460AF
:1010D000025003021434AB3EAA3FA9409000141200
:1010E00008EF1203EF901BC1EEF0A3EFF022AB3E2E
:1010F000AA3FA94090000412074320E0030211B068
:10110000901BC1E0F8A3E0F9A3E0FAA3E0FBC00064
:10111000C001C002C003AB3EAA3FA9409000181214
:10112000097AC000C001C002C003AC41EC1203BB8D
:10113000D003D002D001D00012019ED003D002D043
:1011400001D0001200AD901BC11209B6AB3EAA3F00
:10115000A9409000101208EF901BC1E0F8A3E0F93D
:10116000A3E0FAA3E0FB1203445012AB3EAA3FA94E
:10117000409000101208EF901BC11209B6AB3EAAB6
:101180003FA9409000141208EF901BC1E0F8A3E0C3
:10119000F9A3E0FAA3E0FB12034460025003021437
:1011A00034AB3EAA3FA9409000141208EF02142E5F
:1011B000AB3EAA3FA94090000412074320E103027E
:1011C00012CB90001812097AC000C001C002C003FF
:1011D000AC41EC1203BBD003D002D001D00012010D
:1011E0009EC004C005C006C007901BC1E0FCA3E080
:1011F000FDA3E0FEA3E0FFEC1203B1D003D002D0C8
:1012000001D0001200AD1203EF901BC11209B6AB62
:101210003EAA3FA9409000141208EF900010120956
:101220007A1203447003021434AB3EAA3FA94090E3
:1012300000101208EFC004C005C006C007901BC113
:10124000E0FCA3E0FDA3E0FEA3E0FFEC1203B1A8E5
:1012500004A905AA06AB07D007D006D005D0041212
:1012600003445015AB3EAA3FA9409000101208EF6E
:101270001203EF901BC11209B6AB3EAA3FA94090E2
:1012800000141208EFC004C005C006C007901BC1BF
:10129000E0FCA3E0FDA3E0FEA3E0FFEC1203B1A895
:1012A00004A905AA06AB07D007D006D005D00412C2
:1012B000034460025003021434AB3EAA3FA940909D
:1012C00000141208EF1203EF02142EE541F47055DA
:1012D000AB3EAA3FA9409000101208EFC004C00521
:1012E000C006C007901BC1E0FCA3E0FDA3E0FEA385
:1012F000E0FFE41203B1A804A905AA06AB07D007D2
:10130000D006D005D004120344701AAB3EAA3FA900
:10131000409000141208EF90001012097A12034452
:101320006003021434AB3EAA3FA940900018120992
:101330007AC000C001C002C003AC41EC1203BBD0B4
:1013400003D002D001D00012019EC004C005C00627
:10135000C007901BC1E0FCA3E0FDA3E0FEA3E0FFFB
:10136000E41203B1D003D002D001D0001200AD12BC
:1013700003EF901BC11209B6AB3EAA3FA9409000F3
:10138000141208EF90001012097A1203447003023D
:101390001434AB3EAA3FA9409000101208EFC004DD
:1013A000C005C006C007901BC1E0FCA3E0FDA3E0A0
:1013B000FEA3E0FFE41203B1A804A905AA06AB0747
:1013C000D007D006D005D0041203445015AB3EAA76
:1013D0003FA9409000101208EF1203EF901BC112BA
:1013E00009B6AB3EAA3FA9409000141208EFC00412
:1013F000C005C006C007901BC1E0FCA3E0FDA3E050
:10140000FEA3E0FFE41203B1A804A905AA06AB07F6
:10141000D007D006D005D00412034460174015ABA6
:101420003EAA3FA9409000141208EF1203EF901B50
:05143000C11209B62203
:108AB9008F3EE92405F9E43AFA78CF7C1B7D017EE3
:108AC900007F081206E2E4901BD7F0853E49754AFB
:108AD90001754B1B754CCF7BFF7A4B79C312301B49
:098AE9007BFF7A4B79CB028BD2A2
:101C4200125BA0EF6003D21622301640E4901BCE46
:101C5200F0901BC61209DB00000000901BCA12099B
:101C6200DB00000000C21AC21BC21CC21DE4901C91
:101C720054F0128E59E47B2C7A01F9F8C31208ABA6
:101C82004003022432C216D22212386E20201EC213
:101C92002212386E901C54EFF07003022422D220DC
:101CA200E064026003022422D21E022422301E2D8E
:101CB2007B017A1B79F5127A7575410175421B75A4
:101CC20043DB7B017A1B79F512718B7541017542F9
:101CD2001B7543FB7B017A1B79F5126F63901C4ED7
:101CE200301E0F74FFF0A3744DF0A3741CF0E57C5A
:101CF200800EE576F0A3E577F0A3E578F0788DE63F
:101D020014901C52F0901C52E0FFC394035005E45F
:101D1200A3F0801B901BCEE0FE7002800EEE901BA3
:101D2200CEB50705E024FE8002E014901C53F07843
:101D32008DE67014201E11FDFF128E087BFF7A4B78
:101D420079D412301B021E84E4901C51F0901C5175
:101D5200E0FDC394034003021E84E4FF128E089048
:101D62001C51E0FF901C53E02FFFE433FE901BCE8A
:101D7200E07C00B50708ECB506047F1580027F20E1
:101D8200128DDE901C51E0FD7F01128E08901C51D5
:101D9200E0FF901C53E02FFFE433FE901C52E0FD65
:101DA200D3EF9D7480F86E98400C7BFF7A4B79E9F3
:101DB20012301B021E7B901C51E0FF901C53E02F3F
:101DC200FFE433FE7C007D1F1207A4901C4EE0FB53
:101DD200A3E0FAA3E02FF9EA3EFAA3E0FF901C5336
:101DE200E02FFF128AB9901C51E0FD7F0A128E0883
:101DF20030173A901C51E0FF901C53E02FFFE43360
:101E0200FE901BCEE07C00B50723ECB5061F7D1FBC
:101E12001207A4901C4EE0FBA3E0FAA3E02FF9EA1C
:101E22003EFA75410175421B7543C18049901C51B0
:101E3200E0FF901C53E02FFFE433FE7C007D1F1275
:101E420007A4901C4EE0FBA3E0FAA3E02FF9EA3EC0
:101E5200FAC003C002C001901C4EA3E0FAA3E02F17
:101E6200F9EA3EFA90000D120A478B418A428943F1
:101E7200D001D002D003125916901C51E004F00296
:101E82001D4F901BCEE075F01FA4301E0F241CF9CD
:101E9200744D35F0FA901C4E74FF800D2578F9E5EB
:101EA2007735F0FA901C4EE576F0A3EAF0A3E9F05C
:101EB200201803021FBC7D03E4FF128E087BFF7A09
:101EC2004B79FD128BD2901BC5E075F003A4240D53
:101ED200FF901C53E0FE901BCEE0C39EFD128E08C5
:101EE200200A0A301A07C218E4FF128E1C300B14A3
:101EF200201B11901BC5E004F0E0B40307C218E4F4
:101F0200FF128E1C300C0F201C0C126BD9128E5932
:101F1200901BC61209B6300C2D128E59A804A905C1
:101F2200AA06AB07901BC6E0FCA3E0FDA3E0FEA35C
:101F3200E02446FFE43EFEE43DFDE43CFCD312080F
:101F4200AB4003126BD9200C0A901BC61209DB00AE
:101F5200000000300D1D201D1A901BCEE024FEFF54
:101F6200901BC5E0FD7B01126BE7128E59901BCAD4
:101F72001209B6300D3B128E59A804A905AA06AB68
:101F820007901BCAE0FCA3E0FDA3E0FEA3E0244609
:101F9200FFE43EFEE43DFDE43CFCD31208AB4011FD
:101FA200901BCEE024FEFF901BC5E0FD7B01126B6F
:101FB200E7300D0302242202219020170302219D03
:101FC2007D03E4FF128E087BFF7A4C7912128BD2CA
:101FD200901C53E0FF901BCEE0C39FFD7F13128E37
:101FE20008200A0A301A07C217E4FF128E1C300BAF
:101FF20070201B6DC217E4FF128E1C901C4EE0FB7A
:10200200A3E0FAA3E0F912072AFF7E00901C4EA378
:10201200A3E090000D120A47A801AC02AD037B01B8
:102022007A1B79C11206E2301E13901BCEE0FF60CC
:10203200046401702CD22D788076F18024901BCE1E
:10204200E0FF128AF2901C4EE0FBA3E0FAA3E0F953
:1020520090000412074330E508901BCEE0FF128087
:10206200A4300C0F201C0C120C23128E59901BC68C
:102072001209B6300C2D128E59A804A905AA06AB76
:1020820007901BC6E0FCA3E0FDA3E0FEA3E024460C
:10209200FFE43EFEE43DFDE43CFCD31208AB40030A
:1020A200120C23300C3B128E59A804A905AA06ABC8
:1020B20007901BC6E0FCA3E0FDA3E0FEA3E024F42E
:1020C200FFEE3401FEE43DFDE43CFCD31208AB40DC
:1020D20010901C4EE0FBA3E0FAA3E0F97DF7120C8E
:1020E20030200C0A901BC61209DB00000000300DE4
:1020F2001C201D19901C4EE0FBA3E0FAA3E0F97D21
:1021020001120C30128E59901BCA1209B6300D3AC8
:10211200128E59A804A905AA06AB07901BCAE0FCB7
:10212200A3E0FDA3E0FEA3E02446FFE43EFEE43D7F
:10213200FDE43CFCD31208AB4010901C4EE0FBA324
:10214200E0FAA3E0F97D01120C30300D3B128E59FA
:10215200A804A905AA06AB07901BCAE0FCA3E0FDF0
:10216200A3E0FEA3E024F4FFEE3401FEE43DFDE42F
:102172003CFCD31208AB4010901C4EE0FBA3E0FAEB
:10218200A3E0F97D09120C30300D03022422901BCA
:10219200CA1209DB000000000224227D03E4FF12C0
:1021A2008E08788DE6D394005003301E37901C4E73
:1021B200E0FBA3E0FAA3E0F99000181208EFE4FBB9
:1021C200FAF9F81203444014901C4EE0FBA3E0FA23
:1021D200A3E0F990000412074330E2087BFF7A4C37
:1021E200792780067BFF7A4C7934128BD27F1212C8
:1021F2008DDE7BFF7A4C7941128BD27F13128DDEFA
:102202007BFF7A4C7947128BD2200A0C301A09C212
:1022120020C21ED22212386E200B03022306301B6C
:1022220003022306788DE6D394004061901C4EE0B1
:10223200FBA3E0FAA3E0F912072AFFD39404504D5E
:10224200EF940040489000181208EFE4FBFAF9F806
:102252001203445038D217901C4EE0FBA3E0FAA3BD
:10226200E0F912072AFF7E0090000D120A4778C19A
:102272007C1B7D011206E2901C53E0FF901BCEE016
:10228200C39FFD7F13128E087F01128E1C301E2AFF
:10229200901BCEE0FF64026004EFB4031DD218E489
:1022A200901BC5F0901C53E0FF901BCEE0C39FFD36
:1022B2007F0D128E087F01128E1C301E37901BCEAE
:1022C200E06404702FD22D788076F1128E73E4FDD3
:1022D200FF128E087BFF7A4C7949128BD27D01E482
:1022E200FF128E087BFF7A4C795C128BD27FB87E0C
:1022F2000B128BA7301E0D901BCEE0B40506E4F541
:102302008475EF10300C2B201C28901BCEE070132C
:10231200201E07788DE614F0800FE57C14901BCE0A
:10232200F08006901BCEE014F0128E59901BC6125C
:1023320009B6300C49128E59A804A905AA06AB07A2
:10234200901BC6E0FCA3E0FDA3E0FEA3E02446FF51
:10235200E43EFEE43DFDE43CFCD31208AB401F909A
:102362001BCEE07013201E07788DE614F0800FE577
:102372007C14901BCEF08006901BCEE014F0200C53
:102382000A901BC61209DB00000000301E08901CD8
:1023920051E57CF08007788DE6901C51F0300D21DC
:1023A200201D1E901BCEE004FF901C51E0FEEF8E1C
:1023B200F084901BCEE5F0F0128E59901BCA1209E0
:1023C200B6300D3F128E59A804A905AA06AB079094
:1023D2001BCAE0FCA3E0FDA3E0FEA3E02446FFE469
:1023E2003EFEE43DFDE43CFCD31208AB4015901BDD
:1023F200CEE004FF901C51E0FEEF8EF084901BCEE5
:10240200E5F0F0200D0A901BCA1209DB0000000063
:10241200300C0D300D0A201E07E4901BCEF0D21EA8
:10242200A20A921AA20B921BA20C921CA20D921D3E
:012432002287
:103428004C45442D4465627567004C45442D5075E4
:103438006C7365720044696E203556004F7074498C
:103448006E0043504C4400446F75742035562F323B
:1034580034560052656C616973004F70744F75740F
:103468000055696E20302D322E35560055696E2074
:103478002B2D3130560049696E20302D322E356D96
:10348800410049696E20302D32356D410055696E15
:1034980020302D322E3556204673740055696E2023
:1034A8002B2D31305620466173740049696E2030E7
:1034B8002D322E356D41204673740049696E2030D7
:1034C8002D32356D41204673740055696E202B2DC1
:1034D80031305620446966660043696E20302D31CC
:1034E800306E460043696E20302D317546005054C9
:1034F8003130300050543130303000554F75742021
:10350800302D322E355600554F7574202B2D313005
:103518005600494F757420302D322E356D410049C3
:103528004F757420302D32356D4100245265763A3E
:103538002033393835202400013400000050254F4D
:10354800757400000001000100000000437F0000C6
:103558003F80000000000004180000015025556954
:103568006E230000010008000000000000000000B9
:103578000000000000000418000001502555696E85
:10358800230000010004000000000000000000000B
:1035980000000000000418000001502555696E2342
:1035A800000001000800000000000000000000000A
:1035B800000000000134000008502552616E676564
:1035C80000010000000000000000000000000000F2
:1035D80000000004180000015025556F7574230081
:1035E8000100080000000041F000003F000000005A
