:03001C000193004D
:10186900E47893F6F5D975E10175E24075A49075B0
:10187900B283F5A975FDFF75D940F5FE75EF09121B
:10188900372FE4F534F5357D01AF35123877053555
:10189900E53570020534C39405E534940040E8E465
:1018A900F520C20CC208C20FC20AD20BC20EC20D69
:1018B9007893F6C2877871F6786FF618F67875F628
:1018C900F534F53574772535F8E4F60535E53570E1
:1018D9000205346414453470EBE4F534F535748B42
:1018E9002535F8E4F60535E5357002053464084513
:1018F9003470EB1238FD7D08E4FF12389EE47874E9
:10190900F6786CF6786CE6FF75F010A424BBF582C6
:10191900E5F0341DF583E493FE787426F6EE600550
:10192900786C0680DFEFD39400402A901DC8E493B9
:10193900FB740193FA740293F97455120436120375
:10194900F064556002D20D74AA1204361203F064D1
:10195900AA6002D20D1228F9EF6003021A42C20BE3
:1019690074FFF556F557F558F559E4F55AF55BFE48
:101979007F10FDFB7A00795C12065C7539FF753AB8
:101989001D753BB3753C00753D107B007A00795C91
:101999001236DDE4F534F535E535C4F8540FC86879
:1019A900FFE534C454F048FE74BB2FF582741D3E24
:1019B900F583E493607C74BF2FF582741D3EF58333
:1019C900E49320E262E4F533E533C378B4965057E3
:1019D900E535C4F8540FC868FFE534C454F048FE2F
:1019E90074BB2FF582741D3EF583E493FD7C00C022
:1019F90004C0057D0074C82FF582741D3EF583E48B
:101A090093FB740193FA740293F97874E68533F0C1
:101A1900A4FFE92FF9EA35F0FAD007D00612065CDF
:101A29001238FD053380A10535E53570020534020C
:101A390019A17F011215928016D20BE4FF1215929B
:101A4900E5EF30E30AD203055BE55B7002055AE472
:101A5900F534F5357A007B967D03AF35122E9A055C
:101A690035E53570020534C39405E534940040E446
:011A7900224A
:0538F3007875E6FF22DC
:0300230002275859
:10275800C0E0C0F0C083C082C0D075D00830992DC9
:10276800C299786F06796FE77871667009786FF6A5
:06277800D209C2878017A0
:0E277E007523140075240300D524FCD523F523
:10278C00786FE6248BF8E6F599209803022824202C
:10279C009A07200C04C298807BC29A786EE60624B5
:1027AC0077F8A699C298786EE6FFB401137877E6AD
:1027BC00FE7005786EF68060EE540724027876F68B
:1027CC00EFB4020E7876E6B409087878E62403793B
:1027DC0076F7786EE6FFB414047600803BEFC3788E
:1027EC0076964034786EE624FFFDE434FFFC7B00E3
:1027FC007A007977122D82786EE62476F8E66F608F
:03280C0002801136
:0E280F007523140075240300D524FCD523F591
:10281D00120769786E7600D0D0D082D083D0F0D0F8
:02282D00E03297
:103501007875E6FF18E68FF0A47C002527FFEC35DF
:10351100F0FE7878E675F010A424C8F582E5F03461
:103521001DF583E493FB740193FA740293F98F827E
:0C3531008E83120409FF7B007A007925CC
:10353D008F2D8B2E8A2F8930EA494B60161203F09E
:10354D00FFE52DFD7C00120003AB2EAA2FA930EF55
:03355D001204361F
:0E3560007531140075320300D532FCD531F5FB
:0B356E00852D993099FDC2990238FDAF
:0838BF007871EFF6C209D2870F
:0E38C700752D1400752E0300D52EFCD52DF5A1
:0638D500788BE6F5992254
:1037EF00C9EFC9EDC39B402378B4E6FFEB2FFFE48D
:1037FF0033FEEDC39FEE6480F8748098500DD20CA9
:10380F00C3ED9B7875F67870E9F622C20CE47870F8
:02381F00F6228F
:10377D00C9EFC9BAFF0FBBFF0CED6B7002EC6A709D
:10378D0027D20C801BC3ED9BEC9A401C78B4E62B22
:10379D00FFE43AFEC3ED9FEC9E500DD20CC3ED9BA2
:0F37AD007875F67870E9F622C20CE47870F6228F
:100769007877E6FF54F8F526EF12063607AF090742
:10077900BA0A07C91007D01107DF1207F2190806CC
:100789001A082520082A2808B1290961340974376B
:1007990009973909A64109AF4909B85009C461093E
:1007A900BC98000009EF7878E6FDE557FB7F0180EA
:1007B9001F7878E6FC08E6FDAB57AA567F0180232F
:1007C900E4FBFD7F0380097878E6FDE559FB7F02AC
:1007D9001237EF0209EF7878E6FC08E6FDAB59AA73
:1007E900587F0212377D0209EF7878E6FDE557FB5D
:1007F9007F011237EF200C030209EF80167878E6A3
:10080900FC08E6FDAB57AA567F0112377D200C0381
:100819000209EF788B76787F010209ECD20A020986
:10082900EFC2ACE4F525D287FB7A0079257F7F12E8
:10083900353D7B007A0079257F1812353D7B007A9A
:100849000079257F2112353D786CE61235367B001B
:100859007A007925AF5612353D7B007A007925AFAC
:100869005712353D7B007A007925AF5812353D7B0B
:10087900007A007925AF5912353D7B007A00792538
:10088900AF5A12353D7B007A007925AF5B12353DB1
:10089900E4F527745C2527F8E61235360527E527A0
:1008A900C3941040EE02094F7878E6FFC3786C963E
:1008B90040030209EF75F010EFA424BBF582E5F0BF
:1008C900341DAF82F52B8F2CC2ACE4F525D287FB02
:1008D9007A0079257F7F12353D7B007A0079257F63
:1008E9000D12353D852C82852B83E493123536858F
:1008F9002C82852B83740193123536852C82852BA6
:1009090083740293123536852C82852B8374039365
:10091900123536852C82852B83740493123536E47F
:10092900F527E52C2405F582E4352BF583E58225A9
:1009390027F582E43583F583E4931235360527E5F7
:1009490027C3940840DC7B007A007900AF25123573
:100959003DC287D2AC0209EF7878E6F55608E6F58C
:100969005708E6F55808E6F5598048E4F527E527DC
:10097900C3787896501674792527F8E6FF745C25B4
:1009890027F8C6EFC60527E527B410E280257A00C7
:100999007B327D017875E6FF122E9A80497878E6D8
:1009A90024FF920280407878E624FF92018037D2B2
:1009B9000F8002D208789376F1802B7A007B327D02
:1009C900017F00122E9A788B76797878E6788CF602
:1009D9007C007D027B007A00798B122D82788DEF65
:1009E900F67F031238BFE52664A06003020B8F78F7
:1009F90077E664A16003020AC008E6FFC3786C9633
:100A09004003020B8F75F010EFA424BBF582E5F0CB
:100A1900341DF583E493F52975F010EFA424BFF58F
:100A290082E5F0341DF583E49330E22F1238F88F14
:100A390029788B767F08A629E5292402FDE433FC71
:100A49007B007A00798B122D82748D2529F8EFF6B7
:100A5900E5292403FF1238BF020B8F7878E6FF12CD
:100A690038F8C2ACE4F525D287E529D39406402CA1
:100A79007B007A0079257F7F12353D7B007A0079EA
:100A890025AF2912353DE4F527E527C395295007F8
:100A9900123501052780F20529020B80E529247802
:100AA900123536E4F527E527C39529500712350194
:100AB900052780F2020B807877E664A26003020BB7
:100AC9008F786CE6FF7878E6FEC39F4003020B8FB0
:100AD90008E6FDC39F4003020B8FEEC39D4003024E
:100AE9000B8F18E6F527E4F529E527D37879965091
:100AF9001FAF271238F875F010E527A424BBF5823B
:100B0900E5F0341DF583E4932529F529052780D9D6
:100B1900C2ACE4F525D287FB7A0079257F7F1235AF
:100B29003D7B007A007925AF2912353D7878E6F5C5
:100B390027E527D3787996503EE4F52875F010E536
:100B490027A424BBF582E5F0341DF583E493FFE582
:100B590028C39F501E7875E6FF18E68FF0A47C0025
:100B69002528FFEC35F0FE75F010E527123519053B
:100B79002880C9052780BA7B007A007900AF251241
:100B8900353DC287D2ACE52664587047FA7B327D81
:100B9900017875E6FF122E9A7530007531007532AD
:100BA9008C7B007A0079781238218F29E5292478FD
:100BB900788BF6E5292401FDE433FC7B007A007982
:100BC9008B122D82748C2529F8EFF6E5292402FF72
:100BD9001238BFE52664806009E52664886003024F
:100BE9000D1E7A007B327D017875E6FF122E9A7808
:100BF90077E65407F529B4070A75280108E6F529A7
:100C0900088005E4F5287878E6F52A1529E52AC348
:100C1900786C964003020CFC75F010E52AA424BBFD
:100C2900F582E5F0341DF583E493FFE529D39F4070
:100C3900028F29E4F527E527C395294003020CEF24
:100C490075F010E52AA424BFF582E5F0341DF5837B
:100C5900E49330E203020CEA75F010E52AA424BCFF
:100C6900F582E5F0341DF583E4936438701BE529BA
:100C7900D394044008E52825272479802A786EE64C
:100C8900C39527FF74752F801E75F010E52AA424DB
:100C9900BBF582E5F0341DF583E493FFC3786EE676
:100CA9009F252725282476F8E6FD7875E6FF18E6BE
:100CB9008FF0A4FFE5277A002FFFEA35F0FE75F0E3
:100CC90010E52AA424C8F582E5F0341DF583E493E0
:100CD900FB740193FA740293F98F828E83ED1204E7
:100CE900480527020C3FAF2A122269E5266488705D
:100CF90024800FE52AB4FF1D7879E6F520E526B4AE
:100D09008813788B7678786EE62476F8E6788CF610
:050D19007F021238BF4B
:010D1E0022B2
:103000007893E664F16003023500C2AFE4F5D9F5C8
:103010004AF54920982FE4F54EF54F209823C3E553
:093020004F9488E54E94135018FA
:0E30290075540A0075550300D555FCD554F5B5
:10303700054FE54F70DE054E80DAB2A780CE859941
:1030470049C298E549641A600302310EF54EF54FFF
:0E305700209823C3E54F9488E54E941350183B
:0E30650075540A0075550300D555FCD554F579
:10307300054FE54F70DE054E80DA30989385994A07
:10308300C298E4F54EF54F209823C3E54F9488E5A5
:053093004E94135018DB
:0E30980075540A0075550300D555FCD554F546
:1030A600054FE54F70DE054E80DA20980302301397
:1030B60085994AC298E4F54EF54F209823C3E54F0B
:0830C6009488E54E94135018A4
:0E30CE0075540A0075550300D555FCD554F510
:1030DC00054FE54F70DE054E80DA20980302301361
:0930EC0085994AC298D287C29965
:0E30F5007554140075550300D555FCD554F5DF
:103103007599783099FDC2870234F2E549640170FC
:0531130033D287C299D0
:0E3118007554140075550300D555FCD554F5BB
:083126007599783099FDC299FA
:0E312E007554140075550300D555FCD554F5A5
:10313C00E4F5993099FDC2870234F2E549640260E6
:10314C00030231F9F54EF54F209823C3E54F9488CF
:06315C00E54E941350182B
:0E31620075540A0075550300D555FCD554F57B
:10317000054FE54F70DE054E80DA209803023013CC
:1031800085994AC298E4F54BE54A13B392A7E54AFC
:1031900025E0FEC3E49400EE94305027E54A7F001A
:1031A00025E0FEC3943A501B758F038E508F5175E6
:1031B000B7A57893E6F5B7855182855083E4F0F59D
:0A31C0008F8003754BFFD287C29980
:0E31CA007554140075550300D555FCD554F509
:0831D8007599783099FDC29948
:0E31E0007554140075550300D555FCD554F5F3
:1031EE00854B993099FDC2870234F2E5496403603C
:1031FE0003023335F54EF54F209823C3E54F9488DF
:06320E00E54E9413501878
:0E32140075540A0075550300D555FCD554F5C8
:10322200054FE54F70DE054E80DA20980302301319
:1032320085994AC298E4F54EF54F209823C3E54F8D
:083242009488E54E9413501826
:0E324A0075540A0075550300D555FCD554F592
:10325800054FE54F70DE054E80DA209803023013E3
:1032680085994CC298E54A1392A7E54A25E0FEC322
:10327800E49400EE94304003023013E54A7D0025C3
:10328800E0FCC3943A4003023013758F01E54C7596
:10329800F020A42DFFE5F03CF5508F51E4F54DE505
:1032A8004DC394205051E4F54EF54F209823C3E5C3
:0932B8004F9488E54E9413501860
:0E32C10075540A0075550300D555FCD554F51B
:1032CF00054FE54F70DE054E80DA2098030230136C
:1032DF0075B7A57893E6F5B70551E551AE50700275
:1032EF00055014F5828E83E599F0C298054D80A89C
:0732FF00E4F58FD287C299AC
:0E3306007554140075550300D555FCD554F5CB
:083314007599783099FDC2990A
:0E331C007554140075550300D555FCD554F5B5
:10332A00E4F5993099FDC2870234F2E549640460F4
:10333A00030233DBF54EF54F209823C3E54F9488FB
:06334A00E54E941350183B
:0E33500075540A0075550300D555FCD554F58B
:10335E00054FE54F70DE054E80DA209803023013DC
:10336E0085994AC298E54A25E0F552755300E4F571
:10337E004BF54EF54F0553E553AE52700205521400
:10338E00F5828E83E493254BF54B054FE54F700286
:0E339E00054E7004E54E640270DBD287C299C2
:0E33AC007554140075550300D555FCD554F525
:0833BA007599783099FDC29964
:0E33C2007554140075550300D555FCD554F50F
:1033D000854B993099FDC2870234F2E54964056056
:1033E000030234EAF54EF54F209823C3E54F948845
:0633F000E54E9413501895
:0E33F60075540A0075550300D555FCD554F5E5
:10340400054FE54F70DE054E80DA20980302301335
:1034140085994AC298E4F54EF54F209823C3E54FA9
:083424009488E54E9413501842
:0E342C0075540A0075550300D555FCD554F5AE
:10343A00054FE54F70DE054E80DA209803023013FF
:09344A0085994CC298D287C29901
:0E3453007554140075550300D555FCD554F57D
:0834610075997F3099FDC299B5
:0E3469007554140075550300D555FCD554F567
:103477007599203099FDE54A25E0FCE54C75F0206B
:10348700A42400FFE5F03CF5528F53E4F54BF54DCE
:02349700C299D8
:0E3499007554140075550300D555FCD554F537
:1034A700855382855283E493F5993099FD0553E559
:1034B70053AE527002055214F5828E83E493254B66
:0B34C700F54B054DE54DB420C7C29940
:0E34D2007554140075550300D555FCD554F5FE
:1034E000854B993099FDC2878008E549B40603757C
:1034F000EF10E549640760030230137893F6D2AF0A
:0135000022A8
:103579001238FD200B0B7A007B327D017F00122E61
:103589009A300D0B7A007B1E7D017F00122E9A3036
:10359900081C300E197A007B327D017875E6FF121E
:1035A9002E9AC208E4F55AF55B122B08D20B300F9C
:1035B90008300E05C20F123000122FF3E47B2C7A6B
:1035C90001F9F8C31205235002D20E300A0375EF30
:0235D9001022BE
:0B38E800121869123579122F8C80F83D
:10237600005EBCE2613FDD83C29C7E20A3FD1F415F
:102386009DC3217FFCA2401E5F01E3BD3E6082DC4F
:10239600237D9FC1421CFEA0E1BF5D0380DE3C623F
:1023A600BEE0025CDF81633D7C22C09E1D43A1FF2F
:1023B6004618FAA427799BC584DA3866E5BB59071F
:1023C600DB856739BAE406581947A5FB7826C49A0F
:1023D600653BD987045AB8E6A7F91B45C6987A24FF
:1023E600F8A6441A99C7257B3A6486D85B05E7B9EF
:1023F6008CD2306EEDB3510F4E10F2AC2F7193CDDF
:10240600114FADF3702ECC92D38D6F31B2EC0E50CE
:10241600AFF1134DCE90722C6D33D18F0C52B0EEBE
:10242600326C8ED0530DEFB1F0AE4C1291CF2D73AE
:10243600CA947628ABF517490856B4EA6937D58B9E
:102446005709EBB536688AD495CB2977F4AA48168E
:10245600E9B7550B88D6346A2B7597C94A14F6A87E
:10246600742AC896154BA9F7B6E80A54D7896B356E
:0A2476000000000000002B96B9DD05
:102D8200151C151CA81CECF608EDF6151C151C15D7
:102D92001CA81CC6EBC608C6EAC608C6E9C6E51CDE
:042DA20024FCF51CFC
:102DA600F80808E4F6A81CF608F6E51C2407F9A8B6
:102DB6001CE6FE08E6FFC3099719E76480F8EE648F
:102DC60080985037E51C2404F8CBE6CB08E6FA08D1
:102DD600E6F98F828E83120409A81C080866FFE5AF
:102DE6001C2403F8EFF6E690237693A81C0808F651
:102DF600A81C0806E61870B20680AFA81C0808E6EC
:012E0600FFCC
:072E0700E51C2409F51C2263
:07000300ED6F90237693FFDF
:01000A0022D3
:10389E00EF701B7598D0E589540F4420F589438E3F
:1038AE0008ED90247593F58DD28ED2ACC2BCD2AFFA
:0138BE0022E7
:10372F00D2AFD2A9D2BBE589540F4401F589E4F594
:10373F008E758CAFF58AD28CF51BF51AF519F51825
:10374F00FFEF25E025E02494F8E4F6EF25E025E0EF
:10375F002495F8E4F6EF25E025E02496F8E4F6EF5B
:0D376F0025E025E02497F8E4F60FBF05D40F
:01377C00222A
:072BB300C0D075D010151C05
:102BBA00A81CE4F6A81CE6FFC394054003022C51A6
:102BCA00EF25E025E02497F8E6FFD394004052A8C9
:102BDA001CE625E025E02495F8E67045EF30E0157F
:102BEA00A81CE6FF25E025E02497F8E6D3940140E7
:102BFA00047D0180067D00A81CE6FF122F13A81C85
:102C0A00E6FF25E025E02497F816E66014EF25E0B4
:102C1A0025E02496F8E6FEEF25E025E02495F8EE77
:102C2A00F6A81CE625E025E02495F8E6600116A83A
:102C3A001CE6FF25E025E02497F8E67004FD122F34
:072C4A0013A81C06022BBEBB
:052C5100051CD0D0229B
:03000B000237BCFD
:1037BC00C0E0C0F0C083C082C0D075D010758CAF93
:1037CC00E51B2401F51BE4351AF51AE43519F51936
:1037DC00E43518F518122BB3D0D0D082D083D0F0AA
:0337EC00D0E032F8
:10387700151CA81CEDF6151CA81CEFF6A81CE6FFE6
:10388700C39405500D08E6FEEF25E025E02494F8E3
:07389700EEF6051C051C22E2
:102E9A00151C151CA81CEAF608EBF6151CA81CED57
:102EAA00F6151CA81CEFF6A81CE6FFC394055052A1
:102EBA00EF25E025E02497F8E67047A81CE6FB25F5
:102ECA00E025E02495F8E67039A81C08E625E00418
:102EDA00FFA81CE6FA25E025E02497F8EFF6A81CDF
:102EEA000808E6FE08E6FF7C007D0A12047CEA2553
:102EFA00E025E02496F8EFF6EB25E025E02495F8A6
:092F0A00E4F6E51C2404F51C2288
:102F1300C0D075D010151CA81CEDF6151CA81CEF0D
:102F2300F6A81CE6FFC39405501CEF25E025E0241A
:102F330094F8E66011A81C08E670047F0180027F04
:102F430000A81C08EFF6A81CE6700608E624FF920A
:102F5300A7A81CE6FFB4010608E624FF92A6EFB477
:102F63000208A81C08E624FF92A5A81CE6B40306E1
:102F730008E624FF92A4A81CE6B4040608E624FF8E
:092F830092A3051C051CD0D0220C
:0C2FF300C2AFAF1BAE1AAD19AC18D2AFC4
:012FFF0022AF
:0438FD00E4F5FE22CE
:04384E008E458F46CE
:10385200E4F547F548C3E5489546E54795455014D4
:103862007FE87E031235DB1235790548E54870E5BD
:04387200054780E1A5
:01387600222F
:0435DB008E4B8F4C38
:1035DF00D3E54C94FAE54B9400500FEFD394004091
:1035EF0041007E0300DEFD1F80F1854B4D854C4E63
:1035FF00D3E54E94FAE54D940040157FFA7E001204
:10360F0035DB7406254EF54E74FF354DF54D80E0D4
:10361F00D3E54C9400E54B94004007AF4EAE4D12EE
:02362F0035DB89
:013631002276
:083688008B3C8A3D893E8D3F19
:103690001238FDAB40AA41A9421204B22400FFE552
:1036A000F0343AFE853C43853D44853E45E4FDEDDE
:1036B000C3953F501BEF2DF582E43EF583E493ABB9
:1036C00043AA44A9458D827583001204480D80DF0A
:0D36D000AB40AA41A942E4853FF00204DDB1
:082C56008B4F8A5089518D5209
:102C5E007893E664F16003022CF2C2AF758F01AB7C
:102C6E0053AA54A9551204B22400FFE5F0343A7861
:102C7E00A8F608EFF6AA50A95178ACA64F08C6EAF6
:102C8E00C608C6E9C6E478AAF678AAE6C3955250F5
:102C9E003C78ACCBE6CB080806E618CAE6CA70014B
:102CAE000614F91203F078ABF675B7A57893E6F52E
:102CBE00B778ABE6FF78A80806E618CCE6CC70012C
:102CCE000614F5828C83EFF078AA0680BCE4F58FAB
:102CDE0053B6F0AB53AA54A9558552F01204DDD267
:042CEE00AF1238FDEC
:012CF20022BF
:103632007893E664F1704EC2AF758F0378AA763A3A
:10364200087600E478A8F608F675B7A57893E6F54B
:10365200B778AAE6FE08E6F5828E83E4F01238FD1A
:10366200E426F618740236F61806E618700106C348
:1036720078A9E6940118E66480948040CCE4F58F42
:0536820053B6F0D2AFC9
:013687002220
:102B0800123632E4F54DF54EF55375540075554DB2
:102B1800FB7A0079567D16122C56E4F54AE54AC32D
:102B280078B4965067E4F54975F010E549A424BBDC
:102B3800F582E5F0341DF583E493604C7874E685FE
:102B48004AF0A4FFAEF075F010E549A424C8F58258
:102B5800E5F0341DF583E493FB740193FA74029352
:102B68002FF9EA3EFA75F010E549A424BBF582E591
:102B7800F0341DF583E493FD7553007554007555C5
:102B88004D122C56054980A0054A8091754B127547
:102B98004C3475530075540075554D7B007A007997
:0A2BA8004B7D02122C56E47893F6E0
:012BB2002200
:1028F900E4F53AF53BF54075410075423AFB7A003B
:1029090079567D16123688E4F537E537C378B496DB
:102919005067E4F53675F010E536A424BBF582E579
:10292900F0341DF583E493604C7874E68537F0A4A0
:10293900FFAEF075F010E536A424C8F582E5F03451
:102949001DF583E493FB740193FA7402932FF9EA5A
:102959003EFA75F010E536A424BBF582E5F0341D86
:10296900F583E493FD75400075410075423A1236CE
:1029790088053680A005378091754000754100753E
:10298900423A7B007A0079387D02123688E539644B
:0F299900347004E538641270047F0180027F00FF
:0129A800220C
:101DB3004856522D353030000134000000436F6E19
:101DC30074726F6C000100140418000001556465FF
:101DD3006D616E64000100150418000001556D6506
:101DE30061730000000100190406FA0001496D65E2
:101DF300617300000001001D013400000053746191
:101E03007475730000010021015C000000547269C5
:101E130070436E7400010022021800000052616DCD
:101E23007055700000010023021800000052616D1C
:101E330070446F776E0100250418000001556C692A
:101E43006D697400000100270406FA0001496C69FA
:101E53006D6974000001002B015C0000005472697D
:101E6300704D61780001002F045D00000941444377
:101E73006761696E000100300418000009414443A2
:101E83006F66730000010034045D000009444143A0
:101E93006761696E0001003804180000094441437A
:101EA3006F6673000001003C045D00000943555256
:101EB300766761696E010040045D00000943555275
:101EC3006761696E000100440406FA000943555234
:101ED3006F6673000001004804180000095644416E
:101EE300430000000001004C00000000000000005F
:101EF30000000000000000000001020304050706C3
:081F03000100030205040F0EAA
:03001F0001B40524
:10159200E4F5A5F5A6EF70030216DDE4F53675F065
:1015A2003CE536A42415F582E5F03400F5831205F6
:1015B200EB0000000075F03CE536A42422F582E53C
:1015C200F03400F583E4F075F03CE536A42423F50D
:1015D20082E5F03400F583E4F0A3F075F03CE536E3
:1015E200A42425F582E5F03400F583E4F0A3F07538
:1015F200F03CE536A42427F582E5F03400F58312A9
:1016020005EB451C400075F03CE536A4242BF58221
:10161200E5F03400F5831205EB44FA000075F03C66
:10162200E536A4242FF582E5F03400F583E4F07565
:10163200F03CE536A42430F582E5F03400F583125F
:1016420005EB3F80000075F03CE536A42434F582BA
:10165200E5F03400F5831205EB0000000075F03C64
:10166200E536A42438F582E5F03400F5831205EB63
:101672003F80000075F03CE536A4243CF582E5F09D
:101682003400F5831205EB0000000075F03CE536EE
:10169200A42440F582E5F03400F5831205EB000046
:1016A200000075F03CE536A42444F582E5F03400F0
:1016B200F5831205EB3F80000075F03CE536A4246B
:1016C20048F582E5F03400F5831205EB00000000D6
:1016D2000536E536640560030215A0E4F53675F0BB
:1016E2003CE536A42414F582E5F03400F583740257
:1016F200F075F03CE536A42421F582E5F03400F5DE
:1017020083E4F075F03CE536A42415F582E5F03467
:1017120000F5831205EB0000000075F03CE536A4ED
:101722002422F582E5F03400F583E4F075F03CE51F
:1017320036A42427F582E5F03400F583E0FCA3E02B
:10174200FDA3E0FEA3E0FF7B007A40791C784512FE
:1017520002C4501775F03CE536A42427F582E5F063
:101762003400F5831205EB451C400075F03CE5366C
:10177200A4242BF582E5F03400F583E0FCA3E0FD20
:10178200A3E0FEA3E0FFE4FBFA79FA78441202C474
:10179200501775F03CE536A4242BF582E5F03400B1
:1017A200F5831205EB44FA0000122FF3E53625E02B
:1017B20025E02400F582E43400F5831205C60536DF
:1017C200E536C3940550030216E0D2B2D2B1D281FB
:1017D200D280D283D282D2A1D2A0A2A0E4FE3325AB
:1017E200E0FFEE33FEA2A1E433FDEF4D25E0FFEE74
:1017F20033FEA282E433FDEF4D25E0FFEE33FEA27D
:1018020083E433FDEF4D25E0FFEE33FEA280E433A7
:10181200FDEF4D25E0FFEE33FEA281E433FDEF4DF7
:10182200FF7C007D0512046AE55642068E568F57EC
:10183200D296D297D290D2947D527F0312282F1241
:10184200000EE4F53674AF2536F876090536E5362E
:10185200B405F2E4F5367D01AF361238770536E588
:0618620036C3940540F0BE
:01186800225D
:10226900151CA81CEFF6A81CE6FF600864016004B1
:10227900EFB404231238F375F03CEFA42421F5825E
:10228900E5F03400F583E054DFF0D2101238F3742E
:10229900AF2FF8740146F6A81CE66408704E123890
:1022A900F375F03CEFA42427F582E5F03400F583BB
:1022B900E0FCA3E0FDA3E0FEA3E0FF7B007A407908
:1022C9001C78451202C450191238F375F03CEFA47A
:1022D9002427F582E5F03400F5831205EB451C400F
:1022E900001238F374AF2FF8740146F6A81CE6649F
:1022F9000970771238F375F03CEFA4242BF582E5C9
:10230900F03400F583E0FCA3E0FDA3E0FEA3E0FFC9
:10231900E4FBFA79FA78441202C450431238F3758F
:10232900F03CEFA4242BF582E5F03400F583E0FCC2
:10233900A3E0FDA3E0FEA3E0FF7B007A3C791C78D3
:10234900461202C460191238F375F03CEFA4242B2D
:10235900F582E5F03400F5831205EB44FA0000122A
:0D23690038F374AF2FF8740846F6051C22F7
:0538F8008F2D7F00226E
:103821008B2D8A2E892F1203F0AB30AA31A93212C7
:103831000436AB2DAA2EA92F900001120409AB303A
:0D384100AA31A9329000011204487F022232
:101C2B00151C151CA81CECF608EDF6151CA81CEFD2
:071C3B00F6151C151C151C19
:101C4200E51C2403F8E675F00684E5F0901EFB938C
:101C5200F6C292A81CE4F6A81C087608A81CE6C3E3
:101C620094045034C29508E6540394004003D38090
:101C720001C392947F2C7E011235DBD2957F2C7E9C
:101C8200011235DBA81C08E8C0E0E6C313FFD0E070
:101C9200F8EFF6A81C0680C41238FDA81CE4F6A8CA
:101CA2001C087608A81CE6C39404503CC29508C9D7
:101CB200E8C9E51C2403F8E657D394004003D38017
:101CC20001C392947F2C7E011235DBD2957F2C7E4C
:101CD200011235DBA81C08E8C0E0E6C313FFD0E020
:101CE200F8EFF6A81C0680BC1238FDE51C2404F9A6
:101CF200E7A81C0808F6A81CE4F6A81C087680A829
:101D02001CE6C39408503AC29508C9E8C9A81C0841
:101D120008E65794004003D38001C392947F2C7E3F
:101D2200011235DBD2957F2C7E011235DBA81C080F
:101D3200E8C0E0E6C313FFD0E0F8EFF6A81C068087
:101D4200BE1238FDE51C2404F808E6A81C0808F6B3
:101D5200A81CE4F6A81C087680A81CE6C3940850C8
:101D62003AC29508C9E8C9A81C0808E65794004079
:101D720003D38001C392947F2C7E011235DBD2956E
:101D82007F2C7E011235DBA81C08E8C0E0E6C313F5
:101D9200FFD0E0F8EFF6A81C0680BE1238FDD29202
:0A1DA2007F2C7E011235DB1238FDA4
:071DAC00E51C2406F51C22D2
:04282F008F458D46FE
:10283300C293E4F547C2957F2C7E011235DBC29427
:102843007F2C7E011235DBD2957F2C7E011235DB86
:102853000547E547C3940440DC1238FDE4F54775AA
:102863004808C2957F2C7E011235DBE5455548D3D8
:1028730094004003D38001C392947F2C7E011235D0
:10288300DBD2957F2C7E011235DBE548C313F54877
:102893000547E547C3940440C91238FDD2937F2C02
:1028A3007E011235DB1238FDC293E4F5477548808B
:1028B300C2957F2C7E011235DBE5465548D3940043
:1028C3004003D38001C392947F2C7E011235DBD267
:1028D300957F2C7E011235DBE548C313F548054788
:1028E300E547C3940840C91238FDD2937F2C7E017B
:0628F3001235DB0238FD86
:08267D008F378B388A39893A46
:10268500C293E4F53BC2957F2C7E011235DBE53B19
:10269500B40103D38001C392947F2C7E011235DBF4
:1026A500D2957F2C7E011235DB053BE53BC39404B7
:1026B50040D31238FDE4F53B753C08C2957F2C7E6E
:1026C500011235DBE537553CD394004003D3800137
:1026D500C392947F2C7E011235DBD2957F2C7E012F
:1026E5001235DBE53CC313F53C053BE53BC39404E0
:1026F50040C91238FDD2937F2C7E011235DB12388A
:10270500FDC293E4F53B753C80AB38AA39A93A1272
:102715000436C2957F2C7E011235DB30910EAB3825
:10272500AA39A93A1203F0453C120436D2957F2CFA
:102735007E011235DBE53CC313F53C053BE53BC3A8
:10274500940840CE1238FDD2937F2C7E011235DBE2
:032755000238FD4A
:082480008F458B468A4789480D
:10248800C293E4F549C2957F2C7E011235DBE549FC
:10249800B40103D38001C392947F2C7E011235DBF3
:1024A800D2957F2C7E011235DB0549E549C394049A
:1024B80040D31238FDE4F549754A08C2957F2C7E51
:1024C800011235DBE545554AD394004003D380011A
:1024D800C392947F2C7E011235DBD2957F2C7E012E
:1024E8001235DBE54AC313F54A0549E549C39404A7
:1024F80040C91238FDD2937F2C7E011235DB123889
:10250800FDC293E4F549AB46AA47A94812061C0048
:10251800000000AB46AA47A94812054778011205F2
:1025280034120567C2957F2C7E011235DB7F2C7E25
:10253800011235DBAB46AA47A948EBC0E0EAC0E088
:10254800E9C0E012059AA291E4334BFFEAFEE9FDE7
:10255800E8FCD0E0F9D0E0FAD0E0FB120567D295AC
:102568007F2C7E011235DB0549E549C3941840A349
:0F2578001238FDD2937F2C7E011235DB0238FD25
:062587008B398A3A893B02
:10258D00EF75F00A84E5F0901F0193C454F0440FE9
:10259D00FD7F0212282F7D127F0112282F122FF39B
:1025AD008F438E428D418C4030905B123579E4F52E
:1025BD0044AF44120D1F0544E544C3940540F21287
:1025CD002FF3C3EF9543FFEE9542FEED9541FDECE4
:1025DD009540FCE47B1EFAF9F8C312052350C9C2DD
:1025ED00977F647E0012384ED2977F2C7E01123871
:1025FD004E7D527F0312282FAB39AA3AA93B120602
:10260D001C00000000227B007A00793C7F0412241C
:10261D0080AF3FAE3EAD3DAC3CE4120331E4FBFA7E
:10262D007980784B1202277B0A7AD779237840126A
:10263D00011EAB39AA3AA93B120567AB39AA3AA9D3
:10264D003B1205477B007A247974784912011EE408
:10265D00FBFAF9783F12002D1229A97B007A247913
:0F266D00747849120227AB39AA3AA93B120567C4
:01267C00223B
:101A7A00E54525E025E02440F582E43401F583E0DC
:101A8A00FCA3E0FDA3E0FEA3E0FFE51C24FCF51C9B
:061A9A00F81205BAAF4589
:0A1AA000151CA81CEFF6151C151C00
:101AAA00A81C0808E675F03CA42427F582E5F03462
:101ABA0000F583E0FCA3E0FDA3E0FEA3E0FFE51C44
:101ACA002403F812058D1202C4A81C603C403A088F
:101ADA0008E6FB75F03CA42427F582E5F03400F50E
:101AEA0083E0FCA3E0FDA3E0FEA3E0FFE51C2403E2
:101AFA00F81205BA75F03CEBA42421F582E5F0341E
:101B0A0000F583E04410F080150808E675F03CA45F
:101B1A002421F582E5F03400F583E054EFF0E4FF88
:101B2A00FE7D207C41E51C2403F812058D1202C4B7
:101B3A0060054003D38001C340047D0180027D001B
:101B4A00A81C0808E6FF123877A81C0808E675F0F2
:101B5A003CA42438F582E5F03400F583E0FCA3E0E8
:101B6A00FDA3E0FEA3E0FFE51C2403F812058D1295
:101B7A00011EA81C0808E675F03CA4243CF582E581
:101B8A00F03400F583E0F8A3E0F9A3E0FAA3E0FB60
:101B9A0012002DE51C2403F81205BAE4FFFEFDFC31
:101BAA00E51C2403F812058D1202C4500CE51C240E
:101BBA0003F81205D200000000E51C2403F8E8C06F
:101BCA00E01205817B937A6D799B7844120227D0C3
:101BDA00E0F81205BAE4FBFA79207840E8C0E0E5BB
:101BEA001C2403F8120581D0E0F8120227E4FBFA5C
:101BFA007980784712011EE4FBFAF9783F12002D2A
:101C0A0012036FA81CEEF608EFF6A81CE6FC08E61D
:0A1C1A00FDA81C0808E6FF121C2BB1
:071C2400E51C2407F51C225A
:022CF3008F341C
:102CF500E53425E0FF7B007A007935122587AF386A
:102D0500AE37AD36AC357B937A6D799B784412013D
:102D15001E8F388E378D368C3575F03CE534A424FE
:102D250030F582E5F03400F583E0FCA3E0FDA3E097
:102D3500FEA3E0FFAB38AA37A936A83512011E75E8
:102D4500F03CE534A42434F582E5F03400F583E065
:102D5500F8A3E0F9A3E0FAA3E0FB12002D8F388E6B
:102D6500378D368C35C2AF75F03CE534A42419F5A2
:0C2D750082E5F03400F5831205C6D2AFF1
:012D8100222F
:082A59008F378E368D358C3469
:102A61007F007E3C7D1C7C46AB37AA36A935A83455
:102A71001202C4700974FFF538F539022AFF90007B
:102A810048E0F8A3E0F9A3E0FAA3E0FBAF37AE36E4
:102A9100AD35AC34120029900044E0F8A3E0F9A36D
:102AA100E0FAA3E0FB1202278F378E368D358C3486
:102AB1007B937A6D799B78441202277B007A147993
:102AC1004D784912011E7B007A24797478491202EB
:102AD100278F378E368D358C34E4FBFA7920784098
:102AE1001202277B007AFF797F784712011EE4FBEF
:102AF100FAF9783F12002D12036F8E388F39AC38F6
:072B0100AD397F05021C2B1A
:021F0B008F3510
:101F0D007B007A0079367F0712267DE5365402D3A1
:101F1D00940040037F0022122FF3C8ECC8C9EDC90D
:101F2D00CAEECACBEFCBE53525E025E02400F582DE
:101F3D00E43400F583E0FCA3E0FDA3E0FEA3E02480
:101F4D002CFFEE3401FEE43DFDE43CFCD3120523F1
:101F5D00500302203575F03CE535A42430F582E5BB
:101F6D00F03400F583E0FCA3E0FDA3E0FEA3E0FF69
:101F7D00E4FBFA7980783F1202C4705675F03CE5A7
:101F8D0035A42419F582E5F03400F583E0FCA3E0D7
:101F9D00FDA3E0FEA3E0FFE4FBFA79C8784212024C
:101FAD00C4602C402A75F03CE535A42415F582E576
:101FBD00F03400F583E0FCA3E0FDA3E0FEA3E0FF19
:101FCD00E4FBFA791678431202C450037F01227F95
:101FDD00002275F03CE535A42419F582E5F03400B6
:101FED00F583E0FCA3E0FDA3E0FEA3E0FFE4FBFA34
:101FFD00792078411202C4602C402A75F03CE535F9
:10200D00A42415F582E5F03400F583E0FCA3E0FD92
:10201D00A3E0FEA3E0FFE4FBFA797078411202C45D
:0A202D0050037F01227F00227F0094
:012037002286
:0E000E007D107F0712282F7D117F0702282FFB
:102038008F34121F0BEF7003022135E51C24FCF5C9
:102048001CF81205D200000000AF34121AA0E534C3
:1020580025E025E02440F582E43401F5831205EB00
:102068000000000075F03CE534A4244CF582E5F04E
:102078003400F5831205EB0000000074AF2534F836
:1020880074FE56F674AF2534F874FD56F674AF2511
:1020980034F874FB56F675F03CE534A42421F58237
:1020A800E5F03400F583E054F3F075F03CE534A432
:1020B8002421F582E5F03400F583E0FF20E527755B
:1020C800F03CE534A42421F582E5F03400F583EFF3
:1020D8004420F075F03CE534A42422F582E5F03480
:1020E80000F583E004F075F03CE534A4242FF58274
:1020F800E5F03400F583E0FF75F03CE534A42422D4
:10210800F582E5F03400F583E0C39F502075F03C7C
:10211800E534A42421F582E5F03400F583E054DFAA
:10212800F012000E74AF2534F8740146F675F03CD1
:10213800E534A42421F582E5F03400F583E030E5A8
:0D2148000B7A007B647D03AF34122E9A22C7
:022155008F34C5
:10215700E53425E004FF7B007A007935122587E412
:10216700FBFA79707841AF38AE37AD36AC3512022D
:10217700277B937A6D799B784412011E7B007AC086
:10218700795A78471202277B007A247974784912A2
:10219700011E8F388E378D368C35AB38AA37A93666
:1021A700A835E8C0E0E9C0E0EAC0E0EBC0E075F0C0
:1021B7003CE534A42419F582E5F03400F583E0FC0E
:1021C700A3E0FDA3E0FEA3E0FF75F03CE534A42403
:1021D70040F582E5F03400F583E0F8A3E0F9A3E0E9
:1021E700FAA3E0FB12011ED0E0FBD0E0FAD0E0F941
:1021F700D0E0F812002D8F388E378D368C3575F07C
:102207003CE534A42444F582E5F03400F583E0FC92
:10221700A3E0FDA3E0FEA3E0FFAB38AA37A936A8E9
:102227003512011E75F03CE534A42448F582E5F02B
:102237003400F583E0F8A3E0F9A3E0FAA3E0FB128A
:10224700002D8F388E378D368C35C2AF75F03CE553
:1022570034A4241DF582E5F03400F5831205C6D2B7
:01226700AFC7
:012268002253
:020D1F008F45FE
:100D210075F03CEFA42414F582E5F03400F583E07E
:100D310020E00302120275F03CEFA42421F582E5C4
:100D4100F03400F583E030E50302120274AF2FF8AE
:100D5100E620E003020EA0EF25E025E02440F58225
:100D6100E43401F583E0FCA3E0FDA3E0FEA3E0FF92
:100D710075F03CE545A42415F582E5F03400F583D2
:100D8100E0F8A3E0F9A3E0FAA3E0FB1202C460617A
:100D9100405F75F03CE545A42423F582E5F034007D
:100DA100F583E0FEA3E0D39400EE9400404374AFDA
:100DB1002545F8740246F674AF2545F874FB56F6DE
:100DC10075F03CE545A42421F582E5F03400F58376
:100DD100E04404F075F03CE545A42421F582E5F0FA
:100DE1003400F583E054F7F074AF2545F874FE56EE
:100DF100F6E54525E025E02440F582E43401F5835C
:100E0100E0FCA3E0FDA3E0FEA3E0FF75F03CE545B7
:100E1100A42415F582E5F03400F583E0F8A3E0F9A8
:100E2100A3E0FAA3E0FB1202C4505F75F03CE54574
:100E3100A42425F582E5F03400F583E0FEA3E0D398
:100E41009400EE9400404374AF2545F874FD56F6C6
:100E510074AF2545F8740446F675F03CE545A424C5
:100E610021F582E5F03400F583E054FBF075F03CA8
:100E7100E545A42421F582E5F03400F583E044083A
:100E8100F074AF2545F874FE56F6122FF3E54525AB
:100E9100E025E02400F582E43400F5831205C674F0
:100EA100AF2545F8E620E10302104A122FF3CBEFFC
:100EB100CBE54525E025E02400F582E43400F58307
:100EC100A3A3A3E0FFC3EB9FF546700302104AE51D
:100ED1004525E025E02440F582E43401F583C08313
:100EE100C082E0F8A3E0F9A3E0FAA3E0FBE8C0E0E8
:100EF100E9C0E0EAC0E0EBC0E075F03CE545A424C0
:100F010023F582E5F03400F583E0FCA3E0FDE41273
:100F11000336ECC0E0EDC0E0EEC0E0EFC0E0AC466F
:100F2100E412033BD0E0FBD0E0FAD0E0F9D0E0F8E6
:100F310012011EE4FBFA79C87842120227D0E0FBC5
:100F4100D0E0FAD0E0F9D0E0F812002DD082D083C1
:100F51001205C6E54525E025E02440F582E434018B
:100F6100F583E0FCA3E0FDA3E0FEA3E0FF75F03C08
:100F7100E545A4244CF582E5F03400F5831205C65D
:100F810075F03CE545A42415F582E5F03400F583C0
:100F9100E0FCA3E0FDA3E0FEA3E0FFE54525E0259D
:100FA100E02440F582E43401F583E0F8A3E0F9A3FD
:100FB100E0FAA3E0FB1202C4407775F03CE545A4DA
:100FC1002415F582E5F03400F583E0FCA3E0FDA3F0
:100FD100E0FEA3E0FFE54525E025E02440F582E4BD
:100FE1003401F5831205C6E54525E025E02440F5E9
:100FF10082E43401F583E0FCA3E0FDA3E0FEA3E07D
:10100100FF75F03CE545A4244CF582E5F03400F58C
:10101100831205C674AF2545F874FD56F675F03C8C
:10102100E545A42421F582E5F03400F583E054FB85
:10103100F0121A7A122FF3E54525E025E02400F598
:1010410082E43400F5831205C674AF2545F8E62025
:10105100E203021202122FF3CBEFCBE54525E02587
:10106100E02400F582E43400F583A3A3A3E0FFC3E9
:10107100EB9FF5467003021202E54525E025E024C9
:1010810040F582E43401F583C083C082E0FCA3E033
:10109100FDA3E0FEA3E0FFECC0E0EDC0E0EEC0E0A8
:1010A100EFC0E075F03CE545A42425F582E5F03478
:1010B10000F583E0FCA3E0FDE4120336ECC0E0EDB3
:1010C100C0E0EEC0E0EFC0E0AC46E412033BD0E08C
:1010D100FBD0E0FAD0E0F9D0E0F812011EE4FBFA0F
:1010E10079C87842120227C8ECC8C9EDC9CAEECA4C
:1010F100CBEFCBD0E0FFD0E0FED0E0FDD0E0FC12A2
:101101000029D082D0831205C6E54525E025E024DB
:1011110040F582E43401F583E0FCA3E0FDA3E0FEA9
:10112100A3E0FF75F03CE545A4244CF582E5F034DD
:1011310000F5831205C675F03CE545A42415F5823A
:10114100E5F03400F583E0FCA3E0FDA3E0FEA3E0BD
:10115100FFE54525E025E02440F582E43401F583EF
:10116100E0F8A3E0F9A3E0FAA3E0FB1202C46002F5
:10117100507775F03CE545A42415F582E5F034007F
:10118100F583E0FCA3E0FDA3E0FEA3E0FFE5452538
:10119100E025E02440F582E43401F5831205C6E53B
:1011A1004525E025E02440F582E43401F583E0FCA7
:1011B100A3E0FDA3E0FEA3E0FF75F03CE545A42418
:1011C1004CF582E5F03400F5831205C674AF254570
:1011D100F874FB56F675F03CE545A42421F582E54B
:1011E100F03400F583E054F7F0121A7A122FF3E588
:1011F1004525E025E02400F582E43400F58312055D
:04120100C60238FDEC
:101205008F3474AF2FF8E630E015122FF3E534254F
:10121500E025E02400F582E43400F5831205C67567
:10122500F03CE534A42414F582E5F03400F583E0C0
:10123500FF20E00302153F74AF2534F8E65406603D
:101245000302153F75F03CE534A42421F582E5F051
:101255003400F583E030E50302153FEF20E103029A
:1012650014A575F03CE534A42415F582E5F03400A9
:10127500F583E0FCA3E0FDA3E0FEA3E0FFE5342554
:10128500E025E02440F582E43401F5831205C675B6
:10129500F03CE534A42419F582E5F03400F583E04B
:1012A500F8A3E0F9A3E0FAA3E0FB75F03CE534A46C
:1012B5002415F582E5F03400F583E0FCA3E0FDA3F9
:1012C500E0FEA3E0FF1200291238DB7B937A6D79EB
:1012D5009B7844120227E4FBFA7920784012022712
:1012E500E4FBFA7980784712011EE4FBFAF9783FAE
:1012F5001202C4400302153F75F03CE534A4244CAA
:10130500F582E5F03400F583C083C082E0F8A3E000
:10131500F9A3E0FAA3E0FBE8C0E0E9C0E0EAC0E039
:10132500EBC0E075F03CE534A42419F582E5F03412
:1013350000F583E0F8A3E0F9A3E0FAA3E0FB75F07C
:101345003CE534A42415F582E5F03400F583E0FC92
:10135500A3E0FDA3E0FEA3E0FF120029D0E0FBD04F
:10136500E0FAD0E0F9D0E0F812002DD082D0831257
:1013750005C675F03CE534A42415F582E5F0340086
:10138500F583E0FCA3E0FDA3E0FEA3E0FFE4FBFAA8
:10139500F978C012002D75F03CE534A4244CF58293
:1013A500E5F03400F583E0F8A3E0F9A3E0FAA3E063
:1013B500FB1202C4503775F03CE534A42415F582C0
:1013C500E5F03400F583E0FCA3E0FDA3E0FEA3E037
:1013D500FFE4FBFAF978C012002D75F03CE534A462
:1013E500244CF582E5F03400F5831205C675F03C12
:1013F500E534A42415F582E5F03400F583E0FCA37B
:10140500E0FDA3E0FEA3E0FFE4FBFAF9784012005B
:101415002D75F03CE534A4244CF582E5F03400F557
:1014250083E0F8A3E0F9A3E0FAA3E0FB1202C460AD
:1014350039403775F03CE534A42415F582E5F034E0
:1014450000F583E0FCA3E0FDA3E0FEA3E0FFE4FBE1
:10145500FAF9784012002D75F03CE534A4244CF5DA
:1014650082E5F03400F5831205C674AF2534F874AF
:10147500FE56F675F03CE534A4244CF582E5F034CF
:1014850000F583E0FCA3E0FDA3E0FEA3E0FFE51C7F
:1014950024FCF51CF81205BAAF34121AA002153F48
:1014A50074AF2534F8E620E00302153F75F03CE5FE
:1014B50034A42415F582E5F03400F583E0FCA3E0BF
:1014C500FDA3E0FEA3E0FFE53425E025E02440F59B
:1014D50082E43401F5831205C675F03CE534A42495
:1014E50015F582E5F03400F583E0FCA3E0FDA3E00B
:1014F500FEA3E0FF75F03CE534A4244CF582E5F04D
:101505003400F5831205C675F03CE534A42415F5C1
:1015150082E5F03400F583E0FCA3E0FDA3E0FEA343
:10152500E0FFE51C24FCF51CF81205BAAF34121ACD
:10153500A074AF2534F874FE56F675F03CE534A476
:101545002414F582E5F03400F583E020E03C74AF27
:101555002534F8E630E03375F03CE534A4244CF549
:1015650082E5F03400F5831205EB00000000E51C70
:1015750024FCF51CF81205D200000000AF34121A45
:0D158500A074AF2534F874FE56F60238FD50
:102F8C00E4F533900014E020E24B74AF2533F8E6FF
:102F9C0030E32975F03CE533A4242BF582E5F034BD
:102FAC0000F583E0FCA3E0FDA3E0FEA3E0FF122A02
:102FBC005974AF2533F874F756F6D210AF3312208C
:102FCC0038AF33122CF3AF33120D1FAF331212057F
:102FDC00AF3312215530100512000EC2100533E527
:062FEC0033C39405409D73
:012FF20022BC
:100026000203DBE86480F8E933E83360110460F02A
:10003600ED33EC337009E8FCE9FDEAFEEBFF220440
:1000460060DED3EB9FEA9EE99DE8C2E78CF0C2F73B
:1000560095F0400CE8CCF8E9CDF9EACEFAEBCFFB07
:100066001203A685D0F05804700320D5B3E80470B7
:10007600075002B2D50203E592D5EC0460F7E4CC52
:10008600C0E0C398F8603B94186008400DD0E0FBD0
:100096000203BDE4FBFAC9FC8028E830E406E4C9A3
:1000A600FBE4CAFCE830E305E4C9CACBFCE8540724
:1000B6006010F8C3E913F9EA13FAEB13FBEC13FC2F
:1000C600D8F130F52FC3E49CFCEF9BFFEE9AFEEDD2
:1000D60099FDD0E0FBEF4E4D4C701222DB0302037C
:1000E600E2EC2CFCEF33FFEE33FEED33FDED30E7B3
:1000F600EB0203BDEF2BFFEE3AFEED39FDD0E0FB40
:1001060050130BBB00030203E5ED13FDEE13FEEFE8
:0801160013FFEC13FC0203BD12
:10011E00EC4D6011E8497017ED33EC3304600DE4DB
:10012E00FCFFFEFD22E933E8330470F80203DB1214
:10013E0003A658046009E4CC248150062850090215
:10014E0003E52840030203E2C0E0EB4A7044B980A5
:10015E0006D0E0FB0203D1EF4E701CBD8008EBFF12
:10016E00EAFEE9FD80EBE98DF0A4FEE5F002020760
:10017E00E9CDF9EAFEEBFFEF89F0A4FCE5F0CE89BC
:10018E00F0A42EFFE435F0CD89F0A42DFEE435F079
:10019E008067EF4E7005BD80D780C3EF8BF0A4ACA7
:1001AE00F0EE8BF0A42CFCE435F0F8EF8AF0A42CE2
:1001BE00E5F038FCE433CB8DF0A42CFCE5F03BF8F5
:1001CE00EE8AF0A42CFCE5F038F8E433CF89F0A4E5
:1001DE002CFCE5F038CF3400CE89F0A42FFFE5F0EB
:1001EE003EFEE433C98DF0A42EFEE5F039CD8AF043
:1001FE00A42FFFE5F03EFEE43DFD33D0E0FB5007BB
:10020E000BBB000F0203E5EC2CFCEF33FFEE33FECD
:06021E00ED33FD0203BDFB
:100224000203E5EC5D046005E8590470030203DB96
:100234001203A6580460F6EC4860F2EC7004FDFE6C
:10024400FF22C860DB2481C85009C39860025006AD
:100254000203E29850CAF582E9294B4A7005AB8241
:100264000203D175F0007C1A7880C3EF9BEE9AEDFF
:1002740099400DC3EF9BFFEE9AFEED99FDE842F025
:10028400DC23ACF0D0E0FFD0E0FED0E0FDAB822078
:10029400E7101BEB60BAEC2CFCEF33FFEE33FEED02
:1002A40033FD0203BDE803F830E705C0F075F00044
:1002B400EF2FFFEE33FEED33FD40B830E7C280AAE6
:1002C40074F8CC6480CCC86480C8F582046043C3ED
:1002D400EB9FF5F0EA9E42F0E99D42F0E89C45F080
:1002E40060305018E5825FFFE582F42B5582FB50A5
:1002F400210ABA001D09B90019088016E5825BFBC2
:10030400E582F42F5582FF50090EBE00050DBD0095
:10031400010CC3EB9FF5F0EA9E42F0E99D42F0E840
:0D0324009C45F06007CC4820E701B3EC22B7
:1003310075F020800E75F010800575F0087D007E47
:10034100007F003392D530D503120515EC334010F0
:10035100EF33FFEE33FEED33FDEC33FCD5F0ED2250
:0E036100E5F0247EA2D513CC92E7CDCEFF228C
:10036F00EDD2E7CD33EC3392D524814006E4FFFE86
:10037F00FDFC22FCE4CFCECDCC24E0501174FF80E5
:10038F00EDC3CC13CCCD13CDCE13CECF13CF047082
:07039F00F030D5DE02051568
:0D38DB00ED33EC3360065004EC6480FC22F9
:1029A9008F488E478D468C4574FFFFFEFDFCAB4872
:1029B900AA47A946A845C3120523602C7F807E96A5
:1029C9007D187C4BAB48AA47A946A8451202C460AA
:1029D9000250157F807E967D187CCBAB48AA47A90B
:1029E90046A8451202C45009AF48AE47AD46AC45AA
:1029F90022AF48AE47AD46AC4512036F8F4C8E4BA4
:102A09008D4A8C49EC120331C8ECC8C9EDC9CAEE2C
:102A1900CACBEFCBAF48AE47AD46AC45120029E46F
:102A2900FBFAF9F81202C4601A401874FF254CF534
:102A39004CE54B34FFF54BE54A34FFF54AE549349B
:102A4900FFF549AF4CAE4BAD4AAC49EC120331220C
:1003A600E9D2E7C933E833F892D5EDD2E7CD33EC9D
:0703B60033FC5002B2D52216
:1003BD00EC30E7100FBF000C0EBE00080DBD0004A1
:1003CD000BEB6014A2D5EB13FCED92E7FD2274FF4D
:1003DD00FCFDFEFF22E480F8A2D574FF13FC7D80A6
:0303ED00E480EFBA
:03000000022E0EBF
:0C2E0E00787FE4F6D8FD7581B4022E55E3
:1003F000BB010689828A83E0225002E722BBFE020B
:09040000E32289828A83E493223D
:10040900BB010CE58229F582E5833AF583E02250A8
:1004190006E92582F8E622BBFE06E92582F8E222F2
:0D042900E58229F582E5833AF583E493220C
:10043600BB010689828A83F0225002F722BBFE01A5
:02044600F3229F
:10044800F8BB010DE58229F582E5833AF583E8F0EA
:10045800225006E92582C8F622BBFE05E92582C896
:02046800F2227E
:10046A00EF8DF0A4A8F0CF8CF0A428CE8DF0A42EA6
:02047A00FE2260
:10047C00C2D5EC30E709B2D5E4C39DFDE49CFCEE9B
:10048C0030E715B2D5E4C39FFFE49EFE120688C385
:10049C00E49DFDE49CFC800312068830D507C3E480
:0604AC009FFFE49EFE220A
:1004B200BB010A89828A83E0F5F0A3E02250068715
:1004C200F009E71922BBFE07E3F5F009E3192289D7
:0B04D200828A83E493F5F0740193220A
:1004DD00BB010789828A830206DD500B09C5F0270F
:1004ED00F7C5F01937F722BBFE0D09F8E325F0F338
:1004FD00C5F019E338F322F889828A8374019325B4
:08050D00F0C5F0F8E493382278
:0E051500C3E49FFFE49EFEE49DFDE49CFC22F7
:10052300EB9FF5F0EA9E42F0E99D42F0E89C45F02E
:0105330022A5
:10053400E8600FEFC333FFEE33FEED33FDEC33FC25
:03054400D8F122C9
:10054700BB010789828A830206F35005E9F8020591
:1005570081BBFE05E9F80206FF89828A8302070B41
:10056700BB010789828A830205C65005E9F802059F
:0A057700BABBFE05E9F802074422B2
:0C058100E6FC08E6FD08E6FE08E6FF22A6
:0D058D00E6FB08E6F908E6FA08E6CBF822DE
:10059A00BB010789828A8302071B5005E9F8020515
:1005AA008DBBFE05E9F802072789828A8302073490
:0C05BA00ECF608EDF608EEF608EFF6226D
:0C05C600ECF0A3EDF0A3EEF0A3EFF022A8
:1005D200D083D082E493F608740193F608740293F0
:0905E200F608740393F674047327
:1005EB00A8828583F0D083D08212060212060212F3
:1005FB000602120602E473E493A3C583C5F0C58318
:10060B00C8C582C8F0A3C583C5F0C583C8C582C859
:01061B0022BC
:10061C00BB010789828A830205EB5005E9F80205C4
:0A062C00D2BBFE05E9F802075022D8
:10063600D083D082F8E4937012740193700DA3A353
:1006460093F8740193F5828883E473740293686067
:06065600EFA3A3A380DF67
:1036DD008B368A378938E4F53EF53FE53D153DAE2D
:1036ED003C7002153C4E6033AB39AA3AA93B12032C
:1036FD00F0FFAB36AA37A938053FE53FAC3E700267
:10370D00053E14F5828C83EF120448EF60CD7401F1
:10371D00253BF53BE4353AF53A80C0AB36AA37A9DF
:02372D00382240
:10065C00EF4E6012EF60010EEDBB010B89828A83B5
:10066C00F0A3DFFCDEFA2289F05007F709DFFCA9C2
:0C067C00F022BBFEFCF309DFFCA9F02219
:102E1A000238E8E493A3F8E493A34003F68001F2AE
:102E2A0008DFF48029E493A3F85407240CC8C333B9
:102E3A00C4540F4420C8834004F456800146F6DF88
:102E4A00E4800B010204081020408090001CE47EFC
:102E5A00019360BCA3FF543F30E509541FFEE4937D
:102E6A00A360010ECF54C025E060A840B8E493A344
:102E7A00FAE493A3F8E493A3C8C582C8CAC583CA6F
:102E8A00F0A3C8C582C8CAC583CADFE9DEE780BE27
:0100220000DD
:10068800BC000BBE0029EF8DF084FFADF022E4CC56
:10069800F875F008EF2FFFEE33FEEC33FCEE9DEC1F
:1006A800984005FCEE9DFE0FD5F0E9E4CEFD22ED65
:1006B800F8F5F0EE8420D21CFEADF075F008EF2FAF
:1006C800FFED33FD4007985006D5F0F222C398FDA0
:0506D8000FD5F0EA223D
:1006DD00C5F0F8A3E028F0C5F0F8E58215827002A8
:0606ED001583E038F02245
:0C06F300E0FCA3E0FDA3E0FEA3E0FF227A
:0C06FF00E2FC08E2FD08E2FE08E2FF2237
:10070B00E493FC740193FD740293FE740393FF2234
:0C071B00E0F8A3E0F9A3E0FAA3E0FB2261
:0D072700E2FB08E2F908E2FA08E2CBF82252
:10073400E493F8740193F9740293FA740393FB221B
:0C074400ECF208EDF208EEF208EFF222F1
:10075000D083D082E493F208740193F20874029378
:09076000F208740393F2740473AF
:00000001FF
