:100C490020002A2A2000202A2A00202041646472D8
:100C59006573733A202020253034580020205265CE
:100C6900766973696F6E3A202025730054313A20F2
:100C790025352E316620430054323A2025352E3150
:100C89006620430054333A2025352E31662043002F
:100C990054343A2025352E31662043004C4E324FCC
:100CA9004646004C4E324F4E20004854524F46465D
:100CB900004854524F4E00425453002449643A2488
:100CC9000001340000004572726F720000000100DB
:100CD900010000000000000000000000000000000A
:100CE90001340000005374617465000000010002C2
:100CF90000000000411000003F80000000000001DA
:100D0900340000004B41204F7574000001000300BE
:100D190000000040E000003F8000000000000134B6
:100D29000000004B4120496E000000010004000052
:100D390000000000000000000000000000045A004C
:100D490000014B41204C6576656C010005000000EF
:100D59000000000000000000000000000132000057
:100D6900004C4E3220766C766501000900000000C7
:100D79003F8000003F8000000000000132000000B9
:100D89004C4E32206874720001000A000000003FD6
:100D99008000003F80000000000004080000014CB2
:100DA9004E32766C76205401000B000000000000E2
:100DB90000000000000000000004080000014C4E83
:100DC90032687472205401000F0000000000000016
:100DD9000000000000000000045A0000014A5420ED
:100DE900766C7665310100130000000000000000F8
:100DF90000000000000000045A0000014A54207657
:100E09006C76653201001700000000000000000048
:100E190000000000000004080000014A54205400AA
:100E290000000001001B000000000000000000009D
:100E39000000000000045A0000014C4865206C764F
:100E49006C3101001F0000000000000000000000DC
:100E590000000000045A0000014C4865206C766CC3
:100E69003201002300000000000000000000000023
:100E790000000004080000014C4E322054310000EB
:100E89000100270000000000000000000000000031
:100E9900000004080000014C4E32205432000001C9
:100EA900002B00000000000000000000000000000E
:100EB9000004080000014C4E3220543300000100A8
:100EC9002F000000000000000000000000000000EA
:100ED90004080000014C4E32205434000001003354
:100EE90000000000000000000000000000000004F5
:100EF900080000014C48452054310000010037002A
:100F090000000000000000000000000000000408CC
:100F19000000014C4845205432000001003B00000C
:100F290000000000000000000000000000040800AC
:100F390000014C4845205433000001003F000000E7
:100F4900000000000000000000000000040800008C
:100F5900014C4845205434000001004300000000C2
:100F6900000000000000000000000004080000016B
:100F79004C4845205435000001004700000000009E
:100F89000000000000000000000004080000014CFF
:100F99004845205436000001004B000000000000C5
:100FA9000000000000000000000416FD00014C4E86
:100FB90032205000000001004F0000000000000036
:100FC90000000000000000000416FD00014C484527
:100FD9002050000000010053000000000000000044
:100FE9000000000000000004180000015175656E42
:100FF9006368310001005700000000000000000094
:1010090000000000000004180000015175656E63BE
:1010190068320001005B00000000000000000000D1
:10102900000000000004180000094144433000009A
:10103900000001005F000000000000000000000047
:101049000000000004180000094144433100000079
:101059000001006300000000000000000000000023
:101069000000000418000009414443320000000058
:1010790001006700000000000000000000000000FF
:101089000000041800000941444333000000000136
:10109900006B0000000000000000000000000000DC
:1010A9000004180000094144433400000000010015
:1010B9006F000000000000000000000000000000B8
:1010C9000418000009414443350000000001007381
:1010D9000000000000000000000000000000000403
:1010E9001800000941444336000000000100770060
:1010F90000000000000000000000000000000418CB
:10110900000009414443370000000001007B000052
:1011190000000000000000000000000000041800AA
:101129000009414F46533000000001007FBDCCCC7F
:10113900CD3DCCCCCD3A83126F00000004180000DD
:1011490009414F465331000000010083BDCCCCCD8D
:101159003DCCCCCD3A83126F000000041800000981
:10116900414F465332000000010087BDCCCCCD3D34
:10117900CCCCCD3A83126F0000000418000009415D
:101189004F46533300000001008BBDCCCCCD3DCC84
:10119900CCCD3A83126F0000000418000009414FBA
:1011A90046533400000001008FBDCCCCCD3DCCCCE2
:1011B900CD3A83126F0000000418000009414F4620
:1011C9005335000000010093BDCCCCCD3DCCCCCD36
:1011D9003A83126F0000000418000009414F46537A
:1011E90036000000010097BDCCCCCD3DCCCCCD3A2A
:1011F90083126F0000000418000009414F4653375D
:1012090000000001009BBDCCCCCD3DCCCCCD3A83B8
:10121900126F000000045D000009414741494E304A
:10122900000001009F3F6666663F8CCCCD3A831271
:101239006F000000045D000009414741494E31003B
:10124900000100A33F6666663F8CCCCD3A83126FDE
:10125900000000045D000009414741494E32000089
:101269000100A73F6666663F8CCCCD3A83126F00BA
:101279000000045D000009414741494E3300000167
:1012890000AB3F6666663F8CCCCD3A83126F000097
:1012990000045D000009414741494E340000010046
:1012A900AF3F6666663F8CCCCD3A83126F00000073
:1012B900045D000009414741494E3500000100B372
:1012C9003F6666663F8CCCCD3A83126F00000004FE
:1012D9005D000009414741494E3600000100B73F12
:1012E9006666663F8CCCCD3A83126F000000045DC0
:1012F900000009414741494E3700000100BB3F66E4
:1013090066663F8CCCCD3A83126F0000000418004A
:1013190000193931305F303000000100BF00000092
:101329000000000000000000000001000418000097
:10133900193931305F303100000100C3000000006D
:10134900000000000000000000010104180000195D
:101359003931305F303200000100C7000000000061
:101369000000000000000000010204180000193903
:1013790031305F303300000100CB00000000000075
:1013890000000000000000010304180000193931B1
:10139900305F303400000100CF0000000000000081
:1013A9000000000000000104041800001939313060
:1013B9005F303500000100D300000000000000008C
:1013C9000000000000010504180000193931305FE0
:1013D900303600000100D7000000000000000000C6
:1013E90000000000010604180000193931305F308F
:1013F9003700000100DB00000000000000000000D1
:10140900000000010704180000193931305F303835
:1014190000000100DF0000000000000000000000E3
:101429000000010804180000193931305F30390013
:10143900000100E3000000000000000000000000BF
:1014490000010904180000193931305F31300000FA
:101459000100E7000000000000000000000000009B
:10146900010A04180000193931305F3131000001D7
:1014790000EB000000000000000000000000000177
:101489000B04180000193931305F313200000100B6
:10149900EF00000000000000000000000000010C47
:1014A90004180000193931305F313300000100F3AD
:1014B90000000000000000000000000000010D0411
:1014C900180000193931305F313400000100F7008C
:1014D900000000000000000000000000010E0418D8
:1014E9000000193931305F313500000100FB00007F
:1014F9000000000000000000000000010F041800B7
:1015090000193931305F313600000100FF00000059
:101519000000000000000000000001100418000095
:10152900193931305F313700000101030000000033
:10153900000000000000000000011104180000195B
:101549003931305F31380000010107000000000027
:101559000000000000000000011204180000193901
:1015690031305F3139000001010B0000000000003B
:10157900000000000000000113000000000000004E
:101589000000000000000000000000000000000052
:0815990000000000000000004A
:0F49EF00019801C113C114C115C1164100000088
:0236BE008F3942
:1036C0007D007F02124CE6E4F584F5BA75BCE07526
:1036D000E880F5D1F58475D102F58475D4807584C0
:1036E0000175D48075840F75A4F575A5BF75A6FF07
:1036F00075A7FFE5396038E4F53A75F004E53AA4BA
:10370000247FF582E5F03400F5831209B50000004E
:103710000075F004E53AA4249FF582E5F03400F545
:10372000831209B53F800000053AE53AB408CBE4BE
:10373000F53AAF3A123C79053AE53AC3940440F2BF
:103740007D087F0112499EE4FDFF124D8DE4F53A9C
:103750007B007A00796A12000E7C007D0212080C50
:10376000C374079FFFE49EFEC3E53A9FEE6480F8B2
:10377000748098500D7BFF7A0C7949124C93053A6E
:1037800080CE7BFF7A0C794B124C937B007A0079C8
:103790006A124C937BFF7A0C794F124C937D01E4B3
:1037A000FF124D8D7BFF7A0C795385644485654506
:1037B0001229417D02E4FF124D8D78DF7C017D01ED
:1037C0007BFF7A0C79DB120B247B017A0179DF7D98
:1037D00020124D71E41207C6754401754501754606
:1037E000DF7BFF7A0C7965122941E4900001F0A398
:0B37F000F0A304F0E4900009F0A3F047
:0137FB0022AB
:0C3C7900157CA87CEFF6E57C24FAF57CB5
:103C85002406F8E624FB603614603F24FD604724D3
:103C9500076003023D75900003E0FF20E003D38039
:103CA50001C392B6EF20E103D38001C392B5900022
:103CB50003E020E203D38001C392B4023D75900076
:103CC50009E024FFB392B0023D7590000AE024FF9D
:103CD500B392B7023D75E4FFFE7D807C41900013F1
:103CE500E0F8A3E0F9A3E0FAA3E0FB12019EE4FBF0
:103CF500FA79C878421202A7E4FBFA798078401273
:103D050000ADA87C12099DE4FBFA79A07841E8C0D2
:103D1500E0A87C120941D0E0F81202A7E4FBFA7989
:103D250080784512019E1203EFE57C2404F8EEF637
:103D350008EFF6E57C2404F9C3E79410400AE57C16
:103D45002404F8760F0876FFE57C2404F9C3E7948C
:103D5500005009E57C2404F8E4F608F6E4F584E56A
:103D65007C2404F808E6F5D2E57C2404F9E7F5D3CC
:073D7500E57C2407F57C2228
:054DDF008F307F00226F
:104C66008B308A318932120780AB33AA34A93512C8
:104C760007C6AB30AA31A932900001120799AB33AF
:0D4C8600AA34A9359000011207D87F022240
:0A33F3008E368F378B388A39893AFD
:1033FD00E4F584E537540FF5BB75BCE075410475F4
:10340D004200E4F53EF53DF53CF53BF53FF540C397
:10341D00E5409542E53F9541503AC2AFE4F584C28F
:10342D00EDD2EC30EDFDD2AFAFBFEFFEADBEEDFF97
:10343D00E4FCFDE53E2FF53EE53D3EF53DED353C2D
:10344D00F53CEC353BF53B1242570540E54070BF6E
:10345D00053F80BBAF3EAE3DAD3CAC3B78061208A0
:10346D00C48F3E8E3D8D3C8C3BC3E5379402E536D3
:10347D00648094805024E41203B1E4FBFA798078DF
:10348D00471202A7E4FBFA79A0784112019EE4FBF2
:10349D00FA792078C11200AD8020AF3EAE3DAD3C33
:1034AD00AC3BE41203B1E4FBFA798078471202A732
:1034BD00E4FBFA7920784112019E8F468E458D44AA
:1034CD008C43AF46AE45AD44AC43ECC0E0EDC0E03F
:1034DD00EEC0E0EFC0E0E537AE367802C333CE3351
:1034ED00CED8F9247FF58274003EF583E0F8A3E091
:1034FD00F9A3E0FAA3E0FBD0E0FFD0E0FED0E0FDC1
:10350D00D0E0FC1200A98F468E458D448C43ECC053
:10351D00E0EDC0E0EEC0E0EFC0E0E537AE3678029A
:10352D00C333CE33CED8F9249FF58274003EF58394
:10353D00E0F8A3E0F9A3E0FAA3E0FBD0E0FFD0E0D0
:10354D00FED0E0FDD0E0FC12019E8F468E458D44ED
:0F355D008C43C2AFAB38AA39A93A120927D2AFB3
:01356C00223C
:103E6300C297D296D2957F017E00124688C295E40E
:103E7300F536309603433604D2977F017E0012460F
:103E830088C2977F017E0012468830960343360826
:103E9300D2977F017E00124688C2977F017E00126F
:103EA3004688309603433601D2977F017E0012463F
:103EB30088C2977F017E00124688309603433602FC
:103EC300D2977F017E00124688C2977F017E00123F
:103ED3004688E5365407900004F0A296921AD297CA
:103EE3007F017E00124688C2977F017E00124688BA
:103EF300A2969219D2977F017E00124688C2977FBD
:103F0300017E00124688A2969218D2977F017E0006
:103F1300124688C2977F017E00124688A2969217A6
:013F2300227B
:10393100300803124DC1E4FDFF124D8D7BFF7A0C5F
:103941007975900027E0FCA3E0FDA3E0FEA3E0F57C
:10395100478E468D458C44122941E4FD7F0A124D64
:103961008D7BFF7A0C798190002BE0FCA3E0FDA315
:10397100E0FEA3E0F5478E468D458C44122941E4D3
:10398100FDFF124D8D7BFF7A0C798D90002FE0FCAD
:10399100A3E0FDA3E0FEA3E0F5478E468D458C44F0
:1039A100122941E4FD7F0A124D8D7BFF7A0C799932
:1039B100900033E0FCA3E0FDA3E0FEA3E0F5478E19
:1039C100468D458C441229417D03E4FF124D8D90B3
:1039D1000009E07BFF60067A0C79A580047A0C79F6
:1039E100AC1229417D037F08124D8D90000AE07BC6
:1039F100FF60067A0C79B380047A0C79BA122941F6
:103A0100301714201311900009E070047F01800227
:103A11007F00900009EFF030191420151190000A71
:103A2100E070047F0180027F0090000AEFF020081F
:103A310009201A063016037F0122A2179213A21839
:0C3A41009214A2199215A21A92167F008E
:013A4D002256
:10449B00900000E075F004A4245FF9740035F0FA85
:1044AB007B01E0FF7E001233F3900000E0703D7F54
:1044BB00427E607DD57C3F90005FE0F8A3E0F9A3DE
:1044CB00E0FAA3E0FB12019E7BAE7A47793578C107
:1044DB001200AD8F3D8E3C8D3B8C3A7F007E007D74
:1044EB00207C41123A4E90004F1209A9900000E037
:1044FB00FBB40214900067E0FCA3E0FDA3E0FEA375
:10450B00E0FF90001B1209A9EB045407900000F088
:06451B00123E630223AC16
:104D530020202020557067726164696E67002020EF
:0E4D630020204669726D776172652E2E2E003B
:1049FE000188000163FF420119FFFF44011B000003
:024A0E000000A6
:102D4E00E47888F675FFDE75FFAD75840F75A4F512
:102D5E0075A5BFF5A675A7FF75E104F5E275E34409
:102D6E00F58475B7B075840F438901758D01758F24
:102D7E0001758E04F537F5380538E53870020537DC
:102D8E00640F453770F2438902E58930E4FB758A9A
:102D9E008375970275FFDE75FFADE4F58475EF045C
:102DAE001248A9E4F537F5387D01AF38124CE60527
:102DBE0038E53870020537C39403E537940040E8D0
:102DCE00E4F520C21FC21BC222C21DD21EC221C2E6
:102DDE00207888F6C2857882F67880F618F678869E
:102DEE00F6F537F538741F2538F582E43401F5838E
:102DFE00E4F00538E538700205376440453770E574
:102E0E00E4F537F538745F2538F582E43401F5833F
:102E1E00E4F00538E538700205376440453770E553
:102E2E001200A27D08E4FF12499E7D087F0112491F
:102E3E009E12459AE47885F6787DF6787DE6FF75E4
:102E4E00F01FA424CAF582E5F0340CF583E493FE5A
:102E5E00788526F6EE6005787D0680DFEFD3940048
:102E6E00402A900CD7E493FB740193FA740293F901
:102E7E0074551207C612078064556002D22074AAD8
:102E8E001207C612078064AA6002D220123F24EFF6
:102E9E006003022F8DC21E74FFF564F565F566F5AD
:102EAE0067E4F568F569FE7F10FDFB7A00796A121A
:102EBE000B417544FF75450C7546C0754700754846
:102ECE00107B007A00796A1248FBE4F537F53890EA
:102EDE000CCA75F01FE5381209E6E53775F01FA428
:102EEE002583F583E4937003022F86900CCE75F044
:102EFE001FE5381209E6E53775F01FA42583F58323
:102F0E00E49320E268E4F536E536C3789896505D92
:102F1E00900CCA75F01FE5381209E6E53775F01FFB
:102F2E00A42583F583E493FF7E00C006C0077D00D1
:102F3E00900CD775F01FE5381209E6E53775F01FCE
:102F4E00A42583F583E493FB740193FA740293F939
:102F5E007885E68536F0A4FFE92FF9EA35F0FAD048
:102F6E0007D006120B411200A20536809B0538E5EC
:102F7E003870020537022EDD7F011236BE8016D262
:102F8E001EE4FF1236BEE5EF30E30AD2030569E513
:102F9E006970020568E4F537F5387A007B967D0393
:102FAE00AF381245210538E53870020537C3940352
:062FBE00E537940040E439
:012FC40022EA
:054DE4007886E6FF22C5
:03002300023D7C1F
:103D7C00C0E0C0F0C083C082C0D075D0083099328A
:103D8C00C2997880067980E778826670097880F627
:063D9C00D21CC285801C50
:0D3DA20075261475271300D527FCD526F6CD
:103DAF007880E6245FF582E43401F583E0F599200D
:103DBF009803023E58209A08201F05C298023E54CD
:103DCF00C29A787FE606241FF582E43401F583E575
:103DDF0099F0C298E6FFB4011290011FE0FE700344
:103DEF00F68066EE540724027887F6EFB4020D785A
:103DFF0087E6B40907900120E02403F6787FE6FFF9
:103E0F00B4400476008042EFC3788796403B787FBA
:103E1F00E624FFFDE434FFFC7B017A01791F124396
:103E2F0083787FE6241EF582E43401F583E06F602A
:053E3F00047600801470
:0D3E440075261475271300D527FCD526F62A
:103E5100121DAE787F7600D0D0D082D083D0F0D042
:023E6100E0324D
:10460A007886E6FF18E68FF0A47C00252AFFEC35B1
:10461A00F0FE900120E075F01FA424D7F582E5F0A2
:10462A00340CF583E493FB740193FA740293F98FC3
:09463A00828E83120799FF7D288E
:104643008F308D31E4F584E5316010F8E6FFE53015
:0B465300FD7C00120003A831C6EFC67A
:0D465E0075321475331300D533FCD532F6D8
:0B466B008530993099FDC2990200A231
:0B4D3400E4F5847882EFF6C21CD28503
:0D4D3F0075301475311300D531FCD530F6F8
:074D4C0090015FE0F59922E0
:104C0400C9EFC9EDC39B40237898E6FFEB2FFFE47F
:104C140033FEEDC39FEE6480F8748098500DD21F6C
:104C2400C3ED9B7886F67881E9F622C21FE4788189
:024C3400F62266
:104B1D00C9EFC9BAFF0FBBFF0CED6B7002EC6A70E9
:104B2D0027D21F801BC3ED9BEC9A401C7898E62B77
:104B3D00FFE43AFEC3ED9FEC9E500DD21FC3ED9BDB
:0F4B4D007886F67881E9F622C21FE47881F62295
:101DAE0090011FE0FF54F8F529E4F584EF120A3292
:101DBE001DF8091E040A1E14101E1B111E2B121EC6
:101DCE003F191E541A1E76201E7B281EE5291F9DC4
:101DDE00341FB1371FDD391FEC411FF6492000506B
:101DEE00200C612004980000203C900120E0FDE5CD
:101DFE0065FB7F018021900120E0FCA3E0FDAB6537
:101E0E00AA647F018025E4FBFD7F03800A900120F8
:101E1E00E0FDE567FB7F02124C0402203C9001209E
:101E2E00E0FCA3E0FDAB67AA667F02124B1D022009
:101E3E003C900120E0FDE565FB7F01124C04201F64
:101E4E000302203C8017900120E0FCA3E0FDAB656F
:101E5E00AA647F01124B1D201F0302203C90015FDC
:101E6E007478F07F01022039D21D02203CC2ACE40E
:101E7E00F528D2857D287F7F1246437D287F181254
:101E8E0046437D287F21124643787DE6FF7D28124A
:101E9E0046437D28AF641246437D28AF6512464304
:101EAE007D28AF661246437D28AF671246437D28D4
:101EBE00AF681246437D28AF69124643E4F52A7493
:101ECE006A252AF8E6FF7D28124643052AE52AC32D
:101EDE00941040EB021F8F900120E0FFC3787D9697
:101EEE00400302203C75F01FEFA424CAF582E5F0F2
:101EFE00340CAF82F52E8F2FC2ACE4F528D2857D3F
:101F0E00287F7F1246437D287F0D124643852F8200
:101F1E00852E83E493FF7D28124643852F82852EDE
:101F2E0083740193FF7D28124643852F82852E836D
:101F3E00740293FF7D28124643852F82852E83746B
:101F4E000393FF7D28124643852F82852E837404CA
:101F5E0093FF7D28124643E4F52AE52F2405F582EA
:101F6E00E4352EF583E582252AF582E43583F58363
:101F7E00E493FF7D28124643052AE52AC3940840C0
:101F8E00D9E4FDAF28124643C285D2AC02203C9064
:101F9E000120E0F564A3E0F565A3E0F566A3E0F5A6
:101FAE00678053E4F52A900120E0FFE52AC39F5095
:101FBE001C7421252AF582E43401F583E0FF746A4E
:101FCE00252AF8C6EFC6052AE52AB410D980277A45
:101FDE00007B327D017886E6FF124521805090010C
:101FEE0020E024FF92028046900120E024FF92011F
:101FFE00803CD2228002D21B788876F180307A0023
:10200E007B327D017F0012452190015F7479F09043
:10201E000120E0900160F07C007D027B017A017965
:10202E005F124383900161EFF07F03124D34E52977
:10203E0064A060030221DE90011FE064A160030230
:10204E002111A3E0FFC3787D9640030221DE75F0D7
:10205E001FEFA424CAF582E5F0340CF583E493F562
:10206E002C75F01FEFA424CEF582E5F0340CF58329
:10207E00E49330E236124DDF8F2C90015F747FF0C7
:10208E00A3E52CF02402FDE433FC7B017A01795F99
:10209E001243837461252CF582E43401F583EFF04D
:1020AE00E52C2403FF124D340221DE900120E0FFC7
:1020BE00124DDFC2ACE4F528D285E52CD394064050
:1020CE00247D287F7F1246437D28AF2C124643E4A1
:1020DE00F52AE52AC3952C500712460A052A80F2E6
:1020EE00052C0221D3E52C2478FF7D28124643E4EB
:1020FE00F52AE52AC3952C500712460A052A80F2C6
:10210E000221D390011FE064A260030221DE787DDC
:10211E00E6FFA3E0FEC39F40030221DEA3E0FDC362
:10212E009F40030221DEEEC39D40030221DE90019B
:10213E0020E0F52AE4F52C900121E0FFE52AD39F5B
:10214E00501FAF2A124DDF75F01FE52AA424CAF5E1
:10215E0082E5F0340CF583E493252CF52C052A80CA
:10216E00D6C2ACE4F528D2857D287F7F1246437D0A
:10217E0028AF2C124643900120E0F52A900121E071
:10218E00FFE52AD39F503EE4F52B75F01FE52AA4F8
:10219E0024CAF582E5F0340CF583E493FFE52BC3F6
:1021AE009F501E7886E6FF18E68FF0A47C00252B44
:1021BE00FFEC35F0FE75F01FE52A124623052B8045
:1021CE00C9052A80B7E4FDAF28124643C285D2ACBA
:1021DE00E5296458704DFA7B327D017886E6FF1250
:1021EE0045217533017534017535607B017A0179AE
:1021FE0020124C668F2CE52C247890015FF0EF2492
:10220E0001FDE433FC7B017A01795F124383746034
:10221E00252CF582E43401F583EFF0E52C2402FF42
:10222E00124D34E52964806009E529648860030253
:10223E0023AB7A007B327D017886E6FF1245219032
:10224E00011FE05407F52CB4070A752B01A3E0F526
:10225E002CA38006E4F52B900120E0F52D152CE53E
:10226E002DC3787D96400302237F75F01FE52DA4C4
:10227E0024CAF582E5F0340CF583E493FFE52CD304
:10228E009F40028F2CE4F52AE52AC3952C400302C9
:10229E00235A75F01FE52DA424CEF582E5F0340CFB
:1022AE00F583E49330E20302235575F01FE52DA468
:1022BE0024CBF582E5F0340CF583E4936438702971
:1022CE00E52CD39404400DE52B252A2421F582E438
:1022DE0034018038787FE6C3952AFFE49400FE74BB
:1022EE001D2FF58274013E802375F01FE52DA42469
:1022FE00CAF582E5F0340CF583E493FFC3787FE6EC
:10230E009F252A252B241EF582E43401F583E0FD5A
:10231E007886E6FF18E68FF0A4FFE52A7A002FFFF5
:10232E00EA35F0FE75F01FE52DA424D7F582E5F011
:10233E00340CF583E493FB740193FA740293F98FD2
:10234E00828E83ED1207D8052A022296AF2D123CFB
:10235E007975F01FE52DA424CEF582E5F0340CF549
:10236E0083E49330E503852D63E5296488702E8020
:10237E0010E52DB4FF27900121E0F520E529B48862
:10238E001C90015F7478F0787FE6241EF582E434A9
:0D239E0001F583E0900160F07F02124D34E4
:0123AB00220F
:1046DE0075F01FA424E6F582E5F0340CF583E4931F
:0546EE00FE740193FFC2
:1046F3008E498F4A900119E065497004A3E0654A29
:10470300603A90010F740AF0E549A3F0E54AA3F07B
:104713007C007D037B017A01790F124383900112A0
:10472300EFF07B017A01790F7550017D047C001253
:0D47330047A1900119E549F0A3E54AF022E5
:03494D00CCEECCE1
:1049500090010F741AF0A3ECF0EFA3F07C007D033C
:104960007B017A01790F124383900112EFF07B01F2
:104970007A01790F7550017D047C001247A17B01FB
:104980007A01790F7D0A7C001242EEEF7002FF225D
:0D49900090010FE0647860037F00227F013A
:01499D0022F7
:104A8C0075F01FEFA424CAF582E5F0340CF583E42D
:104A9C0093FD7C00ECC0E0EDC0E075F01FEFA424AA
:104AAC00D7F582E5F0340CF583E493FB740193FAAB
:104ABC00740293F97D00D0E0FFD0E0FE120B417A36
:0A4ACC00007B327D017F01024521CD
:10356D00124DB4C8ECC8C9EDC9CAEECACBEFCB90A9
:10357D00011BE0FCA3E0FDA3E0FEA3E0240AFFE4B1
:10358D003EFEE43DFDE43CFCD31208B3500302368D
:10359D00BD124DB490011B1209A9E4F547E547C3CF
:1035AD00787D9640030236BD75F01FE547A424CE05
:1035BD00F582E5F0340CF583E49320E4030236B88C
:1035CD00E5471246DE90010F74A1F075F01FE54737
:1035DD00A424E8F582E5F0340CF583E49390011012
:1035ED00F07C007D027B017A01790F1243839001FB
:1035FD0011EFF07B017A01790FE4F5507D03FC1298
:10360D0047A17B017A01790F7D0A7C001242EE8F72
:10361D0048E548C394025002804BE5482476FF905C
:10362D00010FE06F6002803D75F01FE547A424CACD
:10363D00F582E5F0340CF583E493FFE54824FE6F45
:10364D0060028021E54824FFFDE434FFFC7B017A14
:10365D0001790F124383740E2548F582E43401F588
:10366D0083E06F6007AF47124A8C803F75F01FE50E
:10367D0047A424CAF582E5F0340CF583E493FF7E6C
:10368D000075F01FE547A424D7F582E5F0340CF55D
:10369D0083E493FB740193FA740293F8CCEACCCDD6
:1036AD00EBCD7B017A01791012075A05470235AA35
:0136BD0022EA
:024122008F47C5
:10412400EF1246DE75F01FE547A424CAF582E5F0D8
:10413400340CF583E493F548248190010FF075F075
:104144001FE547A424E8F582E5F0340CF583E493F5
:10415400900110F0AF487E0075F01FE547A424D706
:10416400F582E5F0340CF583E493FB740193FA745F
:104174000293F978117C017D0112075AE548240263
:10418400FDE433FC7B017A01790F1243837411251A
:1041940048F582E43401F583EFF07B017A01790F6D
:1041A400E5482403FDE433FCE4F5501247A17A000A
:0941B4007B327D017F01024521EF
:107000007888E664F160030274FFC2AF75FFDE7535
:10701000FFADE4F548F547E4F58420982EE4F54CFF
:10702000F54D209822C3E54D9488E54C94135017F4
:0D70300075520A75531300D553FCD552F666
:10703D00054DE54D70DF054C80DBB2A080CF859905
:10704D0047C298E547641A6003027110F54CF54D7F
:0E705D00209822C3E54D9488E54C94135017FB
:0D706B0075520A75531300D553FCD552F62B
:10707800054DE54D70DF054C80DB309892859948C9
:10708800C298E4F54CF54D209822C3E54D9488E567
:057098004C9413501799
:0D709D0075520A75531300D553FCD552F6F9
:1070AA00054DE54D70DF054C80DB20980302701713
:1070BA00859948C298E4F54CF54D209822C3E54DD0
:0870CA009488E54C9413501763
:0D70D20075520A75531300D553FCD552F6C4
:1070DF00054DE54D70DF054C80DB209803027017DE
:0970EF00859948C298D285C29926
:0D70F80075521475531300D553FCD552F694
:107105007599783099FDC2850274F1E5476401707F
:0571150031D285C29992
:0D711A0075521475531300D553FCD552F671
:087127007599783099FDC299B9
:0D712F0075521475531300D553FCD552F65C
:10713C00E4F5993099FDC2850274F1E5476402606B
:10714C00030271FCF54CF54D209822C3E54D948853
:06715C00E54C94135017EE
:0D71620075520A75531300D553FCD552F633
:10716F00054DE54D70DF054C80DB2098030270174D
:10717F00859948C298E4F549E54813B392A0E548CC
:10718F0025E0FEC3E49400EE9470502AE5487F009A
:10719F0025E0FEC39460501EE54820E01FE4F5840F
:1071AF0043B701758F038E4E8F4F8F828E83F053AF
:1071BF00B7F0F58F80037549FFE4F584D285C29946
:0D71CF0075521475531300D553FCD552F6BC
:0871DC007599783099FDC29904
:0D71E40075521475531300D553FCD552F6A7
:1071F1008549993099FDC2850274F1E547640360C0
:107201000302733AF54CF54D209822C3E54D94885D
:06721100E54C9413501738
:0D72170075520A75531300D553FCD552F67D
:10722400054DE54D70DF054C80DB20980302701797
:10723400859948C298E4F54CF54D209822C3E54D54
:087244009488E54C94135017E7
:0D724C0075520A75531300D553FCD552F648
:10725900054DE54D70DF054C80DB20980302701762
:1072690085994AC298E5481392A0E54825E0FEC3EE
:10727900E49400EE94704003027017E5487D002500
:10728900E0FCC394604003027017E4F58443B7013E
:10729900758F01E54A75F020A42DFFE5F03CF54E08
:1072A9008F4FE4F584F54BE54BC394205048E4F542
:1072B9004CF54D209822C3E54D9488E54C94135024
:0172C90017AD
:0D72CA0075520A75531300D553FCD552F6CA
:1072D700054DE54D70DF054C80DB209803027017E4
:1072E700054FE54FAE4E7002054E14F5828E83E5CD
:1072F70099F0C298054B80B1E4F58453B7F0F58F48
:06730700F584D285C29955
:0D730D0075521475531300D553FCD552F67C
:08731A007599783099FDC299C4
:0D73220075521475531300D553FCD552F667
:10732F00E4F5993099FDC2850274F1E54764046074
:10733F00030273DDF54CF54D209822C3E54D94887B
:06734F00E54C94135017F9
:0D73550075520A75531300D553FCD552F63E
:10736200054DE54D70DF054C80DB20980302701758
:10737200859948C298E54825E0F550755100E4F535
:1073820049F54CF54D0551E551AE507002055014CA
:10739200F5828E83E4932549F549054DE54D70024A
:0E73A200054C7004E54C640270DBD285C29984
:0D73B00075521475531300D553FCD552F6D9
:0873BD007599783099FDC29921
:0D73C50075521475531300D553FCD552F6C4
:1073D2008549993099FDC2850274F1E547640560DB
:1073E200030274E6F54CF54D209822C3E54D9488CE
:0673F200E54C9413501756
:0D73F80075520A75531300D553FCD552F69B
:10740500054DE54D70DF054C80DB209803027017B4
:10741500859948C298E4F54CF54D209822C3E54D71
:087425009488E54C9413501704
:0D742D0075520A75531300D553FCD552F665
:10743A00054DE54D70DF054C80DB2098030270177F
:09744A0085994AC298D285C299C5
:0D74530075521475531300D553FCD552F635
:0874600075997F3099FDC29976
:0D74680075521475531300D553FCD552F620
:107475007599203099FDE54825E0FCE54A75F02031
:10748500A42400FFE5F03CF5508F51E4F549F54B98
:02749500C2999A
:0D74970075521475531300D553FCD552F6F1
:1074A400855182855083E493F5993099FD0551E522
:1074B40051AE507002055014F5828E83E493254931
:0B74C400F549054BE54BB420C8C29908
:0D74CF0075521475531300D553FCD552F6B9
:1074DC008549993099FDC285800BE547B40606E4D1
:1074EC00F58475EF10E54764076003027017788820
:0374FC00F6D2AF16
:0174FF00226A
:104257001200A212356DE563F46008AF63124122C4
:104267007563FF201E0B7A007B327D017F001245AC
:104277002130200B7A007B1E7D017F001245213003
:104287001B1C3021197A007B327D017886E6FF12EC
:104297004521C21BE4F568F569123FD4D21E3022CE
:1042A7002A302127C222124DC1E4FDFF124D8D7B1A
:1042B700FF7A4D7953124C937D01E4FF124D8D7BAC
:1042C700FF7A4D7961124C93127000124DB4E47B62
:1042D7002C7A01F9F8C31208B35002D221301D0617
:0742E700E4F58475EF1022DD
:0B4DCE00122D4E12425712449B80F839
:103B6500005EBCE2613FDD83C29C7E20A3FD1F4158
:103B75009DC3217FFCA2401E5F01E3BD3E6082DC48
:103B8500237D9FC1421CFEA0E1BF5D0380DE3C6238
:103B9500BEE0025CDF81633D7C22C09E1D43A1FF28
:103BA5004618FAA427799BC584DA3866E5BB590718
:103BB500DB856739BAE406581947A5FB7826C49A08
:103BC500653BD987045AB8E6A7F91B45C6987A24F8
:103BD500F8A6441A99C7257B3A6486D85B05E7B9E8
:103BE5008CD2306EEDB3510F4E10F2AC2F7193CDD8
:103BF500114FADF3702ECC92D38D6F31B2EC0E50C8
:103C0500AFF1134DCE90722C6D33D18F0C52B0EEB7
:103C1500326C8ED0530DEFB1F0AE4C1291CF2D73A7
:103C2500CA947628ABF517490856B4EA6937D58B97
:103C35005709EBB536688AD495CB2977F4AA481687
:103C4500E9B7550B88D6346A2B7597C94A14F6A877
:103C5500742AC896154BA9F7B6E80A54D7896B3567
:103C6500000000002B6096CBDDEE002C96CBDDE549
:043C7500EEF7FAFD6F
:024A1000C1AC37
:10438300157C157CA87CECF608EDF6157C157C15E0
:104393007CA87CC6EBC608C6EAC608C6E9C6E57CA7
:0443A30024FCF57C85
:1043A700F80808E4F6A87CF608F6E57C2407F9A8DF
:1043B7007CE6FE08E6FFC3099719E76480F8EE6418
:1043C70080985037E57C2404F8CBE6CB08E6FA085A
:1043D700E6F98F828E83120799A87C080866FFE5A5
:1043E7007C2403F8EFF6E6903B6593A87C0808F673
:1043F700A87C0806E61870B20680AFA87C0808E615
:01440700FFB5
:07440800E57C2409F57C228C
:07000300ED6F903B6593FFD8
:01000A0022D3
:0300A300024AD638
:104AD600C0E0C083C082C0D075D010E59830E10533
:104AE6005398FDD22CE59830E024E5182401FFE424
:104AF60033FEEF64404E70028011AF180518749FA4
:104B06002FF582E43401F583E599F05398FED0D071
:074B1600D082D083D0E03211
:0A47A1008B4B8A4C894D8C4E8D4FD6
:1047AB00E4F518758401D284E55024FF929BE4F55F
:1047BB0051C3E551954FE54E6480F8748098502CA9
:0247CB00C22CFE
:0D47CD0075521475531300D553FCD552F6E8
:1047DA00AB4B054DE54DAA4C7002054C14F9120776
:1047EA0080F599302CFD1200A2055180C5C284AF14
:0147FA004F6F
:0147FB00229B
:0A42EE008B498A4A894B8C4C8D4D98
:1042F800124DB48F528E518D508C4FE4F54E124DA5
:10430800B4C3EF9552FFEE9551FEED9550FDEC9537
:104318004FFCE47B01FAF9F8C31208B350037F009D
:1043280022E518D39400404E90019FE0FEB4780334
:104338007F0122EE54F8647860037F002290019F89
:10434800E054072402F54E6518702BD3E518954DF7
:10435800E54C6480F87480984006AE4CAF4D8004FC
:10436800AF187E00A84BAC4AAD497B017A01799F12
:0B43780012075AAF4E221200A28083F1
:064DD900E4F518D22C22C3
:10499E00EF7025F5847598D0F584759115F58475AD
:1049AE00C90875CBFFED903C6493F5CA75C804E455
:1049BE00F584D2ACC2BC8026758401759850E4F59E
:1049CE0084E589540F4420F589758E02ED903C6E76
:1049DE0093F58DD28E43E74053F7BF124DD9D2AF28
:0149EE0022A6
:1048A900D2AFD2A9D2BBE4F584E589540F4401F50E
:1048B90089758E02758CAFE4F58AD28CF51CF51BCF
:1048C900F51AF519FFEF25E025E02489F8E4F6EF5C
:1048D90025E025E0248AF8E4F6EF25E025E0248B9D
:1048E900F8E4F6EF25E025E0248CF8E4F60FBF03A1
:0148F900D4EA
:0148FA00229B
:07407F00C0D075D010157CC4
:10408600A87CE4F6A87CE6FFC39403400302411D26
:10409600EF25E025E0248CF8E6FFD394004052A8F3
:1040A6007CE625E025E0248AF8E67045EF30E01549
:1040B600A87CE6FF25E025E0248CF8E6D3940140B1
:1040C600047D0180067D00A87CE6FF124740A87C9F
:1040D600E6FF25E025E0248CF816E66014EF25E0DF
:1040E60025E0248BF8E6FEEF25E025E0248AF8EEAD
:1040F600F6A87CE625E025E0248AF8E6600116A805
:104106007CE6FF25E025E0248CF8E67004FD1247E6
:0741160040A87C0602408A6C
:05411D00057CD0D0225A
:03000B00024BD1D4
:104BD100C0E0C0F0C083C082C0D075D010758CAF6A
:104BE100E51C2401F51CE4351BF51BE4351AF51A07
:104BF100E43519F51912407FD0D0D082D083D0F09E
:034C0100D0E032CE
:104CE600157CA87CEDF6157CA87CEFF6A87CE6FF83
:104CF600C39403500D08E6FEEF25E025E02489F86D
:074D0600EEF6057C057C229E
:10452100157C157CA87CEAF608EBF6157CA87CEDD9
:10453100F6157CA87CEFF6A87CE6FFC394035052E5
:10454100EF25E025E0248CF8E67047A87CE6FB2502
:10455100E025E0248AF8E67039A87C08E625E00425
:10456100FFA87CE6FA25E025E0248CF8EFF6A87C8C
:104571000808E6FE08E6FF7C007D0A12080CEA2521
:10458100E025E0248BF8EFF6EB25E025E0248AF81E
:09459100E4F6E57C2404F57C222B
:10474000C0D075D010157CA87CEDF6157CA87CEF48
:10475000F6A87CE6FFC39403501CEF25E025E02477
:1047600089F8E66011A87C08E670047F0180027F6A
:1047700000A87C08EFF6A87CE6700608E624FF9205
:10478000A0A87CE6FFB4010608E624FF9286EFB4F9
:104790000208A87C08E624FF9287057C057CD0D01F
:0147A00022F6
:0C4DB400C2AFAF1CAE1BAD1AAC19D2AFE1
:014DC00022D0
:0100A200223B
:044CBD008E3B8F3C5F
:104CC100E4F53DF53EC3E53E953CE53D953B50148D
:104CD1007FE87E03124688124257053EE53E70E5A5
:044CE100053D80E12C
:014CE50022AC
:1046760054F0FFE5A054014FF5A0A21292A37F01CA
:024686007E00B4
:044688008E5F8F6052
:10468C00D3E56094FAE55F9400500EEFD3940040AC
:10469C00407E1600DEFD1F80F2855F61856062D36F
:1046AC00E56294FAE561940040157FFA7E001246AB
:1046BC008874062562F56274FF3561F56180E0D37C
:1046CC00E5609400E55F94004007AF62AE6112466E
:0146DC008855
:0146DD0022BA
:084854008B3F8A4089418D422F
:10485C001200A2AB43AA44A9451208422400FFE56A
:10486C00F03460FE853F46854047854148E4FDEDC8
:10487C00C39542501BEF2DF582E43EF583E493ABD8
:10488C0046AA47A9488D827583001207D80D80DF90
:0D489C00AB43AA44A945E48542F002086D33
:060026008B4D8A4E894F4C
:10002C007888E664F1706EC2AFE4F58443B701756D
:10003C008F01AB51AA52A9531208422400FFE5F0DC
:10004C003460F5548F55854D56854E57854F58E481
:10005C00FFEFC39D5026AB560558E558AA577002C2
:10006C00055714F9120780FE0555E555AA54700280
:10007C00055414F5828A83EEF00F80D5E4F58F5386
:10008C00B7F0CFEDCFAB51AA52A9538FF012086D38
:05009C00D2AF1200A22A
:0100A100223C
:104B5C007888E664F17034C2AFE4F58443B701752C
:104B6C008F03F582758360FFFEE4F01200A22582AC
:104B7C00F58274023583F5830FBF00010EEF6408D4
:0B4B8C004E70E6E4F58F53B7F0D2AF97
:014B970022FB
:103FD400124B5CE4F54BF54CF55175520075534B9F
:103FE400FB7A0079647D16120026E4F548E548C39F
:103FF4007898965067E4F54775F01FE547A424CAFE
:10400400F582E5F0340CF583E493604C7885E6851D
:1040140048F0A4FFAEF075F01FE547A424D7F5825D
:10402400E5F0340CF583E493FB740193FA74029382
:104034002FF9EA3EFA75F01FE547A424CAF582E594
:10404400F0340CF583E493FD7551007552007553FB
:104054004B120026054780A00548809175491275CA
:104064004A3475510075520075534B7B007A0079C0
:0A407400497D02120026E47888F668
:01407E00221F
:103F2400E4F53DF53EF54375440075453DFB7A00E7
:103F340079647D16124854E4F53AE53AC3789896C4
:103F44005067E4F53975F01FE539A424CAF582E514
:103F5400F0340CF583E493604C7885E6853AF0A45C
:103F6400FFAEF075F01FE539A424D7F582E5F034EF
:103F74000CF583E493FB740193FA7402932FF9EA2A
:103F84003EFA75F01FE539A424CAF582E5F0340C35
:103F9400F583E493FD75430075440075453D12486F
:103FA40054053980A0053A80917543007544007525
:103FB400453D7B007A00793B7D02124854E53C6420
:0F3FC400347004E53B641270047F0180027F00BB
:013FD30022CB
:104A3E008F5E302B4843A0F075840F75A60FC2A36E
:104A4E00D2A2124684D2A17F0A7E0012468820A7E7
:104A5E00FDC2A1124684C2A275A6FF124684E55E6F
:104A6E00124676D2A1124684C2A1124684E55EC4D5
:0E4A7E00124676D2A1124684C2A112468422AC
:104C36008F3B53A00FE53B54F042A0D2A11246840D
:104C4600C2A112468453A00FE53BC454F042A0D241
:104C5600A1124684C2A11246847F647E0002468861
:10459A00E4F539F53A75840F75A6FF53A00143A0D7
:1045AA0020D2A17F01FE124688C2A17F017E00129D
:1045BA004CBD7F20124C3643A0F075A60FC2A3D281
:1045CA00A2124684D2A17F647E0012468830A703D5
:1045DA00C22B22D22BC2127F24124A3EC2127F0958
:1045EA00124A3EC2127F20124A3EC2127F0C124A5F
:0F45FA003EC2127F01124A3EC2127F06124A3E93
:01460900228E
:0D4DC100C2127F01124A3EE4FDFF024D8D3B
:104D8D00ED5403C43354E0FEEF541F44804EFFC274
:044D9D0012024A3E76
:104DA1008F5DC3E55D648094A04005D212124A3E36
:034DB100AF5D22D1
:104D0D008B1D8A1E891FAB1DAA1EA91F120780604D
:104D1D0015051FE51F7002051E14F9120780FFD23D
:074D2D0012124A3E80E02251
:10321100202020202020202020200025622A6264F6
:103221000025622A62750025622A640025622A75DA
:103231000025622A2E33660025622A6C640025620D
:103241002A6C7500253262643A2573002020202003
:10325100202020200020202020202020202020208D
:1032610020202020202020200045534320454E547B
:1032710045522020202D202020202B2020004553A6
:103281004320454E544552202050524556204E452C
:103291005854004553432020202020202020505204
:1032A1004556204E45585400506172616D657465F4
:1032B1007273207772697474656E00746F20666C26
:1032C100617368206D656D6F72792E00F470000076
:1032D10000F76E000000FAE4000000FD6D00000040
:1032E1000000000000036B000000064D0000000913
:1032F100470000000C540000000000000000016DB8
:1033010000000002670000000373000000046D006C
:10331100000005680000000641000000074B0000A6
:103321000008DF43000009DF46000014487A00006E
:103331001550610000166261000017570000001867
:103341005600000019F40000001A540000001B6C24
:103351002F73001C52504D001D460000005A2525B8
:1033610000005B52504D005C636E74005D7800009C
:1033710000000000000002350000004E6F6465206F
:1033810041647200006400000000000000003F8002
:103391000000000000023500000047727020416407
:1033A100720000006600000000000000003F800085
:1033B100000000000032000004466C6173680000E8
:1033C10000000000000000000000000000000000FC
:1033D10000000000320000045265626F6F7400004B
:1033E10000000000000000000000000000000000DC
:0233F1000000DA
:104A1200C1A3C12AC129C124017A00017B04440235
:104A22002B00000000440223000000004402270083
:0B4A3200000000C125C126C127C128DB
:062FC5008B398A3A893BBA
:102FCB00900001120799B4381B853C44853D45851B
:102FDB003E467547007548087B017A02792F1248E7
:102FEB00FB023207E490022FF0AB39AA3AA93B90CF
:102FFB000002120799605CE4F53FE53F75F005A40C
:10300B0024CDF582E43432F583E493FF6015AB39BC
:10301B00AA3AA93B900002120799FEEF6E600405D5
:10302B003F80D7E53F75F005A424CDF582E434321B
:10303B00F583E493601DE53F75F005A424CEF97488
:10304B003235F07544FFF54589467B017A02792FBD
:10305B001247FCAB39AA3AA93B90000112079960C1
:10306B005CE4F53FE53F75F005A424FFF582E434FD
:10307B0032F583E493FF6015AB39AA3AA93B900074
:10308B0001120799FEEF6E6004053F80D7E53F758F
:10309B00F005A424FFF582E43432F583E493601D3C
:1030AB00E53F75F005A42400F9743335F07544FF42
:1030BB00F54589467B017A02792F1247FC7B017A11
:1030CB0002792F12000E8F40AB39AA3AA93B120797
:1030DB008014601D14605E24FE7003023189240489
:1030EB0060030232077BFF7A327911124C93023262
:1030FB0007AB39AA3AA93B900004120799C330E1F8
:10310B001A740A9540F544AB3CAA3DA93E120780C0
:10311B00F5457BFF7A32791C023204740A9540F52F
:10312B0044AB3CAA3DA93E120780F5457BFF7A32A2
:10313B007922023204AB39AA3AA93B900004120758
:10314B0099C330E11D740A9540F544AB3CAA3DA9E7
:10315B003E120842F54685F0457BFF7A327928020C
:10316B003204740A9540F544AB3CAA3DA93E1208C3
:10317B0042F54685F0457BFF7A32792D807BAB3962
:10318B00AA3AA93B90000412079930E020C3740AB5
:10319B009540F544AB3CAA3DA93E1208D78F488E0B
:1031AB00478D468C457BFF7A327932804CAB39AAFE
:1031BB003AA93B900004120799C330E11F740A959A
:1031CB0040F544AB3CAA3DA93E1208D78F488E4729
:1031DB008D468C457BFF7A327939801D740A954078
:1031EB00F544AB3CAA3DA93E1208D78F488E478DBC
:1031FB00468C457BFF7A32793F1229417B017A025B
:05320B00792F124C9325
:01321000229B
:0815A100AB36AA37A9387DFF23
:1015A9008D3C8B398A3A893B90000112079964383E
:1015B9007003021DADAB39AA3AA93B12078024FE7C
:1015C900700302180E24FE7003021A6724036003D5
:1015D900021DAD90000412079920E1030216C8AB61
:1015E90039AA3AA93B90001812096DC000C001C080
:1015F90002C003AC3CEC1203BBD003D002D001D033
:101609000012019EC004C005C006C00790021FE079
:10161900FC1203BBD003D002D001D0001200AD12DE
:1016290003EF90021FEFF0AB39AA3AA93B900014DF
:101639001208F790001012096D1203447003021D7D
:10164900ADAB39AA3AA93B9000101208F7C004C003
:1016590005C006C00790021FE0FC1203BBA804A93D
:1016690005AA06AB07D007D006D005D0041203445B
:101679005014AB39AA3AA93B9000101208F712038B
:10168900EF90021FEFF0AB39AA3AA93B9000141270
:1016990008F7C004C005C006C00790021FE0FC128D
:1016A90003BBA804A905AA06AB07D007D006D00535
:1016B900D00412034460025003021DAD0217F9E57C
:1016C9003CF4704CAB39AA3AA93B9000101208F7C8
:1016D900C004C005C006C00790021FE0FCE4120365
:1016E900BBA804A905AA06AB07D007D006D005D028
:1016F90004120344701AAB39AA3AA93B9000141298
:1017090008F790001012096D1203446003021DAD21
:10171900AB39AA3AA93B90001812096DC000C00163
:10172900C002C003AC3CEC1203BBD003D002D00111
:10173900D00012019EC004C005C006C00790021F58
:10174900E0FCE41203BBD003D002D001D0001200A8
:10175900AD1203EF90021FEFF0AB39AA3AA93B9003
:1017690000141208F790001012096D120344700357
:10177900021DADAB39AA3AA93B9000101208F7C077
:1017890004C005C006C00790021FE0FCE41203BBB9
:10179900A804A905AA06AB07D007D006D005D0042E
:1017A9001203445014AB39AA3AA93B90001012080D
:1017B900F71203EF90021FEFF0AB39AA3AA93B9059
:1017C90000141208F7C004C005C006C00790021F24
:1017D900E0FCE41203BBA804A905AA06AB07D007DD
:1017E900D006D005D00412034460025003021DAD97
:1017F900AB39AA3AA93B9000141208F71203EF90EB
:10180900021FEFF022AB39AA3AA93B900004120754
:101819009920E10302190C90001812096DC000C04B
:1018290001C002C003AC3CEC1203BBD003D002D010
:1018390001D00012019EC004C005C006C007900275
:101849001FE0FCA3E0FDEC1203B6D003D002D001E7
:10185900D0001200AD1203EF90021FEEF0A3EFF0DB
:10186900AB39AA3AA93B9000141208F7900010125C
:10187900096D1203447003021DADAB39AA3AA93BA5
:101889009000101208F7C004C005C006C0079002F6
:101899001FE0FCA3E0FDEC1203B6A804A905AA0603
:1018A900AB07D007D006D005D0041203445017ABBC
:1018B90039AA3AA93B9000101208F71203EF9002D7
:1018C9001FEEF0A3EFF0AB39AA3AA93B900014122E
:1018D90008F7C004C005C006C00790021FE0FCA3BA
:1018E900E0FDEC1203B6A804A905AA06AB07D007C8
:1018F900D006D005D00412034460025003021DAD86
:10190900021A4FE53CF4704FAB39AA3AA93B900053
:10191900101208F7C004C005C006C00790021FE0F6
:10192900FCA3E0FDE41203B6A804A905AA06AB07C7
:10193900D007D006D005D004120344701AAB39AAD7
:101949003AA93B9000141208F790001012096D1281
:1019590003446003021DADAB39AA3AA93B900018B4
:1019690012096DC000C001C002C003AC3CEC1203F7
:10197900BBD003D002D001D00012019EC004C00523
:10198900C006C00790021FE0FCA3E0FDE41203B605
:10199900D003D002D001D0001200AD1203EF9002A3
:1019A9001FEEF0A3EFF0AB39AA3AA93B900014124D
:1019B90008F790001012096D1203447003021DAD5F
:1019C900AB39AA3AA93B9000101208F7C004C00528
:1019D900C006C00790021FE0FCA3E0FDE41203B6B5
:1019E900A804A905AA06AB07D007D006D005D004DC
:1019F9001203445017AB39AA3AA93B9000101208B8
:101A0900F71203EF90021FEEF0A3EFF0AB39AA3AF9
:101A1900A93B9000141208F7C004C005C006C0070E
:101A290090021FE0FCA3E0FDE41203B6A804A90597
:101A3900AA06AB07D007D006D005D004120344602C
:101A4900025003021DADAB39AA3AA93B900014120A
:101A590008F71203EF90021FEEF0A3EFF022AB3963
:101A6900AA3AA93B90000412079920E003021B2916
:101A790090021FE0F8A3E0F9A3E0FAA3E0FBC0009D
:101A8900C001C002C003AB39AA3AA93B90001812A1
:101A9900096DC000C001C002C003AC3CEC1203BB1D
:101AA900D003D002D001D00012019ED003D002D0C1
:101AB90001D0001200AD90021F1209A9AB39AA3A50
:101AC900A93B9000101208F790021FE0F8A3E0F973
:101AD900A3E0FAA3E0FB1203445012AB39AA3AA9D6
:101AE9003B9000101208F790021F1209A9AB39AAFE
:101AF9003AA93B9000141208F790021FE0F8A3E0FE
:101B0900F9A3E0FAA3E0FB12034460025003021DAB
:101B1900ADAB39AA3AA93B9000141208F7021DA7E8
:101B2900AB39AA3AA93B90000412079920E10302B4
:101B39001C4490001812096DC000C001C002C00306
:101B4900AC3CEC1203BBD003D002D001D00012018F
:101B59009EC004C005C006C00790021FE0FCA3E0B8
:101B6900FDA3E0FEA3E0FFEC1203B1D003D002D045
:101B790001D0001200AD1203EF90021F1209A9ABA8
:101B890039AA3AA93B9000141208F79000101209DB
:101B99006D1203447003021DADAB39AA3AA93B90FB
:101BA90000101208F7C004C005C006C00790021F44
:101BB900E0FCA3E0FDA3E0FEA3E0FFEC1203B1A863
:101BC90004A905AA06AB07D007D006D005D0041290
:101BD90003445015AB39AA3AA93B9000101208F7F3
:101BE9001203EF90021F1209A9AB39AA3AA93B9037
:101BF90000141208F7C004C005C006C00790021FF0
:101C0900E0FCA3E0FDA3E0FEA3E0FFEC1203B1A812
:101C190004A905AA06AB07D007D006D005D004123F
:101C2900034460025003021DADAB39AA3AA93B90A7
:101C390000141208F71203EF021DA7E53CF47055D2
:101C4900AB39AA3AA93B9000101208F7C004C005A5
:101C5900C006C00790021FE0FCA3E0FDA3E0FEA3BD
:101C6900E0FFE41203B1A804A905AA06AB07D0074F
:101C7900D006D005D004120344701AAB39AA3AA988
:101C89003B9000141208F790001012096D120344DA
:101C99006003021DADAB39AA3AA93B90001812099D
:101CA9006DC000C001C002C003AC3CEC1203BBD044
:101CB90003D002D001D00012019EC004C005C006A5
:101CC900C00790021FE0FCA3E0FDA3E0FEA3E0FF34
:101CD900E41203B1D003D002D001D0001200AD123A
:101CE90003EF90021F1209A9AB39AA3AA93B900048
:101CF900141208F790001012096D120344700302C0
:101D09001DADAB39AA3AA93B9000101208F7C004DF
:101D1900C005C006C00790021FE0FCA3E0FDA3E0D8
:101D2900FEA3E0FFE41203B1A804A905AA06AB07C4
:101D3900D007D006D005D0041203445015AB39AAF8
:101D49003AA93B9000101208F71203EF90021F12F4
:101D590009A9AB39AA3AA93B9000141208F7C004A3
:101D6900C005C006C00790021FE0FCA3E0FDA3E088
:101D7900FEA3E0FFE41203B1A804A905AA06AB0774
:101D8900D007D006D005D00412034460174015AB24
:101D990039AA3AA93B9000141208F71203EF9002EE
:051DA9001F1209A92230
:104B98008F39E92405F9E43AFA782F7C027D017E01
:104BA800007F0812075AE4900237F08539447545AA
:104BB8000175460275472F7BFF7A327945122941E4
:094BC8007BFF7A32794D024C9317
:1023AC00302318124DB4E47B2C7A01F9F8C31208CF
:1023BC00B340030228DEC223124DC1124DB4A8044F
:1023CC00A905AA06AB0790022BE0FCA3E0FDA3E055
:1023DC00FEA3E0240AFFE43EFEE43DFDE43CFCD316
:1023EC001208B350030228DE124DB490022B1209CE
:1023FC00A9202A10C208123931EF70030228CED25C
:10240C002A0228CE3029117536FF75373375387787
:10241C00E57B147896F680107536FF75370C753899
:10242C00CA787DE6147996F77896E6FFC394035044
:10243C0005E408F68015E57A7002800CE57AB5079C
:10244C000424FE8003E57A147897F6E47895F67800
:10245C0095E6FDC394034003022566E4FF124D8DFF
:10246C007895E6FF7897E62FFFE433FE7C00EFB516
:10247C007A08ECB506047F3E80027F20124DA178CD
:10248C0095E6FD7F01124D8D7895E6FF7897E62F46
:10249C00FFE433FE18E6FDD3EF9D7480F86E984090
:1024AC000C7BFF7A3279561229410225607895E629
:1024BC00FF7897E62FFFE433FE7C007D1F1207FAAE
:1024CC00AB36E5382FF9E5373EFAC0017997E77856
:1024DC009526FFD001124B987895E6FD7F0A124D98
:1024EC008D3024307895E6FF7897E62FFFE433FEA5
:1024FC007C00EFB57A1EECB5061A7D1F1207FAABFD
:10250C0036E5382FF9E5373EFA753C01753D027515
:10251C003E1F803D7895E6FF7897E62FFFE433FE6B
:10252C007C007D1F1207FAAB36E5382FF9E5373EF4
:10253C00FAC003C002C001E5382FF9E5373EFA9026
:10254C00000D120A028B3C8A3D893ED001D002D08C
:10255C0003122FC578950602245BE57A75F01FA44B
:10256C003029072477F97433800524CAF9740C35A3
:10257C00F07536FFF53789382024030227187D03C0
:10258C00E4FF124D8D7BFF7A32796A124C9320173F
:10259C0005302502C22430184D20264AC224AB3601
:1025AC00AA37A938120780FF7E0090000D120A028C
:1025BC00A801AC02AD037B017A02791F12075A30D5
:1025CC00290BE57A6003B4011DD21B8019AF7A1276
:1025DC003C79AB36AA37A93890000412079930E53C
:1025EC0005AF7A12412230190F20270C1215A112B7
:1025FC004DB49002231209A930192D124DB4A80420
:10260C00A905AA06AB07900223E0FCA3E0FDA3E01A
:10261C00FEA3E02446FFE43EFEE43DFDE43CFCD397
:10262C001208B340031215A1301936124DB4A80488
:10263C00A905AA06AB07900223E0FCA3E0FDA3E0EA
:10264C00FEA3E024F4FFEE3401FEE43DFDE43CFC8B
:10265C00D31208B3400BAB36AA37A9387DF7121545
:10266C00A920190A9002231209B500000000301AA3
:10267C0017202814AB36AA37A9387D011215A912D8
:10268C004DB49002271209A9301A35124DB4A80482
:10269C00A905AA06AB07900227E0FCA3E0FDA3E086
:1026AC00FEA3E02446FFE43EFEE43DFDE43CFCD307
:1026BC001208B3400BAB36AA37A9387D011215A905
:1026CC00301A36124DB4A804A905AA06AB0790021D
:1026DC0027E0FCA3E0FDA3E0FEA3E024F4FFEE342E
:1026EC0001FEE43DFDE43CFCD31208B3400BAB36D9
:1026FC00AA37A9387D091215A9301A030228CE90E1
:10270C0002271209B5000000000228CE7D03E4FF69
:10271C00124D8DAB36AA37A9389000181208F7E481
:10272C00FBFAF9F8120344400FAB36AA37A93890DC
:10273C00000412079930E2087BFF7A32797F800619
:10274C007BFF7A327994124C932017143025113078
:10275C002907C229E4F57A8007C22AD20812393136
:10276C00301868202665AB36AA37A938120780FFC7
:10277C00D394045018EF94004013D2247E009000A0
:10278C000D120A02781F7C027D0112075A30293182
:10279C00E57A6402702BD21B124DC1E4FDFF124D81
:1027AC008D7BFF7A3279A9124C937D01E4FF124D97
:1027BC008D7BFF7A3279BC124C937FB87E0B124C16
:1027CC00BD302907E57AB40302D21D301921202728
:1027DC001EE57A700F202905787DE68002E57B14D2
:1027EC00F57A8002157A124DB49002231209A930A1
:1027FC00193F124DB4A804A905AA06AB07900223F1
:10280C00E0FCA3E0FDA3E0FEA3E02446FFE43EFED3
:10281C00E43DFDE43CFCD31208B34015E57A700F9F
:10282C00202905787DE68002E57B14F57A80021577
:10283C007A20190A9002231209B5000000003029F1
:10284C00067895A67B8006787DE67895F6301A1B7F
:10285C00202818E57A04FF7895E6FEEF8EF0848543
:10286C00F07A124DB49002271209A9301A39124D80
:10287C00B4A804A905AA06AB07900227E0FCA3E0C4
:10288C00FDA3E0FEA3E02446FFE43EFEE43DFDE4B0
:10289C003CFCD31208B3400FE57A04FF7895E6FEB2
:1028AC00EF8EF08485F07A201A0A9002271209B56F
:1028BC000000000030190B301A08202905E4F57AC5
:1028CC00D229A2179225A2189226A2199227A21AEF
:0228DC00922840
:0128DE0022D7
:1000A60002045BE86480F8E933E83360110460F029
:1000B600ED33EC337009E8FCE9FDEAFEEBFF2204C0
:1000C60060DED3EB9FEA9EE99DE8C2E78CF0C2F7BB
:1000D60095F0400CE8CCF8E9CDF9EACEFAEBCFFB87
:1000E60012042685D0F05804700320D5B3E80470B6
:1000F600075002B2D502046592D5EC0460F7E4CC51
:10010600C0E0C398F8603B94186008400DD0E0FB4F
:1001160002043DE4FBFAC9FC8028E830E406E4C9A1
:10012600FBE4CAFCE830E305E4C9CACBFCE85407A3
:100136006010F8C3E913F9EA13FAEB13FBEC13FCAE
:10014600D8F130F52FC3E49CFCEF9BFFEE9AFEED51
:1001560099FDD0E0FBEF4E4D4C701222DB030204FA
:1001660062EC2CFCEF33FFEE33FEED33FDED30E7B2
:10017600EB02043DEF2BFFEE3AFEED39FDD0E0FB3E
:1001860050130BBB0003020465ED13FDEE13FEEFE7
:0801960013FFEC13FC02043D11
:10019E00EC4D6011E8497017ED33EC3304600DE45B
:1001AE00FCFFFEFD22E933E8330470F802045B1213
:1001BE00042658046009E4CC248150062850090214
:1001CE000465284003020462C0E0EB4A7044B98023
:1001DE0006D0E0FB020451EF4E701CBD8008EBFF11
:1001EE00EAFEE9FD80EBE98DF0A4FEE5F002028760
:1001FE00E9CDF9EAFEEBFFEF89F0A4FCE5F0CE893C
:10020E00F0A42EFFE435F0CD89F0A42DFEE435F0F8
:10021E008067EF4E7005BD80D780C3EF8BF0A4AC26
:10022E00F0EE8BF0A42CFCE435F0F8EF8AF0A42C61
:10023E00E5F038FCE433CB8DF0A42CFCE5F03BF874
:10024E00EE8AF0A42CFCE5F038F8E433CF89F0A464
:10025E002CFCE5F038CF3400CE89F0A42FFFE5F06A
:10026E003EFEE433C98DF0A42EFEE5F039CD8AF0C2
:10027E00A42FFFE5F03EFEE43DFD33D0E0FB50073A
:10028E000BBB000F020465EC2CFCEF33FFEE33FECC
:06029E00ED33FD02043DFA
:1002A400020465EC5D046005E85904700302045B14
:1002B400120426580460F6EC4860F2EC7004FDFE6B
:1002C400FF22C860DB2481C85009C398600250062D
:1002D4000204629850CAF582E9294B4A7005AB8240
:1002E40002045175F0007C1A7880C3EF9BEE9AEDFE
:1002F40099400DC3EF9BFFEE9AFEED99FDE842F0A5
:10030400DC23ACF0D0E0FFD0E0FED0E0FDAB8220F7
:10031400E7101BEB60BAEC2CFCEF33FFEE33FEED81
:1003240033FD02043DE803F830E705C0F075F00042
:10033400EF2FFFEE33FEED33FD40B830E7C280AA65
:1003440074F8CC6480CCC86480C8F582046043C36C
:10035400EB9FF5F0EA9E42F0E99D42F0E89C45F0FF
:1003640060305018E5825FFFE582F42B5582FB5024
:10037400210ABA001D09B90019088016E5825BFB41
:10038400E582F42F5582FF50090EBE00050DBD0015
:10039400010CC3EB9FF5F0EA9E42F0E99D42F0E8C0
:0D03A4009C45F06007CC4820E701B3EC2237
:1003B10075F020800E75F010800575F0087D007EC7
:1003C100007F003392D530D5031208A5EC334010DD
:1003D100EF33FFEE33FEED33FDEC33FCD5F0ED22D0
:0E03E100E5F0247EA2D513CC92E7CDCEFF220C
:1003EF00EDD2E7CD33EC3392D524814006E4FFFE06
:1003FF00FDFC22FCE4CFCECDCC24E0501174FF8065
:10040F00EDC3CC13CCCD13CDCE13CECF13CF047001
:07041F00F030D5DE0208A554
:1028DF00E5582444F8E60558227841301002784430
:1028EF00E475F0011209F20207802009EB7F2ED266
:1028FF00098018EF540F2490D43440D4FF300D0BBF
:10290F00EF24BFB41A0050032461FFE5596002158C
:10291F0059055CE55C7002055B30100D7841E4757C
:10292F00F0011209F2EF0207C6024DA17403D21093
:10293F008003E4C210F5588B418A428943E4F5596C
:10294F00F55BF55CE55960077F2012291A80F57554
:10295F005AFFC20AC209C20BC20CC20EC20FC21169
:10296F001228E8FF700D3010057F0012292BAF5C85
:10297F00AE5B22B4255FC2D5C20D1228E8FF24D06A
:10298F00B40A00501A75F00A785930D50508B6FF09
:10299F000106C6A426F620D5047002D20C80D924D5
:1029AF00CFB41A00EF5004C2E5D20D022C18D20A90
:1029BF0080C6D20980C0D20B80BCD2D580BAD20ECD
:1029CF0080B47F2012291A200B077401B5590040DB
:1029DF00F11228DFFF12291A022953D211D20F80C8
:1029EF00951228DFFB1228DFFA1228DFF94A4B7005
:1029FF0006790F7A2D7BFF200B2EE559602A7E007A
:102A0F008E8275830012079960060EEE655A70F07C
:102A1F00C2D5EBC0E0EAC0E0E9C0E0EE122C78D0FE
:102A2F00E0F9D0E0FAD0E0FB120780FF60AAEBC01C
:102A3F00E0EAC0E0E9C0E012291AD0E02401F9D0A1
:102A4F00E03400FAD0E0FBE55A0460DCD55AD980B7
:102A5F0087D20B80A2122C5B60F7E55A700104122B
:102A6F00049BA95A600DE55A600914F55A122D02FC
:102A7F00EF60F3EA30E702F404C3995077EAF425E4
:102A8F005A0430E701E404F55A800D122C5B60C143
:102A9F00EA055A255A12049BEA7857F630E701E403
:102AAF00255A04D55A04200E0114122C78E4C0E0E4
:102ABF00122D027857E6601320E70714F612290249
:102ACF00802204F6D0E014C0E07F00122902E55AFC
:102ADF0060071228F9155A800B300E031228F9D00F
:102AEF00E0022953D0E00480C5122C5B60A0E55AA8
:102AFF000412049B7857EAF6E55A200E026001048F
:052B0F002404122C78E3
:102B140074FF04C0E0122D02122902E55A200E02AD
:102B240060031228F9D0E0B55AE87F4512290C78E1
:102B340057E67F2B30E7047F2DF404C0E012291AF6
:102B4400D0E075F00A84C0F0122903D0E012290302
:102B5400022953791080027908C20FC2118008D269
:102B6400D5790A8004790AC2D5E55A047002F55A67
:102B7400E4FAFDFEFF1228DFFC7B08200A1312286A
:102B8400DFFD7B1030090A1228DFFE1228DFFF7BED
:102B940020EC3382D592D55013C3E43009069FFF4D
:102BA400E49EFEE4200A039DFDE49CFCE4CBF8C211
:102BB4000AEC700CCFCECDCCE824F8F870F3801773
:102BC400C3EF33FFEE33FEED33FDEC33FCEB33FBAD
:102BD400994002FB0FD8E9EB300A05F8D0E0C4486D
:102BE400B20AC0E00AEC4D4E4F78207B0070C2EA76
:102BF400B55A0040BCC0E0122C7AD0F0D0E0200AD4
:102C040004C4C0E0C4B20AC0F0122903D0F0D5F065
:102C1400EB022953120A3229F0532B575829C14C7D
:102C240029BD422B5B4F2B63442B634929D6432B8D
:102C340069552A9A462AF8452A64472D2F5029C5F2
:102C44002D29C92E29EC2B29CD2329EA202D182A38
:102C5400298548000029E4E55AB4FF03755A061291
:102C640028DFFC1228DFFD1228DFFE1228DFFF78A0
:102C7400500204CA790AA2D5200C14300E09B910E6
:102C8400020404B9080104A2D5200F025001042053
:102C94000B68920BB559005034C0E07F20300C19FA
:102CA4007F30A20B720F720E500F122CD1C20BC2C6
:102CB4000FC20EC2117F30800F300E03E9C0E01244
:102CC400291A300E03D0E0F9D0E0B559CC300E17F4
:102CD4007F30B9100C12291A7F58300D077F788085
:102CE40003B9080312291A300B057F2D02291A7F14
:102CF400202011F87F2B200FF322920B80CF7F002E
:102D0400B4070050052450F8E6FF22286E756C6C59
:102D14002900D20A1228DF300AF8C20A785930D5BD
:102D24000108F60229852D504349581228DF24034F
:102D3400B405004001E4902D2A9312290B743A1231
:0A2D4400290BD20C755904022B571D
:103A4E008F398E388D378C36E4FFFE7D807C3FAB10
:103A5E0039AA38A937A8361203447009AF39AE38DF
:103A6E00AD37AC3622AF39AE38AD37AC3612047046
:103A7E00FBAF3DAE3CAD3BAC3A120470FFBF01084C
:103A8E00E4FFFE7D807C3F22EF64046022EB640441
:103A9E00601DBB0127E4FFFEFDFCAB3DAA3CA93B2C
:103AAE00A83A12034460084006E4FFFEFDFC2274AF
:103ABE00FFF53DF53CF53BF53A023B5CE4F53EF592
:103ACE003FFFFEFDFCAB39AA38A937A836120344D6
:103ADE00504BAF3DAE3CAD3BAC3A1203EF8E3E8F3A
:103AEE003FAC3EAD3FEC1203B6C8ECC8C9EDC9CA37
:103AFE00EECACBEFCBAF3DAE3CAD3BAC3A1200A91C
:103B0E00E4FBFAF9F812034470A5AF39AE38AD37BD
:103B1E00AC3612048A8F398E388D378C36AF39AE6B
:103B2E0038AD37AC36123830AB3DAA3CA93BA83A7B
:103B3E0012019E1241F58F3D8E3C8D3B8C3AE53F36
:103B4E0030E00B12048A8F3D8E3C8D3B8C3AAF3D9C
:073B5E00AE3CAD3BAC3A2286
:10042600E9D2E7C933E833F892D5EDD2E7CD33EC1C
:0704360033FC5002B2D52295
:10043D00EC30E7100FBF000C0EBE00080DBD000420
:10044D000BEB6014A2D5EB13FCED92E7FD2274FFCC
:10045D00FCFDFEFF22E480F8A2D574FF13FC7D8025
:03046D00E480EF39
:10047000ED33EC33601004700FED547F700574029F
:0A04800092E2227404220422E42216
:10048A00ED33EC33600A047003BD8004ECB2E7FC80
:01049A00223F
:10049B00F920E72824F950037907E4F42402FB1828
:1004AB00DBFDE624FB5014E9600DE4F618E604F6D8
:0F04BB00B40A08E4F6D9F57401F60A22C2D52274
:1004CA00ED33EC3392D5FA602AB4FF33EDC2E77B01
:1004DA00FF60067A0479EFE4227A0479F820D504D9
:1004EA007A0479F3224E614E002B494E46002D497B
:1004FA004E4600E47A08F608DAFC7B00740722E824
:10050A00C0E0ECC0E0EDC0E0EEC0E0EFC0E0EA75AC
:10051A00F010A4CAABF075F04DA42BFBE435F0FC47
:10052A00EA2410FAEB34C5FBEC34D9FCEDC2E7FF40
:10053A0075F056A4F42411C5F0F434C58FF0A42A3A
:10054A00E5F03BE43CF620E7141205FDD0E0FFD0CD
:10055A00E0FED0E0FDD0E0FC1202A78014F4041201
:10056A0005FDD0E0FFD0E0FED0E0FDD0E0FC1201B6
:10057A009ED0E0F8E6FAEDD2E7CD33EC332482FBE5
:10058A00E4C3CF33CFCE33CECD33CD33DBF37B07CA
:10059A0075F00A846004F6081B0AE5F0F6088FF085
:1005AA00740AA4FFACF08EF0740AA42CFEACF050CE
:1005BA00010C8DF0740AA42CFDE435F0F608DBDE9C
:0305CA0074072291
:1041BD0033DA929E35B16011377FE5FE392184895E
:1041CD003AAEC3FF3C1D955B3D6358473E75FDF010
:1041DD003F3172183F800000C2D502046502045BB6
:1041ED00BD80FA50F3020462ED33EC330460F17BD1
:1041FD003B7AAA79B8783F12019EED33EC3392D514
:10420D00247B5011A2D570DB500BED44802404505B
:10421D0004A2D580CEEFFBEEFAEDF9ECF81203EF28
:10422D00EFF582F404FC1203BB1200ADC082904185
:10423D00BD740912064CED33CC33D0F092D525F078
:0A424D00A2D57001C313CC13FD22AB
:1037FC003E9248DA3ECCCCCD3F2AAAAB400000002A
:10380C003F8000003F9837F03FB504F33FD744FCAE
:10381C003E3172173EB172173F0515913EDE5BD9F2
:10382C00D2088002C208EDD2E7F8CD33EC33047035
:10383C000BBD800592D502046502045B40FBD314DA
:10384C0060F2F5F07C3FEE7A00C39496C8948B40FE
:10385C00230AC89469C8941A401A0AC89468C89470
:10386C001F40110AC8945AC89425400805F07A00E4
:10387C00CDC2E7CDC0F08C408D418E428F43EA2300
:10388C0023C0E0240CF582E43438F58312095D1270
:10389C0000ADECC0E0EDC0E0EEC0E0EFC0E012091E
:1038AC004DA840A941AA42AB431200A9D0E0FBD0DD
:1038BC00E0FAD0E0F9D0E0B2E7F81202A78C408D24
:1038CC00418E428F439037FC740312063DA840A9E9
:1038DC0041AA42AB4312019ED0E0600F2418F5823E
:1038EC00E43438F58312095D1200AD8C408D418EA5
:1038FC00428F43D0E0C3947FFDE49400FC1203B6E6
:10390C007B187A727931783F12019EA840A941AA9E
:10391C0042AB431200AD30080B7BD97A5B79DE7871
:05392C003E12019E2285
:1005CD003F8000004120000042C80000447A000036
:1005DD00461C400047C35000497424004B189680B8
:1005ED004CBEBC205A0E1BCA6753C21C749DC5AEAF
:1005FD00FB60065407601C232312062BEB54386056
:10060D000912061712062612019EECF8EDF9EEFA04
:10061D00EFCB22EB12062680F1543803241C9005F3
:10062D00CDFE93FC0EEE93FD0EEE930ECE93FF22B8
:10063D00C0E0EFFBEEFAEDF9ECF812019ED0E0F51B
:10064D00F0EFFBEEFAEDF9ECF812094DA3A3A3A31D
:10065D00E8C0E0E9C0E0EAC0E0EBC0E0C0F01201A4
:10066D009E12095DA3A3A3A31200ADD0F0D0E0FBB1
:0D067D00D0E0FAD0E0F9D0E0F8D5F0D422BA
:0300000002440FA8
:0C440F00787FE4F6D8FD758198024456D1
:10068A00E709F608DFFA8046E709F208DFFA803E52
:10069A0088828C83E709F0A3DFFA8032E309F6083F
:1006AA00DFFA8078E309F208DFFA807088828C83A7
:1006BA00E309F0A3DFFA806489828A83E0A3F6085B
:1006CA00DFFA805889828A83E0A3F208DFFA804C35
:1006DA0080D280FA80C680D4806980F2803380100C
:1006EA0080A680EA809A80A880DA80E280CA803375
:1006FA0089828A83ECFAE493A3C8C582C8CCC583ED
:10070A00CCF0A3C8C582C8CCC583CCDFE9DEE780BC
:10071A000D89828A83E493A3F608DFF9ECFAA9F03B
:10072A00EDFB2289828A83ECFAE0A3C8C582C8CC91
:10073A00C583CCF0A3C8C582C8CCC583CCDFEADEAA
:10074A00E880DB89828A83E493A3F208DFF980CC0C
:10075A0088F0EF60010E4E60C388F0ED2402B40405
:10076A000050B9F582EB2402B4040050AF232345AC
:06077A0082239006DA73F1
:10078000BB010689828A83E0225002E722BBFE0277
:09079000E32289828A83E49322AA
:10079900BB010CE58229F582E5833AF583E0225015
:1007A90006E92582F8E622BBFE06E92582F8E2225F
:0D07B900E58229F582E5833AF583E4932279
:1007C600BB010689828A83F0225002F722BBFE0112
:0207D600F3220C
:1007D800F8BB010DE58229F582E5833AF583E8F057
:1007E800225006E92582C8F622BBFE05E92582C803
:0207F800F222EB
:1007FA00EF8DF0A4A8F0CF8CF0A428CE8DF0A42E13
:02080A00FE22CC
:10080C00C2D5EC30E709B2D5E4C39DFDE49CFCEE07
:10081C0030E715B2D5E4C39FFFE49EFE120B6DC307
:10082C00E49DFDE49CFC8003120B6D30D507C3E402
:06083C009FFFE49EFE2276
:10084200BB010A89828A83E0F5F0A3E02250068781
:10085200F009E71922BBFE07E3F5F009E319228943
:0B086200828A83E493F5F07401932276
:10086D00BB010789828A83020BC2500B09C5F02791
:10087D00F7C5F01937F722BBFE0D09F8E325F0F3A4
:10088D00C5F019E338F322F889828A837401932520
:08089D00F0C5F0F8E4933822E5
:0E08A500C3E49FFFE49EFEE49DFDE49CFC2264
:1008B300EB9FF5F0EA9E42F0E99D42F0E89C45F09B
:0108C3002212
:1008C400E8600FECC313FCED13FDEE13FEEF13FF12
:0308D400D8F12236
:1008D700BB010789828A83020BD85005E9F8020910
:1008E70041BBFE05E9F8020BE489828A8302094DC0
:1008F700BB010DE58229F582E5833AF583020BD822
:100907005007E92582F8020941BBFE07E92582F86D
:10091700020BE4E58229F582E5833AF58302094D66
:10092700BB010789828A830209A95005E9F80209F0
:0A0937009DBBFE05E9F8020C162234
:0C094100E6FC08E6FD08E6FE08E6FF22E2
:10094D00E493FC740193FD740293FE740393FF22F0
:10095D00E493F8740193F9740293FA740393FB22F0
:10096D00BB010DE58229F582E5833AF583020BFD86
:10097D005007E92582F8020BF0BBFE07E92582F846
:10098D00020C09E58229F582E5833AF58302095DBA
:0C099D00ECF608EDF608EEF608EFF62286
:0C09A900ECF0A3EDF0A3EEF0A3EFF022C1
:1009B500A8828583F0D083D0821209CC1209CC128B
:1009C50009CC1209CCE473E493A3C583C5F0C583B0
:1009D500C8C582C8F0A3C583C5F0C583C8C582C88C
:0109E50022EF
:0C09E600A42582F582E5F03583F583221C
:1009F200FAE6FB0808E6F925F0F618E6CA3AF62206
:100A0200BB010DE58229F582E5833AF583020C2BC1
:100A12005007E92582F8020C22BBFE07E92582F87D
:100A2200020C34E58229F582E5833AF583020C3D16
:100A3200D083D082F8E4937012740193700DA3A353
:100A420093F8740193F5828883E473740293686067
:060A5200EFA3A3A380DF67
:104C9300120780601CFF09E970010AC0E0EAC0E066
:104CA300EBC0E0124DA1D0E0FBD0E0FAD0E0F980F8
:0A4CB300DF7F0A124DA1E4FEFF228C
:1047FC008B418A4289438B478A488949AB4105439F
:10480C00E543AA427002054214F912078070ED7458
:10481C00FF2543F54374FF3542F542AB440546E5AD
:10482C0046AA457002054514F9120780FFAB4105F5
:10483C0043E543AA427002054214F9EF1207C67011
:08484C00DAAB47AA48A9492292
:100A5800E709F60870FA8046E709F20870FA803E5E
:100A680088828C83E709F0A370FA807EE309F60890
:100A780070FA8076E309F20870FA806E88828C83B7
:100A8800E309F0A370FA806289828A83E0A3F608FA
:100A980070FA805689828A83E0A3F20870FA804A45
:100AA80080D280FA80C680D4806580F28031801040
:100AB80080A680EA809A80A880DA80E280CA8031A5
:100AC80089828A83ECFAE493A3C8C582C8CCC5831B
:100AD800CCF0A3C8C582C8CCC583CC70E9800D8989
:100AE800828A83E493A3F60870F9ECFAA9F0EDFB87
:100AF8002289828A83ECFAE0A3C8C582C8CCC58360
:100B0800CCF0A3C8C582C8CCC583CC70EA80DD8987
:100B1800828A83E493A3F20870F980CE88F0ED24EA
:100B280002B4040050C4F582EB2402B4040050BAA5
:090B38002323458223900AA873CF
:1048FB008B418A428943E4F549F54AE5481548AEB0
:10490B0047700215474E6033AB44AA45A9461207C0
:10491B0080FFAB41AA42A943054AE54AAC49700264
:10492B00054914F5828C83EF1207D8EF60CD740123
:10493B002546F546E43545F54580C0AB41AA42A96D
:02494B00432205
:10000E00E4FFFE120780600C0FEF70010E09E9701D
:05001E00F20A80EF2250
:104D7100E94A4B700122120780FF6D700122EF702A
:0C4D810004FBFAF92209E970ED0A80EA4F
:100B4100EF4E6012EF60010EEDBB010B89828A83CB
:100B5100F0A3DFFCDEFA2289F05007F709DFFCA9D8
:0C0B6100F022BBFEFCF309DFFCA9F0222F
:10441B00024DCEE493A3F8E493A34003F68001F29C
:10442B0008DFF48029E493A3F85407240CC8C333A2
:10443B00C4540F4420C8834004F456800146F6DF71
:10444B00E4800B01020408102040809049EFE47EC9
:10445B00019360BCA3FF543F30E509541FFEE49366
:10446B00A360010ECF54C025E060A840B8E493A32D
:10447B00FAE493A3F8E493A3C8C582C8CAC583CA58
:10448B00F0A3C8C582C8CAC583CADFE9DEE780BE10
:014A3D000078
:100B6D00BC000BBE0029EF8DF084FFADF022E4CC6C
:100B7D00F875F008EF2FFFEE33FEEC33FCEE9DEC35
:100B8D00984005FCEE9DFE0FD5F0E9E4CEFD22ED7B
:100B9D00F8F5F0EE8420D21CFEADF075F008EF2FC5
:100BAD00FFED33FD4007985006D5F0F222C398FDB6
:050BBD000FD5F0EA2253
:100BC200C5F0F8A3E028F0C5F0F8E58215827002BE
:060BD2001583E038F0225B
:0C0BD800E0FCA3E0FDA3E0FEA3E0FF2290
:0C0BE400E2FC08E2FD08E2FE08E2FF224D
:0D0BF000E6FB08E6F908E6FA08E6CBF82275
:0C0BFD00E0F8A3E0F9A3E0FAA3E0FB227B
:0D0C0900E2FB08E2F908E2FA08E2CBF8226B
:0C0C1600ECF208EDF208EEF208EFF2221A
:090C2200E6FB08E6FA08E6F922F7
:090C2B00E0FBA3E0FAA3E0F922CA
:090C3400E2FB08E2FA08E2F922F1
:0C0C3D00E493FB740193FA740293F92213
:00000001FF
