:1019650020002A2A2000202A2A00202041646472AF
:101975006573733A202020253034580020205265A5
:10198500766973696F6E3A202025730054543A25A1
:10199500352E31664B0054563A25352E31664B00AF
:1019A50048653A25352E316625250054483A2535B2
:1019B5002E3166254B004A543A25352E31662525AC
:1019C50000544A3A25352E3166254B004C4E324D92
:1019D50030004C4E324D3120004C4E324131004CDE
:1019E5004E32413000484F4E2000484F4646002BAE
:1019F500204845202D00425453002449643A207361
:101A050063735F313030315F6274732E6320323817
:101A1500393720323030352D31312D3233203130C8
:101A25003A32363A30305A207269747420240001F3
:101A3500340000004572726F720000000100090059
:101A4500000000000000000000000000000001345C
:101A5500000000537461746500000001000A000075
:101A65000000411000003F8000000000000203005C
:101A750000004C4E32206F6E000001000B0000008C
:101A85000042F000004120000000000002030000B9
:101A9500004C4E32206F66660001000D000000000C
:101AA50045610000412000000000000134000000F5
:101AB5004B41204F7574000001000F0000000040ED
:101AC500E000003F80000000000001340000004BF2
:101AD5004120496E000000010010000000000000D8
:101AE500000000000000000000045A0000014B4106
:101AF500204C6576656C01001100000000000000B7
:101B0500000000000000000001320000004C4E32D1
:101B150020766C7665010015000000003F8000000E
:101B25003F80000000000001320000004C4E3220D2
:101B350068747200010016000000003F8000003F3D
:101B450080000000000004070000014C4E32766C56
:101B5500762054010017000000000000000000007E
:101B6500000000000004070000014C4E326874724A
:101B7500205401001B0000000000000000000000D0
:101B850000000000045A0000014A542046766C7695
:101B95006501001F000000000000000000000000BB
:101BA500000000045A0000014A542042766C766514
:101BB50001002300000000000000000000000000FC
:101BC500000004070000014A5420540000000001F1
:101BD50000270000000000000000000000000000D9
:101BE50000045A0000014C4865206C766C310100F8
:101BF5002B000000000000000000000000000000B5
:101C0500045A0000014C4865206C766C3201002FA7
:101C150000000000000000000000000000000004BB
:101C2500070000014C4E3220543100000100330002
:101C35000000000000000000000000000000040794
:101C45000000014C4E3220543200000100370000E4
:101C55000000000000000000000000000004070074
:101C650000014C4E32205433000001003B000000BF
:101C75000000000000000000000000000407000054
:101C8500014C4E32205434000001003F000000009A
:101C95000000000000000000000000040700000133
:101CA5004C4845205431610001004300000000000C
:101CB5000000000000000000000004070000014CC7
:101CC5004845205432610001004700000000000033
:101CD50000000000000000000004070000014C485F
:101CE50045205433610001004B0000000000000056
:101CF500000000000000000004070000014C4845FA
:101D0500205431620001004F000000000000000077
:101D15000000000000000004070000014C484520B9
:101D25005432620001005300000000000000000072
:101D350000000000000004070000014C4845205445
:101D450033620001005700000000000000000000A1
:101D550000000000000416FD00014C4E322050002A
:101D6500000001005B000000000000000000000012
:101D75000000000004160000014C484520500000FA
:101D85000001005F000000000000000000000000EE
:101D950000000004180000015175656E636831008C
:101DA50001006300000000000000000000000000CA
:101DB500000004180000015175656E63683200016A
:101DC50000670000000000000000000000000000A7
:101DD50000041800000941444330000000000100E0
:101DE5006B00000000000000000000000000000083
:101DF5000418000009414443310000000001006F50
:101E050000000000000000000000000000000004C9
:101E1500180000094144433200000000010073002E
:101E25000000000000000000000000000000041891
:101E35000000094144433300000000010077000021
:101E45000000000000000000000000000004180071
:101E55000009414443340000000001007B000000FC
:101E65000000000000000000000000000418000051
:101E750009414443350000000001007F00000000D7
:101E85000000000000000000000000041800000928
:101E950041444336000000000100830000000000BB
:101EA50000000000000000000000041800000941C7
:101EB50044433700000000010087000000000000D7
:101EC5000000000000000000000418000009414F58
:101ED50046533000000001008BBDCCCCCD3DCCCCB1
:101EE500CD3A83126F0000000418000009414F46E7
:101EF500533100000001008FBDCCCCCD3DCCCCCD05
:101F05003A83126F0000000418000009414F465340
:101F150032000000010093BDCCCCCD3DCCCCCD3AF8
:101F250083126F0000000418000009414F46533327
:101F3500000000010097BDCCCCCD3DCCCCCD3A8383
:101F4500126F0000000418000009414F4653340089
:101F5500000001009BBDCCCCCD3DCCCCCD3A83124D
:101F65006F0000000418000009414F46533500007A
:101F75000001009FBDCCCCCD3DCCCCCD3A83126FBA
:101F85000000000418000009414F465336000000C8
:101F95000100A3BDCCCCCD3DCCCCCD3A83126F0096
:101FA50000000418000009414F46533700000001A6
:101FB50000A7BDCCCCCD3DCCCCCD3A83126F000073
:101FC50000045D000009414741494E300000010011
:101FD500AB3F6666663F8CCCCD3A83126F0000003E
:101FE500045D000009414741494E3100000100AF41
:101FF5003F6666663F8CCCCD3A83126F00000004C5
:102005005D000009414741494E3200000100B33FE0
:102015006666663F8CCCCD3A83126F000000045D86
:10202500000009414741494E3300000100B73F66B2
:1020350066663F8CCCCD3A83126F000000045D00CC
:102045000009414741494E3400000100BB3F666627
:10205500663F8CCCCD3A83126F000000045D000012
:1020650009414741494E3500000100BF3F6666669C
:102075003F8CCCCD3A83126F000000045D0000094F
:10208500414741494E3600000100C33F6666663F41
:102095008CCCCD3A83126F000000045D000009412D
:1020A5004741494E3700000100C73F6666663F8CD1
:1020B500CCCD3A83126F00000004180000193931A5
:1020C500305F303000000100CB0000000000000050
:1020D500000000000000010004180000193931302B
:1020E5005F303100000100CF00000000000000005B
:1020F5000000000000010104180000193931305FAB
:10210500303200000100D300000000000000000094
:1021150000000000010204180000193931305F3059
:102125003300000100D7000000000000000000009F
:10213500000000010304180000193931305F303404
:1021450000000100DB0000000000000000000000AE
:102155000000010404180000193931305F303500E2
:10216500000100DF0000000000000000000000008A
:1021750000010504180000193931305F30360000C0
:102185000100E30000000000000000000000000066
:10219500010604180000193931305F30370000019D
:1021A50000E7000000000000000000000000000142
:1021B5000704180000193931305F3038000001007C
:1021C500EB00000000000000000000000000010816
:1021D50004180000193931305F303900000100EF73
:1021E50000000000000000000000000000010904DC
:1021F500180000193931305F313000000100F3005B
:10220500000000000000000000000000010A0418A2
:102215000000193931305F313100000100F700004D
:102225000000000000000000000000010B04180081
:1022350000193931305F313200000100FB00000028
:1022450000000000000000000000010C0418000060
:10225500193931305F313300000100FF0000000003
:10226500000000000000000000010D041800001926
:102275003931305F313400000101030000000000F6
:102285000000000000000000010E041800001939CC
:1022950031305F313500000101070000000000000A
:1022A50000000000000000010F041800001939317A
:1022B500305F3136000001010B0000000000000016
:1022C5000000000000000110041800001939313029
:1022D5005F3137000001010F000000000000000021
:1022E5000000000000011104180000193931305FA9
:1022F500313800000101130000000000000000005B
:1023050000000000011204180000193931305F3156
:102315003900000101170000000000000000000066
:102325000000000113000000000000000000000094
:102335000000000000000000000000000000000098
:042345000000000094
:105CD700019101C113C114C115C116440000000090
:065CE7000000410008006E
:104A7800E4F584F5BA75BCE075E880F5D1F5847580
:104A8800D102F58475D48075840175D48075840F3E
:104A980075A4F575A5BF75A6FF75A7FFEF6048E477
:104AA800F53B75F004E53BA4248BF582E5F0340072
:104AB800F5831216D10000000075F004E53BA4242C
:104AC800ABF582E5F03400F5831216D13F80000083
:104AD800053BE53BB408CB90000BE4F0A3741EF053
:104AE800A3E4F0A374B4F07D087F01125E77E4FDBF
:104AF800FF126204E4F53B7B007A00790F12000E86
:104B08007C007D02121528C374079FFFE49EFEC334
:104B1800E53B9FEE6480F8748098500D7BFF7A190E
:104B2800796512610A053B80CE7BFF7A1979671295
:104B3800610A7B007A00790F12610A7BFF7A197982
:104B48006B12610A7D01E4FF1262047BFF7A197916
:104B58006F850946850A47123C5B7D02E4FF1262B5
:104B68000478EB7C017D017BFF7A1A7913121840D7
:104B78007B017A0179EB7D201261E8E41214E27579
:104B880046017547017548EB7BFF7A197981123C1C
:104B98005BE4900009F0A3E0D394024002E4F0E45F
:104BA80090000FF0900015F0A3F0F53BAF3B1247D3
:0A4BB8000D053BE53BC3946340F29A
:014BC20022D0
:0C470D00151FA81FEFF6E51F24FAF51F8A
:104719002406F8E624F9604214604B24FD60531422
:104729007003024831240860030248E490000FE056
:10473900FF30E003D38001C392B6EF5402FFBF01FB
:1047490003D38001C392B590000FE05404FFBF0169
:1047590003D38001C392B40248E4900015E024FF1A
:10476900B392B00248E4900016E024FFB392B70276
:1047790048E4E4FFFE7D807C4190001FE0F8A3E05F
:10478900F9A3E0FAA3E0FB120EBAE4FBFA79C878C0
:1047990042120FC3E4FBFA79807840120DC9A81FB1
:1047A9001216B9A81FE8C0E012165D7BAE7A4779E8
:1047B90061783E120DC5D0E0F81216B9E4FBFA791A
:1047C900C07841E8C0E0A81F12165DD0E0F8120FCA
:1047D900C3E4FBFA79807845120EBA12110BE51F72
:1047E9002404F8EEF608EFF6E51F2404F9C3E7946C
:1047F90010400AE51F2404F8760F0876FFE51F2408
:1048090004F9C3E794005009E51F2404F8E4F60805
:10481900F6E4F584E51F2404F808E6F5D2E51F243B
:1048290004F9E7F5D30248E4E4FFFE7D807C41907A
:104839000023E0F8A3E0F9A3E0FAA3E0FB120EBA23
:10484900E4FBFA79C87842120FC3E4FBFA7980785D
:1048590040120DC9A81F1216B9A81FE8C0E0121608
:104869005D7B0A7AD779A3783E120DC5D0E0F8129C
:1048790016B9E4FBFA79C07841E8C0E0A81F12161E
:104889005DD0E0F8120FC3E4FBFA79807845120E87
:10489900BA12110BE51F2404F8EEF608EFF6E51F2E
:1048A9002404F9C3E79410400AE51F2404F8760F9D
:1048B9000876FFE51F2404F9C3E794005009E51FB2
:1048C9002404F8E4F608F6758401E51F2404F808C1
:0B48D900E6F5D2E51F2404F9E7F5D353
:0748E400E51F2407F51F2268
:056259008F327F0022DE
:1060B0008B328A33893412149CAB35AA36A9371235
:1060C00014E2AB32AA33A9349000011214B5AB35F7
:0D60D000AA36A9379000011214F47F0222B5
:085A2C008B498A4A894B8D4C1D
:105A3400E4F54DF551F550754F80754E3FE54DC376
:105A4400954C501EAF51AE50AD4FAC4EE4FBFA79BD
:105A5400207841120EBA8F518E508D4F8C4E054DC9
:105A640080DBAB49AA4AA94B1215F3AB51AA50A942
:105A74004FA84E120EBAE4FBFAF9783F120DC91280
:105A840052B7AB51AA50A94FA84E120FC3AB49AAA3
:065A94004AA94B02164373
:0A48EB008E388F398B3A8A3B893CE6
:1048F500E4F584E539540FF5BB75BCE075430475E3
:104905004400E4F540F53FF53EF53DF541F542C37C
:10491500E5429544E5419543503AC2AFE4F584C27A
:10492500EDD2EC30EDFDD2AFAFBFEFFEADBEEDFF8A
:10493500E4FCFDE5402FF540E53F3EF53FED353E16
:10494500F53EEC353DF53D1258B40542E54270BFE4
:10495500054180BBAF40AE3FAD3EAC3D780612157C
:10496500E08F408E3F8D3E8C3DC3E5399402E5389E
:10497500648094805024E41210CDE4FBFA798078A9
:1049850047120FC3E4FBFA79A07841120EBAE4FB93
:10499500FA792078C1120DC98020AF40AE3FAD3EF7
:1049A500AC3DE41210CDE4FBFA79807847120FC3D1
:1049B500E4FBFA79207841120EBA8F488E478D466E
:1049C5008C45AF48AE47AD46AC45ECC0E0EDC0E028
:1049D500EEC0E0EFC0E0E539AE387802C333CE3340
:1049E500CED8F9248BF58274003EF583E0F8A3E078
:1049F500F9A3E0FAA3E0FBD0E0FFD0E0FED0E0FDB4
:104A0500D0E0FC120DC58F488E478D468C45ECC015
:104A1500E0EDC0E0EEC0E0EFC0E0E539AE38780289
:104A2500C333CE33CED8F924ABF58274003EF5837B
:104A3500E0F8A3E0F9A3E0FAA3E0FBD0E0FFD0E0C3
:104A4500FED0E0FDD0E0FC120EBA8F488E478D46B1
:104A55008C457B007A0079457D03125A2CC2AFAF95
:104A650048AE47AD46AC45AB3AAA3BA93C12164306
:024A7500D2AFBE
:014A7700221C
:10514500C297D296D2957F017E00125AACC295E4E1
:10515500F53B309603433B04D2977F017E00125AFC
:10516500ACC2977F017E00125AAC309603433B08D0
:10517500D2977F017E00125AACC2977F017E001242
:105185005AAC309603433B01D2977F017E00125AF9
:10519500ACC2977F017E00125AAC309603433B02A6
:1051A500D2977F017E00125AACC2977F017E001212
:1051B5005AACE53BF45407900010F0A296921AD22F
:1051C500977F017E00125AACC2977F017E00125A6A
:1051D500ACA2969219D2977F017E00125AACC29763
:1051E5007F017E00125AACA2969218D2977F017E5B
:1051F50000125AACC2977F017E00125AACA2969259
:015205001791
:015206002285
:10376700300803126246E4FDFF1262047BFF7A19F8
:10377700799190003BE0FCA3E0FDA3E0FEA3E0F518
:10378700498E488D478C46123C5BE4FD7F0A1262E6
:10379700047BFF7A19799B900017E0FCA3E0FDA357
:1037A700E0FEA3E0F5498E488D478C46123C5B7DD1
:1037B70001E4FF1262047BFF7A1979A590002BE0E0
:1037C700FCA3E0FDA3E0FEA3E0F5498E488D478CFE
:1037D70046123C5B7D017F0A1262047BFF7A1979EE
:1037E700B090004FE0FCA3E0FDA3E0FEA3E0F549A5
:1037F7008E488D478C46123C5B7D02E4FF126204C3
:103807007BFF7A1979BB90001FE0FCA3E0FDA3E0E2
:10381700FEA3E0F5498E488D478C46123C5B7D023E
:103827007F0A1262047BFF7A1979C6900027E0FCB1
:10383700A3E0FDA3E0FEA3E0F5498E488D478C4643
:10384700123C5B7D03E4FF12620490000AE07008FB
:103857007BFF7A1979D1802190000AE0B401087BB7
:10386700FF7A1979D78012900015E07BFF60067AFE
:103877001979DE80047A1979E4123C5B7D037F06AF
:10388700126204900016E07BFF60067A1979EA80DD
:10389700047A1979EF123C5B7D037F0D1262047B7A
:1038A700FF7A1979F4123C5B301733201330126218
:1038B700399000001216C590000AE00475F00384E1
:1038C700AFF0EFF07006900015F0800D90000AE061
:1038D700B401069000157401F07F0712470D3018E8
:1038E70019201416900016E070047F0180027F00F3
:1038F700900016EFF07F0812470D2019030239F5E3
:1039070020152790001FE0FCA3E0FDA3E0FEA3E045
:10391700FFE4FBFA7980783F120DC990001F121659
:10392700C51262399000041216C5126239C8ECC874
:10393700C9EDC9CAEECACBEFCB900004E0FCA3E007
:10394700FDA3E0FEA3E02446FFE43EFEE43DFDE4E4
:103957003CFCD31215CF401E90001FE0FCA3E0FDF6
:10396700A3E0FEA3E0FFE4FBFA7980783F120DC9DC
:1039770090001F1216C5126239C8ECC8C9EDC9CA32
:10398700EECACBEFCB900004E0FCA3E0FDA3E0FE82
:10399700A3E0242CFFEE3401FEE43DFDE43CFCD320
:1039A7001215CF401E90001FE0FCA3E0FDA3E0FE30
:1039B700A3E0FFE4FBFA79107841120DC990001FCC
:1039C7001216C5E4FFFE7DC87C4290001FE0F8A3F5
:1039D700E0F9A3E0FAA3E0FB121060600C400A9044
:1039E700001F1216D142C800007F0B12470D201A84
:1039F70003023AE520162790001FE0FCA3E0FDA391
:103A0700E0FEA3E0FFE4FBFA7980783F120DC59052
:103A1700001F1216C51262399000041216C51262F1
:103A270039C8ECC8C9EDC9CAEECACBEFCB900004C0
:103A3700E0FCA3E0FDA3E0FEA3E02446FFE43EFE96
:103A4700E43DFDE43CFCD31215CF401E90001FE07F
:103A5700FCA3E0FDA3E0FEA3E0FFE4FBFA79807896
:103A67003F120DC590001F1216C5126239C8ECC867
:103A7700C9EDC9CAEECACBEFCB900004E0FCA3E0C6
:103A8700FDA3E0FEA3E0242CFFEE3401FEE43DFDA0
:103A9700E43CFCD31215CF401E90001FE0FCA3E0CE
:103AA700FDA3E0FEA3E0FFE4FBFA79107841120DD5
:103AB700C590001F1216C5E4FFFEFDFC90001FE035
:103AC700F8A3E0F9A3E0FAA3E0FB121060500A9014
:103AD700001F1216D1000000007F0B12470D30198E
:103AE70011301A0E201903301A0512514580F57F3F
:103AF700012290000AE06402706E900015E0706881
:103B0700126239900000E0F8A3E0F9A3E0FAA3E01D
:103B1700FBC3EF9BFFEE9AFEED99FDEC98FCECC022
:103B2700E0EDC0E0EEC0E0EFC0E090000DE0FEA3E6
:103B3700E0FF7C007D64121516CBEFCBCAEECAE41A
:103B4700F9F8D0E0FFD0E0FED0E0FDD0E0FCC312F2
:103B570015CF50141262399000001216C590001547
:103B67007401F07F0712470D90000AE06402706F3E
:103B7700900015E064017067126239900000E0F868
:103B8700A3E0F9A3E0FAA3E0FBC3EF9BFFEE9AFEE5
:103B9700ED99FDEC98FCECC0E0EDC0E0EEC0E0EF85
:103BA700C0E090000BE0FEA3E0FF7C007D641215EF
:103BB70016CBEFCBCAEECAE4F9F8D0E0FFD0E0FEAF
:103BC700D0E0FDD0E0FCC31215CF5013126239903C
:103BD70000001216C5E4900015F07F0712470DA2EA
:103BE700179213A2189214A2199215A21A92167F6D
:013BF70000CD
:013BF80022AA
:1000A600900008E075F004A4246BF9740035F0FAAA
:1000B6007B01E0FF7E001248EB900008E0703D7F78
:1000C600427E607DD57C3F90006BE0F8A3E0F9A30B
:1000D600E0FAA3E0FB120EBA7BAE7A47793578C117
:1000E600120DC98F3F8E3E8D3D8C3C7F007E007D7C
:1000F600207C41124E1390005B1216C5900008E05A
:10010600640260030201BD7B6F7A127983783A90AC
:100116000073E0FCA3E0FDA3E0FEA3E0FF120FC323
:100126009001EB1216C5E4FFFE7D5C7CC39001EBEB
:10013600E0F8A3E0F9A3E0FAA3E0FB120DC9E4FBA3
:10014600FA79937843120EBAE4FBFA798C78421264
:100156000FC3E4FBFA798778C3120DC99001EB123D
:1001660016C59001EBE0FCA3E0FDA3E0FEA3E0FFD3
:100176007B007A8079887843120DC99001EB1216BC
:10018600C5E4FFFEFDFC9001EBE0F8A3E0F9A3E077
:10019600FAA3E0FB121060500A9001EB1216D10090
:1001A6000000009001EBE0FCA3E0FDA3E0FEA3E06D
:1001B600FF9000271216C5900008E064047063FFE4
:1001C600FE7D207C4190007BE0F8A3E0F9A3E0FAF5
:1001D600A3E0FB120EBA9001EB1216C5E4FFFE7DFA
:1001E600807CC09001EBE0F8A3E0F9A3E0FAA3E07D
:1001F600FB120DC9E4FBFA79807841120FC3E4FBC8
:10020600FA79C87842120EBA9001EB1216C590011F
:10021600EBE0FCA3E0FDA3E0FEA3E0FF90001112DB
:1002260016C5900008E064057063FFFE7D207C41E2
:1002360090007FE0F8A3E0F9A3E0FAA3E0FB120E3A
:10024600BA9001EB1216C5E4FFFE7D807CC09001DA
:10025600EBE0F8A3E0F9A3E0FAA3E0FB120DC9E492
:10026600FBFA79807841120FC3E4FBFA79207840D3
:10027600120EBA9001EB1216C59001EBE0FCA3E05A
:10028600FDA3E0FEA3E0FF90005F1216C5900008F4
:10029600E0045407F0E4FFFE7D7A7C449000CBE056
:1002A600F8A3E0F9A3E0FAA3E0FB120EBAE4FBFA26
:1002B600796078C3120DC97B937A18790478C012D5
:1002C6000FC3E4FBFA79877843120DC99001EF1248
:1002D60016C5E4FFFEFDFC9001EFE0F8A3E0F9A3EC
:1002E600E0FAA3E0FB121060401D7F007EC07D791E
:1002F6007C449001EFE0F8A3E0F9A3E0FAA3E0FB69
:10030600121060600C400A9001EF1216D100000036
:10031600009001EFE0FCA3E0FDA3E0FEA3E0FF9068
:1003260000171216C5E4FFFE7D7A7C449000CFE0EC
:10033600F8A3E0F9A3E0FAA3E0FB120EBAE4FBFA95
:10034600796078C3120DC97B937A18790478C01244
:100356000FC3E4FBFA79877843120DC99001EF12B7
:1003660016C5E4FFFEFDFC9001EFE0F8A3E0F9A35B
:10037600E0FAA3E0FB121060401D7F007EC07D798D
:100386007C449001EFE0F8A3E0F9A3E0FAA3E0FBD8
:10039600121060600C400A9001EF1216D1000000A6
:1003A600009001EFE0FCA3E0FDA3E0FEA3E0FF90D8
:1003B600001B1216C5E4FFFE7D7A7C449000D3E054
:1003C600F8A3E0F9A3E0FAA3E0FB120EBAE4FBFA05
:1003D600796078C3120DC97B937A18790478C012B4
:1003E6000FC3E4FBFA79877843120DC99001EF1227
:1003F60016C5E4FFFEFDFC9001EFE0F8A3E0F9A3CB
:10040600E0FAA3E0FB121060401D7F007EC07D79FC
:100416007C449001EFE0F8A3E0F9A3E0FAA3E0FB47
:10042600121060600C400A9001EF1216D100000015
:10043600009001EFE0FCA3E0FDA3E0FEA3E0FF9047
:1004460000331216C5E4FFFE7D7A7C449000D7E0A7
:10045600F8A3E0F9A3E0FAA3E0FB120EBAE4FBFA74
:10046600795578C3120DC97B687A91790578C012DF
:100476000FC3E4FBFA79877843120DC99001EF1296
:1004860016C5E4FFFEFDFC9001EFE0F8A3E0F9A33A
:10049600E0FAA3E0FB121060401D7F007EC07D796C
:1004A6007C449001EFE0F8A3E0F9A3E0FAA3E0FBB7
:1004B600121060600C400A9001EF1216D100000085
:1004C600009001EFE0FCA3E0FDA3E0FEA3E0FF90B7
:1004D60000371216C5E4FFFE7D7A7C449000DBE00F
:1004E600F8A3E0F9A3E0FAA3E0FB120EBAE4FBFAE4
:1004F600796578C3120DC97BB67AF379FD78BF1298
:100506000FC3E4FBFA79877843120DC99001EF1205
:1005160016C5E4FFFEFDFC9001EFE0F8A3E0F9A3A9
:10052600E0FAA3E0FB121060401D7F007EC07D79DB
:100536007C449001EFE0F8A3E0F9A3E0FAA3E0FB26
:10054600121060600C400A9001EF1216D1000000F4
:10055600009001EFE0FCA3E0FDA3E0FEA3E0FF9026
:10056600003B1216C5E4FFFE7D7A7C449000DFE076
:10057600F8A3E0F9A3E0FAA3E0FB120EBAE4FBFA53
:10058600797378C3120DC97B877A1679F978BF1209
:100596000FC3E4FBFA79877843120DC99001EF1275
:1005A60016C5E4FFFEFDFC9001EFE0F8A3E0F9A319
:1005B600E0FAA3E0FB121060401D7F007EC07D794B
:1005C6007C449001EFE0F8A3E0F9A3E0FAA3E0FB96
:1005D600121060600C400A9001EF1216D100000064
:1005E600009001EFE0FCA3E0FDA3E0FEA3E0FF9096
:1005F600003F1216C5E4FFFE7D7A7C449000E3E0DE
:10060600F8A3E0F9A3E0FAA3E0FB120EBAE4FBFAC2
:10061600796478C3120DC97BE97A26790178C0120C
:100626000FC3E4FBFA79877843120DC99001EF12E4
:1006360016C5E4FFFEFDFC9001EFE0F8A3E0F9A388
:10064600E0FAA3E0FB121060401D7F007EC07D79BA
:100656007C449001EFE0F8A3E0F9A3E0FAA3E0FB05
:10066600121060600C400A9001EF1216D1000000D3
:10067600009001EFE0FCA3E0FDA3E0FEA3E0FF9005
:1006860000431216C5E4FFFE7D7A7C449000E7E045
:10069600F8A3E0F9A3E0FAA3E0FB120EBAE4FBFA32
:1006A600796678C3120DC97BEE7A7C79FF78BF1222
:1006B6000FC3E4FBFA79877843120DC99001EF1254
:1006C60016C5E4FFFEFDFC9001EFE0F8A3E0F9A3F8
:1006D600E0FAA3E0FB121060401D7F007EC07D792A
:1006E6007C449001EFE0F8A3E0F9A3E0FAA3E0FB75
:1006F600121060600C400A9001EF1216D100000043
:10070600009001EFE0FCA3E0FDA3E0FEA3E0FF9074
:1007160000471216C5E4FFFE7D7A7C449000EBE0AC
:10072600F8A3E0F9A3E0FAA3E0FB120EBAE4FBFAA1
:10073600796678C3120DC97B687A9179FD78BF1204
:100746000FC3E4FBFA79877843120DC99001EF12C3
:1007560016C5E4FFFEFDFC9001EFE0F8A3E0F9A367
:10076600E0FAA3E0FB121060401D7F007EC07D7999
:100776007C449001EFE0F8A3E0F9A3E0FAA3E0FBE4
:10078600121060600C400A9001EF1216D1000000B2
:10079600009001EFE0FCA3E0FDA3E0FEA3E0FF90E4
:1007A600004B1216C5E4FFFEFDFC9000EFE0F8A337
:1007B600E0F9A3E0FAA3E0FB121060700302095E01
:1007C6009000EFE0F8A3E0F9A3E0FAA3E0FBE4FF72
:1007D600FE7D807C3F120FC39001EB1216C57FD8B9
:1007E6007E817DF37C3D9001EBE0F8A3E0F9A3E088
:1007F600FAA3E0FB120EBA9001EBE0F8A3E0F9A32E
:10080600E0FAA3E0FB120EBA9001EBE0F8A3E0F9E0
:10081600A3E0FAA3E0FB120EBA9001EBE0F8A3E026
:10082600F9A3E0FAA3E0FB120EBAECC0E0EDC0E0DB
:10083600EEC0E0EFC0E07F637EEE7DF27C3F90018C
:10084600EBE0F8A3E0F9A3E0FAA3E0FB120EBA90FE
:1008560001EBE0F8A3E0F9A3E0FAA3E0FB120EBA7D
:100866009001EBE0F8A3E0F9A3E0FAA3E0FB120E97
:10087600BAC8ECC8C9EDC9CAEECACBEFCBD0E0FF07
:10088600D0E0FED0E0FDD0E0FC120DC5ECC0E0EDFE
:10089600C0E0EEC0E0EFC0E07F7F7E6A7D467C412F
:1008A6009001EBE0F8A3E0F9A3E0FAA3E0FB120E57
:1008B600BA9001EBE0F8A3E0F9A3E0FAA3E0FB129B
:1008C6000EBAD0E0FBD0E0FAD0E0F9D0E0F8120D95
:1008D600C9ECC0E0EDC0E0EEC0E0EFC0E07F3F7ED7
:1008E600B57D0D7C429001EBE0F8A3E0F9A3E0FAB8
:1008F600A3E0FB120EBAC8ECC8C9EDC9CAEECACB52
:10090600EFCBD0E0FFD0E0FED0E0FDD0E0FC120D52
:10091600C5E4FBFA79227842120DC99001EF12164E
:10092600C5E4FFFEFDFC9001EFE0F8A3E0F9A3E0CB
:10093600FAA3E0FB121060401F7F007EC07D797C29
:10094600449001EFE0F8A3E0F9A3E0FAA3E0FB127C
:100956001060600E400C80009001EF1216D100006E
:1009660000009001EFE0FCA3E0FDA3E0FEA3E0FFA2
:1009760090004F1216C5E4FFFEFDFC9000F3E0F870
:10098600A3E0F9A3E0FAA3E0FB1210607003020BE8
:100996002F9000F3E0F8A3E0F9A3E0FAA3E0FBE46C
:1009A600FFFE7D807C3F120FC39001EB1216C57FC0
:1009B600CE7EAA7D0F7C3E9001EBE0F8A3E0F9A382
:1009C600E0FAA3E0FB120EBA9001EBE0F8A3E0F91F
:1009D600A3E0FAA3E0FB120EBA9001EBE0F8A3E065
:1009E600F9A3E0FAA3E0FB120EBA9001EBE0F8A33C
:1009F600E0F9A3E0FAA3E0FB120EBAECC0E0EDC00A
:100A0600E0EEC0E0EFC0E07F7C7EF27D147C40909B
:100A160001EBE0F8A3E0F9A3E0FAA3E0FB120EBABB
:100A26009001EBE0F8A3E0F9A3E0FAA3E0FB120ED5
:100A3600BA9001EBE0F8A3E0F9A3E0FAA3E0FB1219
:100A46000EBAC8ECC8C9EDC9CAEECACBEFCBD0E026
:100A5600FFD0E0FED0E0FDD0E0FC120DC5ECC0E01A
:100A6600EDC0E0EEC0E0EFC0E07F5E7EBA7D7B7C4D
:100A7600419001EBE0F8A3E0F9A3E0FAA3E0FB1252
:100A86000EBA9001EBE0F8A3E0F9A3E0FAA3E0FBCD
:100A9600120EBAD0E0FBD0E0FAD0E0F9D0E0F812BE
:100AA6000DC9ECC0E0EDC0E0EEC0E0EFC0E07F5461
:100AB6007EE37D3A7C429001EBE0F8A3E0F9A3E007
:100AC600FAA3E0FB120EBAC8ECC8C9EDC9CAEECA51
:100AD600CBEFCBD0E0FFD0E0FED0E0FDD0E0FC12C3
:100AE6000DC5E4FBFA795A7842120DC99001EF124E
:100AF60016C5E4FFFEFDFC9001EFE0F8A3E0F9A3C4
:100B0600E0FAA3E0FB121060401F7F007EC07D79F3
:100B16007C449001EFE0F8A3E0F9A3E0FAA3E0FB40
:100B2600121060600E400C80009001EF1216D1008A
:100B36000000009001EFE0FCA3E0FDA3E0FEA3E0CF
:100B4600FF9000531216C5E4FFFEFDFC9000F7E08F
:100B5600F8A3E0F9A3E0FAA3E0FB12106070030229
:100B66000D019000F7E0F8A3E0F9A3E0FAA3E0FB9B
:100B7600E4FFFE7D807C3F120FC39001EB1216C589
:100B86007F127E147D7F7C3E9001EBE0F8A3E0F9B6
:100B9600A3E0FAA3E0FB120EBA9001EBE0F8A3E0A3
:100BA600F9A3E0FAA3E0FB120EBA9001EBE0F8A37A
:100BB600E0F9A3E0FAA3E0FB120EBA9001EBE0F82D
:100BC600A3E0F9A3E0FAA3E0FB120EBAECC0E0ED55
:100BD600C0E0EEC0E0EFC0E07F017EDE7D8A7C40B3
:100BE6009001EBE0F8A3E0F9A3E0FAA3E0FB120E14
:100BF600BA9001EBE0F8A3E0F9A3E0FAA3E0FB1258
:100C06000EBA9001EBE0F8A3E0F9A3E0FAA3E0FB4B
:100C1600120EBAC8ECC8C9EDC9CAEECACBEFCBD022
:100C2600E0FFD0E0FED0E0FDD0E0FC120DC5ECC048
:100C3600E0EDC0E0EEC0E0EFC0E07F087EAC7DE90D
:100C46007C419001EBE0F8A3E0F9A3E0FAA3E0FB16
:100C5600120EBA9001EBE0F8A3E0F9A3E0FAA3E0E4
:100C6600FB120EBAD0E0FBD0E0FAD0E0F9D0E0F803
:100C7600120DC9ECC0E0EDC0E0EEC0E0EFC0E07FD1
:100C8600377E097DAA7C429001EBE0F8A3E0F9A348
:100C9600E0FAA3E0FB120EBAC8ECC8C9EDC9CAEE69
:100CA600CACBEFCBD0E0FFD0E0FED0E0FDD0E0FC39
:100CB600120DC57BCD7ACC79BA7842120DC9900156
:100CC600EF1216C5E4FFFEFDFC9001EFE0F8A3E08D
:100CD600F9A3E0FAA3E0FB121060401F7F007EC07C
:100CE6007D797C449001EFE0F8A3E0F9A3E0FAA354
:100CF600E0FB121060600E400C80009001EF1216AF
:100D0600D1000000009001EFE0FCA3E0FDA3E0FEAF
:100D1600A3E0FF9000571216C5E4FFFE7DC07C409D
:100D26009000FBE0F8A3E0F9A3E0FAA3E0FB120EC3
:100D3600BA9001EB1216C57B717A3D79EA7840903C
:100D460001EBE0FCA3E0FDA3E0FEA3E0FF120FC36E
:100D5600C8ECC8C9EDC9CAEECACBEFCBE4FFFE7D2D
:100D6600807C3F120DC5E4FBFA79C87842120EBAB0
:100D76009001EB1216C5E4FFFEFDFC9001EBE0F8D6
:100D8600A3E0F9A3E0FAA3E0FB121060500A900179
:100D9600EB1216D1000000009001EBE0FCA3E0FD91
:100DA600A3E0FEA3E0FF90002B1216C512514512D8
:0B0DB600322B900009E0B47B0280FEAD
:010DC100220F
:1061CA0020202020557067726164696E6700202064
:0E61DA0020204669726D776172652E2E2E00B0
:105CED00017A000108FF420125FFFF440127000052
:025CFD000000A5
:10406800E4787AF675FFDE75FFAD75840F75A4F5F3
:1040780075A5BFF5A675A7FF75E104F5E275E344DC
:10408800F58475B7B075840F438901758D01758FF7
:1040980001758E04F539F53A053AE53A70020539A5
:1040A800640F453970F2438902E58930E4FB758A6B
:1040B8008375970275FFDE75FFADE4F58475EF042F
:1040C800125D82E4F539F53A7D01AF3A12615D057A
:1040D8003AE53A70020539C39403E539940040E89B
:1040E800E4F520C21FC21BC222C21DD21EC221C2B9
:1040F80020787AF6C2857874F67872F618F67878A9
:10410800F6F539F53A742B253AF582E43401F5834E
:10411800E4F0053AE53A700205396440453970E53E
:10412800E4F539F53A746B253AF582E43401F58300
:10413800E4F0053AE53A700205396440453970E51E
:1041480012009F7D08E4FF125E777D087F01125EF2
:10415800771259BCE47877F6786FF6786FE6FF75D2
:10416800F01FA42434F582E5F0341AF583E493FEB5
:10417800787726F6EE6005786F0680DFEFD3940037
:10418800402A901A41E493FB740193FA740293F95C
:1041980074551214E212149C64556002D22074AA59
:1041A8001214E212149C64AA6002D220125207EF81
:1041B80060030242A7C21E74FFF509F50AF50BF564
:1041C8000CE4F50DF50EFE7F10FDFB7A00790F1259
:1041D800185D7546FF7547197548FB754900754A9E
:1041E800107B007A00790F125DD4E4F539F53A9026
:1041F8001A3475F01FE53A121702E53975F01FA455
:104208002583F583E49370030242A0901A3875F071
:104218001FE53A121702E53975F01FA42583F583C7
:10422800E49320E268E4F538E538C3789196505D68
:10423800901A3475F01FE53A121702E53975F01F28
:10424800A42583F583E493FF7E00C006C0077D00A4
:10425800901A4175F01FE53A121702E53975F01FFB
:10426800A42583F583E493FB740193FA740293F90C
:104278007877E68538F0A4FFE92FF9EA35F0FAD027
:1042880007D00612185D12009F0538809B053AE595
:104298003A700205390241F77F01124A788016D236
:1042A8001EE4FF124A78E5EF30E30AD203050EE573
:1042B8000E7002050DE4F539F53A7A007B967D0318
:1042C800AF3A120026053AE53A70020539C394035D
:0642D800E539940040E40A
:0142DE0022BD
:05625E007878E6FF2244
:0300230002503E4A
:10503E00C0E0C0F0C083C082C0D075D000C000C038
:10504E0001C002C003C004C005C006C007309932BB
:10505E00C2997872067972E778746670097872F67A
:06506E00D21CC285801C6B
:0D50740075261475271300D527FCD526F6E8
:105081007872E6246BF582E43401F583E0F599202A
:10509100980302512A209A08201F05C2980251261E
:1050A100C29A7871E606242BF582E43401F583E592
:1050B10099F0C298E6FFB4011290012BE0FE700353
:1050C100F68066EE540724027879F6EFB4020D7883
:1050D10079E6B4090790012CE02403F67871E6FF24
:1050E100B4400476008042EFC3787996403B7871F2
:1050F100E624FFFDE434FFFC7B017A01792B125792
:10510100117871E6242AF582E43401F583E06F60B9
:0551110004760080148B
:0D51160075261475271300D527FCD526F645
:10512300122B5678717600D007D006D005D004D064
:1051330003D002D001D000D0D0D082D083D0F0D021
:02514300E03258
:10593B007878E6FF18E68FF0A47C00252AFFEC357B
:10594B00F0FE90012CE075F01FA42441F582E5F0E8
:10595B00341AF583E493FB740193FA740293F98F71
:0D596B00828E831214B5FF7B007A0079282C
:105978008F328B338A348935E4F584EA494B601CCD
:10598800AB33AA34A93512149CFFE532FD7C001212
:0C5998000003AB33AA34A935EF1214E26F
:0D59A40075361475371300D537FCD536F66F
:0B59B1008532993099FDC29902009FD9
:0B61AB00E4F5847874EFF6C21CD28586
:0D61B60075321475331300D533FCD532F665
:0761C30090016BE0F5992249
:105FB700C9EFC9E964017028EDC39B40347891E6C5
:105FC700FFEB2FFFE433FEEDC39FEE6480F8748090
:105FD70098501ED21FC3ED9B7878F678737601220E
:105FE700B90214ED6B700AD21F7878F678737602CF
:085FF70022C21FE47873F622B8
:105B6400C9EFC9BAFF15BBFF12ED6B7002EC6A7086
:105B740049D21F7878F67873E9F622E96401702532
:105B8400C3ED9BEC9A401C7891E62BFFE43AFEC3EC
:105B9400ED9FEC9E500DD21FC3ED9B7878F6787381
:105BA4007601228015B90218ED6B7002EC6A700A56
:105BB400D21F7878F67873760222C21FE47873F6DF
:015BC40022BE
:102B560090012BE0FF54F8F529E4F584EF12174EA7
:102B66002BA0092BAC0A2BBC102BC5112BD5122B75
:102B7600E9192BFE1A2C20202C25282CAC292D5D9A
:102B8600332D8F372DBB392DCB412DD6492DE05016
:102B96002E28612E209800002E5890012CE0FDE58D
:102BA6000AFB7F01802390012CE0FCA3E0FDAB0A29
:102BB600AA097F018027D21F78737603022E5890C8
:102BC600012CE0FDE50CFB7F02125FB7022E589048
:102BD600012CE0FCA3E0FDAB0CAA0B7F02125B64A8
:102BE600022E5890012CE0FDE50AFB7F01125FB72B
:102BF600201F03022E58801790012CE0FCA3E0FD55
:102C0600AB0AAA097F01125B64201F03022E5890AB
:102C1600016B7478F07F01022E55D21D022E58C228
:102C2600ACE4F528D285FB7A0079287F7F125978A3
:102C36007B007A0079287F181259787B007A007910
:102C4600287F03125978786FE61259717B007A0053
:102C56007928AF091259787B007A007928AF0A12D1
:102C660059787B007A007928AF0B1259787B007A65
:102C7600007928AF0C1259787B007A007928AF0DBD
:102C86001259787B007A007928AF0E125978E4F54C
:102C96002A740F252AF8E6125971052AE52AC394E3
:102CA6001040EE022D4B90012CE0FFC3786F96404A
:102CB60003022E5875F01FEFA42434F582E5F03494
:102CC6001AAF82F5308F31C2ACE4F528D285FB7A93
:102CD6000079287F7F1259787B007A0079287F0D4A
:102CE600125978853182853083E493125971853182
:102CF60082853083740193125971853182853083C0
:102D0600740293125971853182853083740393124C
:102D16005971853182853083740493125971E4F5B3
:102D26002AE5312405F582E43530F583E582252A46
:102D3600F582E43583F583E493125971052AE52A71
:102D4600C3940840DC7B007A007900AF28125978DA
:102D5600C285D2AC022E5890012CE0FFB4010BA321
:102D6600E0F509A3E0F50A022E20EFB4020990016E
:102D76002DE0F509022E2090012CE0B40308A3E013
:102D8600F50BA3E0F50C022E20E4F52A90012CE0C9
:102D9600FFE52AC39F501C742D252AF582E43401D1
:102DA600F583E0FF740F252AF8C6EFC6052AE52A43
:102DB600B410D980657A007B327D017878E6FF12FF
:102DC6000026022E5890012CE024FF9202022E5873
:102DD60090012CE024FF920180787878E6600575F2
:102DE6002C02800B202105752C038003752C019085
:102DF600016B7479F0A3E52CF07C007D027B017AEF
:102E060001796B12571190016DEFF07F031261ABE0
:102E1600E52C6401703CD2228002D21B787A76F1CE
:102E260080307A007B327D017F0012002690016B94
:102E36007479F090012CE090016CF07C007D027BAF
:102E4600017A01796B12571190016DEFF07F031231
:102E560061ABE52964A0600302300A90012BE064AF
:102E6600A16003022F32A3E0FFC3786F96400302EE
:102E7600300A75F01FEFA42434F582E5F0341AF514
:102E860083E493F52C75F01FEFA42438F582E5F062
:102E9600341AF583E49330E2361262598F2C90018E
:102EA6006B747FF0A3E52CF02402FDE433FC7B0178
:102EB6007A01796B125711746D252CF582E4340171
:102EC600F583EFF0E52C2403FF1261AB02300A9084
:102ED600012CE0FF126259C2ACE4F528D285E52C3C
:102EE600D39406402C7B007A0079287F7F1259788C
:102EF6007B007A007928AF2C125978E4F52AE52A66
:102F0600C3952C500712593B052A80F2052C022F37
:102F1600FBE52C2478125971E4F52AE52AC3952C91
:102F2600500712593B052A80F2022FFB90012BE035
:102F360064A2600302300A786FE6FFA3E0FEC39F37
:102F4600400302300AA3E0FDC39F400302300AEEAD
:102F5600C39D400302300A90012CE0F52AE4F52CCB
:102F660090012DE0FFE52AD39F501FAF2A12625928
:102F760075F01FE52AA42434F582E5F0341AF583AA
:102F8600E493252CF52C052A80D6C2ACE4F528D28C
:102F960085FB7A0079287F7F1259787B007A007941
:102FA60028AF2C12597890012CE0F52A90012DE0DB
:102FB600FFE52AD39F503EE4F52B75F01FE52AA4C2
:102FC6002434F582E5F0341AF583E493FFE52BC348
:102FD6009F501E7878E6FF18E68FF0A47C00252B1C
:102FE600FFEC35F0FE75F01FE52A125954052B80CB
:102FF600C9052A80B77B007A007900AF2812597874
:10300600C285D2ACE5296458704DFA7B327D0178D1
:1030160078E6FF12002675350175360175376C7B2B
:10302600017A01792C1260B08F2CE52C247890015E
:103036006BF0EF2401FDE433FC7B017A01796B121E
:103046005711746C252CF582E43401F583EFF0E515
:103056002C2402FF1261ABE52964806009E529642E
:1030660088600302322A7873E6B4010F7A007B3255
:103076007D017878E6FF120026801AE4F52AE52A13
:10308600C3789196500F7A007B327D01AF2A1200E9
:1030960026052A80E990012BE05407F52CB4070A8F
:1030A600752B01A3E0F52CA38006E4F52B90012CEB
:1030B600E0F52D152CE52DC3786F9640030231FE01
:1030C60075F01FE52DA42434F582E5F0341AF58356
:1030D600E493FFE52CD39F40028F2C7873E6B4016E
:1030E600097878E6F52FF52E8009E4F52E7891E635
:1030F60014F52F7878A62E7878E6D3952F4003021C
:1031060031DAE4F52AE52AC3952C40030231CF755E
:10311600F01FE52DA42438F582E5F0341AF583E492
:103126009330E2030231CA75F01FE52DA42435F56C
:1031360082E5F0341AF583E49364387029E52CD3DC
:103146009404400DE52B252A242DF582E4340180D4
:10315600387871E6C3952AFFE49400FE74292FF5AA
:103166008274013E802375F01FE52DA42434F58278
:10317600E5F0341AF583E493FFC37871E69F252AB8
:10318600252B242AF582E43401F583E0FD7878E6E0
:10319600FF18E68FF0A4FFE52A7A002FFFEA35F044
:1031A600FE75F01FE52DA42441F582E5F0341AF5ED
:1031B60083E493FB740193FA740293F98F828E83EE
:1031C600ED1214F4052A02310BAF2D12470D787853
:1031D600060230FD7878A62E75F01FE52DA424385A
:1031E600F582E5F0341AF583E49330E503852D087E
:1031F600E5296488702E8010E52DB4FF2790012DF7
:10320600E0F520E529B4881C90016B7478F078719C
:10321600E6242AF582E43401F583E090016CF07F20
:04322600021261AB84
:01322A002281
:105B020075F01FA42450F582E5F0341AF583E4936E
:055B1200FE740193FF89
:105B17008E3D8F3E900125E0653D7004A3E0653E14
:105B2700603A90011B740AF0E53DA3F0E53EA3F04F
:105B37007C007D037B017A01791B12571190011EAE
:105B4700EFF07B017A01791B7544017D047C00121B
:0D5B57005829900125E53DF0A3E53EF02220
:035E2600CCEECCF3
:105E290090011B741AF0A3ECF0EFA3F07C007D0342
:105E39007B017A01791B12571190011EEFF07B014A
:105E49007A01791B7544017D047C001258297B0174
:105E59007A01791B7D0A7C0012567CEF7002FF22C1
:0D5E690090011BE0647860037F00227F0140
:015E76002209
:1060DD007A007B327D017F0112002674FF9001252D
:1060ED00F0A3F07F0A90011BE4F0A3DFFC7B017AA3
:0D60FD0001791B7544017D0A7C00025829C1
:104CF800E4F538E538C3786F964003024E1275F034
:104D08001FE538A42438F582E5F0341AF583E493D6
:104D180020E403024E0DE538125B0290011B74A1DA
:104D2800F075F01FE538A42452F582E5F0341AF541
:104D380083E49390011CF07C007D027B017A017969
:104D48001B12571190011DEFF07B017A01791BE4CA
:104D5800F5447D03FC1258297B017A01791B7D6497
:104D68007C0012567C8F39E539C394025002804B7F
:104D7800E5392476FF90011BE06F6002803D75F0F5
:104D88001FE538A42434F582E5F0341AF583E4935A
:104D9800FFE53924FE6F60028021E53924FFFDE438
:104DA80034FFFC7B017A01791B125711741A2539DB
:104DB800F582E43401F583E06F6007AF381260DDF7
:104DC8008043C2AF75F01FE538A42434F582E5F0BE
:104DD800341AF583E493FF7E0075F01FE538A424A8
:104DE80041F582E5F0341AF583E493FB740193FAF4
:104DF800740293F8CCEACCCDEBCD7B017A01791C17
:0A4E0800121476D2AF0538024CFBFD
:014E1200227D
:0254AE008F3B32
:1054B000EF125B0275F01FE53BA42434F582E5F0A2
:1054C000341AF583E493F53C248190011BF075F0C8
:1054D0001FE53BA42452F582E5F0341AF583E493EA
:1054E00090011CF0AF3C7E0075F01FE53BA4244109
:1054F000F582E5F0341AF583E493FB740193FA74B2
:105500000293F9781D7C017D01121476E53C24029A
:10551000FDE433FC7B017A01791B125711741D25C0
:105520003CF582E43401F583EFF07B017A01791BCD
:10553000E53C2403FDE433FCE4F5441258297A00E9
:095540007B327D017F010200268F
:105FFF00126239C8ECC8C9EDC9CAEECACBEFCB9053
:10600F000127E0FCA3E0FDA3E0FEA3E0240AFFE4E8
:10601F003EFEE43DFDE43CFCD31215CF400C124C88
:10602F00F81262399001271216C5E508F46008AF1F
:08603F00081254AE7508FF229F
:10F00000787AE664F1600302F506301CFDC2AF7544
:10F01000FFDE75FFADE4F54AF549E4F5842098304C
:10F02000E4F54EF54F209822C3E54F9488E54E94C1
:03F0300013501763
:0DF0330075540A75551300D555FCD554F6DB
:10F04000054FE54F70DF054E80DBB2A0B29480CD56
:10F05000859949C298B294E549641A600302F11790
:10F06000F54EF54F209822C3E54F9488E54E941352
:02F07000501737
:0DF0720075540A75551300D555FCD554F69C
:10F07F00054FE54F70DF054E80DB30988E85994A3E
:10F08F00C298E4F54EF54F209822C3E54F9488E5DA
:05F09F004E9413501710
:0DF0A40075540A75551300D555FCD554F66A
:10F0B100054FE54F70DF054E80DB20980302F01A03
:10F0C10085994AC298E4F54EF54F209822C3E54F41
:08F0D1009488E54E94135017DA
:0DF0D90075540A75551300D555FCD554F635
:10F0E600054FE54F70DF054E80DB20980302F01ACE
:09F0F60085994AC298D285C2999D
:0DF0FF0075541475551300D555FCD554F605
:10F10C007599783099FDC28502F4F8E5496401706F
:05F11C0031D285C2990B
:0DF1210075541475551300D555FCD554F6E2
:08F12E007599783099FDC29932
:0DF1360075541475551300D555FCD554F6CD
:10F14300E4F5993099FDC28502F4F8E5496402605B
:10F153000302F203F54EF54F209822C3E54F94883E
:06F16300E54E9413501765
:0DF1690075540A75551300D555FCD554F6A4
:10F17600054FE54F70DF054E80DB20980302F01A3D
:10F1860085994AC298E4F54BE54A13B392A0E54A3D
:10F1960025E0FEC3E49400EE94F0502AE54A7F0091
:10F1A60025E0FEC394E0501EE54A20E01FE4F58406
:10F1B60043B701758F038E508F518F828E83F05324
:10F1C600B7F0F58F8003754BFFE4F584D285C299BD
:0DF1D60075541475551300D555FCD554F62D
:08F1E3007599783099FDC2997D
:0DF1EB0075541475551300D555FCD554F618
:10F1F800854B993099FDC28502F4F8E549640360AE
:10F208000302F341F54EF54F209822C3E54F948849
:06F21800E54E94135017AF
:0DF21E0075540A75551300D555FCD554F6EE
:10F22B00054FE54F70DF054E80DB20980302F01A87
:10F23B0085994AC298E4F54EF54F209822C3E54FC5
:08F24B009488E54E941350175E
:0DF2530075540A75551300D555FCD554F6B9
:10F26000054FE54F70DF054E80DB20980302F01A52
:10F2700085994CC298E54A1392A0E54A25E0FEC361
:10F28000E49400EE94F0400302F01AE54A7D002574
:10F29000E0FCC394E0400302F01AE4F58443B701B4
:10F2A000758F01E54C75F020A42DFFE5F03CF5507D
:10F2B0008F51E4F584F54DE54DC394205048E4F5B5
:10F2C0004EF54F209822C3E54F9488E54E94135095
:01F2D0001726
:0DF2D10075540A75551300D555FCD554F63B
:10F2DE00054FE54F70DF054E80DB20980302F01AD4
:10F2EE000551E551AE507002055014F5828E83E53E
:10F2FE0099F0C298054D80B1E4F58453B7F0F58FBF
:06F30E00F584D285C299CE
:0DF3140075541475551300D555FCD554F6ED
:08F321007599783099FDC2993D
:0DF3290075541475551300D555FCD554F6D8
:10F33600E4F5993099FDC28502F4F8E54964046064
:10F346000302F3E4F54EF54F209822C3E54F948867
:06F35600E54E9413501770
:0DF35C0075540A75551300D555FCD554F6AF
:10F36900054FE54F70DF054E80DB20980302F01A48
:10F3790085994AC298E54A25E0F552755300E4F5A6
:10F389004BF54EF54F0553E553AE52700205521435
:10F39900F5828E83E493254BF54B054FE54F7002BB
:0EF3A900054E7004E54E640270DBD285C299F9
:0DF3B70075541475551300D555FCD554F64A
:08F3C4007599783099FDC2999A
:0DF3CC0075541475551300D555FCD554F635
:10F3D900854B993099FDC28502F4F8E549640560C9
:10F3E9000302F4EDF54EF54F209822C3E54F9488BA
:06F3F900E54E94135017CD
:0DF3FF0075540A75551300D555FCD554F60C
:10F40C00054FE54F70DF054E80DB20980302F01AA4
:10F41C0085994AC298E4F54EF54F209822C3E54FE2
:08F42C009488E54E941350177B
:0DF4340075540A75551300D555FCD554F6D6
:10F44100054FE54F70DF054E80DB20980302F01A6F
:09F4510085994CC298D285C2993C
:0DF45A0075541475551300D555FCD554F6A6
:08F4670075997F3099FDC299EF
:0DF46F0075541475551300D555FCD554F691
:10F47C007599203099FDE54A25E0FCE54C75F020A6
:10F48C00A42400FFE5F03CF5528F53E4F54BF54D09
:02F49C00C29913
:0DF49E0075541475551300D555FCD554F662
:10F4AB00855382855283E493F5993099FD0553E595
:10F4BB0053AE527002055214F5828E83E493254BA2
:0BF4CB00F54B054DE54DB420C8C2997B
:0DF4D60075541475551300D555FCD554F62A
:10F4E300854B993099FDC285800BE549B40606E446
:10F4F300F58475EF10E5496407600302F01A787A22
:03F50300F6D2AF8E
:01F5060022E2
:1058B40012009F201E0B7A007B327D017F001200B4
:1058C4002630200B7A007B1E7D017F0012002630DB
:1058D4001B1C3021197A007B327D017878E6FF1297
:1058E4000026C21BE4F50DF50E125367D21E3022BA
:1058F4002A302127C222126246E4FDFF1262047B91
:10590400FF7A6179CA12610A7D01E4FF1262047BA5
:10591400FF7A6179D812610A12F000126239E47BCD
:105924002C7A01F9F8C31215CF5002D221301D068A
:07593400E4F58475EF102279
:0E622B001240681258B4125FFF1200A680F5F0
:104F2A00005EBCE2613FDD83C29C7E20A3FD1F417F
:104F3A009DC3217FFCA2401E5F01E3BD3E6082DC6F
:104F4A00237D9FC1421CFEA0E1BF5D0380DE3C625F
:104F5A00BEE0025CDF81633D7C22C09E1D43A1FF4F
:104F6A004618FAA427799BC584DA3866E5BB59073F
:104F7A00DB856739BAE406581947A5FB7826C49A2F
:104F8A00653BD987045AB8E6A7F91B45C6987A241F
:104F9A00F8A6441A99C7257B3A6486D85B05E7B90F
:104FAA008CD2306EEDB3510F4E10F2AC2F7193CDFF
:104FBA00114FADF3702ECC92D38D6F31B2EC0E50EF
:104FCA00AFF1134DCE90722C6D33D18F0C52B0EEDF
:104FDA00326C8ED0530DEFB1F0AE4C1291CF2D73CF
:104FEA00CA947628ABF517490856B4EA6937D58BBF
:104FFA005709EBB536688AD495CB2977F4AA4816AF
:10500A00E9B7550B88D6346A2B7597C94A14F6A89E
:10501A00742AC896154BA9F7B6E80A54D7896B358E
:10502A00000000002B6096CBDDEE002C96CBDDE570
:04503A00EEF7FAFD96
:025CFF00C1AC36
:10571100151F151FA81FECF608EDF6151F151F150F
:105721001FA81FC6EBC608C6EAC608C6E9C6E51F1C
:0457310024FCF51F40
:10573500F80808E4F6A81FF608F6E51F2407F9A8F7
:105745001FE6FE08E6FFC3099719E76480F8EE64D3
:1057550080985037E51F2404F8CBE6CB08E6FA0815
:10576500E6F98F828E831214B5A81F080866FFE537
:105775001F2403F8EFF6E6904F2A93A81F0808F6B2
:10578500A81F0806E61870B20680AFA81F0808E62D
:01579500FF14
:07579600E51F2409F51F22A5
:07000300ED6F904F2A93FFFF
:01000A0022D3
:0300A300025F19E0
:105F1900C0E0C083C082C0D0EEC0E0EFC0E0E59829
:105F290030E1055398FDD22CE59830E024E565244D
:105F390001FFE433FEEF64404E70028011AF650546
:105F49006574AB2FF582E43401F583E599F0539834
:105F5900FED0E0FFD0E0FED0D0D082D083D0E032B6
:0A5829008B3F8A4089418C428D4379
:10583300E4F565758401D284E54424FF929BE4F585
:1058430045C3E5459543E5426480F8748098505C10
:02585300C22C65
:0D58550075461475471300D547FCD546F67F
:10586200E54324FFFFE54234FFFEEF65457001EE9C
:10587200701EC2ACAB3F0541E541AA407002054033
:1058820014F912149CF599302CFDC284D2AC801606
:10589200AB3F0541E541AA407002054014F91214DC
:1058A2009CF599302CFD12009F05458095C284AF6E
:0158B20043B2
:0158B30022D2
:0A567C008B3A8A3B893C8C3D8D3E41
:105686001262398F438E428D418C40E4F53F12629F
:1056960039C3EF9543FFEE9542FEED9541FDEC953E
:1056A60040FCE47B01FAF9F8C31215CF50037F00E2
:1056B60022E565D39400404E9001ABE0FEB478033A
:1056C6007F0122EE54F8647860037F00229001ABDC
:1056D600E054072402F53F6565702BD3E565953EDA
:1056E600E53D6480F87480984006AE3DAF3E800488
:1056F600AF657E00A83CAC3BAD3A7B017A0179AB45
:0B570600121476AF3F2212009F808338
:06625300E4F565D22C22E7
:105E7700EF7025F5847598D0F584759115F58475BF
:105E8700C90875CBFFED90502993F5CA75C804E48E
:105E9700F584D2ACC2BC80267584017598D0E4F530
:105EA70084E589540F4420F589758E02ED905033AF
:105EB70093F58DD28E43E74043F740126253D2AF3A
:015EC70022B8
:105D8200D2AFD2A9D2BBE4F584E589540F4401F520
:105D920089758E02758CAFE4F58AD28CF569F56847
:105DA200F567F566FFEF25E025E0247BF8E4F6EFE2
:105DB20025E025E0247CF8E4F6EF25E025E0247DCB
:105DC200F8E4F6EF25E025E0247EF8E4F60FBF03C1
:015DD200D4FC
:015DD30022AD
:02541200151F64
:10541400A81FE4F6A81FE6FFC3940340030254AB9D
:10542400EF25E025E0247EF8E6FFD394004052A85F
:105434001FE625E025E0247CF8E67045EF30E01512
:10544400A81FE6FF25E025E0247EF8E6D39401407A
:10545400047D0180067D00A81FE6FF125C25A81FBD
:10546400E6FF25E025E0247EF816E66014EF25E04B
:1054740025E0247DF8E6FEEF25E025E0247CF8EE27
:10548400F6A81FE625E025E0247CF8E6600116A8CE
:105494001FE6FF25E025E0247EF8E67004FD125C9B
:0754A40025A81F06025418A1
:0354AB00051F22B8
:03000B00025BC5D0
:105BC500C0E0C0F0C083C082C0D0E8C0E0E9C0E05A
:105BD500EAC0E0EBC0E0ECC0E0EDC0E0EEC0E0EF15
:105BE500C0E0758CAFE5692401F569E43568F568B1
:105BF500E43567F567E43566F566125412D0E0FFC3
:105C0500D0E0FED0E0FDD0E0FCD0E0FBD0E0FAD063
:105C1500E0F9D0E0F8D0D0D082D083D0F0D0E03217
:10615D00151FA81FEDF6151FA81FEFF6A81FE6FFC8
:10616D00C39403500D08E6FEEF25E025E0247BF8EF
:07617D00EEF6051F051F22CD
:10002600151F151FA81FEAF608EBF6151FA81FEDEA
:10003600F6151FA81FEFF6A81FE6FFC3940350523C
:10004600EF25E025E0247EF8E67047A81FE6FB25AD
:10005600E025E0247CF8E67039A81F08E625E004D0
:10006600FFA81FE6FA25E025E0247EF8EFF6A81F94
:100076000808E6FE08E6FF7C007D0A121528EA2538
:10008600E025E0247DF8EFF6EB25E025E0247CF87A
:09009600E4F6E51F2404F51F2225
:105C2500151FA81FEDF6151FA81FEFF6A81FE6FF05
:105C3500C39403501CEF25E025E0247BF8E66011B2
:105C4500A81F08E670047F0180027F00A81F08EFE7
:105C5500F6A81FE6700608E624FF92A0A81FE6FF37
:105C6500B4010608E624FF9286EFB40208A81F08CF
:0A5C7500E624FF9287051F051F2299
:0C623900C2AFAF69AE68AD67AC66D2AF13
:016245002236
:03009F00B29422F6
:046134008E3D8F3ECF
:10613800E4F53FF540C3E540953EE53F953D5014F5
:106148007FE87E03125AAC1258B40540E54070E56A
:04615800053F80E19E
:01615C002220
:105A9A0054F0FFE5A054014FF5A0A21292A37F0192
:025AAA007E007C
:045AAC008E618F6216
:105AB000D3E56294FAE5619400500EEFD394004070
:105AC000407E1600DEFD1F80F2856163856264D32F
:105AD000E56494FAE563940040157FFA7E00125A5B
:105AE000AC74062564F56474FF3563F56380E0D318
:105AF000E5629400E56194004007AF64AE63125A1A
:015B0000ACF8
:015B01002281
:085D2D008B418A4289438D4439
:105D350012009FAB45AA46A94712155E2400FFE550
:105D4500F034E0FE85414885424985434AE4FDED4E
:105D5500C39544501BEF2DF582E43EF583E493ABE8
:105D650048AA49A94A8D827583001214F40D80DF73
:0D5D7500AB45AA46A947E48544F002158914
:0855E3008B4F8A5089518D5253
:1055EB00787AE664F1600302567BC2AFE4F584433C
:1055FB00B701758F01AB53AA54A95512155E240040
:10560B00FFE5F034E0788AF608EFF6AA50A9517856
:10561B008EA64F08C6EAC608C6E9C6E4788CF678AB
:10562B008CE6C395525032788ECBE6CB080806E653
:10563B0018CAE6CA70010614F912149C788DF6E6A6
:10564B00FF788A0806E618CCE6CC70010614F582C2
:10565B008C83EFF0788C0680C6E4F58F53B7F0ABF4
:10566B0053AA54A9558552F0121589D2AF12009F37
:01567B00220C
:105EC800787AE664F17049C2AFE4F58443B70175A6
:105ED8008F03788C76E008F6788AF608F6788CE6F0
:105EE800FE08E6F5828E83E4F012009F26F6187409
:105EF8000236F61806E618700106C3788BE6940891
:105F080018E66480948040D5E4F58F53B7F0D2AF9B
:015F18002266
:10536700125EC8E4F54DF54EF55375540075554D6D
:10537700FB7A0079097D161255E3E4F54AE54AC33D
:105387007891965067E4F54975F01FE549A42434F0
:10539700F582E5F0341AF583E493604C7877E68577
:1053A7004AF0A4FFAEF075F01FE549A42441F58249
:1053B700E5F0341AF583E493FB740193FA740293CE
:1053C7002FF9EA3EFA75F01FE549A42434F582E582
:1053D700F0341AF583E493FD755300755400755541
:1053E7004D1255E3054980A0054A8091754B12750A
:1053F7004C3475530075540075554D7B007A007910
:0A5407004B7D021255E3E4787AF6BB
:015411002278
:10520700E4F53FF540F54575460075473FFB7A00E5
:1052170079097D16125D2DE4F53CE53CC37891963E
:105227005067E4F53B75F01FE53BA42434F582E5B0
:10523700F0341AF583E493604C7877E6853CF0A464
:10524700FFAEF075F01FE53BA42441F582E5F0348D
:105257001AF583E493FB740193FA7402932FF9EA26
:105267003EFA75F01FE53BA42434F582E5F0341AC5
:10527700F583E493FD75450075460075473F125D5C
:105287002D053B80A0053C8091754500754600754E
:10529700473F7B007A00793D7D02125D2DE53E6434
:0F52A700347004E53D641270047F0180027F00C3
:0152B60022D5
:105F69008F60302B4843A0F075840F75A60FC2A32C
:105F7900D2A2125AA8D2A17F0A7E00125AAC20A737
:105F8900FDC2A1125AA8C2A275A6FF125AA8E560BD
:105F9900125A9AD2A1125AA8C2A1125AA8E560C4EB
:0E5FA900125A9AD2A1125AA8C2A1125AA822C4
:106080008F3D53A00FE53D54F042A0D2A1125AA873
:10609000C2A1125AA853A00FE53DC454F042A0D2A9
:1060A000A1125AA8C2A1125AA87F647E00025AAC5B
:1059BC00E4F53BF53C75840F75A6FF53A00143A09D
:1059CC0020D2A17F01FE125AACC2A17F017E00122F
:1059DC0061347F2012608043A0F075A60FC2A3D261
:1059EC00A2125AA8D2A17F647E00125AAC30A7032F
:1059FC00C22B22D22BC2127F24125F69C2127F09E2
:105A0C00125F69C2127F20125F69C2127F0C125F93
:0F5A1C0069C2127F01125F69C2127F06125F69B1
:015A2B002258
:0D624600C2127F01125F69E4FDFF026204D5
:10620400ED5403C43354E0FEEF541F44804EFFC2E8
:0462140012025F69AA
:106218008F5FC3E55F648094A04005D212125F6966
:03622800AF5F2243
:106184008B6A8A6B896CAB6AAA6BA96C12149C60CB
:1061940015056CE56C7002056B14F912149CFFD2A2
:0761A40012125F6980E02286
:10452B00202020202020202020200025622A6264C9
:10453B000025622A62750025622A640025622A75AD
:10454B000025622A2E33660025622A6C64002562E0
:10455B002A6C7500253262643A25730020202020D6
:10456B002020202000202020202020202020202060
:10457B0020202020202020200045534320454E544E
:10458B0045522020202D202020202B202000455379
:10459B004320454E544552202050524556204E45FF
:1045AB0058540045534320202020202020205052D7
:1045BB004556204E45585400506172616D657465C7
:1045CB007273207772697474656E00746F20666CF9
:1045DB00617368206D656D6F72792E00F470000049
:1045EB0000F76E000000FAE4000000FD6D00000013
:1045FB000000000000036B000000064D00000009E6
:10460B00470000000C540000000000000000016D8A
:10461B0000000002670000000373000000046D003F
:10462B00000005680000000641000000074B000079
:10463B000008DF43000009DF46000014487A000041
:10464B00155061000016626100001757000000183A
:10465B005600000019F40000001A540000001B6CF7
:10466B002F73001C52504D001D460000005A25258B
:10467B0000005B52504D005C636E74005D7800006F
:10468B0000000000000002350000004E6F64652042
:10469B0041647200000900000000000000003F8030
:1046AB0000000000000235000000477270204164DA
:1046BB00720000000B00000000000000003F8000B3
:1046CB00000000000032000004466C6173680000BB
:1046DB0000000000000000000000000000000000CF
:1046EB0000000000320000045265626F6F7400001E
:1046FB0000000000000000000000000000000000AF
:02470B000000AC
:105D0100C1A3C12AC129C124016D00016E0444024D
:105D1100370000000044022F00000000440233005D
:0B5D2100000000C125C126C127C128D9
:0642DF008B3B8A3C893D87
:1042E5009000011214B5B4381B853E46853F4785BD
:1042F5004048754900754A087B017A02793B125D91
:10430500D4024521E490023BF0AB3BAA3CA93D9089
:1043150000021214B5605CE4F541E54175F005A4B1
:1043250024E7F582E43445F583E493FF6015AB3B60
:10433500AA3CA93D9000021214B5FEEF6E6004057B
:104345004180D7E54175F005A424E7F582E43445BD
:10435500F583E493601DE54175F005A424E8F9743F
:104365004535F07546FFF54789487B017A02793B6B
:10437500125C7FAB3BAA3CA93D9000011214B560CD
:104385005CE4F541E54175F005A42419F582E434B2
:1043950046F583E493FF6015AB3BAA3CA93D90002D
:1043A500011214B5FEEF6E6004054180D7E5417535
:1043B500F005A42419F582E43446F583E493601DE1
:1043C500E54175F005A4241AF9744635F07546FFE4
:1043D500F54789487B017A02793B125C7F7B017A3C
:1043E50002793B12000E8F42AB3BAA3CA93D121449
:1043F5009C14601D14605E24FE70030244A3240413
:1044050060030245217BFF7A45792B12610A02453B
:1044150021AB3BAA3CA93D9000041214B5C330E181
:104425001A740A9542F546AB3EAA3FA94012149C60
:10443500F5477BFF7A45793602451E740A9542F5A4
:1044450046AB3EAA3FA94012149CF5477BFF7A452F
:10445500793C02451EAB3BAA3CA93D9000041214D1
:10446500B5C330E11D740A9542F546AB3EAA3FA996
:104475004012155EF54885F0477BFF7A4579420283
:10448500451E740A9542F546AB3EAA3FA940121552
:104495005EF54885F0477BFF7A457947807BAB3BE6
:1044A500AA3CA93D9000041214B530E020C3740A5B
:1044B5009542F546AB3EAA3FA9401215F38F4A8EA9
:1044C500498D488C477BFF7A45794C804CAB3BAA9C
:1044D5003CA93D9000041214B5C330E11F740A9540
:1044E50042F546AB3EAA3FA9401215F38F4A8E49C5
:1044F5008D488C477BFF7A457953801D740A954218
:10450500F546AB3EAA3FA9401215F38F4A8E498D59
:10451500488C477BFF7A457959123C5B7B017A02CF
:05452500793B12610A60
:01452A00226E
:08234900AB38AA39A93A7DFF67
:102351008D3E8B3B8A3C893D9000011214B5643857
:102361007003022B55AB3BAA3CA93D12149C24FEE1
:1023710070030225B624FE700302280F24036003B4
:10238100022B559000041214B520E103022470AB16
:102391003BAA3CA93D900018121689C000C001C09B
:1023A10002C003AC3EEC1210D7D003D002D001D052
:1023B10000120EBAC004C005C006C00790022BE08F
:1023C100FC1210D7D003D002D001D000120DC912D7
:1023D100110B90022BEFF0AB3BAA3CA93D900014EE
:1023E1001216139000101216891210607003022B3E
:1023F10055AB3BAA3CA93D900010121613C004C076
:1024010005C006C00790022BE0FC1210D7A804A952
:1024110005AA06AB07D007D006D005D0041210607C
:102421005014AB3BAA3CA93D900010121613121197
:102431000B90022BEFF0AB3BAA3CA93D900014128C
:102441001613C004C005C006C00790022BE0FC12A1
:1024510010D7A804A905AA06AB07D007D006D00556
:10246100D00412106060025003022B550225A1E531
:102471003EF4704CAB3BAA3CA93D900010121613E0
:10248100C004C005C006C00790022BE0FCE4121096
:10249100D7A804A905AA06AB07D007D006D005D056
:1024A10004121060701AAB3BAA3CA93D90001412B3
:1024B10016139000101216891210606003022B553A
:1024C100AB3BAA3CA93D900018121689C000C0017F
:1024D100C002C003AC3EEC1210D7D003D002D00131
:1024E100D000120EBAC004C005C006C00790022B6E
:1024F100E0FCE41210D7D003D002D001D000120DBD
:10250100C912110B90022BEFF0AB3BAA3CA93D90F5
:102511000014121613900010121689121060700325
:10252100022B55AB3BAA3CA93D900010121613C0DB
:1025310004C005C006C00790022BE0FCE41210D7CE
:10254100A804A905AA06AB07D007D006D005D00478
:102551001210605014AB3BAA3CA93D90001012161A
:102561001312110B90022BEFF0AB3BAA3CA93D904B
:102571000014121613C004C005C006C00790022B38
:10258100E0FCE41210D7A804A905AA06AB07D007FE
:10259100D006D005D00412106060025003022B5502
:1025A100AB3BAA3CA93D90001412161312110B90DB
:1025B100022BEFF022AB3BAA3CA93D900004121480
:1025C100B520E1030226B4900018121689C000C09C
:1025D10001C002C003AC3EEC1210D7D003D002D030
:1025E10001D000120EBAC004C005C006C007900297
:1025F1002BE0FCA3E0FDEC1210D2D003D002D001FD
:10260100D000120DC912110B90022BEEF0A3EFF0C6
:10261100AB3BAA3CA93D9000141216139000101276
:1026210016891210607003022B55AB3BAA3CA93DE1
:10263100900010121613C004C005C006C007900216
:102641002BE0FCA3E0FDEC1210D2A804A905AA0618
:10265100AB07D007D006D005D0041210605017ABDD
:102661003BAA3CA93D90001012161312110B9002C7
:102671002BEEF0A3EFF0AB3BAA3CA93D9000141266
:102681001613C004C005C006C00790022BE0FCA3CE
:10269100E0FDEC1210D2A804A905AA06AB07D007E9
:1026A100D006D005D00412106060025003022B55F1
:1026B1000227F7E53EF4704FAB3BAA3CA93D9000E1
:1026C10010121613C004C005C006C00790022BE00B
:1026D100FCA3E0FDE41210D2A804A905AA06AB07E9
:1026E100D007D006D005D004121060701AAB3BAAF7
:1026F1003CA93D9000141216139000101216891275
:1027010010606003022B55AB3BAA3CA93D90001819
:10271100121689C000C001C002C003AC3EEC121009
:10272100D7D003D002D001D000120EBAC004C00528
:10273100C006C00790022BE0FCA3E0FDE41210D21A
:10274100D003D002D001D000120DC912110B90029A
:102751002BEEF0A3EFF0AB3BAA3CA93D9000141285
:1027610016139000101216891210607003022B5577
:10277100AB3BAA3CA93D900010121613C004C00542
:10278100C006C00790022BE0FCA3E0FDE41210D2CA
:10279100A804A905AA06AB07D007D006D005D00426
:1027A1001210605017AB3BAA3CA93D9000101216C5
:1027B1001312110B90022BEEF0A3EFF0AB3BAA3CEE
:1027C100A93D900014121613C004C005C006C0072D
:1027D10090022BE0FCA3E0FDE41210D2A804A905AD
:1027E100AA06AB07D007D006D005D004121060604E
:1027F100025003022B55AB3BAA3CA93D9000141299
:10280100161312110B90022BEEF0A3EFF022AB3B4B
:10281100AA3CA93D9000041214B520E0030228D17E
:1028210090022BE0F8A3E0F9A3E0FAA3E0FBC000DB
:10283100C001C002C003AB3BAA3CA93D90001812E5
:102841001689C000C001C002C003AC3EEC1210D713
:10285100D003D002D001D000120EBAD003D002D0E2
:1028610001D000120DC990022B1216C5AB3BAA3C38
:10287100A93D90001012161390022BE0F8A3E0F985
:10288100A3E0FAA3E0FB1210605012AB3BAA3CA9F3
:102891003D90001012161390022B1216C5AB3BAAE5
:1028A1003CA93D90001412161390022BE0F8A3E00E
:1028B100F9A3E0FAA3E0FB12106060025003022BBF
:1028C10055AB3BAA3CA93D900014121613022B4FA5
:1028D100AB3BAA3CA93D9000041214B520E10302D0
:1028E10029EC900018121689C000C001C002C00373
:1028F100AC3EEC1210D7D003D002D001D000120EA2
:10290100BAC004C005C006C00790022BE0FCA3E0DA
:10291100FDA3E0FEA3E0FFEC1210CDD003D002D066
:1029210001D000120DC912110B90022B1216C5AB6A
:102931003BAA3CA93D9000141216139000101216E8
:10294100891210607003022B55AB3BAA3CA93D9044
:102951000010121613C004C005C006C00790022B58
:10296100E0FCA3E0FDA3E0FEA3E0FFEC1210CDA884
:1029710004A905AA06AB07D007D006D005D00412DA
:1029810010605015AB3BAA3CA93D900010121613E4
:1029910012110B90022B1216C5AB3BAA3CA93D901C
:1029A1000014121613C004C005C006C00790022B04
:1029B100E0FCA3E0FDA3E0FEA3E0FFEC1210CDA834
:1029C10004A905AA06AB07D007D006D005D004128A
:1029D100106060025003022B55AB3BAA3CA93D900D
:1029E100001412161312110B022B4FE53EF4705511
:1029F100AB3BAA3CA93D900010121613C004C005C0
:102A0100C006C00790022BE0FCA3E0FDA3E0FEA3FB
:102A1100E0FFE41210CDA804A905AA06AB07D00770
:102A2100D006D005D004121060701AAB3BAA3CA9A5
:102A31003D900014121613900010121689121060A6
:102A41006003022B55AB3BAA3CA93D90001812161E
:102A510089C000C001C002C003AC3EEC1210D7D047
:102A610003D002D001D000120EBAC004C005C006C6
:102A7100C00790022BE0FCA3E0FDA3E0FEA3E0FF72
:102A8100E41210CDD003D002D001D000120DC91232
:102A9100110B90022B1216C5AB3BAA3CA93D90002D
:102AA100141216139000101216891210607003028E
:102AB1002B55AB3BAA3CA93D900010121613C00444
:102AC100C005C006C00790022BE0FCA3E0FDA3E017
:102AD100FEA3E0FFE41210CDA804A905AA06AB07E6
:102AE100D007D006D005D0041210605015AB3BAA18
:102AF1003CA93D90001012161312110B90022B12DB
:102B010016C5AB3BAA3CA93D900014121613C00494
:102B1100C005C006C00790022BE0FCA3E0FDA3E0C6
:102B2100FEA3E0FFE41210CDA804A905AA06AB0795
:102B3100D007D006D005D00412106060174015AB45
:102B41003BAA3CA93D90001412161312110B9002DE
:052B51002B1216C52245
:106047008F3BE92405F9E43AFA783B7C027D017E2F
:10605700007F08121476E4900243F0853B467547AB
:106067000175480275493B7BFF7A45795F123C5BB6
:096077007BFF7A45796702610A9A
:10322B00302318126239E47B2C7A01F9F8C312159A
:10323B00CF4003023766C223126246126239A804DA
:10324B00A905AA06AB07900237E0FCA3E0FDA3E0BB
:10325B00FEA3E0240AFFE43EFEE43DFDE43CFCD388
:10326B001215CF50030237661262399002371216CD
:10327B00C5202A10C208123767EF7003023756D2E7
:10328B002A0237563029117538FF753946753A9130
:10329B00E56E147888F680107538FF75391A753A13
:1032AB0034786FE6147988F77888E6FFC394035077
:1032BB0005E408F68015E56D7002800CE56DB50729
:1032CB000424FE8003E56D147889F6E47887F6789C
:1032DB0087E6FDC3940340030233E5E4FF12620467
:1032EB007887E6FF7889E62FFFE433FE7C00EFB5A5
:1032FB006D08ECB506047F3E80027F2012621878C1
:10330B0087E6FD7F011262047887E6FF7889E62F56
:10331B00FFE433FE18E6FDD3EF9D7480F86E984002
:10332B000C7BFF7A457970123C5B0233DF7887E6C2
:10333B00FF7889E62FFFE433FE7C007D1F12151604
:10334B00AB38E53A2FF9E5393EFAC0017989E778D0
:10335B008726FFD0011260477887E6FD7F0A12624D
:10336B00043024307887E6FF7889E62FFFE433FEBC
:10337B007C00EFB56D1EECB5061A7D1F121516AB52
:10338B0038E53A2FF9E5393EFA753E01753F02757E
:10339B00402B803D7887E6FF7889E62FFFE433FEEC
:1033AB007C007D1F121516AB38E53A2FF9E5393E37
:1033BB00FAC003C002C001E53A2FF9E5393EFA9095
:1033CB00000D12171E8B3E8A3F8940D001D002D0D0
:1033DB00031242DF7887060232DAE56D75F01FA41F
:1033EB003029072491F9744680052434F9741A3571
:1033FB00F07538FFF539893A20240302359C7D039B
:10340B00E4FF1262047BFF7A45798412610A20176C
:10341B0005302502C22430185220264FC224AB3867
:10342B00AA39A93A12149CFF7E0090000D12171EA8
:10343B00A801AC02AD037B017A02792B1214763012
:10344B002910E56D600464017021D21B787A76F146
:10345B008019AF6D12470DAB38AA39A93A90000409
:10346B001214B530E505AF6D1254AE30190F20278D
:10347B000C12234912623990022F1216C530192DE6
:10348B00126239A804A905AA06AB0790022FE0FC2B
:10349B00A3E0FDA3E0FEA3E02446FFE43EFEE43DF3
:1034AB00FDE43CFCD31215CF4003122349301936EF
:1034BB00126239A804A905AA06AB0790022FE0FCFB
:1034CB00A3E0FDA3E0FEA3E024F4FFEE3401FEE451
:1034DB003DFDE43CFCD31215CF400BAB38AA39A908
:1034EB003A7DF712235120190A90022F1216D100A0
:1034FB00000000301A17202814AB38AA39A93A7DDE
:10350B00011223511262399002331216C5301A354B
:10351B00126239A804A905AA06AB07900233E0FC96
:10352B00A3E0FDA3E0FEA3E02446FFE43EFEE43D62
:10353B00FDE43CFCD31215CF400BAB38AA39A93AAA
:10354B007D01122351301A36126239A804A905AA3B
:10355B0006AB07900233E0FCA3E0FDA3E0FEA3E083
:10356B0024F4FFEE3401FEE43DFDE43CFCD31215E4
:10357B00CF400BAB38AA39A93A7D09122351301A27
:10358B00030237569002331216D1000000000237A7
:10359B00567D03E4FF126204AB38AA39A93A9000B6
:1035AB0018121613E4FBFAF9F8121060400FAB383F
:1035BB00AA39A93A9000041214B530E2087BFF7ABD
:1035CB0045799980067BFF7A4579AE12610A2017FF
:1035DB0014302511302907C229E4F56D8007C22A62
:1035EB00D20812376730186C202669AB38AA39A974
:1035FB003A12149CFFD394045018EF94004013D24A
:10360B00247E0090000D12171E782B7C027D011278
:10361B001476302935E56D6402702FD21B787A76DB
:10362B00F1126246E4FDFF1262047BFF7A4579C317
:10363B0012610A7D01E4FF1262047BFF7A4579D6A1
:10364B0012610A7FB87E0B126134302907E56DB425
:10365B000302D21D30192120271EE56D700F202982
:10366B0005786FE68002E56E14F56D8002156D121C
:10367B00623990022F1216C530193F126239A80415
:10368B00A905AA06AB0790022FE0FCA3E0FDA3E07F
:10369B00FEA3E02446FFE43EFEE43DFDE43CFCD308
:1036AB001215CF4015E56D700F202905786FE68058
:1036BB0002E56E14F56D8002156D20190A90022F2C
:1036CB001216D1000000003029067887A66E8006FE
:1036DB00786FE67887F6301A1B202818E56D04FF03
:1036EB007887E6FEEF8EF08485F06D1262399002DA
:1036FB00331216C5301A39126239A804A905AA0665
:10370B00AB07900233E0FCA3E0FDA3E0FEA3E024B3
:10371B0046FFE43EFEE43DFDE43CFCD31215CF40F6
:10372B000FE56D04FF7887E6FEEF8EF08485F06D74
:10373B00201A0A9002331216D10000000030190B28
:10374B00301A08202905E4F56DD229A2179225A27B
:0B375B00189226A2199227A21A9228A9
:013766002240
:100DC200021177E86480F8E933E83360110460F0D7
:100DD200ED33EC337009E8FCE9FDEAFEEBFF220497
:100DE20060DED3EB9FEA9EE99DE8C2E78CF0C2F792
:100DF20095F0400CE8CCF8E9CDF9EACEFAEBCFFB5E
:100E020012114285D0F05804700320D5B3E8047063
:100E1200075002B2D502118192D5EC0460F7E4CCFE
:100E2200C0E0C398F8603B94186008400DD0E0FB26
:100E3200021159E4FBFAC9FC8028E830E406E4C94F
:100E4200FBE4CAFCE830E305E4C9CACBFCE854077A
:100E52006010F8C3E913F9EA13FAEB13FBEC13FC85
:100E6200D8F130F52FC3E49CFCEF9BFFEE9AFEED28
:100E720099FDD0E0FBEF4E4D4C701222DB030211C4
:100E82007EEC2CFCEF33FFEE33FEED33FDED30E76D
:100E9200EB021159EF2BFFEE3AFEED39FDD0E0FBEC
:100EA20050130BBB0003021181ED13FDEE13FEEF95
:080EB20013FFEC13FC021159BF
:100EBA00EC4D6011E8497017ED33EC3304600DE432
:100ECA00FCFFFEFD22E933E8330470F802117712C1
:100EDA00114258046009E4CC2481500628500902C2
:100EEA00118128400302117EC0E0EB4A7044B980A8
:100EFA0006D0E0FB02116DEF4E701CBD8008EBFFBF
:100F0A00EAFEE9FD80EBE98DF0A4FEE5F0020FA30D
:100F1A00E9CDF9EAFEEBFFEF89F0A4FCE5F0CE8912
:100F2A00F0A42EFFE435F0CD89F0A42DFEE435F0CF
:100F3A008067EF4E7005BD80D780C3EF8BF0A4ACFD
:100F4A00F0EE8BF0A42CFCE435F0F8EF8AF0A42C38
:100F5A00E5F038FCE433CB8DF0A42CFCE5F03BF84B
:100F6A00EE8AF0A42CFCE5F038F8E433CF89F0A43B
:100F7A002CFCE5F038CF3400CE89F0A42FFFE5F041
:100F8A003EFEE433C98DF0A42EFEE5F039CD8AF099
:100F9A00A42FFFE5F03EFEE43DFD33D0E0FB500711
:100FAA000BBB000F021181EC2CFCEF33FFEE33FE7A
:060FBA00ED33FD021159A8
:100FC000021181EC5D046005E85904700302117799
:100FD000121142580460F6EC4860F2EC7004FDFE19
:100FE000FF22C860DB2481C85009C3986002500604
:100FF00002117E9850CAF582E9294B4A7005AB82EE
:1010000002116D75F0007C1A7880C3EF9BEE9AEDAB
:1010100099400DC3EF9BFFEE9AFEED99FDE842F07B
:10102000DC23ACF0D0E0FFD0E0FED0E0FDAB8220CE
:10103000E7101BEB60BAEC2CFCEF33FFEE33FEED58
:1010400033FD021159E803F830E705C0F075F000F0
:10105000EF2FFFEE33FEED33FD40B830E7C280AA3C
:1010600074F8CC6480CCC86480C8F582046043C343
:10107000EB9FF5F0EA9E42F0E99D42F0E89C45F0D6
:1010800060305018E5825FFFE582F42B5582FB50FB
:10109000210ABA001D09B90019088016E5825BFB18
:1010A000E582F42F5582FF50090EBE00050DBD00EC
:1010B000010CC3EB9FF5F0EA9E42F0E99D42F0E897
:0D10C0009C45F06007CC4820E701B3EC220E
:1010CD0075F020800E75F010800575F0087D007E9E
:1010DD00007F003392D530D5031215C1EC3340108B
:1010ED00EF33FFEE33FEED33FDEC33FCD5F0ED22A7
:0E10FD00E5F0247EA2D513CC92E7CDCEFF22E3
:10110B00EDD2E7CD33EC3392D524814006E4FFFEDC
:10111B00FDFC22FCE4CFCECDCC24E0501174FF803B
:10112B00EDC3CC13CCCD13CDCE13CECF13CF0470D8
:07113B00F030D5DE0215C102
:103BF900E55A2446F8E6055A2278433010027846F9
:103C0900E475F00112170E02149C2009EB7F2ED2E5
:103C1900098018EF540F2490D43440D4FF300D0B91
:103C2900EF24BFB41A0050032461FFE55B6002155D
:103C39005B055EE55E7002055D30100D7843E47545
:103C4900F00112170EEF0214E20262187403D21087
:103C59008003E4C210F55A8B438A448945E4F55B35
:103C6900F55DF55EE55B60077F20123C3480F575F4
:103C79005CFFC20AC209C20BC20CC20EC20FC2113A
:103C8900123C02FF700D3010057F00123C45AF5EFB
:103C9900AE5D22B4255FC2D5C20D123C02FF24D00D
:103CA900B40A00501A75F00A785B30D50508B6FFDA
:103CB9000106C6A426F620D5047002D20C80D924A8
:103CC900CFB41A00EF5004C2E5D20D023F32D20A36
:103CD90080C6D20980C0D20B80BCD2D580BAD20EA0
:103CE90080B47F20123C34200B077401B55B00407F
:103CF900F1123BF9FF123C34023C6DD211D20F8014
:103D090095123BF9FB123BF9FA123BF9F94A4B7050
:103D19000679297A407BFF200B2EE55B602A7E001D
:103D29008E827583001214B560060EEE655C70F024
:103D3900C2D5EBC0E0EAC0E0E9C0E0EE123F92D0A4
:103D4900E0F9D0E0FAD0E0FB12149CFF60AAEBC0C6
:103D5900E0EAC0E0E9C0E0123C34D0E02401F9D047
:103D6900E03400FAD0E0FBE55C0460DCD55CD98086
:103D790087D20B80A2123F7560F7E55C70010412CF
:103D890011B7A95C600DE55C600914F55C12401C73
:103D9900EF60F3EA30E702F404C3995077EAF425B7
:103DA9005C0430E701E404F55C800D123F7560C1E5
:103DB900EA055C255C1211B7EA7859F630E701E4A7
:103DC900255C04D55C04200E0114123F92E4C0E086
:103DD90012401C7859E6601320E70714F6123C1CC0
:103DE900802204F6D0E014C0E07F00123C1CE55CA0
:103DF9006007123C13155C800B300E03123C13D084
:103E0900E0023C6DD0E00480C5123F7560A0E55C1E
:103E1900041211B77859EAF6E55C200E0260010434
:053E29002404123F9289
:103E2E0074FF04C0E012401C123C1CE55C200E0224
:103E3E006003123C13D0E0B55CE87F45123C267857
:103E4E0059E67F2B30E7047F2DF404C0E0123C349A
:103E5E00D0E075F00A84C0F0123C1DD0E0123C1D7B
:103E6E00023C6D791080027908C20FC2118008D20F
:103E7E00D5790A8004790AC2D5E55C047002F55C36
:103E8E00E4FAFDFEFF123BF9FC7B08200A13123BFD
:103E9E00F9FD7B1030090A123BF9FE123BF9FF7B4C
:103EAE0020EC3382D592D55013C3E43009069FFF20
:103EBE00E49EFEE4200A039DFDE49CFCE4CBF8C2E4
:103ECE000AEC700CCFCECDCCE824F8F870F3801746
:103EDE00C3EF33FFEE33FEED33FDEC33FCEB33FB80
:103EEE00994002FB0FD8E9EB300A05F8D0E0C44840
:103EFE00B20AC0E00AEC4D4E4F78207B0070C2EA49
:103F0E00B55C0040BCC0E0123F94D0F0D0E0200A77
:103F1E0004C4C0E0C4B20AC0F0123C1DD0F0D5F00B
:103F2E00EB023C6D12174E3D0A533E71583CDB4C72
:103F3E003CD7423E754F3E7D443E7D493CF0433E6C
:103F4E0083553DB4463E12453D7E474049503CDFC9
:103F5E002D3CE32E3D062B3CE7233D042040322A28
:103F6E003C9F4800003CFEE55CB4FF03755C061206
:103F7E003BF9FC123BF9FD123BF9FE123BF9FF78BF
