:1018BE0020002A2A2000202A2A0020204164647257
:1018CE006573733A2020202530345800202052654D
:1018DE00766973696F6E3A202025730054543A2549
:1018EE00352E31664B0054563A25352E31664B0057
:1018FE0048653A25352E316625250054483A25355A
:10190E002E3166254B004C4E324F4646004C4E3221
:10191E004F4E20004C4E3241555400484F4E200041
:10192E00484F464600253364207300202020202097
:10193E0000425453002449643A207363735F31307C
:10194E0030315F6274732E6320323832352032307C
:10195E0030352D31302D32352031333A33343A355E
:10196E00335A20726974742024000134000000453B
:10197E0072726F720000000100050000000000008E
:10198E00000000000000000000013400000053744D
:10199E0061746500000001000600000000411000A7
:1019AE00003F80000000000002030000004C4E3299
:1019BE00206F6E00000100070000000042F00000E2
:1019CE004120000000000002030000004C4E3220B7
:1019DE006F666600010009000000004561000041CD
:1019EE0020000000000001340000004B41204F7524
:1019FE0074000001000B0000000040E000003F807A
:101A0E00000000000001340000004B4120496E0030
:101A1E00000001000C0000000000000000000000AB
:101A2E0000000000045A0000014B41204C65766511
:101A3E006C01000D0000000000000000000000001E
:101A4E0000000001320000004C4E3220766C7665AC
:101A5E00010011000000003F8000003F80000000E8
:101A6E00000001320000004C4E32206874720001FA
:101A7E000012000000003F8000003F8000000000C8
:101A8E000004070000014C4E32766C7620540100A3
:101A9E001300000000000000000000000000000025
:101AAE0004070000014C4E32687472205401001776
:101ABE000000000000000000000000000000000414
:101ACE005A0000014A5420766C76653101001B00E5
:101ADE000000000000000000000000000000045A9A
:101AEE000000014A5420766C76653201001F00001A
:101AFE0000000000000000000000000000040700CD
:101B0E0000014A5420540000000001002300000090
:101B1E00000000000000000000000000045A000059
:101B2E00014C4865206C766C3101002700000000E6
:101B3E000000000000000000000000045A00000138
:101B4E004C4865206C766C3201002B0000000000C2
:101B5E000000000000000000000004070000014C1F
:101B6E004E32205431000001002F00000000000012
:101B7E0000000000000000000004070000014C4EB1
:101B8E00322054320000010033000000000000003B
:101B9E00000000000000000004070000014C4E325F
:101BAE002054330000010037000000000000000048
:101BBE000000000000000004070000014C4E32201F
:101BCE005434000001003B00000000000000000043
:101BDE0000000000000004070000014C484520549E
:101BEE0031610001003F0000000000000000000015
:101BFE00000000000004070000014C48452054324C
:101C0E006100010043000000000000000000000021
:101C1E000000000004070000014C484520543361C9
:101C2E00000100470000000000000000000000005E
:101C3E0000000004070000014C48452054316200AA
:101C4E0001004B000000000000000000000000003A
:101C5E00000004070000014C484520543262000188
:101C6E00004F000000000000000000000000000017
:101C7E000004070000014C48452054336200010067
:101C8E0053000000000000000000000000000000F3
:101C9E000416FD00014C4E3220500000000100578A
:101CAE000000000000000000000000000000000422
:101CBE0016FD00014C4845205000000001005B005D
:101CCE0000000000000000000000000000000418EA
:101CDE000000015175656E6368310001005F000000
:101CEE0000000000000000000000000000041800CA
:101CFE0000015175656E63683200010063000000DB
:101D0E0000000000000000000000000004180000A9
:101D1E00094144433000000000010067000000004C
:101D2E000000000000000000000000041800000980
:101D3E00414443310000000001006B000000000030
:101D4E00000000000000000000000418000009411F
:101D5E004443320000000001006F0000000000004C
:101D6E0000000000000000000004180000094144BB
:101D7E00433300000000010073000000000000006B
:101D8E000000000000000000041800000941444358
:101D9E003400000000010077000000000000000089
:101DAE000000000000000004180000094144433503
:101DBE000000000001007B00000000000000000099
:101DCE0000000000000004180000094144433600E2
:101DDE0000000001007F0000000000000000000075
:101DEE0000000000000418000009414443370000C1
:101DFE000000010083000000000000000000000051
:101E0E00000000000418000009414F465330000046
:101E1E0000010087BDCCCCCD3DCCCCCD3A83126F2A
:101E2E000000000418000009414F46533100000025
:101E3E0001008BBDCCCCCD3DCCCCCD3A83126F0006
:101E4E0000000418000009414F4653320000000103
:101E5E00008FBDCCCCCD3DCCCCCD3A83126F0000E3
:101E6E00000418000009414F4653330000000100E2
:101E7E0093BDCCCCCD3DCCCCCD3A83126F000000BF
:101E8E000418000009414F4653340000000100972A
:101E9E00BDCCCCCD3DCCCCCD3A83126F000000042E
:101EAE0018000009414F46533500000001009BBD4C
:101EBE00CCCCCD3DCCCCCD3A83126F0000000418B3
:101ECE00000009414F46533600000001009FBDCC73
:101EDE00CCCD3DCCCCCD3A83126F0000000418005F
:101EEE000009414F4653370000000100A3BDCCCC82
:101EFE00CD3DCCCCCD3A83126F000000045D0000C6
:101F0E0009414741494E3000000100A73F66666611
:101F1E003F8CCCCD3A83126F000000045D000009A7
:101F2E00414741494E3100000100AB3F6666663FB6
:101F3E008CCCCD3A83126F000000045D0000094185
:101F4E004741494E3200000100AF3F6666663F8C46
:101F5E00CCCD3A83126F000000045D0000094147AA
:101F6E0041494E3300000100B33F6666663F8CCC9C
:101F7E00CD3A83126F000000045D00000941474115
:101F8E00494E3400000100B73F6666663F8CCCCDEB
:101F9E003A83126F000000045D0000094147414979
:101FAE004E3500000100BB3F6666663F8CCCCD3AD5
:101FBE0083126F000000045D000009414741494E45
:101FCE003600000100BF3F6666663F8CCCCD3A837B
:101FDE00126F000000045D000009414741494E3771
:101FEE0000000100C33F6666663F8CCCCD3A83127B
:101FFE006F00000004180000193931305F303000D6
:10200E00000100C7000000000000000000000000FA
:10201E0000010004180000193931305F3031000022
:10202E000100CB00000000000000000000000000D6
:10203E00010104180000193931305F3032000001FF
:10204E0000CF0000000000000000000000000001B2
:10205E000204180000193931305F303300000100DE
:10206E00D30000000000000000000000000001038B
:10207E0004180000193931305F303400000100D7E8
:10208E000000000000000000000000000001040439
:10209E00180000193931305F303500000100DB00C7
:1020AE000000000000000000000000000105041800
:1020BE000000193931305F303600000100DF0000BA
:1020CE0000000000000000000000000106041800DF
:1020DE0000193931305F303700000100E300000095
:1020EE0000000000000000000000010704180000BE
:1020FE00193931305F303800000100E70000000070
:10210E000000000000000000000108041800001983
:10211E003931305F303900000100EB000000000063
:10212E000000000000000000010904180000193929
:10213E0031305F313000000100EF00000000000080
:10214E0000000000000000010A04180000193931D7
:10215E00305F313100000100F3000000000000008C
:10216E00000000000000010B041800001939313086
:10217E005F313200000100F7000000000000000097
:10218E000000000000010C04180000193931305F06
:10219E00313300000100FB000000000000000000D1
:1021AE0000000000010D04180000193931305F31B4
:1021BE003400000100FF00000000000000000000DD
:1021CE00000000010E04180000193931305F31355E
:1021DE0000000101030000000000000000000000EC
:1021EE000000010F04180000193931305F3136003C
:1021FE0000010107000000000000000000000000C8
:10220E0000011004180000193931305F3137000019
:10221E0001010B00000000000000000000000000A3
:10222E00011104180000193931305F3138000001F6
:10223E00010F00000000000000000000000000017F
:10224E001204180000193931305F313900000101D4
:10225E001300000000000000000000000000011349
:10226E000000000000000000000000000000000060
:0F227E0000000000000000000000000000000051
:10597600019101C113C114C115C1164400000000F4
:06598600000041000400D6
:10461D00E4F584F5BA75BCE075E880F5D1F58475DF
:10462D00D102F58475D48075840175D48075840F9D
:10463D0075A4F575A5BF75A6FF75A7FFEF6048E4D6
:10464D00F53B75F004E53BA42487F582E5F03400D5
:10465D00F583120A830000000075F004E53BA424E5
:10466D00A7F582E5F03400F583120A833F80000040
:10467D00053BE53BB408CB900007E4F0A3741EF0B6
:10468D00A3E4F0A374B4F07D087F01125B16E4FD82
:10469D00FF125EA3E4F53B7B007A00790F12000E4A
:1046AD007C007D0212080CC374079FFFE49EFEC3BD
:1046BD00E53B9FEE6480F8748098500D7BFF7A186F
:1046CD0079BE125DA9053B80CE7BFF7A1879C012A9
:1046DD005DA97B007A00790F125DA97BFF7A1879AD
:1046ED00C4125DA97D01E4FF125EA37BFF7A1879E8
:1046FD00C8850946850A4712370D7D02E4FF125E13
:10470D00A378E77C017D017BFF7A197957120BF2B3
:10471D007B017A0179E77D20125E87E41207C67569
:10472D0046017547017548E77BFF7A1879DA12372C
:10473D000DE4900005F0A3F090000BF0900011F047
:10474D00A3F0F53BAF3B124CE2053BE53BC3940AAE
:02475D0040F228
:01475F002237
:0C4CE200151FA81FEFF6E51F24FAF51FB0
:104CEE002406F8E624FB603614603F24FD6047245A
:104CFE00076003024DDE90000BE0FF20E003D3803F
:104D0E0001C392B6EF20E103D38001C392B59000A8
:104D1E000BE020E203D38001C392B4024DDE90007B
:104D2E0011E024FFB392B0024DDE900012E024FF9A
:104D3E00B392B7024DDEE4FFFE7D807C4190001BF6
:104D4E00E0F8A3E0F9A3E0FAA3E0FB12019EE4FB76
:104D5E00FA79C878421202A7E4FBFA7980784012F9
:104D6E0000ADA81F120A6BE4FBFA79A07841E8C0E7
:104D7E00E0A81F120A0FD0E0F81202A7E4FBFA799E
:104D8E0080784512019E1203EFE51F2404F8EEF61B
:104D9E0008EFF6E51F2404F9C3E79410400AE51F57
:104DAE002404F8760F0876FFE51F2404F9C3E79470
:104DBE00005009E51F2404F8E4F608F6E4F584E54E
:104DCE001F2404F808E6F5D2E51F2404F9E7F5D30D
:074DDE00E51F2407F51F2269
:055EF8008F327F002243
:105D4F008B328A338934120780AB35AA36A93712C2
:105D5F0007C6AB32AA33A934900001120799AB35AD
:0D5D6F00AA36A9379000011207D87F022242
:0856CB008B498A4A894B8D4C82
:1056D300E4F54DF551F550754F80754E3FE54DC3DB
:1056E300954C501EAF51AE50AD4FAC4EE4FBFA7922
:1056F30020784112019E8F518E508D4F8C4E054D57
:1057030080DBAB49AA4AA94B1209A5AB51AA50A900
:105713004FA84E12019EE4FBFAF9783F1200AD1236
:105723004F56AB51AA50A94FA84E1202A7AB49AA94
:065733004AA94B0209F532
:0A4490008E388F398B3A8A3B893C45
:10449A00E4F584E539540FF5BB75BCE07543047542
:1044AA004400E4F540F53FF53EF53DF541F542C3DC
:1044BA00E5429544E5419543503AC2AFE4F584C2DA
:1044CA00EDD2EC30EDFDD2AFAFBFEFFEADBEEDFFEA
:1044DA00E4FCFDE5402FF540E53F3EF53FED353E76
:1044EA00F53EEC353DF53D1255530542E54270BFA8
:1044FA00054180BBAF40AE3FAD3EAC3D78061209E8
:10450A00928F408E3F8D3E8C3DC3E5399402E5384B
:10451A00648094805024E41203B1E4FBFA79807831
:10452A00471202A7E4FBFA79A0784112019EE4FB44
:10453A00FA792078C11200AD8020AF40AE3FAD3E7F
:10454A00AC3DE41203B1E4FBFA798078471202A782
:10455A00E4FBFA7920784112019E8F488E478D46F6
:10456A008C45AF48AE47AD46AC45ECC0E0EDC0E087
:10457A00EEC0E0EFC0E0E539AE387802C333CE339F
:10458A00CED8F92487F58274003EF583E0F8A3E0DB
:10459A00F9A3E0FAA3E0FBD0E0FFD0E0FED0E0FD13
:1045AA00D0E0FC1200A98F488E478D468C45ECC09E
:1045BA00E0EDC0E0EEC0E0EFC0E0E539AE387802E9
:1045CA00C333CE33CED8F924A7F58274003EF583DF
:1045DA00E0F8A3E0F9A3E0FAA3E0FBD0E0FFD0E023
:1045EA00FED0E0FDD0E0FC12019E8F488E478D463A
:1045FA008C457B007A0079457D031256CBC2AFAF5A
:10460A0048AE47AD46AC45AB3AAA3BA93C1209F5C0
:02461A00D2AF1D
:01461C00227B
:104DE500C297D296D2957F017E0012574BC295E4A9
:104DF500F538309603433804D2977F017E00125769
:104E05004BC2977F017E0012574B309603433808FB
:104E1500D2977F017E0012574BC2977F017E001209
:104E2500574B309603433801D2977F017E001257C6
:104E35004BC2977F017E0012574B309603433802D1
:104E4500D2977F017E0012574BC2977F017E0012D9
:104E5500574BE538540790000CF0A296921AD2975A
:104E65007F017E0012574BC2977F017E0012574B80
:104E7500A2969219D2977F017E0012574BC2977F57
:104E8500017E0012574BA2969218D2977F017E00A1
:104E950012574BC2977F017E0012574BA29692176D
:014EA50022EA
:103B1A00300803125EE5E4FDFF125EA37BFF7A180C
:103B2A0079EA900037E0FCA3E0FDA3E0FEA3E0F50C
:103B3A00498E488D478C4612370DE4FD7F0A125E86
:103B4A00A37BFF7A1879F4900013E0FCA3E0FDA3AD
:103B5A00E0FEA3E0F5498E488D478C4612370D7D6D
:103B6A0002E4FF125EA37BFF7A1879FE900027E039
:103B7A00FCA3E0FDA3E0FEA3E0F5498E488D478C47
:103B8A004612370D7D027F0A125EA37BFF7A1979EE
:103B9A000990004BE0FCA3E0FDA3E0FEA3E0F54999
:103BAA008E488D478C4612370D7D03E4FF125EA3C3
:103BBA00900006E070087BFF7A1979148013900050
:103BCA0006E07BFFB401067A19791B80047A197919
:103BDA002212370D7D037F06125EA3900012E07B4E
:103BEA00FF60067A19792980047A19792E12370D1D
:103BFA00301733201330125ED8900000120A7790E3
:103C0A000006E00475F00384AFF0EFF07006900050
:103C1A0011F0800D900006E0B401069000117401C5
:103C2A00F07F05124CE2301819201416900012E0A9
:103C3A0070047F0180027F00900012EFF07F06126D
:103C4A004CE2200809201A063016037F0122900050
:103C5A0006E06402706E900011E07068125ED890FF
:103C6A000000E0F8A3E0F9A3E0FAA3E0FBC3EF9BAE
:103C7A00FFEE9AFEED99FDEC98FCECC0E0EDC0E099
:103C8A00EEC0E0EFC0E0900009E0FEA3E0FF7C0098
:103C9A007D641207FACBEFCBCAEECAE4F9F8D0E09A
:103CAA00FFD0E0FED0E0FDD0E0FCC3120981501441
:103CBA00125ED8900000120A779000117401F07F0A
:103CCA0005124CE2900006E06402706F900011E069
:103CDA0064017067125ED8900000E0F8A3E0F9A3CF
:103CEA00E0FAA3E0FBC3EF9BFFEE9AFEED99FDEC31
:103CFA0098FCECC0E0EDC0E0EEC0E0EFC0E0900060
:103D0A0007E0FEA3E0FF7C007D641207FACBEFCB4D
:103D1A00CAEECAE4F9F8D0E0FFD0E0FED0E0FDD068
:103D2A00E0FCC31209815013125ED8900000120AF7
:103D3A0077E4900011F07F05124CE27D037F0E12AA
:103D4A005EA3125ED8900000E0F8A3E0F9A3E0FABF
:103D5A00A3E0FBC3EF9BFFEE9AFEED99FDEC98FC06
:103D6A00E47B64FAF9F81208E19001EFEEF0A3EFB0
:103D7A00F0900006E06402704C900011E070207B25
:103D8A00FF7A1979339001EFE0FEA3E0FFC39000B8
:103D9A000AE09FF547900009E09EF54612370D901C
:103DAA000011E0B401287BFF7A1979339001EFE022
:103DBA00FEA3E0FFC3900008E09FF547900007E0EC
:103DCA009EF54680067BFF7A19793912370DA217BC
:103DDA009213A2189214A2199215A21A92167F008F
:013DEA0022B6
:100D1700900004E075F004A42467F9740035F0FA34
:100D27007B01E0FF7E00124490900004E0703D7F5D
:100D3700427E607DD57C3F900067E0F8A3E0F9A391
:100D4700E0FAA3E0FB12019E7BAE7A47793578C1C2
:100D57001200AD8F3F8E3E8D3D8C3C7F007E007D27
:100D6700207C411249B0900057120A77900004E0A6
:100D7700FBB4021490006FE0FCA3E0FDA3E0FEA328
:100D8700E0FF900023120A77EB045407900004F069
:100D9700E4FFFE7D7A7C449000C7E0F8A3E0F9A366
:100DA700E0FAA3E0FB12019EE4FBFA796078C31234
:100DB70000AD7B937A18790478C01202A7E4FBFA96
:100DC700798778431200AD9001EB120A77E4FFFEB2
:100DD700FDFC9001EBE0F8A3E0F9A3E0FAA3E0FB48
:100DE700120344401D7F007EC07D797C449001EB57
:100DF700E0F8A3E0F9A3E0FAA3E0FB120344600CD8
:100E0700400A9001EB120A83000000009001EBE01A
:100E1700FCA3E0FDA3E0FEA3E0FF900013120A7716
:100E2700E4FFFE7D7A7C449000CBE0F8A3E0F9A3D1
:100E3700E0FAA3E0FB12019EE4FBFA796078C312A3
:100E470000AD7B937A18790478C01202A7E4FBFA05
:100E5700798778431200AD9001EB120A77E4FFFE21
:100E6700FDFC9001EBE0F8A3E0F9A3E0FAA3E0FBB7
:100E7700120344401D7F007EC07D797C449001EBC6
:100E8700E0F8A3E0F9A3E0FAA3E0FB120344600C47
:100E9700400A9001EB120A83000000009001EBE08A
:100EA700FCA3E0FDA3E0FEA3E0FF900017120A7782
:100EB700E4FFFE7D7A7C449000CFE0F8A3E0F9A33D
:100EC700E0FAA3E0FB12019EE4FBFA796078C31213
:100ED70000AD7B937A18790478C01202A7E4FBFA75
:100EE700798778431200AD9001EB120A77E4FFFE91
:100EF700FDFC9001EBE0F8A3E0F9A3E0FAA3E0FB27
:100F0700120344401D7F007EC07D797C449001EB35
:100F1700E0F8A3E0F9A3E0FAA3E0FB120344600CB6
:100F2700400A9001EB120A83000000009001EBE0F9
:100F3700FCA3E0FDA3E0FEA3E0FF90002F120A77D9
:100F4700E4FFFE7D7A7C449000D3E0F8A3E0F9A3A8
:100F5700E0FAA3E0FB12019EE4FBFA795578C3128D
:100F670000AD7B687A91790578C01202A7E4FBFA95
:100F7700798778431200AD9001EB120A77E4FFFE00
:100F8700FDFC9001EBE0F8A3E0F9A3E0FAA3E0FB96
:100F9700120344401D7F007EC07D797C449001EBA5
:100FA700E0F8A3E0F9A3E0FAA3E0FB120344600C26
:100FB700400A9001EB120A83000000009001EBE069
:100FC700FCA3E0FDA3E0FEA3E0FF900033120A7745
:100FD700E4FFFE7D7A7C449000D7E0F8A3E0F9A314
:100FE700E0FAA3E0FB12019EE4FBFA796578C312ED
:100FF70000AD7BB67AF379FD78BF1202A7E4FBFA5E
:10100700798778431200AD9001EB120A77E4FFFE6F
:10101700FDFC9001EBE0F8A3E0F9A3E0FAA3E0FB05
:10102700120344401D7F007EC07D797C449001EB14
:10103700E0F8A3E0F9A3E0FAA3E0FB120344600C95
:10104700400A9001EB120A83000000009001EBE0D8
:10105700FCA3E0FDA3E0FEA3E0FF900037120A77B0
:10106700E4FFFE7D7A7C449000DBE0F8A3E0F9A37F
:10107700E0FAA3E0FB12019EE4FBFA797378C3124E
:1010870000AD7B877A1679F978BF1202A7E4FBFADD
:10109700798778431200AD9001EB120A77E4FFFEDF
:1010A700FDFC9001EBE0F8A3E0F9A3E0FAA3E0FB75
:1010B700120344401D7F007EC07D797C449001EB84
:1010C700E0F8A3E0F9A3E0FAA3E0FB120344600C05
:1010D700400A9001EB120A83000000009001EBE048
:1010E700FCA3E0FDA3E0FEA3E0FF90003B120A771C
:1010F700E4FFFE7D7A7C449000DFE0F8A3E0F9A3EB
:10110700E0FAA3E0FB12019EE4FBFA796478C312CC
:1011170000AD7BE97A26790178C01202A7E4FBFAD1
:10112700798778431200AD9001EB120A77E4FFFE4E
:10113700FDFC9001EBE0F8A3E0F9A3E0FAA3E0FBE4
:10114700120344401D7F007EC07D797C449001EBF3
:10115700E0F8A3E0F9A3E0FAA3E0FB120344600C74
:10116700400A9001EB120A83000000009001EBE0B7
:10117700FCA3E0FDA3E0FEA3E0FF90003F120A7787
:10118700E4FFFE7D7A7C449000E3E0F8A3E0F9A356
:10119700E0FAA3E0FB12019EE4FBFA796678C3123A
:1011A70000AD7BEE7A7C79FF78BF1202A7E4FBFAE9
:1011B700798778431200AD9001EB120A77E4FFFEBE
:1011C700FDFC9001EBE0F8A3E0F9A3E0FAA3E0FB54
:1011D700120344401D7F007EC07D797C449001EB63
:1011E700E0F8A3E0F9A3E0FAA3E0FB120344600CE4
:1011F700400A9001EB120A83000000009001EBE027
:10120700FCA3E0FDA3E0FEA3E0FF900043120A77F2
:10121700E4FFFE7D7A7C449000E7E0F8A3E0F9A3C1
:10122700E0FAA3E0FB12019EE4FBFA796678C312A9
:1012370000AD7B687A9179FD78BF1202A7E4FBFACB
:10124700798778431200AD9001EB120A77E4FFFE2D
:10125700FDFC9001EBE0F8A3E0F9A3E0FAA3E0FBC3
:10126700120344401D7F007EC07D797C449001EBD2
:10127700E0F8A3E0F9A3E0FAA3E0FB120344600C53
:10128700400A9001EB120A83000000009001EBE096
:10129700FCA3E0FDA3E0FEA3E0FF900047120A775E
:1012A700E4FFFEFDFC9000EBE0F8A3E0F9A3E0FA11
:1012B700A3E0FB120344700302145A9000EBE0F81A
:1012C700A3E0F9A3E0FAA3E0FBE4FFFE7D807C3F07
:1012D7001202A79001E7120A777FD87E817DF37CFF
:1012E7003D9001E7E0F8A3E0F9A3E0FAA3E0FB12E1
:1012F700019E9001E7E0F8A3E0F9A3E0FAA3E0FB81
:1013070012019E9001E7E0F8A3E0F9A3E0FAA3E059
:10131700FB12019E9001E7E0F8A3E0F9A3E0FAA32E
:10132700E0FB12019EECC0E0EDC0E0EEC0E0EFC0D4
:10133700E07F637EEE7DF27C3F9001E7E0F8A3E07B
:10134700F9A3E0FAA3E0FB12019E9001E7E0F8A3FE
:10135700E0F9A3E0FAA3E0FB12019E9001E7E0F8B1
:10136700A3E0F9A3E0FAA3E0FB12019EC8ECC8C909
:10137700EDC9CAEECACBEFCBD0E0FFD0E0FED0E09C
:10138700FDD0E0FC1200A9ECC0E0EDC0E0EEC0E04B
:10139700EFC0E07F7F7E6A7D467C419001E7E0F801
:1013A700A3E0F9A3E0FAA3E0FB12019E9001E7E0B6
:1013B700F8A3E0F9A3E0FAA3E0FB12019ED0E0FB5B
:1013C700D0E0FAD0E0F9D0E0F81200ADECC0E0EDE3
:1013D700C0E0EEC0E0EFC0E07F3F7EB57D0D7C4210
:1013E7009001E7E0F8A3E0F9A3E0FAA3E0FB12011C
:1013F7009EC8ECC8C9EDC9CAEECACBEFCBD0E0FF97
:10140700D0E0FED0E0FDD0E0FC1200A9E4FBFA79C1
:101417002278421200AD9001EB120A77E4FFFEFD3D
:10142700FC9001EBE0F8A3E0F9A3E0FAA3E0FB12DC
:101437000344401F7F007EC07D797C449001EBE030
:10144700F8A3E0F9A3E0FAA3E0FB120344600E401F
:101457000C80009001EB120A83000000009001EB62
:10146700E0FCA3E0FDA3E0FEA3E0FF90004B120A1F
:1014770077E4FFFEFDFC9000EFE0F8A3E0F9A3E0BE
:10148700FAA3E0FB120344700302162B9000EFE06F
:10149700F8A3E0F9A3E0FAA3E0FBE4FFFE7D807C7C
:1014A7003F1202A79001E7120A777FCE7EAA7D0F2F
:1014B7007C3E9001E7E0F8A3E0F9A3E0FAA3E0FBA4
:1014C70012019E9001E7E0F8A3E0F9A3E0FAA3E098
:1014D700FB12019E9001E7E0F8A3E0F9A3E0FAA36D
:1014E700E0FB12019E9001E7E0F8A3E0F9A3E0FA20
:1014F700A3E0FB12019EECC0E0EDC0E0EEC0E0EF20
:10150700C0E07F7C7EF27D147C409001E7E0F8A389
:10151700E0F9A3E0FAA3E0FB12019E9001E7E0F8EF
:10152700A3E0F9A3E0FAA3E0FB12019E9001E7E034
:10153700F8A3E0F9A3E0FAA3E0FB12019EC8ECC808
:10154700C9EDC9CAEECACBEFCBD0E0FFD0E0FED0E1
:10155700E0FDD0E0FC1200A9ECC0E0EDC0E0EEC079
:10156700E0EFC0E07F5E7EBA7D7B7C419001E7E0E3
:10157700F8A3E0F9A3E0FAA3E0FB12019E9001E7CC
:10158700E0F8A3E0F9A3E0FAA3E0FB12019ED0E0A4
:10159700FBD0E0FAD0E0F9D0E0F81200ADECC0E003
:1015A700EDC0E0EEC0E0EFC0E07F547EE37D3A7C23
:1015B700429001E7E0F8A3E0F9A3E0FAA3E0FB1209
:1015C700019EC8ECC8C9EDC9CAEECACBEFCBD0E0C3
:1015D700FFD0E0FED0E0FDD0E0FC1200A9E4FBFA6A
:1015E700795A78421200AD9001EB120A77E4FFFEB8
:1015F700FDFC9001EBE0F8A3E0F9A3E0FAA3E0FB20
:10160700120344401F7F007EC07D797C449001EB2C
:10161700E0F8A3E0F9A3E0FAA3E0FB120344600EAD
:10162700400C80009001EB120A830000000090013B
:10163700EBE0FCA3E0FDA3E0FEA3E0FF90004F1268
:101647000A77E4FFFEFDFC9000F3E0F8A3E0F9A3BE
:10165700E0FAA3E0FB12034470030217FD9000F3C6
:10166700E0F8A3E0F9A3E0FAA3E0FBE4FFFE7D8046
:101677007C3F1202A79001E7120A777F127E147D42
:101687007F7C3E9001E7E0F8A3E0F9A3E0FAA3E04E
:10169700FB12019E9001E7E0F8A3E0F9A3E0FAA3AB
:1016A700E0FB12019E9001E7E0F8A3E0F9A3E0FA5E
:1016B700A3E0FB12019E9001E7E0F8A3E0F9A3E0A5
:1016C700FAA3E0FB12019EECC0E0EDC0E0EEC0E043
:1016D700EFC0E07F017EDE7D8A7C409001E7E0F885
:1016E700A3E0F9A3E0FAA3E0FB12019E9001E7E073
:1016F700F8A3E0F9A3E0FAA3E0FB12019E9001E74B
:10170700E0F8A3E0F9A3E0FAA3E0FB12019EC8EC1E
:10171700C8C9EDC9CAEECACBEFCBD0E0FFD0E0FE17
:10172700D0E0FDD0E0FC1200A9ECC0E0EDC0E0EE97
:10173700C0E0EFC0E07F087EAC7DE97C419001E727
:10174700E0F8A3E0F9A3E0FAA3E0FB12019E900101
:10175700E7E0F8A3E0F9A3E0FAA3E0FB12019ED0CB
:10176700E0FBD0E0FAD0E0F9D0E0F81200ADECC031
:10177700E0EDC0E0EEC0E0EFC0E07F377E097DAA74
:101787007C429001E7E0F8A3E0F9A3E0FAA3E0FBCD
:1017970012019EC8ECC8C9EDC9CAEECACBEFCBD0BF
:1017A700E0FFD0E0FED0E0FDD0E0FC1200A97BCD49
:1017B7007ACC79BA78421200AD9001EB120A77E43D
:1017C700FFFEFDFC9001EBE0F8A3E0F9A3E0FAA32C
:1017D700E0FB120344401F7F007EC07D797C44906C
:1017E70001EBE0F8A3E0F9A3E0FAA3E0FB1203445E
:1017F700600E400C80009001EB120A83000000008D
:101807009001EBE0FCA3E0FDA3E0FEA3E0FF900066
:1018170053120A77E4FFFE7DC07C409000F7E0F8A2
:10182700A3E0F9A3E0FAA3E0FB12019E9001E712FF
:101837000A777B717A3D79EA78409001E7E0FCA36B
:10184700E0FDA3E0FEA3E0FF1202A7C8ECC8C9EDC4
:10185700C9CAEECACBEFCBE4FFFE7D807C3F120006
:10186700A9E4FBFA79C8784212019E9001E7120AAF
:1018770077E4FFFEFDFC9001E7E0F8A3E0F9A3E0C1
:10188700FAA3E0FB120344500A9001E7120A83000F
:101897000000009001E7E0FCA3E0FDA3E0FEA3E069
:1018A700FF900027120A77124DE512316F9000055D
:0618B700E0B47B0280FE9C
:0118BD002208
:105E690020202020557067726164696E67002020C8
:0E5E790020204669726D776172652E2E2E0014
:10598C00017A000108FF420121FFFF4401230000BE
:02599C00000009
:103DEB00E4787AF675FFDE75FFAD75840F75A4F573
:103DFB0075A5BFF5A675A7FF75E104F5E275E3445C
:103E0B00F58475B7B075840F438901758D01758F76
:103E1B0001758E04F539F53A053AE53A7002053924
:103E2B00640F453970F2438902E58930E4FB758AEA
:103E3B008375970275FFDE75FFADE4F58475EF04AE
:103E4B00125A21E4F539F53A7D01AF3A125DFC05C2
:103E5B003AE53A70020539C39403E539940040E81A
:103E6B00E4F520C21FC21BC222C21DD21EC221C238
:103E7B0020787AF6C2857874F67872F618F6787828
:103E8B00F6F539F53A7427253AF582E43401F583D2
:103E9B00E4F0053AE53A700205396440453970E5BE
:103EAB00E4F539F53A7467253AF582E43401F58384
:103EBB00E4F0053AE53A700205396440453970E59E
:103ECB0012009F7D08E4FF125B167D087F01125BD9
:103EDB001612565BE47877F6786FF6786FE6FF7517
:103EEB00F01FA42478F582E5F03419F583E493FEF2
:103EFB00787726F6EE6005786F0680DFEFD39400B7
:103F0B00402A901985E493FB740193FA740293F998
:103F1B0074551207C612078064556002D22074AA2A
:103F2B001207C612078064AA6002D220124EA6EFB7
:103F3B00600302402AC21E74FFF509F50AF50BF562
:103F4B000CE4F50DF50EFE7F10FDFB7A00790F12D8
:103F5B000C0F7546FF75471975483F754900754A33
:103F6B00107B007A00790F125A73E4F539F53A9009
:103F7B00197875F01FE53A120AB4E53975F01FA4EC
:103F8B002583F583E493700302402390197C75F02D
:103F9B001FE53A120AB4E53975F01FA42583F583A2
:103FAB00E49320E268E4F538E538C3789196505DE8
:103FBB0090197875F01FE53A120AB4E53975F01FC0
:103FCB00A42583F583E493FF7E00C006C0077D0024
:103FDB0090198575F01FE53A120AB4E53975F01F93
:103FEB00A42583F583E493FB740193FA740293F98C
:103FFB007877E68538F0A4FFE92FF9EA35F0FAD0A7
:10400B0007D006120C0F12009F0538809B053AE56E
:10401B003A70020539023F7A7F0112461D8016D293
:10402B001EE4FF12461DE5EF30E30AD203050EE551
:10403B000E7002050DE4F539F53A7A007B967D0397
:10404B00AF3A120026053AE53A70020539C39403DC
:06405B00E539940040E489
:01406100223C
:055EFD007878E6FF22A9
:03002300024BDBB2
:104BDB00C0E0C0F0C083C082C0D075D000C000C0A0
:104BEB0001C002C003C004C005C006C00730993223
:104BFB00C2997872067972E778746670097872F6E2
:064C0B00D21CC285801CD2
:0D4C110075261475271300D527FCD526F64F
:104C1E007872E62467F582E43401F583E0F5992095
:104C2E009803024CC7209A08201F05C298024CC355
:104C3E00C29A7871E6062427F582E43401F583E5FD
:104C4E0099F0C298E6FFB40112900127E0FE7003BE
:104C5E00F68066EE540724027879F6EFB4020D78EA
:104C6E0079E6B40907900128E02403F67871E6FF8F
:104C7E00B4400476008042EFC3787996403B787159
:104C8E00E624FFFDE434FFFC7B017A017927125301
:104C9E00B07871E62426F582E43401F583E06F6086
:054CAE000476008014F3
:0D4CB30075261475271300D527FCD526F6AD
:104CC000122A9A78717600D007D006D005D004D089
:104CD00003D002D001D000D0D0D082D083D0F0D089
:024CE000E032C0
:1055DA007878E6FF18E68FF0A47C00252AFFEC35E0
:1055EA00F0FE900128E075F01FA42485F582E5F00D
:1055FA003419F583E493FB740193FA740293F98FD7
:0D560A00828E83120799FF7B007A007928B9
:105617008F328B338A348935E4F584EA494B601C31
:10562700AB33AA34A935120780FFE532FD7C00129F
:0C5637000003AB33AA34A935EF1207C6FC
:0D56430075361475371300D537FCD536F6D3
:0B5650008532993099FDC29902009F3D
:0B5E4A00E4F5847874EFF6C21CD285EA
:0D5E550075321475331300D533FCD532F6C9
:075E6200900167E0F59922B1
:105C5600C9EFC9E964017028EDC39B40347891E629
:105C6600FFEB2FFFE433FEEDC39FEE6480F87480F4
:105C760098501ED21FC3ED9B7878F6787376012272
:105C8600B90214ED6B700AD21F7878F67873760233
:085C960022C21FE47873F6221C
:10580300C9EFC9BAFF15BBFF12ED6B7002EC6A70EA
:1058130049D21F7878F67873E9F622E96401702596
:10582300C3ED9BEC9A401C7891E62BFFE43AFEC350
:10583300ED9FEC9E500DD21FC3ED9B7878F67873E5
:105843007601228015B90218ED6B7002EC6A700ABA
:10585300D21F7878F67873760222C21FE47873F643
:015863002222
:102A9A00900127E0FF54F8F529E4F584EF120B00C2
:102AAA002AE4092AF00A2B00102B09112B19122BE0
:102ABA002D192B421A2B64202B69282BF0292CA1C3
:102ACA00332CD3372CFF392D0F412D1A492D245081
:102ADA002D6C612D649800002D9C900128E0FDE585
:102AEA000AFB7F018023900128E0FCA3E0FDAB0AEA
:102AFA00AA097F018027D21F78737603022D9C9042
:102B0A000128E0FDE50CFB7F02125C56022D9C9029
:102B1A000128E0FCA3E0FDAB0CAA0B7F02125803CC
:102B2A00022D9C900128E0FDE50AFB7F01125C560C
:102B3A00201F03022D9C8017900128E0FCA3E0FDD2
:102B4A00AB0AAA097F01125803201F03022D9C9089
:102B5A0001677478F07F01022D99D21D022D9CC263
:102B6A00ACE4F528D285FB7A0079287F7F125617C4
:102B7A007B007A0079287F181256177B007A007931
:102B8A00287F03125617786FE61256107B007A00D8
:102B9A007928AF091256177B007A007928AF0A12F2
:102BAA0056177B007A007928AF0B1256177B007AEA
:102BBA00007928AF0C1256177B007A007928AF0DDE
:102BCA001256177B007A007928AF0E125617E4F5D1
:102BDA002A740F252AF8E6125610052AE52AC39404
:102BEA001040EE022C8F900128E0FFC3786F9640C8
:102BFA0003022D9C75F01FEFA42478F582E5F034CA
:102C0A0019AF82F5308F31C2ACE4F528D285FB7A50
:102C1A000079287F7F1256177B007A0079287F0D6A
:102C2A00125617853182853083E493125610853106
:102C3A0082853083740193125610853182853083E0
:102C4A00740293125610853182853083740393126D
:102C5A005610853182853083740493125610E4F538
:102C6A002AE5312405F582E43530F583E582252A03
:102C7A00F582E43583F583E493125610052AE52A92
:102C8A00C3940840DC7B007A007900AF28125617FB
:102C9A00C285D2AC022D9C900128E0FFB4010BA39F
:102CAA00E0F509A3E0F50A022D64EFB402099001E8
:102CBA0029E0F509022D64900128E0B40308A3E095
:102CCA00F50BA3E0F50C022D64E4F52A900128E047
:102CDA00FFE52AC39F501C7429252AF582E4340192
:102CEA00F583E0FF740F252AF8C6EFC6052AE52A00
:102CFA00B410D980657A007B327D017878E6FF12BC
:102D0A000026022D9C900128E024FF9202022D9CAD
:102D1A00900128E024FF920180787878E6600575B2
:102D2A002C02800B202105752C038003752C019041
:102D3A0001677479F0A3E52CF07C007D027B017AAF
:102D4A000179671253B0900169EFF07F03125E4A6E
:102D5A00E52C6401703CD2228002D21B787A76F18B
:102D6A0080307A007B327D017F0012002690016755
:102D7A007479F0900128E0900168F07C007D027B74
:102D8A00017A0179671253B0900169EFF07F03125B
:102D9A005E4AE52964A06003022F4E900127E06491
:102DAA00A16003022E76A3E0FFC3786F9640030268
:102DBA002F4E75F01FEFA42478F582E5F03419F54B
:102DCA0083E493F52C75F01FEFA4247CF582E5F0DB
:102DDA003419F583E49330E236125EF88F2C9001B1
:102DEA0067747FF0A3E52CF02402FDE433FC7B0139
:102DFA007A0179671253B07469252CF582E434019B
:102E0A00F583EFF0E52C2403FF125E4A022F4E9061
:102E1A000128E0FF125EF8C2ACE4F528D285E52C61
:102E2A00D39406402C7B007A0079287F7F125617AC
:102E3A007B007A007928AF2C125617E4F52AE52A86
:102E4A00C3952C50071255DA052A80F2052C022F59
:102E5A003FE52C2478125610E4F52AE52AC3952C6E
:102E6A0050071255DA052A80F2022F3F900127E017
:102E7A0064A26003022F4E786FE6FFA3E0FEC39FB1
:102E8A004003022F4EA3E0FDC39F4003022F4EEEE4
:102E9A00C39D4003022F4E900128E0F52AE4F52C49
:102EAA00900129E0FFE52AD39F501FAF2A125EF84E
:102EBA0075F01FE52AA42478F582E5F03419F58324
:102ECA00E493252CF52C052A80D6C2ACE4F528D249
:102EDA0085FB7A0079287F7F1256177B007A007962
:102EEA0028AF2C125617900128E0F52A900129E004
:102EFA00FFE52AD39F503EE4F52B75F01FE52AA47F
:102F0A002478F582E5F03419F583E493FFE52BC3C1
:102F1A009F501E7878E6FF18E68FF0A47C00252BD8
:102F2A00FFEC35F0FE75F01FE52A1255F3052B80EC
:102F3A00C9052A80B77B007A007900AF2812561794
:102F4A00C285D2ACE5296458704DFA7B327D01788E
:102F5A0078E6FF1200267535017536017537687BEC
:102F6A00017A017928125D4F8F2CE52C2478900183
:102F7A0067F0EF2401FDE433FC7B017A01796712E3
:102F8A0053B07468252CF582E43401F583EFF0E53B
:102F9A002C2402FF125E4AE52964806009E529644F
:102FAA0088600302316E7873E6B4010F7A007B32CF
:102FBA007D017878E6FF120026801AE4F52AE52AD0
:102FCA00C3789196500F7A007B327D01AF2A1200A6
:102FDA0026052A80E9900127E05407F52CB4070A50
:102FEA00752B01A3E0F52CA38006E4F52B900128AC
:102FFA00E0F52D152CE52DC3786F9640030231427A
:10300A0075F01FE52DA42478F582E5F03419F583CF
:10301A00E493FFE52CD39F40028F2C7873E6B4012A
:10302A00097878E6F52FF52E8009E4F52E7891E6F1
:10303A0014F52F7878A62E7878E6D3952F400302D8
:10304A00311EE4F52AE52AC3952C40030231137593
:10305A00F01FE52DA4247CF582E5F03419F583E40C
:10306A009330E20302310E75F01FE52DA42479F5A1
:10307A0082E5F03419F583E49364387029E52CD39A
:10308A009404400DE52B252A2429F582E434018095
:10309A00387871E6C3952AFFE49400FE74252FF56B
:1030AA008274013E802375F01FE52DA42478F582F1
:1030BA00E5F03419F583E493FFC37871E69F252A76
:1030CA00252B2426F582E43401F583E0FD7878E6A1
:1030DA00FF18E68FF0A4FFE52A7A002FFFEA35F001
:1030EA00FE75F01FE52DA42485F582E5F03419F567
:1030FA0083E493FB740193FA740293F98F828E83AB
:10310A00ED1207D8052A02304FAF2D124CE278781B
:10311A00060230417878A62E75F01FE52DA4247C8E
:10312A00F582E5F03419F583E49330E503852D083B
:10313A00E5296488702E8010E52DB4FF27900129B7
:10314A00E0F520E529B4881C9001677478F078715D
:10315A00E62426F582E43401F583E0900168F07FE5
:04316A0002125E4AA5
:01316E00223E
:1057A10075F01FA42494F582E5F03419F583E49390
:0557B100FE740193FFEE
:1057B6008E3D8F3E900121E0653D7004A3E0653E7D
:1057C600603A900117740AF0E53DA3F0E53EA3F0B8
:1057D6007C007D037B017A0179171253B090011A80
:1057E600EFF07B017A0179177544017D047C001284
:0D57F60054C8900121E53DF0A3E53EF022EE
:035AC500CCEECC58
:105AC800900117741AF0A3ECF0EFA3F07C007D03AB
:105AD8007B017A0179171253B090011AEFF07B011C
:105AE8007A0179177544017D047C001254C87B0142
:105AF8007A0179177D0A7C0012531BEF7002FF228E
:0D5B0800900117E0647860037F00227F01A8
:015B1500226D
:105D7C007A007B327D017F0112002674FF90012195
:105D8C00F0A3F07F0A900117E4F0A3DFFC7B017A0B
:0D5D9C000179177544017D0A7C000254C88E
:10489500E4F538E538C3786F9640030249AF75F003
:1048A5001FE538A4247CF582E5F03419F583E493FB
:1048B50020E4030249AAE5381257A190011774A113
:1048C500F075F01FE538A42496F582E5F03419F566
:1048D50083E493900118F07C007D027B017A0179D5
:1048E500171253B0900119EFF07B017A017917E4A3
:1048F500F5447D03FC1254C87B017A0179177D6468
:104905007C0012531B8F39E539C394025002804B4A
:10491500E5392476FF900117E06F6002803D75F060
:104925001FE538A42478F582E5F03419F583E4937E
:10493500FFE53924FE6F60028021E53924FFFDE49F
:1049450034FFFC7B017A0179171253B074162539AF
:10495500F582E43401F583E06F6007AF38125D7CC2
:104965008043C2AF75F01FE538A42478F582E5F0E1
:104975003419F583E493FF7E0075F01FE538A42410
:1049850085F582E5F03419F583E493FB740193FA18
:10499500740293F8CCEACCCDEBCD7B017A01791882
:0A49A50012075AD2AF0538024898F5
:0149AF0022E5
:02514D008F3B96
:10514F00EF1257A175F01FE53BA42478F582E5F027
:10515F003419F583E493F53C2481900117F075F031
:10516F001FE53BA42496F582E5F03419F583E4930B
:10517F00900118F0AF3C7E0075F01FE53BA424852D
:10518F00F582E5F03419F583E493FB740193FA7417
:10519F000293F978197C017D0112075AE53C24022C
:1051AF00FDE433FC7B017A0179171253B074192592
:1051BF003CF582E43401F583EFF07B017A01791736
:1051CF00E53C2403FDE433FCE4F5441254C87A00B3
:0951DF007B327D017F01020026F4
:105C9E00125ED8C8ECC8C9EDC9CAEECACBEFCB901C
:105CAE000123E0FCA3E0FDA3E0FEA3E0240AFFE451
:105CBE003EFEE43DFDE43CFCD3120981400C12484B
:105CCE0095125ED8900123120A77E508F46008AFAA
:085CDE000812514D7508FF2268
:10700000787AE664F16003027506301CFDC2AF7544
:10701000FFDE75FFADE4F54AF549E4F584209830CC
:10702000E4F54EF54F209822C3E54F9488E54E9441
:03703000135017E3
:0D70330075540A75551300D555FCD554F65B
:10704000054FE54F70DF054E80DBB2A0B29480CDD6
:10705000859949C298B294E549641A600302711790
:10706000F54EF54F209822C3E54F9488E54E9413D2
:027070005017B7
:0D70720075540A75551300D555FCD554F61C
:10707F00054FE54F70DF054E80DB30988E85994ABE
:10708F00C298E4F54EF54F209822C3E54F9488E55A
:05709F004E9413501790
:0D70A40075540A75551300D555FCD554F6EA
:1070B100054FE54F70DF054E80DB20980302701A03
:1070C10085994AC298E4F54EF54F209822C3E54FC1
:0870D1009488E54E941350175A
:0D70D90075540A75551300D555FCD554F6B5
:1070E600054FE54F70DF054E80DB20980302701ACE
:0970F60085994AC298D285C2991D
:0D70FF0075541475551300D555FCD554F685
:10710C007599783099FDC2850274F8E5496401706F
:05711C0031D285C2998B
:0D71210075541475551300D555FCD554F662
:08712E007599783099FDC299B2
:0D71360075541475551300D555FCD554F64D
:10714300E4F5993099FDC2850274F8E5496402605B
:1071530003027203F54EF54F209822C3E54F94883E
:06716300E54E94135017E5
:0D71690075540A75551300D555FCD554F624
:10717600054FE54F70DF054E80DB20980302701A3D
:1071860085994AC298E4F54BE54A13B392A0E54ABD
:1071960025E0FEC3E49400EE9470502AE54A7F0091
:1071A60025E0FEC39460501EE54A20E01FE4F58406
:1071B60043B701758F038E508F518F828E83F053A4
:1071C600B7F0F58F8003754BFFE4F584D285C2993D
:0D71D60075541475551300D555FCD554F6AD
:0871E3007599783099FDC299FD
:0D71EB0075541475551300D555FCD554F698
:1071F800854B993099FDC2850274F8E549640360AE
:1072080003027341F54EF54F209822C3E54F948849
:06721800E54E941350172F
:0D721E0075540A75551300D555FCD554F66E
:10722B00054FE54F70DF054E80DB20980302701A87
:10723B0085994AC298E4F54EF54F209822C3E54F45
:08724B009488E54E94135017DE
:0D72530075540A75551300D555FCD554F639
:10726000054FE54F70DF054E80DB20980302701A52
:1072700085994CC298E54A1392A0E54A25E0FEC3E1
:10728000E49400EE9470400302701AE54A7D0025F4
:10729000E0FCC39460400302701AE4F58443B70134
:1072A000758F01E54C75F020A42DFFE5F03CF550FD
:1072B0008F51E4F584F54DE54DC394205048E4F535
:1072C0004EF54F209822C3E54F9488E54E94135015
:0172D00017A6
:0D72D10075540A75551300D555FCD554F6BB
:1072DE00054FE54F70DF054E80DB20980302701AD4
:1072EE000551E551AE507002055014F5828E83E5BE
:1072FE0099F0C298054D80B1E4F58453B7F0F58F3F
:06730E00F584D285C2994E
:0D73140075541475551300D555FCD554F66D
:087321007599783099FDC299BD
:0D73290075541475551300D555FCD554F658
:10733600E4F5993099FDC2850274F8E54964046064
:10734600030273E4F54EF54F209822C3E54F948867
:06735600E54E94135017F0
:0D735C0075540A75551300D555FCD554F62F
:10736900054FE54F70DF054E80DB20980302701A48
:1073790085994AC298E54A25E0F552755300E4F526
:107389004BF54EF54F0553E553AE527002055214B5
:10739900F5828E83E493254BF54B054FE54F70023B
:0E73A900054E7004E54E640270DBD285C29979
:0D73B70075541475551300D555FCD554F6CA
:0873C4007599783099FDC2991A
:0D73CC0075541475551300D555FCD554F6B5
:1073D900854B993099FDC2850274F8E549640560C9
:1073E900030274EDF54EF54F209822C3E54F9488BA
:0673F900E54E941350174D
:0D73FF0075540A75551300D555FCD554F68C
:10740C00054FE54F70DF054E80DB20980302701AA4
:10741C0085994AC298E4F54EF54F209822C3E54F62
:08742C009488E54E94135017FB
:0D74340075540A75551300D555FCD554F656
:10744100054FE54F70DF054E80DB20980302701A6F
:0974510085994CC298D285C299BC
:0D745A0075541475551300D555FCD554F626
:0874670075997F3099FDC2996F
:0D746F0075541475551300D555FCD554F611
:10747C007599203099FDE54A25E0FCE54C75F02026
:10748C00A42400FFE5F03CF5528F53E4F54BF54D89
:02749C00C29993
:0D749E0075541475551300D555FCD554F6E2
:1074AB00855382855283E493F5993099FD0553E515
:1074BB0053AE527002055214F5828E83E493254B22
:0B74CB00F54B054DE54DB420C8C299FB
:0D74D60075541475551300D555FCD554F6AA
:1074E300854B993099FDC285800BE549B40606E4C6
:1074F300F58475EF10E5496407600302701A787A22
:03750300F6D2AF0E
:017506002262
:1055530012009F201E0B7A007B327D017F00120018
:105563002630200B7A007B1E7D017F00120026303F
:105573001B1C3021197A007B327D017878E6FF12FB
:105583000026C21BE4F50DF50E125006D21E302282
:105593002A302127C222125EE5E4FDFF125EA37BBF
:1055A300FF7A5E7969125DA97D01E4FF125EA37B38
:1055B300FF7A5E7977125DA9127000125ED8E47BE0
:1055C3002C7A01F9F8C31209815002D221301D0649
:0755D300E4F58475EF1022DE
:0E5ECA00123DEB125553125C9E120D1780F51F
:104AC700005EBCE2613FDD83C29C7E20A3FD1F41E7
:104AD7009DC3217FFCA2401E5F01E3BD3E6082DCD7
:104AE700237D9FC1421CFEA0E1BF5D0380DE3C62C7
:104AF700BEE0025CDF81633D7C22C09E1D43A1FFB7
:104B07004618FAA427799BC584DA3866E5BB5907A6
:104B1700DB856739BAE406581947A5FB7826C49A96
:104B2700653BD987045AB8E6A7F91B45C6987A2486
:104B3700F8A6441A99C7257B3A6486D85B05E7B976
:104B47008CD2306EEDB3510F4E10F2AC2F7193CD66
:104B5700114FADF3702ECC92D38D6F31B2EC0E5056
:104B6700AFF1134DCE90722C6D33D18F0C52B0EE46
:104B7700326C8ED0530DEFB1F0AE4C1291CF2D7336
:104B8700CA947628ABF517490856B4EA6937D58B26
:104B97005709EBB536688AD495CB2977F4AA481616
:104BA700E9B7550B88D6346A2B7597C94A14F6A806
:104BB700742AC896154BA9F7B6E80A54D7896B35F6
:104BC700000000002B6096CBDDEE002C96CBDDE5D8
:044BD700EEF7FAFDFE
:02599E00C1AC9A
:1053B000151F151FA81FECF608EDF6151F151F1574
:1053C0001FA81FC6EBC608C6EAC608C6E9C6E51F81
:0453D00024FCF51FA5
:1053D400F80808E4F6A81FF608F6E51F2407F9A85C
:1053E4001FE6FE08E6FFC3099719E76480F8EE6438
:1053F40080985037E51F2404F8CBE6CB08E6FA087A
:10540400E6F98F828E83120799A81F080866FFE5C4
:105414001F2403F8EFF6E6904AC793A81F0808F67E
:10542400A81F0806E61870B20680AFA81F0808E691
:01543400FF78
:07543500E51F2409F51F2209
:07000300ED6F904AC793FF67
:01000A0022D3
:0300A300025BB845
:105BB800C0E0C083C082C0D0EEC0E0EFC0E0E5988E
:105BC80030E1055398FDD22CE59830E024E56524B2
:105BD80001FFE433FEEF64404E70028011AF6505AB
:105BE8006574A72FF582E43401F583E599F053989D
:105BF800FED0E0FFD0E0FED0D0D082D083D0E0321B
:0A54C8008B3F8A4089418C428D43DE
:1054D200E4F565758401D284E54424FF929BE4F5EA
:1054E20045C3E5459543E5426480F8748098505C75
:0254F200C22CCA
:0D54F40075461475471300D547FCD546F6E4
:10550100E54324FFFFE54234FFFEEF65457001EE00
:10551100701EC2ACAB3F0541E541AA407002054097
:1055210014F9120780F599302CFDC284D2AC801693
:10553100AB3F0541E541AA407002054014F912074D
:1055410080F599302CFD12009F05458095C284AFEE
:015551004316
:015552002236
:0A531B008B3A8A3B893C8C3D8D3EA5
:10532500125ED88F438E428D418C40E4F53F125E6C
:10533500D8C3EF9543FFEE9542FEED9541FDEC9503
:1053450040FCE47B01FAF9F8C312098150037F00A0
:1053550022E565D39400404E9001A7E0FEB47803A2
:105365007F0122EE54F8647860037F00229001A744
:10537500E054072402F53F6565702BD3E565953E3E
:10538500E53D6480F87480984006AE3DAF3E8004EC
:10539500AF657E00A83CAC3BAD3A7B017A0179A7AD
:0B53A50012075AAF3F2212009F8083C6
:065EF200E4F565D22C224C
:105B1600EF7025F5847598D0F584759115F5847523
:105B2600C90875CBFFED904BC693F5CA75C804E45A
:105B3600F584D2ACC2BC80267584017598D0E4F594
:105B460084E589540F4420F589758E02ED904BD07B
:105B560093F58DD28E43E74043F740125EF2D2AF03
:015B6600221C
:105A2100D2AFD2A9D2BBE4F584E589540F4401F584
:105A310089758E02758CAFE4F58AD28CF569F568AB
:105A4100F567F566FFEF25E025E0247BF8E4F6EF46
:105A510025E025E0247CF8E4F6EF25E025E0247D2F
:105A6100F8E4F6EF25E025E0247EF8E4F60FBF0325
:015A7100D460
:015A72002211
:0250B100151FC9
:1050B300A81FE4F6A81FE6FFC39403400302514A66
:1050C300EF25E025E0247EF8E6FFD394004052A8C4
:1050D3001FE625E025E0247CF8E67045EF30E01577
:1050E300A81FE6FF25E025E0247EF8E6D3940140DF
:1050F300047D0180067D00A81FE6FF1258C4A81F87
:10510300E6FF25E025E0247EF816E66014EF25E0AF
:1051130025E0247DF8E6FEEF25E025E0247CF8EE8B
:10512300F6A81FE625E025E0247CF8E6600116A832
:105133001FE6FF25E025E0247EF8E67004FD125803
:07514300C4A81F060250B7CB
:03514A00051F221C
:03000B0002586434
:10586400C0E0C0F0C083C082C0D0E8C0E0E9C0E0BE
:10587400EAC0E0EBC0E0ECC0E0EDC0E0EEC0E0EF79
:10588400C0E0758CAFE5692401F569E43568F56815
:10589400E43567F567E43566F5661250B1D0E0FF8C
:1058A400D0E0FED0E0FDD0E0FCD0E0FBD0E0FAD0C8
:1058B400E0F9D0E0F8D0D0D082D083D0F0D0E0327C
:105DFC00151FA81FEDF6151FA81FEFF6A81FE6FF2D
:105E0C00C39403500D08E6FEEF25E025E0247BF853
:075E1C00EEF6051F051F2231
:10002600151F151FA81FEAF608EBF6151FA81FEDEA
:10003600F6151FA81FEFF6A81FE6FFC3940350523C
:10004600EF25E025E0247EF8E67047A81FE6FB25AD
:10005600E025E0247CF8E67039A81F08E625E004D0
:10006600FFA81FE6FA25E025E0247EF8EFF6A81F94
:100076000808E6FE08E6FF7C007D0A12080CEA2561
:10008600E025E0247DF8EFF6EB25E025E0247CF87A
:09009600E4F6E51F2404F51F2225
:1058C400151FA81FEDF6151FA81FEFF6A81FE6FF6A
:1058D400C39403501CEF25E025E0247BF8E6601117
:1058E400A81F08E670047F0180027F00A81F08EF4C
:1058F400F6A81FE6700608E624FF92A0A81FE6FF9C
:10590400B4010608E624FF9286EFB40208A81F0833
:0A591400E624FF9287051F051F22FD
:0C5ED800C2AFAF69AE68AD67AC66D2AF78
:015EE400229B
:03009F00B29422F6
:045DD3008E3D8F3E34
:105DD700E4F53FF540C3E540953EE53F953D50145A
:105DE7007FE87E0312574B1255530540E54070E597
:045DF700053F80E103
:015DFB002285
:1057390054F0FFE5A054014FF5A0A21292A37F01F6
:025749007E00E0
:04574B008E618F627A
:10574F00D3E56294FAE5619400500EEFD3940040D4
:10575F00407E1600DEFD1F80F2856163856264D393
:10576F00E56494FAE563940040157FFA7E001257C2
:10577F004B74062564F56474FF3563F56380E0D3DD
:10578F00E5629400E56194004007AF64AE63125781
:01579F004BBE
:0157A00022E6
:0859CC008B418A4289438D449E
:1059D40012009FAB45AA46A9471208422400FFE5DE
:1059E400F03460FE85414885424985434AE4FDED33
:1059F400C39544501BEF2DF582E43EF583E493AB4D
:105A040048AA49A94A8D827583001207D80D80DF00
:0D5A1400AB45AA46A947E48544F002086DA1
:085282008B4F8A5089518D52B7
:10528A00787AE664F1600302531AC2AFE4F5844304
:10529A00B701758F01AB53AA54A9551208422400CD
:1052AA00FFE5F03460788AF608EFF6AA50A951783B
:1052BA008EA64F08C6EAC608C6E9C6E4788CF67810
:1052CA008CE6C395525032788ECBE6CB080806E6B8
:1052DA0018CAE6CA70010614F9120780788DF6E634
:1052EA00FF788A0806E618CCE6CC70010614F58227
:1052FA008C83EFF0788C0680C6E4F58F53B7F0AB59
:10530A0053AA54A9558552F012086DD2AF12009FC4
:01531A002270
:105B6700787AE664F17049C2AFE4F58443B701750A
:105B77008F03788C766008F6788AF608F6788CE6D4
:105B8700FE08E6F5828E83E4F012009F26F618746D
:105B97000236F61806E618700106C3788BE69408F5
:105BA70018E66480948040D5E4F58F53B7F0D2AF00
:015BB70022CB
:10500600125B67E4F54DF54EF55375540075554D35
:10501600FB7A0079097D16125282E4F54AE54AC305
:105026007891965067E4F54975F01FE549A4247810
:10503600F582E5F03419F583E493604C7877E685DC
:105046004AF0A4FFAEF075F01FE549A42485F58269
:10505600E5F03419F583E493FB740193FA74029333
:105066002FF9EA3EFA75F01FE549A42478F582E5A2
:10507600F03419F583E493FD7553007554007555A6
:105086004D125282054980A0054A8091754B1275D2
:105096004C3475530075540075554D7B007A007974
:0A50A6004B7D02125282E4787AF684
:0150B00022DD
:104EA600E4F53FF540F54575460075473FFB7A004A
:104EB60079097D161259CCE4F53CE53CC378919608
:104EC6005067E4F53B75F01FE53BA42478F582E5D1
:104ED600F03419F583E493604C7877E6853CF0A4CA
:104EE600FFAEF075F01FE53BA42485F582E5F034AE
:104EF60019F583E493FB740193FA7402932FF9EA8C
:104F06003EFA75F01FE53BA42478F582E5F03419E6
:104F1600F583E493FD75450075460075473F1259C4
:104F2600CC053B80A0053C80917545007546007513
:104F3600473F7B007A00793D7D021259CCE53E64FD
:0F4F4600347004E53D641270047F0180027F0027
:014F55002239
:105C08008F60302B4843A0F075840F75A60FC2A390
:105C1800D2A2125747D2A17F0A7E0012574B20A763
:105C2800FDC2A1125747C2A275A6FF125747E560E9
:105C3800125739D2A1125747C2A1125747E560C47B
:0E5C4800125739D2A1125747C2A11257472254
:105D1F008F3D53A00FE53D54F042A0D2A11257473B
:105D2F00C2A112574753A00FE53DC454F042A0D271
:105D3F00A1125747C2A11257477F647E0002574BEB
:10565B00E4F53BF53C75840F75A6FF53A00143A001
:10566B0020D2A17F01FE12574BC2A17F017E0012F7
:10567B005DD37F20125D1F43A0F075A60FC2A3D28E
:10568B00A2125747D2A17F647E0012574B30A7035B
:10569B00C22B22D22BC2127F24125C08C2127F09AA
:1056AB00125C08C2127F20125C08C2127F0C125CC3
:0F56BB0008C2127F01125C08C2127F06125C083F
:0156CA0022BD
:0D5EE500C2127F01125C08E4FDFF025EA303
:105EA300ED5403C43354E0FEEF541F44804EFFC24D
:045EB30012025C0873
:105EB7008F5FC3E55F648094A04005D212125C082F
:035EC700AF5F22A8
:105E23008B6A8A6B896CAB6AAA6BA96C1207806058
:105E330015056CE56C7002056B14F9120780FFD22F
:075E430012125C0880E0224E
:1042AE00202020202020202020200025622A626449
:1042BE000025622A62750025622A640025622A752D
:1042CE000025622A2E33660025622A6C6400256260
:1042DE002A6C7500253262643A2573002020202056
:1042EE0020202020002020202020202020202020E0
:1042FE0020202020202020200045534320454E54CE
:10430E0045522020202D202020202B2020004553F8
:10431E004320454E544552202050524556204E457E
:10432E005854004553432020202020202020505256
:10433E004556204E45585400506172616D65746546
:10434E007273207772697474656E00746F20666C78
:10435E00617368206D656D6F72792E00F4700000C8
:10436E0000F76E000000FAE4000000FD6D00000092
:10437E000000000000036B000000064D0000000965
:10438E00470000000C540000000000000000016D0A
:10439E0000000002670000000373000000046D00BF
:1043AE00000005680000000641000000074B0000F9
:1043BE000008DF43000009DF46000014487A0000C1
:1043CE0015506100001662610000175700000018BA
:1043DE005600000019F40000001A540000001B6C77
:1043EE002F73001C52504D001D460000005A25250B
:1043FE0000005B52504D005C636E74005D780000EF
:10440E0000000000000002350000004E6F646520C1
:10441E0041647200000900000000000000003F80AF
:10442E000000000000023500000047727020416459
:10443E00720000000B00000000000000003F800032
:10444E00000000000032000004466C61736800003A
:10445E00000000000000000000000000000000004E
:10446E0000000000320000045265626F6F7400009D
:10447E00000000000000000000000000000000002E
:02448E0000002C
:1059A000C1A3C12AC129C124016D00016E044402B2
:1059B000330000000044022B0000000044022F00CE
:0B59C000000000C125C126C127C1283E
:064062008B3B8A3C893D06
:10406800900001120799B4381B853E46853F478565
:104078004048754900754A087B017A027937125A17
:10408800730242A4E4900237F0AB3BAA3CA93D90EE
:104098000002120799605CE4F541E54175F005A45A
:1040A800246AF582E43443F583E493FF6015AB3B5F
:1040B800AA3CA93D900002120799FEEF6E60040524
:1040C8004180D7E54175F005A4246AF582E43443BC
:1040D800F583E493601DE54175F005A4246BF9743C
:1040E8004335F07546FFF54789487B017A027937F1
:1040F80012591EAB3BAA3CA93D90000112079960DA
:104108005CE4F541E54175F005A4249CF582E434AE
:1041180043F583E493FF6015AB3BAA3CA93D9000AF
:1041280001120799FEEF6E6004054180D7E54175DD
:10413800F005A4249CF582E43443F583E493601DE0
:10414800E54175F005A4249DF9744335F07546FFE3
:10415800F54789487B017A02793712591E7B017A23
:1041680002793712000E8F42AB3BAA3CA93D1207D9
:104178008014601D14605E24FE700302422624042D
:1041880060030242A47BFF7A4279AE125DA9024223
:10419800A4AB3BAA3CA93D900004120799C330E1A7
:1041A8001A740A9542F546AB3EAA3FA94012078009
:1041B800F5477BFF7A4279B90242A1740A9542F524
:1041C80046AB3EAA3FA940120780F5477BFF7A42DB
:1041D80079BF0242A1AB3BAA3CA93D90000412075B
:1041E80099C330E11D740A9542F546AB3EAA3FA932
:1041F80040120842F54885F0477BFF7A4279C502AC
:1042080042A1740A9542F546AB3EAA3FA94012085E
:1042180042F54885F0477BFF7A4279CA807BAB3B01
:10422800AA3CA93D90000412079930E020C3740A03
:104238009542F546AB3EAA3FA9401209A58F4A8E82
:10424800498D488C477BFF7A4279CF804CAB3BAA9B
:104258003CA93D900004120799C330E11F740A95E8
:1042680042F546AB3EAA3FA9401209A58F4A8E499E
:104278008D488C477BFF7A4279D6801D740A954217
:10428800F546AB3EAA3FA9401209A58F4A8E498D33
:10429800488C477BFF7A4279DC12370D7B017A0222
:0542A8007937125DA949
:0142AD0022EE
:08228D00AB38AA39A93A7DFF24
:102295008D3E8B3B8A3C893D90000112079964383D
:1022A5007003022A99AB3BAA3CA93D12078024FE84
:1022B50070030224FA24FE700302275324036003EB
:1022C500022A9990000412079920E1030223B4AB76
:1022D5003BAA3CA93D900018120A3BC000C001C0B2
:1022E50002C003AC3EEC1203BBD003D002D001D038
:1022F5000012019EC004C005C006C007900227E079
:10230500FC1203BBD003D002D001D0001200AD12E5
:1023150003EF900227EFF0AB3BAA3CA93D900014D8
:102325001209C5900010120A3B1203447003022AD9
:1023350099AB3BAA3CA93D9000101209C5C004C049
:1023450005C006C007900227E0FC1203BBA804A93C
:1023550005AA06AB07D007D006D005D00412034462
:102365005014AB3BAA3CA93D9000101209C51203BD
:10237500EF900227EFF0AB3BAA3CA93D9000141269
:1023850009C5C004C005C006C007900227E0FC12BD
:1023950003BBA804A905AA06AB07D007D006D0053C
:1023A500D00412034460025003022A990224E5E591
:1023B5003EF4704CAB3BAA3CA93D9000101209C5F8
:1023C500C004C005C006C007900227E0FCE4120364
:1023D500BBA804A905AA06AB07D007D006D005D02F
:1023E50004120344701AAB3BAA3CA93D9000141299
:1023F50009C5900010120A3B1203446003022A9992
:10240500AB3BAA3CA93D900018120A3BC000C00195
:10241500C002C003AC3EEC1203BBD003D002D00116
:10242500D00012019EC004C005C006C00790022757
:10243500E0FCE41203BBD003D002D001D0001200AF
:10244500AD1203EF900227EFF0AB3BAA3CA93D90FC
:1024550000141209C5900010120A3B1203447003C0
:10246500022A99AB3BAA3CA93D9000101209C5C0B0
:1024750004C005C006C007900227E0FCE41203BBB8
:10248500A804A905AA06AB07D007D006D005D00435
:102495001203445014AB3BAA3CA93D90001012090D
:1024A500C51203EF900227EFF0AB3BAA3CA93D9084
:1024B50000141209C5C004C005C006C00790022754
:1024C500E0FCE41203BBA804A905AA06AB07D007E4
:1024D500D006D005D00412034460025003022A99A5
:1024E500AB3BAA3CA93D9000141209C51203EF901D
:1024F5000227EFF022AB3BAA3CA93D90000412074E
:102505009920E1030225F8900018120A3BC000C08B
:1025150001C002C003AC3EEC1203BBD003D002D015
:1025250001D00012019EC004C005C006C00790027C
:1025350027E0FCA3E0FDEC1203B6D003D002D001E6
:10254500D0001200AD1203EF900227EEF0A3EFF0DA
:10255500AB3BAA3CA93D9000141209C5900010128E
:102565000A3B1203447003022A99AB3BAA3CA93DDE
:102575009000101209C5C004C005C006C00790022E
:1025850027E0FCA3E0FDEC1203B6A804A905AA0602
:10259500AB07D007D006D005D0041203445017ABC3
:1025A5003BAA3CA93D9000101209C51203EF900209
:1025B50027EEF0A3EFF0AB3BAA3CA93D9000141227
:1025C50009C5C004C005C006C007900227E0FCA3EA
:1025D500E0FDEC1203B6A804A905AA06AB07D007CF
:1025E500D006D005D00412034460025003022A9994
:1025F50002273BE53EF4704FAB3BAA3CA93D90005A
:10260500101209C5C004C005C006C007900227E026
:10261500FCA3E0FDE41203B6A804A905AA06AB07CE
:10262500D007D006D005D004120344701AAB3BAADC
:102635003CA93D9000141209C5900010120A3B12E6
:1026450003446003022A99AB3BAA3CA93D900018BC
:10265500120A3BC000C001C002C003AC3EEC12032D
:10266500BBD003D002D001D00012019EC004C0052A
:10267500C006C007900227E0FCA3E0FDE41203B604
:10268500D003D002D001D0001200AD1203EF9002AA
:1026950027EEF0A3EFF0AB3BAA3CA93D9000141246
:1026A50009C5900010120A3B1203447003022A99CF
:1026B500AB3BAA3CA93D9000101209C5C004C0055A
:1026C500C006C007900227E0FCA3E0FDE41203B6B4
:1026D500A804A905AA06AB07D007D006D005D004E3
:1026E5001203445017AB3BAA3CA93D9000101209B8
:1026F500C51203EF900227EEF0A3EFF0AB3BAA3C27
:10270500A93D9000141209C5C004C005C006C00744
:10271500900227E0FCA3E0FDE41203B6A804A90596
:10272500AA06AB07D007D006D005D0041203446033
:10273500025003022A99AB3BAA3CA93D9000141212
:1027450009C51203EF900227EEF0A3EFF022AB3B91
:10275500AA3CA93D90000412079920E00302281520
:10276500900227E0F8A3E0F9A3E0FAA3E0FBC0009C
:10277500C001C002C003AB3BAA3CA93D90001812A2
:102785000A3BC000C001C002C003AC3EEC1203BB53
:10279500D003D002D001D00012019ED003D002D0C8
:1027A50001D0001200AD900227120A77AB3BAA3C7C
:1027B500A93D9000101209C5900227E0F8A3E0F9A1
:1027C500A3E0FAA3E0FB1203445012AB3BAA3CA9D9
:1027D5003D9000101209C5900227120A77AB3BAA5B
:1027E5003CA93D9000141209C5900227E0F8A3E02A
:1027F500F9A3E0FAA3E0FB12034460025003022AA6
:1028050099AB3BAA3CA93D9000141209C5022A9335
:10281500AB3BAA3CA93D90000412079920E10302B5
:102825002930900018120A3BC000C001C002C00345
:10283500AC3EEC1203BBD003D002D001D000120194
:102845009EC004C005C006C007900227E0FCA3E0B7
:10285500FDA3E0FEA3E0FFEC1203B1D003D002D04C
:1028650001D0001200AD1203EF900227120A77ABD8
:102875003BAA3CA93D9000141209C5900010120A0C
:102885003B1203447003022A99AB3BAA3CA93D9035
:1028950000101209C5C004C005C006C00790022774
:1028A500E0FCA3E0FDA3E0FEA3E0FFEC1203B1A86A
:1028B50004A905AA06AB07D007D006D005D0041297
:1028C50003445015AB3BAA3CA93D9000101209C525
:1028D5001203EF900227120A77AB3BAA3CA93D9061
:1028E50000141209C5C004C005C006C00790022720
:1028F500E0FCA3E0FDA3E0FEA3E0FFEC1203B1A81A
:1029050004A905AA06AB07D007D006D005D0041246
:10291500034460025003022A99AB3BAA3CA93D90AF
:1029250000141209C51203EF022A93E53EF470550F
:10293500AB3BAA3CA93D9000101209C5C004C005D7
:10294500C006C007900227E0FCA3E0FDA3E0FEA3BC
:10295500E0FFE41203B1A804A905AA06AB07D00756
:10296500D006D005D004120344701AAB3BAA3CA98B
:102975003D9000141209C5900010120A3B12034441
:102985006003022A99AB3BAA3CA93D900018120AA4
:102995003BC000C001C002C003AC3EEC1203BBD07B
:1029A50003D002D001D00012019EC004C005C006AC
:1029B500C007900227E0FCA3E0FDA3E0FEA3E0FF33
:1029C500E41203B1D003D002D001D0001200AD1241
:1029D50003EF900227120A77AB3BAA3CA93D900072
:1029E500141209C5900010120A3B12034470030229
:1029F5002A99AB3BAA3CA93D9000101209C5C00419
:102A0500C005C006C007900227E0FCA3E0FDA3E0D7
:102A1500FEA3E0FFE41203B1A804A905AA06AB07CB
:102A2500D007D006D005D0041203445015AB3BAAFD
:102A35003CA93D9000101209C51203EF9002271220
:102A45000A77AB3BAA3CA93D9000141209C5C00406
:102A5500C005C006C007900227E0FCA3E0FDA3E087
:102A6500FEA3E0FFE41203B1A804A905AA06AB077B
:102A7500D007D006D005D00412034460174015AB2B
:102A85003BAA3CA93D9000141209C51203EF900220
:052A950027120A772260
:105CE6008F3BE92405F9E43AFA78377C027D017E98
:105CF600007F0812075AE490023FF0853B4675473D
:105D0600017548027549377BFF7A4279E212370DF1
:095D16007BFF7A4279EA025DA9E3
:10316F00302318125ED8E47B2C7A01F9F8C31209C8
:10317F008140030236AAC223125EE5125ED8A8046C
:10318F00A905AA06AB07900233E0FCA3E0FDA3E07C
:10319F00FEA3E0240AFFE43EFEE43DFDE43CFCD345
:1031AF0012098150030236AA125ED8900233120A16
:1031BF0077202A10C208123B1AEF700302369AD2F8
:1031CF002A02369A3029117538FF753944753A1429
:1031DF00E56E147888F680107538FF753919753AD1
:1031EF0078786FE6147988F77888E6FFC3940350F0
:1031FF0005E408F68015E56D7002800CE56DB507E6
:10320F000424FE8003E56D147889F6E47887F67858
:10321F0087E6FDC394034003023329E4FF125EA344
:10322F007887E6FF7889E62FFFE433FE7C00EFB561
:10323F006D08ECB506047F3E80027F20125EB778E2
:10324F0087E6FD7F01125EA37887E6FF7889E62F78
:10325F00FFE433FE18E6FDD3EF9D7480F86E9840BF
:10326F000C7BFF7A4279F312370D0233237887E60E
:10327F00FF7889E62FFFE433FE7C007D1F1207FAEB
:10328F00AB38E53A2FF9E5393EFAC0017989E7788D
:10329F008726FFD001125CE67887E6FD7F0A125E73
:1032AF00A33024307887E6FF7889E62FFFE433FEDA
:1032BF007C00EFB56D1EECB5061A7D1F1207FAAB39
:1032CF0038E53A2FF9E5393EFA753E01753F02753B
:1032DF004027803D7887E6FF7889E62FFFE433FEAD
:1032EF007C007D1F1207FAAB38E53A2FF9E5393E1E
:1032FF00FAC003C002C001E53A2FF9E5393EFA9052
:10330F00000D120AD08B3E8A3F8940D001D002D0E7
:10331F000312406278870602321EE56D75F01FA416
:10332F003029072414F9744480052478F974193569
:10333F00F07538FFF539893A2024030234E07D0314
:10334F00E4FF125EA37BFF7A437907125DA9201772
:10335F0005302502C22430185220264FC224AB3824
:10336F00AA39A93A120780FF7E0090000D120AD0E9
:10337F00A801AC02AD037B017A02792712075A30FC
:10338F002910E56D600464017021D21B787A76F103
:10339F008019AF6D124CE2AB38AA39A93A900004EC
:1033AF0012079930E505AF6D12514D30190F2027D7
:1033BF000C12228D125ED890022B120A7730192D23
:1033CF00125ED8A804A905AA06AB0790022BE0FC51
:1033DF00A3E0FDA3E0FEA3E02446FFE43EFEE43DB0
:1033EF00FDE43CFCD3120981400312228D301936C3
:1033FF00125ED8A804A905AA06AB0790022BE0FC21
:10340F00A3E0FDA3E0FEA3E024F4FFEE3401FEE40D
:10341F003DFDE43CFCD3120981400BAB38AA39A91E
:10342F003A7DF712229520190A90022B120A830077
:10343F00000000301A17202814AB38AA39A93A7D9A
:10344F0001122295125ED890022F120A77301A3588
:10345F00125ED8A804A905AA06AB0790022FE0FCBC
:10346F00A3E0FDA3E0FEA3E02446FFE43EFEE43D1F
:10347F00FDE43CFCD3120981400BAB38AA39A93AC1
:10348F007D01122295301A36125ED8A804A905AA1A
:10349F0006AB0790022FE0FCA3E0FDA3E0FEA3E044
:1034AF0024F4FFEE3401FEE43DFDE43CFCD31209AD
:1034BF0081400BAB38AA39A93A7D09122295301AEF
:1034CF000302369A90022F120A8300000000023680
:1034DF009A7D03E4FF125EA3AB38AA39A93A900094
:1034EF00181209C5E4FBFAF9F8120344400FAB3880
:1034FF00AA39A93A90000412079930E2087BFF7AA3
:10350F0043791C80067BFF7A437931125DA920171E
:10351F0014302511302907C229E4F56D8007C22A1E
:10352F00D208123B1A30186C202669AB38AA39A979
:10353F003A120780FFD394045018EF94004013D22F
:10354F00247E0090000D120AD078277C027D011294
:10355F00075A302935E56D6402702FD21B787A76C1
:10356F00F1125EE5E4FDFF125EA37BFF7A4379461D
:10357F00125DA97D01E4FF125EA37BFF7A437959A7
:10358F00125DA97FB87E0B125DD3302907E56DB4AC
:10359F000302D21D30192120271EE56D700F20293F
:1035AF0005786FE68002E56E14F56D8002156D12D9
:1035BF005ED890022B120A7730193F125ED8A804FA
:1035CF00A905AA06AB0790022BE0FCA3E0FDA3E040
:1035DF00FEA3E02446FFE43EFEE43DFDE43CFCD3C5
:1035EF001209814015E56D700F202905786FE6806F
:1035FF0002E56E14F56D8002156D20190A90022BED
:10360F00120A83000000003029067887A66E800614
:10361F00786FE67887F6301A1B202818E56D04FFBF
:10362F007887E6FEEF8EF08485F06D125ED89002FB
:10363F002F120A77301A39125ED8A804A905AA06E4
:10364F00AB0790022FE0FCA3E0FDA3E0FEA3E02474
:10365F0046FFE43EFEE43DFDE43CFCD3120981400D
:10366F000FE56D04FF7887E6FEEF8EF08485F06D31
:10367F00201A0A90022F120A830000000030190B43
:10368F00301A08202905E4F56DD229A2179225A238
:0B369F00189226A2199227A21A922866
:0136AA0022FD
:1000A60002045BE86480F8E933E83360110460F029
:1000B600ED33EC337009E8FCE9FDEAFEEBFF2204C0
:1000C60060DED3EB9FEA9EE99DE8C2E78CF0C2F7BB
:1000D60095F0400CE8CCF8E9CDF9EACEFAEBCFFB87
:1000E60012042685D0F05804700320D5B3E80470B6
:1000F600075002B2D502046592D5EC0460F7E4CC51
:10010600C0E0C398F8603B94186008400DD0E0FB4F
:1001160002043DE4FBFAC9FC8028E830E406E4C9A1
:10012600FBE4CAFCE830E305E4C9CACBFCE85407A3
:100136006010F8C3E913F9EA13FAEB13FBEC13FCAE
:10014600D8F130F52FC3E49CFCEF9BFFEE9AFEED51
:1001560099FDD0E0FBEF4E4D4C701222DB030204FA
:1001660062EC2CFCEF33FFEE33FEED33FDED30E7B2
:10017600EB02043DEF2BFFEE3AFEED39FDD0E0FB3E
:1001860050130BBB0003020465ED13FDEE13FEEFE7
:0801960013FFEC13FC02043D11
:10019E00EC4D6011E8497017ED33EC3304600DE45B
:1001AE00FCFFFEFD22E933E8330470F802045B1213
:1001BE00042658046009E4CC248150062850090214
:1001CE000465284003020462C0E0EB4A7044B98023
:1001DE0006D0E0FB020451EF4E701CBD8008EBFF11
:1001EE00EAFEE9FD80EBE98DF0A4FEE5F002028760
:1001FE00E9CDF9EAFEEBFFEF89F0A4FCE5F0CE893C
:10020E00F0A42EFFE435F0CD89F0A42DFEE435F0F8
:10021E008067EF4E7005BD80D780C3EF8BF0A4AC26
:10022E00F0EE8BF0A42CFCE435F0F8EF8AF0A42C61
:10023E00E5F038FCE433CB8DF0A42CFCE5F03BF874
:10024E00EE8AF0A42CFCE5F038F8E433CF89F0A464
:10025E002CFCE5F038CF3400CE89F0A42FFFE5F06A
:10026E003EFEE433C98DF0A42EFEE5F039CD8AF0C2
:10027E00A42FFFE5F03EFEE43DFD33D0E0FB50073A
:10028E000BBB000F020465EC2CFCEF33FFEE33FECC
:06029E00ED33FD02043DFA
:1002A400020465EC5D046005E85904700302045B14
:1002B400120426580460F6EC4860F2EC7004FDFE6B
:1002C400FF22C860DB2481C85009C398600250062D
:1002D4000204629850CAF582E9294B4A7005AB8240
:1002E40002045175F0007C1A7880C3EF9BEE9AEDFE
:1002F40099400DC3EF9BFFEE9AFEED99FDE842F0A5
:10030400DC23ACF0D0E0FFD0E0FED0E0FDAB8220F7
:10031400E7101BEB60BAEC2CFCEF33FFEE33FEED81
:1003240033FD02043DE803F830E705C0F075F00042
:10033400EF2FFFEE33FEED33FD40B830E7C280AA65
:1003440074F8CC6480CCC86480C8F582046043C36C
:10035400EB9FF5F0EA9E42F0E99D42F0E89C45F0FF
:1003640060305018E5825FFFE582F42B5582FB5024
:10037400210ABA001D09B90019088016E5825BFB41
:10038400E582F42F5582FF50090EBE00050DBD0015
:10039400010CC3EB9FF5F0EA9E42F0E99D42F0E8C0
:0D03A4009C45F06007CC4820E701B3EC2237
:1003B10075F020800E75F010800575F0087D007EC7
:1003C100007F003392D530D503120973EC3340100E
:1003D100EF33FFEE33FEED33FDEC33FCD5F0ED22D0
:0E03E100E5F0247EA2D513CC92E7CDCEFF220C
:1003EF00EDD2E7CD33EC3392D524814006E4FFFE06
:1003FF00FDFC22FCE4CFCECDCC24E0501174FF8065
:10040F00EDC3CC13CCCD13CDCE13CECF13CF047001
:07041F00F030D5DE02097385
:1036AB00E55A2446F8E6055A22784330100278464C
:1036BB00E475F001120AC00207802009EB7F2ED2BD
:1036CB00098018EF540F2490D43440D4FF300D0BE5
:1036DB00EF24BFB41A0050032461FFE55B600215B1
:1036EB005B055EE55E7002055D30100D7843E47599
:1036FB00F001120AC0EF0207C6025EB77403D210C4
:10370B008003E4C210F55A8B438A448945E4F55B88
:10371B00F55DF55EE55B60077F201236E680F5759B
:10372B005CFFC20AC209C20BC20CC20EC20FC2118D
:10373B001236B4FF700D3010057F001236F7AF5EF6
:10374B00AE5D22B4255FC2D5C20D1236B4FF24D0B4
:10375B00B40A00501A75F00A785B30D50508B6FF2D
:10376B000106C6A426F620D5047002D20C80D924FB
:10377B00CFB41A00EF5004C2E5D20D0239E4D20ADD
:10378B0080C6D20980C0D20B80BCD2D580BAD20EF3
:10379B0080B47F201236E6200B077401B55B004026
:1037AB00F11236ABFF1236E602371FD211D20F8061
:1037BB00951236ABFB1236ABFA1236ABF94A4B709D
:1037CB000679DB7A3A7BFF200B2EE55B602A7E00C5
:1037DB008E8275830012079960060EEE655C70F0A1
:1037EB00C2D5EBC0E0EAC0E0E9C0E0EE123A44D04B
:1037FB00E0F9D0E0FAD0E0FB120780FF60AAEBC043
:10380B00E0EAC0E0E9C0E01236E6D0E02401F9D0EE
:10381B00E03400FAD0E0FBE55C0460DCD55CD980D9
:10382B0087D20B80A2123A2760F7E55C7001041275
:10383B00049BA95C600DE55C600914F55C123ACE43
:10384B00EF60F3EA30E702F404C3995077EAF4250A
:10385B005C0430E701E404F55C800D123A2760C18B
:10386B00EA055C255C12049BEA7859F630E701E423
:10387B00255C04D55C04200E0114123A44E4C0E02C
:10388B00123ACE7859E6601320E70714F61236CEBB
:10389B00802204F6D0E014C0E07F001236CEE55C47
:1038AB0060071236C5155C800B300E031236C5D07F
:1038BB00E002371FD0E00480C5123A2760A0E55C18
:1038CB000412049B7859EAF6E55C200E02600104B1
:0538DB002404123A4430
:1038E00074FF04C0E0123ACE1236CEE55C200E0220
:1038F00060031236C5D0E0B55CE87F451236D87853
:1039000059E67F2B30E7047F2DF404C0E01236E641
:10391000D0E075F00A84C0F01236CFD0E01236CF76
:1039200002371F791080027908C20FC2118008D2B5
:10393000D5790A8004790AC2D5E55C047002F55C89
:10394000E4FAFDFEFF1236ABFC7B08200A131236A8
:10395000ABFD7B1030090A1236ABFE1236ABFF7B93
:1039600020EC3382D592D55013C3E43009069FFF73
:10397000E49EFEE4200A039DFDE49CFCE4CBF8C237
:103980000AEC700CCFCECDCCE824F8F870F3801799
:10399000C3EF33FFEE33FEED33FDEC33FCEB33FBD3
:1039A000994002FB0FD8E9EB300A05F8D0E0C44893
:1039B000B20AC0E00AEC4D4E4F78207B0070C2EA9C
:1039C000B55C0040BCC0E0123A46D0F0D0E0200A1E
:1039D00004C4C0E0C4B20AC0F01236CFD0F0D5F0B3
:1039E000EB02371F120B0037BC53392358378D4C6D
:1039F00037894239274F392F44392F4937A2433964
:103A0000355538664638C4453830473AFB5037910B
:103A10002D37952E37B82B37992337B6203AE42A1D
:103A2000375148000037B0E55CB4FF03755C0612FF
:103A300036ABFC1236ABFD1236ABFE1236ABFF785E
:103A4000520204CA790AA2D5200C14300E09B9100A
:103A5000020404B9080104A2D5200F025001042079
:103A60000B68920BB55B005034C0E07F20300C191E
:103A70007F30A20B720F720E500F123A9DC20BC212
:103A80000FC20EC2117F30800F300E03E9C0E0126A
:103A900036E6300E03D0E0F9D0E0B55BCC300E173F
:103AA0007F30B9100C1236E67F58300D077F7880D2
:103AB00003B908031236E6300B057F2D0236E67F88
:103AC000202011F87F2B200FF322920B80CF7F0054
:103AD000B4070050052452F8E6FF22286E756C6C7E
:103AE0002900D20A1236AB300AF8C20A785B30D508
:103AF0000108F60237512D504349581236AB2403C2
:103B0000B405004001E4903AF6931236D7743A12A5
:0A3B100036D7D20C755B040239238E
:104F56008F558E548D538C5274FFFFFEFDFCAB555E
:104F6600AA54A953A852C3120981602C7F807E9649
:104F76007D187C4BAB55AA54A953A8521203446022
:104F86000250157F807E967D187CCBAB55AA54A91E
:104F960053A8521203445009AF55AE54AD53AC5208
:104FA60022AF55AE54AD53AC521203EF8F598E5803
:104FB6008D578C56EC1203B1C8ECC8C9EDC9CAEEC0
:104FC600CACBEFCBAF55AE54AD53AC521200A9E4E9
:104FD600FBFAF9F8120344601A401874FF2559F5D4
:104FE60059E55834FFF558E55734FFF557E556347B
:104FF600FFF556AF59AE58AD57AC56EC1203B12279
:1049B0008F3B8E3A8D398C38E4FFFE7D807C3FAB97
:1049C0003BAA3AA939A8381203447009AF3BAE3A62
:1049D000AD39AC3822AF3BAE3AAD39AC38120470C9
:1049E000FBAF3FAE3EAD3DAC3C120470FFBF0108D3
:1049F000E4FFFE7D807C3F22EF64046022EB6404D0
:104A0000601DBB0127E4FFFEFDFCAB3FAA3EA93DB4
:104A1000A83C12034460084006E4FFFEFDFC22743B
:104A2000FFF53FF53EF53DF53C024ABEE4F540F5A5
:104A300041FFFEFDFCAB3BAA3AA939A8381203445A
:104A4000504BAF3FAE3EAD3DAC3C1203EF8E408FBE
:104A500041AC40AD41EC1203B6C8ECC8C9EDC9CABF
:104A6000EECACBEFCBAF3FAE3EAD3DAC3C1200A9A2
:104A7000E4FBFAF9F812034470A5AF3BAE3AAD3946
:104A8000AC3812048A8F3B8E3A8D398C38AF3BAEEE
:104A90003AAD39AC38124794AB3FAA3EA93DA83C89
:104AA00012019E1252208F3F8E3E8D3D8C3CE5417F
:104AB00030E00B12048A8F3F8E3E8D3D8C3CAF3F21
:074AC000AE3EAD3DAC3C220F
:10042600E9D2E7C933E833F892D5EDD2E7CD33EC1C
:0704360033FC5002B2D52295
:10043D00EC30E7100FBF000C0EBE00080DBD000420
:10044D000BEB6014A2D5EB13FCED92E7FD2274FFCC
:10045D00FCFDFEFF22E480F8A2D574FF13FC7D8025
:03046D00E480EF39
:10047000ED33EC33601004700FED547F700574029F
:0A04800092E2227404220422E42216
:10048A00ED33EC33600A047003BD8004ECB2E7FC80
:01049A00223F
:10049B00F920E72824F950037907E4F42402FB1828
:1004AB00DBFDE624FB5014E9600DE4F618E604F6D8
:0F04BB00B40A08E4F6D9F57401F60A22C2D52274
:1004CA00ED33EC3392D5FA602AB4FF33EDC2E77B01
:1004DA00FF60067A0479EFE4227A0479F820D504D9
:1004EA007A0479F3224E614E002B494E46002D497B
:1004FA004E4600E47A08F608DAFC7B00740722E824
:10050A00C0E0ECC0E0EDC0E0EEC0E0EFC0E0EA75AC
:10051A00F010A4CAABF075F04DA42BFBE435F0FC47
:10052A00EA2410FAEB34C5FBEC34D9FCEDC2E7FF40
:10053A0075F056A4F42411C5F0F434C58FF0A42A3A
:10054A00E5F03BE43CF620E7141205FDD0E0FFD0CD
:10055A00E0FED0E0FDD0E0FC1202A78014F4041201
:10056A0005FDD0E0FFD0E0FED0E0FDD0E0FC1201B6
:10057A009ED0E0F8E6FAEDD2E7CD33EC332482FBE5
:10058A00E4C3CF33CFCE33CECD33CD33DBF37B07CA
:10059A0075F00A846004F6081B0AE5F0F6088FF085
