:100C490020002A2A2000202A2A00202041646472D8
:100C59006573733A202020253034580020205265CE
:100C6900766973696F6E3A202025730054313A20F2
:100C790025352E316620430054323A2025352E3150
:100C89006620430054333A2025352E31662043002F
:100C990054343A2025352E31662043004C4E324FCC
:100CA9004646004C4E324F4E20004854524F46465D
:100CB900004854524F4E00425453002449643A208C
:100CC9007363735F313030315F6274732E632C76D6
:100CD90020312E3120323030352F30372F31352029
:100CE90031353A30313A3337207269747420457896
:100CF9007020240001340000004572726F720000F8
:100D090000010001000000000000000000000000D8
:100D19000000000134000000537461746500000094
:100D290001000200000000411000003F80000000A7
:100D3900000001340000004B41204F757400000190
:100D490000030000000040E000003F8000000000B8
:100D59000001340000004B4120496E0000000100F1
:100D69000400000000000000000000000000000076
:100D7900045A0000014B41204C6576656C01000561
:100D89000000000000000000000000000000000159
:100D9900320000004C4E3220766C76650100090065
:100DA9000000003F8000003F800000000000013289
:100DB9000000004C4E32206874720001000A0000E5
:100DC90000003F8000003F80000000000004080090
:100DD90000014C4E32766C76205401000B00000065
:100DE90000000000000000000000000004080000EE
:100DF900014C4E32687472205401000F000000004B
:100E09000000000000000000000000045A0000017A
:100E19004A5420766C766531010013000000000009
:100E290000000000000000000000045A0000014A10
:100E39005420766C7665320100170000000000002E
:100E490000000000000000000004080000014A54EE
:100E590020540000000001001B00000000000000F9
:100E69000000000000000000045A0000014C486521
:100E7900206C766C3101001F0000000000000000AA
:100E890000000000000000045A0000014C486520E1
:100E99006C766C32010023000000000000000000A5
:100EA90000000000000004080000014C4E322054EC
:100EB90031000001002700000000000000000000D0
:100EC900000000000004080000014C4E322054329A
:100ED900000001002B0000000000000000000000DD
:100EE9000000000004080000014C4E322054330079
:100EF9000001002F000000000000000000000000B9
:100F090000000004080000014C4E32205434000057
:100F19000100330000000000000000000000000094
:100F2900000004080000014C48452054310000012C
:100F39000037000000000000000000000000000071
:100F49000004080000014C4845205432000001000B
:100F59003B0000000000000000000000000000004D
:100F690004080000014C4845205433000001003FAB
:100F79000000000000000000000000000000000464
:100F8900080000014C48452054340000010043008A
:100F9900000000000000000000000000000004083C
:100FA9000000014C4845205435000001004700006D
:100FB900000000000000000000000000000408001C
:100FC90000014C4845205436000001004B00000048
:100FD9000000000000000000000000000416FD00F1
:100FE900014C4E32205000000001004F000000006B
:100FF90000000000000000000000000416FD0001D0
:101009004C4845205000000001005300000000003A
:101019000000000000000000000004180000015159
:1010290075656E636831000100570000000000001B
:1010390000000000000000000004180000015175C4
:10104900656E6368320001005B000000000000006B
:10105900000000000000000004180000094144439A
:10106900300000000001005F0000000000000000E7
:101079000000000000000004180000094144433149
:1010890000000000010063000000000000000000F3
:101099000000000000000418000009414443320028
:1010A90000000001006700000000000000000000CF
:1010B9000000000000041800000941444333000007
:1010C900000001006B0000000000000000000000AB
:1010D90000000000041800000941444334000000E6
:1010E9000001006F00000000000000000000000087
:1010F90000000004180000094144433500000000C5
:101109000100730000000000000000000000000062
:1011190000000418000009414443360000000001A2
:10112900007700000000000000000000000000003F
:101139000004180000094144433700000000010081
:101149007B0000000000000000000000000000001B
:101159000418000009414F46533000000001007F88
:10116900BDCCCCCD3DCCCCCD3A83126F0000000470
:1011790018000009414F465331000000010083BDAA
:10118900CCCCCD3DCCCCCD3A83126F0000000418F5
:10119900000009414F465332000000010087BDCCD1
:1011A900CCCD3DCCCCCD3A83126F000000041800A1
:1011B9000009414F46533300000001008BBDCCCCE0
:1011C900CD3DCCCCCD3A83126F000000041800004D
:1011D90009414F46533400000001008FBDCCCCCDEE
:1011E9003DCCCCCD3A83126F0000000418000009F1
:1011F900414F465335000000010093BDCCCCCD3D95
:10120900CCCCCD3A83126F000000041800000941CC
:101219004F465336000000010097BDCCCCCD3DCCE4
:10122900CCCD3A83126F0000000418000009414F29
:1012390046533700000001009BBDCCCCCD3DCCCC42
:10124900CD3A83126F000000045D00000941474157
:10125900494E30000001009F3F6666663F8CCCCD49
:101269003A83126F000000045D00000941474149BB
:101279004E3100000100A33F6666663F8CCCCD3A33
:1012890083126F000000045D000009414741494E87
:101299003200000100A73F6666663F8CCCCD3A83D9
:1012A900126F000000045D000009414741494E33B7
:1012B90000000100AB3F6666663F8CCCCD3A8312D5
:1012C9006F000000045D000009414741494E3400A8
:1012D900000100AF3F6666663F8CCCCD3A83126F42
:1012E900000000045D000009414741494E350000F6
:1012F9000100B33F6666663F8CCCCD3A83126F001E
:101309000000045D000009414741494E36000001D3
:1013190000B73F6666663F8CCCCD3A83126F0000FA
:1013290000045D000009414741494E3700000100B2
:10133900BB3F6666663F8CCCCD3A83126F000000D6
:1013490004180000193931305F303000000100BF46
:10135900000000000000000000000000000100047F
:10136900180000193931305F303100000100C30025
:101379000000000000000000000000000101041846
:101389000000193931305F303200000100C7000018
:101399000000000000000000000000010204180025
:1013A90000193931305F303300000100CB000000F3
:1013B9000000000000000000000001030418000004
:1013C900193931305F303400000100CF00000000CE
:1013D90000000000000000000001040418000019CA
:1013E9003931305F303500000100D30000000000C2
:1013F9000000000000000000010504180000193970
:1014090031305F303600000100D7000000000000D5
:10141900000000000000000106041800001939311D
:10142900305F303700000100DB00000000000000E1
:10143900000000000000010700000000000000009B
:101449000000000000000000000000000000000093
:07145900000000000000008C
:0F48AC00019801C113C114C115C11641000000CC
:02357D008F3984
:10357F007D007F02124BA3E4F584F5BA75BCE075AC
:10358F00E880F5D1F58475D102F58475D480758402
:10359F000175D48075840F75A4F575A5BF75A6FF49
:1035AF0075A7FFE5396036E4F53AE53A25E025E001
:1035BF00247FF582E43400F5831209B50000000082
:1035CF00E53A25E025E0249FF582E43400F58312E7
:1035DF0009B53F800000053AE53AB408CDE4F53A65
:1035EF00AF3A123B36053AE53AC3940440F27D08F0
:1035FF007F0112485BE4FDFF124C4AE4F53A7B0071
:10360F007A00796A12000E7C007D0212080CC374D6
:10361F00079FFFE49EFEC3E53A9FEE6480F8748037
:10362F0098500D7BFF7A0C7949124B50053A80CE9A
:10363F007BFF7A0C794B124B507B007A00796A1220
:10364F004B507BFF7A0C794F124B507D01E4FF12E8
:10365F004C4A7BFF7A0C7953856444856545122863
:10366F00007D02E4FF124C4A78AF7C017D017BFFA5
:10367F007A0C79DB120B247B017A0179AF7D201252
:10368F004C2EE41207C67544017545017546AF7B94
:10369F00FF7A0C7965122800E4900001F0A3F0A3E3
:0936AF0004F0E4900009F0A3F01E
:0136B80022EF
:0C3B3600157CA87CEFF6E57C24FAF57CF9
:103B42002406F8E624FB603614603F24FD60472417
:103B5200076003023C32900003E0FF20E003D380C1
:103B620001C392B6EF20E103D38001C392B5900066
:103B720003E020E203D38001C392B4023C329000FE
:103B820009E024FFB392B0023C3290000AE024FF25
:103B9200B392B7023C32E4FFFE7D807C4190001379
:103BA200E0F8A3E0F9A3E0FAA3E0FB12019EE4FB34
:103BB200FA79C878421202A7E4FBFA7980784012B7
:103BC20000ADA87C12099DE4FBFA79A07841E8C017
:103BD200E0A87C120941D0E0F81202A7E4FBFA79CE
:103BE20080784512019E1203EFE57C2404F8EEF67C
:103BF20008EFF6E57C2404F9C3E79410400AE57C5B
:103C02002404F8760F0876FFE57C2404F9C3E794D0
:103C1200005009E57C2404F8E4F608F6E4F584E5AE
:103C22007C2404F808E6F5D2E57C2404F9E7F5D310
:073C3200E57C2407F57C226C
:054C9C008F307F0022B3
:104B23008B308A318932120780AB33AA34A935120C
:104B330007C6AB30AA31A932900001120799AB33F3
:0D4B4300AA34A9359000011207D87F022284
:0A32B2008E368F378B388A39893A3F
:1032BC00E4F584E537540FF5BB75BCE07541047536
:1032CC004200E4F53EF53DF53CF53BF53FF540C3DA
:1032DC00E5409542E53F9541503AC2AFE4F584C2D2
:1032EC00EDD2EC30EDFDD2AFAFBFEFFEADBEEDFFDA
:1032FC00E4FCFDE53E2FF53EE53D3EF53DED353C70
:10330C00F53CEC353BF53B1241140540E54070BFF4
:10331C00053F80BBAF3EAE3DAD3CAC3B78061208E2
:10332C00C48F3E8E3D8D3C8C3BC3E5379402E53615
:10333C00648094805024E41203B1E4FBFA79807821
:10334C00471202A7E4FBFA79A0784112019EE4FB34
:10335C00FA792078C11200AD8020AF3EAE3DAD3C75
:10336C00AC3BE41203B1E4FBFA798078471202A774
:10337C00E4FBFA7920784112019E8F468E458D44EC
:10338C008C43AF46AE45AD44AC43ECC0E0EDC0E081
:10339C00EEC0E0EFC0E0E537AE367802C333CE3393
:1033AC00CED8F9247FF58274003EF583E0F8A3E0D3
:1033BC00F9A3E0FAA3E0FBD0E0FFD0E0FED0E0FD03
:1033CC00D0E0FC1200A98F468E458D448C43ECC096
:1033DC00E0EDC0E0EEC0E0EFC0E0E537AE367802DD
:1033EC00C333CE33CED8F9249FF58274003EF583D7
:1033FC00E0F8A3E0F9A3E0FAA3E0FBD0E0FFD0E013
:10340C00FED0E0FDD0E0FC12019E8F468E458D442F
:0F341C008C43C2AFAB38AA39A93A120927D2AFF5
:01342B00227E
:103D2000C297D296D2957F017E00124545C295E496
:103D3000F536309603433604D2977F017E00124554
:103D400045C2977F017E00124545309603433608F1
:103D5000D2977F017E00124545C2977F017E0012F7
:103D60004545309603433601D2977F017E001245C8
:103D700045C2977F017E00124545309603433602C7
:103D8000D2977F017E00124545C2977F017E0012C7
:103D90004545E5365407900004F0A296921AD29752
:103DA0007F017E00124545C2977F017E0012454586
:103DB000A2969219D2977F017E00124545C2977F45
:103DC000017E00124545A2969218D2977F017E008F
:103DD000124545C2977F017E00124545A296921773
:013DE00022C0
:1037EE00300803124C7EE4FDFF124C4A7BFF7A0C2C
:1037FE007975900027E0FCA3E0FDA3E0FEA3E0F5C1
:10380E00478E468D458C44122800E4FD7F0A124CEB
:10381E004A7BFF7A0C798190002BE0FCA3E0FDA39C
:10382E00E0FEA3E0F5478E468D458C44122800E459
:10383E00FDFF124C4A7BFF7A0C798D90002FE0FC35
:10384E00A3E0FDA3E0FEA3E0F5478E468D458C4434
:10385E00122800E4FD7F0A124C4A7BFF7A0C7999FC
:10386E00900033E0FCA3E0FDA3E0FEA3E0F5478E5D
:10387E00468D458C441228007D03E4FF124C4A907D
:10388E000009E07BFF60067A0C79A580047A0C793A
:10389E00AC1228007D037F08124C4A90000AE07B90
:1038AE00FF60067A0C79B380047A0C79BA1228007C
:1038BE00301714201311900009E070047F0180026C
:1038CE007F00900009EFF030191420151190000AB6
:1038DE00E070047F0180027F0090000AEFF0200864
:1038EE0009201A063016037F0122A2179213A2187E
:0C38FE009214A2199215A21A92167F00D3
:01390A00229A
:10435800900000E075F004A4245FF9740035F0FAC9
:104368007B01E0FF7E001232B2900000E0703D7FDA
:10437800427E607DD57C3F90005FE0F8A3E0F9A322
:10438800E0FAA3E0FB12019E7BAE7A47793578C14B
:104398001200AD8F3D8E3C8D3B8C3A7F007E007DB8
:1043A800207C4112390B90004F1209A9900000E0BF
:1043B800FBB40214900067E0FCA3E0FDA3E0FEA3B9
:1043C800E0FF90001B1209A9EB045407900000F0CD
:0643D800123D2002226BE1
:104C100020202020557067726164696E6700202033
:0E4C200020204669726D776172652E2E2E007F
:1048BB000188000163FF4200E9FFFF4400EB0000A9
:0248CB000000EB
:102C0D00E47888F675FFDE75FFAD75840F75A4F554
:102C1D0075A5BFF5A675A7FF75E104F5E275E3444B
:102C2D00F58475B7B075840F438901758D01758F66
:102C3D0001758E04F537F5380538E538700205371E
:102C4D00640F453770F2438902E58930E4FB758ADC
:102C5D008375970275FFDE75FFADE4F58475EF049E
:102C6D00124766E4F537F5387D01AF38124BA305F1
:102C7D0038E53870020537C39403E537940040E812
:102C8D00E4F520C21FC21BC222C21DD21EC221C228
:102C9D00207888F6C2857882F67880F618F67886E0
:102CAD00F6F537F53874EF2538F582E43400F58301
:102CBD00E4F00538E538700205376440453770E5B6
:102CCD00E4F537F538742F2538F582E43401F583B2
:102CDD00E4F00538E538700205376440453770E596
:102CED001200A27D08E4FF12485B7D087F011248A7
:102CFD005B124457E47885F6787DF6787DE6FF75AE
:102D0D00F01FA424FDF582E5F0340CF583E493FE69
:102D1D00788526F6EE6005787D0680DFEFD394008A
:102D2D00402A900D0AE493FB740193FA740293F90F
:102D3D0074551207C612078064556002D22074AA1A
:102D4D001207C612078064AA6002D220123DE1EF7D
:102D5D006003022E4CC21E74FFF564F565F566F531
:102D6D0067E4F568F569FE7F10FDFB7A00796A125C
:102D7D000B417544FF75450C7546C0754700754888
:102D8D00107B007A00796A1247B8E4F537F5389070
:102D9D000CFD75F01FE5381209E6E53775F01FA437
:102DAD002583F583E4937003022E45900D0175F094
:102DBD001FE5381209E6E53775F01FA42583F58365
:102DCD00E49320E268E4F536E536C3789896505DD5
:102DDD00900CFD75F01FE5381209E6E53775F01F0B
:102DED00A42583F583E493FF7E00C006C0077D0014
:102DFD00900D0A75F01FE5381209E6E53775F01FDD
:102E0D00A42583F583E493FB740193FA740293F97B
:102E1D007885E68536F0A4FFE92FF9EA35F0FAD08A
:102E2D0007D006120B411200A20536809B0538E52E
:102E3D003870020537022D9C7F0112357D8016D228
:102E4D001EE4FF12357DE5EF30E30AD2030569E597
:102E5D006970020568E4F537F5387A007B967D03D5
:102E6D00AF381243DE0538E53870020537C39403D9
:062E7D00E537940040E47B
:012E8300222C
:054CA1007886E6FF2209
:03002300023C3963
:103C3900C0E0C0F0C083C082C0D075D008309932CE
:103C4900C2997880067980E778826670097880F66B
:063C5900D21CC285801C94
:0D3C5F0075261475271300D527FCD526F611
:103C6C007880E6242FF582E43401F583E0F5992081
:103C7C009803023D15209A08201F05C298023D1199
:103C8C00C29A787FE60624EFF582E43400F583E5EA
:103C9C0099F0C298E6FFB401129000EFE0FE7003B9
:103CAC00F68066EE540724027887F6EFB4020D789E
:103CBC0087E6B409079000F0E02403F6787FE6FF6E
:103CCC00B4400476008042EFC3788796403B787FFF
:103CDC00E624FFFDE434FFFC7B017A0079EF12420D
:103CEC0040787FE624EEF582E43400F583E06F60E3
:053CFC000476008014B5
:0D3D010075261475271300D527FCD526F66E
:103D0E00121C6D787F7600D0D0D082D083D0F0D0C8
:023D1E00E03291
:1044C7007886E6FF18E68FF0A47C00252AFFEC35F6
:1044D700F0FE9000F0E075F01FA4240AF582E5F0E5
:1044E700340DF583E493FB740193FA740293F98F07
:0944F700828E83120799FF7D28D3
:104500008F308D31E4F584E5316010F8E6FFE53059
:0B451000FD7C00120003A831C6EFC6BE
:0D451B0075321475331300D533FCD532F61C
:0B4528008530993099FDC2990200A275
:0B4BF100E4F5847882EFF6C21CD28548
:0D4BFC0075301475311300D531FCD530F63D
:074C090090012FE0F5992254
:104AC100C9EFC9EDC39B40237898E6FFEB2FFFE4C4
:104AD10033FEEDC39FEE6480F8748098500DD21FB1
:104AE100C3ED9B7886F67881E9F622C21FE47881CE
:024AF100F622AB
:1049DA00C9EFC9BAFF0FBBFF0CED6B7002EC6A702E
:1049EA0027D21F801BC3ED9BEC9A401C7898E62BBC
:1049FA00FFE43AFEC3ED9FEC9E500DD21FC3ED9B20
:0F4A0A007886F67881E9F622C21FE47881F622D9
:101C6D009000EFE0FF54F8F529E4F584EF120A3205
:101C7D001CB7091CC30A1CD3101CDA111CEA121C58
:101C8D00FE191D131A1D35201D3A281DA4291E5C91
:101C9D00341E70371E9C391EAB411EB5491EBF50F8
:101CAD001ECB611EC39800001EFB9000F0E0FDE509
:101CBD0065FB7F0180219000F0E0FCA3E0FDAB65AA
:101CCD00AA647F018025E4FBFD7F03800A9000F06C
:101CDD00E0FDE567FB7F02124AC1021EFB9000F09A
:101CED00E0FCA3E0FDAB67AA667F021249DA021E93
:101CFD00FB9000F0E0FDE565FB7F01124AC1201F5E
:101D0D0003021EFB80179000F0E0FCA3E0FDAB6525
:101D1D00AA647F011249DA201F03021EFB90012FD6
:101D2D007478F07F01021EF8D21D021EFBC2ACE4D6
:101D3D00F528D2857D287F7F1245007D287F1812DA
:101D4D0045007D287F21124500787DE6FF7D281214
:101D5D0045007D28AF641245007D28AF6512450012
:101D6D007D28AF661245007D28AF671245007D289E
:101D7D00AF681245007D28AF69124500E4F52A745D
:101D8D006A252AF8E6FF7D28124500052AE52AC3B3
:101D9D00941040EB021E4E9000F0E0FFC3787D964C
:101DAD004003021EFB75F01FEFA424FDF582E5F044
:101DBD00340CAF82F52E8F2FC2ACE4F528D2857D81
:101DCD00287F7F1245007D287F0D124500852F82CB
:101DDD00852E83E493FF7D28124500852F82852E65
:101DED0083740193FF7D28124500852F82852E83F4
:101DFD00740293FF7D28124500852F82852E8374F2
:101E0D000393FF7D28124500852F82852E83740450
:101E1D0093FF7D28124500E4F52AE52F2405F58270
:101E2D00E4352EF583E582252AF582E43583F583A5
:101E3D00E493FF7D28124500052AE52AC394084046
:101E4D00D9E4FDAF28124500C285D2AC021EFB902D
:101E5D0000F0E0F564A3E0F565A3E0F566A3E0F519
:101E6D00678053E4F52A9000F0E0FFE52AC39F5008
:101E7D001C74F1252AF582E43400F583E0FF746AC1
:101E8D00252AF8C6EFC6052AE52AB410D980277A87
:101E9D00007B327D017886E6FF1243DE8050900094
:101EAD00F0E024FF920280469000F0E024FF9201C2
:101EBD00803CD2228002D21B788876F180307A0065
:101ECD007B327D017F001243DE90012F7479F090FB
:101EDD0000F0E0900130F07C007D027B017A017909
:101EED002F124240900131EFF07F03124BF1E529A3
:101EFD0064A0600302209D9000EFE064A1600302E6
:101F0D001FD0A3E0FFC3787D96400302209D75F09E
:101F1D001FEFA424FDF582E5F0340CF583E493F571
:101F2D002C75F01FEFA42401F582E5F0340DF58337
:101F3D00E49330E236124C9C8F2C90012F747FF07D
:101F4D00A3E52CF02402FDE433FC7B017A01792F0B
:101F5D001242407431252CF582E43401F583EFF003
:101F6D00E52C2403FF124BF102209D9000F0E0FFC1
:101F7D00124C9CC2ACE4F528D285E52CD3940640D6
:101F8D00247D287F7F1245007D28AF2C124500E46B
:101F9D00F52AE52AC3952C50071244C7052A80F26D
:101FAD00052C022092E52C2478FF7D28124500E4B3
:101FBD00F52AE52AC3952C50071244C7052A80F24D
:101FCD000220929000EFE064A2600302209D787DD4
:101FDD00E6FFA3E0FEC39F400302209DA3E0FDC3E7
:101FED009F400302209DEEC39D400302209D900063
:101FFD00F0E0F52AE4F52C9000F1E0FFE52AD39FFF
:10200D00501FAF2A124C9C75F01FE52AA424FDF534
:10201D0082E5F0340CF583E493252CF52C052A800C
:10202D00D6C2ACE4F528D2857D287F7F1245007D90
:10203D0028AF2C1245009000F0E0F52A9000F1E059
:10204D00FFE52AD39F503EE4F52B75F01FE52AA43A
:10205D0024FDF582E5F0340CF583E493FFE52BC305
:10206D009F501E7886E6FF18E68FF0A47C00252B86
:10207D00FFEC35F0FE75F01FE52A1244E0052B80CC
:10208D00C9052A80B7E4FDAF28124500C285D2AC40
:10209D00E5296458704DFA7B327D017886E6FF1292
:1020AD0043DE7533017534017535307B017A007966
:1020BD00F0124B238F2CE52C247890012FF0EF2478
:1020CD0001FDE433FC7B017A01792F12424074301B
:1020DD00252CF582E43401F583EFF0E52C2402FF85
:1020ED00124BF1E52964806009E5296488600302DB
:1020FD00226A7A007B327D017886E6FF1243DE90FC
:10210D0000EFE05407F52CB4070A752B01A3E0F599
:10211D002CA38006E4F52B9000F0E0F52D152CE5B1
:10212D002DC3787D96400302223E75F01FE52DA448
:10213D0024FDF582E5F0340CF583E493FFE52CD313
:10214D009F40028F2CE4F52AE52AC3952C4003020B
:10215D00221975F01FE52DA42401F582E5F0340D4B
:10216D00F583E49330E20302221475F01FE52DA4EC
:10217D0024FEF582E5F0340CF583E4936438702980
:10218D00E52CD39404400DE52B252A24F1F582E4AA
:10219D0034008038787FE6C3952AFFE49400FE74FE
:1021AD00ED2FF58274003E802375F01FE52DA424DC
:1021BD00FDF582E5F0340CF583E493FFC3787FE6FB
:1021CD009F252A252B24EEF582E43400F583E0FDCE
:1021DD007886E6FF18E68FF0A4FFE52A7A002FFF38
:1021ED00EA35F0FE75F01FE52DA4240AF582E5F021
:1021FD00340DF583E493FB740193FA740293F98F14
:10220D00828E83ED1207D8052A022155AF2D123B80
:10221D003675F01FE52DA42401F582E5F0340DF59A
:10222D0083E49330E503852D63E5296488702E8062
:10223D0010E52DB4FF279000F1E0F520E529B488D5
:10224D001C90012F7478F0787FE624EEF582E4344B
:0D225D0000F583E0900130F07F02124BF19C
:01226A002251
:10459B0075F01FA42419F582E5F0340DF583E4932F
:0545AB00FE740193FF06
:1045B0008E498F4A9000E9E065497004A3E0654A9E
:1045C000603A9000DF740AF0E549A3F0E54AA3F0F1
:1045D0007C007D037B017A0079DF1242409000E28B
:1045E000EFF07B017A0079DF7550017D047C0012C9
:0D45F000465E9000E9E549F0A3E54AF0229F
:03480A00CCEECC25
:10480D009000DF741AF0A3ECF0EFA3F07C007D03B1
:10481D007B017A0079DF1242409000E2EFF07B01DC
:10482D007A0079DF7550017D047C0012465E7B01B4
:10483D007A0079DF7D0A7C001241ABEF7002FF2216
:0D484D009000DFE0647860037F00227F01AF
:01485A00223B
:1049490075F01FEFA424FDF582E5F0340CF583E43E
:1049590093FD7C00ECC0E0EDC0E075F01FEFA424EE
:104969000AF582E5F0340DF583E493FB740193FABB
:10497900740293F97D00D0E0FFD0E0FE120B417A7A
:0A498900007B327D017F010243DE56
:10342C00124C71C8ECC8C9EDC9CAEECACBEFCB902F
:10343C0000EBE0FCA3E0FDA3E0FEA3E0240AFFE424
:10344C003EFEE43DFDE43CFCD31208B350030235D0
:10345C007C124C719000EB1209A9E4F547E547C3C7
:10346C00787D96400302357C75F01FE547A4240156
:10347C00F582E5F0340DF583E49320E4030235770F
:10348C00E54712459B9000DF74A1F075F01FE547EE
:10349C00A4241BF582E5F0340DF583E4939000E051
:1034AC00F07C007D027B017A0079DF1242409000B3
:1034BC00E1EFF07B017A0079DFE4F5507D03FC123B
:1034CC00465E7B017A0079DF7D0A7C001241AB8F6E
:1034DC0048E548C394025002804BE5482476FF909F
:1034EC0000DFE06F6002803D75F01FE547A424FD0E
:1034FC00F582E5F0340CF583E493FFE54824FE6F88
:10350C0060028021E54824FFFDE434FFFC7B017A56
:10351C000079DF12424074DE2548F582E43400F570
:10352C0083E06F6007AF47124949803F75F01FE594
:10353C0047A424FDF582E5F0340CF583E493FF7E7B
:10354C000075F01FE547A4240AF582E5F0340DF56B
:10355C0083E493FB740193FA740293F8CCEACCCD18
:10356C00EBCD7B017A0079E012075A0547023469EA
:01357C00222C
:023FDF008F470A
:103FE100EF12459B75F01FE547A424FDF582E5F02E
:103FF100340CF583E493F54824819000DFF075F0EB
:104001001FE547A4241BF582E5F0340DF583E49305
:104011009000E0F0AF487E0075F01FE547A4240A48
:10402100F582E5F0340DF583E493FB740193FA74A2
:104031000293F978E17C007D0112075AE5482402D8
:10404100FDE433FC7B017A0079DF12424074E12503
:1040510048F582E43400F583EFF07B017A0079DFE3
:10406100E5482403FDE433FCE4F55012465E7A0092
:094071007B327D017F010243DE78
:107000007888E664F160030274FFC2AF75FFDE7535
:10701000FFADE4F548F547E4F58420982EE4F54CFF
:10702000F54D209822C3E54D9488E54C94135017F4
:0D70300075520A75531300D553FCD552F666
:10703D00054DE54D70DF054C80DBB2A080CF859905
:10704D0047C298E547641A6003027110F54CF54D7F
:0E705D00209822C3E54D9488E54C94135017FB
:0D706B0075520A75531300D553FCD552F62B
:10707800054DE54D70DF054C80DB309892859948C9
:10708800C298E4F54CF54D209822C3E54D9488E567
:057098004C9413501799
:0D709D0075520A75531300D553FCD552F6F9
:1070AA00054DE54D70DF054C80DB20980302701713
:1070BA00859948C298E4F54CF54D209822C3E54DD0
:0870CA009488E54C9413501763
:0D70D20075520A75531300D553FCD552F6C4
:1070DF00054DE54D70DF054C80DB209803027017DE
:0970EF00859948C298D285C29926
:0D70F80075521475531300D553FCD552F694
:107105007599783099FDC2850274F1E5476401707F
:0571150031D285C29992
:0D711A0075521475531300D553FCD552F671
:087127007599783099FDC299B9
:0D712F0075521475531300D553FCD552F65C
:10713C00E4F5993099FDC2850274F1E5476402606B
:10714C00030271FCF54CF54D209822C3E54D948853
:06715C00E54C94135017EE
:0D71620075520A75531300D553FCD552F633
:10716F00054DE54D70DF054C80DB2098030270174D
:10717F00859948C298E4F549E54813B392A0E548CC
:10718F0025E0FEC3E49400EE9470502AE5487F009A
:10719F0025E0FEC39460501EE54820E01FE4F5840F
:1071AF0043B701758F038E4E8F4F8F828E83F053AF
:1071BF00B7F0F58F80037549FFE4F584D285C29946
:0D71CF0075521475531300D553FCD552F6BC
:0871DC007599783099FDC29904
:0D71E40075521475531300D553FCD552F6A7
:1071F1008549993099FDC2850274F1E547640360C0
:107201000302733AF54CF54D209822C3E54D94885D
:06721100E54C9413501738
:0D72170075520A75531300D553FCD552F67D
:10722400054DE54D70DF054C80DB20980302701797
:10723400859948C298E4F54CF54D209822C3E54D54
:087244009488E54C94135017E7
:0D724C0075520A75531300D553FCD552F648
:10725900054DE54D70DF054C80DB20980302701762
:1072690085994AC298E5481392A0E54825E0FEC3EE
:10727900E49400EE94704003027017E5487D002500
:10728900E0FCC394604003027017E4F58443B7013E
:10729900758F01E54A75F020A42DFFE5F03CF54E08
:1072A9008F4FE4F584F54BE54BC394205048E4F542
:1072B9004CF54D209822C3E54D9488E54C94135024
:0172C90017AD
:0D72CA0075520A75531300D553FCD552F6CA
:1072D700054DE54D70DF054C80DB209803027017E4
:1072E700054FE54FAE4E7002054E14F5828E83E5CD
:1072F70099F0C298054B80B1E4F58453B7F0F58F48
:06730700F584D285C29955
:0D730D0075521475531300D553FCD552F67C
:08731A007599783099FDC299C4
:0D73220075521475531300D553FCD552F667
:10732F00E4F5993099FDC2850274F1E54764046074
:10733F00030273DDF54CF54D209822C3E54D94887B
:06734F00E54C94135017F9
:0D73550075520A75531300D553FCD552F63E
:10736200054DE54D70DF054C80DB20980302701758
:10737200859948C298E54825E0F550755100E4F535
:1073820049F54CF54D0551E551AE507002055014CA
:10739200F5828E83E4932549F549054DE54D70024A
:0E73A200054C7004E54C640270DBD285C29984
:0D73B00075521475531300D553FCD552F6D9
:0873BD007599783099FDC29921
:0D73C50075521475531300D553FCD552F6C4
:1073D2008549993099FDC2850274F1E547640560DB
:1073E200030274E6F54CF54D209822C3E54D9488CE
:0673F200E54C9413501756
:0D73F80075520A75531300D553FCD552F69B
:10740500054DE54D70DF054C80DB209803027017B4
:10741500859948C298E4F54CF54D209822C3E54D71
:087425009488E54C9413501704
:0D742D0075520A75531300D553FCD552F665
:10743A00054DE54D70DF054C80DB2098030270177F
:09744A0085994AC298D285C299C5
:0D74530075521475531300D553FCD552F635
:0874600075997F3099FDC29976
:0D74680075521475531300D553FCD552F620
:107475007599203099FDE54825E0FCE54A75F02031
:10748500A42400FFE5F03CF5508F51E4F549F54B98
:02749500C2999A
:0D74970075521475531300D553FCD552F6F1
:1074A400855182855083E493F5993099FD0551E522
:1074B40051AE507002055014F5828E83E493254931
:0B74C400F549054BE54BB420C8C29908
:0D74CF0075521475531300D553FCD552F6B9
:1074DC008549993099FDC285800BE547B40606E4D1
:1074EC00F58475EF10E54764076003027017788820
:0374FC00F6D2AF16
:0174FF00226A
:104114001200A212342CE563F46008AF63123FDF8F
:104124007563FF201E0B7A007B327D017F001243F2
:10413400DE30200B7A007B1E7D017F001243DE30CF
:104144001B1C3021197A007B327D017886E6FF1230
:1041540043DEC21BE4F568F569123E91D21E30229B
:104164002A302127C222124C7EE4FDFF124C4A7BE6
:10417400FF7A4C7910124B507D01E4FF124C4A7BBC
:10418400FF7A4C791E124B50127000124C71E47B72
:104194002C7A01F9F8C31208B35002D221301D065B
:0741A400E4F58475EF102221
:0B4C8B00122C0D12411412435880F847
:103A2200005EBCE2613FDD83C29C7E20A3FD1F419C
:103A32009DC3217FFCA2401E5F01E3BD3E6082DC8C
:103A4200237D9FC1421CFEA0E1BF5D0380DE3C627C
:103A5200BEE0025CDF81633D7C22C09E1D43A1FF6C
:103A62004618FAA427799BC584DA3866E5BB59075C
:103A7200DB856739BAE406581947A5FB7826C49A4C
:103A8200653BD987045AB8E6A7F91B45C6987A243C
:103A9200F8A6441A99C7257B3A6486D85B05E7B92C
:103AA2008CD2306EEDB3510F4E10F2AC2F7193CD1C
:103AB200114FADF3702ECC92D38D6F31B2EC0E500C
:103AC200AFF1134DCE90722C6D33D18F0C52B0EEFC
:103AD200326C8ED0530DEFB1F0AE4C1291CF2D73EC
:103AE200CA947628ABF517490856B4EA6937D58BDC
:103AF2005709EBB536688AD495CB2977F4AA4816CC
:103B0200E9B7550B88D6346A2B7597C94A14F6A8BB
:103B1200742AC896154BA9F7B6E80A54D7896B35AB
:103B2200000000002B6096CBDDEE002C96CBDDE58D
:043B3200EEF7FAFDB3
:0248CD00C1AC7C
:10424000157C157CA87CECF608EDF6157C157C1524
:104250007CA87CC6EBC608C6EAC608C6E9C6E57CEB
:0442600024FCF57CC9
:10426400F80808E4F6A87CF608F6E57C2407F9A823
:104274007CE6FE08E6FFC3099719E76480F8EE645C
:1042840080985037E57C2404F8CBE6CB08E6FA089E
:10429400E6F98F828E83120799A87C080866FFE5E9
:1042A4007C2403F8EFF6E6903A2293A87C0808F6FB
:1042B400A87C0806E61870B20680AFA87C0808E659
:0142C400FFFA
:0742C500E57C2409F57C22D1
:07000300ED6F903A2293FF1C
:01000A0022D3
:0300A3000249937C
:10499300C0E0C083C082C0D075D010E59830E10577
:1049A3005398FDD22CE59830E024E5182401FFE468
:1049B30033FEEF64404E70028011AF180518746F18
:1049C3002FF582E43401F583E599F05398FED0D0B6
:0749D300D082D083D0E03256
:0A465E008B4B8A4C894D8C4E8D4F1A
:10466800E4F518758401D284E55024FF929BE4F5A3
:1046780051C3E551954FE54E6480F8748098502CED
:02468800C22C42
:0D468A0075521475531300D553FCD552F62C
:10469700AB4B054DE54DAA4C7002054C14F91207BA
:1046A70080F599302CFD1200A2055180C5C284AF58
:0146B7004FB3
:0146B80022DF
:0A41AB008B498A4A894B8C4C8D4DDC
:1041B500124C718F528E518D508C4FE4F54E124C2E
:1041C50071C3EF9552FFEE9551FEED9550FDEC95BF
:1041D5004FFCE47B01FAF9F8C31208B350037F00E2
:1041E50022E518D39400404E90016FE0FEB47803A9
:1041F5007F0122EE54F8647860037F002290016FFE
:10420500E054072402F54E6518702BD3E518954D3B
:10421500E54C6480F87480984006AE4CAF4D800440
:10422500AF187E00A84BAC4AAD497B017A01796F86
:0B42350012075AAF4E221200A2808335
:064C9600E4F518D22C2207
:10485B00EF7025F5847598D0F584759115F58475F1
:10486B00C90875CBFFED903B2193F5CA75C804E4DD
:10487B00F584D2ACC2BC8026758401759850E4F5E2
:10488B0084E589540F4420F589758E02ED903B2BFE
:10489B0093F58DD28E43E74053F7BF124C96D2AFB0
:0148AB0022EA
:10476600D2AFD2A9D2BBE4F584E589540F4401F552
:1047760089758E02758CAFE4F58AD28CF51CF51B13
:10478600F51AF519FFEF25E025E02489F8E4F6EFA0
:1047960025E025E0248AF8E4F6EF25E025E0248BE1
:1047A600F8E4F6EF25E025E0248CF8E4F60FBF03E5
:0147B600D42E
:0147B70022DF
:073F3C00C0D075D010157C08
:103F4300A87CE4F6A87CE6FFC394034003023FDAAF
:103F5300EF25E025E0248CF8E6FFD394004052A837
:103F63007CE625E025E0248AF8E67045EF30E0158D
:103F7300A87CE6FF25E025E0248CF8E6D3940140F5
:103F8300047D0180067D00A87CE6FF1245FDA87C28
:103F9300E6FF25E025E0248CF816E66014EF25E023
:103FA30025E0248BF8E6FEEF25E025E0248AF8EEF1
:103FB300F6A87CE625E025E0248AF8E6600116A849
:103FC3007CE6FF25E025E0248CF8E67004FD12452D
:073FD300FDA87C06023F4738
:053FDA00057CD0D0229F
:03000B00024A8E18
:104A8E00C0E0C0F0C083C082C0D075D010758CAFAE
:104A9E00E51C2401F51CE4351BF51BE4351AF51A4B
:104AAE00E43519F519123F3CD0D0D082D083D0F026
:034ABE00D0E03213
:104BA300157CA87CEDF6157CA87CEFF6A87CE6FFC7
:104BB300C39403500D08E6FEEF25E025E02489F8B1
:074BC300EEF6057C057C22E3
:1043DE00157C157CA87CEAF608EBF6157CA87CED1E
:1043EE00F6157CA87CEFF6A87CE6FFC3940350522A
:1043FE00EF25E025E0248CF8E67047A87CE6FB2547
:10440E00E025E0248AF8E67039A87C08E625E00469
:10441E00FFA87CE6FA25E025E0248CF8EFF6A87CD0
:10442E000808E6FE08E6FF7C007D0A12080CEA2565
:10443E00E025E0248BF8EFF6EB25E025E0248AF862
:09444E00E4F6E57C2404F57C226F
:1045FD00C0D075D010157CA87CEDF6157CA87CEF8D
:10460D00F6A87CE6FFC39403501CEF25E025E024BB
:10461D0089F8E66011A87C08E670047F0180027FAE
:10462D0000A87C08EFF6A87CE6700608E624FF9249
:10463D00A0A87CE6FFB4010608E624FF9286EFB43D
:10464D000208A87C08E624FF9287057C057CD0D063
:01465D00223A
:0C4C7100C2AFAF1CAE1BAD1AAC19D2AF25
:014C7D002214
:0100A200223B
:044B7A008E3B8F3CA3
:104B7E00E4F53DF53EC3E53E953CE53D953B5014D1
:104B8E007FE87E03124545124114053EE53E70E571
:044B9E00053D80E170
:014BA20022F0
:1045330054F0FFE5A054014FF5A0A21292A37F010E
:024543007E00F8
:044545008E5F8F6096
:10454900D3E56094FAE55F9400500EEFD3940040F0
:10455900407E1600DEFD1F80F2855F61856062D3B3
:10456900E56294FAE561940040157FFA7E001245F0
:104579004574062562F56274FF3561F56180E0D303
:10458900E5609400E55F94004007AF62AE611245B3
:0145990045DC
:01459A0022FE
:084711008B3F8A4089418D4273
:104719001200A2AB43AA44A9451208422400FFE5AE
:10472900F03460FE853F46854047854148E4FDED0C
:10473900C39542501BEF2DF582E43EF583E493AB1C
:1047490046AA47A9488D827583001207D80D80DFD4
:0D475900AB43AA44A945E48542F002086D77
:060026008B4D8A4E894F4C
:10002C007888E664F1706EC2AFE4F58443B701756D
:10003C008F01AB51AA52A9531208422400FFE5F0DC
:10004C003460F5548F55854D56854E57854F58E481
:10005C00FFEFC39D5026AB560558E558AA577002C2
:10006C00055714F9120780FE0555E555AA54700280
:10007C00055414F5828A83EEF00F80D5E4F58F5386
:10008C00B7F0CFEDCFAB51AA52A9538FF012086D38
:05009C00D2AF1200A22A
:0100A100223C
:104A19007888E664F17034C2AFE4F58443B7017570
:104A29008F03F582758360FFFEE4F01200A22582F0
:104A3900F58274023583F5830FBF00010EEF640818
:0B4A49004E70E6E4F58F53B7F0D2AFDB
:014A5400223F
:103E9100124A19E4F54BF54CF55175520075534B27
:103EA100FB7A0079647D16120026E4F548E548C3E3
:103EB1007898965067E4F54775F01FE547A424FD0F
:103EC100F582E5F0340CF583E493604C7885E68562
:103ED10048F0A4FFAEF075F01FE547A4240AF5826F
:103EE100E5F0340DF583E493FB740193FA740293C6
:103EF1002FF9EA3EFA75F01FE547A424FDF582E5A6
:103F0100F0340CF583E493FD75510075520075533F
:103F11004B120026054780A005488091754912750E
:103F21004A3475510075520075534B7B007A007904
:0A3F3100497D02120026E47888F6AC
:013F3B002263
:103DE100E4F53DF53EF54375440075453DFB7A002C
:103DF10079647D16124711E4F53AE53AC37898964D
:103E01005067E4F53975F01FE539A424FDF582E525
:103E1100F0340CF583E493604C7885E6853AF0A4A0
:103E2100FFAEF075F01FE539A4240AF582E5F03400
:103E31000DF583E493FB740193FA7402932FF9EA6D
:103E41003EFA75F01FE539A424FDF582E5F0340C46
:103E5100F583E493FD75430075440075453D1247B4
:103E610011053980A0053A809175430075440075AC
:103E7100453D7B007A00793B7D02124711E53C64A8
:0F3E8100347004E53B641270047F0180027F00FF
:013E9000220F
:1048FB008F5E302B4843A0F075840F75A60FC2A3B3
:10490B00D2A2124541D2A17F0A7E0012454520A7B3
:10491B00FDC2A1124541C2A275A6FF124541E55E3B
:10492B00124533D2A1124541C2A1124541E55EC4E5
:0E493B00124533D2A1124541C2A112454122BC
:104AF3008F3B53A00FE53B54F042A0D2A112454196
:104B0300C2A112454153A00FE53BC454F042A0D2C9
:104B1300A1124541C2A11245417F647E0002454571
:10445700E4F539F53A75840F75A6FF53A00143A01B
:1044670020D2A17F01FE124545C2A17F017E001225
:104477004B7A7F20124AF343A0F075A60FC2A3D24E
:10448700A2124541D2A17F647E0012454530A703A1
:10449700C22B22D22BC2127F241248FBC2127F09E1
:1044A7001248FBC2127F201248FBC2127F0C12482F
:0F44B700FBC2127F011248FBC2127F061248FBA4
:0144C60022D3
:0D4C7E00C2127F011248FBE4FDFF024C4A08
:104C4A00ED5403C43354E0FEEF541F44804EFFC2B8
:044C5A00120248FBFF
:104C5E008F5DC3E55D648094A04005D2121248FBBF
:034C6E00AF5D2215
:104BCA008B1D8A1E891FAB1DAA1EA91F1207806092
:104BDA0015051FE51F7002051E14F9120780FFD282
:074BEA00121248FB80E022DB
:1030D000202020202020202020200025622A626439
:1030E0000025622A62750025622A640025622A751D
:1030F0000025622A2E33660025622A6C6400256250
:103100002A6C7500253262643A2573002020202045
:1031100020202020002020202020202020202020CF
:1031200020202020202020200045534320454E54BD
:1031300045522020202D202020202B2020004553E8
:103140004320454E544552202050524556204E456E
:103150005854004553432020202020202020505246
:103160004556204E45585400506172616D65746536
:103170007273207772697474656E00746F20666C68
:10318000617368206D656D6F72792E00F4700000B8
:1031900000F76E000000FAE4000000FD6D00000082
:1031A0000000000000036B000000064D0000000955
:1031B000470000000C540000000000000000016DFA
:1031C00000000002670000000373000000046D00AF
:1031D000000005680000000641000000074B0000E9
:1031E0000008DF43000009DF46000014487A0000B1
:1031F00015506100001662610000175700000018AA
:103200005600000019F40000001A540000001B6C66
:103210002F73001C52504D001D460000005A2525FA
:1032200000005B52504D005C636E74005D780000DE
:1032300000000000000002350000004E6F646520B1
:1032400041647200006400000000000000003F8044
:103250000000000000023500000047727020416449
:10326000720000006600000000000000003F8000C7
:10327000000000000032000004466C61736800002A
:10328000000000000000000000000000000000003E
:1032900000000000320000045265626F6F7400008D
:1032A000000000000000000000000000000000001E
:0232B00000001C
:1048CF00C1A3C12AC129C124017A00017B0444017B
:1048DF00FB000000004401F3000000004401F7005A
:0B48EF00000000C125C126C127C12820
:062E84008B398A3A893BFC
:102E8A00900001120799B4381B853C44853D45855D
:102E9A003E467547007548087B017A0179FF12475B
:102EAA00B80230C6E49001FFF0AB39AA3AA93B90C8
:102EBA000002120799605CE4F53FE53F75F005A44E
:102ECA00248CF582E43431F583E493FF6015AB3941
:102EDA00AA3AA93B900002120799FEEF6E60040518
:102EEA003F80D7E53F75F005A4248CF582E43431A0
:102EFA00F583E493601DE53F75F005A4248DF9740C
:102F0A003135F07544FFF54589467B017A0179FF31
:102F1A001246B9AB39AA3AA93B9000011207996047
:102F2A005CE4F53FE53F75F005A424BEF582E43480
:102F3A0031F583E493FF6015AB39AA3AA93B9000B7
:102F4A0001120799FEEF6E6004053F80D7E53F75D1
:102F5A00F005A424BEF582E43431F583E493601DC0
:102F6A00E53F75F005A424BFF9743135F07544FFC7
:102F7A00F54589467B017A0179FF1246B97B017AC8
:102F8A000179FF12000E8F40AB39AA3AA93B12070A
:102F9A008014601D14605E24FE700302304824040D
:102FAA0060030230C67BFF7A3079D0124B50023070
:102FBA00C6AB39AA3AA93B900004120799C330E17B
:102FCA001A740A9540F544AB3CAA3DA93E12078003
:102FDA00F5457BFF7A3079DB0230C3740A9540F5F8
:102FEA0044AB3CAA3DA93E120780F5457BFF7A30E7
:102FFA0079E10230C3AB39AA3AA93B90000412071F
:10300A0099C330E11D740A9540F544AB3CAA3DA929
:10301A003E120842F54685F0457BFF7A3079E70291
:10302A0030C3740A9540F544AB3CAA3DA93E120848
:10303A0042F54685F0457BFF7A3079EC807BAB39E7
:10304A00AA3AA93B90000412079930E020C3740AF7
:10305A009540F544AB3CAA3DA93E1208D78F488E4D
:10306A00478D468C457BFF7A3079F1804CAB39AA83
:10307A003AA93B900004120799C330E11F740A95DC
:10308A0040F544AB3CAA3DA93E1208D78F488E476B
:10309A008D468C457BFF7A3079F8801D740A9540FD
:1030AA00F544AB3CAA3DA93E1208D78F488E478DFE
:1030BA00468C457BFF7A3079FE1228007B017A0123
:0530CA0079FF124B50DC
:0130CF0022DE
:08146000AB36AA37A9387DFF65
:101468008D3C8B398A3A893B900001120799643880
:101478007003021C6CAB39AA3AA93B12078024FE00
:1014880070030216CD24FE7003021926240360039C
:10149800021C6C90000412079920E103021587AB27
:1014A80039AA3AA93B90001812096DC000C001C0C2
:1014B80002C003AC3CEC1203BBD003D002D001D075
:1014C8000012019EC004C005C006C0079001EFE0ED
:1014D800FC1203BBD003D002D001D0001200AD1221
:1014E80003EF9001EFEFF0AB39AA3AA93B90001453
:1014F8001208F790001012096D1203447003021CC1
:101508006CAB39AA3AA93B9000101208F7C004C086
:1015180005C006C0079001EFE0FC1203BBA804A9B0
:1015280005AA06AB07D007D006D005D0041203449D
:101538005014AB39AA3AA93B9000101208F71203CD
:10154800EF9001EFEFF0AB39AA3AA93B90001412E3
:1015580008F7C004C005C006C0079001EFE0FC1200
:1015680003BBA804A905AA06AB07D007D006D00577
:10157800D00412034460025003021C6C0216B8E542
:101588003CF4704CAB39AA3AA93B9000101208F70A
:10159800C004C005C006C0079001EFE0FCE41203D8
:1015A800BBA804A905AA06AB07D007D006D005D06A
:1015B80004120344701AAB39AA3AA93B90001412DA
:1015C80008F790001012096D1203446003021C6CA6
:1015D800AB39AA3AA93B90001812096DC000C001A6
:1015E800C002C003AC3CEC1203BBD003D002D00154
:1015F800D00012019EC004C005C006C0079001EFCC
:10160800E0FCE41203BBD003D002D001D0001200EA
:10161800AD1203EF9001EFEFF0AB39AA3AA93B9076
:1016280000141208F790001012096D120344700399
:10163800021C6CAB39AA3AA93B9000101208F7C0FB
:1016480004C005C006C0079001EFE0FCE41203BB2C
:10165800A804A905AA06AB07D007D006D005D00470
:101668001203445014AB39AA3AA93B90001012084F
:10167800F71203EF9001EFEFF0AB39AA3AA93B90CC
:1016880000141208F7C004C005C006C0079001EF97
:10169800E0FCE41203BBA804A905AA06AB07D0071F
:1016A800D006D005D00412034460025003021C6C1B
:1016B800AB39AA3AA93B9000141208F71203EF902D
:1016C80001EFEFF022AB39AA3AA93B9000041207C8
:1016D8009920E1030217CB90001812096DC000C0D1
:1016E80001C002C003AC3CEC1203BBD003D002D053
:1016F80001D00012019EC004C005C006C0079001B9
:10170800EFE0FCA3E0FDEC1203B6D003D002D00159
:10171800D0001200AD1203EF9001EFEEF0A3EFF04E
:10172800AB39AA3AA93B9000141208F7900010129E
:10173800096D1203447003021C6CAB39AA3AA93B29
:101748009000101208F7C004C005C006C007900139
:10175800EFE0FCA3E0FDEC1203B6A804A905AA0675
:10176800AB07D007D006D005D0041203445017ABFE
:1017780039AA3AA93B9000101208F71203EF90011A
:10178800EFEEF0A3EFF0AB39AA3AA93B90001412A0
:1017980008F7C004C005C006C0079001EFE0FCA32D
:1017A800E0FDEC1203B6A804A905AA06AB07D0070A
:1017B800D006D005D00412034460025003021C6C0A
:1017C80002190EE53CF4704FAB39AA3AA93B9000D8
:1017D800101208F7C004C005C006C0079001EFE06A
:1017E800FCA3E0FDE41203B6A804A905AA06AB070A
:1017F800D007D006D005D004120344701AAB39AA1A
:101808003AA93B9000141208F790001012096D12C3
:1018180003446003021C6CAB39AA3AA93B90001838
:1018280012096DC000C001C002C003AC3CEC120339
:10183800BBD003D002D001D00012019EC004C00565
:10184800C006C0079001EFE0FCA3E0FDE41203B678
:10185800D003D002D001D0001200AD1203EF9001E6
:10186800EFEEF0A3EFF0AB39AA3AA93B90001412BF
:1018780008F790001012096D1203447003021C6CE3
:10188800AB39AA3AA93B9000101208F7C004C0056A
:10189800C006C0079001EFE0FCA3E0FDE41203B628
:1018A800A804A905AA06AB07D007D006D005D0041E
:1018B8001203445017AB39AA3AA93B9000101208FA
:1018C800F71203EF9001EFEEF0A3EFF0AB39AA3A6D
:1018D800A93B9000141208F7C004C005C006C00751
:1018E8009001EFE0FCA3E0FDE41203B6A804A9050B
:1018F800AA06AB07D007D006D005D004120344606F
:10190800025003021C6CAB39AA3AA93B900014128E
:1019180008F71203EF9001EFEEF0A3EFF022AB39D6
:10192800AA3AA93B90000412079920E0030219E89B
:101938009001EFE0F8A3E0F9A3E0FAA3E0FBC00010
:10194800C001C002C003AB39AA3AA93B90001812E3
:10195800096DC000C001C002C003AC3CEC1203BB5F
:10196800D003D002D001D00012019ED003D002D003
:1019780001D0001200AD9001EF1209A9AB39AA3AC3
:10198800A93B9000101208F79001EFE0F8A3E0F9E6
:10199800A3E0FAA3E0FB1203445012AB39AA3AA918
:1019A8003B9000101208F79001EF1209A9AB39AA71
:1019B8003AA93B9000141208F79001EFE0F8A3E071
:1019C800F9A3E0FAA3E0FB12034460025003021CEF
:1019D8006CAB39AA3AA93B9000141208F7021C66AE
:1019E800AB39AA3AA93B90000412079920E10302F7
:1019F8001B0390001812096DC000C001C002C0038B
:101A0800AC3CEC1203BBD003D002D001D0001201D1
:101A18009EC004C005C006C0079001EFE0FCA3E02B
:101A2800FDA3E0FEA3E0FFEC1203B1D003D002D087
:101A380001D0001200AD1203EF9001EF1209A9AB1B
:101A480039AA3AA93B9000141208F790001012091D
:101A58006D1203447003021C6CAB39AA3AA93B907F
:101A680000101208F7C004C005C006C0079001EFB7
:101A7800E0FCA3E0FDA3E0FEA3E0FFEC1203B1A8A5
:101A880004A905AA06AB07D007D006D005D00412D2
:101A980003445015AB39AA3AA93B9000101208F735
:101AA8001203EF9001EF1209A9AB39AA3AA93B90AA
:101AB80000141208F7C004C005C006C0079001EF63
:101AC800E0FCA3E0FDA3E0FEA3E0FFEC1203B1A855
:101AD80004A905AA06AB07D007D006D005D0041282
:101AE800034460025003021C6CAB39AA3AA93B902C
:101AF80000141208F71203EF021C66E53CF4705557
:101B0800AB39AA3AA93B9000101208F7C004C005E7
:101B1800C006C0079001EFE0FCA3E0FDA3E0FEA330
:101B2800E0FFE41203B1A804A905AA06AB07D00791
:101B3800D006D005D004120344701AAB39AA3AA9CA
:101B48003B9000141208F790001012096D1203441C
:101B58006003021C6CAB39AA3AA93B900018120921
:101B68006DC000C001C002C003AC3CEC1203BBD086
:101B780003D002D001D00012019EC004C005C006E7
:101B8800C0079001EFE0FCA3E0FDA3E0FEA3E0FFA7
:101B9800E41203B1D003D002D001D0001200AD127C
:101BA80003EF9001EF1209A9AB39AA3AA93B9000BB
:101BB800141208F790001012096D12034470030202
:101BC8001C6CAB39AA3AA93B9000101208F7C00464
:101BD800C005C006C0079001EFE0FCA3E0FDA3E04C
:101BE800FEA3E0FFE41203B1A804A905AA06AB0707
:101BF800D007D006D005D0041203445015AB39AA3B
:101C08003AA93B9000101208F71203EF9001EF1267
:101C180009A9AB39AA3AA93B9000141208F7C004E5
:101C2800C005C006C0079001EFE0FCA3E0FDA3E0FB
:101C3800FEA3E0FFE41203B1A804A905AA06AB07B6
:101C4800D007D006D005D00412034460174015AB66
:101C580039AA3AA93B9000141208F71203EF900131
:051C6800EF1209A922A2
:104A55008F39E92405F9E43AFA78FF7C017D017E76
:104A6500007F0812075AE4900207F085394475451E
:104A7500017546017547FF7BFF7A317904122800DD
:094A85007BFF7A31790C024B50E1
:10226B00302318124C71E47B2C7A01F9F8C3120855
:10227B00B3400302279DC223124C7E124C71A8045B
:10228B00A905AA06AB079001FBE0FCA3E0FDA3E0C8
:10229B00FEA3E0240AFFE43EFEE43DFDE43CFCD358
:1022AB001208B3500302279D124C719001FB1209C7
:1022BB00A9202A10C2081237EEEF700302278DD225
:1022CB002A02278D3029117536FF7537327538364E
:1022DB00E57B147896F680107536FF75370C7538DC
:1022EB00FD787DE6147996F77896E6FFC394035054
:1022FB0005E408F68015E57A7002800CE57AB507DF
:10230B000424FE8003E57A147897F6E47895F67842
:10231B0095E6FDC394034003022425E4FF124C4AC7
:10232B007895E6FF7897E62FFFE433FE7C00EFB558
:10233B007A08ECB506047F3E80027F20124C5E7853
:10234B0095E6FD7F01124C4A7895E6FF7897E62FCC
:10235B00FFE433FE18E6FDD3EF9D7480F86E9840D2
:10236B000C7BFF7A31791512280002241F7895E631
:10237B00FF7897E62FFFE433FE7C007D1F1207FAF0
:10238B00AB36E5382FF9E5373EFAC0017997E77898
:10239B009526FFD001124A557895E6FD7F0A124C1F
:1023AB004A3024307895E6FF7897E62FFFE433FE2A
:1023BB007C00EFB57A1EECB5061A7D1F1207FAAB3F
:1023CB0036E5382FF9E5373EFA753C01753D017559
:1023DB003EEF803D7895E6FF7897E62FFFE433FEDE
:1023EB007C007D1F1207FAAB36E5382FF9E5373E37
:1023FB00FAC003C002C001E5382FF9E5373EFA9069
:10240B00000D120A028B3C8A3D893ED001D002D0CE
:10241B0003122E8478950602231AE57A75F01FA411
:10242B003029072436F97432800524FDF9740C35F4
:10243B00F07536FFF53789382024030225D77D0345
:10244B00E4FF124C4A7BFF7A317929124B5020174B
:10245B0005302502C22430184D20264AC224AB3643
:10246B00AA37A938120780FF7E0090000D120A02CE
:10247B00A801AC02AD037B017A0179EF12075A3048
:10248B00290BE57A6003B4011DD21B8019AF7A12B8
:10249B003B36AB36AA37A93890000412079930E5C2
:1024AB0005AF7A123FDF30190F20270C1214601280
:1024BB004C719001F31209A930192D124C71A8041B
:1024CB00A905AA06AB079001F3E0FCA3E0FDA3E08E
:1024DB00FEA3E02446FFE43EFEE43DFDE43CFCD3DA
:1024EB001208B34003121460301936124C71A80451
:1024FB00A905AA06AB079001F3E0FCA3E0FDA3E05E
:10250B00FEA3E024F4FFEE3401FEE43DFDE43CFCCD
:10251B00D31208B3400BAB36AA37A9387DF7121488
:10252B006820190A9001F31209B500000000301A57
:10253B0017202814AB36AA37A9387D01121468125C
:10254B004C719001F71209A9301A35124C71A8047D
:10255B00A905AA06AB079001F7E0FCA3E0FDA3E0F9
:10256B00FEA3E02446FFE43EFEE43DFDE43CFCD349
:10257B001208B3400BAB36AA37A9387D0112146889
:10258B00301A36124C71A804A905AA06AB079001A4
:10259B00F7E0FCA3E0FDA3E0FEA3E024F4FFEE34A0
:1025AB0001FEE43DFDE43CFCD31208B3400BAB361B
:1025BB00AA37A9387D09121468301A0302278D90A7
:1025CB0001F71209B50000000002278D7D03E4FF1F
:1025DB00124C4AAB36AA37A9389000181208F7E408
:1025EB00FBFAF9F8120344400FAB36AA37A938901F
:1025FB00000412079930E2087BFF7A31793E80069E
:10260B007BFF7A317953124B502017143025113040
:10261B002907C229E4F57A8007C22AD2081237EEBD
:10262B00301868202665AB36AA37A938120780FF09
:10263B00D394045018EF94004013D2247E009000E2
:10264B000D120A0278EF7C017D0112075A302931F5
:10265B00E57A6402702BD21B124C7EE4FDFF124C08
:10266B004A7BFF7A317968124B507D01E4FF124CA3
:10267B004A7BFF7A31797B124B507FB87E0B124B22
:10268B007A302907E57AB40302D21D3019212027AD
:10269B001EE57A700F202905787DE68002E57B1414
:1026AB00F57A8002157A124C719001F31209A93058
:1026BB00193F124C71A804A905AA06AB079001F3A8
:1026CB00E0FCA3E0FDA3E0FEA3E02446FFE43EFE16
:1026DB00E43DFDE43CFCD31208B34015E57A700FE2
:1026EB00202905787DE68002E57B14F57A800215BA
:1026FB007A20190A9001F31209B500000000302965
:10270B00067895A67B8006787DE67895F6301A1BC1
:10271B00202818E57A04FF7895E6FEEF8EF0848585
:10272B00F07A124C719001F71209A9301A39124C38
:10273B0071A804A905AA06AB079001F7E0FCA3E07A
:10274B00FDA3E0FEA3E02446FFE43EFEE43DFDE4F2
:10275B003CFCD31208B3400FE57A04FF7895E6FEF4
:10276B00EF8EF08485F07A201A0A9001F71209B5E2
:10277B000000000030190B301A08202905E4F57A07
:10278B00D229A2179225A2189226A2199227A21A31
:02279B00922882
:01279D002219
:1000A60002045BE86480F8E933E83360110460F029
:1000B600ED33EC337009E8FCE9FDEAFEEBFF2204C0
:1000C60060DED3EB9FEA9EE99DE8C2E78CF0C2F7BB
:1000D60095F0400CE8CCF8E9CDF9EACEFAEBCFFB87
:1000E60012042685D0F05804700320D5B3E80470B6
:1000F600075002B2D502046592D5EC0460F7E4CC51
:10010600C0E0C398F8603B94186008400DD0E0FB4F
:1001160002043DE4FBFAC9FC8028E830E406E4C9A1
:10012600FBE4CAFCE830E305E4C9CACBFCE85407A3
:100136006010F8C3E913F9EA13FAEB13FBEC13FCAE
:10014600D8F130F52FC3E49CFCEF9BFFEE9AFEED51
:1001560099FDD0E0FBEF4E4D4C701222DB030204FA
:1001660062EC2CFCEF33FFEE33FEED33FDED30E7B2
:10017600EB02043DEF2BFFEE3AFEED39FDD0E0FB3E
:1001860050130BBB0003020465ED13FDEE13FEEFE7
:0801960013FFEC13FC02043D11
:10019E00EC4D6011E8497017ED33EC3304600DE45B
:1001AE00FCFFFEFD22E933E8330470F802045B1213
:1001BE00042658046009E4CC248150062850090214
:1001CE000465284003020462C0E0EB4A7044B98023
:1001DE0006D0E0FB020451EF4E701CBD8008EBFF11
:1001EE00EAFEE9FD80EBE98DF0A4FEE5F002028760
:1001FE00E9CDF9EAFEEBFFEF89F0A4FCE5F0CE893C
:10020E00F0A42EFFE435F0CD89F0A42DFEE435F0F8
:10021E008067EF4E7005BD80D780C3EF8BF0A4AC26
:10022E00F0EE8BF0A42CFCE435F0F8EF8AF0A42C61
:10023E00E5F038FCE433CB8DF0A42CFCE5F03BF874
:10024E00EE8AF0A42CFCE5F038F8E433CF89F0A464
:10025E002CFCE5F038CF3400CE89F0A42FFFE5F06A
:10026E003EFEE433C98DF0A42EFEE5F039CD8AF0C2
:10027E00A42FFFE5F03EFEE43DFD33D0E0FB50073A
:10028E000BBB000F020465EC2CFCEF33FFEE33FECC
:06029E00ED33FD02043DFA
:1002A400020465EC5D046005E85904700302045B14
:1002B400120426580460F6EC4860F2EC7004FDFE6B
:1002C400FF22C860DB2481C85009C398600250062D
:1002D4000204629850CAF582E9294B4A7005AB8240
:1002E40002045175F0007C1A7880C3EF9BEE9AEDFE
:1002F40099400DC3EF9BFFEE9AFEED99FDE842F0A5
:10030400DC23ACF0D0E0FFD0E0FED0E0FDAB8220F7
:10031400E7101BEB60BAEC2CFCEF33FFEE33FEED81
:1003240033FD02043DE803F830E705C0F075F00042
:10033400EF2FFFEE33FEED33FD40B830E7C280AA65
:1003440074F8CC6480CCC86480C8F582046043C36C
:10035400EB9FF5F0EA9E42F0E99D42F0E89C45F0FF
:1003640060305018E5825FFFE582F42B5582FB5024
:10037400210ABA001D09B90019088016E5825BFB41
:10038400E582F42F5582FF50090EBE00050DBD0015
:10039400010CC3EB9FF5F0EA9E42F0E99D42F0E8C0
:0D03A4009C45F06007CC4820E701B3EC2237
:1003B10075F020800E75F010800575F0087D007EC7
:1003C100007F003392D530D5031208A5EC334010DD
:1003D100EF33FFEE33FEED33FDEC33FCD5F0ED22D0
:0E03E100E5F0247EA2D513CC92E7CDCEFF220C
:1003EF00EDD2E7CD33EC3392D524814006E4FFFE06
:1003FF00FDFC22FCE4CFCECDCC24E0501174FF8065
:10040F00EDC3CC13CCCD13CDCE13CECF13CF047001
:07041F00F030D5DE0208A554
:10279E00E5582444F8E60558227841301002784472
:1027AE00E475F0011209F20207802009EB7F2ED2A8
:1027BE00098018EF540F2490D43440D4FF300D0B01
:1027CE00EF24BFB41A0050032461FFE559600215CF
:1027DE0059055CE55C7002055B30100D7841E475BF
:1027EE00F0011209F2EF0207C6024C5E7403D2101A
:1027FE008003E4C210F5588B418A428943E4F559AF
:10280E00F55BF55CE55960077F201227D980F575D9
:10281E005AFFC20AC209C20BC20CC20EC20FC211AB
:10282E001227A7FF700D3010057F001227EAAF5C4C
:10283E00AE5B22B4255FC2D5C20D1227A7FF24D0EE
:10284E00B40A00501A75F00A785930D50508B6FF4B
:10285E000106C6A426F620D5047002D20C80D92417
:10286E00CFB41A00EF5004C2E5D20D022AD7D20A15
:10287E0080C6D20980C0D20B80BCD2D580BAD20E0F
:10288E0080B47F201227D9200B077401B559004060
:10289E00F112279EFF1227D9022812D211D20F80D1
:1028AE009512279EFB12279EFA12279EF94A4B700D
:1028BE000679CE7A2B7BFF200B2EE559602A7E00FF
:1028CE008E8275830012079960060EEE655A70F0BF
:1028DE00C2D5EBC0E0EAC0E0E9C0E0EE122B37D083
:1028EE00E0F9D0E0FAD0E0FB120780FF60AAEBC05F
:1028FE00E0EAC0E0E9C0E01227D9D0E02401F9D027
:10290E00E03400FAD0E0FBE55A0460DCD55AD980F9
:10291E0087D20B80A2122B1A60F7E55A70010412AF
:10292E00049BA95A600DE55A600914F55A122BC181
:10293E00EF60F3EA30E702F404C3995077EAF42526
:10294E005A0430E701E404F55A800D122B1A60C1C7
:10295E00EA055A255A12049BEA7857F630E701E445
:10296E00255A04D55A04200E0114122B37E4C0E068
:10297E00122BC17857E6601320E70714F61227C111
:10298E00802204F6D0E014C0E07F001227C1E55A81
:10299E0060071227B8155A800B300E031227B8D0D5
:1029AE00E0022812D0E00480C5122B1A60A0E55A6E
:1029BE000412049B7857EAF6E55A200E02600104D1
:0529CE002404122B3768
:1029D30074FF04C0E0122BC11227C1E55A200E0276
:1029E30060031227B8D0E0B55AE87F451227CB78A9
:1029F30057E67F2B30E7047F2DF404C0E01227D97C
:102A0300D0E075F00A84C0F01227C2D0E01227C2CA
:102A1300022812791080027908C20FC2118008D2ED
:102A2300D5790A8004790AC2D5E55A047002F55AA9
:102A3300E4FAFDFEFF12279EFC7B08200A131227EF
:102A43009EFD7B1030090A12279EFE12279EFF7BF4
:102A530020EC3382D592D55013C3E43009069FFF8F
:102A6300E49EFEE4200A039DFDE49CFCE4CBF8C253
:102A73000AEC700CCFCECDCCE824F8F870F38017B5
:102A8300C3EF33FFEE33FEED33FDEC33FCEB33FBEF
:102A9300994002FB0FD8E9EB300A05F8D0E0C448AF
:102AA300B20AC0E00AEC4D4E4F78207B0070C2EAB8
:102AB300B55A0040BCC0E0122B39D0F0D0E0200A58
:102AC30004C4C0E0C4B20AC0F01227C2D0F0D5F0EB
:102AD300EB022812120A3228AF532A165828804CC8
:102AE300287C422A1A4F2A22442A22492895432A1B
:102AF300285529594629B7452923472BEE502884C1
:102B03002D28882E28AB2B288C2328A9202BD72AC5
:102B1300284448000028A3E55AB4FF03755A061257
:102B2300279EFC12279EFD12279EFE12279EFF78EA
:102B3300500204CA790AA2D5200C14300E09B91028
:102B4300020404B9080104A2D5200F025001042095
:102B53000B68920BB559005034C0E07F20300C193C
:102B63007F30A20B720F720E500F122B90C20BC24A
:102B73000FC20EC2117F30800F300E03E9C0E01286
:102B830027D9300E03D0E0F9D0E0B559CC300E1779
:102B93007F30B9100C1227D97F58300D077F78800A
:102BA30003B908031227D9300B057F2D0227D97FDC
:102BB300202011F87F2B200FF322920B80CF7F0070
:102BC300B4070050052450F8E6FF22286E756C6C9C
:102BD3002900D20A12279E300AF8C20A785930D542
:102BE3000108F60228442D5043495812279E240316
:102BF300B405004001E4902BE9931227CA743A12FA
:0A2C030027CAD20C755904022A16E4
:10390B008F398E388D378C36E4FFFE7D807C3FAB54
:10391B0039AA38A937A8361203447009AF39AE3823
:10392B00AD37AC3622AF39AE38AD37AC361204708A
:10393B00FBAF3DAE3CAD3BAC3A120470FFBF010890
:10394B00E4FFFE7D807C3F22EF64046022EB640485
:10395B00601DBB0127E4FFFEFDFCAB3DAA3CA93B70
:10396B00A83A12034460084006E4FFFEFDFC2274F3
:10397B00FFF53DF53CF53BF53A023A19E4F53EF51A
:10398B003FFFFEFDFCAB39AA38A937A8361203441A
:10399B00504BAF3DAE3CAD3BAC3A1203EF8E3E8F7E
:1039AB003FAC3EAD3FEC1203B6C8ECC8C9EDC9CA7B
:1039BB00EECACBEFCBAF3DAE3CAD3BAC3A1200A960
:1039CB00E4FBFAF9F812034470A5AF39AE38AD3702
:1039DB00AC3612048A8F398E388D378C36AF39AEB0
:1039EB0038AD37AC361236EDAB3DAA3CA93BA83A05
:1039FB0012019E1240B28F3D8E3C8D3B8C3AE53FBF
:103A0B0030E00B12048A8F3D8E3C8D3B8C3AAF3DE0
:073A1B00AE3CAD3BAC3A22CA
:10042600E9D2E7C933E833F892D5EDD2E7CD33EC1C
:0704360033FC5002B2D52295
:10043D00EC30E7100FBF000C0EBE00080DBD000420
:10044D000BEB6014A2D5EB13FCED92E7FD2274FFCC
:10045D00FCFDFEFF22E480F8A2D574FF13FC7D8025
:03046D00E480EF39
:10047000ED33EC33601004700FED547F700574029F
:0A04800092E2227404220422E42216
:10048A00ED33EC33600A047003BD8004ECB2E7FC80
:01049A00223F
:10049B00F920E72824F950037907E4F42402FB1828
:1004AB00DBFDE624FB5014E9600DE4F618E604F6D8
:0F04BB00B40A08E4F6D9F57401F60A22C2D52274
:1004CA00ED33EC3392D5FA602AB4FF33EDC2E77B01
:1004DA00FF60067A0479EFE4227A0479F820D504D9
:1004EA007A0479F3224E614E002B494E46002D497B
:1004FA004E4600E47A08F608DAFC7B00740722E824
:10050A00C0E0ECC0E0EDC0E0EEC0E0EFC0E0EA75AC
:10051A00F010A4CAABF075F04DA42BFBE435F0FC47
:10052A00EA2410FAEB34C5FBEC34D9FCEDC2E7FF40
:10053A0075F056A4F42411C5F0F434C58FF0A42A3A
:10054A00E5F03BE43CF620E7141205FDD0E0FFD0CD
:10055A00E0FED0E0FDD0E0FC1202A78014F4041201
:10056A0005FDD0E0FFD0E0FED0E0FDD0E0FC1201B6
:10057A009ED0E0F8E6FAEDD2E7CD33EC332482FBE5
:10058A00E4C3CF33CFCE33CECD33CD33DBF37B07CA
:10059A0075F00A846004F6081B0AE5F0F6088FF085
:1005AA00740AA4FFACF08EF0740AA42CFEACF050CE
:1005BA00010C8DF0740AA42CFDE435F0F608DBDE9C
:0305CA0074072291
:10407A0033DA929E35B16011377FE5FE39218489A2
:10408A003AAEC3FF3C1D955B3D6358473E75FDF054
:10409A003F3172183F800000C2D502046502045BFA
:1040AA00BD80FA50F3020462ED33EC330460F17B15
:1040BA003B7AAA79B8783F12019EED33EC3392D558
:1040CA00247B5011A2D570DB500BED4480240450A0
:1040DA0004A2D580CEEFFBEEFAEDF9ECF81203EF6D
:1040EA00EFF582F404FC1203BB1200ADC0829040CB
:1040FA007A740912064CED33CC33D0F092D525F000
:0A410A00A2D57001C313CC13FD22EF
:1036B9003E9248DA3ECCCCCD3F2AAAAB400000006E
:1036C9003F8000003F9837F03FB504F33FD744FCF3
:1036D9003E3172173EB172173F0515913EDE5BD937
:1036E900D2088002C208EDD2E7F8CD33EC3304707A
:1036F9000BBD800592D502046502045B40FBD3141F
:1037090060F2F5F07C3FEE7A00C39496C8948B4042
:10371900230AC89469C8941A401A0AC89468C894B4
:103729001F40110AC8945AC89425400805F07A0028
:10373900CDC2E7CDC0F08C408D418E428F43EA2344
:1037490023C0E024C9F582E43436F58312095D12F9
:1037590000ADECC0E0EDC0E0EEC0E0EFC0E0120962
:103769004DA840A941AA42AB431200A9D0E0FBD021
:10377900E0FAD0E0F9D0E0B2E7F81202A78C408D68
:10378900418E428F439036B9740312063DA840A971
:1037990041AA42AB4312019ED0E0600F24D5F582C5
:1037A900E43436F58312095D1200AD8C408D418EEB
:1037B900428F43D0E0C3947FFDE49400FC1203B62A
:1037C9007B187A727931783F12019EA840A941AAE3
:1037D90042AB431200AD30080B7BD97A5B79DE78B6
:0537E9003E12019E22CA
:1005CD003F8000004120000042C80000447A000036
:1005DD00461C400047C35000497424004B189680B8
:1005ED004CBEBC205A0E1BCA6753C21C749DC5AEAF
:1005FD00FB60065407601C232312062BEB54386056
:10060D000912061712062612019EECF8EDF9EEFA04
:10061D00EFCB22EB12062680F1543803241C9005F3
:10062D00CDFE93FC0EEE93FD0EEE930ECE93FF22B8
:10063D00C0E0EFFBEEFAEDF9ECF812019ED0E0F51B
:10064D00F0EFFBEEFAEDF9ECF812094DA3A3A3A31D
:10065D00E8C0E0E9C0E0EAC0E0EBC0E0C0F01201A4
:10066D009E12095DA3A3A3A31200ADD0F0D0E0FBB1
:0D067D00D0E0FAD0E0F9D0E0F8D5F0D422BA
:030000000242CCED
:0C42CC00787FE4F6D8FD7581980243135A
:10068A00E709F608DFFA8046E709F208DFFA803E52
:10069A0088828C83E709F0A3DFFA8032E309F6083F
:1006AA00DFFA8078E309F208DFFA807088828C83A7
:1006BA00E309F0A3DFFA806489828A83E0A3F6085B
:1006CA00DFFA805889828A83E0A3F208DFFA804C35
:1006DA0080D280FA80C680D4806980F2803380100C
:1006EA0080A680EA809A80A880DA80E280CA803375
:1006FA0089828A83ECFAE493A3C8C582C8CCC583ED
:10070A00CCF0A3C8C582C8CCC583CCDFE9DEE780BC
:10071A000D89828A83E493A3F608DFF9ECFAA9F03B
:10072A00EDFB2289828A83ECFAE0A3C8C582C8CC91
:10073A00C583CCF0A3C8C582C8CCC583CCDFEADEAA
:10074A00E880DB89828A83E493A3F208DFF980CC0C
:10075A0088F0EF60010E4E60C388F0ED2402B40405
:10076A000050B9F582EB2402B4040050AF232345AC
:06077A0082239006DA73F1
:10078000BB010689828A83E0225002E722BBFE0277
:09079000E32289828A83E49322AA
:10079900BB010CE58229F582E5833AF583E0225015
:1007A90006E92582F8E622BBFE06E92582F8E2225F
:0D07B900E58229F582E5833AF583E4932279
:1007C600BB010689828A83F0225002F722BBFE0112
:0207D600F3220C
:1007D800F8BB010DE58229F582E5833AF583E8F057
:1007E800225006E92582C8F622BBFE05E92582C803
:0207F800F222EB
:1007FA00EF8DF0A4A8F0CF8CF0A428CE8DF0A42E13
:02080A00FE22CC
:10080C00C2D5EC30E709B2D5E4C39DFDE49CFCEE07
:10081C0030E715B2D5E4C39FFFE49EFE120B6DC307
:10082C00E49DFDE49CFC8003120B6D30D507C3E402
:06083C009FFFE49EFE2276
:10084200BB010A89828A83E0F5F0A3E02250068781
:10085200F009E71922BBFE07E3F5F009E319228943
:0B086200828A83E493F5F07401932276
:10086D00BB010789828A83020BC2500B09C5F02791
:10087D00F7C5F01937F722BBFE0D09F8E325F0F3A4
:10088D00C5F019E338F322F889828A837401932520
:08089D00F0C5F0F8E4933822E5
:0E08A500C3E49FFFE49EFEE49DFDE49CFC2264
:1008B300EB9FF5F0EA9E42F0E99D42F0E89C45F09B
:0108C3002212
:1008C400E8600FECC313FCED13FDEE13FEEF13FF12
:0308D400D8F12236
:1008D700BB010789828A83020BD85005E9F8020910
:1008E70041BBFE05E9F8020BE489828A8302094DC0
:1008F700BB010DE58229F582E5833AF583020BD822
:100907005007E92582F8020941BBFE07E92582F86D
:10091700020BE4E58229F582E5833AF58302094D66
:10092700BB010789828A830209A95005E9F80209F0
:0A0937009DBBFE05E9F8020C162234
:0C094100E6FC08E6FD08E6FE08E6FF22E2
:10094D00E493FC740193FD740293FE740393FF22F0
:10095D00E493F8740193F9740293FA740393FB22F0
:10096D00BB010DE58229F582E5833AF583020BFD86
:10097D005007E92582F8020BF0BBFE07E92582F846
:10098D00020C09E58229F582E5833AF58302095DBA
:0C099D00ECF608EDF608EEF608EFF62286
:0C09A900ECF0A3EDF0A3EEF0A3EFF022C1
:1009B500A8828583F0D083D0821209CC1209CC128B
:1009C50009CC1209CCE473E493A3C583C5F0C583B0
:1009D500C8C582C8F0A3C583C5F0C583C8C582C88C
:0109E50022EF
:0C09E600A42582F582E5F03583F583221C
:1009F200FAE6FB0808E6F925F0F618E6CA3AF62206
:100A0200BB010DE58229F582E5833AF583020C2BC1
:100A12005007E92582F8020C22BBFE07E92582F87D
:100A2200020C34E58229F582E5833AF583020C3D16
:100A3200D083D082F8E4937012740193700DA3A353
:100A420093F8740193F5828883E473740293686067
:060A5200EFA3A3A380DF67
:104B5000120780601CFF09E970010AC0E0EAC0E0AA
:104B6000EBC0E0124C5ED0E0FBD0E0FAD0E0F98080
:0A4B7000DF7F0A124C5EE4FEFF2214
:1046B9008B418A4289438B478A488949AB410543E3
:1046C900E543AA427002054214F912078070ED749D
:1046D900FF2543F54374FF3542F542AB440546E5F2
:1046E90046AA457002054514F9120780FFAB41053A
:1046F90043E543AA427002054214F9EF1207C67056
:08470900DAAB47AA48A94922D6
:100A5800E709F60870FA8046E709F20870FA803E5E
:100A680088828C83E709F0A370FA807EE309F60890
:100A780070FA8076E309F20870FA806E88828C83B7
:100A8800E309F0A370FA806289828A83E0A3F608FA
:100A980070FA805689828A83E0A3F20870FA804A45
:100AA80080D280FA80C680D4806580F28031801040
:100AB80080A680EA809A80A880DA80E280CA8031A5
:100AC80089828A83ECFAE493A3C8C582C8CCC5831B
:100AD800CCF0A3C8C582C8CCC583CC70E9800D8989
:100AE800828A83E493A3F60870F9ECFAA9F0EDFB87
:100AF8002289828A83ECFAE0A3C8C582C8CCC58360
:100B0800CCF0A3C8C582C8CCC583CC70EA80DD8987
:100B1800828A83E493A3F20870F980CE88F0ED24EA
:100B280002B4040050C4F582EB2402B4040050BAA5
:090B38002323458223900AA873CF
:1047B8008B418A428943E4F549F54AE5481548AEF4
:1047C80047700215474E6033AB44AA45A946120705
:1047D80080FFAB41AA42A943054AE54AAC497002A9
:1047E800054914F5828C83EF1207D8EF60CD740168
:1047F8002546F546E43545F54580C0AB41AA42A9B2
:02480800432249
:10000E00E4FFFE120780600C0FEF70010E09E9701D
:05001E00F20A80EF2250
:104C2E00E94A4B700122120780FF6D700122EF706E
:0C4C3E0004FBFAF92209E970ED0A80EA93
:100B4100EF4E6012EF60010EEDBB010B89828A83CB
:100B5100F0A3DFFCDEFA2289F05007F709DFFCA9D8
:0C0B6100F022BBFEFCF309DFFCA9F0222F
:1042D800024C8BE493A3F8E493A34003F68001F225
:1042E80008DFF48029E493A3F85407240CC8C333E7
:1042F800C4540F4420C8834004F456800146F6DFB6
:10430800E4800B01020408102040809048ACE47E51
:10431800019360BCA3FF543F30E509541FFEE493AA
:10432800A360010ECF54C025E060A840B8E493A371
:10433800FAE493A3F8E493A3C8C582C8CAC583CA9C
:10434800F0A3C8C582C8CAC583CADFE9DEE780BE54
:0148FA0000BD
:100B6D00BC000BBE0029EF8DF084FFADF022E4CC6C
:100B7D00F875F008EF2FFFEE33FEEC33FCEE9DEC35
:100B8D00984005FCEE9DFE0FD5F0E9E4CEFD22ED7B
:100B9D00F8F5F0EE8420D21CFEADF075F008EF2FC5
:100BAD00FFED33FD4007985006D5F0F222C398FDB6
:050BBD000FD5F0EA2253
:100BC200C5F0F8A3E028F0C5F0F8E58215827002BE
:060BD2001583E038F0225B
:0C0BD800E0FCA3E0FDA3E0FEA3E0FF2290
:0C0BE400E2FC08E2FD08E2FE08E2FF224D
:0D0BF000E6FB08E6F908E6FA08E6CBF82275
:0C0BFD00E0F8A3E0F9A3E0FAA3E0FB227B
:0D0C0900E2FB08E2F908E2FA08E2CBF8226B
:0C0C1600ECF208EDF208EEF208EFF2221A
:090C2200E6FB08E6FA08E6F922F7
:090C2B00E0FBA3E0FAA3E0F922CA
:090C3400E2FB08E2FA08E2F922F1
:0C0C3D00E493FB740193FA740293F92213
:00000001FF
