:101420005343532D33323000013200000046616EC9
:10143000204F4B000000006101320000005379731F
:101440004661696C000000620132000000414346C1
:1014500061696C000000006301320000002B35560A
:10146000204F4B00000000640132000000537973EC
:1014700052657365740000650132000000496E68B2
:1014800069626974000000660132000000507772E2
:101490004661696C00000067040800000154656D36
:1014A0007000000000000068000000000000000064
:0814B000000000000000000034
:0E000E00016C010310FF14280408000000001C
:101CA4008F3F75A418D291D290C210E47867F622BF
:101C6A001516A816EFF6A816E6FFB40402D210EF6E
:0E1C7A00B405087866E624FFB39290051622A2
:050003008F357F002293
:101B31008B358A3689371209FFAB38AA39A93A128F
:101B41000A45AB35AA36A937900001120A18AB38FD
:0D1B5100AA39A93A900001120A577F02221A
:1017B80075A4077FC1C280C282E4FDC280EF548055
:1017C800D394004003D38001C39281D280EF25E0F7
:1017D800FF0DBD08E675A405D281E4FFFEFDC280B9
:1017E800A281E433CF4FCFD280EF25E0FFEE33FE66
:1017F8000DBD10EAC280D282EEC4F854F0C868FE6B
:10180800EFC4540F48FFEE540FFCCDEFCDE412099E
:101818007CE4FBFA7980783D1208717868020B4FF6
:1016CF00A294E4337861F6A293E43308F6A286E499
:1016DF003308F6A287E43308F618E6700908E6B473
:1016EF000104786776017863E6B4010908E6B4016E
:1016FF0004E47867F6121CE7C3EF950BFFEE950A2B
:10170F00FEED9509FDEC9508FCE47B64FAF9F8C34E
:10171F00120B32500E121CE78F0B8E0A8D098C089C
:10172F001217B8301010C210E47865F6C2917F64BA
:06173F00FE121B8AD2918C
:011745002281
:0D1CC300245265763A203439313620240051
:100C8800E47880F6121CB4C28375E10175E2407500
:100C9800B283E4F5A9121C88E4FF121C4943EF044F
:100CA800E4F53DF53E7D01AF3E121BDF053EE53E16
:100CB8007002053DC39401E53D940040E8E4F52049
:100CC800C20AC208C20EC20DC20C7880F608F678B5
:100CD80085F618F6788AF6F53DF53E74A2253EF8B5
:100CE800E4F6053EE53E7002053D6414453D70EBB3
:100CF800E4F53DF53E74B6253EF8E4F6053EE53EDE
:100D08007002053D6408453D70EBE5EF20E10CE518
:100D1800EF5408D394004003D38001C392037D08A5
:100D2800E4FF121C28E47889F67882F6AB10AA1141
:100D3800A9127882E6FF75F010A4F58285F0831277
:100D48000A18FE788926F6EE600578820680DDEFBF
:100D5800D394004030AB10AA11A91290000D120BC9
:100D6800741209FFFF7455120A451209FF64556091
:100D780002D20C74AA120A451209FF64AA6002D2B0
:100D88000CEF120A45E5EF5402D3940040047F01AA
:100D98008002E4FF12113E8F3CE53C20E036C20998
:100DA80074FF788CF608F608F608F67E007F107D4A
:100DB800007B007A007992120BCA7542FF754314C2
:100DC8007544207545007546107B007A00799212AB
:100DD8001A058002D209901CCAE493FF3395E0FEFD
:100DE800EF24D0FFEE34FFFE7C007D64120A79AA5E
:100DF80006AB07901CC9E493FF3395E0FEEF24D0BF
:100E0800FFEE34FFFE7C037DE8120A79EF2BFBEE40
:100E18003AFA901CCBE493FF3395E0FEEF24D0FF21
:100E2800EE34FFFE7C007D0A120A79EF2BFFEE3AC2
:100E3800FEA3E493FD3395E0FCED24D0FDEC34FFF4
:100E4800CD2F7891F6ED3E18F6E53C30E103020F20
:100E580007E4F53DF53EE53EC4F8540FC868FFE5E4
:100E68003DC454F048FEAB10AA11A9128F82F58335
:100E7800120A187003020EFEE92FF9EA3EFA9000F2
:100E880004120A1820E264E4F53BE53BC3786C964B
:100E98005059E53EC4F8540FC868FFE53DC454F006
:100EA80048AB10AA11A9128F82F583120A18FF7E87
:100EB80000C006C0077D00E53EC4F8540FC868FFAF
:100EC800E53DC454F048FEE92FF9EA3EFA90000DDA
:100ED800120B747889E6853BF0A429F9EA35F0FA13
:100EE800D007D006120BCA053B809F053EE53E7031
:100EF80002053D020E5E7F01121CA4C20B8007E4AE
:100F0800FF121CA4D20BE4F53DF53E7A007B967DDA
:100F180003AF3E121656053EE53E7002053DC394EA
:070F280001E53D940040E4E7
:010F2F00229F
:051CFB00788AE6FF22DB
:0300230002103A8E
:10103A00C0E0C0F0C083C082C0D075D000C000C07C
:10104A0001C002C003C004C005C006C00730993AF7
:10105A00C2997885067985E77881667016F678856B
:01106A00F68F
:0E106B0075230A0075240300D524FCD523F557
:04107900C283801797
:0E107D007523140075240300D524FCD523F53B
:10108B007885E624B6F8E6F599209803021123201B
:10109B009A07200A04C298807BC29A7884E60624B9
:1010AB00A2F8A699C2987884E6FFB4011378A2E659
:1010BB00FE70057884F68060EE54072402788BF678
:1010CB00EFB4020E788BE6B4090878A3E624037913
:1010DB008BF77884E6FFB414047600803BEFC3787B
:1010EB008B9640347884E624FFFDE434FFFC7B00D0
:1010FB007A0079A21214B87884E624A1F8E66F601E
:03110B000280114E
:0E110E007523140075240300D524FCD523F5A9
:10111C0012002678847600D007D006D005D004D0F3
:10112C0003D002D001D000D0D0D082D083D0F0D068
:02113C00E0329F
:1017460078A3E675F010A4AB102512F9E51135F073
:10175600FA90000D120B74788AE6FF18E68FF0A453
:101766002527F582E435F0F583120A18FF7B007A07
:03177600007925D2
:101779008F358B368A378938EA494B60161209FF4B
:10178900FFE535FD7C00121CD0AB36AA37A938EF2E
:03179900120A45EC
:0E179C0075391400753A0300D53AFCD539F5BD
:0E17AA008535997F01121B5E3099FDC2992290
:101BB50078B676787884E624A1F8E678B7F67F02D9
:061BC5007881EFF6D283E7
:0E1BCB007535140075360300D536FCD535F59A
:061BD90078B6E6F5992242
:101AA800C9EFC9E964017028EDC39B4034786CE63E
:101AB800FFEB2FFFE433FEEDC39FEE6480F87480E4
:101AC80098501ED20AC3ED9B788AF6788676012252
:101AD800B90214ED6B700AD20A788AF67886760213
:081AE80022C20AE47886F6220E
:1018FB00C9EFC9BAFF15BBFF12ED6B7002EC6A7032
:10190B0049D20A788AF67886E9F622E964017025CD
:10191B00C3ED9BEC9A401C786CE62BFFE43AFEC3BC
:10192B00ED9FEC9E500DD20AC3ED9B788AF678861C
:10193B007601228015B90218ED6B7002EC6A700A01
:10194B00D20A788AF67886760222C20AE47886F67C
:01195B002269
:1000260078A2E6FF54F8F526EF120BA4006F09003C
:100036007B0A008D1000961100A61200BC1900D193
:100046001A00F32000F928017B29027F3302B73713
:1000560002DD3902F64102FF49030850034C6102F2
:1000660045700344980000037778A3E6FD788DE693
:10007600FB7F01802578A3E6FC08E6FD788CE6FA8E
:1000860008E6FB7F018029D20A7886760302037789
:1000960078A3E6FD788FE6FB7F02121AA8020377A3
:1000A60078A3E6FC08E6FD788EE6FA08E6FB7F0212
:1000B6001218FB02037778A3E6FD788DE6FB7F0135
:1000C600121AA8200A03020377801978A3E6FC080F
:1000D600E6FD788CE6FA08E6FB7F011218FB200A9B
:1000E6000302037778B676787F0102037475EF1002
:1000F600020377C2ACE4F525D283FB7A0079257F2B
:100106007F1217797B007A0079257F181217797B81
:10011600007A0079257F051217797882E612177220
:10012600788CE6121772788DE6121772788EE612C0
:100136001772788FE61217727890E6121772789116
:10014600E6121772E4F52774922527F8E61217725D
:100156000527E527C3941040EE7B007A007900AFAF
:0401660025121779CE
:0E016A0075330A0075340300D534FCD533F527
:1001780002023278A3E6FFC378829640030202396E
:10018800EF75F010A42512F9E51135F0851030F55A
:10019800318932C2ACE4F525D283FB7A0079257F18
:1001A8007F1217797B007A0079257F0D121779ABBA
:1001B80030AA31A9321209FF121772AB30AA31A93D
:1001C8003290000112176FAB30AA31A932900002A9
:1001D80012176FAB30AA31A93290000312176FAB18
:1001E80030AA31A93290000412176FE4F527AB301A
:1001F800E5322405F9E43531FA7E00E92527F9EEE0
:100208003AFA1209FF1217720527E527C394084026
:0C021800DD7B007A007900AF2512177919
:0E02240075330A0075340300D534FCD533F56C
:10023200C283D2AC02037778B67678E408F67F02FE
:10024200020374121CF1786D120B4F78B6767C782B
:100252006DE678B7F6786EE678B8F6786FE678B934
:10026200F67870E678BAF67C007D057B007A007934
:10027200B61214B878BBEFF67F0602037478A3E6D1
:10028200FFB4010F08E6FD08E6788CCDF608EDF61E
:10029200020344EFB4020978A4E6788CF602034420
:1002A20078A3E6B4030C08E6FF08E6788ECFF608DA
:1002B200EFF6020344E4F527E527C378A396501529
:1002C20074A42527F8E6FF74922527F8EFF6052790
:1002D200E527B410E3E478A1F680677A007B327DEB
:1002E20001788AE6FF12165678A3E6FDE4FF121C97
:1002F2002802037778A3E624FF9202807878A3E6A7
:1003020024FF9201806F788AE66005752902800BCE
:10031200200D05752903800375290178B6767908C1
:10032200A6297C007D027B007A0079B61214B87887
:10033200B8EFF67F03121BC5E52964017037D20EB0
:100342008002D208788076F1802B7A007B327D01A0
:100352007F0012165678B6767978A3E678B7F67CDF
:10036200007D027B007A0079B61214B878B8EFF6F5
:100372007F03121BC5E52664A0600302057578A2FF
:10038200E664A1600302046F79A3E7C37882964012
:1003920003020466AB10AA11A91278A3E6FF75F056
:1003A20010A4F58285F083120A18F529EF75F01072
:1003B200A429F9EA35F0FA900004120A1830E23062
:1003C20078A3E6FF1200038F2978B6767F08A62964
:1003D200E5292402FDE433FC7B007A0079B612148D
:1003E200B874B82529F8EFF6E5292403FF0205724F
:1003F20078A3E6FF120003C2ACE4F525D283E52917
:10040200D39406402B7B007A0079257F7F121779DF
:100412007B007A007925AF29121779E4F527E527C1
:10042200C395295007121746052780F2052980181F
:10043200E5292478121772E4F527E527C395295098
:1004420007121746052780F27B007A007900AF2554
:0304520012177905
:0E04550075330A0075340300D534FCD533F539
:1004630002056678B676787F0102057278A2E664A3
:10047300A260030205757882E6FF78A3E6FEC39FB8
:10048300400302056C08E6FDC39F400302056CEEC2
:100493009D400302056C18E6F527E4F52EF52FE5DC
:1004A30027D378A4965026AF27120003AB10AA11C6
:1004B300A91275F010E527A4F58285F083120A18B6
:1004C300252FF52FE4352EF52E052780D2C2ACE477
:1004D300F525D283FB7A0079257F7F121779C3E54F
:1004E3002F9480E52E940050028007E52E4480125D
:1004F3001772AF2F12177378A3E6F527E527D37882
:10050300A4965046E4F528AB10AA11A91275F01071
:10051300E527A4F58285F083120A18FFE528C39F17
:100523005024E52775F010A429F9EA35F0FA900074
:100533000D120B74788AE6FF18E68FF0A4252812B3
:100543001768052880C1052780B27B007A007900EF
:05055300AF251217792D
:0E05580075330A0075340300D534FCD533F535
:10056600C283D2AC800978B676787F01121BC5E5C6
:100576002664587047FA7B327D01788AE6FF1216A8
:1005860056753800753900753AB77B007A0079A33D
:10059600121B318F29E529247878B6F6E52924013E
:1005A600FDE433FC7B007A0079B61214B874B725E3
:1005B60029F8EFF6E5292402FF121BC5E52664801B
:1005C6006009E5266488600302074C7886E6B40174
:1005D6000F7A007B327D01788AE6FF121656801A62
:1005E600E4F527E527C3786C96500F7A007B327DB9
:1005F60001AF27121656052780E978A2E65407F5BB
:1006060029B4070A75280108E6F529088005E4F5E6
:100616002878A3E6F52A1529E52AC37882964003A9
:1006260002073AAB10AA11A91275F010E52AA4F533
:100636008285F083120A18FFE529D39F40028F298D
:100646007886E6B40109788AE6F52DF52C8009E46A
:10065600F52C786CE614F52D788AA62C788AE6D3E4
:10066600952D400302072EE4F527E527C39529407B
:1006760003020723E52A75F010A4AB102512F9E54D
:100686001135F0FA900004120A1830E20302071E30
:10069600900001120A1864387031E529D394044099
:1006A6000BE528252724A4F8E6FD804E7884E6C3CA
:1006B6009527FF74A02FF8E6FDE52A75F010A4AB88
:1006C600102512F9E51135F0FA802FAB10AA11A901
:1006D6001275F010E52AA4F58285F083120A18FF38
:1006E600C37884E69F2527252824A1F8E6FDE52A78
:1006F60075F010A429F9EA35F0FA90000D120B7482
:10070600788AE6FF18E68FF0A4FFE5272FF582E446
:1007160035F0F583ED120A570527020670AF2A1247
:100726001C6A788A06020662788AA62CE526648800
:100736007014800FE52AB4FF0D78A4E6F520E526AF
:10074600B48803121BB5E52664A860030208707816
:1007560086E6B4010F7A007B327D01788AE6FF12C5
:100766001656801AE4F527E527C3786C96500F7A5B
:10077600007B327D01AF27121656052780E978A344
:10078600E630E711547FFE08E6FDEEF52EEDF52F77
:10079600752803800B78A3E6752E00F52F752802C1
:1007A60074A22528F8E6FF74A32528F8E6F52B8F12
:1007B6002AE52AD3952B400302086DE52AC37882E1
:1007C600964003020868AB10AA11A91275F010E54D
:1007D6002AA4F58285F083120A18F5297886E6B4EC
:1007E6000109788AE6F52DF52C8009E4F52C786C5C
:1007F600E614F52D788AA62C788AE6D3952D5058DE
:10080600E4F527E527C395295044E52A75F010A499
:10081600AB102512F9E51135F0FA900004120A180A
:1008260020E227E528252724A4F8E6FD90000D12EE
:100836000B74788AE6FF18E68FF0A4FFE5272FF5FC
:1008460082E435F0F583ED120A57052780B5AF2A05
:10085600121C6A788A0680A0788AA62CE5292528A3
:0A086600F528052A0207B7121BB59A
:010870002265
:103000007880E664F16003023613E4F540F5417818
:0430100081E66020D5
:0E30140075460A0075470300D547FCD546F502
:103022000541E5417002054064107004E5406427E3
:1030320070DBC2AFE4F5D9F53CF53B20982FE4F5FF
:1030420040F541209823C3E5419488E5409413500C
:013052001865
:0E30530075460A0075470300D547FCD546F5C3
:103061000541E54170DE054080DAB2A780CE859941
:103071003BC298E53B641A6003023146F540F541D5
:0E308100209823C3E5419488E540941350182D
:0E308F0075460A0075470300D547FCD546F587
:10309D000541E54170DE054080DA30989385993C15
:1030AD00C298E4F540F541209823C3E5419488E5A5
:0530BD004094135018BF
:0E30C20075460A0075470300D547FCD546F554
:1030D0000541E54170DE054080DA20980302303D6D
:1030E00085993CC298E4F540F541209823C3E54119
:0830F0009488E5409413501888
:0E30F80075460A0075470300D547FCD546F51E
:103106000541E54170DE054080DA20980302303D36
:0931160085993CC298D283C2994C
:0E311F007546140075470300D547FCD546F5EC
:06312D007599783099FD50
:0E31330075460A0075470300D547FCD546F5E2
:10314100C283023605E53B645060030231DBF54082
:10315100F541209823C3E5419488E5409413501824
:0E31610075460A0075470300D547FCD546F5B4
:10316F000541E54170DE054080DA20980302303DCD
:09317F0085993CC298D283C299E3
:0E3188007546140075470300D547FCD546F583
:083196007599793099FDC29989
:0E319E007546140075470300D547FCD546F56D
:0831AC007599013099FDC299EB
:0E31B4007546140075470300D547FCD546F557
:0631C200E4F5993099FDCF
:0E31C80075460A0075470300D547FCD546F54D
:0F31D600C283023605E53B64017041D283C29982
:0E31E5007546140075470300D547FCD546F526
:0831F3007599783099FDC2992D
:0E31FB007546140075470300D547FCD546F510
:06320900E4F5993099FD87
:0E320F0075460A0075470300D547FCD546F505
:10321D00C283023605E53B640260030232E2F540EB
:10322D00F541209823C3E5419488E5409413501847
:0E323D0075460A0075470300D547FCD546F5D7
:10324B000541E54170DE054080DA20980302303DF0
:10325B0085993CC298E4F53DE53C13B392A7E53C58
:10326B0025E0FEC3E49400EE94305027E53C7F004C
:10327B0025E0FEC3943A501B758F038E428F437526
:10328B00B7A57880E6F5B7854382854283E4F0F5F0
:0A329B008F8003753DFFD283C299B6
:0E32A5007546140075470300D547FCD546F565
:0832B3007599783099FDC2996C
:0E32BB007546140075470300D547FCD546F54F
:0632C900853D993099FDDE
:0E32CF0075460A0075470300D547FCD546F545
:1032DD00C283023605E53B6403600302342CF540DE
:1032ED00F541209823C3E5419488E5409413501887
:0E32FD0075460A0075470300D547FCD546F517
:10330B000541E54170DE054080DA20980302303D2F
:10331B0085993CC298E4F540F541209823C3E541DB
:08332B009488E540941350184A
:0E33330075460A0075470300D547FCD546F5E0
:103341000541E54170DE054080DA20980302303DF9
:1033510085993EC298E53C1392A7E53C25E0FEC362
:10336100E49400EE9430400302303DE53C7D0025BD
:10337100E0FCC3943A400302303D758F01E53E7590
:10338100F020A42DFFE5F03CF5428F43E4F53FE545
:103391003FC394205051E4F540F541209823C3E503
:0933A100419488E5409413501892
:0E33AA0075460A0075470300D547FCD546F569
:1033B8000541E54170DE054080DA20980302303D82
:1033C80075B7A57880E6F5B70543E543AE427002C8
:1033D800054214F5828E83E599F0C298053F80A8CE
:0733E800E4F58FD283C299C6
:0E33EF007546140075470300D547FCD546F51A
:0833FD007599783099FDC29921
:0E3405007546140075470300D547FCD546F503
:06341300E4F5993099FD7B
:0E34190075460A0075470300D547FCD546F5F9
:10342700C283023605E53B640460030234E0F540DD
:10343700F541209823C3E5419488E540941350183B
:0E34470075460A0075470300D547FCD546F5CB
:103455000541E54170DE054080DA20980302303DE4
:1034650085993CC298E53C25E0F544754500E4F5B1
:103475003DF540F5410545E545AE4470020544146A
:10348500F5828E83E493253DF53D0541E5417002C6
:0E34950005407004E540640270DBD283C299EA
:0E34A3007546140075470300D547FCD546F565
:0834B1007599783099FDC2996C
:0E34B9007546140075470300D547FCD546F54F
:0634C700853D993099FDDE
:0E34CD0075460A0075470300D547FCD546F545
:1034DB00C283023605E53B640560030235FDF5400A
:1034EB00F541209823C3E5419488E5409413501887
:0E34FB0075460A0075470300D547FCD546F517
:103509000541E54170DE054080DA20980302303D2F
:1035190085993CC298E4F540F541209823C3E541DB
:083529009488E540941350184A
:0E35310075460A0075470300D547FCD546F5E0
:10353F000541E54170DE054080DA20980302303DF9
:09354F0085993EC298D283C2990D
:0E3558007546140075470300D547FCD546F5AF
:0835660075997F3099FDC299AF
:0E356E007546140075470300D547FCD546F599
:10357C007599203099FDE53C25E0FCE53E75F02081
:10358C00A42400FFE5F03CF5448F45E4F53DF53F00
:02359C00C299D2
:0E359E007546140075470300D547FCD546F569
:1035AC00854582854483E493F5993099FD0545E57D
:1035BC0045AE447002054414F5828E83E493253D98
:0B35CC00F53D053FE53FB420C7C29964
:0E35D7007546140075470300D547FCD546F530
:0635E500853D993099FDBF
:0E35EB0075460A0075470300D547FCD546F526
:1035F900C2838008E53BB4060375EF10E53B640719
:0A360900600302303D7880F6D2AF76
:013613002294
:101828007F00121B5E20090B7A007B327D017F004E
:10183800121656300C0B7A007B1E7D017F001216A3
:1018480056300817300D147A007B327D01788AE60D
:10185800FF121656C2081212DFD209200B0C300DE7
:1018680009788076F11212DFD20B300E08300D05A0
:10187800C20E123000200D12121CE7E47B2C7A01F4
:0B188800F9F8C3120B325002D20D22FF
:0B1CDC00120C881218281216CF80F896
:100F3000005EBCE2613FDD83C29C7E20A3FD1F41B9
:100F40009DC3217FFCA2401E5F01E3BD3E6082DCA9
:100F5000237D9FC1421CFEA0E1BF5D0380DE3C6299
:100F6000BEE0025CDF81633D7C22C09E1D43A1FF89
:100F70004618FAA427799BC584DA3866E5BB590779
:100F8000DB856739BAE406581947A5FB7826C49A69
:100F9000653BD987045AB8E6A7F91B45C6987A2459
:100FA000F8A6441A99C7257B3A6486D85B05E7B949
:100FB0008CD2306EEDB3510F4E10F2AC2F7193CD39
:100FC000114FADF3702ECC92D38D6F31B2EC0E5029
:100FD000AFF1134DCE90722C6D33D18F0C52B0EE19
:100FE000326C8ED0530DEFB1F0AE4C1291CF2D7309
:100FF000CA947628ABF517490856B4EA6937D58BF9
:101000005709EBB536688AD495CB2977F4AA4816E8
:10101000E9B7550B88D6346A2B7597C94A14F6A8D8
:10102000742AC896154BA9F7B6E80A54D7896B35C8
:0A10300000000000306498CCDDEFF2
:03001C0001560A80
:1014B80015161516A816ECF608EDF61516151615D8
:1014C80016A816C6EBC608C6EAC608C6E9C6E516D3
:0414D80024FCF516E5
:1014DC00F80808E4F6A816F608F6E5162407F9A8A5
:1014EC0016E6FE08E6FFC3099719E76480F8EE6478
:1014FC0080985037E5162404F8CBE6CB08E6FA08BA
:10150C00E6F98F828E83120A18A816080866FFE582
:10151C00162403F8EFF6E6900F3093A8160808F699
:10152C00A8160806E61870B20680AFA8160808E6DA
:01153C00FFAF
:07153D00E5162409F5162252
:0B1CD000ED6F7871F6E6900F3093FF87
:011CDB0022E6
:101C2800EF701B7598D0E589540F4420F589438ED1
:101C380008ED90102F93F58DD28ED2ACC2BCD2AFE6
:011C48002279
:101A57007859120B5B00000000785D120B5B0000E9
:101A6700000078517664E47872F67872E6FFC394E2
:101A770001502DEF25E025E02452F8E4F6EF25E0AC
:101A870025E02453F8E4F6EF25E025E02454F8E4B4
:101A9700F6EF25E025E02455F8E4F678720680CACB
:011AA700221C
:101C8800D2AFD2A9C2BBE589540F4401F589758E3C
:0C1C980002758CECE4F58AD28C021A571D
:0213820015163E
:10138400A816E4F6A816E6FFC39401400302141D50
:10139400EF25E025E02455F8E6FFD394004066A845
:1013A40016E625E025E02453F8E67059EF30E01501
:1013B400A816E6FF25E025E02455F8E6D39401407D
:1013C400047D0080067D01A816E6FF121AF0A81617
:1013D400E6FF25E025E02455F8E6B401057D011279
:1013E4001AF0A816E6FF25E025E02455F816E66075
:1013F40014EF25E025E02454F8E6FEEF25E025E08F
:101404002453F8EEF6A816E625E025E02453F8E682
:09141400600116A81606021388F7
:03141D000516228F
:03000B000215D00B
:1015D000C0E0C0F0C083C082C0D0E8C0E0E9C0E095
:1015E000EAC0E0EBC0E0ECC0E0EDC0E0EEC0E0EF50
:1015F000C0E0758CEC7859120B43EF2401FFE43EF8
:10160000FEE43DFDE43CFC7859120B4F785116E6A0
:10161000701B785D120B43EF2401FFE43EFEE43DB6
:10162000FDE43CFC785D120B4F7851766412138216
:10163000121C06D0E0FFD0E0FED0E0FDD0E0FCD0F0
:10164000E0FBD0E0FAD0E0F9D0E0F8D0D0D082D002
:0616500083D0F0D0E0326F
:101BDF001516A816EDF61516A816EFF6A816E6FFB9
:101BEF00C39401500D08E6FEEF25E025E02452F8DE
:071BFF00EEF60516051622A3
:1016560015161516A816EAF608EBF61516A816EDD1
:10166600F61516A816EFF6A816E6FFC39401505213
:10167600EF25E025E02455F8E67047A816E6FB2599
:10168600E025E02453F8E67039A81608E625E004BC
:10169600FFA816E6FA25E025E02455F8EFF6A81689
:1016A6000808E6FE08E6FF7C007D0A120A8BEA259A
:1016B600E025E02454F8EFF6EB25E025E02453F886
:0916C600E4F6E5162404F51622F1
:101AF0001516A816EDF61516A816EFF6A816E6FFA9
:101B0000C39401501CEF25E025E02452F8E6601153
:101B1000A81608E670047F0180027F00A81608EF6F
:101B2000F6A816E6700608E624FF92A70516051625
:011B30002292
:091CE700C2AF7859120B43D2AFD1
:011CF00022D1
:091CF100C2AF785D120B43D2AFC3
:011CFA0022C7
:101B5E001516A816EFF6A816E670057857F608F6CD
:101B6E003012167856E675F064A4FFC37858E69FD7
:0C1B7E0018E695F05003E4F5FE05162271
:101C4900D212E47857F608F6EF78566003F6800268
:101C5900760AE4F5D975FDFF75D940F5FE75EF06ED
:011C69002258
:0F1CB400C212E47857F608F6785676FFF5D92273
:101C0600785806E6187001063012167856E675F012
:101C160064A4FFC37858E69F18E695F05003E4F5F0
:021C2600FE229C
:041B8A008E3B8F3CC3
:101B8E00E4F53DF53EC3E53E953CE53D953B5016EF
:101B9E007FE87E0312195C7F01121B5E053EE53E57
:061BAE0070E3053D80DF3D
:011BB400220E
:04195C008E3F8F40EB
:10196000D3E54094FAE53F9400500FEFD394004044
:1019700041007E0300DEFD1F80F1853F418540422E
:10198000D3E54294FAE541940040157FFA7E0012B7
:10199000195C74062542F54274FF3541F54180E03B
:1019A000D3E5409400E53F94004007AF42AE4112BA
:0219B000195CC0
:0119B2002212
:10189300754B00754C00754D457B007A0079437D8F
:0118A3000242
:0818A4008B478A4889498D4AEF
:1018AC007F01121B5EAB4BAA4CA94D120AC124003E
:1018BC00FFE5F0343AFE85474E85484F854950E4A4
:1018CC00FDEDC3954A501BEF2DF582E43EF583E404
:1018DC0093AB4EAA4FA9508D82758300120A570DF7
:0F18EC0080DFAB4BAA4CA94DE4854AF0020AEC11
:10122600753D12753E3475450075460075473F7B22
:07123600007A00793D7D0202
:08123D008B418A4289438D4474
:101245007880E664F160030212DE121CB4C2AF7549
:101255008F01AB45AA46A947120AC12400FFE5F054
:10126500343A7872F608EFF6AA42A9437876A64191
:1012750008C6EAC608C6E9C6E47874F67874E6C313
:101285009544503C7876CBE6CB080806E618CAE6C6
:10129500CA70010614F91209FF7875F675B7A578B5
:1012A50080E6F5B77875E6FF78720806E618CCE6AD
:1012B500CC70010614F5828C83EFF078740680BC3F
:1012C500E4F58F53B6F0AB45AA46A9478544F0121D
:0912D5000AECD2AFE4FF121C493F
:0112DE0022ED
:1019B3007880E664F1704AC2AF121CB4758F037865
:1019C30073763A087600E47872F675B7A57880E600
:1019D300F5B77873E6FE08E6F5828E83E4F07F01BF
:1019E300121B5E7874E426F618740236F61806E6BF
:1019F300C3940140D5E4F58F53B6F0D2AFFF121C68
:011A03004999
:011A040022BF
:1012DF001219B3E4F53FF540F54575460075473FE4
:1012EF00FB7A00798C7D1612123D121226E4F53C22
:1012FF00E53CC3786C965073E4F53BAB10AA11A98B
:10130F001275F010E53BA4F58285F083120A186080
:10131F0056E53B75F010A429F9EA35F0FA90000D67
:10132F00120B747889E6853CF0A429F9EA35F0FAB6
:10133F00EBC0E0EAC0E0E9C0E0AB10AA11A912755A
:10134F00F010E53BA4F58285F083120A18FD754570
:10135F000075460075473FD0E0F9D0E0FAD0E0FBCA
:10136F0012123D053B8094053C8085121226E478CD
:02137F0080F6F6
:011381002249
:02113E008F3FE1
:10114000E4F545F546F542F54B754C00754D45FB0C
:101150007A00798C7D161218A4121893E544643431
:101160007004E54364127003434201E4F541E54134
:10117000C3786C964003021211E4F540AB10AA113B
:10118000A91275F010E540A4F58285F083120A18C3
:10119000607AE53F6054E54075F010A429F9EA351E
:1011A000F0FA90000D120B747889E68541F0A429BD
:1011B000F9EA35F0FAEBC0E0EAC0E0E9C0E0AB10D4
:1011C000AA11A91275F010E540A4F58285F08312EA
:1011D0000A18FD754B00754C00754D45D0E0F9D0EF
:1011E000E0FAD0E0FB1218A4801DAB10AA11A912DE
:1011F00075F010E540A4F58285F083120A182546A3
:10120000F546E43545F545054002117C05410211DE
:101210006E121893E54464347004E543641270035D
:05122000434202AF4251
:0112250022A6
:10087100EC4D6011E8497017ED33EC3304600DE481
:10088100FCFFFEFD22E933E8330470F80209EA12A5
:1008910009B558046009E4CC2481500628500902A6
:1008A10009F42840030209F1C0E0EB4A7044B98021
:1008B10006D0E0FB0209E0EF4E701CBD8008EBFFA3
:1008C100EAFEE9FD80EBE98DF0A4FEE5F002095AAC
:1008D100E9CDF9EAFEEBFFEF89F0A4FCE5F0CE8962
:1008E100F0A42EFFE435F0CD89F0A42DFEE435F01F
:1008F1008067EF4E7005BD80D780C3EF8BF0A4AC4D
:10090100F0EE8BF0A42CFCE435F0F8EF8AF0A42C87
:10091100E5F038FCE433CB8DF0A42CFCE5F03BF89A
:10092100EE8AF0A42CFCE5F038F8E433CF89F0A48A
:100931002CFCE5F038CF3400CE89F0A42FFFE5F090
:100941003EFEE433C98DF0A42EFEE5F039CD8AF0E8
:10095100A42FFFE5F03EFEE43DFD33D0E0FB500760
:100961000BBB000F0209F4EC2CFCEF33FFEE33FE5E
:06097100ED33FD0209CC8C
:1009770075F020800E75F010800575F0087D007EFB
:10098700007F003392D530D503120B24EC3340108F
:10099700EF33FFEE33FEED33FDEC33FCD5F0ED2204
:0E09A700E5F0247EA2D513CC92E7CDCEFF2240
:1009B500E9D2E7C933E833F892D5EDD2E7CD33EC88
:0709C50033FC5002B2D52201
:1009CC00EC30E7100FBF000C0EBE00080DBD00048C
:1009DC000BEB6014A2D5EB13FCED92E7FD2274FF38
:1009EC00FCFDFEFF22E480F8A2D574FF13FC7D8091
:0309FC00E480EFA5
:03000000021544A2
:0C154400787FE4F6D8FD7581BD02158BA0
:1009FF00BB010689828A83E0225002E722BBFE02F6
:090A0F00E32289828A83E4932228
:100A1800BB010CE58229F582E5833AF583E0225093
:100A280006E92582F8E622BBFE06E92582F8E222DD
:0D0A3800E58229F582E5833AF583E49322F7
:100A4500BB010689828A83F0225002F722BBFE0190
:020A5500F3228A
:100A5700F8BB010DE58229F582E5833AF583E8F0D5
:100A6700225006E92582C8F622BBFE05E92582C881
:020A7700F22269
:100A7900EF8DF0A4A8F0CF8CF0A428CE8DF0A42E91
:020A8900FE224B
:100A8B00C2D5EC30E709B2D5E4C39DFDE49CFCEE86
:100A9B0030E715B2D5E4C39FFFE49EFE120BF6C3FD
:100AAB00E49DFDE49CFC8003120BF630D507C3E4F8
:060ABB009FFFE49EFE22F5
:100AC100BB010A89828A83E0F5F0A3E02250068700
:100AD100F009E71922BBFE07E3F5F009E3192289C2
:0B0AE100828A83E493F5F074019322F5
:100AEC00BB010789828A83020C4B500B09C5F02786
:100AFC00F7C5F01937F722BBFE0D09F8E325F0F323
:100B0C00C5F019E338F322F889828A83740193259E
:080B1C00F0C5F0F8E493382263
:0E0B2400C3E49FFFE49EFEE49DFDE49CFC22E2
:100B3200EB9FF5F0EA9E42F0E99D42F0E89C45F019
:010B42002290
:0C0B4300E6FC08E6FD08E6FE08E6FF22DE
:0C0B4F00ECF608EDF608EEF608EFF622D2
:100B5B00D083D082E493F608740193F60874029361
:090B6B00F608740393F674047398
:100B7400BB010DE58229F582E5833AF583020C6A0F
:100B84005007E92582F8020C61BBFE07E92582F8CB
:100B9400020C73E58229F582E5833AF583020C7C25
:100BA400D083D082F8E4937012740193700DA3A3E0
:100BB40093F8740193F5828883E4737402936860F4
:060BC400EFA3A3A380DFF4
:101A05008B3F8A408941E4F547F548E5461546AEE2
:101A150045700215454E6033AB42AA43A9441209ED
:101A2500FFFFAB3FAA40A9410548E548AC47700216
:101A3500054714F5828C83EF120A57EF60CD7401C8
:101A45002544F544E43543F54380C0AB3FAA40A99E
:021A550041222C
:100BCA00EF4E6012EF60010EEDBB010B89828A8342
:100BDA00F0A3DFFCDEFA2289F05007F709DFFCA94F
:0C0BEA00F022BBFEFCF309DFFCA9F022A6
:10155000021CDCE493A3F8E493A34003F68001F2B9
:1015600008DFF48029E493A3F85407240CC8C3339C
:10157000C4540F4420C8834004F456800146F6DF6B
:10158000E4800B010204081020408090000EE47EED
:10159000019360BCA3FF543F30E509541FFEE49360
:1015A000A360010ECF54C025E060A840B8E493A327
:1015B000FAE493A3F8E493A3C8C582C8CAC583CA52
:1015C000F0A3C8C582C8CAC583CADFE9DEE780BE0A
:01001F0000E0
:100BF600BC000BBE0029EF8DF084FFADF022E4CCE3
:100C0600F875F008EF2FFFEE33FEEC33FCEE9DECAB
:100C1600984005FCEE9DFE0FD5F0E9E4CEFD22EDF1
:100C2600F8F5F0EE8420D21CFEADF075F008EF2F3B
:100C3600FFED33FD4007985006D5F0F222C398FD2C
:050C46000FD5F0EA22C9
:100C4B00C5F0F8A3E028F0C5F0F8E5821582700234
:060C5B001583E038F022D1
:090C6100E6FB08E6FA08E6F922B8
:090C6A00E0FBA3E0FAA3E0F9228B
:090C7300E2FB08E2FA08E2F922B2
:0C0C7C00E493FB740193FA740293F922D4
:00000001FF
